:020000040007F3
:10800000608700204DDA0700D78B0700B38C07008C
:108010007B94070037950700879907000000000050
:10802000000000000000000000000000E1D6070092
:10803000779E0700000000005BA907002BAE070039
:10804000B7AE07002BB8070097C40700F3D60700A8
:10805000D7D70700F3D8070071D90700F7D9070071
:1080600003DA0700C1DA0700C3DA0700C5DA070040
:10807000C7DA0700C9DA0700CBDA0700CDDA070054
:1080800021B70700CFDA0700D1DA0700D3DA0700FB
:10809000D5DA0700D7DA07003B9C0700D9DA0700DA
:1080A000DBDA0700DDDA0700DFDA0700E1DA0700D4
:1080B000E3DA0700E5DA0700000000000000000036
:1080C000E7DA0700E9DA0700EBDA0700EDDA070084
:1080D00037B40700EFDA0700F1DA0700000000000C
:1080E0000000000000000000000000000000000090
:1080F0000000000000000000000000000000000080
:10810000000000000000000000000000000000006F
:10811000000000000000000000000000000000005F
:10812000000000000000000000000000000000004F
:10813000000000000000000000000000000000003F
:10814000000000000000000000000000000000002F
:10815000000000000000000000000000000000001F
:10816000000000000000000000000000000000000F
:1081700000000000000000000000000000000000FF
:1081800000000000000000000000000000000000EF
:1081900000000000000000000000000000000000DF
:1081A00000000000000000000000000000000000CF
:1081B00000000000000000000000000000000000BF
:1081C00000000000000000000000000000000000AF
:1081D000000000000000000000000000000000009F
:1081E000000000000000000000000000000000008F
:1081F000000000000000000000000000000000007F
:1082000010B543689C18446041B103E013F8010BBA
:1082100001F8010B1046421E0028F7D1012010BDC5
:1082200038B584B00446154669B920681D4A9042A5
:1082300009D000E0103D102D15D9102200F0C1F832
:108240000028F7D10DE0A068A84238BF002008D36D
:1082500023682A462046984718B1A068451BA560A8
:10826000012005B030BD2A4600F0ABF8F9E710B5A3
:108270000446A06840B1236801222046984718B1FF
:10828000A068401EA060012010BD1FB501910292A0
:108290000023044C039300946946102200F02AFC4A
:1082A0001FBD000001820700F8B50C46054669466F
:1082B000FFF7DDFFE0B19DF80000010603D406469C
:1082C00026600120F2BD072700F07F066946284698
:1082D000FFF7CDFF60B19DF8000000F07F00B840CF
:1082E00006439DF80000FF1D0106E9D5202FEDD3C0
:1082F0000020F2BD2DE9FC410E4600270024002598
:10830000804669464046FFF7B2FF80B19DF8000005
:1083100000F07F0000213A4600F04CFC9DF8002060
:1083200004430D43FF1D100603D5402FE9D3002061
:1083300002E0C6E900450120BDE8F681F8B5164621
:108340001C460D46002222702A703260074600F05B
:1083500053F828B9B86808B9012121700020F2BD8E
:10836000009810B901212170F2BDC00830600120D1
:10837000009901F007012970F2BD1CB5044631B126
:1083800001290ED002290ED0052913D017E00122B1
:1083900000F017F8A0B19DF800000106F7D4012005
:1083A00016BD082207E000F027F848B1009A002126
:1083B000204601E004220021FFF732FF16BD002015
:1083C00016BD694620462BE738B50D46044600F039
:1083D00013F880B128462146102200F08BFBA868D4
:1083E0000099884201D2002032BDA9600098A1689E
:1083F000091AA160012032BD694655E72DE9FF4108
:1084000004461646084671680FF2A4658A7802F0A1
:108410000F0355F8238012F0300709D0102F04D035
:10842000202F07D0302F36D04AE070690123037027
:10843000326942E0022822D1042B20DC75696946AA
:108440002046FFF7C1FF012718B93AE02888401CF1
:108450002880029868B1716828884A89904208D2B9
:108460000A89336950431A186846C0470028EDD17D
:10847000002701986060029810BB384621E07369BC
:1084800032691F880E8948897E438742324417D259
:108490007F1C1F8011E073690888188002F00F02AA
:1084A000072A08D10989306900F096FB70683169A4
:1084B000C06800F0FEF8326971682046C04700E0ED
:1084C000002004B0BDE8F0812DE9F841144687B0E2
:1084D00025690646286818B93046FFF74EFF3DE08B
:1084E000022911D169463046FFF76EFFD8B16168A5
:1084F0002B682A1D68469847A8B102980028F6D133
:1085000001987060012029E0E84671B1012903D08B
:10851000052908D1042700E008273A466946304675
:10852000FFF77EFE80B9002018E000277F1C0B2F8C
:10853000F9D2012241463046FFF772FE0028F2D000
:1085400018F8010B0106F1D43A46694603A8FFF773
:108550009CFE61682B682A1D03A8984708B0BDE8F7
:10856000F08110B553689C7814F0C00402D0402C00
:1085700003D005E0BDE8104040E7BDE81040A3E7A8
:10858000002010BD70B50D460446286886686A68EC
:108590003146204600F023FB6868206105F10C019C
:1085A0006161B07800F0C000802804BF281D206100
:1085B00070BD2DE9F84386B006461869B7680468AF
:1085C0008946904600E0A468ECB1B06887421AD1B1
:1085D000206805682DB143464A4621463046A847E3
:1085E0000EE0806801884945EDD121466846FFF7D5
:1085F000C9FF012020736A4641463046FFF7B1FFAC
:108600000028E0D100E0012007B0BDE8F08310B5FC
:1086100086B04268937803F00F0108290ED10069F3
:108620000468002C43D00022227321466846FFF7DD
:10863000A9FF6846FFF7EBFFA468F2E713F0C0015B
:1086400027D103F03004102C0DD1436919709178B3
:10865000D368006901F00F01072910D101461846BF
:1086600000F027F823E003F0300120291CBF03F0BD
:108670003003302BEBD140690021018017E01189D4
:1086800023B10A46194600F025FA10E000F0A4FADA
:108690000DE080290BD10169002203F030040A604B
:1086A000202C19BF03F03003302B4069028006B044
:1086B00010BD80B50A4686B00146684600F08FFAC4
:1086C00038B16846FFF7A3FF684600F09BFA002820
:1086D000F7D107B000BD2DE9F0418AB002AB00240C
:1086E000C3E90044054604A800F079FA00274FF0DA
:1086F000FF360DF10808A868002837D00DF10103F6
:1087000001AA69462846FFF719FE58B3019904A843
:1087100000F0B8FA00283FD10198B8421CD3059C5C
:108720000598817801F00F01082933D004A800F0E2
:1087300069FA0598A042F3D137460199B9420BD3A3
:10874000AC689DF8002004AB2846FFF732FF0028F4
:1087500057D0A8688442CED19DF800102846FFF774
:108760000CFE3AE09DF8010000284AD00598857873
:10877000069C04A800F046FA0028F7D115F0300F47
:1087800003D10599088800B1641C002C3BD000205F
:1087900061092BE00788D0E70598817811F0300F48
:1087A0000DD1069840280AD2410958F8212001230A
:1087B00000F01F0003FA00F0104348F82100EC68B5
:1087C0002CB19DF80020019904AB2846A0479DF8E4
:1087D000001004AA2846FFF7C4FE00288BD110E041
:1087E00058F8202012F1010F0BD1401C8842F7D31A
:1087F00004F01F0458F82100C4F12004E640B04200
:1088000001D0002000E001200AB0BDE8F08170B581
:1088100004460D46164631462846FFF74AFF3246C3
:1088200029462046BDE8704055E73EB50C466946EE
:10883000FFF760FD68B1DDE90023DDE900015B08B9
:108840004FEA3202C50744BFD243DB43C4E90023E9
:1088500001203EBD1CB50C4604226946FFF7E0FC32
:1088600078B19DF800009DF8011040EA01209DF8C4
:10887000021040EA01409DF8031040EA01602060C8
:10888000012016BD1CB50C4608226946FFF7C8FC3E
:10889000F0B19DF800209DF801009DF8043042EAF7
:1088A00000229DF8020042EA00429DF8030042EADD
:1088B00000629DF8050043EA00239DF8060043EAA4
:1088C00000439DF8070043EA0063C4E90023012048
:1088D00016BD3EB500F051F818B32A89DDE9000154
:1088E000082A08D1C4E90001D4E900238B4215D13C
:1088F000824215D012E0C117042A03D1206002463B
:10890000D317F3E7022A03D12080B4F90020F7E758
:10891000012A03D1207094F90020F1E700203EBD28
:1089200001203EBD3EB500F028F828B3288908286C
:108930000AD1DDE90001C4E90001DDE90023994223
:1089400017D1904217D014E0042804D1DDE90001CA
:1089500020600021F1E7022804D1DDE90001208038
:108960002088F6E7012804D1DDE900012070207895
:10897000EFE700203EBD01203EBD0D46144669468E
:10898000B8E43EB50D4614466946FFF74EFF38B3CE
:10899000288908280AD1DDE90001C4E90001DDE9E0
:1089A0000023994219D1904219D016E0042804D12D
:1089B000DDE900012060C117F1E7022805D1DDE9FA
:1089C00000012080B4F90000F5E7012805D1DDE9B8
:1089D0000001207094F90000EDE700203EBD012069
:1089E0003EBD114636E711464CE77CB50E460446BF
:1089F0001546FFF701FDC0B10098B0F5803F0BD2DE
:108A00000099801C884207D3B17801F0C001802909
:108A100002D03189814201D2002076BD00982880A1
:108A2000A91C009A2046FFF7FBFB76BD7CB50E46DD
:108A300005461446FFF7E0FCB0B100980099401CD1
:108A4000884207D3B17801F0C001802902D0318972
:108A5000814201D2002076BD009A21462846FFF7C8
:108A6000DFFB009A0021A15476BDF8B50D4684B015
:108A7000EF6800F017F800281ABFE8680028002007
:108A80000ED0A87800F030002028324639466846DB
:108A900002D1FFF7BCFE01E0FFF71DFE0199616006
:108AA00005B0F0BD0446164669468DE4000000009E
:108AB000D38807002589070083890700E389070019
:108AC000E7890700EB8907002D8A07006B8A0700FA
:108AD0000000000062B38B0708D0521E11F8013B62
:108AE00000F8013B00F024808B07F6D1830740F0AB
:108AF000208000BF103A07D330B4B1E83810103AE4
:108B0000A0E83810F9D230BC530724BFB1E80810F0
:108B1000A0E8081044BF51F8043B40F8043BD207DA
:108B200024BF31F8022B20F8022B44BF0B780370CE
:108B30007047121F17D35B0009D151F8043B20F88E
:108B4000023B1B0C121F20F8023BF6D20BE051F83F
:108B5000043B00F8013B1B0A20F8023B1B0C121FD0
:108B600000F8013BF3D238BF121D521E24BF11F88A
:108B7000013B00F8013BF8D8704730B4002513E002
:108B800050F8042BD30744BFA9F101039A18091F19
:108B9000042942F8045BFAD213468C0744BF1580BF
:108BA0009B1CC90748BF1D7050F8041B0029E7D162
:108BB00030BC7047D2B2203A22BF00FA02F1002046
:108BC00070475242D041D2F1200291404140D04002
:108BD000904041407047FEE7002200F06FB810B5AA
:108BE00001604160C2600021816041688B881A4445
:108BF0000261B1F9064022444261088800B10120B7
:108C0000C0B210BD70B543681A46118839B110332F
:108C10004360198829B9C2680168FFF7E0FF0020A6
:108C200070BD917814890D4605F03006302E02BFD4
:108C30009E7806F03006302E06D1958801696D4287
:108C40000D44002405610BE001F0F001202902D160
:108C500051894C4304E005F0C005802D08BF042471
:108C6000917811F0300F02D18168491C816001694F
:108C70009A88214411440161B3F9063019444161D5
:108C8000012070BD70B504460D46666860680188B5
:108C9000A94204D1807800F00F00082807D12046AF
:108CA000FFF7B0FF6068B042F0D1002070BD012036
:108CB00070BDFEE762F30F2262F31F42401810F00E
:108CC000030308D0C91A1FD3DB0748BF00F8012DE2
:108CD00028BF20F8022D130030B414461546103971
:108CE00028BF20E93C00FAD8490728BF20E90C003A
:108CF00048BF40F8042D890028BF20F8022D48BF46
:108D000000F8012D30BC7047C91818BF00F8012DBC
:108D1000CB0728BF00F8012D7047000000000000BD
:108D20000870020A030C000EC8704A708B70042091
:108D3000704718B58BB005A80FF244611822FFF7F1
:108D4000D9FE1624ADF8004001A80FF2246100F00E
:108D500002FADFF8D835022001211870597003207B
:108D60000221D87019715920FE215871997106227B
:108D70009A70694603F109007DDFC8B9BDF80000AB
:108D8000401C0921D871197205AABDF80810BDF858
:108D900000004118ADF8081003F1200001A972DFAE
:108DA00030B993F8200074DF93F82000012173DFBD
:108DB0000CB010BD13B584B0044668460FF2E05104
:108DC00000F0C9F9DFF86425108EADF8000005A9A0
:108DD000029103946946908FAEDF06B010BD70B566
:108DE000044608461546E11CFFF79AFFE21C0646BA
:108DF00011182846FFF794FF301880B270BDF0B507
:108E000085B004466846142100F034FB2578082D0F
:108E10000DD1DFF81815488F421E088F4A870028A9
:108E200047D092B2002A44D148870320207060784E
:108E300021788DF8020060228DF800208DF8011055
:108E40000326607801280BD00B2807D100F01AFB0D
:108E50008DF803000426002000F010FB314625E0C9
:108E6000207803281BD0062802D0082817D01CE041
:108E7000A5686668E0680DF10301FFF751FF0DF189
:108E80000304074621183046FFF74AFF3E18B6B2E2
:108E9000A1192846FFF744FF8619F61C05E0A268D1
:108EA00061686846FFF79BFFC61CF1B26846FFF792
:108EB00081FF05B0F0BD0146DFF8740400F023BB6C
:108EC000F8B50E4686B00546F088A98888421ED1BE
:108ED000DFF85C74384600F0F4FA040017D0328AE8
:108EE00006F11201FFF7F6FD68460FF2EC41182279
:108EF000FFF700FE01950494308AADF8140068462F
:108F000000F095FC18B12146384600F0FCFA07B095
:108F1000F0BD78B5064687B0DFF810443088A58FDD
:108F2000012800F0938010281BD0112824D013288A
:108F300061D0142800F0FF801A280BD01F2870D0B1
:108F4000212873D023284BD0502827D0512800F057
:108F50008180522800F0F580552825D056286ED003
:108F6000F7E0B188A187216E09B101208847A08F61
:108F70000FF2F43175DFECE04FF6FF70A08794F844
:108F80005C10480704D4FFF7D4FE08B100F0A6FC3B
:108F9000216E002901D002208847DAE0314604F131
:108FA0002400FFF78DFFD4E0F188F72913DAC81EFB
:108FB000421000EB92739B10B0EB83000CD0C91FE2
:108FC00088B2401E091A421000EB9270801001EB2B
:108FD0008001891D00E0F72189B22846B5DFB5E0A0
:108FE0000FF20C406946D0E90023CDE90023B08898
:108FF000002290DFAAE00FF200412846D1E90023C9
:10900000CDE90123CDF808D001AA42F60521ADDF54
:1090100008B100F063FCA08F0023002285217FDFD0
:1090200094E006F10801284675DF8FE00FF2D0309A
:109030000188ADF800106946B0888FDF86E0B0790E
:10904000002812D11321284676DF7FE00021284630
:1090500066DF7BE0B07900287BD0022802BF308930
:10906000218E884204BFB07B012872D101A80FF283
:10907000583100F070F8308AADF80C0006F1140297
:10908000718AADF80E10049228460FF20C31D1E926
:109090000023CDE90523A18ECDF818D005AAADDFB8
:1090A00058B9684600F068FC38B940F2FD10ADF8D8
:1090B000080001A9A08FB0DF4BE00020ADF8080048
:1090C00001A9A08FB0DF002843D168460FF2E0214C
:1090D0001822FFF70FFD317D8DF8001004F12402F6
:1090E0009DF80000019201280DD0022804D0062826
:1090F00004BF707D04901AE0707DB17D40EA0120CC
:109100002087608713E0208F6087707D0490B17D99
:10911000F27D337E41EA0221727E41EA034141EA57
:1091200002610128059102D1824800F03CFC6846AA
:1091300000F07DFB0DE0B08800230022002186DFD7
:1091400004E0B088002300220021B1DF08B100F064
:10915000C5FB08B070BD1022FFF7CCBC18B593B0AA
:109160000446724901224FF6FF708DF8022088876D
:109170004FF65963ADF80030224669460120A8DF5A
:10918000002846D10DF120006EA1FFF7E4FFA11CDD
:1091900008A862DF00283CD10DF1300099A11C2203
:1091A000FFF7A8FC9EA00168019103A894F8022093
:1091B0009CA18DF806200A689BA102921422FFF759
:1091C00099FC01A902AA03910492231D208803AAF5
:1091D0000CA9AADFE8B90CA898A11C22FFF78AFC09
:1091E0009DA00168019103A894F802209BA18DF82D
:1091F00006200A689AA102921422FFF77BFC01A9BB
:1092000002AA0391049204F10C03208803AA0CA97A
:10921000AADF14B010BD00001FB5444C94F85C10D8
:10922000CA0758D42066424800F034F90020009064
:1092300000F0E8FB00284FD13F4813DF00284BD156
:1092400000F074FC002847D1684600F00BFD0028B0
:1092500042D16946012000F00CFD00283CD168464F
:1092600000F061FD002837D100F0B9FD38B104F1FC
:10927000400000F0AAFDE06D40F00200E065112022
:109280008DF8000001A86DDF30BB9DF80500401C83
:109290008DF8050001A86CDFF0B994F85C00810737
:1092A00047BF04F14401A26D0FF29001072292B270
:1092B00068467CDF80B900BF2BA07ADF60B904F17B
:1092C0002400FFF74BFF38B9FFF733FD20B9E06DFD
:1092D00040F00100E065002004B010BD38B5134A2D
:1092E000D36D0021DC071ED5124DA8421BD0908FF4
:1092F0004FF6FF71884210D043F00403D365132169
:1093000076DF01000FD1C82415A14FF47A4041F057
:1093100001018847641EF7D102E092F8200074DF53
:1093200000F033FC0146084632BD0000945900208D
:1093300028DA070098DA07000080070044667554B1
:109340006172670050EADA308883B89F604F15F386
:109350000000C98E000000000000000000000000B6
:109360000338FDD8704700000C000C0000005802C4
:1093700094590020090000000000000000000000D7
:1093800001000000000000002800000000000000B4
:1093900000000000000100000200000000000000CA
:1093A00000000100000000000000000000000000BC
:1093B0000000000000000000FF8D0700000000001A
:1093C000000000000000000002000000000001009A
:1093D0000000000000000000080000000000000085
:1093E000FF8D0700B78E070000000000000000009E
:1093F000000000000000000002000000000000006B
:109400000000000004000000000000000000000058
:10941000000000000000000000000000000000004C
:109420000200000000110300000000000000000026
:1094300000000000F4000000000000001800000020
:10944000000000000000000000000000000000001C
:1094500000000000000000000100000000111300E7
:1094600000000000000000000000000017000000E5
:1094700000000000002200F0E5BCFEE7044908708F
:109480000B2070470249087800220A7070470000DC
:10949000577F002010B508B90E2010BD0368426840
:1094A00081681A60891A03E013685C1C14601970E3
:1094B0000B46591EDBB20268002BF5D1002010715B
:1094C00010BD38B5044600258DF80050684600F000
:1094D000D9FC21686268086882420ED2421E0A6086
:1094E0001578208AE36845431D44A36820689A1ACA
:1094F00003799A4238BF1A460A719DF8000000F0BD
:10950000DEFC284632BD38B50C46002105468DF8F4
:109510000010684600F0B6FC286801684A1C02602A
:10952000E8682A8A241AB4FBF2F20A709DF8000057
:1095300000F0C5FC31BDFEE7DFF84013CA68062025
:1095400010470B2803DB0B38C0B2FFF797BF7047FB
:10955000DFF82C13CA6B4260096C8160704738B524
:1095600005460C462978DFF81423012908D0032981
:1095700033D004291DD006292CD0082909D031BDAB
:10958000D16803208847686900F060FDFFF7D9FFC4
:109590001EE0A98A286900F070FDFFF7D2FF607015
:1095A0002046FFF7D5FFE968D9B12869BDE8344006
:1095B000084702F10801101D00F029FEFFF7C1FF66
:1095C000012860700DD1002001F012F948B10A2085
:1095D000607031BD4FF40071E1602046BDE832405B
:1095E000B6E731BD2DE9F04206460C4600F064FDB9
:1095F00010B9082060702EE0B18AA14D2B6D686D06
:109600006A6C5B181B1A9A4202D20321617022E035
:109610009A48D0F80490286B8144306905F14802DB
:1096200001F0F8F80746F368B28A3169484601F05C
:109630001BF920B13069F168BDE8F0420847286B9A
:10964000B18A41182963286DB18AAF644118296530
:10965000A760286D6060BDE8F082000010B5044688
:1096600086B0002001F041F928B1864A1821204631
:1096700001F090F91AE0684685A11822FFF73AFA3E
:109680007E487F4A8168136D8B420CD1406800F0A0
:10969000B9FF8DF80100FFF754FF00F009F87A4890
:1096A00001F0A6F802E0012000F002F806B010BDBB
:1096B0008DF801006168A268684610472DE9F04105
:1096C00006460D4630786D4F6D4C01284FF001086D
:1096D00008D0032837D004283AD006284FD00828CD
:1096E0002DD053E000F0E8FC002837D0706918B3A3
:1096F00001051FBF626D8218B9688A421CD1B0F59E
:10970000805F88BF04202AD8626DB96882189142B0
:1097100024D360640022E06CA064606D2065206347
:1097200071697868236D01F6FF71090B181801F053
:10973000A4F858B3052012E00321697026E03046F2
:10974000FFF750FF22E0A06CA860216D69601DE06A
:10975000206D626D616C821A914202D0082068709F
:1097600014E0002161644FF00008A26CE2646065BF
:109770003046FFF773FFF9680420884706E0A06CC5
:10978000A8604FF48050216D6960E8604046BDE8F4
:10979000F0810000F8B586B00646684642A1374D14
:1097A0001822FFF7A7F937788DF800700124307878
:1097B00001280FD0022827D0032818BF042809D079
:1097C000062818BF082805D00C282BD1E9680720E7
:1097D00088471AE0062812BF0128306928702978C6
:1097E000012907D002290AD169463046FFF766FFF2
:1097F000044609E069463046FFF7B1FE04E0002068
:10980000052128708DF8011054B17168B26868465E
:1098100090479DF80100012802D0E968052088479B
:1098200007B0F0BD02208DF80100EEE7B2E78168D5
:1098300009B907207047154A182101F0ABB838B5AF
:10984000040001D1072032BD012001F005F898B9CC
:1098500000F0DDFB00F030FC084D40B105F10801DF
:10986000281D00F0D4FC012801D0032032BDEC609B
:109870000020FFF703FE002032BD0000F859002051
:10988000D86D00205D960700399507002D980700D8
:1098900004000000000000000000000000000000C4
:1098A00000000000000000000001000000000000B7
:1098B00000000000000000000000000000000000A8
:1098C000BFF34F8F254926480A6802F4E06202433D
:1098D0000A60BFF34F8F00BFFDE7F1E7F0E780B507
:1098E00028B1012811D0052818BF072814D101205C
:1098F00001F0DCF8002001F0C3F8012001F0C0F80D
:10990000BDE80240022001F0BFB801F0BDF8BDE89B
:109910000240022001F0B4B801BD80B501F0F0F8BA
:1099200000224FF48051002001F006F908B1FFF742
:10993000D5FF0C480022C0F5FC2101F0FDF808B16C
:10994000FFF7CCFF084801F09FF908B1FFF7C6FF09
:109950000020FFF7C3FF002002BD00000CED00E077
:109960000400FA0500800700DF9807000146087828
:10997000497840EA0120704780B5FFF7F7FFFFE71D
:1099800000F0010002BDFEE7F8B500F01CF8B6EBF0
:10999000D50F07D257F8361020468847002808BF51
:1099A000761CF4D0F2BDF8B500F00DF8B6EBD50F8B
:1099B00008D207EBC60120464A689047002808BF36
:1099C000761CF3D0F2BD04460348044D044F451BFA
:1099D0000020002670470000A0DA070098DA070090
:1099E00098DA070038B584B004460D466846102161
:1099F000FFF740FDAD0801940295684618DF05B0F9
:109A000030BD0000F8B5684607A11022FFF772F8D4
:109A1000684618DF05B000BD4FF000514FF480508C
:109A200008600020704700000200000000000000F5
:109A300000000000000000002028014604DA6F4802
:109A4000C84000F001007047402808DA0122A1F167
:109A5000200012FA00F018BF0120C0B270470120A8
:109A6000704700001FB5044674A1684601F0CBF9A9
:109A700002E0684601F0CBF9029A3AB151681268E7
:109A8000204690470028F4D1112000E0002004B0C7
:109A900010BD00001FB504466BA1684601F0B3F984
:109AA00006E05168126820469047684601F0AFF919
:109AB000029A002AF5D11FBD80B51620FFF7BCFF22
:109AC00028B942F20100BDE80240FFF707BF4C4849
:109AD00000784009082803D2EC21C140C80702D40D
:109AE00042F20200EFE74749886820B10A6842F471
:109AF00080020A6001BD444913E080B51620FFF7DB
:109B00009BFF28B9BDE8024042F20100FFF7E6BE24
:109B10003C49886820B10A6822F480020A6001BDCD
:109B20003A494FF48000086001BD00003EB5384D51
:109B3000287808B108203EBD0120A8700020FFF75A
:109B400091FF11281FD00020FFF7A4FF44A10A684D
:109B5000019200238DF80030684600F093F92D49FA
:109B600001A810DF0446401E8041C00F00F033F80A
:109B70000CB120463EBD0020A8706870FFF79CFF26
:109B80000120FFF787FF00203EBD38B5204D287823
:109B900008B9082032BD0120A870FFF763FF112823
:109BA00017D00220FFF776FF00208DF800006846EE
:109BB00000F068F911DF0446002000F00CF80CB149
:109BC000204632BD0020A870FFF797FF0320FFF763
:109BD00061FF002032BD28709DF8000000F06FB9D1
:109BE0000B49887808B9082070470878002818BF02
:109BF000FFF7CBBF9AE7064800787047FC06FFBD29
:109C000016E400E0347F002000E100E080E100E0A5
:109C1000507F0020DB980700E0B500BF0DA168462B
:109C200001F0F1F805E0486809688847684601F0E6
:109C3000EEF802990029F6D107BDEDE794D80700A8
:109C4000A4D8070008000000A4D80700B4D8070073
:109C500008000000B4D80700C4D8070008000000BE
:109C60000100000708B90E20704746490160002036
:109C700070473EB50B00044601D10E203EBD414861
:109C80001860694600200022002581E82500012295
:109C90008DF8022006218DF80040ADF804106946C9
:109CA0001A68202069DF68460021002280E826002B
:109CB0000121ADF802208DF8011069461A68402094
:109CC00069DF0020002281E82500F722ADF802209C
:109CD0008DF8004023201A6869DF684600210022C1
:109CE000002480E8160001218DF8001069461A68EA
:109CF000012069DF00F011F84FF4B061009169466E
:109D00001A68A12069DF00F008F88DF80010694694
:109D10001A68A02069DF00203EBD684600210022AD
:109D200080E81600704760DF10B9174A01211170F2
:109D300070470000144900B50878ADF5017D88B979
:109D400003E0052818BFFFF7C9FD0DF5017D00BD33
:109D50005168126804A8904701A801F058F8039AC6
:109D6000002AF5D14FF4FA70ADF80000694604A856
:109D700061DF0028E5D100BF04A101A801F043F88C
:109D8000EDE7000068590020587F0020B4D9070093
:109D9000D4D907000800000038B5040001D10E2016
:109DA00032BD234DD5F8640310F1010F01D0082016
:109DB00032BD00221821201D00F02CFD206007225A
:109DC000214605F5597029DF32BD80B508B90E204E
:109DD00002BD1C221749FEF77DFE002002BD10B512
:109DE000134C0022182104F55A7000F013FDD4F82A
:109DF0006413814201D1012010BD002010BD10B5B7
:109E00000D4C04F54970016811F1010F04BF016C9C
:109E100011F1010F09D04FF4FE2001F007F8C9221B
:109E200021464FF4FE2001F023F8002010BD000071
:109E300000F0070064F30700D86D002062F30F22E2
:109E400062F31F4200B500BF1300964694461039D6
:109E500028BFA0E80C50FAD85FEA417C28BF0CC0AC
:109E600048BF40F8042BC90728BF20F8022B48BF81
:109E700000F8012B00BDFEE7EFF3108072B67047CB
:109E800062B6704738B50446FFF7F6FF154A916889
:109E900071B9012393601449144B1D680D4015607E
:109EA0001960596851604FF0FF325A60002100E09C
:109EB0000121217010B9BDE83140E1E731BD10B595
:109EC000084CA16869B160B9FFF7D6FF084922685C
:109ED0000A6063684B600021A16010B9BDE81040C2
:109EE000CEE710BD347F0020FC06FFBD80E100E01E
:109EF00000E100E05968DFF81037CA689A4200D0E4
:109F0000704710B541688268DFF80037586900284B
:109F100004BF9869002802D0002108E0491C087895
:109F2000521E0406FAD4481C58619A6101215974E2
:109F300010BD38B5DFF8D806DFF8D046826B84B0A4
:109F400000F15C016846FEF7A0F900F042F8DFF886
:109F5000C406DFF8C456E060002161746161A1614C
:109F600028464FF44771FFF785FA2A46DFF8AC160A
:109F70002046FEF74CFC00281CBF607C00281CD04B
:109F800005F5B67228781178C9B1B0B99079A0B149
:109F9000A26961696846FEF778F900F01AF805F5DC
:109FA000BA754FF4B2712846FFF764FA2A46DFF813
:109FB00058162046FEF72BFC38B9002007E0002891
:109FC0001CBFA8790028F8D00835E561012005B04C
:109FD00030BD204669461022FEF78CBD10B5DFF873
:109FE0004046207890B080B900F066FF2022DFF86C
:109FF0003416684600F096FF40236A46211DDFF8BC
:10A00000280600F0CAFF0120207010B010BD80B5F6
:10A01000DFF8FC15886B18B1FFF78BFF00B101204A
:10A02000DFF8E815087401BD10B5DFF8E445FF223C
:10A030004FF4007104F15C00FFF700FF202104F1F0
:10A040003800FFF717FA0020206310BD38B504462A
:10A0500001250CB903250EE040F20120844228BFFF
:10A06000042508D2DFF8A41500200874FFF7DCFFF0
:10A07000DFF89C058463284632BDF8B5DFF89065AB
:10A0800007460D46F06BB16B01244219914238BF6F
:10A0900003240FD330442A4639465C30FEF71AFDBC
:10A0A000F16B6918F16306F140022946384600F069
:10A0B000B1FB30642046F2BDDFF85005007C7047EC
:10A0C0002DE9F843A2B006460C4620279046994653
:10A0D00000F03DF80FF268573D680395FFF77EFFEB
:10A0E0000CB9132030E00EB116202DE02A9BDFF8CA
:10A0F0003055DFF8381502A805F18C06019000965E
:10A100004A4604A800F0B4FF00280CBFB8F1400F85
:10A110000A2019D14022214605F14C00FEF7DAFC55
:10A12000202105F14C0000F009FF402005F14C0111
:10A13000019000913246029B291D03A800F0ACFF5C
:10A14000002814BF0520012023B0BDE8F08302974A
:10A1500004A87821FFF78EB970B5044604F15505BF
:10A160000F202A7800235834002A12BF042A267BA5
:10A17000012E04D123690BB10B60012070BDD607FD
:10A1800003D56D78012D08BF23689207F3D5257993
:10A19000012DF0D1A268DFF89844C4F5FC24944264
:10A1A00028BFD318E7D2042070BD38B5084614463E
:10A1B00001230022002100F0C3FF012508B104257E
:10A1C00002E000F0ABFF2060284632BD38B5DFF872
:10A1D000484494F86C31251D0020002100223BB139
:10A1E00004F5367204F5B8751078528804F53771A5
:10A1F000DFF818349C695B690094FFF761FF012860
:10A2000004D1281DBDE8324001F007B832BDF8B5D1
:10A210000446DFF8FC030D46C16B806B814218BF1A
:10A2200008272CD1DFF8E463307C40B100F076FFE2
:10A2300020602946F069FFF78FFF07461FE0FFF710
:10A2400078FED8B1FFF7C2FF074600202060012F3B
:10A25000286004D1F0692946FFF77EFF0746012FE9
:10A2600005D12968F0692246FFF79FFF0746012FB5
:10A2700008BF377403D0FFF7D7FE00E00527384644
:10A28000F2BD2DE9F843AAB005468846202791463D
:10A290001E46FFF75CFFFFF7A1FE01242EB120222E
:10A2A000294622A800F034FE22AD02A8DFF884631C
:10A2B000DFF87813019000964B46424604A800F060
:10A2C000D7FE28B920222946304601F00BF800B10C
:10A2D000002420462BB0BDE8F08301237230D0E784
:10A2E00010B5014601F500504FF4405350F8042FCB
:10A2F0005868DFF84443A0420CD10020A2421FD18D
:10A3000018781528A3BF5869DFF83023B0FBF2F0A6
:10A31000002002E0A24212D10FE001F500521378B2
:10A32000152B07DB01F500511431C44A0968B1FB54
:10A33000F2F100E00021884201D0012010BD002090
:10A3400010BD00002DE9FC42A2B005460F462024B6
:10A35000164699460294FFF7FBFE41212846FEF778
:10A360003BFC44207043B7F89430391801F1960251
:10A370009E4234BF10782B98287048462B782A9E2E
:10A38000032B1DD8DFE803F00802101E002231461F
:10A3900000F040FAC5F8010032464946284600F070
:10A3A000BFF824B0BDE8F0826A1C02A900920191B6
:10A3B000024633469D4904A800F05AFE0028EBD01F
:10A3C0000020EEE752889A31681CFEF783FBE3E732
:10A3D00030B593B01D4601230193009204460B460D
:10A3E0000022214602A8FFF7ADFF70B165B1884D8C
:10A3F000412202A905F2A120FEF76CFB0120E862D0
:10A40000002129626068A860012013B030BD2DE9E9
:10A41000F843A4B005460E462C9C1746984613A850
:10A420004421FFF727F802A84421FFF723F8002E64
:10A43000C1463DD008F500527F4852F8043FA96D4F
:10A44000834241D108F5005202F108031A6801F570
:10A45000F853491EFF33C1F30B01591A8A4233D313
:10A460004FF440514A6882420ED108781128ACBF9F
:10A470000869002008F500510A78112AA6BF10319A
:10A480000968002188421FD14046FFF729FF08B123
:10A49000380019D0012001904346A96D0091002297
:10A4A000294613A8FFF74EFF70B1A86D8144241A06
:10A4B00038000BD00020019000944B460022294622
:10A4C00002A8FFF73FFF08B9002025E02D9810B340
:10A4D0004F4CAEB14046FFF703FF18B104F118002E
:10A4E00000F004FE412213A904F51870FEF702FBE8
:10A4F000380014BFAC20A520E062A86D606301E0C5
:10A50000AA21E1623FB1412202A904F2E220FEF752
:10A51000E1FA6868E060012025B0BDE8F083000042
:10A5200038B50C4611460278032A1ED8DFE802F03F
:10A530000A020C14D0F801500022204600F06AF9FB
:10A54000A84212D1012032BD0A46214601B0BDE821
:10A5500030400023401C94E600912346411C4022D9
:10A560000020FFF7ADFD012800D0002032BD2DE90D
:10A57000FE43264BDC6981460D4616462A4649466F
:10A5800020460127FFF7A9FEB84608B9172717E0AC
:10A5900094F8551039B933462A4649462046FFF704
:10A5A00017FF70B90BE04A08019600954B4602F080
:10A5B000010201F001012046FFF729FF08B9052734
:10A5C000B846134C46B9B8F1010F02D101206061C1
:10A5D00015E0FFF729FD12E0B8F1010F07D10022C5
:10A5E0002946484600F016F9A062656203E004F1CE
:10A5F000240000F07BFDFFF717FDC4F848903846B3
:10A60000BDE8FE830122B2E740D00700D07E0020E3
:10A61000D86D0020F59E07000079002060D107006A
:10A62000247E00201CD807006CDA070010DA07002F
:10A6300000800700F07E0020DBE5B15140420F00B2
:10A640000000000000225821001D00F0E3B810B502
:10A650000446206810F1010F07D02046FFF7F2FFF3
:10A660002168884201D1012010BD002010BD0022C8
:10A67000C32100F5187000F0CDB838B5634D2B68D4
:10A6800004465422191D201DFEF724FA04F15C0033
:10A690002968BDE838404FF432725C31FEF71ABACF
:10A6A0002DE9F0414FF4FE284046584EFFF7CFFF0A
:10A6B000346807462046FFF7CAFF58B16068012892
:10A6C00006D02046FFF7D3FFD4F85C12884201D1B0
:10A6D000012400E000244E4D4FF460715FB30A4640
:10A6E00041462846FEF706FA14B12846FFF7C5FF93
:10A6F000686801281DD1402205F5AE7105F5497045
:10A70000FEF7F8F91C2205F5CE7105F55970FEF734
:10A71000F1F9012185F8A112002085F8600285F881
:10A72000E20205F11C0105F2A2200A680260022281
:10A730006A60BDE8F0812CB10A4631682846FEF710
:10A74000C9F9D5E72846FEF795FE02206860F0E7D4
:10A7500080B500F081F828B9FFF7A2FF002000F0D3
:10A7600047F800B1032002BDF8B5164604460D4671
:10A770001F464FF4607200F0B5FD28B930001CBFD1
:10A780000020B0470020F2BD00220121204600F049
:10A7900074F868B94FF4607229463846FEF79AF9A2
:10A7A00033464FF460723946204600F05DF800B140
:10A7B0000320F2BD38B50446154D2846FFF742FF89
:10A7C00028602846FFF753FF05F5607322462946A7
:10A7D00001B0C5F85C024FF4FE20BDE83040C3E78D
:10A7E00002460A48031D0068BEE74FF4FE21F7E762
:10A7F00038B505460020FFF7DDFF040003D104490A
:10A800002846FFF7EDFF204632BD0000085A002021
:10A81000D86D002030B50346002A0EBF4FF0FF3040
:10A820001068C04300240BE01A5D50400822C507A1
:10A8300054BF0025044D521E85EA5000F7D1641C18
:10A840008C42F1D3C04330BD2083B8ED416900296B
:10A850001CBFC06808477047002814BF0A490B494D
:10A8600000220B4800F016B880B5009313460A4644
:10A870000146074800F013F802BD13460A46014698
:10A88000034800F020B8000094D9070074D90700ED
:10A89000905D0020016011460268136818472DE999
:10A8A000FC4116469846089F04460D46424600F075
:10A8B00047F80097204624682946E5684346324613
:10A8C000A847BDE8F681F8B504461F4663681646FA
:10A8D0001A680D46724300F033F820462468294672
:10A8E00025693B463246A847F2BD38B500281CBF53
:10A8F0000168002917D100250E4C00E06D1C0E48A0
:10A900000E49401A1422B0FBF2F295420FD21421E4
:10A910006943601861580029F0D0C9698847002848
:10A92000ECD0012032BDC969BDE8344008470020A1
:10A9300032BD0000905D0020A45D0020905D0020ED
:10A94000C368994207D300695118491E8842804163
:10A95000C043C00F704700207047FEE73B4A938812
:10A96000984234BF401C0020C0B2704730B512F08E
:10A9700003030DD1354B9A604C1CE40402EB1442E6
:10A98000DA6000255D701D7058809980002030BD10
:10A99000072030BD2DE9FC472C4F044678888842BB
:10A9A0008846154635D300228DF800206846FFF70B
:10A9B00069FA97F800A07878FFF7D0FF4FF6FF7993
:10A9C00050454E4604D07E787878FFF7C7FF787000
:10A9D0009DF80000FFF773FA4E4518D0B86840F8AC
:10A9E000365000EBC605002C18BF5FEA08000AD0FD
:10A9F0007888FB684643424621469819FEF76AF874
:10AA0000A5F8048001E00020A880002002E00420D6
:10AA100000E00920BDE8F68738B50C4C0FE022783D
:10AA2000A368E56803EBC20081886088504353F84F
:10AA30003220284490472078FFF790FF207020783C
:10AA400061788142EBD131BD00000000247F0020FD
:10AA500030B5039D049C41EA420141EA830141EA89
:10AA60000521104A41EA044142F8201030BD01227C
:10AA700002FA00F00C4A09B9506070471060704744
:10AA80001DA2105C0021F2E71BA2105C0121EEE781
:10AA900010B500242046FFF7F7FF641C042CF9D3FF
:10AAA00010BD00000007005008050050FEB5044628
:10AAB000E00710D55FF000050FA60027019700976B
:10AAC0000023705D01220121FFF7C2FF6D1C042DE0
:10AAD000F4D3FFF7DDFFA0070DD5002407A5002064
:10AAE0000190002100910323285D0022FFF7B0FFB1
:10AAF000641C042CF3D3F7BD111213140D0E0F10A8
:10AB000080B540F6F870016811F1010F04BF0949E2
:10AB100000F09BF940F6F871486810F1010F07D179
:10AB2000BDE804404FF4FC2140F6FC7000F08DB904
:10AB300001BD00000080070030B50A0502D12C4B92
:10AB4000984201D3072030BD000B491E00EB1131A4
:10AB5000284A012503E0536100E01361401C814253
:10AB600011D34409A0EB4413032C05FA03F3F5D8E1
:10AB7000DFE804F005070403F0E7ECE7EDE7136016
:10AB8000ECE75360EAE7002030BD000010B5044652
:10AB900019480022C0F5FE21FFF7CEFF08B1FEF7ED
:10ABA0009DFE00F0ACFA0146144880694118401E31
:10ABB00001F6FF71C0F30B00091A00220020FFF715
:10ABC000BBFF08B1FEF78AFE54F8040B216800228F
:10ABD00082F3148882F3108882F3118882F3138839
:10ABE00080F308884FF0FF308646084710BD00000C
:10ABF00001F007000006004000800700D86D00202B
:10AC00006A49012008707047BFF34F8F684969484F
:10AC10000A6802F4E06202430A60BFF34F8F00BF8C
:10AC2000FDE7002808BFFFF7EFBF6049002008706C
:10AC30006148FFF7DABD0120F3E710B50446801E36
:10AC400010D0401E012803D9C01E012806D90BE0F0
:10AC50005A494FF4701000F024FC05E00120FFF782
:10AC6000E0FF01E0FFF71CFD5048416819B12046A4
:10AC7000BDE81040084710BD002B06BF0378012B2C
:10AC8000FFF74EBC012070472DE9F041474E4C4A7A
:10AC90004C49706011600020FFF75AFD00286BD10D
:10ACA00000F0D3FC484C18B1022868D06AD363E0A6
:10ACB000464801680127CA034FF4701803D54FF4C2
:10ACC000803101600BE0606800F0F800A82807D12F
:10ACD0006068C10704D5606800F056006060002716
:10ACE0003B4D286A012823D143F20401394A086800
:10ACF000904208D16A6B3B464FF4805105F51870BD
:10AD0000FFF7BAFFA0B100F0FAF90146AA693B4685
:10AD100005F2A120FFF7B0FF00281FBF2E480168F1
:10AD2000C1F30040002803D0206810F0B10F1AD002
:10AD300000F0FFFC06F1080220211820FFF716FEA4
:10AD400008B1FEF7CBFD206800F0F800B02806D16E
:10AD50002068C00703D5206800F04E002060002066
:10AD6000C04698B108E0FFF74AF828B930701B4890
:10AD7000FFF73BFD00F014FD0320BDE8F0814FF428
:10AD8000A028D5E70120FFF74CFFF5E70B49404627
:10AD900000F087FB124800F027FD0028ECD100F0FE
:10ADA000E5FCFFF739FE41DFF9E70000D874002029
:10ADB0000CED00E00400FA0509AC070037AC070011
:10ADC000400700500C0003001C0500400004004038
:10ADD000D86D0020DBE5B1511005005001AC070033
:10ADE0003BAC070005E00A684B689A4209D108317C
:10ADF00041600268416853689942F4D10021816042
:10AE0000704782607047016009684160EAE78168C5
:10AE100051B103689A685118426881605368994239
:10AE200002D102F10801F0E77047FEE71D49022256
:10AE30000A60BFF36F8FBFF34F8F48601A4A1068E4
:10AE40000028FCD000220A600DE0164A012313609E
:10AE5000BFF36F8FBFF34F8F01601349086800285D
:10AE6000FCD000211160BFF36F8FBFF34F8F70478D
:10AE700070B50C4C0123236000F018F800250A4E31
:10AE800007E051F8253040F825303368002BFCD01E
:10AE90006D1C9542F5D30020206000F007F870BDCE
:10AEA0000000000004E5014000E40140BFF36F8FA3
:10AEB000BFF34F8F7047FEE7F8B50B480B4C0C4DB6
:10AEC0000C4F041B01202870002600E0761CB6EB16
:10AED000D40F05D257F8360080470028F6D0F2BDCF
:10AEE000022028700020F2BD0000000000000000D9
:10AEF000567F0020000000000144491E05E0027852
:10AF00000B7800F8013B01F801298142F7D2704724
:10AF10000244521E03E011F8013B02F8013982425B
:10AF2000F9D2704770B504460D461646FFF7F0FF9C
:10AF30003246A919A019BDE87040E9E738B50446C2
:10AF40000D46FFF7D9FF29466019BDE83440D3E725
:10AF500000B910E001B911E000220A604860002049
:10AF6000704700B907E00068884202D048F24050BC
:10AF700070470020704748F21050704748F2135055
:10AF8000704700B9F7E7914202D048F2115070477C
:10AF90000020704748F20350F2BDF8B500F012F8F7
:10AFA00078B904B913E0A879874200D012E00C48C0
:10AFB00000B9EFE72146304600F02FFC08B90749F9
:10AFC0003160F2BD05460E4614461F46C0E748F202
:10AFD0001050F2BD48F21150F2BD00007052464DC3
:10AFE0001BB8070010B5040000D11CE001B91DE03A
:10AFF00061600968884710B91C482060002010BDB6
:10B0000010B500B90FE00368184CA34202D048F213
:10B01000025010BD01B909E00AB9002010BD436813
:10B020005C68A04710BD48F2015010BD48F21050B6
:10B0300010BD38B510B948F2015032BD03680B4C51
:10B04000A34202D048F2025032BD11B948F2135067
:10B0500032BD43681468DD68AC4202D248F2145035
:10B0600032BD9B6801B0BDE8304018476E5246487B
:10B0700070B5044615461E46FFF7B4FF58B9324670
:10B0800029462046FFF7BCFF28B9059A04992046B7
:10B09000BDE87040CDE770BD2DE9FC4105460E4688
:10B0A000144698460F493046FFF75BFFC0B97068F9
:10B0B000089F4279099952003846FFF762FF78B934
:10B0C00014B948F210500BE0074810B948F2035089
:10B0D00006E00097434622463146284600F0A6FB8C
:10B0E000BDE8F6817052464D2DB8070000210022C0
:10B0F000002380E80E00364900200863704743F2C1
:10B100000400344A0168914207D1406800F6FF719B
:10B11000401EC0F30B00081A70470EE080B5FFF721
:10B12000EEFF2B4A9169081800F6FF73401EC0F32A
:10B130000B00181A02BD000000BF4FF4805070478A
:10B140002DE9F0478046894614469A460027204E4E
:10B15000002500211FB1022F16D007D317E0FFF7FB
:10B16000DDFF74B1316A01290BD10BE0FFF7C7FF96
:10B170005FEA0A0101BF43F204010A68154B9A42D3
:10B1800000D10125294603E04FF4805000E0002063
:10B19000114AA2F54052101A404502D20120012264
:10B1A00004E000205FEA090218BF01220A4205D02C
:10B1B000022F03DA7F1CFFB2022FC9DD08B1042081
:10B1C00004E017B10548FFF791FF0020BDE8F087C4
:10B1D000D86D0020DBE5B15100800700F06D002044
:10B1E000F0B5002300243B4F8C4214DA43F20405EF
:10B1F0002E68BE4202BF50F824602D89AE4209D0AD
:10B20000150005D050F824504FF6FE76B54201D017
:10B21000641CE9E701231846F0BDF8B5044604F1C3
:10B22000540601253078002850D07078002818BFC7
:10B23000012803D0022818BF032847D1B17E032973
:10B2400002D1217A11B941E0142540E0E1683429A6
:10B2500018BF11253BD143F204021E4F1368218A07
:10B26000BB421FD131B362699AB104280CBF0122DD
:10B27000002200F033F8E8B17178207820B300297B
:10B2800018BF0129144817D0C0686168884219D2D4
:10B290001DE020B90229EFDB00F020F80AE00128C8
:10B2A000EAD107E000291CBF6169002902D120789A
:10B2B0000028E1D112250AE080686168884206D33F
:10B2C000814204D0102502E0012900D00F25284634
:10B2D000F2BD0000DBE5B151D86D0020C9B204F128
:10B2E00014007DE70300002013F0030F09D0521E65
:10B2F00022BF13F8010B11F801CBB0EB0C00F3D017
:10B30000704711F0030F14D1121F22BF53F8040B22
:10B3100051F804CB6045F7D0121D0AD200BA9CFA4E
:10B320008CFCB0EB0C0038BF6FF0000088BF012030
:10B330007047521E22BF13F8010B11F801CBB0EB7E
:10B340000C00F6D0521C08BF1046704700000000E9
:10B3500081B00022425040580090009901B07047DF
:10B3600038B55C4C207820BB5B490868C00302D428
:10B370005A4A012111604FF48071594D00F035F89F
:10B380004FF4A07100F031F84FF4A27100F02DF8E5
:10B390005449554BA0200870102254491A600020CF
:10B3A00008600122AA600120514A28600221116030
:10B3B000207031BD38B50446DFF8245105EB840216
:10B3C0004FF4F860C2F8401555A141F001018847DB
:10B3D000A00000F5A07001B200F007F84FF4803033
:10B3E000434900FA04F40C6031BD2846B0E710B5BB
:10B3F0006FF07F420B4691423E4C88BF1346226855
:10B40000D218C91A22F07F4203D096293CBF963148
:10B41000963A41601146007BBDE81040CAE770B51E
:10B4200004460D461646FFF79BFF26602946204638
:10B43000BDE87040DBE7F8B52F48294C00682F4D78
:10B4400038B12A6A521C2A624FF482712046FFF7F3
:10B450007FFF0026B00000F5A07000B22058E0B1D8
:10B46000B00000F5A07001B2204605EB0617FFF70B
:10B470006FFF3A7B22484FF4803191400160796838
:10B4800019B13846FFF7B3FF07E0B96811B1384684
:10B49000FFF7ADFF386800B18047761C012ED9D97F
:10B4A000F1BD38B50A461749154D0B68197B4FF4A5
:10B4B00080348C402C6020B101461846BDE83840ED
:10B4C000ADE731BD104B1B6898600A46014618462F
:10B4D000A5E70000537F002018040040080000404A
:10B4E0000040024024E400E004E100E0084502409E
:10B4F00004430240044502400441024068590020D0
:10B50000084302408C5900209059002000000000A0
:10B51000000000000000000000000000000000002B
:10B520000338FDD8704700002DE9F0478046894672
:10B53000C14514461F4608BF002031D004F6FF76EF
:10B5400000F0F7F8A9EB0805360BB7EB153F88BFFD
:10B550002F0B002024B3B74227BFB2462546BA4678
:10B560003D03002251464046FFF787F9C0B9681EE7
:10B57000EA1C00F00300121A002349464046FFF778
:10B5800073F968B95848016B641BA844A9446D1845
:10B5900005630020FFF72CF90028A6EB0A06D9D096
:10B5A000BDE8F087F8B5FFF7C7FD4F4A946C536BC1
:10B5B000116B4E4F5A1A02F6FF75521EC2F30B0260
:10B5C00004F50056AA1A56F8045F0818BD4201D0C7
:10B5D0000320F2BD994201D10020F2BD08230919D0
:10B5E000FFF7A2FF18B9BDE8F240FFF701B9F2BDBD
:10B5F000F8B53D4D3E4FE86A6E6AAC6CAC2803D19D
:10B60000686B0419361A06E064B9FFF787FD044633
:10B61000E86AAC2806D13246A4F580413846FFF7E7
:10B6200061FE68B1324621463846FFF75BFE38B10D
:10B6300000F09CF831462046BDE8F440FEF7D2B950
:10B64000F2BD2C49012008707047F8B5264DE86A14
:10B650000024012806D0A52833D0AA2835D0AC284C
:10B6600036D03CE06E6AAF6CFFF749FD296B0818D5
:10B67000721ACF19874208BF002208233946FFF704
:10B6800053FF60B9FFF73BFD00223146FFF7C2F8D8
:10B69000A96A884203D101222A62E861AE6105F1FC
:10B6A0002400FFF723FD1349002008701248FFF71C
:10B6B0009FF8B0B90120ACB1296A012912D102204A
:10B6C000F2BDFFF76FFF0124E9E7FFF791FFE6E71F
:10B6D000FFF768FF0028F6D1FFF78AFFF3E70020A5
:10B6E000F2BD0320F2BD0000D86D0020DBE5B151B2
:10B6F00000800700547F002043B607001F490868F8
:10B7000060B100201E4B1F490968C140CA0744BFF1
:10B710001D4943F82010401C0728F4DB7047EDE773
:10B720001A4881B00021016000680090009901B0C2
:10B73000704738B5164C2078B8B91049086890B1F0
:10B7400014490D68A5F548609628B4BF9625A5F55F
:10B750004865FFF7D3FF10492846FFF7B3FE0F49AE
:10B760004FF4803008600122227031BD034908681F
:10B77000002818BFFFF7C2BF704700000004014057
:10B7800000060140080501403546526E00010140A7
:10B79000557F0020040501401FB7070000E100E0CD
:10B7A00080B50749074A4FF0FF3008601060FEF788
:10B7B00033F9BDE802404FF48050FFF7E7B900BF0E
:10B7C00080E100E080E200E010B50446801F01281F
:10B7D0009CBF0020FEF7E7F80C49096819B1204624
:10B7E000BDE81040084710BD10B50849084C086076
:10B7F0000020FFF7E9FF2046FEF7C6F820B92046F3
:10B80000BDE81040FEF71BB810BD0000487F0020C7
:10B81000C9B7070040688168084780B54268527917
:10B820000830FFF77FFB002002BDFEE72DE9F04363
:10B8300099B00C46209F00F020F8666805467079A4
:10B84000814588BF81464A46414611A8FFF760FB03
:10B850007279394601A8FFF765FB009501AB4A46AE
:10B8600011A904F1080000F00DF800280CBF48F2FF
:10B870004250002019B0BDE8F0839046994620461A
:10B88000FFF7C8BF2DE9F04FEDB01F46769E04903C
:10B89000B6F9023096F9004013F11F0948BF03F1D1
:10B8A0003E0949F3471909F1FF3824AB002543F855
:10B8B00028506CAB03EB88034CA88A469346394664
:10B8C00096F9012043F8805C43F8605C00F041F990
:10B8D00096F9012054A8B91800F03BF921464CA86C
:10B8E00000F041F90746002840F02D8154A800F0EF
:10B8F0003AF90290002840F0288106F124034A46D4
:10B900004CA91846039300F03DF9012840F01F812F
:10B910004A4654A9039800F035F90128069040F0F2
:10B9200016811CAD0CAF4B46039A54A9284600F073
:10B930003EF9029B47F828305A465146384633466E
:10B9400000F0B8F939463846039BCDF800902A46F6
:10B9500000F0F5F90DF5B878039BCDF800902A4674
:10B960004CA914A800F0EBF922464046049900F0D7
:10B9700089FAA30008EB030A0793049BA100591856
:10B9800006F1440B504600F07DFA594634A800F009
:10B9900079FAA3000BEB03013CA800F073FA331D06
:10B9A000414634AA28460094059300F077FA53469E
:10B9B00042463CA934A8009600F082FA2346321D84
:10B9C0002946284600F0F3F82A46514640463346B9
:10B9D00000F0DBFA029BCDE9083B049B4946384660
:10B9E000CDE90A3800F0F0FA4946804614A800F084
:10B9F000EBFA8045B8BF80461FFA88F808F1FF3B94
:10BA00000FFA8BFB5946384600F0FEFA5946071CE0
:10BA100014A818BF012700F0F7FA002814BF02236A
:10BA200000231F430DF1200A22465AF8277024A84C
:10BA3000394600F027FA0DF1B00BA300F91858466B
:10BA400000F020FA2146284600F0E8FAA8F10208A2
:10BA5000069B2B600FFA88F80DF1900AB8F1000FE1
:10BA600023DA2346059A2946284600F0A0F83346F3
:10BA70002A465946504600F088FA4A4651460398ED
:10BA800000F080F8012804D04B46039A504600F09D
:10BA9000D7FA013C64B24CAA23064AD5029BB3FAFA
:10BAA00083F040096DB0BDE8F08F33462A46D6F8E2
:10BAB000A47059465046B84741460CA800F0A4FA75
:10BAC0004146071C14A818BF012700F09DFA002862
:10BAD00014BF022300231F4308AB53F827701FB382
:10BAE0002246394634A800F0CDF9079B3CA8F91846
:10BAF00000F0C8F933462A463CA934A800F045FABC
:10BB0000059B009434AA514644A800F0C7F95B464F
:10BB100052463CA934A8009600F0D2F9334644AA14
:10BB20002946284600F0BCFA08F1FF380FFA88F8D9
:10BB300094E752F824105AF824304B4002991943E4
:10BB40000291013CA8E72846ACE73846AAE70298EC
:10BB5000A8E78B1802448B4200D1704713F8010DFF
:10BB600002F8010DF7E710B500231A465CB2A142B6
:10BB700003DCB2FA82F0400910BD50F823400133D3
:10BB80002243F3E710B5013A52B2130601D5002063
:10BB900010BD50F8224051F822309C4205D802F1E5
:10BBA000FF32F2D24FF0FF30F2E70120F0E7F0B5BC
:10BBB0000F46A1B006461946384615461C46FFF703
:10BBC000D2FF20B1304600F029FA21B0F0BD224664
:10BBD0003946684600F056F9294608A800F052F99F
:10BBE00010A8214600F01AFA012318A8109300F0BB
:10BBF00015FA224608A96846FFF7C4FF28B922466D
:10BC000010A9304600F03EF9DFE7009BDA0709D4BF
:10BC10002146684600F054FA2246294610A800F052
:10BC20005CFAE6E7089BDB0707D4214608A800F08A
:10BC300047FA2246294618A8F1E7002823461CDDCA
:10BC400008AA6946684600F0FBF92146684600F0FC
:10BC500037FA224618A910A8FFF794FF002805DA42
:10BC600010A923462A46084600F05AFA10A923468E
:10BC700018AA084600F0E4F9CEE708A96A46084683
:10BC800000F0DEF9214608A800F01AFA224610A9B1
:10BC900018A8FFF777FF002805DA18A923462A46D7
:10BCA000084600F03DFA18A9234610AA084600F0FD
:10BCB000C7F9BEE72DE9F0471F46B3F902308946C0
:10BCC00013F11F0148BF03F13E014D11D91D48BFBB
:10BCD00003F10E01CC1094424FFA85F828BF1446A8
:10BCE0004146064600F09AF922464946FFF731FFE1
:10BCF000B7F90220E40094421FD9A41A06EB85018B
:10BD00000022C4F120058E420ED32437424631462C
:10BD10003846FFF737FF01280FD043463A463046F2
:10BD2000BDE8F04700F08CB951F8040D20FA04F397
:10BD300013430B6000FA05F2E5E7BDE8F0872DE953
:10BD4000F04FB5B004AC9DF9F8501F4681462B4624
:10BD5000204600F013FA24AB29463846CDE90234D8
:10BD600000F032F9C0EB851004B2002C2646B8BFB3
:10BD700004F11F06634246F3471603F01F0304F065
:10BD80001F0814A858BFC3F10008314600F046F957
:10BD9000B8F1000F30B22DDD14AB002203EB8000B0
:10BDA000C8F1200C1346AB4219D32FB27B0001938C
:10BDB00014AB03EB870705F1FF3834AB012603EB27
:10BDC0008808002C54DA34AB03EB86062A4656F872
:10BDD000C81C484600F056F835B0BDE8F08F57F85B
:10BDE000236006FA08F10A4340F8042B013326FACF
:10BDF0000CF2D8E714AB2A46394603EB800000F07A
:10BE000041F8D2E70FFA82FE5AF8C83C53F82EB038
:10BE100034AB03EB8202013052F8803C0B44BBEBA5
:10BE2000030334BF012200229B4518BF11465CF872
:10BE3000C82C42F82E30019B42B29A42E2DB731AC0
:10BE40005E42294614A85E4100F03AF934AB03EB98
:10BE50008503294653F8802C58F8803C384643EA3D
:10BE6000C273013C48F8803C24B200F029F9A8E7ED
:10BE700034AB0020C6F1010C014603EB860A03EB4C
:10BE80008C0CD8E710B500235CB2A24200DC10BDD8
:10BE900051F8234040F823400133F5E770B59DF990
:10BEA00010401E462346054600F0CAF838B1234626
:10BEB000324629462846BDE8704000F031B970BDD1
:10BEC0002DE9F0438BB01446129D15F9046B0096D2
:10BED0001F46804689462B460246214602A8FFF7A8
:10BEE000DDFF02A9129A084600F0D1FA129B02AABD
:10BEF0004146404600F0D4F8129B02AA2146204653
:10BF000000F0CEF82B464A46394638460096FFF7F1
:10BF1000C5FF129A394602A800F0B9FA02A92B46C9
:10BF2000424608460096FFF7B9FF02A92B46224673
:10BF300008460096FFF7B2FF2B46424621462046B0
:10BF40000096FFF7ABFF129B22464946484600F099
:10BF5000A7F82B4602AA414620460096FFF79EFF0F
:10BF6000129B22463946384600F09AF82B464A463C
:10BF7000394638460096FFF791FF324602A920461F
:10BF8000FFF780FF0BB0BDE8F083F0B5154689B030
:10BF90001C4607460E461A462946684600F077FAC0
:10BFA00023466A463946384600F07AF823462A4640
:10BFB0006946684600F074F823466A4631463046C2
:10BFC00000F06EF809B0F0BD013910B549B2041D9A
:10BFD0000A06CBB204D4013954F82120002AF7D044
:10BFE00001335BB273B103F18042013A50F8222071
:10BFF000002022B9013B00EB431318B210BD5208D8
:10C000000130F6E71846F9E74A11012350F82200FB
:10C0100001F01F0103FA01F108407047002310B539
:10C020001C465AB2914200DC10BD40F82340013357
:10C03000F7E7000000000000000000000000000022
:10C04000C3F10803DB0070B50133002403A500BF72
:10C050005B1920C940CAAD1B20C0184720C940CA7F
:10C06000B54120C020C940CAB54120C020C940CA3E
:10C07000B54120C020C940CAB54120C020C940CA2E
:10C08000B54120C020C940CAB54120C020C940CA1E
:10C09000B54120C06441B4FA84F0400970BD00BFCE
:10C0A00030B51C4691B0054693F90030684600F063
:10C0B00065F8D4F8AC3069462846984711B030BDD1
:10C0C00000EB81010023884200D3704751F8042D12
:10C0D00043EA52030B60D307F5E770B5036813F02A
:10C0E00001060546144605D013460A46014600F0EF
:10C0F00017F8064621462846FFF7E2FF46B104F14D
:10C100008042013A55F8223043F0004345F822308E
:10C1100070BD0000000000000000000000000000F2
:10C12000C3F10803DB0070B50133002403A500BF91
:10C130005B1920C940CAAD1920C0184720C940CAA0
:10C14000754120C020C940CA754120C020C940CADD
:10C15000754120C020C940CA754120C020C940CACD
:10C16000754120C020C940CA754120C020C940CABD
:10C17000754120C06441204670BD00BF2DE9F04FDD
:10C1800008B4F8CA04B451F8042BA3FB028940F8A0
:10C19000048B4FF0000AE4FB629A4FF0000BE5FBC2
:10C1A00062AB4FF0000CE6FB62BC4FF0000EE7FB09
:10C1B00062CE51F8042B4FF00008E3FB628940F88F
:10C1C000048BE4FB629AE5FB62ABE6FB62BCE7FB37
:10C1D00062CE51F8042B4FF00008E3FB628940F86F
:10C1E000048BE4FB629AE5FB62ABE6FB62BCE7FB17
:10C1F00062CE51F8042B4FF00008E3FB628940F84F
:10C20000048BE4FB629AE5FB62ABE6FB62BCE7FBF6
:10C2100062CE51F8042B4FF00008E3FB628940F82E
:10C22000048BE4FB629AE5FB62ABE6FB62BCE7FBD6
:10C2300062CE40F8049B40F804AB40F804BB40F8E1
:10C2400004CB40F804EB0CBC052B00F01E810C68FD
:10C25000A0F11400A1F11401A2F1140252F804EBB0
:10C260004FF0000550F8046BE4FB6E5652F804EBF7
:10C2700050F8047BE4FB6E6752F804EB50F8048B33
:10C28000E4FB6E7852F804EB50F8049BE4FB6E89F3
:10C2900052F804EB50F804ABE4FB6E9AA0F11400E2
:10C2A00052F8044B51F804EB4FF0000CE4FB6EC560
:10C2B00040F804CB51F804EBE4FB6E5640F8045B05
:10C2C00051F804EBE4FB6E6740F8046B51F804EBA3
:10C2D000E4FB6E7840F8047B51F804EBE4FB6E89D4
:10C2E00040F8048B51F804EBE4FB6E9AA0E80006DA
:10C2F000062B00F0CA800C68A0F11800A1F118010B
:10C30000A2F1180252F804EB4FF0000550F8046B4C
:10C31000E4FB6E5652F804EB50F8047BE4FB6E67C6
:10C3200052F804EB50F8048BE4FB6E7852F804EBFF
:10C3300050F8049BE4FB6E8952F804EB50F804AB10
:10C34000E4FB6E9A52F804EB50F804BBE4FB6EABCE
:10C35000A0F1180052F8044B51F804EB4FF0000C18
:10C36000E4FB6EC540F804CB51F804EBE4FB6E56D9
:10C3700040F8045B51F804EBE4FB6E6740F8046B93
:10C3800051F804EBE4FB6E7840F8047B51F804EBC1
:10C39000E4FB6E8940F8048B51F804EBE4FB6E9AE1
:10C3A00040F8049B51F804EBE4FB6EABA0E8000CF2
:10C3B000072B6AD008B40C68A0F11C00A1F11C0185
:10C3C000A2F11C0252F804EB4FF0000550F8046B88
:10C3D000E4FB6E5652F804EB50F8047BE4FB6E6706
:10C3E00052F804EB50F8048BE4FB6E7852F804EB3F
:10C3F00050F8049BE4FB6E8952F804EB50F804AB50
:10C40000E4FB6E9A52F804EB50F804BBE4FB6EAB0D
:10C4100052F804EB50F804CBE4FB6EBCA0F11C0016
:10C4200052F8044B51F804EB4FF00003E4FB6E3577
:10C4300040F8043B51F804EBE4FB6E5640F8045B13
:10C4400051F804EBE4FB6E6740F8046B51F804EB21
:10C45000E4FB6E7840F8047B51F804EBE4FB6E8952
:10C4600040F8048B51F804EBE4FB6E9A40F8049B0F
:10C4700051F804EBE4FB6EAB40F804AB51F804EB6D
:10C48000E4FB6EBCA0E8001808BCBDE8F08F1346C2
:10C490000A46FFF705BEFEE72DE9F04FC8B00022BF
:10C4A0000023CC180DF1200E66782578360446EA74
:10C4B0000566A578E47846EA052626434EF822600C
:10C4C000521C1B1D102AECD3402A26D208A901EBCE
:10C4D0008203A3F1400408AB616803EB8204A4F17A
:10C4E0004005AB6B4FEAF34484EA734484EA932437
:10C4F00008AB03EB8205A5F14006736A1C194FEAED
:10C50000B14383EAF11383EAD1031C1955F8403C87
:10C510001C194EF82240521CD6E78446DCF8501015
:10C5200007910C46DCF8541006910D46DCF85810C3
:10C5300005910E46DCF85C1004918B46DCF8601027
:10C5400003918846DCF8641002910846DCF8682004
:10C5500001921146DCF86C3000931A4600234FEA32
:10C56000F82989EAB81787EA78673A4400EA080A9E
:10C5700021EA080787EA0A0707EB020295A757F89E
:10C5800023703A445EF8237007EB02094FEA743ACD
:10C590008AEAB40282EAB45A86EA0502224006EA2E
:10C5A00005077A4092440A460146404609EB0B08CB
:10C5B000B3462E465B1C2546402B0AEB0904CED31E
:10C5C000079BE418CCF85040069C2D19CCF8545029
:10C5D000059BF618CCF85860049CA344CCF85CB0DA
:10C5E000039B4344CCF86030029C0019CCF86400F3
:10C5F00001980918CCF8681000995218CCF86C20F2
:10C6000048B0BDE8F08F08B90E20704700210164E2
:10C610000023C0E91213094A094901654265094925
:10C62000094A8165C2650949094A016642660949A4
:10C63000094A8166C26600207047000085AE67BB6C
:10C6400067E6096A72F36E3C3AF54FA57F520E51C8
:10C650008C68059BABD9831F19CDE05BF8B504004E
:10C660000D46164601D016B10DB90E20F2BD0027B9
:10C6700016E0216CE85D6054206C401C402820646A
:10C680000DD121462046FFF707FFD4E9120110F52E
:10C69000007241F10003C4E91223002020647F1CD2
:10C6A000B742E6D30020F2BDF8B50500174601D029
:10C6B0000C0001D10E20F2BD05F13806B068421C15
:10C6C000382809D280232B54382A16D2C2F13801D7
:10C6D000A818FCF781FA10E080232B54402A04D2DA
:10C6E000C2F14001A818FCF777FA29462846FFF75F
:10C6F000D3FE38212846FCF7BDFED6E90401B26816
:10C7000010EBC20051EB5271C6E90401F071D6E999
:10C7100004010004000EB071D6E90401000C707130
:10C72000D6E90401000E3071D6E90401F170D6E9B2
:10C730000401080AB070D6E90401080C7070D6E94B
:10C740000401080E307029462846FFF7A5FEFFB108
:10C750000020736B2118C200D3400B70401C356B56
:10C76000D5400D71F36AD3400B72B56AD5400D7395
:10C77000736AD3400B74356AD5400D75F369D340A5
:10C780000B76B569D54004280D77E2D30020F2BDC1
:10C790000020C100B369C1F118012218CB40137009
:10C7A000401CF569CD401571336ACB401372756A30
:10C7B000CD401573B36ACB401374F56ACD4015753F
:10C7C000336BCB401376756BCD4004281577E0D3DF
:10C7D000DCE70000982F8A4291443771CFFBC0B547
:10C7E000A5DBB5E95BC25639F111F159A4823F923C
:10C7F000D55E1CAB98AA07D8015B8312BE85312495
:10C80000C37D0C55745DBE72FEB1DE80A706DC9B55
:10C8100074F19BC1C1699BE48647BEEFC69DC10F01
:10C82000CCA10C246F2CE92DAA84744ADCA9B05C3D
:10C83000DA88F97652513E986DC631A8C82703B000
:10C84000C77F59BFF30BE0C64791A7D55163CA060E
:10C8500067292914850AB72738211B2EFC6D2C4D1A
:10C86000130D385354730A65BB0A6A762EC9C28108
:10C87000852C7292A1E8BFA24B661AA8708B4BC29E
:10C88000A3516CC719E892D1240699D685350EF4C8
:10C8900070A06A1016C1A419086C371E4C7748277F
:10C8A000B5BCB034B30C1C394AAAD84E4FCA9C5BF5
:10C8B000F36F2E68EE828F746F63A5781478C88446
:10C8C0000802C78CFAFFBE90EB6C50A4F7A3F9BE28
:10C8D000F27871C658B5044686B00E46216888685D
:10C8E00008B368461821FCF7C5FD0196A0680590BD
:10C8F000207910B101280AD011E001218DF8001033
:10C9000020690290E06803906169049107E00221C8
:10C910008DF80010E068000302906069049068469A
:10C9200021688A68904707B050BD974800F50171AB
:10C9300000F5FA7000F0C6B910B5934C207A48B9EA
:10C9400004F5017104F5FA7000F090F9606108B91E
:10C95000606010BD636902212172187910B101284D
:10C9600011D022E098695A69121A142A09D2920841
:10C97000012A98BF0122D9681B694118C01829DF14
:10C9800005E00522F7E7D8681969081828DF10B113
:10C99000112807D009E0207C88B9BDE810400021AB
:10C9A000022098E00120207210BD60690321FFF78A
:10C9B00091FF002020726060BDE81040B5E710BD17
:10C9C00010B5714C201D00F0A5F9002804BF607C53
:10C9D000002802D1BDE81040AEE710BD10B500BF81
:10C9E0006BA1694C4160204600F094F958B9FDF7FD
:10C9F00002F920741C234FF4EE7204F1180104F5BF
:10CA0000FA7000F0CBF8002010BD10B55E4C142178
:10CA10002046FCF72FFD04F5FA7000F0D3F8002053
:10CA200010BD2DE9FC4706460D46DFF860819246B1
:10CA300099466946404600F0E7F8040008BF042024
:10CA400013D00A9F1C21FCF7C7F800202071266034
:10CA5000A7602561C4F80CA0C4F81490694640464C
:10CA600000F0F4F8FFF7ACFF0020BDE8F68780B5D2
:10CA700010461A46FCF72EF8002002BD2DE9F843B7
:10CA800081460F46DFF8048115461E46694640463A
:10CA900000F0BAF8040008BF042011D01C21FCF7F4
:10CAA0009BF801202071C4F80090A6603F0BE7605E
:10CAB00065616946404600F0C9F8FFF781FF002034
:10CAC000BDE8F28308467047002070472E48007A80
:10CAD00000B10120704738B5022818BF03283CD1A7
:10CAE000294C217A002938D002292DD162690228E7
:10CAF00002D003281AD027E00021E160137953B156
:10CB0000012B21D111695069491C814211611BD14E
:10CB10000021217213E0916953695D1A142D88BFB9
:10CB200014256918994291610ED1F1E7E068401C23
:10CB30000928E06008D30020E06020720D21104633
:10CB4000FFF7C8FEFFF7F1FE607C10B9BDE8314089
:10CB5000F2E6BDE83140FDF743B831BD0A48012196
:10CB60004174007A401E8041C00F70470128064979
:10CB700003D100204874012003E0032803D10020E2
:10CB800048740874D8E670471C7C0020107E002092
:10CB900000100000040000000100000050B509B9B9
:10CBA0000E2050BD144694FBF3F603FB16440CB163
:10CBB000092050BD01608460002141608281C381F1
:10CBC000002050BD81B050E8022FC188B2EB324F37
:10CBD0004FF0000317BF92B241EA014142EA01411E
:10CBE00004E04268B2EB324F08BF012340E8021272
:10CBF000002AE8D18DF800309DF80000002814BF0D
:10CC00000020112001B070473CB550E8015FAAB286
:10CC1000C3891A4483899A4228BFD21A03899A4247
:10CC200002BFBFF32F8F002407E0C2EA050240E8ED
:10CC30000123002BE9D14FF0010400F03AF81AB1BA
:10CC400000680988084436BD002036BD0A88498836
:10CC50008A4209D150E8011FC1EA014140E80112AE
:10CC6000002AF7D101207047002070473CB550E8FA
:10CC7000025F1FFAA5F2C3889A4202BFBFF32F8F4B
:10CC800000240DE0C3891A4483899A4228BFD21A2E
:10CC9000C5EA024240E80223002BE8D14FF001042C
:10CCA00000F007F81AB100684988084436BD002032
:10CCB00036BD01958DF80040019B0B609DF800206A
:10CCC000704700000A8849888A4209D150E8021F4B
:10CCD000C1EA214140E80212002AF7D10120704741
:10CCE0000020704710B5024652E8000F40EA0104E8
:10CCF00042E8004393F0000FF6D110BD10B5024694
:10CD000052E8004F04EA010042E8000393F0000FEC
:10CD1000F6D110BD0121E5E70021EFE730B59848D5
:10CD20000178062904BF017911F00F0F11D1816834
:10CD300001F0F002302A1FBF01F0F003402B01F098
:10CD4000F001502905D18F498F4B0A68C2F30421A5
:10CD500019600178062904BF017911F00F0F02BF95
:10CD6000017A01F0F001302902D1884A8849116026
:10CD70000378884A8849062B04BF037913F00F0F04
:10CD80000FD1836803F0F004302C1FBF03F0F005CF
:10CD9000402D03F0F003502B03D10B68C3F3423353
:10CDA00053600378062B04BF037913F00F0F02BF03
:10CDB000037A03F0F003302B04D1784B1C6824F085
:10CDC00080741C600378062B04BF037913F00F0FE7
:10CDD00010D1836803F0F004302C1FBF03F0F0057E
:10CDE000402D03F0F003502B04D16D4B00241C6048
:10CDF0005C6014600478062C04BF037913F00F0FF5
:10CE000006D1037A03F0F003302B04BF03239366AB
:10CE10000278062A04BF027912F00F0F02BF027ACD
:10CE200002F0F002302A08D15E4A05231360012483
:10CE30009467002595603F2353600278062A04BF5B
:10CE4000027912F00F0F02BF027A02F0F002502AAC
:10CE500023D1554B554A1C6814605D6855609C6829
:10CE60009460DD68D5601C6914615D6955619C69D9
:10CE70001462DD6955621C6A94625D6AD5629C6ABF
:10CE80001463DD6A55631C6B14645D6B55649C6BA5
:10CE90009464DD6BD5641B6C13650278062A04BFAD
:10CEA000027912F00F0F10D1826802F0F003302BDC
:10CEB0001FBF02F0F004402C02F0F002502A04D10F
:10CEC00049693B4A01F04F0111600178062904BF0E
:10CED000017911F00F0F12D1806800F0F0013029B4
:10CEE0001FBF00F0F002402A00F0F000502806D1E9
:10CEF00030480168CA0744BF6FF0010101602E4845
:10CF00000268062A04BF4068062804D12B4801683D
:10CF100041F4806101602A49C86F40F47000C8671D
:10CF2000BFF34F8FBFF36F8F264A106800285CBF96
:10CF3000506800281CD5244B01241C60234C00F0B1
:10CF400049F81525156000F045F8556000F042F8E5
:10CF500000221A6000F03EF8BFF34F8F0A681C48A9
:10CF600002F4E06202430A60BFF34F8F00BFFDE7A7
:10CF7000014A0249116030BD8C5D00200090D00351
:10CF8000E00F00F0240300104035014074C007405A
:10CF90000DF0ADBA3805004044020010FCED00E091
:10CFA0000C010040105600400404001020C5004051
:10CFB000E40E004000040040300100103C17004027
:10CFC0000CED00E00012001004E5014000E4014017
:10CFD0000400FA0520680028FCD07047000000001B
:10CFE000010001000000000001000000000000003E
:10CFF0000200050001000000220000000000000007
:10D000000000000000000000000000000000000020
:10D01000010001000000000001000000000000000D
:10D0200002000500010000004200000000000000B6
:10D0300000000000000000000000000000000000F0
:10D04000010011000400FCFF0400000000000000CB
:10D05000020011000400FCFF0400000000000000BA
:10D06000030021000400FCFF040010000000000089
:10D07000040011000100FFFF01000000000000009B
:10D08000050011000200FEFF040000000000000087
:10D09000060011000400FCFF040000000000000076
:10D0A000070011000400FCFF040000000000000065
:10D0B000080017000200FEFF24000000E0CF070078
:10D0C000090010000100FFFF01000000DCCF070095
:10D0D0000A0027000200FEFF4400030010D00700F2
:10D0E0000000000000000000000000000000000040
:10D0F000010011000100FFFF01000000000000001E
:10D10000020017000200FEFF6401000040D007008B
:10D11000000000000000000000000000000000000F
:10D12000010007000000000068010000F0D00700C7
:10D1300002000100000000000100000000000000EB
:10D140000300050001000000420000000000000094
:10D1500000000000000000000000000000000000CF
:10D16000010017000400FCFF68010000F0D0070078
:10D17000020017000400FCFFAC01000020D10700F2
:10D18000000000000000000000000000000000009F
:10D19000F0B5082289B00C460646FEF773FECB6A4E
:10D1A00003930B6B04934B6B05938B6B0693CB6BC9
:10D1B0000793002708236A4669466846CDE9017748
:10D1C0000097FEF7ADFF082305466A463146304614
:10D1D000FEF7A6FF236B0393636B0493A36B059386
:10D1E000E36B0544CDE906376A460823694668467D
:10D1F000FEF796FF082305446A4631463046FEF79F
:10D200008FFF236A0093636A0193A36A0293A36B5F
:10D210000693E36B0793054408236A46314630467C
:10D22000CDE904770397FEF77BFF636A0093A36A57
:10D23000A26B0193E36A02930492636BE26B039324
:10D24000CDE90523236A0793054408236A4631463E
:10D250003046FEF765FFE36A0093236B0193636B2F
:10D260000293236A0693A36A0793054408236A4638
:10D2700031463046CDE904770397FEF7E1FE236B94
:10D280000093636B0193A36B0293E36B0393636A55
:10D290000693E36A07932D1A08236A4631463046FF
:10D2A000CDE90477FEF7CCFE636B0093A36B01938B
:10D2B000E36B0293236A0393636A0493A36ACDE941
:10D2C0000537236B07932D1A08236A4631463046EB
:10D2D000FEF7B6FEA36B0093E36BCDE90137636AFB
:10D2E0000393A36A0493E36ACDE90537636B07935D
:10D2F0002D1A08236A4631463046FEF7A1FE2D1A44
:10D300000D4C0FD435B9082231462046FEF73AFCC1
:10D3100001280FD00823224631463046FEF790FE02
:10D320002D1AEFE70823224631463046FEF7F8FE75
:10D330002D18F7D409B0F0BDD0D507002DE9F0477E
:10D3400093F9006092B0044689461046314615466E
:10D350009846FEF708FC002840F091804246494676
:10D3600002A8FFF794F8434602AA21460AA8FEF74E
:10D3700097FE02A908464246FFF789F843462A4627
:10D3800049464846FEF78CFE08F104074246294606
:10D390002846FFF77CF83B462A4621462046009661
:10D3A00000F075F83B462A4629462846009600F0CC
:10D3B0006EF83B462A46214628460096FEF76EFD4B
:10D3C00043462A4621462046FEF76AFE3B46224651
:10D3D00021462846009600F05AF83B4600962A4619
:10D3E0002146204600F053F82368DB074AD5334630
:10D3F0003A4621462046FEF793FE314682462046B5
:10D40000FEF75EFE06F18043013B54F8230040EA3C
:10D41000CA7044F82300424621462846FFF737F8F1
:10D420003B460AAA294628460096FEF737FD3B46AA
:10D430000AAA294628460096FEF730FD0AA90846A2
:10D440003B462A460096FEF729FD43460AAA214696
:10D450002046FEF725FE02AA3B46104621460096CE
:10D46000FEF71CFD324629462046FEF70BFD4946D5
:10D470002846FEF707FD02A94846FEF703FD12B055
:10D48000BDE8F08731462046FEF71AFEC3E770B5C7
:10D490009DF910401E4623460546FEF741FE30B971
:10D4A000224629463046FEF76DFB012807D0234669
:10D4B000324629462846BDE87040FEF7C1BD70BD22
:10D4C0002DE9F843074686B0B86888461446994661
:10D4D00078B10F9D0E9E68461821FBF7CBFF8DF8A3
:10D4E0000080CDF808900394049605956846B968C5
:10D4F000884707B0BDE8F08331A141600020704744
:10D5000080B52E48FFF708FC002002BD80B510460C
:10D510001A46FBF7DFFA002002BD2DE9FE43044660
:10D52000DFF898900D4690461F464846FFF7F2FBFD
:10D5300008B1112011E00A9EBA0841462846FDF7BD
:10D5400097FC4846FFF7E8FB019600972B464246BA
:10D5500001212046FFF7B4FF0020BDE8FE832DE93E
:10D56000FE430446DFF85490884616461F46484658
:10D57000FFF7D0FB002530B1112012E008EB053099
:10D58000FDF754FC6D1CB542F8D14846FFF7C4FBCB
:10D59000019700964346002202212046FFF790FFA4
:10D5A0000020BDE8FE83084670470020704703480E
:10D5B000006800B10120C0B2704700004C7F00201D
:10D5C000001000000400000001000000082000011D
:10D5D000FFFFFFFFFFFFFFFFFFFFFFFF0000000057
:10D5E000000000000000000001000000FFFFFFFF3E
:10D5F000512563FCC2CAB9F3849E17A7ADFAE6BCF5
:10D60000FFFFFFFFFFFFFFFF00000000FFFFFFFF26
:10D6100096C298D84539A1F4A033EB2D817D0377CC
:10D62000F240A463E5E6BCF847422CE1F2D1176B67
:10D63000F551BF376840B6CBCE5E316B5733CE2B3A
:10D64000169E0F7C4AEBE78E9B7F1AFEE242E34F69
:10D650004B60D2273E3CCE3BF6B053CCB0061D65A6
:10D66000BC86987655BDEBB3E7933AAAD835C65A2F
:10D670003DD3070069D7070091D10700F8B50446EC
:10D680001449A3691448091A0C22B1FBF2F113F8EA
:10D69000020C4FF0FF3200B9226900238B420ED2F8
:10D6A0000C260E4D5E4335442F68874205D112F19A
:10D6B000010F1CBF6E68964204D05B1CEEE7012090
:10D6C0002060F1BDE368A26861682068AD68A84782
:10D6D000F6E7000090DA070084DA070084DA070032
:10D6E0001EF0040F0CBFEFF30880EFF30980C5E7CD
:10D6F0007047FEE708B90E2070470FF215010FF2D0
:10D70000450201600123426003720020704700005F
:10D7100010B50C4611210CB90E2010BD2278042A38
:10D720000AD8DFE802F00D030B0D0D00FCF734FB07
:10D73000010004BF02202070084610BD112010BD5A
:10D74000082010BD0246082009B90E2070470B784A
:10D75000022B08D1022A03D0032A04D111207047DA
:10D76000032200200A7070472DE9F04115468AB067
:10D77000044688461C22002103A800F022F82E1D32
:10D7800095F9007003232A46414620460293FEF78E
:10D790007EFE334602AA214620460097FEF77EFB16
:10D7A0002B46424621462046FEF77AFC0097334638
:10D7B00005F1840221462046FFF769FE0AB0BDE864
:10D7C000F08110B5044610460A4601462046FBF794
:10D7D00071FA204610BDFEE71FB500BF0CA40EE095
:10D7E000052818BFFCF77AF81FBD51680098126829
:10D7F000904701A8FDF70BFB039A002AF5D1684674
:10D800004BDF0028ECD1214601A8FDF7FCFAF3E735
:10D810003CDA07004CDA070008000000BC221318AD
:10D82000C3B5D8255B9C8D18CBA7DBF4A76063AE8E
:10D830008FC2816844C8950C0C2F53464B15DB8072
:10D8400014B1C31FE252489EAA89011497322C409A
:10D850009A505D6E91D1A8BF566D8BB430B50168FA
:10D8600084684218416802EB5103C9070BD54C4448
:10D8700009E012F9011B12F8015B002904F8015BB1
:10D8800005D5491CF9D19A42F3D10C3030BD491E5F
:10D89000F1D5F8E7A8DA0700B0DA070000000000C9
:10D8A00000000000B8DA0700C0DA0700000000003E
:10D8B000000000005CDA07006CDA070000000000DE
:10D8C000000000000830FEF79EBE0830FEF7C6BE1E
:10D8D00010B514462268202A02D248F2145010BD16
:10D8E00000220830FEF7E0FE10B920202060002062
:10D8F00010BDFEE710B5074979441831064C7C4449
:10D90000163404E00A68081D114488470146A14204
:10D91000F8D110BD2C000000580000004EF68851D0
:10D92000CEF20001086840F470000860BFF34F8F2A
:10D93000BFF36F8F4FF00070E1EE100A70470000E8
:10D940003BB2FFFFB8210000A45D002000000000F2
:10D950000DFFFFFF9E0100006800000068590020D5
:10D96000FDFEFFFFC30100001C000000905D0020D1
:10D97000FEE70000F9D4070001D507000DD5070028
:10D980001BD507005FD50700A7D50700ABD507005B
:10D99000AFD50700DDC907000BCA07006FCA070033
:10D9A00023CA07007DCA0700C5CA0700C9CA070005
:10D9B000CDCA0700000000000000000000000000C9
:10D9C00000000000A0DA0700A8DA0700000000004D
:10D9D000000000000120C046002801D0FFF78AFFA8
:10D9E000AFF300800020AFF30080FBF796FF00F05C
:10D9F00000F800F001B8FEE70746384600F002F8EC
:10DA0000FBE7FEE72021090326311820ABBEF9E72A
:10DA1000C5D80700CBD80700D1D8070020000000E8
:10DA20007800000000000000407F0020107F0020F0
:10DA3000217F0020A45D0020F4000000B0DA070080
:10DA4000B8DA07000000000000000000014880472D
:10DA5000014800471DCD070079DA0700359D070012
:10DA600000000000D9D7070000000000480028008F
:10DA70000020400091DA0700AFF30080FFF74EFF6F
:10DA8000FFF7A8FF0000000003000000F5D6070024
:10DA900000487047CCD5070019920700DD920700B7
:10DAA000138F0700000000005DCB0700000000009E
:10DAB000D7CA0700000000006DCB0700000000007F
:10DAC000FEE7FEE7FEE7FEE7FEE7FEE7FEE7FEE72E
:10DAD000FEE7FEE7FEE7FEE7FEE7FEE7FEE7FEE71E
