:020000040002F8
:1060000010680020F51F03009B7402006F780200E7
:106010000F7902003F7902007B7A02000000000045
:10602000000000000000000000000000B77A02003D
:10603000DB7A020000000000BF7B0200077E020046
:106040007F080300537E020069F30200BF7F020055
:10605000338C02007B960200B993020067A702000E
:10606000F7AA02003FC902007FE602007FEA0200B1
:10607000D7F302000BF4020057F602008B0F030067
:106080001B110300F5CD0200651A0300EB1B030092
:10609000FB1B0300DB1D030095B902005F22030018
:1060A000A9220300AB220300AD220300AF220300AC
:1060B000B1220300B3220300000000000000000032
:1060C000B5220300B7220300B9220300BB2203005C
:1060D000BD220300BF220300C12203000000000014
:1060E00000000000000000000000000000000000B0
:1060F00000000000000000000000000000000000A0
:10610000000000000000000000000000000000008F
:10611000000000000000000000000000000000007F
:10612000000000000000000000000000000000006F
:10613000000000000000000000000000000000005F
:10614000000000000000000000000000000000004F
:10615000000000000000000000000000000000003F
:10616000000000000000000000000000000000002F
:10617000000000000000000000000000000000001F
:10618000000000000000000000000000000000000F
:1061900000000000000000000000000000000000FF
:1061A00000000000000000000000000000000000EF
:1061B00000000000000000000000000000000000DF
:1061C00000000000000000000000000000000000CF
:1061D00000000000000000000000000000000000BF
:1061E00000000000000000000000000000000000AF
:1061F000000000000000000000000000000000009F
:106200002DE9F04F0FF2A41CA1B0DCE90089CDE923
:1062100000892A9DDFF8109C049100248DF84350DA
:106220000D944FF0FF38824616461F460FE0B346E6
:106230002C461BF8011B0498D0470028049000F05E
:10624000A2800D98401C641E0D90F2D17619307812
:10625000252808D1002100220791089209910A926D
:106260000B910C920DE06A464146304601F013F85E
:10627000050001D10D98A1E0D9D50125E6E741F04F
:10628000010116F8010F2028F9D023280CD02B2863
:1062900004D02D2805D0302809D076E041F0020145
:1062A000EFE741F00401ECE741F00801E9E741F0D4
:1062B0001001E6E70F9209E00F98484505DA00EB78
:1062C000800402EB4402303A0F92761C3278A2F13D
:1062D00030000A28F0D330782E2818BFCDF8388047
:1062E00022D116F8010F2A2807D138683860761CA9
:1062F00050F8042B38600E9216E02D280CBF761C47
:10630000002000220E920AE040B90E9A4A4505DAB2
:1063100002EB820403EB4403303B0E93761C33788C
:10632000A3F130020A2AEFD3ADF8401021A0317852
:1063300000F0BCFF08B116F8010B8DF842009DF883
:106340004200682804D1307868280AD1622105E02B
:106350006C2804BF30786C2803D171218DF842106D
:10636000761C12A806903A4616F8013B02A9504640
:1063700000F064F838B912AA02A9504600F0CAF930
:1063800000287FF564AF404618E02A2892D13A6889
:106390003A6052F8040B3A6000280F9003D540424F
:1063A0000F9041F00401761C95E70000000000000A
:1063B00000000000686A6C747A4C000021B0BDE8EF
:1063C000F08F622820D0682811D06A2803D06C286A
:1063D00027D0712825D10868C01D20F0070008606B
:1063E000D0E9002308300860194610467047002A9B
:1063F0000A680A60106803D0121D0A6000B217E034
:10640000121D0A6080B217E0002A0A680A6010684C
:1064100003D0121D0A6040B20AE0121D0A60C0B229
:106420000AE0002A0A680A60106803D0121D0A6098
:10643000C1177047121D0A60002170477CB50D46D8
:1064400011461C462E69B4F1250200F051811C3A18
:1064500000F08680121F022A40F282800E3A00F07D
:106460000B81521F5AD0093A7AD0921E16D0521E72
:1064700035D0521E022A73D9121F30D0521F00F09D
:106480009A80521E4AD0521E00F0E480D21E00F0C4
:106490000181921E42D0D21E40D02FE195F83A40A1
:1064A0006C2C09D06869421C6A610A680A6052F85B
:1064B000043B0A6033542BE10A680A6052F8043B3B
:1064C0000A600093002201924FF0FF332B636A466B
:1064D000294600F09AF9002840F11A8105E195F863
:1064E0003A000122FFF76DFFC5E900010023994240
:1064F00004DA6869411C69612D220DE0288F81074B
:1065000004D56869411C69612B2205E0C00722D5CA
:106510006869411C6961202232541CE095F83A00F8
:106520000022FFF74EFFC5E9000195F8380001078A
:1065300011D5D5E900230020834208BF82420AD04A
:1065400044F02000782806D1686930213154401C7D
:10655000421C6A613454214668693044E86087E02F
:106560000868C01D20F007000860D0E9002308304B
:106570000860C5E90023D5E90001C80F04D06869A7
:10658000411C69612D220DE0288F810704D56869BF
:10659000411C69612B2205E0C00704D56869411CD4
:1065A00069612022325468693044E86021462846F7
:1065B00000F03AFAACE005F13A02507820B14FF021
:1065C000FF340FF6343074E01078622808D0682861
:1065D00024D06A2812D06C282ED071280ED02BE03F
:1065E0000A680A6052F8040B0A6020B94FF0FF34C1
:1065F0000FF61C305DE0E96A017089E00A680A6004
:1066000052F8040B0A6020B94FF0FF340FF6003047
:106610004FE0EA6AD317C0E9002379E00A680A600C
:1066200052F8040B0A6020B94FF0FF340FF6E02057
:106630003FE0E96A01806BE00A680A6052F8040BE7
:106640000A6020B94FF0FF340FF6C42031E0E96A48
:1066500001605DE00A680A6052F8040B0A600021DC
:1066600020F0000221F0FF33C5E90023EE6078211D
:10667000284600F02DF94BE06C2285F83A200B6893
:106680000B6053F8042B0B6052BB4FF0FF340FF636
:10669000B4200EE095F83A206C2AF0D00868086023
:1066A00050F8044B0860EC603CB94FF0FF340FF633
:1066B000782000F023FE201A76BD2E6B002E04D524
:1066C000204600F03BFE044608E03246002120460A
:1066D00000F05EFE002814BF041B3446AC6117E0D6
:1066E000294600F092F8002812D54FF0FF3076BD11
:1066F0006869411C69612522325409E06969481CB6
:10670000686125227254210002D0431C6B6134540D
:10671000002076BD2DE9F0410E4605469046726B8D
:106720007069316AB46A121AB069521A716A121A1F
:10673000F069521A121A96F83800141B41070DD44A
:10674000002C0BDD2746B0682021A8470028B06048
:1067500057D0F06A401C7F1EF062F4D17369424644
:106760003146284600F0B0FC00284AD1376A002F95
:106770000ADDB0683021A8470028B06041D0F06A37
:10678000401C7F1EF062F4D1B369F268314628469E
:1067900000F09AFCA8BB776A002F09DDB0683021B1
:1067A000A847B06068B3F06A401C7F1EF062F5D164
:1067B000F068B169F36942183146284600F084FC5C
:1067C000F8B9B76A002F09DDB0683021A847B0607A
:1067D000B8B1F06A401C7F1EF062F5D196F838001F
:1067E00041070BD5002C09DDB0682021A847B06017
:1067F00038B1F06A401C641EF062F5D10020BDE89B
:10680000F0814FF0FF30BDE8F0812DE9F8470D46EB
:10681000A3B02F6B002F0646904648BF6FF000478D
:106820000FF63C1400F0E0FDD4E90023696B40183A
:10683000CDE90123812828BF4FF0FF3042D2002448
:10684000002F33DDD8F8001001AA684600F025FDBE
:106850008146B9F1000F38D4D8F8000010B9B9F169
:10686000010932D44F4521DB6869484481280AD3A5
:106870000021696303AA29463046FFF74BFF040055
:1068800014D40020686103ABD5F814A04A466946C9
:1068900003EB0A0000F0AEFDCA44C5F814A058F896
:1068A000040B002818BFA7EB0907C9D14CB903AAEC
:1068B00029463046FFF72EFF044614B900206861D0
:1068C0006863204624B0BDE8F0874FF0FF34F8E756
:1068D0002DE9FC4707468C463E69BCF16F0F08BFA7
:1068E000082405D04CF02000782814BF0A24102476
:1068F0003C25D7E90023BCF1640F18BFBCF1690F38
:106900009046994606D100218B4203DAD8F100085F
:1069100069EB49094FF0000AD14508BFD0451FD1A6
:10692000386BE8B9082C4BD197F83800010747D5E8
:1069300030203B2586F83B0042E000280ED597F832
:10694000380000F01400102808D17B6B7969386A90
:106950005B1A1B1A9A1A002AC8BF3A62BDE8F3876D
:106960008DF800C0404649462246E31700F096FDE8
:106970003032D0B26D1E3A28019504DB9DF800003C
:10698000A0F151018A187255404649462246E31744
:1069900000F084FD89468046D14508BFD04503D02C
:1069A000F86871198842DDD3082C09D197F83800AE
:1069B000010705D5705D302802D06D1E302070555E
:1069C000C5F13C02BA617119F960386B8242B4DAE0
:1069D000821A3A624FF6EF70398F01403987BDE86D
:1069E000F3872DE9D04306460F4614464FF00008C2
:1069F000DFF8389412E0E00707D542464B463046B0
:106A0000394600F063FE06460F4640464946424678
:106A10004B4600F05BFE641080468946002CEAD1AC
:106A200030463946BDE8D0832DE9F34F054641F0A5
:106A300020048DB0D5E90089612C02AE09D0286B05
:106A4000002848BF062003D408BF672C01D10120CD
:106A50002863D5E9002358004015401C0ED11903C6
:106A60000CD00320A8619DF8381061391A2902D290
:106A70000FF2F46111E00FF2F4610EE059004915D4
:106A8000491C0FD118030DD10320A8619DF83810BF
:106A900061391A2914D30FF2DC61E868032200F08F
:106AA000A9FCD3E1194621F00043B3F5801F10463D
:106AB0000DD20027BB4208BFBA42019703D111E0B3
:106AC0000FF2AC61E9E701AA00F0D2FE0AE0DFF8BC
:106AD000607307EB1352DFF85C3301921940DFF863
:106AE00058331943C5E90001612C0ED1E868302103
:106AF0000170821CEA609DF8381061290CBF782172
:106B0000582141706869801C6861D5E900AB2BF0A1
:106B1000004300202AF00002834204BF8242002387
:106B200000F05B81612C40F0AA80286B002847BFF1
:106B300021210091401C0090009F7F1C4046494647
:106B40000022002300F0CCFED94601998DF80820E0
:106B500038BF89F00049091F002FD04601910DF17F
:106B6000090040F34981B349DFF8D0B20C910646E1
:106B7000404649460022002300F0CAFE80F03B81D7
:106B80004800400D00F11C0211D0002A0FDD40F238
:106B9000FF70824205DB09F0004040EA0B01002053
:106BA00013E00C98014041EA025140460DE029F003
:106BB0000043002028F00002834208BF82420FBF3A
:106BC00040461C22404600F0BBFE8046894600F04D
:106BD00055FFFF1F002F044609DD00F06DFF024640
:106BE0000B464046494600F079FF80468946F01D35
:106BF000072104E004F00F0200F8012D2411002CFD
:106C000001DD491EF6D5491E5CBF002200F8012DAA
:106C1000F9D5ECE00020194602AA0A4400E05B1E08
:106C200012F80149491E8442F9D00F2804D10DF110
:106C30000900425C521C4254002904D50198001DF1
:106C400002AE5B1C0190591E12D49DF838007218D8
:106C5000A0F13A07147804F130085FFA88F43A2C6E
:106C6000A8BFB844491E02F80189F3D58DF8380051
:106C7000286B002840F1B080591E2963ACE04046E3
:106C800049460022002300F02BFE019938BF89F00D
:106C9000004947F297504143694A91FBF2F2019251
:106CA000D2F1070204DD40464946FFF79AFE0AE0AA
:106CB000524200206349FFF794FE02460B464046CD
:106CC000494600F07DFF8046662C286BDFF878B1DE
:106CD00006BF019F0A3706273F18142FC8BF142785
:106CE00030208DF8080089460DF1090000E030469B
:106CF000002F34DD06464046494601F085F801463E
:106D00000A4606F1080304200A26B2FBF6F606EB53
:106D1000860EA2EB4E02303203F8012C0A22B6FB9B
:106D2000F2F202EB820EA6EB4E063036401E03F85E
:106D3000026DE9D1083F002F03F10806D7DD0846B0
:106D400001F076F802460B464046494600F0C6FE82
:106D500000225B4600F0BAFC80468946CBE70DF185
:106D60000901401A0DF1090604E00199491E401E6F
:106D70000191761C31783029F7D0662C02D1019927
:106D8000491C03E0652C0CBF012100212B6BCB18A3
:106D90009842B8BF431E002B1ED4834204DAF05C35
:106DA0003528A8BF392000DA30201946721E02EBC0
:106DB000010800E05B1E18F80199491E8145F9D0D1
:106DC000392802D1705C401C7054002904D5019808
:106DD000401C16465B1C0190019800B200901BB24B
:106DE0009DF838103246284600F034F82EE0C61DD3
:106DF000002F3FF7BDAE30460DF10901401A009952
:106E000003468842C8BF0B46002B0DF109063FF52B
:106E10002FAF8342BFF6FEAE0DF10900C15C07291A
:106E20007FF7F8AE0F20F6E6CBCCCC0C0000244068
:106E300002FCFFFFFFFF0F800000E03F0000F07F3B
:106E4000A08601000000F03F84D797410FB0BDE855
:106E5000F08F00002DE9F84783B006468A461746B2
:106E6000984600F01CFAB8F1000F406A356B90F8B4
:106E7000009002DC4FF00108BFA74AF02000BDF9E6
:106E80003040662808BF641C15D0672840F0848015
:106E900014F1040FC0F28680AC4280F2838096F831
:106EA0003800641C010702D4A845B8BF454620B28B
:106EB0002D1A48BF00250FFA84FAF068B169BAF1BB
:106EC000000F25DC4A1C30234354002D03DC96F8C8
:106ED0003800010703D5F06800F80290521C15EB4A
:106EE0000A0FB8BF6C4220B2441941424445B8BFB2
:106EF000A046B26171620FFA88F5F561F068B36976
:106F00002A463946184400F075FA641BB462C4E09E
:106F100022B29045084417DA4246394600F06AFA30
:106F2000B0694044B061AAEB0801002D716203DC36
:106F300096F838100A0705D5F16801F80090F06955
:106F4000401CF061B562A8E0394600F053FAB06920
:106F5000002D5044A8EB040803DC96F838100A070B
:106F600003D5F16801F80090401CB0610FFA88F079
:106F70008542F368B069B8BFA8460FFA88F207EBFC
:106F80000A01184400F036FAB1690FFA88F001449A
:106F9000B161281A706280E0BAF1610F14D14FF02C
:106FA000700A16E0A84504DA96F838100A0758BFA8
:106FB00045466D1E48BF0025BAF1670F14BF4FF05C
:106FC000450A4FF0650A04E0BAF1410F08BF4FF0DF
:106FD000500AB169F368481CB061002D17F8012B05
:106FE0005A5403DC96F838100A071BD5F168431C85
:106FF000B36101F80090002D14DDA8F101080FFA2B
:1070000088F039468542F768B8BFA8460FFA88F27B
:10701000F81800F0EFF9B0690FFA88F108446D1A1A
:10702000B0617562F068B1690844002C80F800A076
:1070300003D42B224270811C03E02D214170644255
:10704000811C00206A460AE023460A2493FBF4F4DC
:1070500004EB8405A3EB450302F8013B401C24B27A
:10706000002CF1DC012806DC4AF02002652A04BF6E
:10707000302201F8012B48B9302001F8010B07E05C
:10708000401E1DF80030303301F8013B0028F7DCCA
:10709000F268B0691044091AF16196F8380000F0FE
:1070A000140010280DD17269B169706A8A18F169EB
:1070B0008218B06A8A188218706B8242BCBF821A2A
:1070C000326204B0BDE8F087F8B505460E461746B3
:1070D0001C46002074B117F8011BB068A847B060C7
:1070E00030B1F06A401CF0620020641EF3D1F2BDA2
:1070F0004FF0FF30F2BD00007072696E74665F730E
:107100003A20256E20646973616C6C6F776564004A
:107110007072696E74663A2062616420256E206127
:107120007267756D656E74007072696E74665F73F8
:107130003A2062616420257320617267756D656E07
:10714000740000007072696E74665F733A20626149
:107150006420256C7320617267756D656E74000024
:1071600000000000000000006E616E004E414E0005
:10717000696E6600494E46003000F0B40246106861
:1071800095681318506803EB5004C0071DD54D4493
:107190001BE013F8017B05F8017B491EF9D1A0B172
:1071A000B60813F8011B06F00306032E08BF13F8F8
:1071B000016B01EB06214942801C294405D011F8DE
:1071C000016B05F8016B401EF9D1A3420ED013F8F4
:1071D000016B16F0030104BF13F8011BC91C300931
:1071E0000F28DAD113F8010B0F30D6E7F0BC02F10B
:1071F0000C007047613807E005E0A0F161011A2931
:1072000001D20120704741381A288041C00F7047D1
:10721000A0F121010F290AD3A0F13A02062A06D9CA
:10722000A0F15B01062902D37B380428EDE7012099
:1072300070471C48704770B45368D418042B09DA9F
:1072400041B1057804F8015B10F8016B16B15B1CC5
:10725000491EF3E7536070BC704738B514461D46AD
:1072600061B1FFF7E8FF61686A6B204690476FF0F5
:107270000102811A02D0491E01D001E003E005E0BD
:107280000021616032BD6FF0010032BD4FF0FF3070
:1072900032BDDA6B1047034BDFE7024BF9E70248D8
:1072A0007047000028330020F03200200278C9B275
:1072B0008A421AB11CBF10F8012FF9E718BF00204D
:1072C000704730B4002513E050F8042BD30744BFB7
:1072D000A9F101039A18091F042942F8045BFAD2A4
:1072E00013468C0744BF15809B1CC90748BF1D70FF
:1072F00050F8041B0029E7D130BC704780B500B9B5
:1073000006A005490B681BB122220021984701E025
:1073100000F09BFD222002BDF0470020636F6E73DA
:10732000747261696E742068616E646C65723A2073
:10733000626164206D6573736167650000F101032C
:10734000810704D010F8011B820781B1FAD10268CD
:10735000A2F10131914311F0803104BF50F8042FA4
:10736000F6E709BAB1FA81F100EBD100401CC01A6E
:107370007047B1F5807F02D34FF0FF307047017046
:10738000012070470078401E8041C043C00F704705
:10739000C9B2830706D0521E22D310F8013B99428E
:1073A000F7D11FE0083A13D302F1040241EA0121A8
:1073B00041EA014150F8043B121F21BF4B40A3F1A9
:1073C000013C2CEA030C1CF0803FF3D0C9B2001F33
:1073D000083210F8013B521E28BF91EA030FF8D87B
:1073E00018BF0120401E704780B5FFF722FF006CD8
:1073F00002BD000062B38B0708D0521E11F8013B9A
:1074000000F8013B00F024808B07F6D1830740F0A1
:10741000208000BF103A07D330B4B1E83810103ADA
:10742000A0E83810F9D230BC530724BFB1E80810E7
:10743000A0E8081044BF51F8043B40F8043BD207D1
:1074400024BF31F8022B20F8022B44BF0B780370C5
:107450007047121F17D35B0009D151F8043B20F885
:10746000023B1B0C121F20F8023BF6D20BE051F836
:10747000043B00F8013B1B0A20F8023B1B0C121FC7
:1074800000F8013BF3D238BF121D521E24BF11F881
:10749000013B00F8013BF8D87047FEE7BBBBE1B108
:1074A000B2F5803F80F07E80022A1ED98C46B1FB67
:1074B000F2F102FB11C31B0443EA1043B3FBF2FCDD
:1074C00002FB1C3380B240EA0343B3FBF2F002FB41
:1074D000103240EA0C4000237047022A05D9844646
:1074E000B0FBF2F002FB10C270474AB105D100F0C8
:1074F000010249085FEA300070470022002370470C
:1075000000F0A6BC0B000200002100207047904252
:1075100071EB030CF6D3B3F5803F2FD2F0B5B3FA7D
:1075200083F7B1FA81F4A7F10F0E3D1B5340CEF162
:10753000200602FA0EF2F3415340B5F10F0746D888
:107540000F3C2C444140C4F12006A040F141414091
:10755000B1FBF3F603FB1611A2FB0645001BA94184
:1075600002D2761E8018594180EA010221FA0EF3F8
:1075700062FA0EF200215A403046F0BD30B4B1FB41
:10758000F3FC03FB1C11A2FB0C45001BA94103D219
:10759000ACF1010C8018594130BC02460B466046E4
:1075A00000217047B2F1807F65D3F0B5B2FA82F75F
:1075B000B1FA81F4C7F10F063D1B22FA06F307F179
:1075C000110EF24120355A40B5F10F07B8D94140AC
:1075D000C4F12006A040F1414140B1FBF3FC03FBA4
:1075E0001C11A2FB0C45001BA94103D2BCF1010CEC
:1075F000801859410F2F12D30F3FC90341EA504160
:10760000B1FBF3F603FB1611A2FB0645D4EBC03029
:10761000A94102D2761E8018594146EACC3C07B3F4
:107620004140C7F12006B840F1414140B1FBF3F6BB
:1076300003FB1611A2FB0645001BA94102D2761ED0
:107640008018594180EA010221FA0EF3C7F12004A3
:1076500062FA0EF20CFA07F05A402CFA04F13043A9
:10766000F0BD80EA010221FA0EF3002162FA0EF267
:1076700060465A40F0BD8C46B1FBF2F102FB11C3EB
:107680001B0243EA1063B3FBF2FC02FB1C331B0238
:107690004CEA002043EA1063B3FBF2FC02FB1C330C
:1076A0001B024CEA002043EA1063B3FBF2FC02FB2E
:1076B0001C331B024CEA002043EA1063B3FBF2FCCC
:1076C00002FB1C324CEA002000237047B0B581EA6F
:1076D000030C0CF0004C40F2FF7515EA11541DBF6D
:1076E00015EA1357AC42AF4239E0E41923EA455397
:1076F00043F48013C90241F0004141EA505EC702E1
:107700001100A7FB020200284FF00000EEFB012051
:107710004FF00001E3FB072118BF42F001024018BF
:1077200000214941E3FB0E01A4F580640F0302D25E
:1077300052004041494154F101046CDD470872F1A7
:10774000004250F1000051EB0451A1F580115CBFE3
:1077500041EA0C01B0BD4CEA05510020B0BD05EA7C
:107760001357AC4214BFAF4241E050EA410E1CBF78
:1077700052EA430E02E061460020B0BD24423C4480
:107780001BD15FEA070EF6D0090302BF01460020B5
:10779000AEF1140EB1FA81F7AEEB070401FA07FE61
:1077A0000C37C7F1200100FA07F7C8404EEA000E77
:1077B00023EA455343F48013A2E733F00043B3FABE
:1077C00083F704BFB2FA82FE77440B3FE41BB7F1A4
:1077D000200E2FBF02FA0EF3BB40C7F1200E22FA93
:1077E0000EFE38BF43EA0E03BA40641C82E750EA3B
:1077F000410E14BF52EA430E6FF000014FF4001720
:1078000017EB430F8ABF194617EB410FB5E74CEA58
:1078100005510020B0BDD4F10104B4F120070FDA06
:10782000C4F12007520828BF42F0010210FA07F500
:1078300001FA07F7E1BF2A43E0403843E1400FE097
:10784000352C98DCC7F1200452EA400220FA07F2F6
:1078500018BF42F0010231FA07F0A1400A430021AB
:1078600072F1004250F1000051EB0C01B0BDFEE797
:1078700010B5144600F002F8226010BDC1F30A539F
:1078800043B14A0012F5001F28D2A3F2FE32A1EB49
:107890000251704750EA410C20D001F0004C31EA0F
:1078A0000C01B1FA81F204BFB0FA80F3D2180B3A9E
:1078B000B2F120032CBF00FA03F1914041EA0C0120
:1078C0003EBFC2F1200C20FA0CF319439040524203
:1078D00040F2FD33D21A01EB03517047002270478A
:1078E0004FF4001C1CEB410F94BF1CEB430F09E04D
:1078F00041EA030C50EA4C0C52EA0C0C03D29942B8
:1079000008BF9042704714BF8B4282427047FEE727
:107910004FF4001C1CEB410F94BF1CEB430F09E01C
:1079200041EA030C50EA4C0C52EA0C0C03D28B4295
:1079300008BF8242704714BF994290427047FEE7E9
:10794000124254D440F2FF7C1CEA11530FD063451D
:1079500031D09B1863453CBF01EB0251704701F0E9
:10796000004141EA0C510020AFF30080704750EA1B
:10797000410320D001F0004C91EA0C011CD0B1FA77
:1079800081F30B3B9A420DD9D21A994051EA0C016E
:10799000C3F1200C20FA0CFC61449840531C40F2C7
:1079A000FF7CD7E7914041EA0C01C2F1200C20FA9C
:1079B0000CF3194390407047B0FA80F31533202B35
:1079C000E0D3202AEED3203A203B9A4209D9D21A9A
:1079D00000FA03F141EA0C010020531C40F2FF7C45
:1079E000B8E700FA02F141EA0C0100207047524268
:1079F00040F2FF7C1CEA11530DD06345DBD0B2EBA3
:107A0000030C3CBFA1EB025170470CF1010221EACB
:107A1000035141F4801150EA410CCCD001F0004CEC
:107A2000352A27DC30B481EA0C01B2F1200309DAEF
:107A3000C2F12003044601FA03F5D0402843D140A7
:107A40009C400CE0C3F12002450020FA03F418BF6B
:107A500044F0010421FA03F091400C43002174F139
:107A6000004550F1000051EB0C01244230BC7FF482
:107A70007BAF70476146002076E7FEE7C1F30A530B
:107A800040F2FE329B1A14DDD3F120034FEAE1727B
:107A900008DDC90241EA505141F00040D840801849
:107AA0005040704703F2E13010B1D24382F0004001
:107AB000704700207047FEE7C11768B14840401A80
:107AC000B0FA80F29040D21CC907C2F5846241EA44
:107AD000025202EBD02140057047FEE770B44FF030
:107AE000004591EA030F40F1B5816B40841A71EBB8
:107AF000030603D2001BB141121973414FF4001C5D
:107B00001CEB410F34BF7CEB430442E00C0DA4EBB3
:107B10001356352E4FDC45EAC323DB0A45EAC12163
:107B2000C912B6F120050DDD63FA05F6EB4086EAD1
:107B30000305124218BF45F00105C01851F10001BC
:107B40000CD213E062FA06F5F2405540F3415A4078
:107B5000B340F3405A408018594107D349085FEABF
:107B600030005FEA350528BF45F0010501F58011B9
:107B7000420875F1004250F1000041EB04514E0003
:107B800016F5001F70BC38BF70470020090D0905AD
:107B900070471CEB410F10D252EA43060BD0BCEBEE
:107BA000410F05D80C0DAB43661E342EB6DD02E046
:107BB000AB438018594170BC704770BC7047FEE7FA
:107BC000F0B540F2FF7581EA030C0CF0004C15EAA9
:107BD00011541DBF15EA1357AC42AF42E5E0BC415A
:107BE000C1F31301C3F31303801A994143F48013C3
:107BF00004D2641E4000494180185941C90241EA3B
:107C00005051B1FBF3F603FB1611A2FB0675D7EB3F
:107C1000C020A94102D2761E80185941C90241EA0A
:107C20005051B1FBF3FE03FB1E11A2FB0E75D7EB07
:107C3000C020A94103D2AEF1010E8018594189023A
:107C400041EA9051760546EA8E2EB1FBF3F603FB2E
:107C50001611A2FB0675D7EB8020A94102D2761E31
:107C600080185941C90241EA50514EEA060EB1FB53
:107C7000F3F603FB1611A2FB0675D7EBC020A94152
:107C800002D2761E80185941C90241EA5051B1FB17
:107C9000F3F703FB1711A2FB0735D3EBC020A94173
:107CA00067F100070CBF004247F0010766F3D527D4
:107CB0004FEA1E31B80814F5806412DDBD0775F176
:107CC000004250EB0E5051EB045111F5801F5CBF88
:107CD00041EA0C01F0BD4CF07F6141F0E041002031
:107CE000F0BDBD076D0840EA0E5041F48011D4F19B
:107CF0000104B4F120060ADAC4F120060200E040D3
:107D000001FA06F3E1401843B24015430EE0342C6B
:107D100013DCC6F1200445EA40056D0820FA06F29E
:107D2000154321FA06F0A1400D43002175F10042F0
:107D300050F1000051EB0C01F0BD00205FEA0C0196
:107D4000F0BDCFB992185B41B3FA83F704BFB2FA22
:107D500082F6BF190B3FB7F120062FBF02FA06F3D8
:107D6000BB40C7F1200622FA06F638BF3343BA40BB
:107D70001CB1E419641E33E77F4231F00041B1FACF
:107D800081F404BFB0FA80F6A4190B3CB4F12006CC
:107D90002FBF00FA06F1A140C4F1200620FA06F632
:107DA00038BF3143A0403C1B1AE7AC421ABF05EA7A
:107DB0001357AF4212E050EA41061CBF52EA430695
:107DC000BFE750EA4107304661461CBF41EA055112
:107DD000F0BD52EA430C08BFC143F0BD00204FF490
:107DE000001616EB410F98BF16EB430F08BF16EBBA
:107DF000410F24BFC14305E016EB430F0CBF6146A2
:107E00004CEA0551F0BDFEE7400D491840EA8120DB
:107E10000CD2490DA1F58061491C40F0004005DB02
:107E2000D1F11F0154BFC840C017704700207047F0
:107E3000014648B1B0FA80F18840C91CC1F584619F
:107E4000090501EBD02140057047012000F0B8B8CA
:107E50007047FEE7841A71EB030604D26E40001BE4
:107E6000B141121973414FF4001C1CEB410F34BF98
:107E70007CEB430683E00C0DA4EB1356362E00F387
:107E80007C80012E45EAC32341DC43EA525312BFF2
:107E9000D20292025B08240545EAC12141EA505111
:107EA000D2EBC020994125D407D1B0FA80F610FA60
:107EB00006F162D00020203608E0B1FA81F6B14028
:107EC000C6F1200220FA02F21143B0404FEAF474E6
:107ED000B4EB465434F001064FEA74040AD8D6F5E0
:107EE0000016760D04F00044F04061FA06F25040AE
:107EF000F1404840C00A40EA415021F0004128BF0B
:107F00005FEA500550F1000044EBD12135E0DB0A77
:107F100045EAC121C90AB6F120050EDD42EA024256
:107F2000120CC5F1200603FA06F6EB4042EA0605FC
:107F30006D42984161F100010DE062FA06F5F240F0
:107F4000554063FA06FC82EA0C02F3405A406D4247
:107F5000904161EB030111F4801F05D1641E62059D
:107F600002D06D004041494121F48011430875F170
:107F7000004350F1000041EB045170BC70471CEB12
:107F8000410F15D223F0004352EA43060BD04FEACB
:107F90004C0CBCEB410F04D80C0D661E342EB7DD23
:107FA000EBE7801A994150EA410608BF0021E4E757
:107FB00008BF1CEB430F28BF6FF00001DDE7FEE7B1
:107FC0002021090326311820ABBEF9E738B504009B
:107FD0000D002900200022681268904731BD10B5BD
:107FE0000400200021684968884710BD10B50400CE
:107FF000200021688968884710BDC26811717047E8
:10800000C068007970470121C26851717047C0682B
:108010004079704770B505000E00DFF8E408FF21D5
:10802000816000210160002141600021C0F8181426
:108030000021C0F81414002180F82014DFF8C408CF
:1080400000F072FC0400002C01D020000AE0DFF8F0
:10805000B80800F07CFDDFF8B408DFF8B418411A66
:10806000C908002070BDDFF8A408DFF8A418401A82
:10807000C008704770B504000D002800C0B2002889
:1080800014D0FFF7F0FF010000228A420CD2DFF883
:10809000840800EB820318882668B04202D122606F
:1080A000002004E0521CF0E7052000E0002070BD35
:1080B00011B581B00C002100C9B201A8FFF7DAFFA9
:1080C000002806D1DFF85008019900EBC1000068D4
:1080D00000E0002016BD0200DFF83C0800EBC20300
:1080E0000800C0B2012806D00DD3032807D004D35E
:1080F000042806D007E0022006E0042004E01879F6
:1081000002E0587900E00020C0B2704710B40300CC
:1081100000201A68C2F38002002A18D01A7812F0E0
:108120000302012A02D0022A08D00EE00A681C6865
:10813000C4F38314A41CA2180A6006E00A681C6831
:10814000A40DA41CA2180A60FFE701221000C0B20F
:1081500010BC70472DE9F84384B00024DFF8A05725
:1081600015F5836000F057FD05F21449484600F00C
:1081700052FD68680090AE680098304005EB8000C2
:1081800010F10C0769463800FFF7C0FF002806D041
:108190000098304005EB80000C300700F2E75FF0FC
:1081A0000008B8F1020F0DD20098304005EB8000B6
:1081B000C06801A941F828000098401C009018F1FF
:1081C0000108EEE7019810F0030001280CD0022806
:1081D00014D1BDF80A00040000980199890DC91C4A
:1081E00010EB9100009009E0BDF80A00040000992E
:1081F0000198C0F3831041180091FFE7484600F052
:1082000011FD0100002901D000986860A4B220008F
:1082100005B0BDE8F08380B50021DFF8000700F06D
:10822000A9FC010081F3100002BD2DE9F843040010
:108230000D0016001F00DDF82080A1465FEA1949F5
:10824000FFF7E9FFDFF8B8167A1C18EA020201EB23
:10825000820259EA0043D36018EA070201EB820167
:108260000C310A6864F3C5020A600A6866F3891271
:108270000A600A6865F39F220A6001220B6862F3B4
:1082800001030B600A6832F004020A60BDE8F18362
:108290002DE9FE4F04000D001600A01C01900127DF
:1082A00000208DF80000684600F014FDDFF85086CD
:1082B000D8F800002860D8F80800401CD8F80090D2
:1082C000B0EB0909D8F8040010EB090901988145C1
:1082D00017D208F21C4B0121584600F081FCFFF731
:1082E00039FF82465146584600F07AFCD8F808100B
:1082F000491CD8F80000091AD8F80400411889462A
:10830000E4E73800C0B2002823D000213000C0B21A
:10831000002807D0012060F3010151F0040164F34B
:10832000891106E0022060F3010151F0040164F3B9
:108330009F51D8F80020D8F80800024008EB8200CE
:1083400010F10C021160D8F800300198C318C8F879
:1083500000309DF8000000F0C3FC3800C0B2BDE85A
:10836000FE8F2DE9FE4F04000D0016001F00DFF800
:108370009095D9F80880012201A93800FFF788FFFD
:1083800000281BD0DDF804A01AF1020A5FF0000BF0
:10839000BB450BD218EA0A0009EB800056F82B10F7
:1083A000C1601AF1010A1BF1010BF1E7CDF8008061
:1083B000019B3A0029002000FFF737FF99F82004BD
:1083C000002803D000F0D1F80028FBD1BDE8F78FDA
:1083D00038B504000D000023002229002000FFF71B
:1083E000C0FF31BD7CB504000D00160000960123CE
:1083F0006A4629002000FFF7B4FF73BDFEB50400F4
:108400000D0016001F000096019702236A462900FE
:108410002000FFF7A6FFF7BD2DE9FF4104000D0086
:1084200016001F00DDF8288000960197CDF808801F
:1084300003236A4629002000FFF793FFBDE8FF8170
:108440002DE9F04F85B004000D001600DFF8B07480
:10845000B868019000226946300080B2C01C8008D4
:10846000FFF716FF00286AD0DDF800800098801C16
:108470000090B968491C009A01980240891A5FEA85
:108480008109300080B2814510D3B2461FFA8AFAC2
:10849000029500990198014007EB810010F10C0B47
:1084A000524602995846FEF7A5FF1DE0CDF8109000
:1084B000039500990198014007EB810010F10C0A27
:1084C000049A03995046FEF795FFB2461FFA8AFABE
:1084D000BAEB090A05EB0900029017F10C0B5246A2
:1084E00002995846FEF786FFA2465FEA1A4AFFF74E
:1084F00092FE18F1010201990A4007EB82015AEA43
:108500000042CA60019911EA080107EB81010C31B0
:108510000A6864F3C5020A600A686FF38F120A6082
:10852000320092B20B6862F39F530B6002220B6819
:1085300062F301030B600A6832F004020A6097F8E4
:108540002004002803D000F010F80028FBD105B06B
:10855000BDE8F08FDFF8A80341680068814201D1CF
:10856000012000E00020C0B270472DE9F04F8BB031
:10857000FFF7F0FF002801D000205FE1DFF88073F3
:108580000020C7F81804BFF34F8F78680090B868D0
:10859000029000990298014007EB81000C3009908D
:1085A000002500260020089069460998FFF7AEFDD7
:1085B000002813D0D7F8180400280FD10098396884
:1085C000884203D338687860002037E10099029828
:1085D000014007EB81000C300990E5E75FF00008EF
:1085E000B8F1020F0ED200990298014007EB81000A
:1085F000C06803A941F828000098401C009018F1B9
:108600000108EDE7039810F00300022840F07F8096
:10861000DDF80C905FEA99590398800D502804DA30
:10862000DDF80CA05FEA9A5A01E05FF0500A039867
:108630006AF39F5003901AF108000A900398C0F360
:10864000C20008900A99AF4800F074F90500002DA7
:1086500000F0A280280000F0D3F93300082203A91B
:10866000280000F056FA08360299491C009A029830
:108670000240891A8C00544535D2002C07D000994D
:108680000298014007EB81000C30079002E017F1DF
:108690000C000790002C01D0A34600E0D346002C2C
:1086A00003D017F10C00069001E000200690002C8A
:1086B00002D0BAEB040000E000208DF80400330083
:1086C0005A46D2B20799280000F023FA56FA8BF6E0
:1086D0000698002814D033009DF80420069928003D
:1086E00000F017FA0CE000990298014007EB8100B6
:1086F00010F10C0B330052465946280000F009FADD
:10870000009819F1030910EB9900009044E00398D8
:1087100010F0030001283FD10398C0F3831006280E
:1087200003DA0398C0F3831000E00620039960F396
:10873000891103910398C0F38314A41C0398C0F318
:10874000C2000890A1006F4800F0F4F80500002D69
:1087500022D0280000F054F93300082203A9280091
:1087600000F0D7F90836002080460398C0F3831044
:10877000804511D20099481C0090330004220298D1
:10878000014007EB810010F10C01280000F0C1F955
:10879000361D18F10108E8E7002D33D0D7F8104452
:1087A000D7F81804002803D0280000F031F93DE084
:1087B000002C13D05FF000092000FFF728FC0128EF
:1087C00001D1012081464846C0B2002803D02900CB
:1087D0002000FFF7FBFBE0680468E9E7280000F0F1
:1087E00017F900208DF8040001A800F073FAD7F8FB
:1087F0001804002801D1009878609DF8040000F06A
:108800006FFA13E0D7F81044002C05D02000FFF7D2
:10881000EDFBE0680468F7E7414942483C4A801AAA
:10882000C008000450F00200FFF7D2FDFFF792FEEF
:10883000002801D1012000E00020C0B20BB0BDE84B
:10884000F08F70B500260A2E1ADA2D48D0F81004E1
:10885000040001200500002C0AD02000FFF7D0FB07
:10886000B04202D10020050002E0E0680468F2E7AF
:108870002800C0B2002801D0300003E0761CE2E7F7
:108880005FF0FF3070BD70B504000D00FFF7D9FF39
:10889000060016F1010F01D130001BE0300001008D
:1088A000C9B22000FFF7A9FB1549D1F81004002830
:1088B00005D1C1F810440020E168086009E0D1F852
:1088C0001004C0680068E2681060D1F81004C06845
:1088D0000460300070BD10B50948D0F81044012183
:1088E00080F82014002C08D02000FFF78CFB20001B
:1088F000FFF775FBE0680468F4E710BD00000000B6
:10890000A0380020001F0300882003009C100300F3
:108910001C100300000000001C100300BC3C0020E1
:108920004C1E03004410030010B50400200000F0AA
:10893000ECF910BD2DE9F84F06000F00B6F81080D5
:10894000B8F1040818EB0700C01CB0FBF8F93000C0
:1089500000F0F9F90500002D01D1002027E00020EA
:10896000287101206871A5F806800095CA465FFA53
:108970008AFABAF1010A009806605FF0000BD3454D
:1089800014D2300000F0DFF90400002C09D068791F
:10899000401C687100980460266000941BF1010B74
:1089A000EDE7280000F005F8002000E02800BDE811
:1089B000F28F2DE9F84F05002E0077792900B8468F
:1089C0005FFA88F8B8F101080020404502D2096832
:1089D000401CFAE7D1F80090AA465FF0000B38007F
:1089E000C0B283450AD2DAF8000004005146484676
:1089F00000F0D5F9A2461BF1010BF0E7BDE8F18FBD
:108A000038B5040025000121281D00F0E9F831BD2A
:108A10007CB5040025000121281D00F0EFF800902E
:108A20006E463078002802D12000FFF7C2FF73BDE8
:108A30002DE9FF4F87B007980190DDF81C80019861
:108A4000C688019840794643361F0198C088009037
:108A50000A98001D0099B0FBF1F50A99091D0098CC
:108A6000B1FBF0F7009800FB1717099801680A9806
:108A700041188E4202D20A9C341B01E00998046816
:108A800009980460002D03D0D8F800806D1EF9E726
:108A90005FF00009DDF800A0BAEB070A544501D2E7
:108AA000A246FFE7002C31D008984844039008EB19
:108AB0000700001D02909DF8500000280BD0CDF853
:108AC00014A002980490DDF80CB0059A0499584659
:108AD000FEF790FC0AE0CDF814A003980490DDF8AE
:108AE00008B0059A04995846FEF784FC0020070058
:108AF000D8F80080B4EB0A041AEB09090098844204
:108B000001D2A246CEE7DDF800A0CBE70BB0BDE86E
:108B1000F08FFEB504000D0016001F000196002026
:108B200000903B0001AA29002000FFF781FFF7BD5C
:108B3000FEB504000D0016001F00019601200090F4
:108B40003B0001AA29002000FFF772FFF7BD0021BA
:108B50008268916000218268116100218268516100
:108B600000218268D1600021826851600021826802
:108B70001160704710B4020052E8000F0B4642E843
:108B8000003494F0000FF7D110BC704710B402000D
:108B900052E8003F43EA010042E8000494F0000F6D
:108BA000F6D110BC7047000010B4020052E8000F6C
:108BB00000EA010342E8003494F0000FF6D110BC43
:108BC0007047000010B4020052E8003F03EA0100C1
:108BD00042E8000494F0000FF6D110BC704700008A
:108BE00010B4020052E8003F03EB010042E8000429
:108BF00094F0000FF6D110BC7047000010B40200D2
:108C000052E8003FA3EB010042E8000494F0000F9B
:108C1000F6D110BC704710B5040001212000FFF709
:108C2000B5FF10BD10B5040000212000FFF7BCFF08
:108C300010BDFEE7EFF3108072B6704762B6704762
:108C400038B50500FFF7F6FF04001C4988680028C6
:108C500010D1012088601A481A4A136803400B603B
:108C60001060194802684A605FF0FF31016000201F
:108C7000287001E001202870002C01D1FFF7DEFFF1
:108C8000002032BD70B505000C4EB068002812D02F
:108C90002800C0B200280ED1FFF7CCFF04003068D6
:108CA0000A49086070680A4908600020B060002C1A
:108CB00001D1FFF7C3FF002070BD00003447002042
:108CC000FC06FFBD80E100E084E100E000E100E09F
:108CD00004E100E010B504002000FFF7B1FF10BD73
:108CE00010B504002000C0B2FFF7CCFF10BDC26871
:108CF000C9B2008A414302EB01007047C268891A79
:108D0000008AB1FBF0F0C0B2704710B40100002936
:108D100001D10E2015E088684A68821A48680B68FD
:108D200018601000421EC0B2002806D00868006813
:108D3000431C0C6823600270F3E700200B68187175
:108D4000002010BC704738B50400002500208DF8C5
:108D500000006846FFF7BEFF606821680968884226
:108D600017D220680068401E2168086020680068EB
:108D700001782000FFF7BBFF0500A16820680068AC
:108D8000081A216809790200D2B2914201D2216801
:108D900008719DF80000FFF7A3FF280032BDF8B569
:108DA00004000D002E0000208DF800006846FFF73B
:108DB00091FF20680768781C216808603100200056
:108DC000FFF79CFF38709DF80000FFF789FFF1BDA9
:108DD000012210F01F018A40DFF8141803005BB273
:108DE0005B0941F82320704710B4020052B2002AF8
:108DF0000AD54A01DFF8FC37040064B214F00F040E
:108E0000234403F8042C05E04A01DFF8EC370400A2
:108E100064B21A5510BC704738B504000D00290023
:108E2000C9B2200040B2FFF7DFFF31BD10B504002A
:108E3000200040B2FFF7CCFF10BD10B504002000A9
:108E400000B200F018F80068012801D1012000E00C
:108E50000020C0B210BD1CB50400200000B200F01C
:108E60000AF800210160200000B200F004F8006858
:108E70000090009813BD00B200F1804010F5C04092
:108E80007047DFF8781708607047DFF870170968D7
:108E900008407047DFF8681751F8202052F00102AF
:108EA00041F82020704770B4DFF8544754F8205040
:108EB000DFF850371D4044F8205054F820300D02A0
:108EC00015F4F8551600F6B2360416F4403635435C
:108ED0002B4344F8203070BC7047DFF8241751F85A
:108EE0002000C0F304207047DFF8141751F8200069
:108EF000000C10F00300704701005FF0A0407047C5
:108F00002DE9F14181B00E0017009846089C099D9B
:108F100001A8FFF7F1FF3100C9B23A00D2B251EA1D
:108F200042014246D2B251EA82012200D2B251EA53
:108F300002212A00D2B251EA0241019A00EB8202D8
:108F4000C2F80017BDE8F3813EB504000D00002013
:108F50000190002000902B00DBB2002200212000B5
:108F6000FFF7CEFF37BD01B56846FFF7C5FF009993
:108F700000EB8101D1F8001731F00201009A00EBFB
:108F80008202C2F8001701BD11B581B00C0001A822
:108F9000FFF7B2FF019900EB8101D1F8001731F41E
:108FA0004031019A00EB8202C2F80017019900EBF0
:108FB0008101D1F800172200D2B251EA0241019A90
:108FC00000EB8202C2F8001713BD11B581B001A8F1
:108FD000FFF792FF0400200000F012F80199C8404A
:108FE00010F0010016BD01B56846FFF785FF009936
:108FF00000EB8100D0F80007000C10F0030002BD68
:10900000D0F810057047F8B504000D00160068464A
:10901000DFF8F4150A68026027002819874208D291
:10902000684650F82700FFF7EBFF3060361D7F1CC5
:10903000F3E7F1BD10B40A000300DB0810F00700ED
:10904000012414FA00F0D25C104010BC704730B418
:109050000A000300DB0810F00700D45C01258540FE
:109060002C43D45430BC7047DFF8A01501EB00024C
:1090700092F93020002A06D4084490F930000828DC
:1090800001DA012000E00020002801D0012000E0EA
:109090000020C0B27047DFF87415084490F9300022
:1090A000082801DB012000E00020C0B27047DFF893
:1090B0005C15084490F93000002801D4012000E03C
:1090C0000020C0B2704730B4DFF8405505EB000413
:1090D00084F8301045F821201C00E4B2002C03D1A4
:1090E00005EB010484F8480030BC70475FF0FF31A5
:1090F000DFF81825024482F83010704710B50400DC
:10910000DFF80C152000FFF7A2FF10BDDFF8FC14FC
:10911000084490F930007047DFF8F01451F820004F
:1091200070472DE9F04704000D0016005FF0FF378F
:109130003000C0B2002802D05FF0000801E05FF00C
:1091400008083000C0B2002802D05FF0080901E032
:109150005FF00C09C246CA4513D2DFF8B00450F8DC
:109160002A0010F1010F09D13300DBB22A00514669
:109170002000FFF7A8FF5046070002E01AF1010A9D
:10918000E9E7380040B2BDE8F087DFF880145FF00F
:10919000FF320300DBB241F823200200D2B2082ADA
:1091A00006DB5FF0FF320300DBB2194481F8482090
:1091B00070472DE9F041DFF8544494F85800002836
:1091C00001D0082031E000263000C0B2202805DAA6
:1091D0003000C0B2FFF78AFF761CF5E700252800B3
:1091E000C0B20C2805DA2800C0B2FFF7CEFF6D1C14
:1091F000F5E70426002714F154083A0031004046F0
:1092000000F008FA06210620FFF706FE0620FFF709
:109210000DFE4FF4BE70FFF71EFE5FF00040FFF73B
:1092200030FE012084F858000020BDE8F081DFF80E
:10923000DC0390F85800002801D0012000E0002055
:10924000C0B270472DE9F04104000D001600002760
:109250002000FFF72CFF002802D00820070046E07E
:10926000AA78D2B2520812F0010231002000FFF7B2
:1092700058FF8046404640B210F1010F35D0A87823
:10928000C0B2800810F0010000280FD1A87810F0BB
:109290000100002803D02000FFF765FE03E0697895
:1092A0002000FFF751FE2000FFF728FFA878C0B28A
:1092B000400810F00100002806D02A78210040461E
:1092C00040B2FFF7F0FD12E0DFF84003414649B23B
:1092D000014491F8481095F9002051EA82114FFAA3
:1092E00088F8404480F8481001E004200700380066
:1092F000BDE8F0812DE9F04104000D002000FFF7EA
:10930000CAFE002825D02000FFF700FFDFF8FC127E
:1093100040B2084490F848804746FFB2BF09380081
:10932000C0B2032808D12000FFF74FFE002801D06B
:10933000032608E0022606E03800C0B2012801D169
:10934000022600E003263100C9B22000FFF71CFE10
:1093500024E02000FFF788FE00281FD02000FFF740
:10936000D5FE0600B70017F580773000FFF792FDB5
:10937000380000B2FFF76FFD2800C0B200280DD002
:109380002000FFF7C3FE40B2FFF7C6FE804640460E
:10939000002803D00120B040FFF773FDBDE8F08145
:1093A00010B504002000FFF710FE002801D00120B6
:1093B00000E00020C0B210BD2DE9F84F86B00020BB
:1093C000019002A8002101604FF48070ADF8020006
:1093D00001250026082E19D2BDF90200FFF72DFD48
:1093E00000280BD02800FFF750FD002806D0BDF95B
:1093F0000200FFF730FD0198284301906D00BDF891
:109400000200001DADF80200761CE3E74FF4BE70C9
:10941000FFF713FD00280CD04FF4BE70FFF71BFDC3
:10942000019850F00040019002AA01210020FFF7AE
:10943000EAFD019800061ED001200500002006006C
:10944000082E18D20198054212D03000FFF745FDD2
:1094500004003000FFF748FD07003000FFF75CFE16
:1094600080464046002803D03900C9B22000C047DA
:109470006D00761CE4E70198002840F1B4800027D5
:1094800004A8002101600024002C06D15FF0FF3009
:1094900005A941F82400641CF6E70020070000201D
:1094A0000600042E65D2594800EB060191F85010D1
:1094B0008DF801109DF8018038F0C008304490F913
:1094C000500010F1010F52D005A94046FFF7B2FD40
:1094D00000284CD09DF80100C0B280098DF8000032
:1094E0004046FFF713FE40B2FFF716FE814648469E
:1094F000002803D19DF80000032838D19DF8000012
:10950000032803D104A94046FFF7A1FD4046FFF719
:109510006AFD824602A94046FFF78CFD039003983E
:10952000002803D05046C0B2022806D00398002875
:109530001DD15046C0B2032819D19DF80000032860
:109540000ED15046C0B2022802D15FF0030B01E0F9
:109550005FF0020B5946C9B24046FFF715FD7F1C6C
:109560004846002803D09DF800104046C847761CA6
:1095700097E73800C0B2002830D05FF0010803AA96
:1095800001210020FFF73FFD00200400002C0CD13A
:1095900003A850F8240002A951F82410884202D0F0
:1095A0000020804601E0641CF0E74046C0B200287D
:1095B00002D00020070011E000200400002C0DD193
:1095C00003A850F8240002A941F8240004A850F888
:1095D000240005A941F82400641CEFE73800C0B25C
:1095E00000287FF45AAF07B0BDE8F08F00000000FC
:1095F00000E100E018ED00E000E400E0046300405A
:1096000010650040FFE0FCFF98220300EC430020BF
:109610004044002062F30F2262F31F42401810F012
:10962000030308D0C91A1FD3DB0748BF00F8012D78
:1096300028BF20F8022D130030B414461546103907
:1096400028BF20E93C00FAD8490728BF20E90C00D0
:1096500048BF40F8042D890028BF20F8022D48BFDC
:1096600000F8012D30BC7047C91818BF00F8012D53
:10967000CB0728BF00F8012D7047FEE738B500F092
:10968000B3FD05002C00002C02D0200000F032FEBB
:1096900031BD2DE9FF419DF8000010F0F00050F0C1
:1096A00001008DF800009DF8000010F00F0050F050
:1096B00010008DF800000B22DFF83C1768467CDFB5
:1096C00005002C00002C02D0200000F013FE08261C
:1096D000002701AC3A0031002000FFF79BFF10206B
:1096E000ADF804003C20ADF806000020ADF80800FD
:1096F0004FF4C870ADF80A0001A87ADF80464446EE
:10970000002C02D0200000F0F5FDBDE8FF8110B56F
:109710000400200000F0EEFD10BD2DE9F843060026
:109720003078002848D1DFF8D476DFF8D486DFF827
:10973000D416B8EB0700C008000450F00400FEF790
:1097400047FEB28A3169B8EB0700C008000450F048
:109750000400FEF775FE5FF00009B08A81451FD254
:10976000306910F8090000F015FF0400002C12D039
:10977000112C10D02200DFF89016B8EB0700C008BB
:10978000000450F00100FEF72DFE2500002D02D050
:10979000280000F0AFFD112CE2D019F10109DCE73F
:1097A0003069B18A084410F8010C0D2804D10A2050
:1097B00000F0F0FE1128FAD0BDE8F1832DE9FC415C
:1097C000DFF8480600680090DFF84406009069461C
:1097D000DFF8400600F016FF05002C00002C02D038
:1097E000200000F087FD04275FF0000801AC42462E
:1097F00039002000FFF70EFFDFF81C06019001A9D9
:10980000DFF8180601F0A1F806003400002C02D0A1
:10981000200000F06FFDBDE8F38170B505002878E9
:1098200000280BD13B21DFF8F805008876DF060021
:109830003400002C02D0200000F05CFD70BD10B59B
:109840000400200000F056FD10BDF0B587B01C25C7
:1098500000266C46320029002000FFF7DBFE0020C6
:1098600000905FF4A03001905FF4F020029003209C
:109870008DF80C000020ADF80E0000208DF81000CF
:10988000DFF8A0050590DFF8A0050690684601F016
:1098900000FA07003C00002C02D0200000F02AFD56
:1098A00007B0F0BD70B5002001F0C2FD05002C002E
:1098B000002C02D0200000F01DFD01F0DEFE0600AD
:1098C0003400002C02D0200000F014FD33DF05002E
:1098D0002C00002C02D0200000F00CFD70BD70B5F3
:1098E00005002800C0B200280CD003280DD10220AA
:1098F00001F09EFD06003400002C02D0200000F094
:10990000F9FC02E0FFF7CEFFFFE770BD2DE9FC4157
:1099100005000E00288810280DD0112833D01328F8
:1099200061D0212842D03B287BD052286AD05628CB
:1099300000F082808BE0DFF8F414DFF8C404DFF875
:10994000BC24801AC008000450F00300FEF740FD5C
:10995000072001F06DFD80464446002C02D0200017
:1099600000F0C8FCDFF8B804A98801800188DFF89E
:10997000A40400F05EFE07003C00002C02D0200092
:1099800000F0B8FC63E0DFF8A814DFF87404DFF837
:109990006C24801AC008000450F00300FEF718FD84
:1099A0004FF6FF70DFF87814088050E0DFF8841479
:1099B000DFF84C04DFF84424801AC008000450F09B
:1099C0000400FEF705FDDFF870040088ADF8000024
:1099D0006946A8888FDF07003C00002C02D02000D9
:1099E00000F088FC33E0002300228521DFF83004FA
:1099F00000887FDF07003C00002C02D0200000F030
:109A000079FC24E0002300220021DFF81404008800
:109A1000B1DF07003C00002C02D0200000F06AFCFF
:109A200015E01321A88876DF07003C00002C02D047
:109A3000200000F05FFC0AE01321A88876DF070011
:109A40003C00002C02D0200000F054FCFFE7BDE8F1
:109A5000F3817CB501F02EFF05002C00002C02D014
:109A6000200000F047FC002000906946012001F032
:109A7000A1FF06003400002C02D0200000F03AFCC8
:109A8000684602F08AF805002C00002C02D0200065
:109A900000F030FC73BD70B505000E00DFF88003E8
:109AA00000887188884218D1308840F67721884232
:109AB00013D1DFF88803B188C91E018003880288AA
:109AC000DFF87C13DFF83803DFF83043001BC008F1
:109AD000000450F00300FEF791FC2B886A88DFF841
:109AE0006413C748C54C001BC008000450F00400B4
:109AF000FEF784FC70BD70B5DFF84C63DFF84C13E3
:109B0000300002F044FB05002C00002C02D02000A5
:109B100000F0F0FBF721300002F053FB06003400A8
:109B2000002C02D0200000F0E5FB70BD70B50500F0
:109B30002800C0B2042806D0072812D00A2823D152
:109B4000FFF7B0FE20E01321B548008876DF06005D
:109B5000082E05D03400002C02D0200000F0CAFBF3
:109B600012E0AF4800884FF6FF7188420BD1B84829
:109B700002F0C0FE0600082E05D03400002C02D0F2
:109B8000200000F0B7FBFFE770BD2DE9F8430500AA
:109B90002878002803D0022854D057D35AE0AD4F7C
:109BA000DFF8B4823878404400F0D5FC3878401CA7
:109BB00038703878404410F8010C0A280BD03878F7
:109BC000404410F8010C0D2805D038789B490988CD
:109BD00080B2884235D33878022830DB874CDFF8F2
:109BE00020929E49B9EB0400C008000450F0040024
:109BF000FEF7EEFB3A7892B24146B9EB0404E40872
:109C0000240454F004042000FEF71AFC3878ADF860
:109C10000000834803886A464146804800F026FFDA
:109C20000600082E09D0132E07D0052E05D03400CB
:109C3000002C02D0200000F05DFB132EE6D00020A7
:109C4000387007E0686800F055FB03E0686800F0D2
:109C500051FBFFE7BDE8F18338B58AB004A880491D
:109C60001822FDF7D7FB7F4800904FF480700190D9
:109C70007D490291039007237C4A694604A800F0BD
:109C80000CFC05002C00002C02D0200000F032FB60
:109C90000BB030BD2DE9F841ABB0AC2500266C46C9
:109CA000320029002000FFF7B5FC02208DF80000EB
:109CB00000208DF8020005208DF803000120ADF88A
:109CC0004C006B48149001208DF87C0040202290BD
:109CD00044F250602390674829905D4F69463800F0
:109CE00002F08EFC80464446002C02D0200000F09A
:109CF00001FB0121380002F080FC2CB0BDE8F081AE
:109D0000F8B505005C49032001F0A0FB0600340013
:109D1000002C02D0200000F0EDFA6946002001F08E
:109D2000F5FC07003C00002C02D0200000F0E2FA15
:109D30009DF80000022801D1012000E000202870D9
:109D4000F1BD38B54FF480410020FEF763F90500FE
:109D50002C00002C02D0200000F0CCFA02F0F4FD20
:109D600031BD38B502F029FE05002C00002C02D0D0
:109D7000200000F0BFFA31BD80B5FEF7F6FB0028E9
:109D800001D102F027FE01BD38B50321304802F0B1
:109D9000C4FC05002C00002C02D0200000F0AAFA20
:109DA00031BD80B5FFF758FFFFF7CBFFFFF766FC2B
:109DB0006846FFF7A5FFFFF7D4FFFFF74AFEFFF75E
:109DC00068FCFFF798FEFFF7F9FCFFF763FFFFF76A
:109DD0003CFD2A4802F016FE29490948074A801A24
:109DE000C008000450F00300FEF7F2FAFFF7CCFFC2
:109DF000FFF7C2FFFCE70000642003001C10030013
:109E000044100300C416030020180300842203003A
:109E10000F9702004C4700201B9702008C32002055
:109E2000683400201B9802003F9802007020030055
:109E3000341F0300FC1D0300F27302006A3400208B
:109E4000FC1B0300D4150300BC460020979A0200B7
:109E50006C34002001480020C4400020A81A0300F0
:109E6000A41C0300C43E0020C43F00208B9B0200C2
:109E7000A8320020DF9802002D9B0200101E030074
:109E80004C18030080B5DFF83C0402F0A6FFDFF8B1
:109E90003814D1E90023002110185941DFF82C248F
:109EA000D2E90023994206D801D3904203D2B0F1FF
:109EB0007F4071F1FF3104BDF0B402000B00D2E924
:109EC0000245D3E90267AF4204D301D8A64201D3C9
:109ED000012000E00020C0B2F0BC704738B504009B
:109EE0000025DFF8EC030078012832D1002C30D0B7
:109EF000207F00282DD0FFF7C5FFD4E90223994227
:109F000020D301D890421DD32069002801D1002020
:109F10002077A069616988472069002819D0207FCF
:109F2000002816D0D4E902232069002110185941D5
:109F3000C4E902012100DFF89C0302F079FF01204F
:109F4000050006E02100DFF88C0302F071FF01201C
:109F500005002800C0B232BD2DE9F843050088464F
:109F60000D24002088F80000FFF78CFFD5E90223BC
:109F7000161A73EB0107012000218F421DDB01DC63
:109F800086421AD3B6F5350F07D300F096F981460D
:109F9000DFF8440310EB090902E0D5E9020181462C
:109FA0005FF496034A460021DFF8180302F06DFEC5
:109FB0000400002C06D101200DE00021DFF804038D
:109FC00002F0F5FE0D2C05D12800FFF787FF88F879
:109FD0000000FFE70020BDE8F28380B5DFF8F4025F
:109FE00002F039FF002800D1002002BD80B5DFF863
:109FF000E40240680068002800D1002002BD10B5CE
:10A00000FFF7EBFF0400002C01D000202077002C8C
:10A01000F6D110BDAC48D0E90023B2F17F4273F114
:10A02000FF33C0E90023704738B50400AB4D286802
:10A03000002805D02868FFF751FF00202860FFE7BF
:10A0400031BD10B50400FFF71DFFA04AC2E90001B1
:10A0500010BD2DE9FC410500FFF7C8FF04000026F4
:10A06000002C38D09D4F3868002802D1012006000E
:10A0700013E0D4E902013A68D2E9022399420CD8EC
:10A0800001D3904209D2012006003868007F0028E1
:10A0900003D039688F4802F0CBFE3000C0B20028F0
:10A0A00018D0FFF79AFF804669464046FFF754FFF5
:10A0B00000280CD03868002802D1280002F073FD77
:10A0C000C7F800809DF800000028C5D10AE00020F4
:10A0D0003860C1E706E081480068002802D1280006
:10A0E00002F068FDBDE8F3817CB505007C4E694651
:10A0F000306802F066FF0400002C33D0207800287E
:10A1000003D002281ED00CD322E06068007F002814
:10A1100006D101206168087761686E4802F088FE08
:10A1200016E06E4861680268914202D10021016028
:10A1300007E06168674802F09BFE01000800C0B2BA
:10A14000002805E0FFF75BFF012061490870FFE789
:10A150006946306802F044FF6946306802F031FF1A
:10A160000400C9E773BD10B50400200002F017FE1B
:10A17000002801D0FFF74EFF0021200002F021FE51
:10A18000002802D02000FFF74FFF0121200002F03D
:10A1900018FE002802D02000FFF753FF2000FFF731
:10A1A000A3FF2000FFF755FF10BD80B5454802F022
:10A1B0001AFE01BDF8B505000E00494F6946386822
:10A1C00002F0E2FE0400002C0CD0257066606946A7
:10A1D000386802F0E8FE002802D0FFF7E6FFFFE74C
:10A1E000002000E00420F2BD7CB53E4800680090ED
:10A1F000082358223C493A48006802F0A9FE0500AD
:10A20000002D01D0280018E02E4E384A6946300053
:10A2100002F08BFC0400002C01D020000DE0012195
:10A22000300002F0B2FD0123314A0121300002F07A
:10A23000C8FC012026490870200076BD10B4030038
:10A240001000002801D107200AE01C6862610800A4
:10A25000C0B2012801D1012000E0002020610020CF
:10A2600010BC70472DE97043040088461500260095
:10A27000307F002801D0002013E0B561FFF702FE17
:10A280005FF0000910EB080051EB0901C6E902017B
:10A290003069002801D0C6F8108031000020FFF797
:10A2A00089FFBDE8708338B50400250000202877B9
:10A2B00029000120FFF77EFF32BD80B5014802F082
:10A2C0008CFD02BD683200207047002078470020D6
:10A2D000F947002058200300FFFFB400BC470020CE
:10A2E000682203006C2203004844002067A102009A
:10A2F000FFFF7F001FB504006846002100220023F5
:10A3000080E80E0002946A46002144F2010002F047
:10A3100087FE1FBDF8B504000D0016000027AF49E9
:10A320002078085C002807D03200D2B22900201D16
:10A3300003F04AF807000BE02078085C002807D1FA
:10A340003200D2B2290014F10C0003F0CCFB07005C
:10A350003800F2BD38B504000025A0492078085C1B
:10A36000002804D0201D03F08EF8050008E02078B6
:10A37000085C002804D114F10C0003F0F9FB05007F
:10A380002800C0B232BDF8B504000D001600002749
:10A3900092492078085C002807D03200D2B2290008
:10A3A000201D03F07FF807000BE02078085C0028F0
:10A3B00007D13200D2B2290014F10C0003F016FCD0
:10A3C00007003800F2BD01008868C968081A7047A4
:10A3D000FEB505000E002878002848D0022837D0A6
:10A3E0005AD2287A002805D101227D497D48FFF7FD
:10A3F000CAFF51E07C4F68680178380003F0BEFD69
:10A400000400002C08D001208DF80000019468465B
:10A410007649096888470BE03800FFF7D4FF002829
:10A4200006D000208DF8000068467049096888470A
:10A430003800FFF7C8FFB988814205D30122684977
:10A440006848FFF7A0FF02E001206949087023E097
:10A4500002208DF80000E8680190012260496148FF
:10A46000FFF791FF684661490968884714E0614F2A
:10A470003900614803F094FD002805D1012239001C
:10A480005848FFF747FF06E003208DF800006846B4
:10A49000564909688847FFE7F7BD2DE9F04788B0BE
:10A4A00005000C0016001F0050480660002C01D16A
:10A4B00007204DE0626892B221684B4803F041FDED
:10A4C00081464846002843D1E26892B2A1684A48D2
:10A4D00003F037FD80464046002839D16846474999
:10A4E0002022FCF797FF68690690287C002801D19C
:10A4F000002000E001208DF814008DF81C70687CAD
:10A50000002801D00E2000E000208DF81500E8683A
:10A510000290A86803902868019068680090DFF8AE
:10A52000C4A0374A6946504603F078FD8146484644
:10A5300000280DD100202E490870286810F1010F65
:10A5400005D0012226495046FFF71DFF00E00020FC
:10A5500008B0BDE8F0872DE9F0410500244C2778CC
:10A560002900214803F01CFD06003800C0B2002875
:10A570000DD000202070012219491A48FFF703FF6F
:10A5800080464446002C02D02000FFF7B3FE300086
:10A59000BDE8F0812DE9F0410500174E2900C9B250
:10A5A000300003F0EBFC0400002C13D10D4F3800F9
:10A5B000FFF7D0FE00280DD1DFF83880414630008B
:10A5C00003F0EEFC002805D1012241463800FFF7D8
:10A5D000A1FE04002000BDE8F08100000248002038
:10A5E000FB4700207032002004470020C4470020B1
:10A5F000FC470020FA47002014470020681A030097
:10A60000D1A302000200002A01D10E2010E000298F
:10A6100001D10E200CE01078DE2801D1082007E0DF
:10A6200008685060DE2010704FF6FF7050800020E8
:10A6300070470200002A01D10E2006E01078DE28C3
:10A6400001D0082001E051800020704738B5050096
:10A65000287A002810D00021688866DF0400002CCA
:10A6600002D10020287207E0112C02D101202872AB
:10A6700002E020006968884731BD38B504000D004C
:10A680002879012808D128886188884204D10120CE
:10A6900020722000FFF7DAFF31BD7047F8B584B0B3
:10A6A00005000E0030886988884226D1B71C3878AA
:10A6B000022822D1387A042805D0387A062802D018
:10A6C000387A052819D16846102103F0F3FC0220DE
:10A6D0008DF800004FF4C070ADF80400387A0528FA
:10A6E00002D10020ADF8040069463088B0DF0400D4
:10A6F000002C02D020006968884705B0F0BD70B515
:10A7000004000D00002D2DD0002C2BD02E00307811
:10A71000DE2827D1A0887188884202D13000FFF757
:10A7200095FF2088012806D0022809D0112811D0D1
:10A7300051280AD016E0211D3000FFF79EFF11E0DE
:10A74000211D3000FFF7A9FF0CE0211D3000FFF7AD
:10A75000A5FF07E0A0887188884202D14FF6FF70FC
:10A760007080FFE770BDFEE72DE9F8438AB0060070
:10A770000F00002000906A46B988706903F09DFCC4
:10A780000500002D5FF008085FF0000902AC4A46A2
:10A7900041462000FEF73EFF01A803900220ADF8DD
:10A7A00008000020ADF80A0002AA3189B888ADDFA0
:10A7B0000400002C23D1B069002820D0039803F0B6
:10A7C000BCFC00281BD00098002802D00120009972
:10A7D000087018255FF000080DF1100942462900A5
:10A7E0004846FEF717FF02208DF810000596B8883E
:10A7F000ADF818000098079004A8B16988470BB01D
:10A80000BDE8F0832DE9F84787B005000E00B71DBD
:10A810006A46B188686903F050FC0400002C5FF0C0
:10A8200018085FF000090DF1040A4A4641465046F7
:10A83000FEF7F0FE0295B088ADF80C000098049089
:10A840003888298988421FD1788902281CD100982C
:10A8500000282CD017F10C0003F06FFC002806D064
:10A8600001200099087002208DF8040005E0002006
:10A870000099087003208DF80400A869002816D0FC
:10A8800001A8A969884712E03888A98988420ED1B1
:10A89000A86900280BD000208DF8040017F10C00E7
:10A8A00005907889ADF8180001A8A969884708B013
:10A8B000BDE8F0872DE9F04387B005000E006A4639
:10A8C000B188686903F0F9FB0400002C19D10098E5
:10A8D0000078002815D018275FF000080DF1040952
:10A8E000424639004846FEF795FE01208DF80400E7
:10A8F0000295B088ADF80C000098049001A8A969F1
:10A90000884707B0BDE8F08370B505000C00002C47
:10A9100001D0002D00D117E026002888102804D08F
:10A92000502807D057280AD00EE029003000FFF742
:10A930001BFF09E029003000FFF764FF04E0290055
:10A940003000FFF7B7FFFFE770BD2DE9F0438DB092
:10A9500004000D0009A844491022FCF75BFD002CFF
:10A9600001D10E207DE0002D01D10E2079E0286874
:10A97000A061210009A862DF03001800002870D13F
:10A9800020788DF802000120ADF80000A21C694675
:10A990000120A8DF07003800002862D15FF02008FE
:10A9A0005FF0000901AE4A4641463000FEF732FE34
:10A9B0000220ADF8040020788DF80600F420ADF8F0
:10A9C00008000120ADF80A0001208DF810009DF864
:10A9D000110050F008008DF811009DF8110050F0A2
:10A9E00004008DF8110001208DF8150001208DF86C
:10A9F000160014F10C0201A9608803F005FC0600A2
:10AA0000002E01D030002CE020275FF000080DF16F
:10AA10000409424639004846FEF7FCFD0320ADF824
:10AA2000040020788DF80600F420ADF8080001201D
:10AA3000ADF80A0001208DF810009DF8110050F0CB
:10AA400010008DF8110001208DF8150001208DF8FF
:10AA5000160001208DF81700221D01A9608803F05F
:10AA6000D3FB0DB0BDE8F083241F03002DE9F04FA8
:10AA700085B004000D0016001F00002C01D10E202F
:10AA800036E06A46390089B2606903F016FB8046F9
:10AA9000404600282CD1380080B24FF6FF71884222
:10AAA00002D00098002801D1052021E0009800780C
:10AAB000002801D108201BE03088F52801DB0720A1
:10AAC00016E05FF010095FF0000A0DF1040B52462A
:10AAD00049465846FEF79EFDA088ADF8040004954F
:10AAE000039601208DF8060001A9380080B2AEDF80
:10AAF00005B0BDE8F08FFEE730B40100002000286B
:10AB00000ED11422DFF8BC3302FB00F41C5B0D00F5
:10AB1000ADB2AC4202D15043184402E0401CEEE713
:10AB2000002030BC704738B504000D00258000209F
:10AB3000207214F10A00DFF890130822FCF75AFC87
:10AB400031BD4FF6FF7101807047F0B50400A08859
:10AB500010FA82F51000A68880B2B04202D2160028
:10AB6000B6B200E0A688A088861BE08810FA83F7BA
:10AB70001800B4F806C080B2604503D29C461FFAA4
:10AB80008CFC01E0B4F806C0E088B0EB0C0C4888FF
:10AB9000B4F800E0704504D36088B1F802E0704575
:10ABA00001D2002010E08888B04202D38888854214
:10ABB00001D2002008E0C888604502D3C8888742D7
:10ABC00001D2002000E00120F0BD10B50400DFF844
:10ABD000FC128869002802D020008969884710BDCE
:10ABE00070B505000E003100280080B275DF04004A
:10ABF000002C04D0112C02D02000FFF7E6FF002C1F
:10AC000001D1012000E00020C0B270BD2DE9FC415F
:10AC100006003700380080B2FFF76EFF0400002CFA
:10AC200035D0DFF8A882207A98F80C1088420ED22E
:10AC300014F10A01380080B2FFF7D2FF01000800CA
:10AC4000C0B2002823D0207A401C20721FE00020D0
:10AC5000207298F8100000280BD03B21380080B2F9
:10AC600076DF0500002D04D0082D02D02800FFF764
:10AC7000ACFFD8F81400002809D000208DF800009F
:10AC80003800ADF802006846D8F814108847BDE8CF
:10AC9000F381F8B50600002E01D10E203BE08B4C6D
:10ACA000200031001C22FCF7B5FB87492160306889
:10ACB00000280CD030687ADF0400002C01D020007E
:10ACC00029E0080031680822FCF794FB06E0080040
:10ACD0007BDF0400002C01D020001CE00025002DAB
:10ACE00018D17848142101FB05F100EB0107380069
:10ACF000FFF727FF7648690108447860754A00210C
:10AD0000381DFFF79BFA0400002C01D0032002E05D
:10AD10006D1CE4E70020F2BDF8B505000E00707A66
:10AD2000002814D1307A002802D16848476801E031
:10AD3000664887682A0092B239007068FFF792FA75
:10AD40000400002C11D02000FFF73FFF0DE0002091
:10AD500030725E494869002807D001208DF8000054
:10AD6000ADF80250684649698847F1BD2DE9F041C8
:10AD7000050095F80F80AE884046C0B2012823D167
:10AD80004FF6FF773800FFF7B7FE0400002C03D121
:10AD90000420FFF71AFF17E0310089B22000FFF707
:10ADA000C2FE3B0040F2F31215F1100114F10A004B
:10ADB000FFF7CBFE60724548C089002804D121000E
:10ADC000300080B2FFF7A8FFBDE8F081F8B50600BB
:10ADD000B788380080B2FFF78FFE0400002C0BD03C
:10ADE0006068FFF760FA0500002D02D02800FFF729
:10ADF000ECFE2000FFF7A5FEF1BD2DE9F0410600B5
:10AE0000B71D38883149C989884220D178890228FC
:10AE10001DD1B6F80480404680B2FFF76DFE0500F4
:10AE2000002D14D017F10C0003F087F9002805D08D
:10AE30002900404680B2FFF76FFF08E06868FFF71F
:10AE400032FA0400002C02D02000FFF7BEFEBDE85D
:10AE5000F08170B50500AE88300080B2FFF74CFE7F
:10AE60000400002C0FD04FF6FF7340F2F31215F1DF
:10AE7000080114F10A00FFF768FE6072210030003B
:10AE800080B2FFF749FF70BD38B504000D0020887F
:10AE9000102806D0112808D012280ED0502808D02B
:10AEA0000FE02000FFF762FF0BE02000FFF78EFFAE
:10AEB00007E02000FFF7A1FF03E02000FFF7C9FF34
:10AEC000FFE731BDA846002080470020D045002084
:10AED000104600200DAC020001005FF0A04070475A
:10AEE00011B581B00C0001A8FFF7F6FF019900EB46
:10AEF0008101D1F8001731F44031019A00EB820250
:10AF0000C2F80017019900EB8101D1F80017220067
:10AF1000D2B251EA0241019A00EB8202C2F8001754
:10AF200013BD10B50400042C03D2200003F06BFB0A
:10AF300000E0002010BD2DE9F04705000E000027BD
:10AF40005FF000092800C0B203F078FB8046B8F13A
:10AF5000040F4FD23000C0B200282AD0022841D0BE
:10AF600048D2DFF8D895032000FB08F019F800005C
:10AF70000700032000FB08F04844407800280ED06A
:10AF8000DFF8BCA552464FF48041DFF8B8050068F1
:10AF9000FFF768F90400002C01D18AF80050032063
:10AFA00000FB08F048448078DFF89C1501F80800A1
:10AFB00020E0DFF890050068FFF775F9DFF87C0501
:10AFC000DFF8841511F80810032202FB08F202448E
:10AFD0009278914205D1032101FB08F10844807861
:10AFE000070007E0DFF85405032101FB08F10844DE
:10AFF000407807003800C0B2002808D0DFF84C15B0
:10B000000868002803D03800C0B209688847BDE846
:10B01000F08710B5040002212078FFF78CFF10BDE7
:10B0200010B5DFF82C050078002809D00024042C86
:10B0300008D2022C02D0200003F0B5FA641CF6E717
:10B0400003F0B9FA10BD2DE9F041060000240025F7
:10B05000DFF800753878002803D000203870FFF73B
:10B06000DFFF3000C0B2002837D0022841D040D3E3
:10B07000042800F0AE8074D3062800F01881C0F0D8
:10B08000E180082800F02781C0F01F810A2800F025
:10B090003E81C0F02E810C2800F05581C0F0458122
:10B0A0000E2800F05581C0F05381102800F0508127
:10B0B000C0F04E81122800F08281C0F0498114282E
:10B0C00000F08A81C0F08081162800F09881C0F0DD
:10B0D0008B81172800F0938196E1FFF7A1FFDFF83D
:10B0E00078040068FFF7DFF80400DFF870040670EA
:10B0F0008AE1002003F040FA00280CD0002003F081
:10B1000052FA3000C0B2022802D14FF4E1650DE0DE
:10B110004FF47A650AE0002003F03DFA3000C0B237
:10B12000022801D1C82501E04FF4C875DFF82C04CE
:10B130000670002217004FF40040A0FB050110F537
:10B140007A7051F100014FF4FA620023FCF7A6F97E
:10B1500001003A00DFF800040068FFF783F80400FC
:10B1600052E1002003F008FA00280CD0002003F080
:10B170001AFA3000C0B2032802D14FF448750DE02E
:10B180004FF47A650AE0002003F005FA3000C0B2FF
:10B19000032801D1C82501E04FF4C875DFF8BC03CE
:10B1A0000670002217004FF40040A0FB050110F5C7
:10B1B0007A7051F100014FF4FA620023FCF76EF946
:10B1C00001003A00DFF890030068FFF74BF8040035
:10B1D0001AE1002003F0D0F900280CD0002003F081
:10B1E000E2F93000C0B2042802D14FF47A650EE0D3
:10B1F0004FF47A650BE0002003F0CDF93000C0B2C7
:10B20000042802D14FF4C87501E04FF4C875DFF887
:10B210004C030670002217004FF40040A0FB05010C
:10B2200010F57A7051F100014FF4FA620023FCF737
:10B2300035F901003A00DFF820030068FFF712F843
:10B240000400E1E0002003F097F900280BD0002073
:10B2500003F0A9F93000C0B2052801D1C8250DE0DE
:10B260004FF47A650AE0002003F095F93000C0B28F
:10B27000052801D1C82501E04FF4C875B74806700C
:10B28000002217004FF40040A0FB050110F57A7072
:10B2900051F100014FF4FA620023FCF7FFF80100BE
:10B2A0003A00AD480068FEF7DDFF0400ACE0002086
:10B2B00003F095F9A9480670002240F26661A6489D
:10B2C0000068FEF7CFFF04009EE0002003F063F962
:10B2D000A248067098E001203870012003F07FF941
:10B2E000002240F266619C480068FEF7BBFF040044
:10B2F0008AE001203870012003F071F900224FF438
:10B30000005195480068FEF7ADFF04007CE0012085
:10B310003870012003F063F9002240F266618E4824
:10B320000068FEF79FFF04006EE0012038700120E6
:10B3300003F055F900224FF4005187480068FEF7EA
:10B3400091FF040060E003F040F9844806705BE080
:10B35000834F3868FEF7A7FF04003000C0B2D0F179
:10B3600011000500002D23D0002C21D1022D18D36F
:10B3700000229046290089B2C82041434FF4004082
:10B3800080FB010110F57A7051F100014FF4FA626F
:10B390000023FCF783F8010042463868FEF762FF9D
:10B3A0000400022003F0F7F801206949087005E065
:10B3B000022003F0F8F800206549087024E0FFF748
:10B3C0002FFE664806701FE0FFF72AFE002003F0FC
:10B3D000E2F86248067017E0FFF722FE012003F052
:10B3E000DAF85E4806700FE0FFF71AFE002003F05F
:10B3F000D2F8012003F0CFF85848067004E003F0BB
:10B40000E4F856480670FFE72000BDE8F08110B56B
:10B41000040054480078C00703D550480078FFF76F
:10B4200012FE10BD10B50400022003F0D8F810BDC4
:10B4300038B5040000254B480078C00704D520002B
:10B44000C0B2FFF700FE0500280032BDF8B50500C8
:10B450000E000024434805603C480660A80722D53A
:10B460000027042F09D2002C07D101220121380026
:10B4700000F030F804007F1CF3E7002C06D140F206
:10B4800033320421384803F054FA0400002C02D16E
:10B4900003F09AFA0400002C05D1344A002129480F
:10B4A000FEF7CCFE0400E80712D5012003F0DCF81B
:10B4B000002C05D12E4A00212748FEF7BFFE0400CC
:10B4C000002C05D12B4A01212548FEF7B7FE0400C8
:10B4D0002000F2BD30B403000020042B29D2140058
:10B4E000E4B2012C07D10C00E4B2012C02D113F11B
:10B4F0000E0200E000220C00E4B2002C0FD0022C5F
:10B5000006D013D20D4C032505FB03F5625512E05E
:10B510000A4C032505FB03F52C4462700BE0074C35
:10B52000032505FB03F52C44A27004E0072420004A
:10B5300001E00724200030BC704700004047002095
:10B540000048002080220300D0470020CC47002084
:10B55000FF470020FE47002078220300FD4700201F
:10B560007C220300C8470020881A030013B00200A1
:10B570000FB4020025B4020070B504000D00042CC5
:10B580000FD22800C0B2002801D0032600E0002618
:10B59000200003F062F83100C9B2FFF7A1FC0020DF
:10B5A00000E0062070BD10B5040001212000FFF767
:10B5B000E3FF10BD38B5012200210020FFF78AFF0C
:10B5C0000500002D03D0072D01D0280018E0072228
:10B5D00002210120FFF77EFF0400002C03D0072C7E
:10B5E00001D020000CE0042202210020FFF772FFAE
:10B5F0000100002903D0072901D0080000E0002045
:10B6000032BD38B5012202210020FFF763FF05009B
:10B61000002D03D0072D01D0280018E007220221B9
:10B620000120FFF757FF0400002C03D0072C01D0A6
:10B6300020000CE00A2200210020FFF74BFF010050
:10B64000002903D0072901D0080000E0002032BD06
:10B6500010B504000120FFF764FC002802D002208E
:10B66000207009E00020FFF75CFC002802D00B20CE
:10B67000207001E00020207010BD10B50020FFF701
:10B6800092FF0400002C03D0062C01D020000AE019
:10B690000120FFF788FF0100002903D0062901D00F
:10B6A000080000E0002010BDF8B505000E00288855
:10B6B000102802D0112814D027E01E4F3868002827
:10B6C0000BD1FFF777FF0400002C06D01A49086859
:10B6D000002802D02000096888473868401C38607C
:10B6E00013E014480168491E0160006800280BD16E
:10B6F000FFF787FF0400002C06D00F4908680028D8
:10B7000002D0200009688847FFE7F1BD70B5050049
:10B710000C00002608480560002C02D02000FFF72E
:10B7200097FF04480068002802D1FFF76AFF06006F
:10B73000300070BDD8470020D4470020012210F00F
:10B740001F018A40DFF8181203005BB25B0941F861
:10B7500023207047010049B2002909D5DFF80412FF
:10B7600040B210F00F00084410F8040C400904E047
:10B77000DFF8F41140B2085C4009704780687047F8
:10B780000100080040B2202805DADFF8E001C840D7
:10B7900010F001000EE0080040B2402809DA012054
:10B7A00020398840002801D0012000E00020C0B2EC
:10B7B00000E0012070470100082903D2EC20084175
:10B7C000C00701D4002000E00120704710B504003C
:10B7D000200040B2FFF7D4FF002802D142F201005E
:10B7E00023E0200040B2FFF7B5FFFFF7E4FF002899
:10B7F00002D142F2020018E05D49886800280FD0AB
:10B80000200040B2400951F82020012314F01F000D
:10B8100083401A43200040B2400941F8202003E051
:10B82000200040B2FFF78AFF002010BD7FB5040062
:10B830005049684603F003F96846FFF79FFF002868
:10B8400010D06846FFF79AFF05002E68696820004F
:10B85000C0B2B047002803D0684603F0FAF8EBE71F
:10B86000112000E0002004B070BD7FB50400424903
:10B87000684603F0E4F86846FFF780FF00280CD024
:10B880006846FFF77BFF05002E6869682000C0B29C
:10B89000B047684603F0DDF8EDE77FBD38B5162008
:10B8A000FFF794FF05002C00002C02D02000FEF7CB
:10B8B00021FD31BD7CB5314D2878002801D008200C
:10B8C00033E02F4E012030700020FFF7AFFF11282A
:10B8D00001D1002029E00020FFF7C7FF29480068B8
:10B8E000019000208DF800006846FDF7F3F9264925
:10B8F00001A810DF0400002C02D10120287001E013
:10B90000002028709DF80000FDF7EAF9002C01D016
:10B9100020000AE00020307000201C490870FFF76A
:10B92000BDFF0120FFF7A1FF002076BD134800787E
:10B9300070473EB51649684603F081F86846FFF740
:10B940001DFF00280AD06846FFF718FF040025688D
:10B950006068A847684603F07CF8EFE737BD000051
:10B9600000E100E018ED00E000E400E0FC06FFBDAF
:10B9700034470020B8200300C420030005480020FD
:10B98000074800209022030021D002000648002032
:10B99000D020030080B5FFF7CCFF01BD8068704761
:10B9A0000100002901D10E2003E0BB4800680860B7
:10B9B000002070472DE9FE4306000F003800FFF716
:10B9C000EFFF0500002D01D02800DCE05FF00C083F
:10B9D0005FF000096C464A4641462000FDF71AFE1A
:10B9E0008DF8006001208DF802000620ADF80400FB
:10B9F0003A686946202069DF0400002C0DD0200041
:10BA000003F03EF80200A549A548A64BC01AC0089D
:10BA1000000450F00100FCF7E5FC5FF00C085FF05B
:10BA200000096D464A4641462800FDF7F3FD012016
:10BA30008DF8010000208DF8020000208DF8030031
:10BA40003A686946402069DF0500002D0DD02800C6
:10BA500003F016F8020094499148924BC01AC008AE
:10BA6000000450F00100FCF7BDFC5FF00C085FF033
:10BA700000096C464A4641462000FDF7CBFD8DF893
:10BA80000060F720ADF802003A686946232069DFBC
:10BA90000400002C0DD0200002F0F2FF02008349C8
:10BAA0007F48804BC01AC008000450F00100FCF72A
:10BAB00099FC5FF00C085FF000096D464A4641466C
:10BAC0002800FDF7A7FD01208DF800003A686946BF
:10BAD000012069DF0500002D0DD0280002F0D0FF05
