:020000040006F4
:10F0000050440020599007007B1207004F1407005E
:10F010000F1B07007B1D0700971F07000000000063
:10F02000000000000000000000000000AF23070007
:10F030006F25070000000000EF320700B75B0700F4
:10F0400073630700C3710700596B07001B84070037
:10F05000E38C0700DB8D07005D8E0700CB8E070079
:10F060000F8F0700F38F0700F3900700F59007005C
:10F07000F7900700F9900700FB900700FD9007004C
:10F080008D430700FF9007000191070003910700DF
:10F090000591070007910700099107000B910700F0
:10F0A0000D9107000F9107001191070013910700C0
:10F0B00015910700179107000000000000000000F4
:10F0C000199107001B9107001D9107001F91070070
:10F0D000CD3C0700219107002391070000000000AC
:10F0E0000000000000000000000000000000000020
:10F0F0000000000000000000000000000000000010
:10F1000000000000000000000000000000000000FF
:10F1100000000000000000000000000000000000EF
:10F1200000000000000000000000000000000000DF
:10F1300000000000000000000000000000000000CF
:10F1400000000000000000000000000000000000BF
:10F1500000000000000000000000000000000000AF
:10F16000000000000000000000000000000000009F
:10F17000000000000000000000000000000000008F
:10F18000000000000000000000000000000000007F
:10F19000000000000000000000000000000000006F
:10F1A000000000000000000000000000000000005F
:10F1B000000000000000000000000000000000004F
:10F1C000000000000000000000000000000000003F
:10F1D000000000000000000000000000000000002F
:10F1E000000000000000000000000000000000001F
:10F1F000000000000000000000000000000000000F
:10F200005968DFF8D439CA689A4200D0704710B5FF
:10F2100041688268DFF8C4395869002804BF9869DA
:10F22000002802D0002108E0491C0878521E04067C
:10F23000FAD4481C58619A610121597410BD7FB5F8
:10F24000DFF89C09DFF89449826BDFF89859DFF802
:10F25000986900F15C01684600F0D3FF00F051F8B6
:10F26000DFF88809E060002161746161A1612846CE
:10F270004FF4477101F0EAFBDFF87409DFF8741905
:10F28000861BF6082A462046360401F07CFA46F032
:10F29000010610B90FF6801123E0607C28B105F556
:10F2A000B6722878117801B310B10FF69C1118E0EE
:10F2B000907920B3A2696169684600F0A2FF00F06E
:10F2C00020F805F5BA754FF4B271284601F0BEFB7F
:10F2D0002A46DFF80419204601F055FA58B90FF60E
:10F2E0008811304601F063FD09E000281CBFA879B1
:10F2F000002804D00835E561012004B070BD00206D
:10F30000FBE720466946102201F02CBF38B5DFF834
:10F31000E848207890B0E0B901F084FF0FF684153A
:10F3200018B12946DB2001F09DFF2022DFF8CC1820
:10F33000684601F0D0FF40236A46211DDFF8C0086F
:10F3400002F043F818B12946E52001F08BFF0120B7
:10F35000207011B030BD80B5DFF88418886B18B10B
:10F36000FFF76DFF00B10120DFF87018087401BDD0
:10F3700010B5DFF86C48FF224FF4007104F15C0017
:10F3800002F048F8202104F1380001F05FFB002072
:10F39000206310BD38B5044601250CB903250EE0E5
:10F3A00040F20120844228BF042508D2DFF82C183F
:10F3B00000200874FFF7DCFFDFF824088463284688
:10F3C00032BDF8B5DFF81868B26B0746F06B0D4632
:10F3D000012443199A4207D200F00BF90FF64811A5
:10F3E00000F000F903240FE030442A4639465C302F
:10F3F00001F0A8FEF06B2818F06306F140022946E0
:10F40000384602F025F830642046F2BDDFF8CC071C
:10F41000007C7047000000002DE9F84FA2B00646BE
:10F420000C46202591469846029500F073F800BFDF
:10F4300037A52F680397FFF769FFDFF8B417DFF8E8
:10F44000A877CF1BFF083F0447F003050FF6FC0128
:10F4500000F0A0F83CB90FF61C1147F0020001F0D3
:10F46000A6FC132050E02EB10FF61C1100F092F80C
:10F47000162049E02C9E0FF628113246284601F04E
:10F4800099FC02A8DFF870A7DFF8781701900AF15D
:10F490008C0BCDF800B03346424604A802F03AF88F
:10F4A00000280CBFB9F1400F0A202DD1402221467F
:10F4B0000AF14C0001F046FE0FF6001100F06AF868
:10F4C00020210AF14C0001F012FF40200AF14C010A
:10F4D000019000915A46029B0AF1040103A802F030
:10F4E0002DF860B102460FF6E80147F0010001F087
:10F4F00061FC01F079FC0028FBD1052004E00FF647
:10F50000F40100F047F8012023B0BDE8F08F0000BF
:10F510000000000004A8782101F098BAF8B500F1C5
:10F520005506DFF8CC36DFF8C0560F2400225D1BED
:10F5300033785830ED082D04002B12BF042B077BC5
:10F54000012F45F0010504D10269EAB10A600124E6
:10F550001EE0DF0703D57678012E08BF02689B07FF
:10F56000F3D50679012EF0D18068DFF89C36C3F51B
:10F57000FC23834228BF8218E7D202460FF684019B
:10F58000284601F01DFC04240FF6980100F002F853
:10F590002046F2BD284601F00ABC018A19B1406933
:10F5A00010B1012000E00020C0B2704770B50C46D9
:10F5B0001546FFF7F2FF0126030018BF01230022C2
:10F5C0000021204602F038F838B100F012F80FF6AA
:10F5D000880100F007F8042602E002F01BF828601A
:10F5E000304670BD801AC008000440F0010001F0F0
:10F5F000DEBBDFF8FC05DFF8F025704738B5DFF833
:10F60000E44594F86C31251D0020002100223BB117
:10F6100004F5367204F5B8751078528804F5377120
:10F62000DFF8B8359C695B690094FFF7F5FE0128A7
:10F63000044603D1281D02F0FBF80446012C0AD031
:10F64000FFF7D7FF0FF62C01801AC008000440F026
:10F65000020001F0ACFB204632BDF8B504460D4671
:10F66000DFF88C05DFF88065861BDFF87405C16B59
:10F67000826BF6083604914246F0010606D00FF67A
:10F680000C01304601F093FB082631E0DFF84C75A1
:10F69000387C40B101F0BEFF20602946F869FFF7D1
:10F6A0003DFF064624E0FFF7CAFDD8B1FFF7A6FFED
:10F6B000064600202060012E286004D1F869294602
:10F6C000FFF72CFF0646012E05D12968F86922466E
:10F6D000FFF76CFF0646012E08BF3E7408D0FFF707
:10F6E00047FE05E00FF2C071304601F060FB0526D1
:10F6F0003046F2BD2DE9F843AAB080460E462027D9
:10F7000091461C4602970CA8FFF705FFFFF7FEFD88
:10F71000012534B12022414603A801F0C3FD0DF1BB
:10F720000C0802A8DFF8E444DFF8D8140190009434
:10F730004B4632460CA801F0EDFEDFF8B414DFF8BA
:10F74000A8648E1BF608360438B102460FF27871B1
:10F7500046F0010001F02EFB0FE02022414620463A
:10F7600002F09EF950B10FF2947146F0020001F0E0
:10F770001EFB01F039FB0028FBD1002528462BB0E9
:10F78000BDE8F08370B504000D46164605D10FF2B2
:10F7900014514FF42E7001F065FD3246294604F1F4
:10F7A0007200BDE870400123A4E738B54FF4405221
:10F7B00000F50051091D5468DFF8543409689C4273
:10F7C0000CD10025994232D111781529A3BF516976
:10F7D000DFF84024B1FBF2F3002304E0994214BFA8
:10F7E0000025012523E000F500510A78152A08DBE1
:10F7F00000F500501430DFF81C140068B0FBF1F085
:10F8000000E00020009083421ABF01250FF24872E9
:10F810000FF24C72DFF8D803DFF8CC430FF2F86137
:10F82000001BC008000440F0030001F0D1FA284694
:10F8300032BD00002DE9FC42A2B005460F4620244F
:10F84000164699460294FFF765FE4121284602F0CC
:10F850005BF944207043B7F89420391801F19603FE
:10F86000964234BF18782B982870DFF87C63DFF855
:10F8700080032A782A9F861BF6083604032A46F05E
:10F88000010648462ED8DFE802F0080210270022C1
:10F89000394601F0DDFDC5F801003A4649462846E3
:10F8A00000F014F924B0BDE8F0826A1C02A90092AD
:10F8B000019102463B46DFF84C1304A801F02AFEF2
:10F8C0000028EAD002F024F902460FF2CC7130464B
:10F8D00001F070FA0020E5E75A889A31681C01F0BF
:10F8E00031FCDAE70FF2E471F1E7F0B5044693B0CA
:10F8F00094F855000D4616461F4628B10FF2A43164
:10F9000040F22F3001F0AEFC0121019100962B4610
:10F9100000F0D8F8D8B1CFB1B14D412202A905F21B
:10F92000A12001F00FFC0120E8620021296220469D
:10F93000FFF733FE08B901F035FE04F192010878B3
:10F94000002819BF487800286068A860012013B01B
:10F95000F0BD2DE9F047A4B004460D462C9F90461B
:10F96000994613A8442101F071F802A8442101F03E
:10F970006DF858EA05004E4605D10FF2283140F2E5
:10F98000693001F06FFC9A499748081AC0080004D2
:10F99000290040F0020A4ED009F500531B1D9C4976
:10F9A0001B68A26D8B4240F0010018BF0FF2B851E6
:10F9B00027D109F50053083302F5F85E521E1B6883
:10F9C0000EF1FF0EC2F30B02AEEB0202934238BF00
:10F9D0000FF2E85115D34FF4405253688B4213D1C4
:10F9E00011781129ACBF1169002109F50052137873
:10F9F000112BA6BF103212680022914204D00FF2E0
:10FA0000286101F0D4F920E04846FFF7CEFE20B18E
:10FA10000FF2DC61504601F0CAF9012001904B461B
:10FA2000A16D00910022214613A8FFF703FF60B1EA
:10FA3000A06D86193F1A5FEA080010D000200190DF
:10FA40000097334600F03EF808B9002037E09DF8F3
:10FA5000080020B10FF2DC61504601F0A8F92D98A2
:10FA600060B35F4EB5B14846FFF79FFE18B106F18F
:10FA7000180001F08DFD412213A906F5187001F060
:10FA800071FB5FEA080014BFAC20A520F062A06DF6
:10FA9000706301E0AA21F162B8F1000F0ED041229B
:10FAA00002A906F2E22001F04DFB04F19201087870
:10FAB000002819BF487800286068F060012024B051
:10FAC000BDE8F0870022214602A8B3E61CB50C462B
:10FAD00011460278032A1BD8DFE802F0060208105C
:10FAE0000022204601F0B4FC012016BD0A46214642
:10FAF00002B0BDE810400023401CFBE50091234606
:10FB0000411C40220020FFF787FC012806D004E0BA
:10FB100064A140F2E13001F0A5FB002016BD2DE903
:10FB2000FE4F2E4B2E4DD3F81C9082460E461746A4
:10FB30003246514648460124FFF724FEA04648B904
:10FB40001724A046002F39D1B8F1010F33D101207D
:10FB500068612DE099F855204AB93B463246514636
:10FB60004846FFF7C2FE0028ECD10524E9E702F081
:10FB7000010B520801970096534602F001025946C4
:10FB80004846FFF7E6FE0028DCD105249FB1BBF113
:10FB9000000F05D001F04CFD824508BF01F002FDC9
:10FBA00005F1240001F0F4FCFFF7E2FBC5F848A0E2
:10FBB0002046BDE8FE8FFFF7DBFBF9E7B8F1010F48
:10FBC000EED100223146504601F042FCA8626E623E
:10FBD000EAE70122A3E7000028850700E0390020BA
:10FBE0000826002030310020048C070001F20600B6
:10FBF0003C8C070048860700B03700203C8D07008A
:10FC000094900700508F070000F00600003A002093
:10FC1000DBE5B15140420F0048616E646C65723A99
:10FC200020496E76616C69642070726F746F636FC7
:10FC30006C20627566666572206D5F70625F7374BA
:10FC40007265616D0000000048616E646C65723A17
:10FC500020496E76616C696420696E697420636FF7
:10FC60006D6D616E642E000048616E646C65723A61
:10FC700020496E76616C69642070726F746F636F77
:10FC80006C20627566666572206D5F70625F73746A
:10FC90007265616D2028696E697420636F6D6D6196
:10FCA0006E642900433A5C53687572655F53564E23
:10FCB0005F7265706F5C50726F6A656374735C54D9
:10FCC00061697368616E5C6E52463532426F6F7463
:10FCD0005C6272616E636865735C626C655F7570AF
:10FCE000646174655F746573745F62656E5C636F95
:10FCF0006D706F6E656E74735C6C6962726172694F
:10FD000065735C626F6F746C6F616465725C64666E
:10FD1000755C6E72665F6466755F76616C6964615E
:10FD200074696F6E2E630000496E697420636F6D95
:10FD30006D616E64206C6172676572207468616EBB
:10FD40002065787065637465642E00005369676E82
:10FD500061747572652072657175697265642E20B3
:10FD6000436865636B696E67207369676E6174755C
:10FD700072652E004E6F207369676E6174757265CF
:10FD800020666F756E642E00496E76616C69642022
:10FD90007369676E617475726520747970650000AF
:10FDA00043616C63756C6174696E67206861736828
:10FDB00020286C656E3A202564290000566572691A
:10FDC0006679207369676E61747572650000000062
:10FDD0005369676E6174757265206661696C6564EC
:10FDE00020286572725F636F64653A2030782578E9
:10FDF00029000000496D6167652076657269666952
:10FE000065640000424C2073697A652028256429C6
:10FE1000206F766572206C696D69742028256429CD
:10FE200000000000496E6974207061636B65742086
:10FE3000646F6573206E6F7420636F6E7461696E9A
:10FE40002076616C6964206669726D7761726520E5
:10FE500073697A650000000043616E27742066694B
:10FE60006E6420726F6F6D20666F722075706461B2
:10FE70007465000050726576616C69646174696FC5
:10FE80006E206661696C65642E00000045786563CC
:10FE90007574652077697468206661756C74792063
:10FEA0006F666673657400004661696C65642074F2
:10FEB0006F206465636F646520696E69742070618A
:10FEC000636B657400000000436F756C64206E6F97
:10FED000742072756E206861736820766572696639
:10FEE00069636174696F6E20286572725F636F6405
:10FEF000652030782578292E00000000486173685D
:10FF000020766572696669636174696F6E206661E7
:10FF1000696C65642E000000536F667444657669F1
:10FF200063652075706461746520697320612025A4
:10FF3000732076657273696F6E2075706461746585
:10FF40002E2043757272656E743A2025642E204E01
:10FF500065773A2025642E006D616A6F720000009B
:10FF60006D696E6F7200000054686520536F66748F
:10FF700044657669636520646F6573206E6F7420D5
:10FF8000636F6E7461696E20746865206D61676966
:10FF900063206E756D626572206964656E74696652
:10FFA00079696E67206974206173206120536F66E0
:10FFB000744465766963652E00000000546865200E
:10FFC000536F66744465766963652073697A65204A
:10FFD000696E2074686520696E666F20737472752F
:10FFE000637420697320746F6F20736D616C6C2073
:10FFF000636F6D70617265642077697468207468DE
:020000040007F3
:10000000652073697A65207265706F72746564200B
:10001000696E2074686520696E697420636F6D6D08
:10002000616E642E00000000546865206E657720C4
:10003000536F6674446576696365206973206F66E3
:10004000206120646966666572656E742066616D04
:10005000696C79207468616E2074686520707265BF
:1000600073656E7420536F66744465766963652E9C
:1000700020436F6D7061746962696C697479206383
:10008000616E6E6F742062652067756172616E7457
:100090006565642E000000006E72665F63727970A1
:1000A000746F5F686173685F63616C63756C6174C2
:1000B000652829206661696C656420776974682009
:1000C0006572726F7220257300000000496E7661C0
:1000D0006C696420626F6F742076616C696461740E
:1000E000696F6E20747970653A2025640000000005
:1000F000496E76616C69646174696E6720617070C5
:100100002062656361757365206974206973206975
:100110006E636F6D70617469626C65207769746875
:100120002074686520536F66744465766963652E34
:1001300000000000426F6F742076616C6964617426
:10014000696F6E206F6620626F6F746C6F6164659B
:1001500072206973206E6F7420737570706F727483
:10016000656420616E642077696C6C20626520692B
:10017000676E6F7265642E0010B543689C1844600A
:1001800041B103E013F8010B01F8010B1046421EC8
:100190000028F7D1012010BD38B584B004461546BB
:1001A00069B920681D4A904209D000E0103D102D29
:1001B00015D9102200F0C1F80028F7D10DE0A06891
:1001C000A84238BF002008D323682A462046984713
:1001D00018B1A068451BA560012005B030BD2A46B6
:1001E00000F0ABF8F9E710B50446A06840B1236809
:1001F00001222046984718B1A068401EA060012047
:1002000010BD1FB5019102920023044C039300948A
:100210006946102200F0A6FF1FBD0000790107000B
:10022000F8B50C4605466946FFF7DDFFE0B19DF8DD
:100230000000010603D4064626600120F2BD072710
:1002400000F07F0669462846FFF7CDFF60B19DF8B4
:10025000000000F07F00B84006439DF80000FF1D3D
:100260000106E9D5202FEDD30020F2BD2DE9FC4198
:100270000E46002700240025804669464046FFF7C9
:10028000B2FF80B19DF8000000F07F0000213A46E7
:1002900001F0F8FC9DF8002004430D43FF1D1006FB
:1002A00003D5402FE9D3002002E0C6E90045012034
:1002B000BDE8F681F8B516461C460D4600222270B0
:1002C0002A703260074600F053F828B9B86808B9B8
:1002D000012121700020F2BD009810B90121217088
:1002E000F2BDC00830600120009901F007012970BB
:1002F000F2BD1CB5044631B101290ED002290ED041
:10030000052913D017E0012200F017F8A0B19DF8DD
:1003100000000106F7D4012016BD082207E000F016
:1003200027F848B1009A0021204601E0042200216C
:10033000FFF732FF16BD002016BD694620462BE7A9
:1003400038B50D46044600F013F880B12846214622
:10035000102200F007FFA8680099884201D200200F
:1003600032BDA9600098A168091AA160012032BDC0
:10037000694655E72DE9FF4104461646084671686F
:100380000FF2A4658A7802F00F0355F8238012F06B
:10039000300709D0102F04D0202F07D0302F36D0AF
:1003A0004AE0706901230370326942E0022822D1D9
:1003B000042B20DC756969462046FFF7C1FF012741
:1003C00018B93AE02888401C2880029868B1716802
:1003D00028884A89904208D20A89336950431A18FA
:1003E0006846C0470028EDD1002701986060029858
:1003F00010BB384621E0736932691F880E8948892D
:100400007E438742324417D27F1C1F8011E07369FC
:100410000888188002F00F02072A08D1098930697C
:1004200001F072FB70683169C06800F0FEF8326953
:1004300071682046C04700E0002004B0BDE8F081AC
:100440002DE9F841144687B025690646286818B991
:100450003046FFF74EFF3DE0022911D16946304694
:10046000FFF76EFFD8B161682B682A1D6846984770
:10047000A8B102980028F6D101987060012029E007
:10048000E84671B1012903D0052908D1042700E00D
:1004900008273A4669463046FFF77EFE80B90020BD
:1004A00018E000277F1C0B2FF9D20122414630466D
:1004B000FFF772FE0028F2D018F8010B0106F1D404
:1004C0003A46694603A8FFF79CFE61682B682A1D1F
:1004D00003A8984708B0BDE8F08110B553689C7830
:1004E00014F0C00402D0402C03D005E0BDE8104059
:1004F00040E7BDE81040A3E7002010BD70B50D46F1
:100500000446286886686A683146204601F0CBFBBD
:100510006868206105F10C016161B07800F0C000ED
:10052000802804BF281D206170BD2DE9F84386B0E6
:1005300006461869B76804688946904600E0A468D2
:10054000ECB1B06887421AD1206805682DB14346E6
:100550004A4621463046A8470EE080680188494552
:10056000EDD121466846FFF7C9FF012020736A4696
:1005700041463046FFF7B1FF0028E0D100E00120FE
:1005800007B0BDE8F08310B586B04268937803F0F9
:100590000F0108290ED100690468002C43D0002205
:1005A000227321466846FFF7A9FF6846FFF7EBFF75
:1005B000A468F2E713F0C00127D103F03004102C37
:1005C0000DD1436919709178D368006901F00F016A
:1005D000072910D10146184600F027F823E003F060
:1005E000300120291CBF03F03003302BEBD14069D0
:1005F0000021018017E0118923B10A46194600F055
:10060000A1FD10E001F080FA0DE080290BD1016915
:10061000002203F030040A60202C19BF03F03003DD
:10062000302B4069028006B010BD80B50A4686B006
:100630000146684601F037FB38B16846FFF7A3FF73
:10064000684601F043FB0028F7D107B000BD2DE953
:10065000F0418AB002AB0024C3E90044054604A877
:1006600001F021FB00274FF0FF360DF10808A868C4
:10067000002837D00DF1010301AA69462846FFF78B
:1006800019FE58B3019904A801F060FB00283FD17E
:100690000198B8421CD3059C0598817801F00F01A0
:1006A000082933D004A801F011FB0598A042F3D12A
:1006B00037460199B9420BD3AC689DF8002004ABD2
:1006C0002846FFF732FF002857D0A8688442CED1D1
:1006D0009DF800102846FFF70CFE3AE09DF8010057
:1006E00000284AD005988578069C04A801F0EEFA07
:1006F0000028F7D115F0300F03D10599088800B113
:10070000641C002C3BD0002061092BE00788D0E757
:100710000598817811F0300F0DD1069840280AD243
:10072000410958F82120012300F01F0003FA00F0CE
:10073000104348F82100EC682CB19DF80020019985
:1007400004AB2846A0479DF8001004AA2846FFF7EE
:10075000C4FE00288BD110E058F8202012F1010FC0
:100760000BD1401C8842F7D304F01F0458F8210035
:10077000C4F12004E640B04201D0002000E0012096
:100780000AB0BDE8F08170B504460D461646314604
:100790002846FFF74AFF324629462046BDE870400A
:1007A00055E73EB50C466946FFF760FD68B1DDE9E7
:1007B0000023DDE900015B084FEA3202C50744BFB0
:1007C000D243DB43C4E9002301203EBD1CB50C46E7
:1007D00004226946FFF7E0FC78B19DF800009DF81F
:1007E000011040EA01209DF8021040EA01409DF806
:1007F000031040EA01602060012016BD1CB50C46C4
:1008000008226946FFF7C8FCF0B19DF800209DF86A
:1008100001009DF8043042EA00229DF8020042EAFD
:1008200000429DF8030042EA00629DF8050043EA99
:1008300000239DF8060043EA00439DF8070043EAC1
:100840000063C4E90023012016BD3EB500F051F855
:1008500018B32A89DDE90001082A08D1C4E900019A
:10086000D4E900238B4215D1824215D012E0C11782
:10087000042A03D120600246D317F3E7022A03D1EA
:100880002080B4F90020F7E7012A03D1207094F901
:100890000020F1E700203EBD01203EBD3EB500F046
:1008A00028F828B3288908280AD1DDE90001C4E91D
:1008B0000001DDE90023994217D1904217D014E0DE
:1008C000042804D1DDE9000120600021F1E70228BD
:1008D00004D1DDE9000120802088F6E7012804D159
:1008E000DDE9000120702078EFE700203EBD012007
:1008F0003EBD0D4614466946B8E43EB50D46144665
:100900006946FFF74EFF38B3288908280AD1DDE988
:100910000001C4E90001DDE90023994219D19042A8
:1009200019D016E0042804D1DDE900012060C117C8
:10093000F1E7022805D1DDE900012080B4F90000CB
:10094000F5E7012805D1DDE90001207094F90000E8
:10095000EDE700203EBD01203EBD114636E71146C1
:100960004CE77CB50E4604461546FFF701FDC0B1C5
:100970000098B0F5803F0BD20099801C884207D3C5
:10098000B17801F0C001802902D03189814201D2C1
:10099000002076BD00982880A91C009A2046FFF709
:1009A000FBFB76BD7CB50E4605461446FFF7E0FC22
:1009B000B0B100980099401C884207D3B17801F08B
:1009C000C001802902D03189814201D2002076BD48
:1009D000009A21462846FFF7DFFB009A0021A15428
:1009E00076BDF8B50D4684B0EF6800F017F8002822
:1009F0001ABFE868002800200ED0A87800F0300068
:100A0000202832463946684602D1FFF7BCFE01E095
:100A1000FFF71DFE0199616005B0F0BD0446164662
:100A200069468DE4000000004B0807009D080700A0
:100A3000FB0807005B0907005F090700630907005F
:100A4000A5090700E309070000000000002200F0EC
:100A5000E5BCF0B40246106895681318506803EBC3
:100A60005004C0071DD54D441BE013F8017B05F869
:100A7000017B491EF9D1A0B1B60813F8011B06F09D
:100A80000306032E08BF13F8016B01EB0621494250
:100A9000801C294405D011F8016B05F8016B401E3C
:100AA000F9D1A3420ED013F8016B16F0030104BF75
:100AB00013F8011BC91C30090F28DAD113F8010BF8
:100AC0000F30D6E7F0BC02F10C00704780B5DFF8BC
:100AD000B40540F2FF31816000220260426041F2C1
:100AE00014010844426002600273DFF89C0501F0C3
:100AF00045F920B90FF2406001F044FA002002BD30
:100B000030B591B1DFF88425DFF884150568DFF88A
:100B10008435511A002200E0521CB2EBD10F06D2EC
:100B200033F82240AC42F7D10260002030BD0520EE
:100B300030BD01B56846FFF7E3FF28B9DFF8580577
:100B4000009950F8310002BD002002BD00000000F5
:100B5000491EDFF84425032902EBC0000BD8DFE86B
:100B600001F0020406080220704704207047007953
:100B70007047407970470020704702460020136894
:100B8000C3F380029AB103F00300012802D00228C7
:100B900007D00BE00A68C3F38310801C82180A6038
:100BA00004E008689B0D9B1C1B180B60012070471C
:100BB000F8B5DFF8D04441F2180084B0204401F0C9
:100BC00041FA41F214016518284601F03BFA6068C9
:100BD000A76800900026009904F10C00394000EB52
:100BE00081006946FFF7C9FF0028F4D101AB009AE4
:100BF00004F10C013A4000F0FFF9F8D90199BDF871
:100C00000A0001F0030101290AD0022910D101993B
:100C100006460098890DC91C00EB910000900DE07C
:100C2000064601980099C0F383104118009105E031
:100C30000FF274414FF4BF7000F014FB284601F02E
:100C400003FA08B100986060304605B0F0BD80B589
:100C50000021DFF8480401F09FF980F3100002BD85
:100C60002DE9F843894690461F460446FFF7EFFFFB
:100C70000646DFF81814DFF81804250C091AB5EB3E
:100C8000D10F05D30FF2204140F2A31000F0EAFA91
:100C9000E4000898DFF8EC1304F0380401F10C02CA
:100CA0007B1C44EA8814034045EA0645C4F3090462
:100CB00042F823500C3144EA8924074044F00104EF
:100CC00041F82740BDE8F1832DE9F0410F469046F9
:100CD000DFF8B0630446002001F0C2F930683860E4
:100CE000A51CB26831687068521C511A41F21C028E
:100CF0004118B7180FE00121384601F089F9FFF7D4
:100D000057FF0146384601F083F9B0683168401C4E
:100D1000411A70684118A942EDD3B8F1000F05D00F
:100D2000A40104F4707444F0050402E0A40544F046
:100D300006043168B068014006EB81020020D460EF
:100D400031686D18356001F09BF90120BDE8F08134
:100D50002DE9FE43DFF82C6304460D469046994684
:100D6000B768012201A94846FFF7AEFFA8B1019874
:100D7000801C002108E007EA000206EB820258F816
:100D80002130D360401C491C4945F4D300974A46A2
:100D9000019B29462046FFF763FF06F5815108783D
:100DA00018B100F021F80028FBD1BDE8F78300233B
:100DB0000022CDE780B50092012300F012F801BDBA
:100DC000E0B5009201936A460223FFF7C1FF07BD19
:100DD0001FB5069C009201930294032300F001F8D2
:100DE0001FBD6A46B4E700002DE9FF47A54E7068B5
:100DF0003168884225D041F21002B7180020B8604F
:100E0000BFF34F8F7068B468009006F10C00009932
:100E1000214000EB810005E006F10C0004EA01022C
:100E200000EB82006946FFF7A8FE002800F0C780AB
:100E3000B868002840F0C380306800998142EBD345
:100E400070600020B8E0019965F39F51019105F1B0
:100E5000080100F095FF5FEA000A4ED000F0D7FFCE
:100E600000F0C4F800982040641C241AA40006F185
:100E70000C01AC4201EB800119D234B9284606F1CD
:100E80000C014FF00008002503E0204606F10C0895
:100E90002D1BC4B208232246504601F019F8B8F1C0
:100EA000000F09D004F10803EAB2414601E008232B
:100EB0002A46504601F00CF8009809F1030100EBB6
:100EC0009100009039E0019901F00301012956D108
:100ED0000199019AC1F383110529C8BF062122F4A3
:100EE000707242EA811201920199C1F38311891C47
:100EF000890000F045FF5FEA000A40D000F087FF5C
:100F000000F074F84FF008094FF0000810E0009866
:100F1000411C009106F10C05204005EB80014B4679
:100F20000422504600F0D4FF09F1040908F1010839
:100F30000198C0F383108045E9D33C68B86870B16C
:100F4000504600F068FF2FE0E0684179012904D1A4
:100F500022681368514620469847E0680468002CD0
:100F6000F2D1504600F057FF002001F079F8B86840
:100F700008B900987060002001F082F814E03C6825
:100F800005E021688A6820469047E0680468002CE4
:100F9000F7D14348DFF8F82062A1801AC0080004A6
:100FA00040F00200FFF703FF7068316888420CBF11
:100FB0000120002080F0010004B0BDE8F08700208F
:100FC00001AB009A06F10C01224000F015F8F8D9A7
:100FD00001992D4801F0030102297FF474AF019DAE
:100FE000AD0DA946502DA8BF50252CE7002308229F
:100FF00001A9504600F06CBF51F8221043F82010B0
:10100000401C0099491C01280091704770B50146A9
:10101000002241F210031B4CE05800E0006888B148
:10102000C06805799542F9D1521C0A2AF4DB4FF0C9
:10103000FF3205E0C06806682E60E358D86801609A
:10104000104670BD12F1010FFAD0C8680271E05865
:10105000CD680028EED1E1502860F1E710B51148C5
:1010600004680121017408E0E16801224A71204608
:10107000226851688847E0680468002CF4D110BDEC
:1010800000000000E4150020F48F07006C8C0700BE
:10109000048C070000000000048C070000260020DC
:1010A000548C0700F4250020433A5C536875726540
:1010B0005F53564E5F7265706F5C50726F6A656306
:1010C00074735C5461697368616E5C6E524635324C
:1010D000426F6F745C6272616E636865735C626CB0
:1010E000655F7570646174655F746573745F626574
:1010F0006E5C636F6D706F6E656E74735C6C69624D
:101100007261726965735C6C6F675C7372635C6E4D
:1011100072665F6C6F675F66726F6E74656E642E69
:10112000630000004261636B656E647320666C75DA
:101130007368656400000000FC3800207F00000038
:10114000203A002062B38B0708D0521E11F8013BF1
:1011500000F8013B00F024808B07F6D1830740F0B4
:10116000208000BF103A07D330B4B1E83810103AED
:10117000A0E83810F9D230BC530724BFB1E80810FA
:10118000A0E8081044BF51F8043B40F8043BD207E4
:1011900024BF31F8022B20F8022B44BF0B780370D8
:1011A0007047121F17D35B0009D151F8043B20F898
:1011B000023B1B0C121F20F8023BF6D20BE051F849
:1011C000043B00F8013B1B0A20F8023B1B0C121FDA
:1011D00000F8013BF3D238BF121D521E24BF11F894
:1011E000013B00F8013BF8D8704730B4002513E00C
:1011F00050F8042BD30744BFA9F101039A18091F23
:10120000042942F8045BFAD213468C0744BF1580C8
:101210009B1CC90748BF1D7050F8041B0029E7D16B
:1012200030BC7047F8B50B480B4C0C4D0C4F041BF1
:1012300001202870002600E0761CB6EBD40F05D202
:1012400057F8360080470028F6D0F2BD02202870FB
:101250000020F2BD0000000000000000BD3A0020A8
:1012600000000000E0B5ADF8000001916A460021E1
:1012700044F2020000F07EFF07BDFEE738B504002F
:101280000D4603D11FA13320FFF7ECFF6019401E6C
:1012900005E02178027804F8012B00F80119A0423A
:1012A000F7D231BDF8B505000C46164615A703D197
:1012B00039464520FFF7D6FF1CB939464620FFF7CF
:1012C000D1FFA819401E03E014F8011B00F8011912
:1012D000A842F9D2F1BD70B504460D461646FFF797
:1012E000E1FF3246A919A019BDE87040DAE738B528
:1012F00004460D46FFF7C2FF29466019BDE8344099
:10130000BCE70000433A5C53687572655F53564E04
:101310005F7265706F5C50726F6A656374735C5462
:1013200061697368616E5C6E52463532426F6F74EC
:101330005C6272616E636865735C626C655F757038
:10134000646174655F746573745F62656E5C636F1E
:101350006D706F6E656E74735C6C696272617269D8
:1013600065735C63727970746F5C6E72665F6372D2
:101370007970746F5F7368617265642E630000003A
:1013800000B910E001B911E000220A6048600020B5
:10139000704700B907E00068884202D048F2405028
:1013A00070470020704748F21050704748F21350C1
:1013B000704700B9F7E7914202D048F211507047E8
:1013C0000020704748F20350F2BDF8B500F012F863
:1013D00078B904B913E0A879874200D012E00C482C
:1013E00000B9EFE72146304600F0D9FF08B90749B8
:1013F0003160F2BD05460E4614461F46C0E748F26E
:101400001050F2BD48F21150F2BD00007052464D2E
:101410009F23070062F30F2262F31F4200B500BF53
:10142000130096469446103928BFA0E80C50FAD80D
:101430005FEA417C28BF0CC048BF40F8042BC907B5
:1014400028BF20F8022B48BF00F8012B00BDFEE7A3
:1014500030B50346002A0EBF4FF0FF301068C0437E
:1014600000240BE01A5D50400822C50754BF002538
:10147000044D521E85EA5000F7D1641C8C42F1D312
:10148000C04330BD2083B8ED10B5040000D11CE08E
:1014900001B91DE061600968884710B91C482060E7
:1014A000002010BD10B500B90FE00368184CA3422E
:1014B00002D048F2025010BD01B909E00AB900207B
:1014C00010BD43685C68A04710BD48F2015010BDD4
:1014D00048F2105010BD38B510B948F2015032BD75
:1014E00003680B4CA34202D048F2025032BD11B93E
:1014F00048F2135032BD43681468DD68AC4202D232
:1015000048F2145032BD9B6801B0BDE83040184726
:101510006E52464870B5044615461E46FFF7B4FFA6
:1015200058B9324629462046FFF7BCFF28B9059A2C
:1015300004992046BDE87040CDE770BD2DE9FC411F
:1015400005460E46144698460F493046FFF721FFE0
:10155000C0B97068089F4279099952003846FFF770
:1015600028FF78B914B948F210500BE0074810B9B9
:1015700048F2035006E0009743462246314628468B
:1015800000F016FFBDE8F6817052464DB12307000A
:1015900000210022002380E80E005C49002008633F
:1015A0007047000010B543F204045949206888428E
:1015B00020D100235FF004028DA1204600F034FF0B
:1015C00060B15448DFF8502155A1801AC008BDE829
:1015D0001040000440F00100FFF7E9BB4B48016AEE
:1015E000012904BF0022026262688169A2F580526B
:1015F0005118816110BD43F20400454A01689142CF
:1016000007D1406800F6FF71401EC0F30B00081AB6
:1016100070470EE080B5FFF7EEFF3C4A916908186D
:1016200000F6FF73401EC0F30B00181A02BDE2E77C
:1016300000BF4FF4805070472DE9FE4F93461D4682
:1016400000240FF20018314E01908DF80010002791
:10165000B9461CB1022C19D00AD31AE0FFF7DAFF01
:1016600082465FEA0B000ED0306A01280BD10BE0F6
:10167000FFF7C1FF8246002D01BF43F2040001685D
:10168000234A914200D10127B94607E04FF4805A1E
:1016900004E04146AC20FFF7E5FDCA461F4FA7F521
:1016A0004057574503D24146B120FFF7DBFD019873
:1016B000A7EB0A01814201D2012003E09DF800104E
:1016C000002001B1012111EA090F05D0022C03DA33
:1016D000641CE4B2022CBADD60B10E48DFF8382099
:1016E00038A1801AC008000440F00200FFF75FFB39
:1016F000042009E0022CA8BFFFF754FF1CB106F13B
:101700001800FFF745FF0020BDE8FE8F08260020E7
:10171000DBE5B151548C0700048C070000F0060093
:10172000436F756C64206E6F7420696E76616C69AE
:101730006461746520536F66744465766963652ED1
:1017400000000000433A5C53687572655F53564E63
:101750005F7265706F5C50726F6A656374735C541E
:1017600061697368616E5C6E52463532426F6F74A8
:101770005C6272616E636865735C626C655F7570F4
:10178000646174655F746573745F62656E5C636FDA
:101790006D706F6E656E74735C6C69627261726994
:1017A00065735C626F6F746C6F616465725C6466B4
:1017B000755C6E72665F6466755F7574696C732EB6
:1017C0006300000041626F7274696E672E2043618E
:1017D0006E6E6F7420666974206E6577206669721C
:1017E0006D77617265206F6E206465766963650050
:1017F00000000000F0B500230024614F8C4214DA91
:1018000043F204052E68BE4202BF50F824602D89C1
:10181000AE4209D0150005D050F824504FF6FE76A0
:10182000B54201D0641CE9E701231846F0BD000071
:101830002DE9F843044601250FF254181CB941461E
:10184000C420FFF70FFD4F494F4FCF1B04F1540643
:10185000FF083F04307847F00109E8B170780028AC
:1018600018BF012803D0022818BF032814D11CB9BF
:101870004146A320FFF7F6FCB07E03280ED104F109
:101880009201087800281CBF487800280BD1207AE4
:1018900050B900BF6BA16CE05FA16AE064A148464B
:1018A000FFF785FA142568E0E068342847F002075E
:1018B00006D000BF67A13846FFF779FA11255CE032
:1018C0001CB941465320FFF7CDFC43F204002C4BDA
:1018D0000268218A9A421AD161B17278606978B13E
:1018E000042A0CBF01220022C9B204F11400FFF740
:1018F00081FFA0B95CA13846FFF759FA12253CE0F8
:1019000012B902290BDBEFE7012A08D1F2E700291F
:101910001CBF60690028EDD121780029EAD0207829
:1019200010B354B94146DB20FFF79CFC002001783E
:1019300019B94146DC20FFF795FC7078134900285F
:1019400018BF012804D0C8686168884206D214E034
:1019500088686168884210D381420ED046A138461B
:10196000FFF725FA102508E07078012805D000BFA0
:1019700046A14846FFF71BFA0F252846BDE8F2832B
:10198000DBE5B151448C0700048C070008260020D9
:10199000433A5C53687572655F53564E5F7265706B
:1019A0006F5C50726F6A656374735C5461697368CD
:1019B000616E5C6E52463532426F6F745C6272616A
:1019C0006E636865735C626C655F75706461746595
:1019D0005F746573745F62656E5C636F6D706F6E6C
:1019E000656E74735C6C69627261726965735C6266
:1019F0006F6F746C6F616465725C6466755C6E7247
:101A0000665F6466755F7665725F76616C69646156
:101A100074696F6E2E630000496E76616C69642094
:101A20006669726D7761726520747970652E000049
:101A3000496E76616C69642068617368207479709E
:101A4000652E00004E6F2048572076657273696FCF
:101A50006E2E00004661756C7479204857207665BB
:101A60007273696F6E2E0000534420726571206E90
:101A70006F74206D65742E00465720766572736909
:101A80006F6E20746F6F206C6F772E004657207634
:101A9000657273696F6E206D697373696E672E006E
:101AA0000300002013F0030F09D0521E22BF13F8C9
:101AB000010B11F801CBB0EB0C00F3D0704711F023
:101AC000030F14D1121F22BF53F8040B51F804CB9B
:101AD0006045F7D0121D0AD200BA9CFA8CFCB0EB1C
:101AE0000C0038BF6FF0000088BF01207047521E05
:101AF00022BF13F8010B11F801CBB0EB0C00F6D0AC
:101B0000521C08BF10467047002200F001BDFEE7DE
:101B100080B500F004F808B90FF23C0002BD10B522
:101B20000FF2480101F58C7200E01A4691420FD283
:101B3000531ADB1003EBD3735B1001EBC3031C6878
:101B4000A042F2D3844238BF03F10801EED301E092
:101B5000002010BD586810BD556E6B6E6F776E20FB
:101B60006572726F7220636F646500000000000090
:101B7000F079070001000000FC7907000200000076
:101B80001C7A070003000000407A070004000000F0
:101B9000547A070005000000687A0700060000007C
:101BA0007C7A070007000000947A07000800000014
:101BB000AC7A070009000000C47A07000A000000A0
:101BC000E07A07000B000000F87A07000C00000024
:101BD000107B07000D000000247B07000E000000B2
:101BE000387B07000F000000487B07001000000052
:101BF0005C7B070011000000747B07008000000080
:101C0000847B070081000000A87B070082000000A1
:101C1000C47B070083000000E07B07008400000015
:101C2000007C070085000000247C0700860000007F
:101C30004C7C070090000000647C070091000000CD
:101C4000847C070092000000A47C07000082000052
:101C5000BC7C070001820000DC7C070002820000DF
:101C6000F87C070000840000147D07000184000058
:101C7000387D070002840000647D070003840000B3
:101C80008C7D0700D2B2203A22BF00FA02F1002078
:101C900070475242D041D2F1200291404140D040A1
:101CA00090404140704710B501604160C260002122
:101CB000816041688B881A440261B1F90640224470
:101CC0004261088800B10120C0B210BD70B5436800
:101CD0001A46118839B110334360198829B9C2688E
:101CE0000168FFF7E0FF002070BD917814890D4670
:101CF00005F03006302E02BF9E7806F03006302EFA
:101D000006D1958801696D420D44002405610BE000
:101D100001F0F001202902D151894C4304E005F083
:101D2000C005802D08BF0424917811F0300F02D136
:101D30008168491C816001699A88214411440161CC
:101D4000B3F9063019444161012070BD70B50446F5
:101D50000D46666860680188A94204D1807800F069
:101D60000F00082807D12046FFF7B0FF6068B04297
:101D7000F0D1002070BD012070BDFEE700F0F8BB7F
:101D80002DE9F04105460F462E8A00F02DFC361F46
:101D9000040021D0F71900200121FF1C207161717E
:101DA000A046B7FBF6F7E680FFB27F1EC8F80050EA
:101DB000002607E06179491C6171C8F800000560E0
:101DC0008046761CBE4209D2284600F00DFC002851
:101DD000F0D1204600F005F8002000E02046BDE8E4
:101DE000F081F8B501460D464C79601E002200E0F6
:101DF000521C2D688242FBD3002605E00F6828465E
:101E000000F01EFC3946761CA642F7D3F1BD012135
:101E1000001D00F0FDB81CB504460121201D00F096
:101E200003F900909DF8000018B92046BDE816405F
:101E3000D7E713BD2DE9F0470400894690461E46BA
:101E40000FF2CC0A03D15146B620FFF70BFAE58812
:101E5000607945432D1FAE42274603D35146C42027
:101E6000FFF700FA4246B4F8068014683319311DB2
:101E70009D42B1FBF8F038BFAC1B08FB1011146099
:101E8000002801E03F68401EFCD10025A8EB0100BE
:101E9000A246844288BF8246089E0846ACB13844B8
:101EA000001D09EB0503310052460EBF19460146DD
:101EB0001846FFF747F900203F68A4EB0A04554491
:101EC0004445A246EAD9C246E8E7BDE8F0870000EB
:101ED0003EB51446002500F017F80198A04203D043
:101EE0000BA1F620FFF7BEF937BD00003EB5144642
:101EF000012500F009F80198A04204D004A14FF494
:101F00008070FFF7AFF937BD0194009501AA91E702
:101F1000433A5C53687572655F53564E5F726570E5
:101F20006F5C50726F6A656374735C546169736847
:101F3000616E5C6E52463532426F6F745C627261E4
:101F40006E636865735C626C655F7570646174650F
:101F50005F746573745F62656E5C636F6D706F6EE6
:101F6000656E74735C6C69627261726965735C6DD5
:101F7000656D6F626A5C6E72665F6D656D6F626AD9
:101F80002E63000080680021816001614161C160B1
:101F9000416001607047FEE710B5024652E8000F4D
:101FA0000C4642E8004393F0000FF7D110BD00004B
:101FB00010B5024652E8000F40EA010442E800432F
:101FC00093F0000FF6D110BD10B5024652E8004F55
:101FD00044EA010042E8000393F0000FF6D110BD7F
:101FE00010B5024652E8000F00EA010442E800433F
:101FF00093F0000FF6D110BD10B5024652E8004F25
:1020000004EA010042E8000393F0000FF6D110BD8E
:1020100010B5024652E8004F04EB010042E800030D
:1020200093F0000FF6D110BD10B5024652E8004FF4
:10203000A4EB010042E8000393F0000FF6D110BDBD
:102040000121B5E70121BFE70021C9E70021D3E75E
:1020500018490868401E086000D162B67047000049
:1020600080B500F01AF8012804D000BF12A1432067
:10207000FFF7F8F872B60F480168491C016001BD0E
:1020800080B500F00AF8012804D000BF0AA1512051
:10209000FFF7E8F8BDE80140DAE7EFF30580C00597
:1020A00006D1EFF3148000F0010080F001007047CA
:1020B00001207047603A0020433A5C5368757265AE
:1020C0005F53564E5F7265706F5C50726F6A6563E6
:1020D00074735C5461697368616E5C6E524635322C
:1020E000426F6F745C6272616E636865735C626C90
:1020F000655F7570646174655F746573745F626554
:102100006E5C636F6D706F6E656E74735C6C69622C
:102110007261726965735C7574696C5C6170705F23
:102120007574696C5F706C6174666F726D2E63009C
:1021300010B5FEF793FFFEF757FE0028FBD164248D
:1021400093A14FF47A4041F001018847641EF7D112
:102150004E480168CA0700D500BEBFF34F8F4C49F7
:102160004C480A6802F4E06202430A60BFF34F8FF2
:1021700000BFFDE71CB500924FEA000200F008F82E
:102180004AA140F00100FEF723FEBDE81340CFE76F
:102190004148424C001BC0080B4600047047000039
:1021A00002463D48DFF8F4304EA1C01A80B5C008A1
:1021B000000440F00100FEF7FDFDBDE80140B7E777
:1021C00080B528B1012811D0052818BF072814D1DF
:1021D000012000F0F7FA002000F0CEFA012000F014
:1021E000CBFABDE80240022000F0D4BA00F0D2FAE7
:1021F000BDE80240022000F0BFBA01BD38B500F0D2
:1022000077FB00224FF48051002000F08DFB08B1D5
:10221000FFF7C6FF22480022C0F5FC2100F084FB36
:1022200008B1FFF7BDFF00211E481C4CFEF74EFC15
:1022300000F07CFCDFF8600031A1041BE4082404FA
:1022400044F003052846FEF7B2FD00BF36A128463C
:10225000FEF7ADFD3BA12846FEF7A9FD124800F0B0
:102260007DFD08B1FFF79CFFFEF7BEFD0028FBD106
:102270003BA144F00100FEF79AFDFEF7B5FD0028F2
:10228000FBD1FFF78DFF002032BD0000F0ED00E034
:102290000CED00E00400FA05548C0700048C0700E4
:1022A00000F00600693D0700C12107005265636523
:1022B000697665642061206661756C7421206964AB
:1022C0003A203078253038782C2070633A203078E6
:1022D000253038782C20696E666F3A2030782530AA
:1022E00038780000526563656976656420616E2008
:1022F0006572726F723A203078253038782100008C
:102300006465627567206D6F646520776974682005
:10231000525454206F757470757420697320656E03
:1023200061626C6564210A006E5246353220426F4C
:102330006F746C6F6164657220444655206D6F64E4
:1023400065210A004C4F47206465627567206C6503
:1023500076656C20697320494E464F210A000000C3
:102360004166746572206D61696E2C2073686F75AB
:102370006C64206E657665722062652072656163AB
:102380006865642E000000000000000000000000EE
:102390000338FDD87047000040688168084780B561
:1023A000426852790830FEF796FF002002BDFEE732
:1023B0002DE9F04399B00C46209F00F020F86668A4
:1023C00005467079814588BF81464A46414611A835
:1023D000FEF768FF7279394601A8FEF77CFF009589
:1023E00001AB4A4611A904F1080000F019FE0028CB
:1023F0000CBF48F24250002019B0BDE8F08390466F
:1024000099462046FFF7C8BF1E4A116809B1491E08
:102410001160416900291CBFC0680847704700224D
:1024200019491A4800F064BF1CB5009313460A46C8
:102430000146164800F072FF040002D100F01DF8BA
:1024400005E01348DFF84C3017A100F025F82046CE
:1024500016BD0000134610B50A4601460B4800F0B1
:10246000ACFF040002D100F008F804E00848094B72
:1024700019A100F011F8204610BD02480168491C5E
:1024800001607047A43A0020608E070048050020D4
:10249000148C0700048C0700C01AC00800042246F0
:1024A00040F00200FEF786BC6E72665F6673746F62
:1024B000726167655F777269746528292066616952
:1024C0006C65642077697468206572726F72203061
:1024D0007825782E000000006E72665F6673746F58
:1024E000726167655F65726173652829206661693D
:1024F0006C65642077697468206572726F72203031
:102500007825782E0000000062F30F2262F31F424C
:10251000401810F0030308D0C91A1FD3DB0748BFC7
:1025200000F8012D28BF20F8022D130030B4144606
:102530001546103928BF20E93C00FAD8490728BFC2
:1025400020E90C0048BF40F8042D890028BF20F87E
:10255000022D48BF00F8012D30BC7047C91818BFC4
:1025600000F8012DCB0728BF00F8012D7047FEE7CA
:1025700038B5040001D10E2032BD206844A518B939
:102580002946FF20FEF76EFE606820B929464FF409
:102590008070FEF767FEA06820B9294640F201105E
:1025A000FEF760FEE06820B929464FF48170FEF71F
:1025B00059FE208A20B9294640F20310FEF752FE48
:1025C00022686168A0681160401A03E00A68531C21
:1025D0000B6010700246501ED2B22168002AF5D15D
:1025E0000020087132BD000070B5040028A604D197
:1025F000314640F22510FEF735FE0020FFF730FD92
:1026000020686268016800258A4214D2491E016070
:102610000D781CB93146E820FEF724FE208AE168D7
:10262000A2684543206803790D440168511A994214
:1026300038BF194601710020FFF722FD284670BD02
:10264000F8B504000D4600BF11A704D139464FF478
:10265000A470FEF707FE25B9394640F24910FEF78F
:1026600001FE0020FFF7FCFC20680668711C016079
:102670001CB93946F520FEF7F5FDE068218A2D1AD0
:10268000B5FBF1F131700020BDE8F240FFF7F8BC76
:10269000433A5C53687572655F53564E5F7265705E
:1026A0006F5C50726F6A656374735C5461697368C0
:1026B000616E5C6E52463532426F6F745C6272615D
:1026C0006E636865735C626C655F75706461746588
:1026D0005F746573745F62656E5C636F6D706F6E5F
:1026E000656E74735C6C69627261726965735C6259
:1026F000616C6C6F635C6E72665F62616C6C6F6361
:102700002E63000080B50068202804D340A140F269
:10271000CD10FEF7A7FD4FF0A04002BD2DE9F1411D
:1027200081B0089D099C0E461746984601A8FFF700
:10273000E9FF46EA4706019946EA880646EA052681
:1027400000EB810046EA0446C0F80067BDE8F3816B
:102750001CB5012400900029684606D1FFF7D2FF7E
:1027600000998C40C0F80C4513BDFFF7CBFF0099D2
:102770008C40C0F8084513BD10B50446042C03D3A3
:102780003FA14120FEF76EFD57A0005DBDE810405F
:102790000021DDE710B50446042C03D338A14720FF
:1027A000FEF760FD50A0005DBDE810400121CFE7BD
:1027B00010B500242046FFF7EDFF641C042CF9D36C
:1027C00010BD0000FEB50446E00710D55FF000051F
:1027D00045A60027019700970023705D0122012183
:1027E000FFF79CFF6D1C042DF4D3FFF7E1FFA0075A
:1027F0000DD500243DA50020019000210091032368
:10280000285D0022FFF78AFF641C042CF3D3F7BD78
:10281000433A5C53687572655F53564E5F726570DC
:102820006F5C50726F6A656374735C54616973683E
:10283000616E5C6E52463532426F6F745C627261DB
:102840006E636865735C626C655F75706461746506
:102850005F746573745F62656E5C6275696C645CFD
:102860002E2E5C6D6F64756C65735C6E7266785C41
:1028700068616C5C6E72665F6770696F2E680000DD
:10288000433A5C53687572655F53564E5F7265706C
:102890006F5C50726F6A656374735C5461697368CE
:1028A000616E5C6E52463532426F6F745C6272616B
:1028B0006E636865735C626C655F75706461746596
:1028C0005F746573745F62656E5C636F6D706F6E6D
:1028D000656E74735C626F617264735C626F617267
:1028E00064732E6300000000111213140D0E0F10FC
:1028F00080B540F6F870016811F1010F04BF094975
:1029000000F025FE40F6F871486810F1010F07D17C
:10291000BDE804404FF4FC2140F6FC7000F017BE07
:1029200001BD000000F0060030B50A0502D13B4BA6
:10293000984201D3072030BD000B491E00EB113136
:10294000374A012503E0536100E01361401C8142D6
:1029500011D34409A0EB4413032C05FA03F3F5D873
:10296000DFE804F005070403F0E7ECE7EDE71360A8
:10297000ECE75360EAE7002030BD000070B5054683
:102980002848294E0022C0F50021FFF7CDFF274A35
:10299000961BF6083604044646F001063CB1224672
:1029A00047A13046FEF706FA2046FFF7F9FBFEF78F
:1029B00022FE01461E4880694118401E01F6FF7143
:1029C000C0F30B00091A00220020FFF7ADFF04003E
:1029D00007D0224648A13046FEF7ECF92046FFF723
:1029E000DFFBEFF3058055F8044B2D68002181F3E0
:1029F000148881F3108881F3118881F31388C0054E
:102A000004D000BF0BA16E20FEF72CFC84F30888D5
:102A10004FF0FF308646284770BD000001F00700E8
:102A20000006004000F00600048C0700548C0700EC
:102A300008260020433A5C53687572655F53564E12
:102A40005F7265706F5C50726F6A656374735C541B
:102A500061697368616E5C6E52463532426F6F74A5
:102A60005C6272616E636865735C626C655F7570F1
:102A7000646174655F746573745F62656E5C636FD7
:102A80006D706F6E656E74735C6C69627261726991
:102A900065735C626F6F746C6F616465725C6E729B
:102AA000665F626F6F746C6F616465725F61707096
:102AB0005F73746172745F66696E616C2E6300008F
:102AC000436F756C64206E6F742070726F746563F1
:102AD0007420626F6F746C6F6164657220616E64E4
:102AE0002073657474696E67732070616765732CF9
:102AF00020307825782E0000436F756C64206E6F4F
:102B0000742070726F7465637420536F66744465CB
:102B10007669636520616E64206170706C696361C1
:102B200074696F6E2C20307825782E0080B500F007
:102B300047FD04210648FEF769FA002804D500BFC6
:102B400005A14120FEF78EFB02490120487101BD1D
:102B500078900700AC040020433A5C5368757265B6
:102B60005F53564E5F7265706F5C50726F6A65633B
:102B700074735C5461697368616E5C6E5246353281
:102B8000426F6F745C6272616E636865735C626CE5
:102B9000655F7570646174655F746573745F6265A9
:102BA0006E5C636F6D706F6E656E74735C6C696282
:102BB0007261726965735C6C6F675C7372635C6E83
:102BC00072665F6C6F675F64656661756C745F6287
:102BD00061636B656E64732E6300000080B50068EE
:102BE000202804D3A6A140F2CD10FEF73BFB4FF006
:102BF000A04002BD944901200870704780B5FEF7DF
:102C00002DFAFEF7F1F80028FBD1BFF34F8F8F4963
:102C10008F480A6802F4E06202430A60BFF34F8FF4
:102C200000BFFDE7002808BFFFF7E8BF8649002086
:102C30000870884800F042BE8748884AACA1801AD4
:102C400080B5C008000440F00300FEF7B0F8BDE80E
:102C500002400120E6E710B50446801E10D0401E59
:102C6000012803D9C01E012806D90BE07C494FF486
:102C7000701001F061F805E00120FFF7D3FF01E0DB
:102C800000F010FD7048416819B12046BDE81040C1
:102C9000084710BD002B06BF0378012BFCF716BFB9
:102CA00001207047F8B56F486F4C01680125C903D2
:102CB00003D54FF4803202600BE0606800F0F8004A
:102CC000A82807D16068C00704D5606800F05600E6
:102CD000606000256048614E644F861BF608386AC4
:102CE0003604012800F0068086A146F00300FEF7B6
:102CF0005EF830E043F204005D4A0168914246F01C
:102D000002060CD17A6B4FEA05034FF4805107F5A8
:102D10001870FFF7BFFF10B986A13046E7E7FEF74E
:102D20006AFC0146BA694FEA050307F2A120FFF7E2
:102D3000B1FF08B98EA1F0E7102000906846FFF7B8
:102D40004DFFD0F810050099C840C00703D5206892
:102D500010F0B10000D00120F2BD0000F8B53A4DEE
:102D60006860102100916846FFF738FF009A4149DA
:102D700000EB8200C0F80017002000F001FDB8B998
:102D80003548364E84A7861BF608360401F060F9F4
:102D900046F0010618B102280CD03ED308E0FFF738
:102DA00081FF4FF4701438B900F0E8FE00283CD0E1
:102DB0000320F2BD4FF4A02401F0F6FA05F1080259
:102DC0002021182001F084FB08B1FFF7E9F926481B
:102DD000016801F0F801B02906D10168C90703D5DF
:102DE000016801F04E0101600020C0460028DFD1DB
:102DF0001B49204600F0A0FF1F4801F0E7FB002818
:102E0000D6D101F006FB01F0B5FBFDF7EDFF002880
:102E1000F7D120BF40BF20BFF3E70120FFF702FF3B
:102E200039463046FDF7C3FFC2E72870134800F06B
:102E300045FD287828B900BF5AA140F20620FEF7C8
:102E400011FA01F00FFCEBE7082D00200CED00E07B
:102E50000400FA05FD2B0700548C0700048C0700C2
:102E6000392C0700000400401C0500400826002003
:102E7000DBE5B1510C000300572C0700F52B0700D0
:102E8000433A5C53687572655F53564E5F72657066
:102E90006F5C50726F6A656374735C5461697368C8
:102EA000616E5C6E52463532426F6F745C62726165
:102EB0006E636865735C626C655F75706461746590
:102EC0005F746573745F62656E5C6275696C645C87
:102ED0002E2E5C6D6F64756C65735C6E7266785CCB
:102EE00068616C5C6E72665F6770696F2E68000067
:102EF000496E61637469766974792074696D656F70
:102F000075742E00426F6F742076616C6964617411
:102F1000696F6E206661696C65642E204E6F207645
:102F2000616C69642061707020746F20626F6F74CF
:102F30002E000000426F6F742076616C69646174CA
:102F4000696F6E206661696C65642E20536F6674CC
:102F50004465766963652069732070726573656E78
:102F6000742062757420696E76616C69642E00004D
:102F7000426F6F742076616C69646174696F6E2052
:102F80006661696C65642E204170702069732069E8
:102F90006E76616C69642E00556E7265616368615E
:102FA000626C6500433A5C53687572655F53564EB8
:102FB0005F7265706F5C50726F6A656374735C54A6
:102FC00061697368616E5C6E52463532426F6F7430
:102FD0005C6272616E636865735C626C655F75707C
:102FE000646174655F746573745F62656E5C636F62
:102FF0006D706F6E656E74735C6C6962726172691C
:1030000065735C626F6F746C6F616465725C6E7225
:10301000665F626F6F746C6F616465722E6300002F
:103020002DE9F04FEDB01F46DDF8D8810590B8F9D5
:10303000026098F9004020231F3696FBF3F676B223
:1030400006F1FF3924AB002543F829506CAB03EBA4
:1030500089034CA88A469346394698F9012043F8DB
:10306000805C43F8605C01F03FFB98F9012054A8B4
:10307000B91801F039FB21464CA801F03FFB074687
:10308000002840F02E8154A801F038FB029000285F
:1030900040F0298108F1240332464CA918460393D5
:1030A00001F03BFB012840F02081324654A90398EF
:1030B00001F033FB0128069040F017811CAD0CAFE6
:1030C0003346039A54A9284601F03CFB029B47F87B
:1030D00029305A4651463846434601F0B6FB394638
:1030E0003846039B00962A4601F0F2FB0DF5B879AD
:1030F000039B00962A464CA914A801F0E9FB22463E
:103100004846059901F084FCA30009EB030A0793E4
:10311000059BA100591808F1440B504601F078FCBA
:10312000594634A801F074FCA3000BEB03013CA842
:1031300001F06EFC08F10403494634AA28460094C5
:10314000049301F071FC53464A463CA934A8CDF8DB
:10315000008001F07BFC2346049A2946284601F0B2
:10316000F1FA2A4651464846434601F0D4FC029BF8
:10317000CDE9083B059B31463846CDE90A3901F0D7
:10318000E9FC3146814614A801F0E4FC8145B8BF52
:1031900081461FFA89F909F1FF3B0FFA8BFB59466B
:1031A000384601F0F6FC5946071C14A818BF012741
:1031B00001F0EFFC002814BF022300231F430DF190
:1031C000200A22465AF8277024A8394601F020FC2C
:1031D0000DF1B00BA300F918584601F019FC214677
:1031E000284601F0E0FCA9F10209069B2B600FFACA
:1031F00089F90DF1900AB9F1000F23DA2346049AF8
:103200002946284601F09EFA43462A46594650462A
:1032100001F081FC32465146039801F07EFA012804
:1032200004D03346039A504601F0CAFC013C64B214
:103230004CAA23064BD5029BB3FA83F040096DB02C
:10324000BDE8F08F43462A46D8F8A4705946504648
:10325000B84749460CA801F09CFC4946071C14A835
:1032600018BF012701F095FC002814BF022300239A
:103270001F4308AB53F8277027B32246394634A8BA
:1032800001F0C6FB079B3CA8F91801F0C1FB4346BF
:103290002A463CA934A801F03EFC049B009434AAC1
:1032A000514644A801F0C0FB5B4652463CA934A8F5
:1032B000CDF8008001F0CAFB434644AA29462846BF
:1032C00001F0AEFC09F1FF390FFA89F993E752F8E2
:1032D00024105AF824304B40029919430291013CC2
:1032E000A7E72846ABE73846A9E70298A7E7FEE735
:1032F000F8B505000C4616466FA703D13946552090
:10330000FDF7B0FF1CB939465620FDF7ABFF2C6026
:10331000314623682846BDE8F44018472DE9FC41B2
:1033200004000F4615461E460FF28C1803D1414685
:103330008820FDF797FF1DB941468920FDF792FFD0
:10334000206818B941468A20FDF78CFF1EB9414616
:103350008B20FDF787FF60684068B6FBF0F100FB4B
:10336000116018B141468E20FDF77CFF17F0030F66
:1033700003D041469120FDF775FF15F0030003D0FF
:1033800041469220FDF76EFF00F013F830B900F0CF
:1033900010F818B941469320FDF764FF0898009093
:1033A0002A4620462468E56833463946A847BDE8E2
:1033B000F68132463946204668E02DE9F0410500A5
:1033C0000E4614461F460FF2F00803D141469E20D8
:1033D000FDF748FF296819B941469F20FDF742FFD4
:1033E0001CB94146A020FDF73DFF3146284600F0BC
:1033F0005AF840B93146284600F055F818B9414608
:10340000A320FDF72FFF00F011F830B900F00EF8FF
:1034100018B94146A820FDF725FF22462C6828460A
:1034200025693B463146A847BDE8F08168680268D7
:1034300062433146284629E038B500281CBF0168A0
:10344000002917D100250E4C00E06D1C0D480E49D7
:10345000401A1422B0FBF2F295420FD214216943B4
:10346000601861580029F0D0C96988470028ECD05D
:10347000012032BDC969BDE834400847002032BD93
:10348000480500205C05002048050020C3689942DB
:1034900007D300695118491E88428041C043C00FBC
:1034A00070470020704740680268521E1140481E55
:1034B0008041C00F70470000433A5C5368757265E5
:1034C0005F53564E5F7265706F5C50726F6A6563D2
:1034D00074735C5461697368616E5C6E5246353218
:1034E000426F6F745C6272616E636865735C626C7C
:1034F000655F7570646174655F746573745F626540
:103500006E5C636F6D706F6E656E74735C6C696218
:103510007261726965735C6673746F726167655C12
:103520006E72665F6673746F726167652E6300000A
:103530001D4902220A60BFF36F8FBFF34F8F4860AF
:103540001A4A10680028FCD000220A600DE0164AD2
:1035500001231360BFF36F8FBFF34F8F01601349D7
:1035600008680028FCD000211160BFF36F8FBFF303
:103570004F8F704770B50C4C0123236000F018F892
:1035800000250A4E07E051F8253040F82530336811
:10359000002BFCD06D1C9542F5D30020206000F07C
:1035A00007F870BD0000000004E5014000E40140A0
:1035B000BFF36F8FBFF34F8F704700000000000014
:1035C00001F0EEBB2DE9F8431500894621D04FF0FC
:1035D00000080326144F2A4609EB0801002001F0D9
:1035E000B7FB80442D1A68B9387890B1012400BF28
:1035F00013A14FF47A4041F001018847641EF6D1CF
:10360000761E04D00120002D3870E4D101E00021A5
:103610003970BDE8F18380B5044A00924023044A22
:1036200001F0CCFB01BD0000BF3A0020C53507000A
:103630007C39002070477047000000000000000047
:103640000338FDD87047000000225821001DFDF707
:10365000FFBE10B50446206810F1010F07D02046C8
:10366000FFF7F2FF2168884201D1012010BD002040
:1036700010BD0022C32100F51870FDF7E9BE38B572
:10368000964D2B6804465422191D201DFDF75AFD46
:1036900004F15C002968BDE8384040F2C7225C3183
:1036A000FDF750BD2DE9F0474FF4FE2948468B4FFA
:1036B000FFF7CFFF3C6806462046FFF7CAFF58B128
:1036C0006068012806D02046FFF7D3FFD4F85C12CB
:1036D000884201D1012400E0002481498148824DC3
:1036E000081AC008000440F003084FF4607A7EB363
:1036F000524649462846FDF735FD14B12846FFF7E6
:10370000BEFF6868012821D1C9A14046FDF74FFBE3
:10371000402205F5AE7105F22330FDF713FD1C22A2
:1037200005F5CE7105F26330FDF70CFD012185F83A
:10373000A112002085F8600285F8E20205F11C0163
:1037400005F2A2200A68026002226A60BDE8F087E2
:103750004CB1404686A1FDF72AFB396852462846FF
:10376000FDF7F0FCCDE700BF98A140F00200FDF7A7
:103770001EFB51462846FDF769F902206860E5E71F
:1037800010B5FEF74CFE02465548564C041BE408A3
:10379000240444F001040AB1B0A108E0FFF782FF5D
:1037A000002000F08EF8020006D000BFB6A120462F
:1037B000FDF700FB032010BD002010BD2DE9F041F6
:1037C000904605460E461C464FF46072FEF768F9B7
:1037D00030B95FEA08001CBF0020C04700202AE083
:1037E0003F48404FC71BFF080022012128463F04E5
:1037F000FEF730FE47F0010710B100BFB1A116E09F
:103800002CB900BF39A140F25D10FDF72BFD4FF43C
:10381000607231462046FDF795FC43464FF46072D6
:1038200021462846FEF700FE28B100BFAEA138466B
:10383000FDF7BDFA0320BDE8F08138B504462A4DF6
:103840002846FFF701FF28602846FFF712FF05F51D
:1038500060732246294601B0C5F85C024FF4FE2091
:10386000BDE83040AAE70000F8B504461C481D4EEC
:103870001A4F3A68861BF6080D463604A4A146F096
:103880000300FDF797FA2846FFF7E3FE28B900BFCB
:1038900016A14FF4C170FDF7E5FC38683B1D2246C8
:1038A0002946FFF78BFF020000F0078046F0010079
:1038B000BDE8F840A1A1FDF77DBAF1BD4FF4FE21AE
:1038C000D2E738B505460020FFF7B7FF040003D163
:1038D00005492846FFF7C8FF204632BD28010020D1
:1038E000348C0700048C070008260020433A5C5300
:1038F000687572655F53564E5F7265706F5C50728B
:103900006F6A656374735C5461697368616E5C6E41
:1039100052463532426F6F745C6272616E636865E5
:10392000735C626C655F7570646174655F74657308
:10393000745F62656E5C636F6D706F6E656E7473DD
:103940005C6C69627261726965735C626F6F746CE2
:103950006F616465725C6466755C6E72665F6466F6
:10396000755F73657474696E67732E630000000081
:10397000526573746F72696E672073657474696ED3
:1039800067732066726F6D206261636B7570207360
:10399000696E6365207468652073657474696E6709
:1039A00073207061676520636F6E74656E74732039
:1039B00061726520696E76616C69642028435243A8
:1039C000206572726F72292E0000000052657365C7
:1039D0007474696E6720626F6F746C6F6164657276
:1039E0002073657474696E67732073696E636520F4
:1039F0006E65697468657220746865207365747497
:103A0000696E67732070616765206E6F72207468DD
:103A100065206261636B7570206172652076616CF0
:103A200069642028435243206572726F72292E0008
:103A30004F6C642073657474696E6773207061677E
:103A4000652064657465637465642E2055706772C3
:103A50006164696E6720696E666F2E006E72665FC4
:103A60006466755F666C6173685F696E6974282946
:103A7000206661696C65642077697468206572727C
:103A80006F723A20257800006E72665F6466755F1B
:103A900073657474696E67735F77726974655F616B
:103AA0006E645F6261636B75702829206661696C62
:103AB00065642077697468206572726F723A202598
:103AC00078000000436F756C64206E6F742065721F
:103AD000617365207468652073657474696E6773BB
:103AE0002070616765210000436F756C64206E6F04
:103AF0007420777269746520746865204446552087
:103B000073657474696E6773207061676521000066
:103B10004261636B696E67207570207365747469A8
:103B20006E6773207061676520746F2061646472D2
:103B300065737320307825782E000000436F756C14
:103B400064206E6F7420706572666F726D206261A2
:103B5000636B7570206F6620626F6F746C6F616449
:103B600065722073657474696E6773212045727283
:103B70006F723A2030782578000000000648074A26
:103B80000749801A80B5C008000440F00200FDF724
:103B90000EF9002002BD00BF348C0700048C070022
:103BA000908D0700000000000000000000000000F1
:103BB00081B00022425040580090009901B07047F7
:103BC00038B56D4C207838BB6C490868C00302D406
:103BD0006B4A012111604FF480716A4D2846FFF74E
:103BE000E7FF4FF4A0712846FFF7E2FF4FF4A27100
:103BF0002846FFF7DDFF6449644BA02008701022BF
:103C000063491A60002008600122AA600120614A0D
:103C1000286002211160207031BD000070B504469B
:103C2000042C0D4604D300BF61A17720FDF71AFBD9
:103C3000544E00BF82A106EB840041F00101C0F8A0
:103C400040554FF4F8608847A00000F5A07001B21D
:103C50003046FFF7ADFF4FF480304E4900FA04F4D0
:103C60000C6070BD70B56FF07F460C46B4420546DF
:103C70004FA103D98F20FDF7F5FA0BE0962C04D263
:103C80009020FDF7EFFA264604E0304626468442AF
:103C900088BF0646404909688919A41B21F07F4165
:103CA00003D0962C3CBF963496396C60287BBDE8D7
:103CB0007040B3E770B504460D461646FFF780FF27
:103CC000266029462046BDE87040CBE7F8B533486A
:103CD0002C4C0068324D38B12A6A521C2A624FF4CB
:103CE00082712046FFF764FF0026B00000F5A07047
:103CF00000B22058E0B1B00000F5A07001B220463B
:103D000005EB0617FFF754FF3A7B26484FF4803146
:103D100091400160796819B13846FFF7A3FF07E0C9
:103D2000B96811B13846FFF79DFF386800B1804788
:103D3000761C012ED9D9F1BD38B50A461A49194D5C
:103D40000B68197B4FF480348C402C6020B1014605
:103D50001846BDE83840ADE731BD144B1B6898608C
:103D60000A4601461846A5E70B480D4900680A6A4D
:103D700000EB026070470000BA3A002018040040CF
:103D8000080000400040024024E400E004E100E0BC
:103D900008450240044302400445024004410240F9
:103DA00008000020084302402C00002030000020C2
:103DB000433A5C53687572655F53564E5F72657027
:103DC0006F5C50726F6A656374735C546169736889
:103DD000616E5C6E52463532426F6F745C62726126
:103DE0006E636865735C626C655F75706461746551
:103DF0005F746573745F62656E5C636F6D706F6E28
:103E0000656E74735C6C69627261726965735C6221
:103E10006F6F746C6F616465725C6E72665F626F07
:103E20006F746C6F616465725F6466755F74696DF1
:103E30006572732E630000000000000000000000A7
:103E40000338FDD8704700002DE9F0470546894644
:103E5000A94590461C4608BF002053D00FF2D42736
:103E600003D239464F20FDF7FDF91CB939465020E1
:103E7000FDF7F8F9280503D039465120FDF7F2F98E
:103E8000A9EB0506360B03D139465420FDF7EAF9B4
:103E900000F08AFAB44288BF344608F6FF7A264614
:103EA0004FEA1A3A4446002074B3564527BFD0461D
:103EB0002746B0463703002241462846FEF7CAFA95
:103EC00010BB781EFA1C00F00300121A00234946AA
:103ED0002846FEF7A9FAB8B98F48016BE41B7D1993
:103EE000B9447F1807630020FFF7EBFC0028AAEB1A
:103EF000080AD9D004468948DFF82422B0A100F08E
:103F00009CF82046BDE8F0870446FAE7F8B5824DF4
:103F10006E6AAC6C824FFDF76EFB296B0818721A43
:103F20000C19844208BF002208232146FFF78CFFAA
:103F300004467A48C71BFF083F0447F0010714B145
:103F4000AEA138464AE0FDF756FB00223146FDF7A8
:103F50007FFAAA6A904204D101212962E861AE6128
:103F600004E00346ACA13846FCF72AFF0020F2BD6E
:103F7000F8B5FDF75DFB684A946C536B116B674EA7
:103F80005A1A02F6FF75521EC2F30B02AA1A644DAA
:103F9000751B04F50056081856F8047F614EED08AD
:103FA0002D04B74245F0010506D000BFACA128465C
:103FB000FCF7FDFE0320F2BD994201D10020F2BDC5
:103FC00008230919FFF740FF040002D08BA12846FF
:103FD00004E0BDE8F2400020FFF773BCFCF7E7FE09
:103FE0002046F2BD38B54C48C16A456A846CAC299C
:103FF00003D1406B04192D1A03E014B9FDF70AFB35
:1040000004462A4621464848FDF74AFD08B90024DF
:1040100011E0FCF7E9FE0028FBD100F0FAF929468F
:10402000204600F031FF040005D03C48DFF8F020C6
:1040300098A100F002F8204632BD801AC0080004A2
:1040400040F00100FCF7B3BE38490120087070470A
:104050002DE9F041304F31493148081AF96A0025FD
:10406000C0080004012940F0010806D0A52928D085
:10407000AA292BD0AC292CD03EE0FFF747FF0446FD
:104080002CB1FB6A9DA122464046FCF799FE07F140
:104090002400FDF77DFA254E002030702448FFF7FC
:1040A00010FC0446307820B922A14FF4D170FDF7FE
:1040B000D9F844BB012065B3396A012929D102200E
:1040C00027E0FFF755FF04460125D9E7FFF78AFFF0
:1040D000D5E7FFF74DFF040000F0068074A14046CD
:1040E000FCF765FE0125CCE7FFF77CFF040008BF65
:1040F0000125CCD074A1F2E779A140F00300FCF7D0
:1041000056FE002005E000BF89A14046FCF74FFEA7
:104110000320BDE8F081000008260020548C070031
:10412000048C0700DBE5B15100F00600BB3A00202B
:1041300049400700433A5C53687572655F53564EB9
:104140005F7265706F5C50726F6A656374735C5404
:1041500061697368616E5C6E52463532426F6F748E
:104160005C6272616E636865735C626C655F7570DA
:10417000646174655F746573745F62656E5C636FC0
:104180006D706F6E656E74735C6C6962726172697A
:1041900065735C626F6F746C6F616465725C6E7284
:1041A000665F626F6F746C6F616465725F66775F84
:1041B00061637469766174696F6E2E63000000003C
:1041C0004661696C656420746F207772697465203C
:1041D000696D61676520636F7079696E67207072C1
:1041E0006F677265737320746F2073657474696E82
:1041F000677320706167652E000000004661696C7E
:10420000656420746F20636F7079206669726D77C2
:104210006172652E0000000043524320636F6D7091
:1042200075746174696F6E206661696C656420667F
:104230006F7220636F70696564206170703A2073DB
:104240007263206372633A203078253038782C20EE
:10425000726573206372633A2030782530387800B5
:10426000536F757263652061646472657373206453
:104270006F6573206E6F7420636F6E7461696E205A
:10428000612076616C696420536F66744465766959
:1042900063652E005265717565737420746F2063B9
:1042A0006F707920424C206661696C656400000083
:1042B00053442B424C3A20534420636F707920665C
:1042C00061696C656400000053442B424C3A204203
:1042D0004C20636F7079206661696C656400000032
:1042E0004E6F206669726D7761726520746F206110
:1042F000637469766174652E00000000416374691F
:10430000766174696F6E206661696C656420776997
:104310007468206572726F72202564202862616E55
:104320006B20636F64653A2030782578290000009F
:10433000436F756C64206E6F7420777269746520AA
:1043400073657474696E67732E00000034490868E1
:1043500060B10020334B34490968C140CA0744BFEB
:10436000324943F82010401C0728F4DB7047000056
:104370002F48304A35A1801A80B5C008000440F0AB
:104380000300FCF714FDBDE80140DFE780B52A48D3
:1043900000210160006800900099FCF75FFEFCF7C7
:1043A00023FD0028FBD101BD70B5244C207878BBDB
:1043B0001F49204D4D1B1A490868ED082D0445F092
:1043C000030578B11E4B00BF24A11E683246284663
:1043D000FCF7F0FCA6F54862962AB4BF9626A6F52F
:1043E000486604E031A12846FCF7E1FC0EE0FFF747
:1043F000ADFF324620A12846FCF7DCFC11493046CF
:10440000FFF7ABFC10494FF48030086001222270A6
:1044100070BD03490868002818BFFFF797BF7047B1
:104420000004014000060140080501403546526E77
:104430000C8C0700048C070000010140BC3A0020EE
:10444000040501407143070000E100E0496E746516
:10445000726E616C206665656400000057445420EC
:10446000656E61626C6564204352563A256420741F
:1044700069636B73000000005374617274696E6746
:1044800020612074696D6572202825642074696339
:104490006B732920666F722066656564696E67209C
:1044A0007761746368646F672E000000574454207E
:1044B0006973206E6F7420656E61626C65640000C4
:1044C000394A9388984234BF401C0020C0B27047DC
:1044D00030B512F003030DD1334B9A604C1CE40449
:1044E00002EB1442DA6000255D701D7058809980DF
:1044F000002030BD072030BD2DE9F0472A4F884607
:10450000798841450446154631D30020FDF7A8FDC2
:1045100097F800A07878FFF7D3FF4FF6FF79504562
:104520004E4604D07E787878FFF7CAFF7870002076
:10453000FDF7A6FD4E4518D0B86840F8365000EBA0
:10454000C605002C18BF5FEA08000AD07888FB680F
:104550004643424621469819FCF7F4FDA5F804802D
:1045600001E00020A880002002E0042000E00920F3
:10457000BDE8F08738B50C4C0FE02278A368E568F9
:1045800003EBC20081886088504353F832202844EE
:1045900090472078FFF794FF20702078617881425F
:1045A000EBD131BD00000000503A002010B50446A8
:1045B000801F01289CBF002000F0A1FC154909685C
:1045C00019B12046BDE81040084710BD70B511492B
:1045D000114D124EC1F8000012A11148451BED0803
:1045E0002D0445F00300FCF7E2FB0020FFF7DEFF9F
:1045F000304600F075FC040007D022460EA145F0BD
:104600000100FCF7D7FB204670BD3046BDE8704086
:1046100000F064BFA03A0020048C0700AD450700FD
:10462000548C0700456E746572696E672044465568
:10463000206D6F64652E0000436F756C64206E6F93
:104640007420696E6974616C697A652044465520EE
:104650007472616E73706F72743A203078253038DE
:104660007800000080B50E490E4A4FF0FF30086018
:10467000106000F019FC48B10B480C4A0CA1801ADC
:10468000C008000440F00100FCF791FBFCF7ACFB14
:104690000028FBD1BDE802404FF48050FEF76EB910
:1046A00080E100E080E200E0548C0700048C070009
:1046B0004661696C65642072756E6E696E67206E06
:1046C00072665F6466755F6D62725F6972715F6664
:1046D0006F72776172645F616464726573735F7334
:1046E00065742829000000008B1802448B4200D119
:1046F000704713F8010D02F8010DF7E710B500231C
:104700001A465CB2A14203DCB2FA82F0400910BD45
:1047100050F8234001332243F3E710B5013A52B277
:10472000130601D5002010BD50F8224051F8223068
:104730009C4205D802F1FF32F2D24FF0FF30F2E78F
:104740000120F0E7F0B50F46A1B0064619463846FD
:1047500015461C46FFF7D2FF20B1304600F023FA81
:1047600021B0F0BD22463946684600F051F929468D
:1047700008A800F04DF910A8214600F014FA012312
:1047800018A8109300F00FFA224608A96846FFF710
:10479000C4FF28B9224610A9304600F039F9DFE7F6
:1047A000009BDA0709D42146684601F01BF822462F
:1047B000294610A801F023F8E6E7089BDB0707D499
:1047C000214608A801F00EF82246294618A8F1E76C
:1047D000002823461CDD08AA6946684600F0F0F967
:1047E0002146684600F0FEFF224618A910A8FFF7F0
:1047F00094FF002805DA10A923462A46084601F04E
:104800001FF810A9234618AA084600F0D9F9CEE7E8
:1048100008A96A46084600F0D3F9214608A800F026
:10482000E1FF224610A918A8FFF777FF002805DA54
:1048300018A923462A46084601F002F818A923467B
:1048400010AA084600F0BCF9BEE72DE9F047B3F91D
:10485000024088461E4604F11F012023073491FBC5
:10486000F3F708234FFA87F994FBF3F4944228BF37
:1048700014464946054600F096F922464146FFF7A0
:1048800033FFB6F90230E4009C421FD9E41A05EB6D
:1048900087010022C4F120078D420ED324364A46F8
:1048A00029463046FFF739FF01280FD04B463246E4
:1048B0002846BDE8F04700F083B951F8040D20FA0E
:1048C00004F313430B6000FA07F2E5E7BDE8F08755
:1048D0002DE9F04FB5B004AD9DF9F8401F46814673
:1048E0002346284600F0DAFF24AB21463846CDE9BE
:1048F000023500F02FF9C0EB841005B26B4203F0D3
:104900001F034FF0200695FBF6F676B205F01F0860
:1049100014A858BFC3F10008314600F044F9B8F1BB
:10492000000F30B22DDD14AB002203EB8000C8F184
:10493000200C1346A34219D327B27B00019314AB7A
:1049400003EB870704F1FF3834AB012603EB88083B
:10495000002D53DA34AB03EB8606224656F8C81C0A
:10496000484600F055F835B0BDE8F08F57F82360A1
:1049700006FA08F10A4340F8232026FA0CF2013324
:10498000D8E714AB2246394603EB800000F040F82C
:10499000D2E70FFA82FE5AF8C83C53F82EB034AB77
:1049A00003EB820252F8803CABEB03031B1A9B45DE
:1049B00002D034BF012000205CF8C82C42F82E3011
:1049C0000131019B4AB29A42E3DB331A5E4221462F
:1049D00014A85E4100F006FF34AB03EB84032146CC
:1049E00053F8802C58F8803C384643EAC273013DA6
:1049F00048F8803C2DB200F0F5FEA9E734AB002169
:104A0000C6F1010C084603EB860A03EB8C0CD8E7D1
:104A100010B500235CB2A24200DC10BD51F8234067
:104A200040F823400133F5E770B59DF910401E466C
:104A30002346054600F0C4F838B1234632462946DD
:104A40002846BDE8704000F0FBBE70BD2DE9F04384
:104A50008BB01446129D15F9046B00961F468046D4
:104A600089462B460246214602A8FFF7DDFF02A930
:104A7000129A084601F09BF8129B02AA4146404652
:104A800000F0CEF8129B02AA2146204600F0C8F89A
:104A90002B464A46394638460096FFF7C5FF129A1C
:104AA000394602A801F083F802A92B46424608467F
:104AB0000096FFF7B9FF02A92B462246084600964A
:104AC000FFF7B2FF2B464246214620460096FFF7ED
