:020000040002F8
:10600000E87000209D57030003890200BF92020040
:106010009BA20200A7A302005BB9020000000000DF
:1060200000000000000000000000000007C50200A2
:10603000D3D90200000000001FE102003B0503006D
:10604000C7140300B7050300391503000F0D030043
:10605000F70E03002B140300A3180300831503009D
:10606000A71503007B1A0300171C0300E32303009A
:106070009F260300DF260300DB27030043290300DC
:106080003F2D03002F120300A3310300CB38030080
:106090000B4A0300CB5003009BE702007953030037
:1060A000C75303002B5403003B540300C7540300A1
:1060B00023590300B759030000000000000000004E
:1060C000B9590300BB590300BD590300BF59030070
:1060D000C1590300C3590300C55903000000000063
:1060E00000000000000000000000000000000000B0
:1060F00000000000000000000000000000000000A0
:10610000000000000000000000000000000000008F
:10611000000000000000000000000000000000007F
:10612000000000000000000000000000000000006F
:10613000000000000000000000000000000000005F
:10614000000000000000000000000000000000004F
:10615000000000000000000000000000000000003F
:10616000000000000000000000000000000000002F
:10617000000000000000000000000000000000001F
:10618000000000000000000000000000000000000F
:1061900000000000000000000000000000000000FF
:1061A00000000000000000000000000000000000EF
:1061B00000000000000000000000000000000000DF
:1061C00000000000000000000000000000000000CF
:1061D00000000000000000000000000000000000BF
:1061E00000000000000000000000000000000000AF
:1061F000000000000000000000000000000000009F
:10620000006902F06BBA8068D0F8541321F00201E3
:10621000C0F8541370478068D0F8542361F38D128E
:10622000C0F854237047002818BF02F077BA7047AF
:106230008268002182F82C1080680185C184704733
:1062400010B504462068FFF7EEFFA1680A8D06E04E
:1062500010B504462068FFF7E6FFA168CA8CC98B19
:106260008018B0FBF1F301FB1300401E8041C00F0A
:1062700010BD10B50446FFF7D6FF0021814206D2BB
:10628000625C3F2A1CBF2A2A491CF7D101E000208A
:1062900010BD012010BD2DE9F8430646884614467E
:1062A0001D4600271DE07068D0F800C0DCF80C9097
:1062B0006B46224608EB0701C8470098C719241A05
:1062C00078B9B168087803280BD0D1F85403C0F32B
:1062D00040100028F9D0D1F8540320F02000C1F874
:1062E0005403002CDFD128001CBF00992960BDE8B1
:1062F000F1830A460069C1A102F0FCB938B54068D3
:1063000004682569A84731BD2DE9F84304461646BF
:106310001D4609BBDFF8380CDFF8384C041BB6EB20
:10632000D40F2CD20027DFF8308CDFF8309C00E04F
:106330007F1CB7EBD40F22D209F1040050F83720AC
:1063400058F82600116802F041FA0028F0D109F14E
:10635000040050F8371013E08CB1207840B1089F4A
:106360006268394630469047386840B12F6008E08F
:1063700061683601885910B18819286001E0002150
:106380002960BDE8F18338B58568006805F114041B
:10639000FFF749FF2073217B288D00F018F820803B
:1063A000217B288D00F00DF8A080217BE88C00F087
:1063B00008F8E080217BE88C00F009F86080204636
:1063C00032BD0918608991FBF0F0401C7047081835
:1063D000618990FBF1F201FB1200401C704738B557
:1063E00000F010F869890019B0FBF1F032BD38B542
:1063F00000F008F869890019B0FBF1F201FB120006
:10640000401C32BD0C468168006801F114050AE7A2
:10641000D0F8100000A204E01B5B4A00D0F8100086
:1064200001A277A102F066B91B370000D0F8100076
:1064300000A2F6E71B380000006972A102F05AB909
:106440000A0004D0D0F8100001A102F053B970473F
:106450001B5B2564440000000A0004D0D0F8100043
:1064600001A102F047B970471B5B2564430000009F
:106470000A0004D0D0F8100001A102F03BB9704727
:106480001B5B2564410000000A0004D0D0F8100016
:1064900001A102F02FB970471B5B25644200000088
:1064A00070B50446FFF76FFF0546A888E988884263
:1064B0000CBF012600262046FFF7C2FE18B9204671
:1064C000FFF7C6FE08B100F012FC6EB9E988A88893
:1064D000091A00F011F869882888814204D2411A0B
:1064E0002046BDE870404AE269882888091A20469B
:1064F000BDE8704089B2A3E789B22046B8E72DE92C
:10650000F8430646B168C88C00281CBF0C8D002CCF
:1065100071D0002500F078F83BD1641E6D1CA0B24C
:106520000028F7D10F8DA1B23046FFF758FF804603
:1065300039463046FFF753FFA8EB0008B068B0F8C3
:106540002890A1B23046FFF752FF07464946304631
:10655000FFF74DFF3F1AB068C28CA9B2A3B2521A1E
:1065600000F12C0CC9182C306144184402F070F969
:10657000B068C18C04854D1BC58400F12C01C08C12
:1065800000220A54002F0DDDB9B23046FFF764FF38
:106590000EE000F039F8C5D0641E6D1CA0B20028D2
:1065A000F7D1BFE704D57F42B9B23046FFF748FFC5
:1065B000B8F1000F05DD1FFA88F13046FFF764FFE0
:1065C00007E006D5C8F100081FFA88F13046FFF74A
:1065D0004FFF3046FFF722FFB06800F12C01008D1D
:1065E0000B1807A200F01CF83046FFF711FF3046E9
:1065F000BDE8F2431AE7BDE8F1830000256300001F
:10660000257300000A00000001F12B00A2B2835C98
:10661000202B7047B068018D084400F12C033A46E6
:106620000821304601F036BB38B50446FFF7ABFE13
:1066300005462A7B2988A888521C914208BF012858
:1066400012D0012802D9411EFFF756FF297B288866
:10665000814203D2401E00F008F802E0491C00F01D
:1066600008F8A1680020088531BD411A89B220468A
:10667000E6E6091A89B22046EEE638B50446FFF789
:1066800082FE054628886988884202BFA888E98872
:10669000884214D0E988A888884204D2091A89B2AD
:1066A0002046FFF7F1FE69882888814202D2FFF771
:1066B000DCFF01E0FFF7DDFFA068C18C018531BD83
:1066C000FEB5074600268DF800604FF4C071BA6829
:1066D00002F5D67002F008F9D7F8100039A102F0DF
:1066E00009F83846FFF78CFD00254FF47A7401ABAA
:1066F000012269463846FFF701FE019838B900BF0C
:1067000033A14FF6C01041F00101884713E09DF816
:106710000010B8681B2907D090F8AC111B29E6D1EE
:106720009DF8001052290DD000F5D67041556D1C12
:10673000ADB20A2D33D201980028D8D1641ED6D12B
:106740000D20FEBD00F5D6704655BC6804F5D67127
:1067500048785B2802D00E700B20FEBD02230A276A
:10676000C85C5B1C3B289BB21ED007FB0606303E74
:10677000B3F5C07FF4DB0C20FEBD07FB02025B1CFF
:10678000303A9BB2B3F5C07F12DBF4E7B0B2FB281E
:1067900026BFFA202083268300200870FEBDB8683B
:1067A00080F8AC610420FEBDB3F5C07FE3DA0022BF
:1067B000C85C0028E1D190B2FB2826BFFA20A08255
:1067C000A282E3E71B5B366E0000000000000000C1
:1067D0000338FDD870470000F8B50A008368A9A106
:1067E00015D093F82230934219D000BF0CA6D6E9F9
:1067F0000073CDE9007302F12F038DF80530836833
:1068000083F822206A46006901F074FFC7BD0022A8
:1068100083F82220D0F8100003A201F06BFFC7BD5F
:106820001B5B313B33006D001B5B6D000A0000D128
:106830007047F8B5826892F823308B4211D000BFC0
:1068400008A501F12F03D5E90067CDE900678DF8B0
:106850000330826882F823106A46006989A101F03A
:1068600049FFE3BD1B5B34006D000000806800F150
:10687000220210780870507848707047F8B50646C4
:106880000F46B068D0F85443018DC28C551A04F0FD
:106890000104ADB240F27F1314BB9A4264DA35B101
:1068A000084400F12C012A462D3001F0D1FFB068D8
:1068B000018D084480F82C700CB900F056F80DB327
:1068C0003046FFF760FD6FA78188C08881420CD1F8
:1068D000FFF7A0FE2C1BA1B23046FFF7B1FD18E078
:1068E0009A42E4DB002DE2D1F1BD3046FFF796FD80
:1068F000FFF790FE3046FFF799FD01213046FFF784
:10690000ABFD06E00CB100F030F839463046FFF739
:10691000F0FCB068018D491C01853046FFF790FC02
:106920000028304602D0BDE8F24085E5FFF790FC34
:10693000D0B13046FFF727FD0446E188A088091A48
:10694000491E89B23046FFF79FFD01F0B5F8E18896
:10695000A088091A89B23046FFF78AFD304621889F
:10696000BDE8F440491E0AE0F1BDB068C18C491C85
:10697000C184002289B2084480F82C20704789B273
:106980006AE5000070B50546A968CC8C002C1CBFD8
:10699000088D002838D0241A0844A2B200F12C0136
:1069A000521C2B3001F054FFA868018D4A1E02854D
:1069B00034A6C18C4A1EC284A0B2F0B10821284678
:1069C000FFF797FC2846FFF7DEFC8188C0888142EC
:1069D00009D100F01DF82846FFF71AFDA1B228469C
:1069E000BDE870402CE52846FFF718FD2846FFF764
:1069F0000FFD00F00DF8284648E0286903A2314653
:106A0000BDE8704001F076BE70BD000008200800AF
:106A1000A868018D084400F12C033246082128465D
:106A200001F038B970B50446A068018DC58C6D1AA7
:106A3000AAB2002A25D0084400F12D012C3001F023
:106A400007FFA068C18C4A1EC2842046FFF79BFC4A
:106A50000CA68188C088814209D101F00EF9206915
:106A600009A2314601F046FE2046691E40E5204657
:106A7000FFF7D4FC2046FFF7CBFC01F0FEF82046E0
:106A800004E070BD257300001B5B4B00BDE8704047
:106A9000CCE42DE9F84F804600248A4617469B46F1
:106AA000C8F80040387848B101F021FF70B10020EB
:106AB00007F8010BD8F800105945F3D30020D8F897
:106AC00000304AF823002046BDE8F28FD8F80000D5
:106AD000411CC8F800104AF82070002404E000F0BF
:106AE00013FE00F061F87F1C3D78002DE2D064B900
:106AF000222D18BF272D02D05C2DF0D005E000F02C
:106B000003FE00F051F82C46EEE7AC4204D100F051
:106B1000FBFD00F049F8E0E7002C3FD05C2DE2D10E
:106B20007878A042DBD07D1E302818D14FF00009C4
:106B30000226B85DA0F13001082904D2761C042E8B
:106B400041EAC909F5DD032E09DB00F0DDFD801BFC
:106B5000821CA91900F02AF807F8019BC4E77828DD
:106B6000C1D14FF000090226B85DA0F130020A2A17
:106B700038BF30380AD3A0F16102062A38BF57382F
:106B800004D3A0F14102062A05D23738761C032E21
:106B900040EA0919E8DD032EA5DBD6E7284601F017
:106BA000A6FE002886D19EE70246791C384601F0F1
:106BB0004FBE10B504460229A06801700AD12046D4
:106BC000FFF736FB23682046BDE81040C1A2032131
:106BD00001F060B810BD7FB504466846002200236E
:106BE000002580E82C00A66806F55272906829BB43
:106BF00000287BD000F0DAFCA068D0F8500300F049
:106C0000E1F8A1680198CD8CC1F8500300283DD16E
:106C100001F5D670FFF707FB30B1A06800F5D6711B
:106C20002C3001F06FFE02E0A16881F82C00A06812
:106C30002C30FFF7F8FAADF8080038E051688842C8
:106C40001CBF1068002851D000F0B0FCA168D1F83A
:106C5000500398B900F0F7F80546A06800F55271A6
:106C60000A688A60A9B231B100F12C0100F5D67032
:106C700001F048FE0AE080F8AC1107E000F0A2F84D
:106C8000A168BDF808500098C1F850030023A0681F
:106C9000D0F8500300F097F8A068BDF8082000F184
:106CA0002C01D0F850030A23521C01F0F3FEA06817
:106CB000BDF808100185ADB2BDF80810C184BDF85B
:106CC0000800A8423CBF2046FFF7A2FBA06800F1E5
:106CD0002C0380A200F0D7FF2046FFF7B1FA18B9C5
:106CE0002046FFF7B5FA08B100F001F87FBD204655
:106CF000FFF7A2BB3EB504460D46A16801F55272EE
:106D0000106840B915605560002200920192C88C4D
:106D1000ADF8080015E000F055F801950023A068D3
:106D2000D0F848030A22694601F0B0FE0020019025
:106D3000A068D0F848130091C28CADF80820C0F8C4
:106D4000485300230A226946284601F09FFEA068A6
:106D5000C28C00F12C010A23521C284601F096FE39
:106D600037BD3EB50546A868D0F84C434CB3002368
:106D70000A226946204601F08DFEA9680198C1F8F3
:106D80004C030A21684601F0AFFD00230A22694640
:106D9000204601F07BFE204601F00DFEA86800F5BC
:106DA0005271486808B9086037BD00F00BF8002040
:106DB00000900023A868D0F84C030A22694601F02D
:106DC00065FE37BD00230A22694601F063BE7FB528
:106DD0000646B16800F037F885B2B06800F5527029
:106DE000002181605DB30068E0B1FFF7EBFFBDF803
:106DF0000820954216D1B06800F5D671D0F8480346
:106E00000A23521C01F046FEB46804F5D67104F161
:106E10002C0001F0DBFC10B984F8AC017FBD00212F
:106E200084F8AC110824706905F10B0101F092FDA2
:106E30000100304604D1FFF794FF641EF3D17FBDFB
:106E4000FFF758FF7FBD01F12C00FFF7ECB9F8B553
:106E500005460F46A868038DC18C1646CC1A7118DA
:106E6000B1F5C07FA4B234DA310032D000F12C0188
:106E700019442C30F318621C184401F0E9FCA8688E
:106E800000F12C03008D32463946184401F0E0FC35
:106E9000A968FFF7D8FFA968C88401F12C00098D03
:106EA00043180CA2FFF7BAFDA868018D7618068575
:106EB0002846FFF7C5F918B92846FFF7C9F910B1F8
:106EC0002846FFF7B9FA24B12846BDE8F240FFF79B
:106ED000E7BAF1BD257300002DE9FC410C00064620
:106EE000174603D1B168002088842EE00FF27008A5
:106EF0004046FFF798F9C7194046FFF794F9B16883
:106F0000CA8B101ABAB2B0FBF2F500F0D8FD3F1AE6
:106F1000B068818C4A1C8284ADB291FBF5F005FB10
:106F200010153DB9009443460EA20721304600F0EB
:106F3000B1FE04E02346CFA20721FFF772FBB9B2EE
:106F40003046BDE8FC41FFF787BABDE8F381000099
:106F500040500300E84F0300243C0020E84F0300AA
:106F6000202000000A2573257300000080B501F081
:106F700099FD401E8041C00F02BD00002DE9F14F78
:106F80009EB000270B9740F27F121E988368D98C21
:106F90000025521A92B2002AB846B946059200F06E
:106FA0004E811A8D03F12C0103F5D67001F09EFD80
:106FB0001E998868018D084480F8AC511E9A90682B
:106FC000018D084490F82B0001F091FC00B10120E4
:106FD0001E990A900C238868C0F8505300F5D672A9
:106FE0000CA903A8FFF755FD0C98FFF71CF986B212
:106FF000049501950295039820B10A994118491EFC
:10700000884550D30A9808B1002605E00CA850F82E
:107010002800FFF708F986B2002406A8009001AB0B
:10702000049822464146FFF76FF90198641C002836
:107030006DD000F040F90028EFD002986D1CA4F14B
:10704000010A70B90198CDF82CA000F0E0FF1FFAFA
:1070500080F90599A9EB0600884201DA80B2059013
:10706000F6E000F0D3FF81B28945B8BF1FFA80F97E
:1070700005980028F4D019A900F016F90298019A91
:107080000168106831448319002297B2D85D002846
:1070900008D0CF5DB84205D1521C90B20028F4D17F
:1070A0004FF6FF72CEE0C246DDF810B000240DF1BD
:1070B000300806A8009001AB224651465846FFF71B
:1070C00023F9641C25D00198002821D058F82A0003
:1070D000FFF7CFF8002840F0C8800198016858F801
:1070E0002A0001F073FB0028E3D101988168049124
:1070F000D046049858B1019848B108F101001FFA30
:1071000080F803990A9841188845FFF474AF3DB997
:1071100095E00421DDF8780058A200F0BBFD8EE078
:10712000012D56D10499087810B106A900F0BCF8D9
:10713000029800F06CFFB04207D00298059A0168EF
:107140001E9892B23144FFF782FE1E988068018D2E
:10715000084490F82C0001F0CAFB00281E988068B3
:107160001BD1D0F85413CA0712D5D0F854134908CC
:107170004900C0F8541320211E98FFF77FFB1E988A
:107180008068D0F8541341F00101C0F8541356E060
:107190001E982021FFF772FB51E0018DC08C8142C7
:1071A0004DD21E98FFF7EFF884881E988068018DF5
:1071B000491C01851E98FFF7E6F88088844204D1B7
:1071C0001E980121FFF748F939E01E98FFF734F9BE
:1071D00035E01E984A460021FFF77EFE0B9F1E9C5D
:1071E000DDF810A006A8009001AB3A464146504693
:1071F000FFF78AF8019800F05EF87F1C0028F1D0B4
:10720000019801684A462046FFF766FE6D1E002D74
:10721000E8D1236818A2032100F036FDA06800F130
:107220002C0314A200F02FFD2046FFF739F9029835
:10723000059A016892B231442046FFF708FE1FB05C
:10724000BDE8F08F059990B28842BCBF92B205921A
:1072500001980290002C57467FF4DFAEDDF87800ED
:1072600006A2042100F016FD43E7D046CDF810B089
:107270003FE70000257300000A2573005461622077
:1072800066756E6374696F6E3A20636F6D6D616EC3
:10729000647320636F756E746572206F76657266B5
:1072A0006C6F7765642E0A00009102AB04983A4631
:1072B0004146FFF729B801680CAB324653F8280065
:1072C00054E600002DE9FC41044600200190B3A6DD
:1072D0000FF2CC250FF2D02801E00021417001AB64
:1072E000012269462046FFF709F80198002834D0AA
:1072F0009DF800008028F2D2C046C046A0684178C0
:107300000329EAD8DFE801F003CCD402E5E79DF8D1
:1073100000100D2918BF0A2921D000212046FEF7B0
:107320007AFF9DF800000028D9D0012836D0032824
:1073300037D0052843D0082872D0092868D00C28F7
:1073400041D0152857D017285ED01B2802D07F289F
:107350006ED076E0A0680121C0E7BDE8F381D0F8E7
:1073600054239204120E1EBFD0F854038004B1EBD4
:10737000106FD6D12046FEF74EFFA168C88C28B901
:107380000022C1F85023FFF7B2FC02E0204600F0D3
:107390001DFA02212046FFF70CFCDEE700F006F99B
:1073A0009DE72046FFF769F92046FEF749FF08B937
:1073B000FFF79DFC02212046FFF7FBFB8FE72046ED
:1073C000FFF75BF98BE720694246314601F092F9FD
:1073D00020692A46314601F08DF92368324603219F
:1073E00000F052FC00F044FC04D500F049FC2046BB
:1073F000FFF756F873E700F0D9F82046FEF718FFBC
:107400002046FFF705F86AE72046FFF778F866E7B9
:1074100000F0CFFB0007FAD52046FFF7AFFD5EE78F
:1074200000F0C7FB0007FAD52046FFF7ABFA56E796
:10743000A068D0F854030007F9D52046FFF7F2FA08
:107440004DE70746A7F120005F2808D3384601F032
:1074500090FB20B9384601F096FB002807D000F0D9
:1074600007FC05D59DF800102046FFF707FA36E720
:10747000C18C40F27F129142F9DA018D4A1C0285DB
:1074800008449DF8003080F82C300021A068028D5F
:10749000104480F82C10A068C18C491CC1841EE7E0
:1074A0009DF800105B297FF418AF0222427016E7A6
:1074B00000224270D0F8541309077FF54EAF9DF8B3
:1074C0000020312A14D0322A5BD0332A62D0342AE9
:1074D00054D0412A0FD0422A12D0432A12D0442A33
:1074E0002FD0462A4CD0482A04D04C2A4BD0F6E65E
:1074F0000321417052E701212046FFF76CFBEEE6C5
:107500000021F9E72046FEF73EFF074638887988D4
:10751000884202BFBA88F9888A42F0D07A899042BC
:107520000BD101212046FEF7AFFF7989FFF79FF8C5
:10753000A068018D491C0185D1E60121FFF79BF868
:10754000F6E72046FEF71FFF07463A7B3888521CB5
:10755000904204BFB98801290BD001280AD101212A
:10756000FEF7CBFF7989FFF786F8A068018D4A1EE8
:107570000285B4E60121FFF77AF8F6E703214170AE
:107580001DE703214170D0F8541381F00101C0F8C8
:107590005413A4E6032141704BE70000257300005B
:1075A0001B5B324A000000001B5B48002046FFF7CF
:1075B0003BB870B504460025A16891F82C00F0B9DD
:1075C00070BDA8B2D8B9A16801F12602907170BD52
:1075D0006D1C761E307801F08AF90028F8D1A06879
:1075E000C18C421802F12B039E4207D000F12C06F9
:1075F000A8B2091A0022725400F022F870BDA068E7
:1076000000F12C01AAB26D1C885C01F070F9002811
:10761000D7D16D1EA8B260B1A368DA8C521C03F1F9
:107620002C01121A014403F12C0001F011F900F0B1
:1076300007F80025A068C18C084400F12B06C9E7B3
:10764000A068C18C4D1BC58405857047F8B50646FA
:107650000F46144600F058F885B2B068418D69189D
:10766000491C40F28112914206D300BF12A20421AC
:10767000304600F00FFB06E0214600F5D67001F021
:107680008CFA040001D10020F2BDFEF7CCFD80B2DF
:10769000421C60192146401C01F0DAF82A4639469E
:1076A000204601F013FA202161556D1CB068418D10
:1076B0006D1845850120F2BD436F6D6D616E6420CC
:1076C00062756666657220697320746F6F207368D7
:1076D0006F727420746F20657870616E6420616CC5
:1076E0006C20636F6D6D616E6473206D617463688F
:1076F000696E672077696C6463617264207061747D
:107700007465726E0A0000003846FEF78CBD70B5D5
:1077100006460D46B26802F5D67001F03EFA044600
:1077200000F071FC0546DCB1B06800F5D671A142ED
:1077300005D214F8010C202804BF6D1C641E00F053
:10774000BEF90246B068418D491B4185A8B2ADB271
:107750006119121A2046BDE87040521C01F078B839
:1077600070BD2DE9F84F86B0002400260027019453
:10777000022582468B469046994602A8009001ABAE
:10778000224641465846FEF7BFFD0198641C80B171
:1077900001680022484601F02AFB40B901980168BF
:1077A0004A465046FFF752FF074610B1761C002CA0
:1077B000E3D149463EB1109A16605046FFF7A7FF45
:1077C0007D1EAD41ED0F284600F013BC2DE9F84FAA
:1077D00096B0002103910646FFF7EBFE3046FFF717
:1077E000F6FA002000904FF4C071B06800F5D67032
:1077F00001F07AF8B068C28C00F12C0100F5D67067
:1078000001F074F9B06800F5D67400F058F900255D
:107810001FFA80F974B300271FE06D1C0BF1010BF8
:107820001FFA8BF8C84516DA14F8080001F05FF863
:107830000028F2D1A8B270B1AAB2A9EB0202E019F5
:10784000D21B04EB0801401CA9EB050501F000F870
:107850001FFA85F900251FFA8AF7A9F1010087426E
:1078600008DAE05D01F043F8002807F1010AF2D0E0
:10787000D346D5E7B06800F5D670FEF7D4FCB16802
:10788000401C48853046FEF7F8FE3046FEF7D8FC2F
:1078900008B900F011F9B06800F002F90346019848
:1078A00010B900F009F9A4E02BB100BF62A20221D7
:1078B000FEF7B7FE9DE00025DFF8EC7BDFF8EC0B70
:1078C000DFF8EC1B401A4FEAD008454523D207EBFE
:1078D000C50460680168099800F078FF10B16D1C5C
:1078E000A845EBD2002002900022B068011D0020C4
:1078F0000023002581E82D006168C86808B100F008
:10790000D6F86068039FD0F80890009C4FF00108FB
:107910000DF1240A12E000BF4CA0099B50A2009078
:107920000221304600F0B6F963E000F0C0F84746A7
:107930000298DDF80C80D0F8089000250198804569
:1079400061D25AF828B0AEA1584600F03FFF002897
:1079500000F0528044A1584600F038FF00284BD078
:1079600008F1010003905846FEF783FC90B1002017
:1079700004A90490009142465AF8283049463046FE
:10798000FFF7EFFE02281EBF04980419DDF80C80F3
:10799000D4D138E005A8009002AB2A4641464846BB
:1079A000FEF7B2FC6D1C1CBF029800282BD00168AA
:1079B0005AF8280000F00AFF0028BFD10299C868D1
:1079C0000028B5D0002CB0D03046FEF756FE304629
:1079D000FEF736FC08B900F06FF800BF24A201E002
:1079E0000FF650020221304600F054F93046FEF7FF
:1079F0000AFC17B0BDE8F08FB068D0F8541341F01E
:107A00000201C0F854135CB1B068428D00F5D67124
:107A10002C3001F06BF8B068418DC18400F040F863
:107A2000B0680369002BDBD009A8019900EB87023D
:107A3000C91B30469847D9E76E6F74207465726D24
:107A4000696E617465643A2025630A003A20636FA9
:107A50006D6D616E64206E6F7420666F756E64006C
:107A6000257325730A0000002D2D68656C700000D9
:107A70004572726F723A20726571756573746564D0
:107A8000206D756C7469706C652066756E637469C1
:107A90006F6E20657865637574696F6E730A000098
:107AA00000F12C020C2309A901A8FEF7F2BFB0686F
:107AB000001D102201F01AB83046FEF7BDBC20466A
:107AC000FEF7B1BB0968006800F080BE30B188687D
:107AD000D0F8541341F02001C0F854137047F8B5A2
:107AE00005461446E868426895602B466868DFF8EA
:107AF000CC2906683768B847002843D1686900F088
:107B000027FF00283ED1A86800F5527100220A60C4
:107B10004A604FF4567100F0E7FEA868D0F854139D
:107B200041F02001C0F854130122D0F8541364F33B
:107B30008201C0F854131823D0F8541341F00801FF
:107B4000C0F8541302705021C1838383DFF85C09AD
:107B5000DFF85C19DFF85039411A0022C908DFF854
:107B600060091C1D05E054F832502E6840F8226070
:107B7000521C8A42F7D321B1DFF84839042201F0C0
:107B800092FB0020F2BD70B505461E46FFF7A7FF29
:107B900004000CD15EB10499E86801F073FE00287E
:107BA00001D5042070BDE968CA68012050712046E3
:107BB00070BDA068D0F85403704738B50546A86872
:107BC0000178012901D0082032BD686802689368F5
:107BD0000021984704000FD108212846FEF7FCFD3C
:107BE00001212846FEF722FE28691FA100F082FD30
:107BF00002212846FEF7DDFF204632BD00000000CE
:107C00002D68000038B504461021A26802F55570B1
:107C100001F0A4FEA0680178022918D12046FFF7E0
:107C200051FB0021204600F0F5F980B10FA5236833
:107C30002A46032100F028F800F01AF807D500F1D1
:107C40002C032A4600F01FF82046FEF729FC2046A8
:107C5000FEF7D6FAA068BDE834406FF0100100F5D9
:107C6000557001F093BE00000A0A00002573000061
:107C7000A068D0F8541309077047A068018D084424
:107C800000F12C0332460821204603E00023FEF7D2
:107C900002BB000008B47EB50D4600BF15A1164614
:107CA0000A680192044607AB0193A168D1F8540316
:107CB000C0F3800000281CBF91F82220954214D008
:107CC00069462046FEF7D2FD29462046FEF784FD90
:107CD00000F012F89DF800102046FEF77DFD9DF89B
:107CE00001102046FEF7A2FD01E000F005F877BC88
:107CF0005DF808FB00000000206901AA314601F090
:107D000023BF2DE9F04B0C0001D1BDE8F08B0546F7
:107D1000164613B1B1B2FEF79FFB002700E07F1CAF
:107D2000E05D00F0E4FD0028F9D1FFF7C8FEC11BBB
:107D3000A868C08B801B88424FF0000B04EB07083B
:107D400017D2A9460025834618F8050000F0CFFD9C
:107D500020B118F805000A28AB4636D0D9F808102B
:107D6000CA8B7019904238BF6D1CEDD32DE00BF11A
:107D7000010B8B4512D218F80B000A28F7D12846C0
:107D8000FEF73EFA00F029F80BF1010007442846FF
:107D9000FEF752FBB1B22846FEF75EFB2869E119F7
:107DA00000F0A8FC2846BDE8F04BFEF745BB7F1C61
:107DB000E05D00F09CFD0028F9D12846FEF73CFB71
:107DC000B1B22846FEF748FBAFE74D462846FEF71E
:107DD00017FA00F002F85F44EAE700235A464146EA
:107DE0002846FEF758BA2DE9F84F82460FF6C80923
:107DF00086B00C4617464846FEF715FA05460FF6BC
:107E0000B400FEF710FA281A0FF6B80500951FFA0D
:107E100080F8DAF808000FF24C72436800F0F0F8CE
:107E2000DAF808004068FEF7FEF9064600F0EBF8C5
:107E30008619DAF8080081680023B2B200F0DCF895
:107E40000FF2287200215046FFF724FF002F18BFC1
:107E5000002C1CD0002518E00C266E43201D8059F4
:107E6000FEF7E1F98346A059FEF7DDF983441FFAD6
:107E700088F0584508D2201D8059FEF7D4F9804675
:107E8000A059FEF7D0F980446D1CBD42E4D30FF633
:107E9000240500F0B8F84044801C86B20FF2D86880
:107EA000CDF8009000F0AAF8F01CADF8080000230F
:107EB000BDF808900FF2C8614A4600F09DF8002C0A
:107EC00000F0928004940397002412E05046FEF7DD
:107ED000B3FA0DE020B1009000F090F8BDF80890E2
:107EE000B9680029F2D000231FFA89F200F084F863
:107EF000641C0398844277D204990C2060430F18C5
:107F00007B683868002BE5D048B3019000950821C4
:107F10000FF280625046FFF7BDFEB01CADF80000C6
:107F20007868FEF780F981463868FEF77CF9834669
:107F300000F069F8BDF80010A1EB0901A1EB0B01FD
:107F40008A1E101A81B25046FEF786FA3A21504630
:107F5000FEF7CFF9BDF8000000F10109C0E700937A
:107F6000BAE7002001900025002707E000F04FF855
:107F7000A9B2814202D200F049F8054602A8009059
:107F800001AB3A4601212046FEF7BEF901987F1C5D
:107F90000028EBD1012F2CD00FF2046200215046B3
:107FA000FFF778FE4FF0000904E0FF1C0023BAB28F
:107FB00000F022F802A8009001AB4A4601212046B9
:107FC000FEF7A2F9019809F1010990B10168009149
:107FD000AF1CBBB200F013F8019841680029E4D14E
:107FE0005046FEF729FAE5E7DAF80800C468002CE5
:107FF000B7D107B0BDE8F08F504682E6334642461F
:108000000821504646E62846FEF70DB9019800685B
:10801000FEF709B9F8B505468EB0EB685F683868B9
:108020000E46002201A901F04BFF002408B10020F8
:108030008BE06EB1019800F0D8FCA868D0F844132A
:10804000491CC0F8441301F0070101297CD1012427
:108050002846FEF798F90646B088012804D9411E43
:1080600089B22846FEF704FA3088012804D9411E57
:1080700089B22846FEF7E4F92846FEF7C9F934B17B
:108080000FF22C5202212846FFF704FE5CE0019813
:108090000023082202A900F0FDFC0498BDF80E1090
:1080A00005900826BDF80C00ADF8180000220298D3
:1080B000ADF81A1000F0030001288DF81D2017D12B
:1080C0000298029CC0F3C2008DF81C00082302989D
:1080D000C0F383160198B20008A900F0DBFC286900
:1080E000009005AB324608A9A00A01F0EFFF1FE09F
:1080F000029800F0030002281AD10298029CC0F3F3
:10810000C200A40D8DF81C000827082C98BF274634
:10811000019833463A4608A900F0BCFC2B6905AA31
:10812000394608A802F01AF8BE19E41B002CEBD15E
:10813000019800F05AFCE86843681868002201A919
:1081400001F0BEFE0028A2D001200FB0F0BD73B533
:108150004568AE68B0680078042817D0032814BFBB
:108160000024012404E084F001013046FFF752FFAF
:10817000286801A901F04EFE0028F4D1019800F012
:1081800030FC1CB100213046FFF744FF73BD40684E
:10819000806801213EE710B5406884686068026825
:1081A000936801219847A16800280CBF0320042090
:1081B000087010BD38B514468268D2F85453AD0724
:1081C00004D51A462146FFF70EFE06E039B1536882
:1081D0000FF20C420221FFF75DFD012032BD0020AD
:1081E00032BD38B50229044607D1FFF7E2FC830708
:1081F00003D52046BDE838402CE0AAA520690FF23F
:10820000C842294600F076FA20690FF2C04229469A
:10821000BDE8384000F06EBA012906D0022905D128
:108220008168D1F85413890700D513E001A2022117
:1082300030E50000506C656173652073706563699B
:108240006679206120737562636F6D6D616E642E57
:108250000A00000000220021C5E510B5012914BF65
:108260000121002100F07DF828B900F067F821F025
:108270000401C0F8541310BD10B5012914BF012129
:10828000002100F06EF828B900F058F841F0040120
:10829000C0F8541310BD3EB501290446154603D15C
:1082A00003B0BDE83040D5E7022914BF0121002109
:1082B00000F091F808B900F001F837BD68680FF2D6
:1082C00048310190009102212B680FF23032204694
:1082D000E0E47CB50D46022D164694BF0021012135
:1082E00000F03FF8D0B9022D09D170680FF21831B3
:1082F0000190009102213368FFF7E7FF73BDA0688A
:108300000FF21C32D0F8540302B000072046BDE83B
:1083100070404CBF67A368A30021BBE473BD10B5D8
:10832000012914BF0121002100F01BF828B900F039
:1083300005F821F00801C0F8541310BDA068D0F86A
:108340005413704710B5012914BF0121002100F01A
:1083500008F828B9FFF7F2FF41F00801C0F85413FC
:1083600010BD04460023002224E7F8B5012914BFFC
:108370000121002184B0054600F02DF848BBA86813
:108380000FF2B027D0F84C430026F4B1082E1CD2CF
:1083900000230A2201A9204600F07CFBA868BDF852
:1083A0000C2000F5D6710A23521C204600F072FB07
:1083B000A868029C00F5D671009133463A46002128
:1083C0002846FFF767FC761CDFE7A968002081F8E4
:1083D000AC0105B0F0BD00230022EBE6E0B50129B9
:1083E00003D103B05DF804EB34E702290BD15168E7
:1083F0000FF2142300930191022113680FF2FC1273
:10840000FFF748FC07BD03B094BF002101215DF8D0
:1084100004EB00230022CDE63EB5012914BF012163
:108420000021FFF79EFFB8B9E06841680D68284653
:1084300000688068C0B26421AA6801900292484333
:10844000B0FBF2F0C0B200900021A268D2F8443331
:108450000FF2EC12FFF73BFF37BD10B5012914BF37
:1084600001210021FFF77DFF48B9A168C1F844034D
:10847000E06841680868BDE8104001F087BD10BDA4
:1084800010B5012914BF01210021FFF76AFF38B997
:1084900020690FF2402203A100F02CF900F05CF8F3
:1084A00010BD000025730000E84F0300405003009A
:1084B000E84F03006F6E00006F666600CD7A020021
:1084C000243C0020C57A02002DE9FC410129044624
:1084D000154636D1A06800F11C0500F11E082046A3
:1084E000FEF7EEF810BBA068878A068BFA21FEF72C
:1084F000C2F8FA212046FDF7C7FF2046FEF7E0F854
:10850000A0B9A068818AA8F80010008B28802046B6
:10851000B8F80020D71BB9B2FDF792FF2888861B58
:10852000B1B22046BDE8FC41FDF7A2BF00F014F84F
:10853000204602B0BDE8F0410FF23C120421FFF7E3
:10854000A9BB03298941C943C90FFFF744FF08B9F3
:10855000FFF7B4FEBDE8F381A06850211822C18363
:108560008283704725732573000000004F70746983
:108570006F6E733A0A0000002020252D2A733A00FE
:1085800053686F7720636F6D6D616E642068656CF2
:10859000702E000020202573257325730000000035
:1085A000537562636F6D6D616E64733A0A0000000B
:1085B0004C6F7374206C6F6773202D20696E63722B
:1085C00065617365206C6F67206261636B656E64C3
:1085D0002071756575652073697A652E0A00000043
:1085E00025733A2077726F6E6720706172616D65D6
:1085F00074657220636F756E740A000025733A25E6
:108600007325730A0000000020756E6B6E6F776E25
:1086100020706172616D657465723A20000000001F
:108620004563686F207374617475733A2025730A0B
:10863000000000005B2533645D2025730A00000004
:108640004C6F7374206C6F67733A2025750A4D6107
:1086500078206C6F67207175657565207574696C1D
:10866000697A6174696F6E3A2025752525205B252E
:10867000752F25755D0A00004E6F20726573706F4F
:108680006E73652066726F6D207468652074657204
:108690006D696E616C2C20617373756D6564203833
:1086A000307832342073637265656E2073697A6541
:1086B0000A0000002C2000002D682C202D2D68655C
:1086C0006C700000202D20001B5B48001B5B324AB1
:1086D000000000001B5B3F336C00000010B5044637
:1086E000A2682AB121682069636998470020A060C8
:1086F00010BD0000002900D170470CB438B500BF90
:1087000005A31C68009404AD00956A4601F01CFAAC
:1087100031BC5DF80CFB00000000000000F101031B
:10872000810704D010F8011B820781B1FAD10268D9
:10873000A2F10131914311F0803104BF50F8042FB0
:10874000F6E709BAB1FA81F100EBD100401CC01A7A
:108750007047F0B40246106895681318506803EB30
:108760005004C0071DD54D441BE013F8017B05F8EC
:10877000017B491EF9D1A0B1B60813F8011B06F020
:108780000306032E08BF13F8016B01EB06214942D3
:10879000801C294405D011F8016B05F8016B401EBF
:1087A000F9D1A3420ED013F8016B16F0030104BFF8
:1087B00013F8011BC91C30090F28DAD113F8010B7B
:1087C0000F30D6E7F0BC02F10C00704781EA0003DD
:1087D0009B0717D1820707D010F8012B11F8013B36
:1087E000BAB19A42F6D014E002680B689A42A2F13C
:1087F000013301BF934313F0803F50F8042F51F829
:10880000043FF3D010F8012B11F8013B0AB19A4252
:10881000F8D0D01A704730B4002513E050F8042B7C
:10882000D30744BFA9F101039A18091F042942F88C
:10883000045BFAD213468C0744BF15809B1CC90702
:1088400048BF1D7050F8041B0029E7D130BC7047A9
:1088500081423ABF5318984200F038B980189907FE
:1088600007D0521E24BF13F8011D00F8011DF6D8D1
:10887000704781071BD1103A07D330B433E9321067
:10888000103A20E93210F9D230BC1032121F24BF46
:1088900053F8041D40F8041DF8D838BF121D521EAD
:1088A00024BF13F8011D00F8011DF8D87047121FEE
:1088B000F3D3C10709D153F8041D121F20F8041D7A
:1088C0004FEA31414180F6D2E7E753F8041D121F09
:1088D00000F8041D4FEA3121A0F801104FEA3141A0
:1088E000C170F2D2D9E77600002201F0BDBC10B50C
:1088F000044601F002FD01462046096ABDE8104029
:108900000847FEE75FEA000C80EA01039B0715D1E8
:10891000830706D011F8013B00F8013BB3B1830790
:10892000F8D10A68B2F1013323EA020313F0803F61
:1089300002BF40F8042B51F8042FF3E711F8013B74
:1089400000F8013B13B111F8013BF9E760467047AD
:1089500001F0D8BC2DE9F04105460F462E8A01F002
:10896000E8FC361F040021D0F71900200121FF1C6C
:1089700020716171A046B7FBF6F7E680FFB27F1E5B
:10898000C8F80050002607E06179491C6171C8F8F9
:10899000000005608046761CBE4209D2284601F0E0
:1089A000C8FC0028F0D1204600F005F8002000E0C7
:1089B0002046BDE8F081F8B501460D464C79601EB1
:1089C000002200E0521C2D688242FBD3002605E005
:1089D0000F68284601F0CFFC3946761CA642F7D333
:1089E000F1BD0121001D00F0DDBF1CB504460121D1
:1089F000201D00F0E3FF00909DF8000018B920460C
:108A0000BDE81640D7E713BD2DE9F0471446B0F88E
:108A100006804279256846465643361F5F1903F1A2
:108A2000040CBE42BCFBF8F234BFF31A2B4608FB21
:108A300012CC2360002A01E00068521EFCD1A8EB92
:108A40000C029A469342089F4FF0000988BF924655
:108A50000E4605461C46BCB105EB0C00001D06EB9E
:108A60000903390052460EBF19460146184600F068
:108A70002DF82D68A4EB0A04D14444454FF0000CB6
:108A8000A246E8D9C246E6E7BDE8F0871CB50192E8
:108A9000002402E01CB501920124009401AAFFF712
:108AA000B3FF13BD04E010F8013B6BB1491C521E2B
:108AB00052B10B7890F800C09C45F4D002D24FF030
:108AC000FF307047012070470020704762B38B076A
:108AD00008D0521E11F8013B00F8013B00F0248041
:108AE0008B07F6D1830740F0208000BF103A07D3F0
:108AF00030B4B1E83810103AA0E83810F9D230BCE0
:108B0000530724BFB1E80810A0E8081044BF51F88B
:108B1000043B40F8043BD20724BF31F8022B20F875
:108B2000022B44BF0B7803707047121F17D35B00F2
:108B300009D151F8043B20F8023B1B0C121F20F80E
:108B4000023BF6D20BE051F8043B00F8013B1B0A54
:108B500020F8023B1B0C121F00F8013BF3D238BF78
:108B6000121D521E24BF11F8013B00F8013BF8D83A
:108B7000704710B5044601F0C0FB01462046096964
:108B8000BDE81040084710B5044601F0B6FB0146A9
:108B90002046C969BDE81040084770B50D788DB909
:108BA00070BD11F8013F1678B34206D0401C29462B
:108BB00001F0FAFB40B10146224612F8013F002BBA
:108BC000EFD170BD0C46F2E770BD10B50446080742
:108BD00008D5204601F0F3FB20B12046BDE8104047
:108BE00001F0F7BB204610BD2DE9F04706008A468C
:108BF000904647D03078212813BF5E284FF00109F6
:108C0000761C4FF000090124002724E05C2D05D1DB
:108C10005FEAC87102D400F037F8C5B2002D31D038
:108C200030782D2824D170784146FFF7CEFFC0B2AE
:108C3000002818BF5D281BD0B61C5C2806D15FEA4F
:108C4000C87103D400F020F8C0B2D8B1AA45A8BFBB
:108C5000504500DB012700F017F8C5B25D2D08BFB5
:108C6000002C0BD000242F2DD0D14FF0FF3003E08B
:108C70005545F0D1EEE73046BDE8F0874F45FAD1D3
:108C80000026F8E70020F7E716F8010B41469CE7BD
:108C90002DE9F84306000C4618BF002C17461DD0DE
:108CA000A3F101080BB9032099E0254601E006462F
:108CB000641C00F098F88146C0B240B12A2823D045
:108CC0003F280CD05B2862D05C2876D07DE02078ED
:108CD000F90601D52F2839D00028E5D07EE020788C
:108CE00000287BD02F2802D1B80777D4E0E72E28C0
:108CF000DED17807DCD5AC4270D0B907D8D514F8EE
:108D0000010C2F28D4D169E0307801E016F8010F6A
:108D100000F067F8C1B22A29F8D021782E2909D1AC
:108D2000790707D5AC4259D0BA0703D514F8011C0E
:108D30002F2953D0C1B259B9B80707D5F90605D4C0
:108D40002F21204601F030FB002847D1002046E0CB
:108D5000C0B22F280CD1B8070AD5204601F024FB59
:108D60000400A6D13AE02F2D01D1B80736D4641CF7
:108D7000207800F036F8C5B285B3434627F00402E8
:108D800021463046FFF784FF0128ECD027E0207809
:108D900020B32F2801D1B90720D400F022F80146D2
:108DA0003A463046FFF720FFC0B110F1010F7FF4C3
:108DB0007EAF20785B2811D17AE7F80705D400F060
:108DC00012F88146C0B200B9761E14F8010B00F00B
:108DD00008F85FFA89F981453FF46BAF0120BDE8DF
:108DE000F2833946F1E616F8010B3946EDE64023E9
:108DF0004EE7F8B51446402CA0B005460E460AD200
:108E00003CB12878317805F8011B641E06F8010B87
:108E1000F7D121B0F0BD8027802C98BF27463A4675
:108E200029466846FFF752FE3A4631462846FFF784
:108E30004DFE3A4669463046FFF748FEE41B3D4486
:108E40003E44E8D121B0F0BD2DE9F0411C46402C54
:108E5000A0B005460E4690460DD25CB1287898F831
:108E6000001005F8011B641E327808F8012B06F883
:108E7000010BF3D11CE08027802C98BF27463A468F
:108E800029466846FFF722FE3A4641462846FFF744
:108E90001DFE3A4631464046FFF718FE3A466946FF
:108EA0003046FFF713FEE41B3D443E44B844E2D194
:108EB00020B0BDE8F0812DE9F84305468946174604
:108EC000A9EB0508A0B0B8443C0015E08026802C32
:108ED00098BF2646B91B324649446846FFF7F6FD5F
:108EE000A8EB06022946A819FFF7B2FC32466946EC
:108EF0002846FFF7EBFDA41BE8D121B0BDE8F083C5
:108F00002DE9F04104460D46069F16469846214637
:108F10002846B847002804D5424629462046FFF790
:108F200068FF29463046B847002804D542463146F6
:108F30002846FFF75EFF21462846B847002805D59A
:108F4000424629462046BDE8F04152E7BDE8F0819F
:108F50002DE9F84F4F0003FB01F4BF1C00EB040B9D
:108F600003FB07F4DDF828800091061905460C463E
:108F700091469A4617E0CAF1000034184F4504D0D4
:108F800021463046C047002801D57F1E264652465E
:108F9000314658463C46FFF72CFF7F00BF1CB346C6
:108FA0000AFB07F02E18B945E5D20099A14210D26C
:108FB000641E64080AFB04F02F1839465846C0475F
:108FC000002806DD524659463846FFF712FFBB46D9
:108FD000EBE7BDE8F18F2DE9F54FA3B088462E9E53
:108FE0001C46BFE0FF087F1C23980096674323467A
:108FF00000EB4702C119FFF783FFC7F1000B009692
:109000002346EA19294605EB0B00FFF779FF7800A4
:10901000D344404200962346524659465044FFF7F7
:109020006FFF2398009623465A462946C019FFF73A
:1090300067FF029D00E03D462398A84206D20199B1
:109040006F1829463846B0470028F4D0C14580F053
:10905000238129464846B047002808BFA144F5D0DF
:109060001AE123464A4629464046FFF7EDFE0EE048
:1090700023982E9E874240F098800099884558D0CA
:10908000C145EED1224629464046FFF7B2FEA04434
:109090002544A1440098804580F00381414628463C
:1090A000B047002807D400F3FC80224641464846DA
:1090B000FFF79FFEA144A044ECE726464FF0800B4B
:1090C000802E98BFB3465A46394602A8FFF7FEFCE9
:1090D0005A4651463846FFF7F9FC5A4602A950460F
:1090E000FFF7F4FCB6EB0B065F44DA44E6D1019FD0
:1090F000DDF88CA0BA45BBD26042381801902946F1
:109100002E9A90470028F2D4B2DC60420544DDF884
:1091100004A0402C2F46D0D2002CE8D0204639782D
:109120009AF8002007F8012B401E0AF8011BF6D11F
:10913000DDE72498400800EB50002490A5EB0A05D9
:109140000098249A0096A0EB0900B5FBF4F5B0FB5B
:10915000F4F8A845234644D323982946FFF73BFF5C
:10916000CDF88C902498002841D0B8F1210F3ED33F
:1091700023984FEA580104FB08F8804461434518DE
:109180006042019008EB000A23980295AAEB0000C8
:10919000B0FBF4F7292F05EB0409BFF423AF2398A4
:1091A000009623465246294641E7604200993F18FF
:1091B000884510D10544AF42814405D12246494635
:1091C0002846FFF716FE65E723462A4649463846F5
:1091D000FFF73AFE5EE7224639464046FFF709FEB2
:1091E00069E741464846FFF7F6FEA846BAE7B8F1F8
:1091F000210F2AD35FEA58050BD0239F6D1E0096DE
:109200002346424629463846FFF7A2FE002DF5D1F7
:109210002397239804FB08F14518C4F10009074679
:109220004D44224629463846FFF7E3FDA8F10108E0
:1092300000962346424600213846FFF789FEB8F1E2
:10924000010FEDD825B0BDE8F08FB8F1010FF9D9C5
:1092500023984546C4F100090746804604E02246AB
:1092600041463846FFF727FE6D1EEBD0A044394635
:109270004046B0470028F2D4C246C34600E0DA4672
:10928000CB4459464046B0470028F8D4C245EBD0FD
:10929000224641465046E5E7CDF800802F46C846B5
:1092A000F8E62E9624E7002800D170471CB51C0074
:1092B00004D0009313460A46FFF78DFE13BDFEE768
:1092C00080B5DFF83806FF2100228160026042602D
:1092D00000F21440426002600273DFF82406FFF7D8
:1092E00037FB20B90FF2506001F07DF8002002BD7D
:1092F00030B591B1DFF80C26DFF80C160568DFF801
:109300000C36511A002200E0521CB2EBD10F06D2EB
:1093100033F82240AC42F7D10260002030BD052076
:1093200030BD01B56846FFF7E3FF28B9DFF8E00577
:10933000009950F8310002BD002002BD000000007D
:10934000491EDFF8CC25032902EBC0000BD8DFE86B
:1093500001F00204060802207047042070470079DB
:10936000704740797047002070470246002013681C
:10937000C3F380029AB103F00300012802D002284F
:1093800007D00BE00A68C3F38310801C82180A60C0
:1093900004E008689B0D9B1C1B180B6001207047A4
:1093A000F8B5DFF8584584B004F5836000F012FB8F
:1093B00004F21445284600F00DFB6068A768009091
:1093C0000026009904F10C00394000EB8100694649
:1093D000FFF7CBFF0028F4D101AB009A04F10C0198
:1093E0003A4000F045FAF8D90199BDF80A0001F0B9
:1093F000030101290AD002290FD1019906460098DC
:10940000890DC91C00EB9100009006E0064601980A
:109410000099C0F3831041180091284600F0DCFA4F
:1094200008B100986060304605B0F0BD80B50021FD
:10943000DFF8E00400F086FA80F3100002BD2DE9A9
:10944000F84F0446884693461F460A9DDFF8AC94C1
:10945000FFF7ECFF09F10C0A7E1C00042E4040EAE5
:109460001440E4004AF8260004F0380444EA8B145F
:10947000C4F3090409F10C0044EA88242F4044F0A5
:10948000010440F82740BDE8F18F2DE9FC418846F2
:1094900000218DF800101646DFF860740446684617
:1094A00000F0B0FF3868C8F80000A51CBA68396839
:1094B0007868521C511A411807F21C480FE001212C
:1094C000404600F06FFAFFF76BFF0146404600F0A0
:1094D00069FAB8683968401C411A78684118A9428D
:1094E000EDD32EB1A40104F4707444F0050402E03D
:1094F000A40544F006043968B868014007EB81020E
:10950000D46039689DF800006D183D6000F097FF49
:109510000120BDE8F6812DE9FE43DFF8E063044653
:109520000D4690469946B768012201A94846FFF7C3
:10953000ACFFA8B10198801C002108E007EA0002F6
:1095400006EB820258F82130D360401C491C494583
:10955000F4D300974A46019B29462046FFF76FFF48
:1095600096F8200418B100F077F80028FBD1BDE888
:10957000F78300230022CEE780B50092012300F09C
:1095800012F801BDE0B5009201936A460223FFF78D
:10959000C2FF07BD1FB5069C0092019302940323EE
:1095A00000F001F81FBD6A46B5E72DE9FC47DFF87A
:1095B0004CA3DAF8087005468846914609F1030085
:1095C000002269468008FFF760FF00283BD0009C1E
:1095D000DAF80860A01C0090761C3840361AB600F5
:1095E0000AF10C014E4501EB800002D34A46414688
:1095F00009E032464146FFF769FAA9EB060208EB9B
:1096000006010AF10C00FFF761FAFFF70FFF0AF1FC
:109610000C08661C00043E4040EA15400AF10C01AB
:10962000274048F8260001EB8701BB480A68ED0097
:10963000024005F03805154345EA8955ED08ED006F
:1096400045F002050D609AF8200418B100F004F806
:109650000028FBD1BDE8F3872DE9F847A74E7068D5
:109660003168884285B024D006F582670020B86052
:10967000BFF34F8F7068B468009006F10C0000993A
:10968000214000EB810005E006F10C0004EA010234
:1096900000EB82006946FFF768FE002800F0CB80EF
:1096A000B868002840F0C780306800998142EBD349
:1096B00070600020BCE0029965F39F51029105F1B2
:1096C0000801FFF747F95FEA000A4ED0FFF789F972
:1096D00000F0C8F800982040641C241AA40006F189
:1096E0000C01AC4201EB800119D234B9284606F1D5
:1096F0000C014FF00008002503E0204606F10C089D
:109700002D1BC4B2082322465046FFF7BFF9B8F11B
:10971000000F09D004F10803EAB2414601E0082332
:109720002A465046FFF7B2F9009809F1030100EB11
:109730009100009039E0029901F0030101295AD10A
:109740000299029AC1F383110529C8BF062122F4A8
:10975000707242EA811202920299C1F38311891C4C
:109760008900FFF7F7F85FEA000A44D0FFF739F9FC
:1097700000F078F84FF008094FF0000810E000986A
:10978000411C009106F10C05204005EB80014B4681
:1097900004225046FFF77AF909F1040908F101089B
:1097A0000298C0F383108045E9D33C68B86870B173
:1097B0005046FFF71AF933E0E0684179012904D1F6
:1097C00022681368514620469847E0680468002CD8
:1097D000F2D15046FFF709F900208DF8040001A8E6
:1097E00000F010FEB86808B9009870609DF8040099
:1097F00000F025FE14E03C6805E021688A682046F8
:109800009047E0680468002CF7D14448DFF8F8205E
:1098100044A1801AC008000440F00200FFF7A9FE2E
:109820007068316888420CBF0120002080F0010080
:1098300006B0BDE8F087002002AB009A06F10C01EB
:10984000224000F015F8F8D902992D4801F00301E3
:1098500002297FF470AF029DAD0DA946502DA8BF1F
:10986000502528E70023082202A95046FFF70EB929
:1098700051F8221043F82010401C0099491C01287F
:109880000091704730B5024600201C4BD3F81014ED
:1098900000E0096889B1C9680C798442F9D1401C9B
:1098A0000A28F3DB4FF0FF3030BDC9680D68256032
:1098B000D3F81034D9680A6030BD10F1010FFBD025
:1098C000D1680871D3F81014D4680029EDD1C3F819
:1098D0001024216030BD10B51148046801210174C5
:1098E00008E0E16801224A712046226851688847F1
:1098F000E0680468002CF4D110BD0000503C00204A
:1099000048560300E44E0300644E030000000000CC
:10991000644E03006C40002007003F008C4E0300A3
:10992000604000204261636B656E647320666C75F5
:109930007368656400000000F84B00207F000000A1
:10994000284E002010B5024652E8000F0C4642E8AF
:10995000004393F0000FF7D110BD000010B5024690
:1099600052E8004F44EA010042E8000393F0000F80
:10997000F6D110BD10B5024652E8000F00EA01040E
:1099800042E8004393F0000FF6D110BD10B5024637
:1099900052E8004F04EA010042E8000393F0000F90
:1099A000F6D110BD10B5024652E8004F04EB01009D
:1099B00042E8000393F0000FF6D110BD10B5024647
:1099C00052E8004FA4EB010042E8000393F0000FBF
:1099D000F6D110BD0121C1E70021CBE738B50D4616
:1099E00004460A2D04BF0D21FFF7F8FFA068411CB3
:1099F000A160226815546068814204D32046BDE806
:109A00003240FEF76BBE31BD2DE9F84F8B46012485
:109A1000154602E0B1FBF5F1641CA942FAD29A4660
:109A20000B9FD146A24538BFA14680460A9CF80745
:109A30000BD454B1B8070BD42026A14505D231462A
:109A400000F05EF9641E002CF7D12E46012507E0D8
:109A5000BAF1000FF0D13026EFE7AAF1010A754301
:109A6000BAF1010FF9D8BBFBF5F0B04228BF75433E
:109A7000F9D200BFA3A1BBFBF5F005FB10BB095C4D
:109A800000F03EF9B5FBF6F5002DF2D1F80707D549
:109A900034B1A14504D200F032F9641E002CF8D193
:109AA000BDE8F18F2DE9FC470E0048BF4942012572
:109AB000904602E091FBF8F16D1C4145FADA9A46B6
:109AC0000A9C0B9FD146AA4538BFA94624B1002E57
:109AD00001D4790700D5641E0546B80702D5BAF14E
:109AE000000F0BD0F80709D444B1A14506D22021BC
:109AF0002846FFF773FF641E002CF6D1002E02D516
:109B000076422D2102E0780703D52B212846FFF766
:109B100065FF07F00300022808BFBAF1000F09D162
:109B200044B1A14506D230212846FFF757FF641EF5
:109B3000002CF6D101970094534642463146284600
:109B4000FFF762FFBDE8F3872DE9FE430D00804675
:109B5000174600F0C78015F8011B002900F0BA80F5
:109B6000252940F0B180002602E046F001066D1C78
:109B700029782B2907D02D29F7D0302908BF46F0A6
:109B80000206F4D0B0E046F00406F0E72978A1F12F
:109B900030020A2A0CD200FB04146D1C303C2A2926
:109BA000F4D1396839606D1C51F8042B39601419EF
:109BB000297800232E290BD16D1C04E000FB031132
:109BC0006D1CA1F130032978A1F130020A2AF5D3E6
:109BD000287801E015F8010F6C2818BF6828F9D023
:109BE00025286CD0582822D063280CD0642818BFB0
:109BF00069280FD070284CD073281ED0752812D039
:109C0000782814D05EE03868386050F8041B38605B
:109C1000C9B255E0386838600A2200F06AF8404658
:109C2000FFF740FF4EE0386838600A2202E03868EB
:109C30003860102200F05DF83DE03868386050F878
:109C4000049B38600020F10751D4B9F1000F1CBF0C
:109C50004846FEF763FD064610E000F051F8761C1A
:109C600019F8011B0800F8D1A6422BD254B300F01A
:109C700046F8641EF8E700F042F8641EA64201D2DE
:109C8000002CF8D119F8011B08001BD000F038F89F
:109C9000F8E738683860302150F8044B386000F03D
:109CA0002FF8782100F02CF8082100910020019075
:109CB0000823102221464046FFF7A6FE02E0252198
:109CC00000F01EF86D1C01E000F01AF8287800285A
:109CD0007FF441AF98F80C0020B14046BDE8FE4348
:109CE000FEF7FCBCBDE8F78300240A2057E70026F6
:109CF000B6E750F8041B38600196009470472021A5
:109D000040466BE6303132333435363738394142EC
:109D1000434445462DE9F84F8AB08268D2F854236F
:109D2000930706D50BB0BDE8F04F00220021FEF7E7
:109D30005AB8012907D90BB0BDE8F04F0FF25422F1
:109D40000221FDF7A7BF204A2049521A1823B2FB6F
:109D5000F3F1002764240FF2D8290FF2C82B0990E1
:109D6000089108998F422CD2182219487A438618F4
:109D70003068D0F808A0D6F80C80B568304600F0FE
:109D8000F1F80146307C7369002814BF48465846F4
:109D9000079004FB0AF20695B2FBF5F0CDF814A08B
:109DA000049003950291CDF800806143B1FBF5F07A
:109DB0000190082109980FF2F012FDF76BFF7F1C4C
:109DC000CFE70BB0BDE8F08F5855030040550300B6
:109DD000405503008068814234BF491C0021084679
:109DE000704701460A6810685268824201D3101A0F
:109DF00070478968491C081A1018704710B5016827
:109E00000C684968FFF7E6FFA04201D1012010BDB0
:109E1000002010BD2DE9FC41054600260F468DF8B7
:109E2000006000F098F82846FFF7E8FF5FEA0008B6
:109E30001CBF287C002841D1286844684168284616
:109E4000FFF7C8FF2968B8F1000F486005D009681E
:109E50002846FFF7BFFF29680860EA68012A06D094
:109E6000022A08D0042A0BD0082A0ED015E0686810
:109E70003978015518E06868398820F8141013E023
:109E80006868396840F824100EE06868D7E9002354
:109E900000EBC401C1E9002306E0686802FB04048A
:109EA00039462046FEF712FE2846FFF79AFF29683A
:109EB0008B68984238BF1846886000E0042641E06D
:109EC0002DE9FC41044600260D4690468DF80060C1
:109ED00000F041F8204600F050F890BB2068076879
:109EE000B8F1000F05D101682046FFF773FF216824
:109EF0000860E268012A06D0022A08D0042A0BD0A2
:109F0000082A0ED015E06168C85D28701AE0616803
:109F100031F81700288015E0616851F827002860A3
:109F200010E0616801EBC700D0E90023C5E9002318
:109F300008E0606802FB070739462846FEF7C6FDC1
:109F400000E0052600F00AF83046BDE8F681002161
:109F500004468DF80010684600F054BA9DF80000E1
:109F600000F06DBA1CB5FFF7F2FF2046FFF739FF8E
:109F70000446FFF7F3FF204616BD006801684068FD
:109F8000814201D101207047002070470068002104
:109F90008160704742616420617267756D656E749F
:109FA00020636F756E74000025730D0A092D20451E
:109FB0006C656D656E742073697A653A0925640D68
:109FC0000A092D2055736167653A092575252520F5
:109FD000282575206F7574206F6620257520656CA7
:109FE000656D656E7473290D0A092D204D617869C0
:109FF0006D756D3A092575252520282575206F7505
:10A0000074206F6620257520656C656D656E7473B0
:10A01000290D0A092D204D6F64653A090925730D34
:10A020000A0D0A004F766572666C6F7700000000BB
:10A030004E6F206F766572666C6F77007CB5044654
:10A040000D46E3884BB100BF0FF2D8160FF2DC12B9
:10A0500078A100962846FEF74DFB217A05291CD0F1
:10A06000607A6F4E48B1A088FFF76AF906EB80006E
:10A0700065A142692846FEF73DFBA0880021FFF755
:10A0800050F90346207A56F8202028460DF1080D95
:10A09000BDE870406DA1FEF72DBB73BD38B50C4611
:10A0A000017A052959A507D0407A30B15DA256A1A1
:10A0B0002046FEF71FFB00E01AB129462046FEF7B6
:10A0C00019FB2046BDE83240FEF708BB2DE9F843F6
:10A0D00084B017460C9D2E7B002281460C46984684
:10A0E0002A7329464046FFF7A9FF062F2CD8DFE840
:10A0F00007F004090F1A21161D0049462846FEF7ED
:10A10000F9FA21E0226849462846FEF7F3FA1BE0F7
:10A110006368226849462846FEF7ECFA14E0206995
:10A120000290E1680191A068009007E060690390E7
:10A1300021690291E0680190A1680091636822683A
:10A1400049462846FEF7D6FA002229464046FFF740
:10A15000A5FF2E7305B0BDE8F08300002DE9FC4B90
:10A160008946B9F1080F054698464AD80092002260
:10A1700098F80CB038A688F80C2041460098FFF7F4
:10A180005DFF002722A44F4505D2EA5D31464046D7
:10A19000FEF7B0FA03E021464046FEF7ABFA7F1C1B
:10A1A000082FF0D31BA14046FEF7A4FA00261AA7F9
:10A1B0001AA401954E4516D20198855D7F2D0BDAC4
:10A1C000A5F120005F2808D32846FEF7D2FC20B96D
:10A1D0002846FEF7D8FC00B92E252A4621464046DF
:10A1E000FEF788FA03E039464046FEF783FA761C0C
:10A1F000082EDFD3012200984146FFF74FFF88F871
:10A200000CB0BDE8F38B0000257300000D0A0000C0
:10A21000202020007C0000002000000025630000BA
:10A22000703B00201B5B306D000000001B5B313B6E
:10A2300033316D0025734C6F67732064726F7070DB
:10A240006564202825642925730D0A003C25733E8A
:10A250002025733A200000002025303278000000CD
:10A2600062F30F2262F31F4200B500BF130096464F
:10A270009446103928BFA0E80C50FAD85FEA417C18
:10A2800028BF0CC048BF40F8042BC90728BF20F8DE
:10A29000022B48BF00F8012B00BDFEE7613807E044
:10A2A00005E0A0F161011A2901D20120704741386F
:10A2B0001A288041C00F7047A0F121010F290AD34D
:10A2C000A0F13A02062A06D9A0F15B01062902D3C1
:10A2D0007B380428EDE701207047A0F1090105292A
:10A2E00001D3202801D10120704700207047A0F140
:10A2F00041011A2938BF20307047014870470000DB
:10A30000BC3B002010B508B90E2010BD03684268A0
:10A3100081681A60891A03E013685C1C1460197064
:10A320000B46591EDBB20268002BF5D100201071DC
:10A3300010BD38B5044600258DF80050684600F081
:10A3400061F821686268086882420ED2421E0A6083
:10A350001578208AE36845431D44A36820689A1A4B
:10A3600003799A4238BF1A460A719DF8000000F03E
:10A3700066F8284632BD38B50C46002105468DF8F2
:10A380000010684600F03EF8286801684A1C026028
:10A39000E8682A8A241AB4FBF2F20A709DF80000D9
:10A3A00000F04DF831BDFEE70278C9B28A421AB119
:10A3B0001CBF10F8012FF9E718BF0020704710B537
:10A3C0000446FFF79AFF01462046496ABDE810405F
:10A3D000084710B50446FFF790FF01462046896AFA
:10A3E000BDE810400847806800218160016141613B
:10A3F000C160416001607047EFF3108072B6704732
:10A4000062B6704738B50446FFF7F6FF154A916803
:10A4100071B9012393601449144B1D680D401560F8
:10A420001960596851604FF0FF325A60002100E016
:10A430000121217010B9BDE83140E1E731BD10B50F
:10A44000084CA16869B160B9FFF7D6FF08492268D6
:10A450000A6063684B600021A16010B9BDE810403C
:10A46000CEE710BDB84E0020FC06FFBD80E100E045
:10A4700000E100E000F5E0700268914203D3436818
:10A480001A44914202D380680028F5D17047DFF862
:10A490006C17086890B94FF4805048604FF48032D0
:10A4A0004FF0FF30C86008610420DFF854378A603D
:10A4B0004861C3F8BC01DFF84C0708600120704711
:10A4C00001F1080313F0070F0EBF0023C3F10803C7
:10A4D00003F007031944D21A8161C26042F00103FC
:10A4E0004B60091D4FF0280C41F802C0DFF80C2723
:10A4F0001369C36170472DE9FC4B074601F1080061
:10A5000010F0070F0FBF8946C0F1080000F00700E8
:10A5100001EB000902F1080111F0070F06D002F16A
:10A520000800C0F1080000F0070002441546A5EB42
:10A53000090009EB0306A0EB030B43F00303C9F882
:10A540000430AE4228BF01F005FA2879C10758BF90
:10A5500001F000FABBF1100F38BF01F0FBF9B86948
:10A56000854208D1F9688B44C7F80CB0BE614BF046
:10A570000100706051E1786985420AD1B9688B4465
:10A58000C7F808B07E614BF00100706046F80BB070
:10A5900043E1686800F00301012940F0AC80C00885
:10A5A000C0000190C0081F2839D8AC68D5F80C80CD
:10A5B0000090454508BF01F0CDF9A54208BF01F064
:10A5C000C9F968680099C008C000B0EBC10F18BF96
:10A5D00001F0C0F9009907F1280000EBC1008442A6
:10A5E00006D039698C42C0F08180E268AA427DD1F0
:10A5F000A04506D10098396801238340994339600A
:10A6000076E0804506D0396988456FD3D8F80800D0
:10A61000A8426BD1C4F80C80C8F8084068E0EC6828
:10A62000D5F81880AC420CD0A8683969884223D389
:10A63000C268AA4204BFA168A9421DD1C460A0603B
:10A640001CE005F114010C6834B905F110010C6827
:10A65000A4B101E011460C6804F11402106800284E
:10A6600002BF04F1100210680028F3D1386981425A
:10A6700002D300220A6001E001F06CF9B8F1000F8A
:10A6800036D0E96907F5987000EB810002689542C1
:10A6900008D10460A4B9E869796801228240914335
:10A6A000796025E03869804508D3D8F81010A942B0
:10A6B00014BFC8F81440C8F8104001E001F04AF98E
:10A6C000B4B139698C4211D3C4F81880286928B113
:10A6D000884226BF2061846101F03CF9686938B185
:10A6E0003969884202D36061846101E001F032F986
:10A6F00001996D188B4469684908490069604BF0FD
:10A70000010070604FEADB0446F80BB01F2C23D821
:10A7100007F1280000EBC4084546BBF1100F38BF15
:10A7200001F018F9386820FA04F1CA0705D40121AC
:10A7300001FA04F404433C6007E0D8F808003969E2
:10A7400088422CBF054601F005F9C8F80860EE60A4
:10A75000B560C6F80C8060E05FEA1B2008BF0021EE
:10A7600023D0B0F5803F28BF1F211ED2A0F58072F4
:10A77000120C02F008029040A0F58051090C01F083
:10A7800004018840A0F580431B0CC2F10E0203F0C7
:10A790000203521AD21A984002EBD032D01D2BFA83
:10A7A00000F101F0010101EB4201F161002307F525
:10A7B0009872736102EB810033617A6822FA01F3C7
:10A7C000DC0707D4012303FA01F111437960066025
:10A7D000B0611DE002681F291DBF4908C1F11901C0
:10A7E0000BFA01F1594600E002465068C008C0006B
:10A7F000584516D002F11003C80F03EB800349003F
:10A8000018680028F0D13869834204D31E60B26111
:10A81000F660B66001E001F09DF809F10800BDE8BE
:10A82000F68B396990688A4228BF8842F3D3C660A4
:10A830009660B060F2600020B061EEE72DE9FE4F57
:10A8400004468B46A5692E46904699463146FFF749
:10A8500011FE0268416802EB010AAAF1270111F01A
:10A8600007000EBF0021C1F1080101F007010AEB4A
:10A870000100A0F12F0706F110018F4238BF3746C3
:10A8800007F11802002101920091A8F1280259460F
:10A890002046FFF715FE07F1080010F0070F18BF5C
:10A8A00001F058F81B20786007F1080104F5E0700A
:10A8B00090E80C5081E80C50C0F800B0C0F804805B
:10A8C000C0F80C90816007220198009900E0001DFB
:10A8D000491C00F1080353454260F8D30129D8BF51
:10A8E00001F038F8B74200F09580BF1B301D321DD3
:10A8F000C15949084900D15147F0010070604FEA41
:10A90000D70BF751BBF11F0F21D804EBCB0000F19F
:10A910002805A846102F38BF01F01CF8206820FA3F
:10A920000BF1CA0705D4012101FA0BF1084320609D
:10A9300006E0A868216988422CBF804601F00AF829
:10A94000AE60C8F80C60C6F80880F5606FE0380AA1
:10A9500008BF002123D0B0F5803F28BF1F211ED2A1
:10A96000A0F58072120C02F008029040A0F5805110
:10A97000090C01F004018840A0F580431B0CC2F1D2
:10A980000E0203F00203521AD21A984002EBD032A0
:10A99000D01D27FA00F101F0010101EB420104EBA7
:10A9A0008102002302F59870F1617361336162687E
:10A9B00022FA01F3DB0707D4012303FA01F1114363
:10A9C00061600660B0611DE002681F291DBF490873
:10A9D000C1F1190107FA01F1394600E00246506859
:10A9E000C008C000B84216D002F11003C80F03EB34
:10A9F0008003490018680028F0D12069834204D3FD
:10AA00001E60B261F660B56011E003B0BDE8F04FC2
:10AA100000F0A0BF0BE0216990688A4228BF8842FD
:10AA2000F3D3C6609560B060F2600020B06103B0FF
:10AA3000BDE8F08F2DE9F041704F05463868884633
:10AA400008B9FFF724FDB96801EB08002F30491E53
:10AA500020EA010188457DD205F5D876B06828B195
:10AA6000326889188A4275D2884273D300F076FF23
:10AA700001001CBF0C6811F1010F6BD03068201869
:10AA800005F5D87230605368984238BF1846706038
:10AA9000A86960BB286908B1814200D2296131618F
:10AAA00074610020F0614FF0FF303A686A622862FA
:10AAB00005F128020020D260926002F10807576178
:10AAC0001761801C10322028F5D34D48854208BFFD
:10AAD000A4F1280228D055F8040CC00805EBC002E8
:10AAE000A2F108000A19121A283A01461CE005F5DD
:10AAF000E070024600E092687AB3136857681F441A
:10AB0000B942F8D1137B1F0727D4AB691768BB4242
:10AB100023D3D2F804C06744BB421ED2A444C2F877
:10AB200004C0E868A96922182846FFF7C9FC1FE09D
:10AB30008068C0B103689342FAD1027B130712D434
:10AB4000026801604368E418446043462846BDE853
:10AB5000F041D0E40020BDE8F0812A69914238BF7D
:10AB600029610A19E5E7002322462846FFF766FE19
:10AB7000E8688045EED2A0EB0800A969E86001EB27
:10AB80000802AA6140F00100506048F003004860EC
:10AB900001F10800BDE8F08130B4184B1A6882B9A1
:10ABA0004FF480525A604FF480344FF0FF32DA6035
:10ABB0001A610422124D9C605A61C5F8BC21114AE9
:10ABC0001A6011F1400F17D28269AAB1C368283107
:10ABD00099420BD200F5E0710C68A24203D34D6894
:10ABE0002C44A24202D389680029F5D1C169994257
:10ABF0003CBF4FF0FF32C26100F0A8BE404E0020C3
:10AC0000544600206859883C2DE9F84F00258946B4
:10AC1000090AC9F1000B08BF002323D0B1F5803F1A
:10AC200028BF1F231ED2A1F58072120C02F0080269
:10AC30009140A1F580531B0C03F004039940A1F54A
:10AC40008044240CC2F10E0204F00204D21A121B3A
:10AC5000A14002EBD132D11D29FA01F303F0010327
:10AC600003EB4203074607F5987858F8230030B302
:10AC70001F2B0FBF4C465C08C4F1190409FA04F4F9
:10AC8000AC46594600E064004268D208D200A2EB0C
:10AC900009028A4203D21100054600F06981426927
:10ACA00010304FEAD47B50F82B00002A1CBF8242A0
:10ACB00094460028E7D18B466046B0BBBDBB01225D
:10ACC00002FA03F35B005842796803430B4000F03B
:10ACD0004E81584203405B1E180B00F01000C34029
:10ACE000590901F00801CB409A0802F00402D34050
:10ACF0005C0804F002040818E3401018C3F340068F
:10AD000020183044F3401B1858F823000DE0084683
:10AD10004168C908C900A1EB090159453CBF8B46F0
:10AD2000054601690029F2D140690028F0D1002DC3
:10AD300000F01D81B868A0EB0900834580F0178101
:10AD400039698D42C0F011816868C008C00009EB04
:10AD50000B01884218BF00F0FDFD05EB0906B54266
:10AD600080F00381EC68D5F818A0AC420CD0A8683C
:10AD70003969884223D3C268AA4204BFA168A942A4
:10AD80001DD1C460A0601CE005F114010C6834B949
:10AD900005F110010C68A4B101E011460C6804F142
:10ADA00014021068002802BF04F110021068002885
:10ADB000F3D13869814202D300220A6001E000F039
:10ADC000C9FDBAF1000F36D0E86908EB80000168D0
:10ADD0008D4209D10460200014D1E869796801220C
:10ADE00082409143796026E03869824508D3DAF8D9
:10ADF0001010A94214BFCAF81440CAF8104001E06C
:10AE000000F0A8FDBCB13869844212D3C4F818A080
:10AE1000286930B13969884226BF2061846100F019
:10AE200099FD686938B13969884202D360618461EB
:10AE300001E000F08FFDBBF1100F0CD2D94449F0B6
:10AE40000300291D6860281D51F8092042F0010205
:10AE500040F8092088E049F0030068604BF00100E9
:10AE600070604FEADB0046F80BB01F281DD807EBD7
:10AE7000C00101F12804396821FA00F2D307A34682
:10AE800005D4012202FA00F00843386006E0A06809
:10AE9000396988422CBF834600F05CFDA660CBF880
:10AEA0000C60C6F808B0F4605EE05FEA1B2008BFE3
:10AEB000002123D0B0F5803F28BF1F211ED2A0F56E
:10AEC0008072120C02F008029040A0F58051090C2B
:10AED00001F004018840A0F580431B0CC2F10E0272
:10AEE00003F00203521AD21A984002EBD032D01D5E
:10AEF0002BFA00F101F0010101EB4201F1610022A6
:10AF00007261326108EB81007A6822FA01F4E3078A
:10AF100007D4012404FA01F1114379600660B0619D
:10AF20001DE002681F291DBF4908C1F119010BFA74
:10AF300001F1594600E002465068C008C00058457B
:10AF400018D002F11003C80F03EB80034900186802
:10AF50000028F0D13869834204D31E60B261F660E4
:10AF6000B66001E000F0F6FC14E100F0F3FC0EE145
:10AF70008B46A2E6396990688A4228BF8842F1D39D
:10AF8000C6609660B060F2600020B061ECE72DE929
:10AF9000F84F06468846716848420140491E080B32
:10AFA00000F01000C1404A0902F00802D1408B08AD
:10AFB00003F00403D9404D0805F002051018E940DC
:10AFC0001818C1F34004281806F5987A2044E14087
:10AFD00009185AF821104868C008C0000D46A0EBB7
:10AFE000080909E001464868C008C000A0EB080055
:10AFF00048453CBF81460D4608690028F2D14969A1
:10B000000029F0D130698542C0F0BF806968C90865
:10B0100008EB090BC900594518BF00F09BFC05EB74
:10B0200008008542009080F0B080EF68AC69AF42C4
:10B030000CD0A8683169884223D3C268AA4204BFF1
:10B04000B968A9421DD1C760B8601CE005F11401C0
:10B050000F6837B905F110010F68A7B101E011467B
:10B060000F6807F114021068002802BF07F11002F0
:10B0700010680028F3D13069814202D300220A60AF
:10B0800001E000F067FC002C31D0E8690AEB800099
:10B0900001688D4208D107608FB9E86971680122A3
:10B0A00082409143716022E03069844205D3216976
:10B0B000A94214BF6761276101E000F04BFCB7B102
:10B0C0003069874211D3BC61286930B13169884247
:10B0D00026BF3861876100F03DFC686938B131698D
:10B0E000884202D37861876101E000F033FCB9F156
:10B0F000100F0BD24BF00300291D6860281D51F87A
:10B100000B2042F0010240F80B203DE048F0030123
:10B110002A1D696049F0010042F80800009941F8D1
:10B120000990D6F808804FEAD80BBBF1200F28BF52
:10B1300000F010FCB8F1000F22D006EBCB007769CD
:10B1400000F12804A246B8F1100F38BF00F002FC4D
:10B15000306820FA0BF1CA0705D4012101FA0BF17E
:10B160000843306006E0A068316988422CBF8246FF
:10B1700000F0F0FBA760CAF80C70C7F808A0FC60EC
:10B18000C6F808900098706104E000F0E3FB00202E
:10B19000BDE8F28F05F10800BDE8F28F2DE9FE4F02
:10B1A0000546AFF30080F52DDFF89C6780F0048141
:10B1B0000B2D31BF10250B35ED08ED003068EC0884
:10B1C000E04010F0030F46D0C04300F00100041926
:10B1D00006F1280000EBC408E700D8F808506868BA
:10B1E000C008C000B84218BF00F0B4FBD5F8089002
:10B1F000454508BF00F0AEFB4D4508BF00F0AAFB77
:10B200006868C008C000B84218BF00F0A3FBC8457A
:10B2100007D13068012101FA04F420EA0404346003
:10B220000DE03069814508D3D9F80C10A94204D14A
:10B23000C8F80890C9F80C8001E000F08BFB47F0DB
:10B240000300291D6860281DCA5942F00102C2513D
:10B2500005F10804F8E0B168A94280F0BE8000283A
:10B2600000F0A1804FF0010808FA04F1490000FA4B
:10B2700004F4484201430C4060420440641E200B29
:10B2800000F01000C440610901F00801CC40A208A0
:10B2900002F00402D440630803F002030818DC4003
:10B2A0001018C4F3400718183818FC40241806F189
:10B2B000280000EBC40AE700DAF80890D9F8040087
:10B2C000C008C000B84218BF00F044FBD9F808B06D
:10B2D000D14508BF00F03EFBD94508BF00F03AFB5E
:10B2E000D9F80400C008C000B84218BF00F032FB13
:10B2F000DA4506D1306808FA04F420EA0404346020
:10B300000DE031698B4508D3DBF80C00484504D1CA
:10B31000CAF808B0CBF80CA001E000F01BFB7F1BC3
:10B3200045F0030009F10402C9F8040047F00101E7
:10B33000515109EB05020192D751B4684FEAD40A82
:10B34000BAF1200F28BF00F005FB34B3CDF800A000
:10B3500006F12800756900EBCA0AD346102C38BFE5
:10B3600000F0F8FA3168009821FA00F2D30704D40B
:10B3700008FA00F00843306007E0DAF808003169A5
:10B3800088422CBF834600F0E5FACAF80850CBF893
:10B390000C50C5F808B0C5F80CA0B76009F1080456
:10B3A0000198706150E07068C0B329463046FFF7DD
:10B3B000EEFD040011D047E015F1400F28BF4FF01B
:10B3C000FF350AD20B35ED087068ED0028B129462B
:10B3D0003046FFF719FC040036D1B068A8421DD3EF
:10B3E000411B726910290AD350197061B16041F094
:10B3F00001034360415045F0030555600BE0002117
:10B40000B1607161131D40F003015160111D1C58A2
:10B4100044F001040C5002F1080415E0F068854284
:10B420000DD2401BB169F0604A19B26140F00100D1
:10B43000506045F003054D6001F1080404E0294621
:10B440003046FFF7F7FA0446AFF300802046FFF7D7
:10B45000EEBA002800D170472DE9F047A0F10805A9
:10B46000AFF30080DFF8E06431698D42C0F05982AB
:10B47000686800F00302012A00F05382C2084FEA14
:10B48000C209C20705EB090839D42C6810F0030F74
:10B4900000F04982604205448D42A144C0F04182DF
:10B4A0007069854200F0C680E408202C5ED2D5F891
:10B4B0000CA0AF68554508BF00F04CFABD4208BF6C
:10B4C00000F048FA6868C008C000B0EBC40F18BFAD
:10B4D00000F040FA06F1280000EBC400874205D0D6
:10B4E00031698F423FD3FA68AA423CD1BA452CD188
:10B4F0003068012101FA04F420EA0404346045456F
:10B5000080F00F82D8F80440E00740F10A82A107DA
:10B5100000F16881B069804540F09F80F168B561B5
:10B520008944C6F80C9049F00100686071698D4249
:10B5300002D100207061B060F069484580F0F3816D
:10B5400000213046FFF728FBEDE1824506D0306947
:10B55000824508D3DAF80810A94204D1C7F80CA034
:10B56000CAF80870CBE700F0F5F9C8E7EC68AF69F6
:10B57000AC420BD0A868884222D3C168A94204BF5C
:10B58000A268AA421CD1C460A0601BE005F11402AD
:10B59000146834B905F1100214689CB101E01A4630
:10B5A000146804F114031868002802BF04F11003A2
:10B5B00018680028F3D18A4202D30021116001E00B
:10B5C00000F0C8F9002F9AD0E96906F5987000EBF1
:10B5D00081000268954209D10460200011D1E86918
:10B5E0007168012282409143716088E73069874227
:10B5F00005D33969A94214BF7C613C6101E000F0C8
:10B60000A9F9002C3FF47BAF31698C42ABD3A76121
:10B61000286928B1884226BF2061846100F09AF928
:10B62000686900283FF46BAF316988429BD3606141
:10B63000846164E798F8040000F0030003287FF4B5
:10B640005EAFC6F8089049F00101D8F80400400840
:10B650004000C8F8040069600AE0706980450AD1BA
:10B66000B16875618944C6F8089049F001006860C6
:10B6700045F8099057E1E408E400A144E408202CCF
:10B680003AD2D8F80CA0D8F80870D04508BF00F01E
:10B6900061F9B84508BF00F05DF9D8F80400C008AA
:10B6A000C000B0EBC40F18BF00F054F906F1280039
:10B6B00000EBC400874207D031698F42C0F085801B
:10B6C000FA68424540F08180BA4507D130680121CF
:10B6D00001FA04F420EA0404346078E0824506D0DC
:10B6E0003069824571D3DAF8081041456DD1C7F849
:10B6F0000CA0CAF808706AE0D8F80C40D8F81870A6
:10B7000044450DD0D8F808003169884223D3C26877
:10B71000424504BFA16841451DD1C460A0601CE042
:10B7200008F114010C6834B908F110010C68A4B1D7
:10B7300001E011460C6804F114021068002802BFF1
:10B7400004F1100210680028F3D13069814202D35D
:10B7500000220A6001E000F0FDF8002F37D0D8F891
:10B760001C1006F5987000EB8100026890450AD124
:10B770000460200012D1D8F81C00716801228240B8
:10B780009143716023E03069874205D339694145AF
:10B7900014BF7C613C6101E000F0DCF8BCB13169B0
:10B7A0008C4212D3A761D8F8100028B1884226BF76
:10B7B0002061846100F0CEF8D8F8140038B1316906
:10B7C000884202D36061846101E000F0C3F849F06F
:10B7D0000100686045F8099071698D420BD1C6F887
:10B7E0000890A0E064086400C8F8044049F0010033
:10B7F000686045F809904FEAD907202F22D206F158
:10B80000280000EBC704A046B9F1100F38BF00F0C4
:10B81000A1F8306820FA07F1CA0705D4012101FA1E
:10B8200007F70743376006E0A068316988422CBFFC
:10B83000804600F08FF8A560C8F80C50C5F8088065
:10B84000EC6070E05FEA192008BF002123D0B0F55A
:10B85000803F28BF1F211ED2A0F58072120C02F07B
:10B8600008029040A0F58051090C01F004018840C5
:10B87000A0F580431B0CC2F10E0203F00203521A22
:10B88000D21A984002EBD032D01D29FA00F101F013
:10B89000010101EB420106F59872002302EB8100E1
:10B8A000E9616B612B61726822FA01F3DC0707D44E
:10B8B000012303FA01F1114371600560A8611DE0E5
:10B8C00002681F291DBF4908C1F1190109FA01F1D8
:10B8D000494600E002465068C008C000484526D0EE
:10B8E00002F11003C80F03EB800349001868002819
:10B8F000F0D13069834204D31D60AA61ED60AD6070
:10B9000001E000F027F8306A401E30620BD1D6F813
:10B91000C80100E080680028FCD14FF0FF303062A1
:10B9200001E000F017F8AFF30080BDE8F08731695F
:10B9300090688A4228BF8842E3D3C5609560A860BA
:10B94000EA600020A861DEE75446002030BC0020F9
:10B9500070470000012000F017B8FEE707490868AB
:10B9600008B1002070470648C008C00008600549BB
:10B97000C908C900091A0160704700BF404F002084
:10B98000EF700020E89000202021090326311820C4
:10B99000ABBEF9E700F0A8BDF8B505462878002849
:10B9A00038D1DFF8D417DFF8D4470FF654070C1B53
:10B9B000E408240444F004040FF610012046FDF7C7
:10B9C000D8FDAA8A29692046FDF7EFFD002613E07D
:10B9D0002869805D00F061FE04000CD0112CF7D0C6
:10B9E00000F09CF92246394640F00100FDF7C4FD05
:10B9F000204600F079FD761CA88A8642E8D32A69A1
:10BA0000104410F8011C0D2904D10A2000F045FE55
:10BA10001128FAD0F1BD007840B9DFF8642710880A
:10BA20003B2176DF002818BF00F05EBD704700F0B4
:10BA30005BBD80B5002000F0B0FF08B100F054FD00
:10BA400001F06FF808B100F04FFD33DF00B10BE0FB
:10BA500001BD80B530B1032805D1022000F09DFF63
:10BA600008B101E0B7E001BDBDE8024000F03CBD17
:10BA70007CB50446DFF80007DFF80037DFF8005731
:10BA80002688C31ADB081B042888102E43F0030203
:10BA90000CD0112E1CD0132E32D0212E21D03B2EB3
:10BAA00038D0522E31D0562E34D073BD0FF27C7167
:10BAB0001046FDF75EFD072000F06FFF08B100F0B3
:10BAC00013FDA188298005F1200001F0ABF824E0E6
:10BAD0000FF264711046FDF74CFD4FF6FF702880A1
