:020000040002F8
:10600000A04C002061E20200338102007B8F02007D
:10601000B39D0200A7A302006BBC020000000000B9
:106020000000000000000000000000008FBE020021
:1060300073C002000000000023C802005FD002000D
:10604000BFD10200F1DC0200AD80020017DE0200C9
:1060500023DE0200D7E402003D680200D9E402001A
:10606000DBE40200DDE40200DFE40200E1E4020020
:10607000E3E40200E5E40200E7E40200E9E40200F0
:10608000EBE40200CDB60200EDE40200EFE4020012
:10609000F1E40200F3E4020051AF0200F5E4020073
:1060A000F7E40200F9E40200FBE40200FDE4020070
:1060B000FFE4020001E50200000000000000000013
:1060C00003E5020005E5020007E5020009E502001C
:1060D0000BE502000DE502000FE5020000000000E4
:1060E00000000000000000000000000000000000B0
:1060F00000000000000000000000000000000000A0
:10610000000000000000000000000000000000008F
:10611000000000000000000000000000000000007F
:10612000000000000000000000000000000000006F
:10613000000000000000000000000000000000005F
:10614000000000000000000000000000000000004F
:10615000000000000000000000000000000000003F
:10616000000000000000000000000000000000002F
:10617000000000000000000000000000000000001F
:10618000000000000000000000000000000000000F
:1061900000000000000000000000000000000000FF
:1061A00000000000000000000000000000000000EF
:1061B00000000000000000000000000000000000DF
:1061C00000000000000000000000000000000000CF
:1061D00000000000000000000000000000000000BF
:1061E00000000000000000000000000000000000AF
:1061F000000000000000000000000000000000009F
:10620000012210F01F018A40DFF8681803005BB21A
:106210005B0941F82320704710B4020052B2002AF3
:106220000AD54A01DFF85038040064B214F00F04B4
:10623000234403F8042C05E04A01DFF84038040049
:1062400064B21A5510BC704738B504000D0029001F
:10625000C9B2200040B2FFF7DFFF31BD10B5040026
:10626000200040B2FFF7CCFF10BD10B504002000A5
:1062700000B200F018F80068012801D1012000E008
:106280000020C0B210BD1CB50400200000B200F018
:106290000AF800210160200000B200F004F8006854
:1062A0000090009813BD00B200F1804010F5C0408E
:1062B0007047DFF8CC1708607047DFF8C817086030
:1062C0007047DFF8BC17096808407047DFF8B81757
:1062D00051F8202052F0010241F820207047DFF8E9
:1062E000A81751F820205208520041F8202070478A
:1062F00070B4DFF8944754F82050DFF890371D4011
:1063000044F8205054F820300D0215F4F8551600CA
:10631000F6B2360416F4403635432B4344F82030A9
:1063200070BC7047DFF8601751F82000C0F30420FC
:106330007047DFF8541751F82000000C10F00300EC
:10634000704701005FF0A04070472DE9F14181B036
:106350000E0017009846089C099D01A8FFF7F1FF61
:106360003100C9B23A00D2B251EA42014246D2B239
:1063700051EA82012200D2B251EA02212A00D2B2AD
:1063800051EA0241019A00EB8202C2F80017BDE80F
:10639000F3813EB504000D00002001900020009024
:1063A0002B00DBB2002200212000FFF7CEFF37BD1B
:1063B00001B56846FFF7C5FF009900EB8101D1F8F0
:1063C000001731F00201009A00EB8202C2F80017B8
:1063D00001BD11B581B00C0001A8FFF7B2FF019912
:1063E00000EB8101D1F8001731F44031019A00EB44
:1063F0008202C2F80017019900EB8101D1F8001761
:106400002200D2B251EA0241019A00EB8202C2F8A4
:10641000001713BD11B581B001A8FFF792FF04006A
:10642000200000F012F80199C84010F0010016BDDC
:1064300001B56846FFF785FF009900EB8100D0F8B1
:106440000007000C10F0030002BDD0F810057047E3
:10645000F8B504000D0016006846DFF834160A6827
:10646000026027002819874208D2684650F82700A2
:10647000FFF7EBFF3060361D7F1CF3E7F1BD10B472
:106480000A000300DB0810F00700012414FA00F0F2
:10649000D25C104010BC704730B40A000300DB0827
:1064A00010F00700D45C012585402C43D45430BC47
:1064B0007047DFF8E01501EB000292F93020002A66
:1064C00006D4084490F93000082801DA012000E0E1
:1064D0000020002801D0012000E00020C0B2704759
:1064E000DFF8B015084490F93000082801DB0120DE
:1064F00000E00020C0B27047DFF89815084490F91A
:106500003000002801D4012000E00020C0B2704714
:1065100030B4DFF8805505EB000484F8301045F8FE
:1065200021201C00E4B2002C03D105EB010484F807
:10653000480030BC70475FF0FF31DFF85825024457
:1065400082F83010704710B50400DFF84C152000B9
:10655000FFF7A2FF10BDDFF83C15084490F93000AA
:106560007047DFF8301551F8200070472DE9F047EB
:1065700004000D0016005FF0FF373000C0B20028A5
:1065800002D05FF0000801E05FF008083000C0B200
:10659000002802D05FF0080901E05FF00C09C24654
:1065A000CA4513D2DFF8EC0450F82A0010F1010FAD
:1065B00009D13300DBB22A0051462000FFF7A8FFC3
:1065C0005046070002E01AF1010AE9E7380040B23C
:1065D000BDE8F087DFF8BC145FF0FF320300DBB2E8
:1065E00041F823200200D2B2082A06DB5FF0FF3216
:1065F0000300DBB2194481F8482070472DE9F041CF
:10660000DFF8904494F85800002801D0082031E0C9
:1066100000263000C0B2202805DA3000C0B2FFF7F3
:106620008AFF761CF5E700252800C0B20C2805DAA1
:106630002800C0B2FFF7CEFF6D1CF5E70426002747
:1066400014F154083A003100404600F027FA0621C0
:106650000620FFF7F9FD0620FFF700FE4FF4BE709D
:10666000FFF711FE5FF00040FFF723FE012084F8E2
:1066700058000020BDE8F081DFF8180490F85800B9
:10668000002801D0012000E00020C0B270472DE9B1
:10669000F04104000D00160000272000FFF72CFF3A
:1066A000002802D00820070046E0AA78D2B252089B
:1066B00012F0010231002000FFF758FF80464046EB
:1066C00040B210F1010F35D0A878C0B2800810F0A8
:1066D000010000280FD1A87810F00100002803D095
:1066E0002000FFF765FE03E069782000FFF751FE08
:1066F0002000FFF728FFA878C0B2400810F0010082
:10670000002806D02A782100404640B2FFF7F0FD6D
:1067100012E0DFF88003414649B2014491F8481085
:1067200095F9002051EA82114FFA88F8404480F828
:10673000481001E0042007003800BDE8F0812DE991
:10674000F04104000D002000FFF7CAFE002825D00C
:106750002000FFF700FFDFF83C1340B2084490F838
:1067600048804746FFB2BF093800C0B2032808D1AD
:106770002000FFF74FFE002801D0032608E0022684
:1067800006E03800C0B2012801D1022600E003264D
:106790003100C9B22000FFF71CFE24E02000FFF703
:1067A00088FE00281FD02000FFF7D5FE0600B700A6
:1067B00017F580773000FFF789FD380000B2FFF74A
:1067C00062FD2800C0B200280DD02000FFF7C3FEF4
:1067D00040B2FFF7C6FE80464046002803D00120A5
:1067E000B040FFF766FDBDE8F08138B50400200039
:1067F000FFF776FE002804D000212000FFF7E9FD16
:106800000FE02000FFF755FE00280AD02000FFF718
:10681000A2FE05002800FFF762FD0120A840FFF757
:106820004CFD31BD10B504002000FFF7F3FD00283A
:1068300001D0012000E00020C0B210BD2DE9F84FCA
:1068400086B00020019002A8002101604FF4807002
:10685000ADF8020001250026082E19D2BDF902006C
:10686000FFF703FD00280BD02800FFF72AFD0028C2
:1068700006D0BDF90200FFF706FD019828430190FC
:106880006D00BDF80200001DADF80200761CE3E7C4
:106890004FF4BE70FFF7E9FC00280CD04FF4BE7037
:1068A000FFF7F1FC019850F00040019002AA01218D
:1068B0000020FFF7CDFD019800061ED00120050045
:1068C00000200600082E18D20198054212D0300090
:1068D000FFF728FD04003000FFF72BFD0700300014
:1068E000FFF73FFE80464046002803D03900C9B27A
:1068F0002000C0476D00761CE4E70198002840F1B5
:10690000B480002704A8002101600024002C06D1D7
:106910005FF0FF3005A941F82400641CF6E7002071
:10692000070000200600042E65D25A4800EB06013D
:1069300091F850108DF801109DF8018038F0C008D2
:10694000304490F9500010F1010F52D005A9404693
:10695000FFF795FD00284CD09DF80100C0B28009DA
:106960008DF800004046FFF7F6FD40B2FFF7F9FD55
:1069700081464846002803D19DF80000032838D1FD
:106980009DF80000032803D104A94046FFF784FDC9
:106990004046FFF74DFD824602A94046FFF76FFDD6
:1069A00003900398002803D05046C0B2022806D0B6
:1069B000039800281DD15046C0B2032819D19DF874
:1069C000000003280ED15046C0B2022802D15FF069
:1069D000030B01E05FF0020B5946C9B24046FFF7D6
:1069E000F8FC7F1C4846002803D09DF80010404664
:1069F000C847761C97E73800C0B2002830D05FF057
:106A0000010803AA01210020FFF722FD0020040055
:106A1000002C0CD103A850F8240002A951F824102E
:106A2000884202D00020804601E0641CF0E7404626
:106A3000C0B2002802D00020070011E000200400AE
:106A4000002C0DD103A850F8240002A941F824001D
:106A500004A850F8240005A941F82400641CEFE7BD
:106A60003800C0B200287FF45AAF07B0BDE8F08FFD
:106A70000000000000E100E018ED00E000E400E0AC
:106A8000046300400863004010650040FFE0FCFF25
:106A9000C4E4020094290020E829002062F30F22B8
:106AA00062F31F42401810F0030308D0C91A1FD325
:106AB000DB0748BF00F8012D28BF20F8022D130086
:106AC00030B414461546103928BF20E93C00FAD8E6
:106AD000490728BF20E90C0048BF40F8042D890071
:106AE00028BF20F8022D48BF00F8012D30BC7047A8
:106AF000C91818BF00F8012DCB0728BF00F8012DD9
:106B00007047F0B40246106895681318506803EB9C
:106B10005004C0071DD54D441BE013F8017B05F858
:106B2000017B491EF9D1A0B1B60813F8011B06F08C
:106B30000306032E08BF13F8016B01EB062149423F
:106B4000801C294405D011F8016B05F8016B401E2B
:106B5000F9D1A3420ED013F8016B16F0030104BF64
:106B600013F8011BC91C30090F28DAD113F8010BE7
:106B70000F30D6E7F0BC02F10C00704738B50400C6
:106B80000D002900200022681268904731BD10B521
:106B90000400200021684968884710BD10B5040032
:106BA000200021688968884710BDC268117170474C
:106BB000C068007970470121C26851717047C06890
:106BC0004079704770B505000E00DFF8D007FF214F
:106BD000816000210160002141600021C0F818148B
:106BE0000021C0F81414002180F82014DFF8B00749
:106BF00000F0E8FB0400002C01D020000AE0DFF8E0
:106C0000A40700F0F2FCDFF8A007DFF8A017411A94
:106C1000C908002070BDDFF89007DFF89017401A10
:106C2000C008704770B504000D002800C0B20028ED
:106C300014D0FFF7F0FF010000228A420CD2DFF8E7
:106C4000700700EB820318882668B04202D12260E8
:106C5000002004E0521CF0E7052000E0002070BD99
:106C600011B581B00C002100C9B201A8FFF7DAFF0D
:106C7000002806D1DFF83C07019900EBC10000684D
:106C800000E0002016BD0200DFF8280700EBC20379
:106C90000800C0B2012806D00DD3032807D004D3C2
:106CA000042806D007E0022006E0042004E018795A
:106CB00002E0587900E00020C0B2704710B4030031
:106CC00000201A68C2F38002002A18D01A7812F045
:106CD0000302012A02D0022A08D00EE00A681C68CA
:106CE000C4F38314A41CA2180A6006E00A681C6896
:106CF000A40DA41CA2180A60FFE701221000C0B274
:106D000010BC70472DE9F84384B00024DFF88C569E
:106D100015F5836000F0CDFC05F21449484600F0FB
:106D2000C8FC68680090AE680098304005EB8000B1
:106D300010F10C0769463800FFF7C0FF002806D0A5
:106D40000098304005EB80000C300700F2E75FF060
:106D50000008B8F1020F0DD20098304005EB80001A
:106D6000C06801A941F828000098401C009018F163
:106D70000108EEE7019810F0030001280CD002286A
:106D800014D1BDF80A00040000980199890DC91CAE
:106D900010EB9100009009E0BDF80A000400009992
:106DA0000198C0F3831041180091FFE7484600F0B6
:106DB00087FC0100002901D000986860A4B220007F
:106DC00005B0BDE8F08380B50021DFF8EC0500F0E8
:106DD0001FFC010081F3100002BD2DE9F8430400FF
:106DE0000D0016001F00DDF82080A1465FEA19495A
:106DF000FFF7E9FFDFF8A4157A1C18EA020201EB9D
:106E0000820259EA0043D36018EA070201EB8201CB
:106E10000C310A6864F3C5020A600A6866F38912D5
:106E20000A600A6865F39F220A6001220B6862F318
:106E300001030B600A6832F004020A60BDE8F183C6
:106E40002DE9FE4F04000D001600A01C0190012743
:106E500000208DF80000684600F0A6FCDFF83C85B5
:106E6000D8F800002860D8F80800401CD8F8009036
:106E7000B0EB0909D8F8040010EB09090198814525
:106E800017D208F21C4B0121584600F0F7FBFFF720
:106E900039FF82465146584600F0F0FBD8F80810FA
:106EA000491CD8F80000091AD8F80400411889468E
:106EB000E4E73800C0B2002823D000213000C0B27F
:106EC000002807D0012060F3010151F0040164F3B0
:106ED000891106E0022060F3010151F0040164F31E
:106EE0009F51D8F80020D8F80800024008EB820033
:106EF00010F10C021160D8F800300198C318C8F8DE
:106F000000309DF8000000F055FC3800C0B2BDE82C
:106F1000FE8F2DE9FE4F04000D0016001F00DFF864
:106F20007C94D9F80880012201A93800FFF788FF76
:106F300000281BD0DDF804A01AF1020A5FF0000B54
:106F4000BB450BD218EA0A0009EB800056F82B105B
:106F5000C1601AF1010A1BF1010BF1E7CDF80080C5
:106F6000019B3A0029002000FFF737FF99F8200421
:106F7000002803D000F047F80028FBD1BDE8F78FC8
:106F800038B504000D000023002229002000FFF77F
:106F9000C0FF31BD7CB504000D0016000096012332
:106FA0006A4629002000FFF7B4FF73BDFEB5040058
:106FB0000D0016001F000096019702236A46290063
:106FC0002000FFF7A6FFF7BD2DE9FF4104000D00EB
:106FD00016001F00DDF8288000960197CDF8088084
:106FE00003236A4629002000FFF793FFBDE8FF81D5
:106FF000DFF8A80341680068814201D1012000E068
:107000000020C0B270472DE9F04F8BB0FFF7F0FFC2
:10701000002801D000205FE1DFF880730020C7F86E
:107020001804BFF34F8F78680090B86802900099F9
:107030000298014007EB81000C30099000250026E2
:107040000020089069460998FFF738FE002813D001
:10705000D7F8180400280FD100983968884203D364
:1070600038687860002037E100990298014007EB0A
:1070700081000C300990E5E75FF00008B8F1020FDD
:107080000ED200990298014007EB8100C06803A965
:1070900041F828000098401C009018F10108EDE725
:1070A000039810F00300022840F07F80DDF80C9078
:1070B0005FEA99590398800D502804DADDF80CA096
:1070C0005FEA9A5A01E05FF0500A03986AF39F5012
:1070D00003901AF108000A900398C0F3C2000890C8
:1070E0000A99AF4800F074F90500002D00F0A28065
:1070F000280000F0D3F93300082203A9280000F08B
:1071000056FA08360299491C009A02980240891AD8
:107110008C00544535D2002C07D0009902980140CC
:1071200007EB81000C30079002E017F10C0007908C
:10713000002C01D0A34600E0D346002C03D017F169
:107140000C00069001E000200690002C02D0BAEB63
:10715000040000E000208DF8040033005A46D2B24B
:107160000799280000F023FA56FA8BF606980028B3
:1071700014D033009DF804200699280000F017FA77
:107180000CE000990298014007EB810010F10C0B14
:10719000330052465946280000F009FA009819F1C8
:1071A000030910EB9900009044E0039810F00300ED
:1071B00001283FD10398C0F38310062803DA03980F
:1071C000C0F3831000E00620039960F38911039156
:1071D0000398C0F38314A41C0398C0F3C200089062
:1071E000A1006F4800F0F4F80500002D22D028001F
:1071F00000F054F93300082203A9280000F0D7F961
:107200000836002080460398C0F38310804511D2D1
:107210000099481C0090330004220298014007EBBB
:10722000810010F10C01280000F0C1F9361D18F1A1
:107230000108E8E7002D33D0D7F81044D7F8180438
:10724000002803D0280000F031F93DE0002C13D0D5
:107250005FF000092000FFF7B2FC012801D10120F6
:1072600081464846C0B2002803D029002000FFF71D
:1072700085FCE0680468E9E7280000F017F90020C1
:107280008DF8040001A800F08FFAD7F81804002840
:1072900001D1009878609DF8040000F08BFA13E0AB
:1072A000D7F81044002C05D02000FFF777FCE068E9
:1072B0000468F7E7414942483C4A801AC008000484
:1072C00050F00200FFF75CFEFFF792FE002801D1AC
:1072D000012000E00020C0B20BB0BDE8F08F70B517
:1072E00000260A2E1ADA2D48D0F8100404000120D6
:1072F0000500002C0AD02000FFF75AFCB04202D152
:107300000020050002E0E0680468F2E72800C0B24F
:10731000002801D0300003E0761CE2E75FF0FF3088
:1073200070BD70B504000D00FFF7D9FF060016F11F
:10733000010F01D130001BE030000100C9B2200074
:10734000FFF733FC1549D1F81004002805D1C1F826
:1073500010440020E168086009E0D1F81004C0681A
:107360000068E2681060D1F81004C0680460300062
:1073700070BD10B50948D0F81044012180F82014E0
:10738000002C08D02000FFF716FC2000FFF7FFFBC1
:10739000E0680468F4E710BD00000000B42300209A
:1073A0007CE10200F8E2020048D50200D0D40200DD
:1073B00000000000D0D40200D0270020C8E0020066
:1073C000F0D4020010B50400200000F008FA10BD4F
:1073D0002DE9F84F06000F00B6F81080B8F1040848
:1073E00018EB0700C01CB0FBF8F9300000F015FAEC
:1073F0000500002D01D1002027E000202871012088
:107400006871A5F806800095CA465FFA8AFABAF153
:10741000010A009806605FF0000BD34514D23000DB
:1074200000F0FBF90400002C09D06879401C687159
:1074300000980460266000941BF1010BEDE7280022
:1074400000F005F8002000E02800BDE8F28F2DE9EB
:10745000F84F05002E0077792900B8465FFA88F8C2
:10746000B8F101080020404502D20968401CFAE743
:10747000D1F80090AA465FF0000B3800C0B28345F7
:107480000AD2DAF8000004005146484600F0F1F94B
:10749000A2461BF1010BF0E7BDE8F18F38B50400FF
:1074A00025000121281D00F0E9F831BD7CB504005C
:1074B00025000121281D00F0EFF800906E4630787D
:1074C000002802D12000FFF7C2FF73BD2DE9FF4F56
:1074D00087B007980190DDF81C800198C688019854
:1074E00040794643361F0198C08800900A98001DD5
:1074F0000099B0FBF1F50A99091D0098B1FBF0F76E
:10750000009800FB1717099801680A9841188E42E5
:1075100002D20A9C341B01E00998046809980460AF
:10752000002D03D0D8F800806D1EF9E75FF0000948
:10753000DDF800A0BAEB070A544501D2A246FFE7E6
:10754000002C31D008984844039008EB0700001D38
:1075500002909DF8500000280BD0CDF814A002989E
:107560000490DDF80CB0059A0499584600F09AF999
:107570000AE0CDF814A003980490DDF808B0059A4D
:107580000499584600F08EF900200700D8F80080D2
:10759000B4EB0A041AEB09090098844201D2A2460E
:1075A000CEE7DDF800A0CBE70BB0BDE8F08FFEB56D
:1075B00004000D0016001F000196002000903B0003
:1075C00001AA29002000FFF781FFF7BDFEB50400E6
:1075D0000D0016001F000196012000903B0001AA3B
:1075E00029002000FFF772FFF7BD0021826891603B
:1075F0000021826811610021826851610021826846
:10760000D16000218268516000218268116070475A
:1076100010B4020052E8000F0B4642E8003494F028
:10762000000FF7D110BC704710B4020052E8003FC1
:1076300043EA010042E8000494F0000FF6D110BCC8
:107640007047000010B4020052E8000F00EA010386
:1076500042E8003494F0000FF6D110BC70470000EF
:1076600010B4020052E8003F03EA010042E80004BF
:1076700094F0000FF6D110BC7047000010B4020067
:1076800052E8003F03EB010042E8000494F0000FD1
:10769000F6D110BC7047000010B4020052E8003F61
:1076A000A3EB010042E8000494F0000FF6D110BCF7
:1076B000704710B5040001212000FFF7B5FF10BD91
:1076C00010B5040000212000FFF7BCFF10BD30B44E
:1076D000002513E050F8042BD30744BFA9F10103A0
:1076E0009A18091F042942F8045BFAD213468C0742
:1076F00044BF15809B1CC90748BF1D7050F8041B70
:107700000029E7D130BC7047EFF3108072B67047A4
:1077100062B6704738B50500FFF7F6FF04001C4954
:107720008868002810D1012088601A481A4A136816
:1077300003400B601060194802684A605FF0FF3137
:1077400001600020287001E001202870002C01D188
:10775000FFF7DEFF002032BD70B505000C4EB068AB
:10776000002812D02800C0B200280ED1FFF7CCFFAD
:10777000040030680A49086070680A4908600020FF
:10778000B060002C01D1FFF7C3FF002070BD0000E6
:10779000042C0020FC06FFBD80E100E084E100E055
:1077A00000E100E004E100E010B504002000FFF774
:1077B000B1FF10BD10B504002000C0B2FFF7CCFF30
:1077C00010BDC268C9B2008A414302EB0100704794
:1077D000C268891A008AB1FBF0F0C0B2704710B4D9
:1077E0000100002901D10E2015E088684A68821A3C
:1077F00048680B6818601000421EC0B2002806D00E
:1078000008680068431C0C6823600270F3E70020DE
:107810000B681871002010BC704738B504000025B3
:1078200000208DF800006846FFF7BEFF6068216801
:107830000968884217D220680068401E21680860E5
:107840002068006801782000FFF7BBFF0500A168F1
:1078500020680068081A216809790200D2B29142B2
:1078600001D2216808719DF80000FFF7A3FF2800EE
:1078700032BDF8B504000D002E0000208DF8000088
:107880006846FFF791FF20680768781C2168086048
:1078900031002000FFF79CFF38709DF80000FFF7D3
:1078A00089FFF1BD62B38B0708D0521E11F8013B6E
:1078B00000F8013B00F024808B07F6D1830740F0ED
:1078C000208000BF103A07D330B4B1E83810103A26
:1078D000A0E83810F9D230BC530724BFB1E8081033
:1078E000A0E8081044BF51F8043B40F8043BD2071D
:1078F00024BF31F8022B20F8022B44BF0B78037011
:107900007047121F17D35B0009D151F8043B20F8D0
:10791000023B1B0C121F20F8023BF6D20BE051F881
:10792000043B00F8013B1B0A20F8023B1B0C121F12
:1079300000F8013BF3D238BF121D521E24BF11F8CC
:10794000013B00F8013BF8D870470000012210F01D
:107950001F018A40DFF8301703005BB25B0941F872
:1079600023207047012210F01F018A40DFF81C1706
:1079700003005BB25B0941F82320704710B402009A
:1079800052B2002A0AD54A01DFF80437040064B273
:1079900014F00F04234403F8042C05E04A01DFF837
:1079A000F436040064B21A5510BC7047000B40B2A4
:1079B000704738B504000D002900C9B2200040B25C
:1079C000FFF7DCFF31BD10B50400200040B2FFF727
:1079D000BDFF10BD10B50400200040B2FFF7C2FF8C
:1079E00010BD81B000220B001BB2C2500A0012B2BF
:1079F00082580092009A01B0704709B2405800289E
:107A000001D0012000E00020C0B27047C0F804138C
:107A10007047D0F80403084201D0012000E00020A4
:107A2000C0B27047C0F8081370470100D1F8800455
:107A3000C1F8800470470421C0F800157047002188
:107A4000C0F800157047C0F81425C0F80C15704731
:107A500010B504005FF0FF325FF0FF312000FFF748
:107A6000F2FF10BDD0F80C057047D0F81405704730
:107A7000D0F808057047D0F810057047C0F8081511
:107A8000C0F81025704710B504005FF0FF325FF0BA
:107A9000FF312000FFF7F2FF10BDD0F81805C0B28B
:107AA00070470A00D2B2C0F81C25704701220B00B3
:107AB000DBB2C250704710B40C00E4B21300DBB26A
:107AC0001C43C0F86C4510BC7047C0F824157047C3
:107AD00001005FF0A04070472DE9F14181B00E0038
:107AE00017009846089C099D01A8FFF7F1FF310097
:107AF000C9B23A00D2B251EA42014246D2B251EA88
:107B000082012200D2B251EA02212A00D2B251EA05
:107B10000241019A00EB8202C2F80017BDE8F3812E
:107B20001CB50400002001900020009000230122D9
:107B300001212000FFF7D0FF13BD3EB504000D006A
:107B400000200190002000902B00DBB200220021D9
:107B50002000FFF7C1FF37BD1CB5040000200190D5
:107B6000002000900023012200212000FFF7B4FF35
:107B700013BD11B581B001A8FFF7AAFF04000121D0
:107B800001988140200000F001F813BDC0F80815ED
:107B9000704738B504000D00286810F1010F05D0BA
:107BA0002868FFF7E6FF2868FFF7BAFF686810F15A
:107BB000010F03D000216868FFF7BFFFA9692068A3
:107BC000FFF783FF2A7D697D2068FFF774FF6A68ED
:107BD00029682068FFF737FF287D012816D1A8689B
:107BE00010F1010F03D00021A868FFF7A6FFE86895
:107BF00010F1010F05D0E868FFF7BBFFE868FFF759
:107C00008FFFAA68E9682068FFF738FF31BD38B5F3
:107C100004000D004FF48E712068FFF7E2FE4FF470
:107C2000A2712068FFF7DDFEDFF86C142068FFF713
:107C3000EDFE2068FFF7BAFE2900C9B240B2FFF797
:107C4000B8FE2068FFF7B2FE40B2FFF7BCFE31BDC0
:107C500010B50400DFF844142068FFF7E3FE206845
:107C6000FFF7A4FE40B2FFF7B5FE10BD2DE9F041CD
:107C700004002068FFF7F6FE05002068FFF7F5FE18
:107C800006002068FFF7F4FE07002068FFF7F3FE08
:107C900080462068FFF7DCFE2068FFF7F4FE15F150
:107CA000010F02D02800FFF757FF16F1010F02D095
:107CB0003000FFF751FF18F1010F02D04046FFF7E7
:107CC0004BFF17F1010F02D03800FFF745FFBDE869
:107CD000F0812DE9F04104000D001600DFF8C0131B
:107CE00022792C20424301EB02075FF0000897F84D
:107CF0002A00002801D0082029E0DFF8A803217914
:107D000050F82110206800F0E3F9002801D011207C
:107D10001DE029002000FFF73CFF7E6028693860E5
:107D20007868002803D0297F2000FFF770FF2068C3
:107D3000FFF781FE0020B8610020F861002087F87D
:107D4000290000207861012087F82A004046BDE81C
:107D5000F08138B50400DFF8481322792C20424323
:107D600001EB02052068FFF76AFE6868002802D070
:107D70002000FFF76DFF2000FFF778FF206800F07C
:107D8000CCF9002085F82A000020686031BD70B56C
:107D900004000D004FF48E712000FFF722FEA8684A
:107DA000296A465C286A401C28623100C9B220005A
:107DB000FFF777FE70BD70B504000D006E69286A8C
:107DC000B04211D24FF48E712000FFF716FE00284A
:107DD00005D195F828000028F4D0002005E02900FE
:107DE0002000FFF7D4FFEAE7012070BD2DE9F04144
:107DF00004000D001600DFF8A81222792C2042435F
:107E000001EB0207200000F036F8002801D0112015
:107E10002FE07E61BD6000203862002087F82800D6
:107E20005FF000084FF48E712068FFF7DAFD08213B
:107E30002068FFF73BFE39002068FFF7A8FF78684D
:107E4000002815D139002068FFF7B5FF002802D1BE
:107E50000F2080460AE04FF48E712068FFF7CDFDB9
:107E60000028F8D00C212068FFF720FE0020786160
:107E70004046BDE8F081DFF8281202792C20424309
:107E800001EB02004069002801D0012000E0002041
:107E9000C0B2704770B504000D00A869002808D171
:107EA0004FF484712000FFF79CFD2000FFF7F5FDE3
:107EB0000DE04FF484712000FFF793FD6E6A2000FF
:107EC000FFF7EBFDE9688855686A401C686270BD81
:107ED0007FB504000D00160001208DF8000002950A
:107EE000019621686846626890477FBD38B584B0C6
:107EF00004000D0000208DF800000295A06801909C
:107F000000206061216868466268904705B030BD16
:107F1000F8B584B004000D004FF400712000FFF7A5
:107F200078FD00282CD04FF492712000FFF765FDFA
:107F3000002825D04FF492712000FFF752FD4FF436
:107F400001712000FFF76EFD95F82900002803D18C
:107F500004212000FFF7AAFD02208DF80000200078
:107F6000FFF763FD0390A8690290E8680190002084
:107F7000A8610020E861296868466A6890473BE08C
:107F800004212000FFF745FD002835D04FF484710F
:107F90002000FFF732FD00282ED029002000FFF737
:107FA00079FFA869696A884226D1E86900280FD05C
:107FB000EE686F6AE869A8612869E8600020E861F6
:107FC00000206862320039002800FFF781FF13E0CB
:107FD00095F82900002803D104212000FFF766FD51
:107FE0004FF401712000FFF71DFD0020A861EA6831
:107FF000696A2800FFF76CFF4FF48E712000FFF7CD
:10800000FCFC002818D06E69286AB04208D295F8A6
:108010002800002804D129002000FFF7B8FE0BE05B
:108020004FF48E712000FFF7DCFC6869002803D054
:1080300069692800FFF75AFF4FF4A2712000FFF78B
:10804000DCFC002816D04FF4A2712000FFF7C9FC19
:1080500095F82900002803D000212000FFF726FD15
:10806000A869002806D00020A861EA68696A28008B
:10807000FFF72EFF05B0F0BD80B509490A48FFF7AC
:1080800047FF01BD0000000000E100E080E100E0EA
:1080900018ED00E000E400E080000200840202002D
:1080A000882A0020CCE402000020004080B5064869
:1080B0000068804701BD01000448814201D10248A7
:1080C00000E0002070470000682C002000200040E5
:1080D000F8B505000E002800FFF7EDFF0400002CA6
:1080E00019D0002700208DF800006846FFF75CFBE0
:1080F0002079002802D00120070002E0266001203C
:1081000020719DF80000FFF755FB3800C0B2002831
:1081100001D0112000E00020F2BD10B504002000C5
:10812000FFF7C9FF002803D0002101600021017181
:1081300010BDFEE7012210F01F018A40DFF8FC1697
:1081400003005BB25B0941F823207047012210F065
:108150001F018A40DFF8E81603005BB25B0941F8B3
:108160002320704710B4020052B2002A0AD54A01F7
:10817000DFF8D036040064B214F00F04234403F88F
:10818000042C05E04A01DFF8C036040064B21A5539
:1081900010BC704710F06040B0F1005F01D10120C9
:1081A00000E00020C0B27047000B40B2704738B505
:1081B00004000D002900C9B2200040B2FFF7D2FF31
:1081C00031BD10B50400200040B2FFF7B3FF10BD71
:1081D00010B50400200040B2FFF7B8FF10BD81B019
:1081E00000220B001BB2C2500A0012B28258009249
:1081F000009A01B0704709B24058002801D0012010
:1082000000E00020C0B27047D0F800228A43C0F8D6
:1082100000227047C0F804137047C0F80813704775
:108220000100D1F88004C1F8800470470821C0F82B
:10823000001570470021C0F800157047C0F80C15F4
:10824000C0F81425704710B504005FF0FF325FF0EE
:10825000FF312000FFF7F2FF10BDD0F80C0570478A
:10826000D0F814057047D0F808057047D0F810050D
:108270007047C0F80815C0F81025704710B5040005
:108280005FF0FF325FF0FF312000FFF7F2FF10BD1B
:1082900001220B00DBB2C250704710B40C00E4B2F4
:1082A0001300DBB21C43C0F86C4510BC7047C0F82B
:1082B00024157047C0F84415C0F848257047D0F819
:1082C0004C057047D0F83C05704701005FF0A040B6
:1082D00070472DE9F14181B00E0017009846089CC7
:1082E000099D01A8FFF7F1FF3100C9B23A00D2B2EF
:1082F00051EA42014246D2B251EA82012200D2B290
:1083000051EA02212A00D2B251EA0241019A00EB5D
:108310008202C2F80017BDE8F3811CB504000020FA
:108320000190002000900023012201212000FFF78E
:10833000D0FF13BD3EB504000D00002001900020C9
:1083400000902B00DBB2002200212000FFF7C1FFCC
:1083500037BD1CB5040000200190002000900023D0
:10836000012200212000FFF7B4FF13BD11B581B039
:1083700001A8FFF7AAFF0400012101988140200015
:1083800000F001F813BDC0F80815704738B50400B7
:108390000D00286810F1010F05D02868FFF7E6FFEF
:1083A0002868FFF7BAFF686810F1010F03D00021B9
:1083B0006868FFF7BFFFA9692068FFF778FF2A7D8B
:1083C000697D2068FFF769FF6A6829682068FFF700
:1083D00035FF287D012816D1A86810F1010F03D0C0
:1083E0000021A868FFF7A6FFE86810F1010F05D08B
:1083F000E868FFF7BBFFE868FFF78FFFAA68E96846
:108400002068FFF736FF31BD38B504000D004FF48A
:1084100088712068FFF7E3FE4FF490712068FFF742
:10842000DEFE4FF492712068FFF7D9FE4FF4A2717F
:108430002068FFF7D4FE4FF4AC712068FFF7CFFE41
:10844000DFF808142068FFF7E5FE2068FFF7ACFEB0
:108450002900C9B240B2FFF7AAFE2068FFF7A4FEC8
:1084600040B2FFF7AEFE31BD10B50400DFF8DC13FB
:108470002068FFF7D2FE2068FFF796FE40B2FFF7B4
:10848000A7FE10BD2DE9F04104002068FFF7E5FECE
:1084900005002068FFF7E4FE06002068FFF7E3FE12
:1084A00007002068FFF7E2FE80462068FFF7CBFE5A
:1084B0002068FFF7E3FE15F1010F02D02800FFF757
:1084C00048FF16F1010F02D03000FFF742FF18F10C
:1084D000010F02D04046FFF73CFF17F1010F02D019
:1084E0003800FFF736FFBDE8F0812DE9F0410400C8
:1084F0000D001600DFF8581322792420424301EBC7
:1085000002075FF0000897F82000002801D008203B
:1085100026E0DFF84003217950F821102068FFF7AA
:10852000D7FD002801D011201AE029002000FFF714
:108530002DFF7E60286938607868002803D0297F85
:108540002000FFF761FF2068FFF770FE0020B86190
:108550000020F86100207861012087F82000404663
:10856000BDE8F08138B50400DFF8E4122279242058
:10857000424301EB02056868002802D02000FFF7A3
:1085800073FF20212068FFF73FFE04212068FFF7DA
:108590007FFE4FF4AC712068FFF721FE0C212068AC
:1085A000FFF776FE4FF4AC712068FFF724FE002839
:1085B000F8D02068FFF73EFE2000FFF763FF206839
:1085C000FFF7ABFD002085F820000020686031BD7A
:1085D0002DE9F04704000D001600DFF8741222792F
:1085E0002420424301EB02072800FFF7D3FD0028B7
:1085F00001D1102049E0200000F049F8002801D006
:10860000112042E07E61BD605FF000084FF4907180
:108610002068FFF7E4FD4FF4AC712068FFF7DFFD41
:108620007A69B9682068FFF745FE08212068FFF7DE
:108630002FFE7868002827D14FF490712068FFF74B
:10864000DAFD82464FF4AC712068FFF7D4FD814615
:108650005046C0B2002803D14846C0B20028EBD033
:108660004846C0B2002802D00F2080460AE00C2104
:108670002068FFF70DFE4FF4AC712068FFF7BBFDDB
:108680000028F8D0002078614046BDE8F087DFF888
:10869000C01102792420424301EB02004069002806
:1086A00001D0012000E00020C0B270477FB5040077
:1086B0000D00160001208DF800000295019621683A
:1086C0006846626890477FBD38B584B004000D00ED
:1086D00000208DF800000295A068019000206061E4
:1086E000216868466268904705B030BDF8B584B02F
:1086F00004000D004FF492712000FFF77CFD00286C
:108700001AD04FF492712000FFF769FD02208DF816
:1087100000002000FFF784FD03902000FFF7D2FD4A
:108720000290E86801900020A8610020E8612968B3
:1087300068466A6890472DE04FF488712000FFF783
:108740005AFD002826D04FF488712000FFF747FD1E
:108750002000FFF7B7FD0600A86986421AD1E86934
:10876000002810D0EF6820212000FFF74DFDE869B8
:10877000A8612869E8600020E8613A00310028001B
:10878000FFF794FF06E00020A861EA6831002800A6
:10879000FFF78CFF4FF4A2712000FFF72CFD00289B
:1087A00013D04FF4A2712000FFF719FDA86900282B
:1087B0000BD00020A8610020E8612000FFF782FDB7
:1087C000EA6801002800FFF771FF4FF49071200064
:1087D000FFF711FD002812D04FF490712000FFF731
:1087E000FEFC0C212000FFF753FD6869002806D02D
:1087F0002000FFF764FD01002800FFF765FF4FF43C
:10880000AC712000FFF7F7FC00280ED04FF4AC71DC
:108810002000FFF7E4FC6869002806D02000FFF77D
:108820004EFD01002800FFF74FFF05B0F0BD80B5F9
:1088300007490948FFF75AFF01BD000000E100E0C9
:1088400080E100E018ED00E000E400E010034200E9
:10885000B42A0020D0E402000020004002000A7088
:10886000100080B2000A4870022070472DE9FC47D2
:1088700004000D001600300080B2298809318842BA
:1088800001D20C2031E068466DDF07003800002877
:108890002BD10820298860542888401C28801B2060
:1088A000298860542888401C28805FF006080DF154
:1088B0000109288804EB000A424649465046FEF763
:1088C000F1FF2888801D28809DF80000C0B2400874
:1088D000002803D100202988605402E00120298863
:1088E00060542888401C28800020BDE8F687FCB42E
:1088F00004000D002078012804D16078002801D1FF
:10890000072064E0180080B21188891C88420BD3CC
:10891000207801280AD1180080B21188667816FAEA
:1089200081F1891C884201D20C2050E0190089B2E3
:108930001088091A8E1EADF8006069461088284418
:10894000801C7DDF01000800002840D1207802282B
:1089500005D06078BDF8007080B2B84207D330000F
:10896000BDF8007080B2B84201D3092711E0082792
:10897000207801280BD1300094F801C080B21FFA92
:108980008CFC604503D36078ADF8000001E0ADF8E1
:108990000060BDF80000FF2801D30C2017E0BDF8EF
:1089A0000000401CB2F800C005F80C001088401C04
:1089B000108010882F541088401C1080B2F800C01E
:1089C000BDF8000010EB0C0CA2F800C00020F6BCB3
:1089D0007047F8B504000D001600300080B22988F9
:1089E000091D884201D20C201DE0684679DF07008E
:1089F0003800002817D10320298860542888401C9B
:108A000028801920298860542888401C28802888BC
:108A100004EB0001BDF80000FFF720FF298851FAA0
:108A200080F028800020F2BD30B40400180080B22D
:108A30001588ED1CA84201D20C2011E002201588F7
:108A400048551088401C1080012015884855108812
:108A5000401C108010880C541088401C108000208E
:108A600030BC704730B40400180080B21588ED1C8B
:108A7000A84201D20C2011E0022015884855108828
:108A8000401C10800A20158848551088401C108012
:108A900010880C541088401C1080002030BC704797
:108AA0002DE9FE4F05000E001700DDF830C00D9CCB
:108AB0005FF0000EBCF800805FF000092888814557
:108AC00051DA686850F8291001910022694601A81E
:108AD00064DF8246504600285DD19DF800003900D1
:108AE000C9B288423CD17046C0B2002802D05FF0C3
:108AF000000B01E05FF0020B200080B2BCF8001018
:108B00009DF8002012FA81F151FA8BF1884201DAC6
:108B10000C2040E07046C0B200280ED1BCF8000026
:108B2000401CACF80000BCF800001E54BCF800006B
:108B3000401CACF8000001208646BCF8000003EBA6
:108B40000002694601A864DF01000800002822D164
:108B5000BCF800009DF8002050FA82F0ACF800004C
:108B600019F10109AAE77046C0B2002812D0BCF87A
:108B70000010B1EB0801491EADF80210BDF802006B
:108B8000B0F5807F01DB0C2005E0BDF80200414616
:108B900089B258540020BDE8FE8F2DE9FC4705003E
:108BA0000E0017009846DDF828900B9C200080B23C
:108BB0000190CDF80090434602223100C9B228004E
:108BC000FFF76EFF82465046002810D1200080B289
:108BD0000190CDF80090434610223900C9B2280018
:108BE000FFF75EFF01000800002800D10020BDE86B
:108BF000F68701000888062809DB40F681400A88CC
:108C0000824206DB0A884FF6FF739A4201D00720A2
:108C10001BE04A88062A07DB4A88824206DB48882E
:108C20004FF6FF72904201D007200EE04FF6FF7022
:108C30000A88824208D04A88824205D048880A8839
:108C4000904201D2072000E0002070472DE9F0415A
:108C500004000D0016001F00380080B23188891D05
:108C6000884201D20C2027E02000FFF7C2FF804697
:108C70004046002820D10520318868543088401CA7
:108C800030801220318868543088401C3080308811
:108C900005EB00012088FFF7E1FD318851FA80F0F3
:108CA0003080308805EB00016088FFF7D7FD318800
:108CB00051FA80F030800020BDE8F0812DE9F84FB6
:108CC00004000D0016001F00B4F8048018F102081B
:108CD000380080B2318818FA81F1891C884201D2AB
:108CE0000C2034E0B8F1FF0F01D30C202FE018F175
:108CF0000100318868543088401C3080FF20318862
:108D000068543088401C3080308805EB0001208892
:108D1000FFF7A4FD318851FA80F03080A088002848
:108D200014D0A068002801D1072010E0B4F8049006
:108D3000D4F808A0308805EB000B4A465146584647
:108D4000FEF7B0FD3188A088411831800020BDE8D1
:108D5000F28F2DE9FE4F04000D001600A06A0028D6
:108D600001D107204DE00027380094F82C10C0B244
:108D7000884245D2A16A3A00D2B20C20424301EBAC
:108D80000208B8F8049019F10209B9F1FF0F01D3F4
:108D90000C2036E019F10100318868543088401CFD
:108DA00030801620318868543088401C30803088EC
:108DB00005EB0001B8F80000FFF750FD318851FACB
:108DC00080F03080B8F80400002817D0D8F80800E8
:108DD000002801D1072014E0B8F804000090D8F86A
:108DE00008A0308805EB000B009A51465846FEF764
:108DF00059FD3188B8F80400411831807F1CB3E771
:108E00000020BDE8FE8F2DE9FC4104000D00160096
:108E10000027B6F800800020308094F82D0000284C
:108E20000AD0424692B231002800FFF71FFD07002A
:108E30003800002840F09F80A07800280AD04246E1
:108E400092B231002800FFF7C4FD07003800002867
:108E500040F09180E07800280DD043469BB232006C
:108E6000290094F9030040B2FFF7DEFD0700380047
:108E7000002840F08080606800280CD043469BB2F8
:108E800032002900606890F90000FFF7EBFD070051
:108E9000380000286FD1208900280ED0404680B2CB
:108EA000019000962B000622022114F10800FFF722
:108EB00074FE0700380000285DD1208A00280ED0FB
:108EC000404680B2019000962B000722032114F146
:108ED0001000FFF762FE0700380000284BD1208BFE
:108EE00000280ED0404680B2019000962B0015223B
:108EF000142114F11800FFF750FE07003800002875
:108F000039D1206A00280AD043469BB2320029009A
:108F1000206AFFF79BFE0700380000282BD1606A0B
:108F200000280AD043469BB232002900606AFFF74E
:108F3000C5FE0700380000281DD194F82C00002839
:108F40000AD043469BB2320029002000FFF701FF00
:108F50000700380000280ED1207800280AD04346A8
:108F60009BB2320029002000FFF7C1FC0700380047
:108F7000002800D13800BDE8F681FEE71721018006
:108F80001721418000210171002141711B21817154
:108F90001B21C17170472DE9FF4105000E00DFF86C
:108FA000BC75DFF8BC852B009BB2320092B2DFF8B3
:108FB000B415B8EB0700C008000450F00400FDF73A
:108FC000F5FFDFF8A425D2E90001CDE90201ADF8F3
:108FD0000860ADF80A60DFF89425D2E90001CDE918
:108FE00000016A4602A9280080B290DF0400002C2C
:108FF00036D0200000F0E4FA03002A0092B2DFF835
:109000007015B8EB0700C008000450F00100FDF730
:10901000CDFFBDF80000002803D1BDF802000028F4
:109020000DD0BDF80230BDF80020DFF84815B8EBD0
:109030000700C008000450F00100FDF7B7FFBDF8BD
:10904000040000280CD0BDF80420DFF82C15B8EB84
:109050000707FF083F0457F001073800FDF79AFFA4
:10906000200004B0BDE8F0812DE9F04705000E00B6
:10907000B788380080B205EBC00010F106082879E7
:1090800088F80600F07B012802D0022804D007E00F
:109090002888A8F8000003E06888A8F80000FFE727
:1090A000B8F80200B8F80010884243D2DFF8AC9458
:1090B000DFF8ACA43B009BB2B8F80020DFF8BC148A
:1090C000BAEB0900C008000450F00400FDF76EFF81
:1090D000B8F80010380080B2A5DF0400002C03D1DE
:1090E000012088F8050025E0112C12D1012088F814
:1090F00004003A0092B2DFF88814BAEB09095FEA7B
:10910000D9095FEA094959F004094846FDF742FFC9
:1091100010E0200000F054FA0200DFF86814BAEB07
:1091200009095FEAD9095FEA094959F00109484686
:10913000FDF730FF98F8070098F80610884206D22D
:1091400098F8061089B2380080B2FFF724FFBDE816
:10915000F08738B504000D00A88804EBC000801D1E
:10916000FFF70CFF31BD2DE9FC4104000D00AE8876
:109170006F89300080B204EBC00010F1060838009F
:10918000B8F8001080B2884201D2380001E0B8F887
:109190000000A8F80200B8F80200172801DA17202A
:1091A00001E0B8F80200A8F8020033009BB2B8F85A
:1091B0000220DFF8D413DFF8A803DFF8A0C3B0EB78
:1091C0000C00C008000450F00400FDF7EFFE206919
:1091D000002813D098F8050000280FD0DFF8AC2342
:1091E000D2E90001CDE90001ADF80260B8F8020053
:1091F000ADF804006946200022699047002088F8F5
:109200000500002088F80400BDE8F3812DE9FE4F39
:1092100005000E00B788B6F80690380080B205EB5E
:10922000C00010F10608DFF834A3DFF834B34B4672
:109230009BB23A0092B2DFF85813BBEB0A00C008A9
:10924000000450F00400FDF7B1FE484680B2172834
:1092500002DA5FF01709FFE74846B8F8001080B25D
:10926000884201D2484601E0B8F80000A8F80200A0
:10927000002088F80400380080B20090B8F8003070
:10928000B8F80220DFF80C13BBEB0A00C00800049A
:1092900050F00400FDF798FEB8F80010380080B2D6
:1092A000B5DF0400002C10D0200000F089F9020086
:1092B000DFF8E412BBEB0A0A5FEADA0A5FEA0A4A5D
:1092C0005AF0010A5046FDF765FE98F8050000289F
:1092D00012D1286900280FD0DFF8C022D2E900019E
:1092E000CDE90001ADF80270B8F80200ADF8040055
:1092F000694628002A699047BDE8F78F2DE9F841B3
:109300008DB004000D0002A8291D2C22FEF7DAFA08
:10931000BDF80860BDF80C00310089B204EBC10152
:109320004873DFF83872DFF8388233009BB23000C0
:1093300080B204EBC000427BDFF86412B8EB070098
:10934000C008000450F00400FDF730FEBDF80E2008
:10935000DFF85012B8EB0700C008000450F004001A
:10936000FDF718FEBDF80C20DFF83C12B8EB070043
:10937000C008000450F00400FDF70CFEBDF81220F8
:10938000DFF82812B8EB0700C008000450F0040012
:10939000FDF700FEBDF810208549B8EB0707FF0870
:1093A0003F0457F004073800FDF7F4FD206900285A
:1093B00011D08048D0E90023CDE90023ADF8026048
:1093C000300080B204EBC000407B8DF80400694699
:1093D0002000226990470EB0BDE8F0812DE9F843E6
:1093E00005000E00371D388805EBC00010F1060897
:1093F000B7F804904B46DBB23A886F495848574C4F
:10940000001BC008000450F00400FDF7CFFD98F8E1
:1094100006004946C9B2884202D298F8064000E0E8
:109420004C462100C9B289B23888FFF7B4FDBDE8C7
:10943000F18370B505000E00002D01D10E2011E062
:109440002E6117202880172068801B202871002497
:10945000002C06D105EBC400801DFFF78FFD641CB6
:10946000F6E7002070BD2DE9F84306000F00B8466E
:10947000B6F80490484680B200286BD13088102896
:109480000AD011280DD023281FD0242818D03A281C
:109490000CD055280FD01DE031004046FFF7E4FD09
:1094A00018E031004046FFF754FE13E0310040461B
:1094B000FFF759FE0EE031004046FFF7A7FE09E036
:1094C00031004046FFF71AFF04E031004046FFF745
:1094D00085FFFFE7484680B208EBC000807A00288D
:1094E00038D0484680B208EBC000C188484680B2F8
:1094F000A5DF0400002C1DD10020494689B208EBED
:10950000C10188720120494689B208EBC101C872C5
:109510004B469BB2484680B208EBC000C288274940
:109520000F480E4D401BC008000450F00400FDF72A
:109530003DFD0FE0112C0DD0200000F041F802009D
:1095400010490748054BC01AC008000450F001003C
:10955000FDF720FDBDE8F18300000000D0D402003B
:10956000E0D4020044DA0200B0E30200A8E3020003
:10957000F0D6020064D8020048D50200A4D8020048
:10958000A0D50200DCD9020064D90200B8E30200D1
:10959000A0D90200E4D8020074DA0200C0E302009D
:1095A000A4DA02008CE00200A0E00200D0E1020098
:1095B000E0E10200C8E3020024D90200D4D702008F
:1095C00010B50400200000F005F8002801D1104873
:1095D000FFE710BD10B401000E48020010F59473AF
:1095E0009A4212D2981AC010022490FBF4F002EBB7
:1095F000C0000468A14201D20300F1E78C4202D20C
:1096000008300200ECE7406800E0002010BC704722
:1096100068E10200A8D3020080B5012000F0BEFB83
:1096200001BD38B500F078FD05002C00002C02D0FB
:10963000200000F0F7FD31BD2DE9FF419DF800004D
:1096400010F0F00050F001008DF800009DF80000CF
:1096500010F00F0050F010008DF800001122DFF81C
:10966000801568467CDF05002C00002C02D020000D
:1096700000F0D8FD0826002701AC3A003100200098
:10968000FDF70CFA5020ADF80400A020ADF806005C
:109690000020ADF808004FF4C870ADF80A0001A82A
:1096A0007ADF80464446002C02D0200000F0BAFD4C
:1096B000BDE8FF8138B50021DFF82805FFF7B9FEC6
:1096C00005002C00002C02D0200000F0ABFD31BDC5
:1096D0002DE9F847A5B06846DFF80C150A68026066
:1096E000DFF80805807C8DF802003C265FF000085A
:1096F00016AC424631002000FDF7D0F902208DF86B
:10970000580001208DF85A0006208DF85B005FF0AC
:109710003C095FF0000A07AC524649462000FDF7BD
:10972000BDF90120ADF82C0068460C90DFF8C0545C
:109730002A1D296816A8FFF766FB07003C00002CCD
:1097400002D0200000F06EFD15F10C02A96807A8F8
:10975000FFF759FB06003400002C02D0200000F077
:1097600061FD18275FF0000801AC42463900200077
:10977000FDF794F901208DF819000020ADF81000D4
:1097800001208DF804000020029000208DF81800C0
:109790004020039001AA2900DFF8580472DF050079
:1097A0002C00002C02D0200000F03CFD26B0BDE8CB
:1097B000F08710B50400200000F034FD10BD70B536
:1097C00004000D0016003000C0B2002810D00220A6
:1097D00000F0ADFADFF82014DFF82004DFF82024D1
:1097E000801AC008000450F00300FDF7C9FB0FE029
:1097F000022000F0A4FADFF80C14DFF80004DFF810
:109800000024801AC008000450F00300FDF7B8FBE4
:1098100070BD7CB5DFF8F00300680190DFF8EC0361
:1098200000680090DFF8E80300906946DFF8E40381
:1098300000F008FD05002C00002C02D0200000F0F4
:10984000F1FCDFF8D403019001A9DFF8A00300F0D8
:10985000CCFD06003400002C02D0200000F0E2FC19
:1098600073BD70B50500287800280BD13B21DFF8C7
:10987000AC03008876DF06003400002C02D0200004
:1098800000F0D0FC70BD10B50400200000F0CAFC50
:1098900010BDF0B587B01C2500266C4632002900AB
:1098A0002000FDF7FBF8002000905FF4A02001905D
:1098B0005FF4A030029003208DF80C000020ADF87A
:1098C0000E0000208DF81000DFF854030590DFF83B
:1098D00054030690684600F002FF07003C00002C8D
:1098E00002D0200000F09EFC07B0F0BD38B5012189
:1098F000C048007873DF05002C00002C02D0200047
:1099000000F090FC002000F012FA31BD2DE9FC417E
:1099100005000E00288810280ED0112834D01328F6
:109920004FD021285BD03B2800F0808052286FD098
:10993000562800F09080A3E0BB49B048B04A801A96
:10994000C008000450F00300FDF71AFB012000F0EE
:10995000EEF9002000F0F3F9B048A98801800188F1
:10996000AC4800F086FC80464446002C02D0200023
:1099700000F058FC01F07AF907003C00002C02D0FE
:10998000200000F04FFC7BE0A8499C489C4A801ACC
:10999000C008000450F00300FDF7F2FA012000F0C7
:1099A000CEF94FF6FF709D49088001F070F907006D
:1099B0003C00002C02D0200000F034FCFFF796FFA2
:1099C0005EE0002300228521944800887FDF0700A5
:1099D0003C00002C02D0200000F024FC50E0944910
:1099E0008648874A801AC008000450F00400FDF73A
:1099F000C7FA90480088ADF800006946A8888FDF54
:109A000007003C00002C02D0200000F00BFC37E0E7
:109A100000230022002181480088B1DF07003C00BC
:109A2000002C02D0200000F0FDFB29E082497348A1
:109A3000734A801AC008000450F00400FDF7A0FA31
:109A40001321A88876DF07003C00002C02D02000FC
:109A500000F0E8FB14E079496848694A801AC008B8
:109A6000000450F00400FDF78BFA1321A88876DF7C
:109A700007003C00002C02D0200000F0D3FBFFE7E1
:109A8000BDE8F3817CB501F0F3F905002C00002C52
:109A900002D0200000F0C6FB0020009069460120A3
:109AA00001F066FA06003400002C02D0200000F01D
:109AB000B9FB684601F02BFB05002C00002C02D0FE
:109AC000200000F0AFFB73BDF8B506000F000024C6
:109AD0003000C0B20D2824D159494848484A801A5C
:109AE000C008000450F00300FDF74AFA3A00D2B271
:109AF0003E494A48008800F003FD0400002C0FD0C6
:109B000043F2020084420BD0082C09D043F20140FA
:109B1000844205D02500002D02D0280000F082FBF1
:109B200003E03000C0B200F07DFBF1BD38B540F27B
:109B300033320121434801F04EF805002C00002C7F
:109B400002D0200000F06EFB31BD38B54FF48041EB
:109B50000020FDF737F805002C00002C02D0200073
:109B600000F060FB01F070FB31BD38B501F0A5FBE2
:109B700005002C00002C02D0200000F053FB31BD6A
:109B800080B5FDF740FA002801D101F0A3FB01BD2B
:109B900080B5FFF7DAFFFFF73FFDFFF742FDFFF764
:109BA000C5FFFFF7E2FFFFF76DFFFFF745FDFFF78A
:109BB00081FDFFF72EFEFFF78BFDFFF76AFE2249BE
:109BC0000E480F4A801AC008000450F00300FDF749
:109BD000D7F9FFF78BFEFFF7D3FFFCE7000000008B
:109BE0003CE00200BC2B0020A8E40200782B0020FF
:109BF000F8220020B223002050E00200F0D402003E
:109C0000D0D4020064E00200ACE40200B0E4020040
:109C1000B3970200102C0020BF970200B023002051
:109C20006398020087980200E0E20200B0E10200BF
:109C300078E002004A790200D8DE0200F0DE02007D
:109C400030DE02000823002008DF020001005FF080
:109C5000A04070472DE9F14181B00E0017009846F1
:109C6000089C099D01A8FFF7F1FF3100C9B23A0035
:109C7000D2B251EA42014246D2B251EA82012200F6
:109C8000D2B251EA02212A00D2B251EA0241019A2B
:109C900000EB8202C2F80017BDE8F3811CB5040096
:109CA00000200190002000900023012201212000CB
:109CB000FFF7D0FF13BD3EB504000D00002001905A
:109CC000002000902B00DBB2002200212000FFF7D3
:109CD000C1FF37BD11B581B001A8FFF7B7FF040080
:109CE000012101988140200000F01BF813BD11B53F
:109CF00081B001A8FFF7AAFF04000121019881406B
:109D0000200000F011F813BD38B505000C00002C40
:109D100003D12800FFF7EBFF02E02800FFF7DAFF8E
:109D200031BDC0F808157047C0F80C15704710B564
:109D3000040000211748005DFFF7E6FF10BD10B5D5
:109D4000040001211348005DFFF7DEFF10BD10B5D0
:109D50000024042C04D22000FFF7F1FF641CF8E774
:109D600010BD10B50024042C05D20A48005DFFF791
:109D700095FF641CF7E7FFF7EAFF10BD10B500245C
:109D8000042C06D203210448005DFFF794FF641CF5
:109D9000F6E710BDA0E40200A4E4020010B5040040
:109DA000E00701D5FFF7DDFFA00701D5FFF7E6FFCC
:109DB00010BDFEE780B5DFF83C0401F07AFCDFF867
:109DC0003814D1E90023002110185941DFF82C2460
:109DD000D2E90023994206D801D3904203D2B0F1D0
:109DE0007F4071F1FF3104BDF0B402000B00D2E9F5
:109DF0000245D3E90267AF4204D301D8A64201D39A
:109E0000012000E00020C0B2F0BC704738B504006B
:109E10000025DFF8EC030078012832D1002C30D087
:109E2000207F00282DD0FFF7C5FFD4E902239942F7
:109E300020D301D890421DD32069002801D10020F1
:109E40002077A069616988472069002819D0207FA0
:109E5000002816D0D4E902232069002110185941A6
:109E6000C4E902012100DFF89C0301F04DFC012050
:109E7000050006E02100DFF88C0301F045FC01201D
:109E800005002800C0B232BD2DE9F8430500884620
:109E90000D24002088F80000FFF78CFFD5E902238D
:109EA000161A73EB0107012000218F421DDB01DC34
:109EB00086421AD3B6F5350F07D300F096F98146DE
:109EC000DFF8440310EB090902E0D5E902018146FD
:109ED0005FF496034A460021DFF8180301F041FBC6
:109EE0000400002C06D101200DE00021DFF804035E
:109EF00001F0C9FB0D2C05D12800FFF787FF88F87A
:109F00000000FFE70020BDE8F28380B5DFF8F4022F
:109F100001F00DFC002800D1002002BD80B5DFF863
:109F2000E40240680068002800D1002002BD10B59E
:109F3000FFF7EBFF0400002C01D000202077002C5D
:109F4000F6D110BDAC48D0E90023B2F17F4273F1E5
:109F5000FF33C0E90023704738B50400AB4D2868D3
:109F6000002805D02868FFF751FF00202860FFE790
:109F700031BD10B50400FFF71DFFA04AC2E9000182
:109F800010BD2DE9FC410500FFF7C8FF04000026C5
:109F9000002C38D09D4F3868002802D101200600DF
:109FA00013E0D4E902013A68D2E9022399420CD8BD
:109FB00001D3904209D2012006003868007F0028B2
:109FC00003D039688F4801F09FFB3000C0B20028F1
:109FD00018D0FFF79AFF804669464046FFF754FFC6
:109FE00000280CD03868002802D1280001F047FA78
:109FF000C7F800809DF800000028C5D10AE00020C5
:10A000003860C1E706E081480068002802D12800D6
:10A0100001F03CFABDE8F3817CB505007C4E694651
:10A02000306801F03AFC0400002C33D0207800287E
:10A0300003D002281ED00CD322E06068007F0028E5
:10A0400006D101206168087761686E4801F05CFB09
:10A0500016E06E4861680268914202D100210160F9
:10A0600007E06168674801F06FFB01000800C0B2BB
:10A07000002805E0FFF75BFF012061490870FFE75A
:10A080006946306801F018FC6946306801F005FC4B
:10A090000400C9E773BD10B50400200001F0EBFA1D
:10A0A000002801D0FFF74EFF0021200001F0F5FA53
:10A0B000002802D02000FFF74FFF0121200001F00F
:10A0C000ECFA002802D02000FFF753FF2000FFF732
:10A0D000A3FF2000FFF755FF10BD80B5454801F0F4
:10A0E000EEFA01BDF8B505000E00494F6946386823
:10A0F00001F0B6FB0400002C0CD0257066606946A8
:10A10000386801F0BCFB002802D0FFF7E6FFFFE74C
:10A11000002000E00420F2BD7CB53E4800680090BD
:10A12000082358223C493A48006801F07DFB0500AD
:10A13000002D01D0280018E02E4E384A6946300024
:10A1400001F05FF90400002C01D020000DE0012196
:10A15000300001F086FA0123314A0121300001F07C
:10A160009CF9012026490870200076BD10B4030038
:10A170001000002801D107200AE01C686261080075
:10A18000C0B2012801D1012000E0002020610020A0
:10A1900010BC70472DE97043040088461500260066
:10A1A000307F002801D0002013E0B561FFF702FEE8
:10A1B0005FF0000910EB080051EB0901C6E902014C
:10A1C0003069002801D0C6F8108031000020FFF768
:10A1D00089FFBDE8708338B504002500002028778A
:10A1E00029000120FFF77EFF32BD80B5014801F054
:10A1F00060FA02BDF0220020302C0020382C002014
:10A20000912C0020D4E20200FFFFB400782C002043
:10A2100098E402009CE40200F029002097A00200CC
:10A22000FFFF7F001FB504006846002100220023C5
:10A2300080E80E0002946A46002144F2010001F019
:10A240005BFB1FBD0200002A01D10E2010E0002997
:10A2500001D10E200CE01078DE2801D1082007E0A3
:10A2600008685060DE2010704FF6FF7050800020AC
:10A2700070470200002A01D10E2006E01078DE2887
:10A2800001D0082001E051800020704738B505005A
:10A29000287A002810D00021688866DF0400002C8E
:10A2A00002D10020287207E0112C02D1012028726F
:10A2B00002E020006968884731BD38B504000D0010
:10A2C0002879012808D128886188884204D1012092
:10A2D00020722000FFF7DAFF31BD7047F8B584B077
:10A2E00005000E0030886988884226D1B71C38786E
:10A2F000022822D1387A042805D0387A062802D0DC
:10A30000387A052819D16846102101F02BFB02206C
:10A310008DF800004FF4C070ADF80400387A0528BD
:10A3200002D10020ADF8040069463088B0DF040097
:10A33000002C02D020006968884705B0F0BD70B5D8
:10A3400004000D00002D2DD0002C2BD02E003078D5
:10A35000DE2827D1A0887188884202D13000FFF71B
:10A3600095FF2088012806D0022809D0112811D095
:10A3700051280AD016E0211D3000FFF79EFF11E0A2
:10A38000211D3000FFF7A9FF0CE0211D3000FFF771
:10A39000A5FF07E0A0887188884202D14FF6FF70C0
:10A3A0007080FFE770BDFEE770B504000D00AE1DC4
:10A3B0003088618888420AD17089012807D1606994
:10A3C000002804D0327B2100A8886369984770BDBB
:10A3D00070B504000D002E002088502804D1210003
:10A3E0003000FFF7E1FFFFE770BD2DE9F0438DB0CE
:10A3F00005000E003068686109A840491022FDF789
:10A4000061FA15F1120109A862DF030018000028A3
:10A4100070D1A87C8DF8020041F22350ADF8000005
:10A420002A0069460120A8DF07003800002861D112
:10A430005FF020085FF0000901AC4A464146200069
:10A44000FCF72CFB41F22450ADF80400A87C8DF8F9
:10A4500006000120ADF80A000120ADF808009DF8C3
:10A46000110050F002008DF811009DF8110050F01D
:10A4700010008DF8110001208DF8150001208DF8D5
:10A48000170015F10A0201A9288801F0DCFA04007E
:10A49000002C01D020002DE020275FF000080DF1F6
:10A4A0000409424639004846FCF7F8FA41F22550C3
:10A4B000ADF80400A87C8DF806000120ADF80A0074
:10A4C0000120ADF808009DF8110050F002008DF851
:10A4D00011009DF8110050F008008DF811000120C6
:10A4E0008DF8150001208DF81600AA1C01A92888F6
:10A4F00001F0A9FA0DB0BDE8F0830000A0E1020070
:10A500002DE9F44185B004000D000120ADF80000F4
:10A51000102600270DF104083A0031004046FCF7F0
:10A52000BDFA01208DF806006889ADF8040005A881
:10A5300004906846039001A9200080B2AEDF06B007
:10A54000BDE8F08130B40100002000280ED11422B3
:10A55000DFF8BC3302FB00F41C5B0D00ADB2AC4273
:10A5600002D15043184402E0401CEEE7002030BC0A
:10A57000704738B504000D0025800020207214F1CA
:10A580000A00DFF890130822FDF78CF931BD4FF671
:10A59000FF7101807047F0B50400A08810FA82F5C1
:10A5A0001000A68880B2B04202D21600B6B200E017
:10A5B000A688A088861BE08810FA83F71800B4F8F4
:10A5C00006C080B2604503D29C461FFA8CFC01E0B5
:10A5D000B4F806C0E088B0EB0C0C4888B4F800E092
:10A5E000704504D36088B1F802E0704501D20020C4
:10A5F00010E08888B04202D38888854201D20020CA
:10A6000008E0C888604502D3C888874201D200208C
:10A6100000E00120F0BD10B50400DFF8FC128869ED
:10A62000002802D020008969884710BD70B5050058
:10A630000E003100280080B275DF0400002C04D029
:10A64000112C02D02000FFF7E6FF002C01D10120E1
:10A6500000E00020C0B270BD2DE9FC4106003700CB
:10A66000380080B2FFF76EFF0400002C35D0DFF811
:10A67000A882207A98F80C1088420ED214F10A01B0
:10A68000380080B2FFF7D2FF01000800C0B20028F6
:10A6900023D0207A401C20721FE00020207298F8FE
:10A6A000100000280BD03B21380080B276DF050077
:10A6B000002D04D0082D02D02800FFF7ACFFD8F8F9
:10A6C0001400002809D000208DF800003800ADF8F3
:10A6D00002006846D8F814108847BDE8F381F8B541
:10A6E0000600002E01D10E203BE08B4C20003100F3
:10A6F0001C22FDF7E7F887492160306800280CD05C
:10A7000030687ADF0400002C01D0200029E0080026
:10A7100031680822FDF7C6F806E008007BDF040078
:10A72000002C01D020001CE00025002D18D1784815
:10A73000142101FB05F100EB01073800FFF727FFAB
:10A740007648690108447860754A0021381DFFF792
:10A750000DFD0400002C01D0032002E06D1CE4E795
:10A760000020F2BDF8B505000E00707A002814D163
:10A77000307A002802D16848476801E06648876857
:10A780002A0092B239007068FFF704FD0400002C23
:10A7900011D02000FFF73FFF0DE0002030725E492E
:10A7A0004869002807D001208DF80000ADF802505C
:10A7B000684649698847F1BD2DE9F041050095F8E3
:10A7C0000F80AE884046C0B2012823D14FF6FF77F4
:10A7D0003800FFF7B7FE0400002C03D10420FFF778
:10A7E0001AFF17E0310089B22000FFF7C2FE3B00DC
:10A7F00040F2F31215F1100114F10A00FFF7CBFE3D
:10A8000060724548C089002804D12100300080B220
:10A81000FFF7A8FFBDE8F081F8B50600B78838005B
:10A8200080B2FFF78FFE0400002C0BD06068FFF7AA
:10A83000D2FC0500002D02D02800FFF7ECFE20001E
:10A84000FFF7A5FEF1BD2DE9F0410600B71D3888E0
:10A850003149C989884220D1788902281DD1B6F8AA
:10A860000480404680B2FFF76DFE0500002D14D035
:10A8700017F10C0001F080F8002805D029004046AF
:10A8800080B2FFF76FFF08E06868FFF7A4FC0400E0
:10A89000002C02D02000FFF7BEFEBDE8F08170B5AD
:10A8A0000500AE88300080B2FFF74CFE0400002C9B
:10A8B0000FD04FF6FF7340F2F31215F1080114F1B7
:10A8C0000A00FFF768FE60722100300080B2FFF7D7
:10A8D00049FF70BD38B504000D002088102806D04F
:10A8E000112808D012280ED0502808D00FE02000E0
:10A8F000FFF762FF0BE02000FFF78EFF07E020006C
:10A90000FFF7A1FF03E02000FFF7C9FFFFE731BD1C
:10A91000A82B0020402C0020D82A0020182B002033
:10A9200059A602000100DFF8AC030A00D2B25210AF
:10A93000825CC80703D51000C0B2000901E012F024
:10A940000F00C0B2704770B4C20701D50F2200E0FB
:10A95000F022C30701D50B0100E00B00DFF87443C0
:10A960000500EDB26D10655D15400600F6B276107B
:10A97000A5550500EDB26D10655D1D430600F6B2EC
:10A980007610A55570BC704710B401000022DFF8A6
:10A990004803007882420BDADFF84003006800EBDE
:10A9A000C2000B000478DBB2A34202D0521CEEE7D7
:10A9B000002010BC704770B505000E002800C0B222
:10A9C000FFF7E2FF0400002C08D06068002805D0E3
:10A9D0003100C9B22800C0B26268904770BD2DE94D
:10A9E000FC4106000F003000C0B2FFF79BFF0028BB
:10A9F00006D0022833D025D304284FD044D37AE0A0
:10AA00003800C0B200281CD001213000C0B2FFF7CE
:10AA10009AFF00208DF801000DF10100FCF7C4FE43
:10AA2000DFF8BC82D8E9004501200021320001F0A6
:10AA30001DF920432943C8E900019DF80100FCF7F6
:10AA4000B9FE58E03800C0B2002801D0022100E071
:10AA50000021C9B23000C0B2FFF775FF4BE03800EB
:10AA6000C0B200280AD003213000C0B2FFF76BFF4C
:10AA700001213000C0B2FFF79EFF04E00121300049
:10AA8000C0B2FFF760FF36E03800C0B2002804D142
:10AA900004213000C0B2FFF756FF2CE03800C0B2EE
:10AAA000002805D003213000C0B2FFF74CFF22E0A0
:10AAB00000213000C0B2FFF746FF00213000C0B2D5
:10AAC000FFF779FF00208DF800006846FCF76CFE68
:10AAD000DFF80C82D8E9004501200021320001F0A6
:10AAE000C5F834EA000035EA0101C8E900019DF823
:10AAF0000000FCF75FFEBDE8F38180B500227948D5
:10AB00000168490878480068FFF744FB002801BD48
:10AB10002DE9F041040000256F48007885421FDAD6
:10AB20006E48006800EBC5063078FBF77BFE070037
:10AB30007078012801D1012000E00020C0B2390066
:10AB4000C9B291EA000F02D15FF0010801E05FF0A5
:10AB500000084146C9B23078FFF741FF6D1CDBE7C2
:10AB60005F48D0E9000100220023994201D19042C0
:10AB700002D0FFF7C2FFFFE7BDE8F0812DE9F04109
:10AB8000040088462000C0B2FFF7FEFE05002878CA
:10AB9000FBF748FE06006878012801D1012000E09B
:10ABA0000020C0B23100C9B291EA000F01D10127E3
:10ABB00000E000273800C0B200280AD04848D0E999
:10ABC0000023002000218B4203D1824201D1FFF7F4
:10ABD00094FFBDE8F0812DE9FC4704000F0015004B
:10ABE0000A2D01D207203FE0FBF746FD002805D1E2
:10ABF000FBF704FD06003000002835D1374804601B
:10AC000035480770374805605FF010085FF00009AD
:10AC1000DFF8C0A04A4641465046FBF73FFF002000
:10AC200000212F4AC2E900013800471EC0B20028A7
:10AC300015D03800C0B204EBC0082C480068009062
:10AC400098F802008DF80100294A694698F800003A
:10AC5000FBF71DFD06003000002805D1E4E7254A7A
:10AC600000212148FFF782FABDE8F68710B50024DD
:10AC700019480078844208D201211848006810F869
:10AC80003400FBF75CFD641CF2E7002010BD1CB52E
:10AC9000002411480078844207D21048006810F858
:10ACA0003400FBF7A2FD641CF3E700208DF80000E0
:10ACB0006846FCF779FD00200021094AC2E900013D
:10ACC0009DF80000FCF776FD07480068FFF783FA5F
:10ACD00016BD0000E42B0020902C0020702C0020DA
:10ACE000282C0020742C002090E4020094E4020040
:10ACF0007DAB020011AB0200012210F01F018A405F
:10AD0000DFF8181203005BB25B0941F8232070479B
:10AD1000010049B2002909D5DFF8041240B210F051
:10AD20000F00084410F8040C400904E0DFF8F411A7
:10AD300040B2085C40097047806870470100080015
:10AD400040B2202805DADFF8E001C84010F0010029
:10AD50000EE0080040B2402809DA0120203988407E
:10AD6000002801D0012000E00020C0B200E0012056
:10AD700070470100082903D2EC200841C00701D424
:10AD8000002000E00120704710B50400200040B210
:10AD9000FFF7D4FF002802D142F2010023E0200097
:10ADA00040B2FFF7B5FFFFF7E4FF002802D142F2FF
:10ADB000020018E05D49886800280FD0200040B2EA
:10ADC000400951F82020012314F01F0083401A434A
:10ADD000200040B2400941F8202003E0200040B2AA
:10ADE000FFF78AFF002010BD7FB504005049684678
:10ADF00000F064FF6846FFF79FFF002810D0684608
:10AE0000FFF79AFF05002E6869682000C0B2B047BE
:10AE1000002803D0684600F05BFFEBE7112000E05C
:10AE2000002004B070BD7FB504004249684600F0C0
:10AE300045FF6846FFF780FF00280CD06846FFF703
:10AE40007BFF05002E6869682000C0B2B0476846E5
:10AE500000F03EFFEDE77FBD38B51620FFF794FF09
:10AE600005002C00002C02D02000FFF7DBF931BDDB
:10AE70007CB5314D2878002801D0082033E02F4ED2
:10AE8000012030700020FFF7AFFF112801D1002012
:10AE900029E00020FFF7C7FF294800680190002043
:10AEA0008DF800006846FCF77FFC264901A810DFFA
:10AEB0000400002C02D10120287001E0002028703D
:10AEC0009DF80000FCF776FC002C01D020000AE081
:10AED0000020307000201C490870FFF7BDFF0120E2
:10AEE000FFF7A1FF002076BD1348007870473EB5FC
:10AEF0001649684600F0E2FE6846FFF71DFF00288D
:10AF00000AD06846FFF718FF040025686068A84764
:10AF1000684600F0DDFEEFE737BD000000E100E02D
:10AF200018ED00E000E400E0FC06FFBD042C00206A
:10AF300028E3020034E30200962C0020982C002025
:10AF4000BCE40200F9B80200972C002040E30200A4
:10AF500080B5FFF7CCFF01BD806870470100002974
:10AF600001D10E2003E0A748006808600020704768
:10AF70002DE9FE4306000F003800FFF7EFFF050044
:10AF8000002D01D02800B8E05FF00C085FF0000948
:10AF90006C464A4641462000FBF780FD8DF8006074
:10AFA00001208DF802000620ADF804003A686946D9
:10AFB000202069DF0400002C0DD02000FEF700FBEC
:10AFC000020091499148924BC01AC008000450F009
:10AFD0000100FBF7DFFF5FF00C085FF000096D4632
:10AFE0004A4641462800FBF759FD01208DF8010033
:10AFF00000208DF8020000208DF803003A686946B1
:10B00000402069DF0500002D0DD02800FEF7D8FA9A
:10B01000020080497D487E4BC01AC008000450F0F1
:10B020000100FBF7B7FF5FF00C085FF000096C460A
:10B030004A4641462000FBF731FD0A208DF800000A
:10B040003A686946012069DF0400002C0DD0200019
:10B05000FEF7B6FA020070496C486D4BC01AC00882
:10B06000000450F00100FBF795FF5FF00C085FF063
:10B0700000096D464A4641462800FBF70FFD4FF494
:10B08000B06000903A686946A12069DF0500002D94
:10B090000DD02800FEF794FA020060495B485C4B33
:10B0A000C01AC008000450F00100FBF773FF5FF006
:10B0B0000C085FF000096C464A4641462000FBF749
:10B0C000EDFC9DF8000010F0FE008DF800003A68DD
:10B0D0006946A02069DF0400002C0DD02000FEF797
:10B0E0006FFA02004E494948494BC01AC008000493
:10B0F00050F00100FBF74EFF0020BDE8FE834948F9
:10B1000000684FF48061484310F1005070472DE90A
:10B11000F04105002E68280060DF040028688642A0
:10B1200026D23B4FDFF8E4803F49B8EB0700C00868
:10B13000000450F00200FBF723FF2B6832003B496C
:10B14000B8EB0700C008000450F00200FBF72EFF28
:10B15000FFF7D5FF02002868121A3549B8EB070738
:10B16000FF083F0457F002073800FBF713FF01E028
:10B170002868B042002C03D101202E4908700DE050
:10B180002000FEF71DFA02002B492048204BC01A70
:10B19000C008000450F00100FBF7FCFE2000BDE8F1
:10B1A000F0812DE9F84191B005002248007800288F
:10B1B00025D03420ADF80000694604A861DF040002
:10B1C000002C02D0052C17D119E004AE1B4901A8B0
:10B1D00000F074FD01A8FFF7BFFE0028E9D001A828
:10B1E000FFF7BAFE0700D7F8008079683000C04743
:10B1F00001A800F06DFDEDE72000FFF713F812B095
:10B20000BDE8F081C0E402001CD8020008D50200AD
:10B21000D0D402003CD7020088D70200F4D5020047
:10B2200048D602000C010010D4DA020010DA020045
:10B2300004DB0200992C002014DD020058E3020018
:10B240000121C2685171704770B55FF0FF3400F0A2
:10B25000B5FD054E04213000FCF763F80500300011
:10B26000FFF7EEFF70BD000070E20200012210F057
:10B270001F018A401E4903005BB25B0941F823208D
:10B28000704700210160BFF35F8F70471CB500203D
:10B290008DF800006846FCF787FAF1EE104A34F0AA
:10B2A0009F00E1EE100ABFF35F8F2620FFF7DEFF5D
:10B2B0009DF80000FCF77EFA13BD80B500200D4913
:10B2C00008700D48FFF7DDFF0C490D4800F0F6FC53
:10B2D000002002BD80B5FFF7D9FFFFF705FE00286B
:10B2E00001D041DF02E020BF40BF20BF01BD000010
:10B2F00080E200E0952C00208C2C00201CE3020052
:10B300001C2C0020012210F01F018A40DFF8CC1312
:10B3100003005BB25B0941F823207047012210F063
:10B320001F018A40DFF8B81303005BB25B0941F8E4
:10B330002320704710B4020052B2002A0AD54A01F5
:10B34000DFF8A033040064B214F00F04234403F8C0
:10B35000042C05E04A01DFF89033040064B21A556A
:10B3600010BC704738B504000D002900C9B2200098
:10B3700040B2FFF7DFFF31BD10B50400200040B23E
:10B38000FFF7C0FF10BD70B50400002C08D0DFF837
:10B390005C5355F00105402606FB04F63000A84733
:10B3A00070BD00EB8103C3F84025704700EB8100BE
:10B3B000D0F840057047C0F804137047C0F8081370
:10B3C000704709B24058704781B000220B001BB291
:10B3D000C2500A0012B282580092009A01B070471F
:10B3E000D0F804057047C0F808157047012250FADC
:10B3F00081F31A607047C0F844137047C0F84813CF
:10B400007047F8B504000D001600B948617940F89E
:10B410002160B84F607907EBC000007900280CD09C
:10B420000827B549B548B64A801AC008000450F04C
:10B430000200FBF7A5FD380020E029882068FFF70F
:10B44000D2FFA97894F90400FFF78CFF94F9040067
:10B45000FFF792FF607907EBC0000121017160796D
:10B4600047F830400027A749A448A54A801AC008D9
:10B47000000450F00300FBF783FD3800F2BD10B567
:10B48000040000212068FFF7B1FF10BD10B50400D3
:10B4900004212068FFF7AAFF10BD2DE9F84304003E
:10B4A0000D0016001F005FF4803818FA05F85FEAF7
:10B4B000850919F5A07926F07F4641462068FFF7F7
:10B4C0007DFF41462068FFF799FF494609B2206891
:10B4D000FFF77AFF320029002068FFF762FF41463C
:10B4E0002068FFF788FF3800C0B2002803D041462B
:10B4F0002068FFF760FFBDE8F18370B504000D0020
:10B50000160029002068FFF776FF3000C0B200283F
:10B5100003D029002068FFF74EFF70BD38B5040046
:10B520000D0029002068FFF769FF29002068FFF758
:10B5300045FF31BD38B504000D00290009B220686F
:10B54000FFF73FFF002806D0290009B22068FFF767
:10B550003BFF012000E0002032BD401A20F07F4078
:10B5600070472DE9FE4F05000E005FF48037B740AD
:10B570005FEA860818F5A07822F07F420092390031
:10B580002800FFF7CBFF2868FFF72AFF834631002A
:10B590002868FFF70BFF81465A4631002868FFF7FD
:10B5A00000FF414609B22868FFF70EFF594648469A
:10B5B000FFF7D3FF012807D11020FFF7E4FE414633
:10B5C00009B22868FFF700FF2868FFF709FF8246E5
:10B5D00051460098FFF7C1FF040039002868FFF7C3
:10B5E0000AFF012C0FD1009A521C31002868FFF786
:10B5F000D8FE1020FFF7C7FE2868FFF7F1FE82454E
:10B6000027D00D202BE0009A31002868FFF7C9FEF3
:10B610002868FFF7E5FE824651460098401EFFF776
:10B620009CFF04007FF07F410298091AA14201D2D9
:10B630000D2014E0002C0CD1009A521C3100286817
:10B64000FFF7AFFE2868FFF7CBFE824501D00D2043
:10B6500005E0012239002800FFF74FFF0020BDE878
:10B66000FE8F38B504000D002A00D2B2022120005E
:10B67000FFF743FF31BD10B504004FF48271200085
:10B68000FFF758FF10BD38B504000D005FF480319E
:10B69000A9402000FFF742FF31BD70B504000D0046
:10B6A000AE0016F5A076310009B22000FFF742FF88
:10B6B00070BD10B504002068FFF792FE10BD10B5F4
:10B6C000040094F90400FFF729FE10BD80B5094875
:10B6D000006807490968884701BD000000E100E0F3
:10B6E00000E200E018ED00E000E400E0A0E302006A
:10B6F000802C0020482C0020D4DB0200D8D402008B
:10B70000D0D4020028E0020070B504000D00666885
:10B710003068002807D029003068A26890470028C8
:10B7200001D03668F4E730682860356070BD0200EB
:10B730005068006851680968002904D05168096898
:10B74000096853681960704710B4030000205C68F2
:10B750002268002A09D022688A4204D10A6822603D
:10B760000122100001E02468F2E7C0B210BC70476B
:10B770003CB4020052E8015FABB2D48923449489FF
:10B78000A34228BF1B1B1489A34202BFBFF32F8F04
:10B79000002007E0C3EA050342E80134002CE9D1A8
:10B7A0004FF0010001958DF80000019808609DF8A8
:10B7B000000036BC7047000050E8012FC2EA024288
:10B7C00040E801210029F7D1704700003CB4020095
:10B7D00052E8025F1FFAA5F3D488A34202BFBFF369
:10B7E0002F8F00200DE0D48923449489A34228BFE1
:10B7F0001B1BC5EA034342E80234002CE8D14FF09A
:10B80000010001958DF80000019808609DF8000086
:10B8100036BC704750E8022FC2EA224240E80221BB
:10B820000029F7D17047000070B40400002901D14D
:10B830000E2013E0100080B21D00ADB290FBF5F6B3
:10B8400005FB1600002801D0092007E02160002038
:10B8500060600020A060A281E381002070BC70477E
:10B8600038B504000D0029002000FFF781FF0028F3
:10B8700003D020682988084400E0002032BD38B594
:10B8800004000D0028886988884204D12000FFF751
:10B8900093FF012000E0002032BD38B504000D0008
:10B8A00029002000FFF792FF002803D02068698854
:10B8B000084400E0002032BD38B504000D0028889F
:10B8C0006988884204D12000FFF7A4FF012000E02E
:10B8D000002032BDBFF34F8F05490A6812F4E062C1
:10B8E000044802430A60BFF34F8F00BFFDE700BF6B
:10B8F0000CED00E00400FA052DE9F04104000D0014
:10B90000160072B6FBF735FDFBF77DFB0028FBD177
:10B910000F4FDFF840801049B8EB0700C008000463
:10B9200050F00100FBF72CFB0C480068C00700D565
:10B9300000BE0B49B8EB0707FF083F0457F00207AA
:10B940003800FBF71DFBFFF7C5FFBDE8F08100BF26
:10B95000D0D40200F0D40200BCE20200F0ED00E01E
:10B9600090E10200002200F079BA010008784978DD
:10B9700050EA012080B2704710B504002000FFF7A4
:10B98000F4FF10F0010010BD0A7812F0F0020A7006
:10B990000A7812F00F020A700200D2B2002A08D010
:10B9A000022A1CD00ED3042A33D025D3052A3DD039
:10B9B00048E00A7812F0F0020A700A7812F00F02DA
:10B9C0000A703FE00A7812F0F00252F001020A70A9
:10B9D0000A7812F00F0252F010020A7032E00A7870
:10B9E00012F0F00252F001020A700A7812F00F020F
:10B9F00052F020020A7025E00A7812F0F00252F0AC
:10BA000001020A700A7812F00F0252F030020A7036
:10BA100018E00A7812F0F00252F002020A700A7876
:10BA200012F00F0252F010020A700BE00A7812F0C6
:10BA3000F00252F002020A700A7812F00F0252F07D
:10BA400020020A7070472DE9F84390B004000D0001
:10BA50001600A878002803D101208DF80E0002E01E
:10BA6000A8788DF80E002888ADF80C0003275FF049
:10BA700000080DF10409424639004846FBF70EF86C
:10BA800001A9687CFFF780FF0DF10501A87CFFF795
:10BA90007BFFE87B002801D0012000E000209DF81A
:10BAA000061060F3C3018DF80610287C002801D031
:10BAB000012000E000209DF8061060F304118DF8CD
:10BAC0000610287B002801D0012000E000209DF80E
:10BAD000061060F300018DF80610287D002801D0C3
