:020000040007F3
:10800000781D002059D40700D78B0700B38C0700D8
:108010001B8D0700BB94070023960700000000009B
:108020000000000000000000000000001B9A070094
:108030007F9D07000000000087A7070007C8070012
:10804000A7D207004FD3070049AD0700CDD30700E3
:1080500013D407001FD4070091D4070093D407005E
:1080600095D4070097D4070099D407009BD4070044
:108070009DD407009FD40700A1D40700A3D4070014
:10808000D9C30700A5D40700A7D40700A9D40700C7
:10809000ABD40700ADD40700AFD40700B1D40700BC
:1080A000B3D40700B5D40700B7D40700B9D407008C
:1080B000BBD40700BDD40700000000000000000092
:1080C000BFD40700C1D40700C3D40700C5D407003C
:1080D00007C10700C7D40700C9D40700000000008B
:1080E0000000000000000000000000000000000090
:1080F0000000000000000000000000000000000080
:10810000000000000000000000000000000000006F
:10811000000000000000000000000000000000005F
:10812000000000000000000000000000000000004F
:10813000000000000000000000000000000000003F
:10814000000000000000000000000000000000002F
:10815000000000000000000000000000000000001F
:10816000000000000000000000000000000000000F
:1081700000000000000000000000000000000000FF
:1081800000000000000000000000000000000000EF
:1081900000000000000000000000000000000000DF
:1081A00000000000000000000000000000000000CF
:1081B00000000000000000000000000000000000BF
:1081C00000000000000000000000000000000000AF
:1081D000000000000000000000000000000000009F
:1081E000000000000000000000000000000000008F
:1081F000000000000000000000000000000000007F
:1082000010B543689C18446041B103E013F8010BBA
:1082100001F8010B1046421E0028F7D1012010BDC5
:1082200038B584B00446154669B920681D4A9042A5
:1082300009D000E0103D102D15D9102200F0C1F832
:108240000028F7D10DE0A068A84238BF002008D36D
:1082500023682A462046984718B1A068451BA560A8
:10826000012005B030BD2A4600F0ABF8F9E710B5A3
:108270000446A06840B1236801222046984718B1FF
:10828000A068401EA060012010BD1FB501910292A0
:108290000023044C039300946946102200F02AFC4A
:1082A0001FBD000001820700F8B50C46054669466F
:1082B000FFF7DDFFE0B19DF80000010603D406469C
:1082C00026600120F2BD072700F07F066946284698
:1082D000FFF7CDFF60B19DF8000000F07F00B840CF
:1082E00006439DF80000FF1D0106E9D5202FEDD3C0
:1082F0000020F2BD2DE9FC410E4600270024002598
:10830000804669464046FFF7B2FF80B19DF8000005
:1083100000F07F0000213A4600F04CFC9DF8002060
:1083200004430D43FF1D100603D5402FE9D3002061
:1083300002E0C6E900450120BDE8F681F8B5164621
:108340001C460D46002222702A703260074600F05B
:1083500053F828B9B86808B9012121700020F2BD8E
:10836000009810B901212170F2BDC00830600120D1
:10837000009901F007012970F2BD1CB5044631B126
:1083800001290ED002290ED0052913D017E00122B1
:1083900000F017F8A0B19DF800000106F7D4012005
:1083A00016BD082207E000F027F848B1009A002126
:1083B000204601E004220021FFF732FF16BD002015
:1083C00016BD694620462BE738B50D46044600F039
:1083D00013F880B128462146102200F08BFBA868D4
:1083E0000099884201D2002032BDA9600098A1689E
:1083F000091AA160012032BD694655E72DE9FF4108
:1084000004461646084671680FF2A4658A7802F0A1
:108410000F0355F8238012F0300709D0102F04D035
:10842000202F07D0302F36D04AE070690123037027
:10843000326942E0022822D1042B20DC75696946AA
:108440002046FFF7C1FF012718B93AE02888401CF1
:108450002880029868B1716828884A89904208D2B9
:108460000A89336950431A186846C0470028EDD17D
:10847000002701986060029810BB384621E07369BC
:1084800032691F880E8948897E438742324417D259
:108490007F1C1F8011E073690888188002F00F02AA
:1084A000072A08D10989306900F096FB70683169A4
:1084B000C06800F0FEF8326971682046C04700E0ED
:1084C000002004B0BDE8F0812DE9F841144687B0E2
:1084D00025690646286818B93046FFF74EFF3DE08B
:1084E000022911D169463046FFF76EFFD8B16168A5
:1084F0002B682A1D68469847A8B102980028F6D133
:1085000001987060012029E0E84671B1012903D08B
:10851000052908D1042700E008273A466946304675
:10852000FFF77EFE80B9002018E000277F1C0B2F8C
:10853000F9D2012241463046FFF772FE0028F2D000
:1085400018F8010B0106F1D43A46694603A8FFF773
:108550009CFE61682B682A1D03A8984708B0BDE8F7
:10856000F08110B553689C7814F0C00402D0402C00
:1085700003D005E0BDE8104040E7BDE81040A3E7A8
:10858000002010BD70B50D460446286886686A68EC
:108590003146204600F023FB6868206105F10C019C
:1085A0006161B07800F0C000802804BF281D206100
:1085B00070BD2DE9F84386B006461869B7680468AF
:1085C0008946904600E0A468ECB1B06887421AD1B1
:1085D000206805682DB143464A4621463046A847E3
:1085E0000EE0806801884945EDD121466846FFF7D5
:1085F000C9FF012020736A4641463046FFF7B1FFAC
:108600000028E0D100E0012007B0BDE8F08310B5FC
:1086100086B04268937803F00F0108290ED10069F3
:108620000468002C43D00022227321466846FFF7DD
:10863000A9FF6846FFF7EBFFA468F2E713F0C0015B
:1086400027D103F03004102C0DD1436919709178B3
:10865000D368006901F00F01072910D101461846BF
:1086600000F027F823E003F0300120291CBF03F0BD
:108670003003302BEBD140690021018017E01189D4
:1086800023B10A46194600F025FA10E000F0A4FADA
:108690000DE080290BD10169002203F030040A604B
:1086A000202C19BF03F03003302B4069028006B044
:1086B00010BD80B50A4686B00146684600F08FFAC4
:1086C00038B16846FFF7A3FF684600F09BFA002820
:1086D000F7D107B000BD2DE9F0418AB002AB00240C
:1086E000C3E90044054604A800F079FA00274FF0DA
:1086F000FF360DF10808A868002837D00DF10103F6
:1087000001AA69462846FFF719FE58B3019904A843
:1087100000F0B8FA00283FD10198B8421CD3059C5C
:108720000598817801F00F01082933D004A800F0E2
:1087300069FA0598A042F3D137460199B9420BD3A3
:10874000AC689DF8002004AB2846FFF732FF0028F4
:1087500057D0A8688442CED19DF800102846FFF774
:108760000CFE3AE09DF8010000284AD00598857873
:10877000069C04A800F046FA0028F7D115F0300F47
:1087800003D10599088800B1641C002C3BD000205F
:1087900061092BE00788D0E70598817811F0300F48
:1087A0000DD1069840280AD2410958F8212001230A
:1087B00000F01F0003FA00F0104348F82100EC68B5
:1087C0002CB19DF80020019904AB2846A0479DF8E4
:1087D000001004AA2846FFF7C4FE00288BD110E041
:1087E00058F8202012F1010F0BD1401C8842F7D31A
:1087F00004F01F0458F82100C4F12004E640B04200
:1088000001D0002000E001200AB0BDE8F08170B581
:1088100004460D46164631462846FFF74AFF3246C3
:1088200029462046BDE8704055E73EB50C466946EE
:10883000FFF760FD68B1DDE90023DDE900015B08B9
:108840004FEA3202C50744BFD243DB43C4E90023E9
:1088500001203EBD1CB50C4604226946FFF7E0FC32
:1088600078B19DF800009DF8011040EA01209DF8C4
:10887000021040EA01409DF8031040EA01602060C8
:10888000012016BD1CB50C4608226946FFF7C8FC3E
:10889000F0B19DF800209DF801009DF8043042EAF7
:1088A00000229DF8020042EA00429DF8030042EADD
:1088B00000629DF8050043EA00239DF8060043EAA4
:1088C00000439DF8070043EA0063C4E90023012048
:1088D00016BD3EB500F051F818B32A89DDE9000154
:1088E000082A08D1C4E90001D4E900238B4215D13C
:1088F000824215D012E0C117042A03D1206002463B
:10890000D317F3E7022A03D12080B4F90020F7E758
:10891000012A03D1207094F90020F1E700203EBD28
:1089200001203EBD3EB500F028F828B3288908286C
:108930000AD1DDE90001C4E90001DDE90023994223
:1089400017D1904217D014E0042804D1DDE90001CA
:1089500020600021F1E7022804D1DDE90001208038
:108960002088F6E7012804D1DDE900012070207895
:10897000EFE700203EBD01203EBD0D46144669468E
:10898000B8E43EB50D4614466946FFF74EFF38B3CE
:10899000288908280AD1DDE90001C4E90001DDE9E0
:1089A0000023994219D1904219D016E0042804D12D
:1089B000DDE900012060C117F1E7022805D1DDE9FA
:1089C00000012080B4F90000F5E7012805D1DDE9B8
:1089D0000001207094F90000EDE700203EBD012069
:1089E0003EBD114636E711464CE77CB50E460446BF
:1089F0001546FFF701FDC0B10098B0F5803F0BD2DE
:108A00000099801C884207D3B17801F0C001802909
:108A100002D03189814201D2002076BD00982880A1
:108A2000A91C009A2046FFF7FBFB76BD7CB50E46DD
:108A300005461446FFF7E0FCB0B100980099401CD1
:108A4000884207D3B17801F0C001802902D0318972
:108A5000814201D2002076BD009A21462846FFF7C8
:108A6000DFFB009A0021A15476BDF8B50D4684B015
:108A7000EF6800F017F800281ABFE8680028002007
:108A80000ED0A87800F030002028324639466846DB
:108A900002D1FFF7BCFE01E0FFF71DFE0199616006
:108AA00005B0F0BD0446164669468DE4000000009E
:108AB000D38807002589070083890700E389070019
:108AC000E7890700EB8907002D8A07006B8A0700FA
:108AD0000000000062B38B0708D0521E11F8013B62
:108AE00000F8013B00F024808B07F6D1830740F0AB
:108AF000208000BF103A07D330B4B1E83810103AE4
:108B0000A0E83810F9D230BC530724BFB1E80810F0
:108B1000A0E8081044BF51F8043B40F8043BD207DA
:108B200024BF31F8022B20F8022B44BF0B780370CE
:108B30007047121F17D35B0009D151F8043B20F88E
:108B4000023B1B0C121F20F8023BF6D20BE051F83F
:108B5000043B00F8013B1B0A20F8023B1B0C121FD0
:108B600000F8013BF3D238BF121D521E24BF11F88A
:108B7000013B00F8013BF8D8704730B4002513E002
:108B800050F8042BD30744BFA9F101039A18091F19
:108B9000042942F8045BFAD213468C0744BF1580BF
:108BA0009B1CC90748BF1D7050F8041B0029E7D162
:108BB00030BC7047D2B2203A22BF00FA02F1002046
:108BC00070475242D041D2F1200291404140D04002
:108BD000904041407047FEE7002200F06FB810B5AA
:108BE00001604160C2600021816041688B881A4445
:108BF0000261B1F9064022444261088800B10120B7
:108C0000C0B210BD70B543681A46118839B110332F
:108C10004360198829B9C2680168FFF7E0FF0020A6
:108C200070BD917814890D4605F03006302E02BFD4
:108C30009E7806F03006302E06D1958801696D4287
:108C40000D44002405610BE001F0F001202902D160
:108C500051894C4304E005F0C005802D08BF042471
:108C6000917811F0300F02D18168491C816001694F
:108C70009A88214411440161B3F9063019444161D5
:108C8000012070BD70B504460D46666860680188B5
:108C9000A94204D1807800F00F00082807D12046AF
:108CA000FFF7B0FF6068B042F0D1002070BD012036
:108CB00070BDFEE762F30F2262F31F42401810F00E
:108CC000030308D0C91A1FD3DB0748BF00F8012DE2
:108CD00028BF20F8022D130030B414461546103971
:108CE00028BF20E93C00FAD8490728BF20E90C003A
:108CF00048BF40F8042D890028BF20F8022D48BF46
:108D000000F8012D30BC7047C91818BF00F8012DBC
:108D1000CB0728BF00F8012D7047FEE75968DFF840
:108D20005837CA689A4200D0704710B541688268C7
:108D3000DFF848375869002804BF9869002802D036
:108D4000002108E0491C0878521E0406FAD4481C89
:108D500058619A610121597410BD38B5DFF82007B8
:108D6000DFF81847826B84B000F15C016846FFF7BA
:108D70008CFA00F042F8DFF80C07DFF80C57E060DF
:108D8000002161746161A16128464FF4477100F0D0
:108D900091FB2A46DFF8F4162046FFF738FD00283D
:108DA0001CBF607C00281CD005F5B67228781178AD
:108DB000C9B1B0B99079A0B1A26961696846FFF7FD
:108DC00064FA00F01AF805F5BA754FF4B271284646
:108DD00000F070FB2A46DFF8A0162046FFF717FDCB
:108DE00038B9002007E000281CBFA8790028F8D077
:108DF0000835E561012005B030BD204669461022E6
:108E0000FFF778BE10B5DFF88846207890B080B9BB
:108E100000F054FB2022DFF87C16684600F084FB4B
:108E200040236A46211DDFF8700600F0B8FB0120E0
:108E3000207010B010BD80B5DFF84416886B18B1F3
:108E4000FFF78BFF00B10120DFF83016087401BD79
:108E500010B5DFF82C46FF224FF4007104F15C00DE
:108E600000F0C2FB202104F1380000F023FB0020B9
:108E7000206310BD38B5044601250CB903250EE06A
:108E800040F20120844228BF042508D2DFF8EC1507
:108E900000200874FFF7DCFFDFF8E4058463284650
:108EA00032BDF8B5DFF8D86507460D46F06BB16BFB
:108EB00001244219914238BF03240FD330442A467B
:108EC00039465C30FFF706FEF16B6918F16306F175
:108ED00040022946384600F0A5FB30642046F2BD2A
:108EE000DFF89805007C70472DE9F843A2B00646EC
:108EF0000C4620279046994600F00CF90FF2B05727
:108F00003D680395FFF77EFF0CB9132030E00EB1EA
:108F100016202DE02A9BDFF87855DFF8801502A88F
:108F200005F18C06019000964A4604A800F0DCFB8F
:108F300000280CBFB8F1400F0A2019D14022214669
:108F400005F14C00FFF7C6FD202105F14C0000F0B3
:108F5000F7FA402005F14C01019000913246029B46
:108F6000291D03A800F0D4FB002814BF0520012010
:108F700023B0BDE8F08370B5044604F155050F2019
:108F80002A7800235834002A12BF042A267B012E97
:108F900004D123690BB10B60012070BDD60703D546
:108FA0006D78012D08BF23689207F3D52579012D2F
:108FB000F0D1A268DFF8E844C4F5FC24944228BF4D
:108FC000D318E7D2042070BD018A19B1406910B1ED
:108FD000012000E00020C0B2704770B50C46154675
:108FE000FFF7F2FF0126030018BF01230022002132
:108FF000204600F0FFFB08B1042602E000F0E7FB8A
:109000002860304670BD38B5DFF87C4494F86C3188
:10901000251D0020002100223BB104F5367204F525
:10902000B8751078528804F53771DFF850349C69B0
:109030005B690094FFF758FF012804D1281DBDE8A3
:10904000324000F04ABC32BDF8B50446DFF83004C7
:109050000D46C16B806B814218BF08272CD1DFF809
:109060001C64307C40B100F0B2FB20602946F069FE
:10907000FFF781FF07461FE0FFF76FFED8B1FFF74C
:10908000C2FF074600202060012F286004D1F0694C
:109090002946FFF770FF0746012F05D12968F069BF
:1090A0002246FFF79AFF0746012F08BF377403D007
:1090B000FFF7CEFE00E005273846F2BD2DE9F84364
:1090C000AAB005468846202791461E4600F022F8A1
:1090D000FFF798FE01242EB12022294622A800F095
:1090E00019FA22AD02A8DFF8BC63DFF8B0130190D3
:1090F00000964B46424604A800F0F6FA28B9202212
:109100002946304600F04AFC00B1002420462BB02E
:10911000BDE8F083029704A8782100F0CBB90123C1
:109120007230CBE710B5014601F500504FF44053C3
:1091300050F8042F5868DFF87043A0420CD100208B
:10914000A24220D118781528A3BF5869DFF85C2304
:10915000B0FBF2F0002002E0A24213D110E001F5D2
:1091600000521378152B08DB01F500511431DFF89C
:109170003C230968B1FBF2F100E00021884201D0F4
:10918000012010BD002010BD000000002DE9FC42B0
:10919000A2B005460F46202416469946029404A81C
:1091A000782100F087F941212846FFF715FD44207A
:1091B0007043B7F89430391801F196029E4234BFDB
:1091C00010782B98287048462B782A9E032B1DD8A0
:1091D000DFE803F00802101E0022314600F022FAF8
:1091E000C5F8010032464946284600F0C1F824B0CF
:1091F000BDE8F0826A1C02A9009201910246334642
:10920000A64904A800F070FA0028EBD00020EEE791
:1092100052889A31681CFFF75DFCE3E730B593B0E4
:109220001D4601230193009204460B46002221466D
:1092300002A8FFF7ABFFA0B195B1914D412202A961
:1092400005F2A120FFF746FC0120E8620021296217
:109250002046FFF7B9FE08B900F08EFA6068A860F2
:10926000012013B030BD2DE9F843A4B005460E46E9
:109270002C9F1446984613A8442100F01BF902A81D
:10928000442100F017F9002EC1463AD008F50052EB
:10929000854852F8043FA96D83423ED108F500523B
:1092A00002F108031A6801F5F853491EFF33C1F3B0
:1092B0000B01591A8A4230D34FF440514A68824216
:1092C0000ED108781128ACBF0869002008F50051BC
:1092D0000A78112AA6BF10310968002188421CD1E2
:1092E0004046FFF71FFF012001904346A96D009102
:1092F0000022294613A8FFF749FF70B1A86D8144E9
:109300003F1A20000BD00020019000974B4600220E
:10931000294602A8FFF73AFF08B9002025E02D985A
:1093200010B3574FAEB14046FFF7FCFE18B107F13E
:10933000180000F017FA412213A907F51870FFF77B
:10934000D9FB200014BFAC20A520F862A86D78637B
:1093500001E0AA21F9623CB1412202A907F2E22010
:10936000FFF7B8FB6868F860012025B0BDE8F0831E
:1093700038B50C4611460278032A1ED8DFE802F001
:109380000A020C14D0F801500022204600F04AF9DD
:10939000A84212D1012032BD0A46214601B0BDE8E3
:1093A00030400023401C89E600912346411C4022A6
:1093B0000020FFF799FD012800D0002032BD2DE9E3
:1093C000FE4F2E4B2E4DD3F81C9082460E4617466C
:1093D0003246514648460124FFF7A1FEA04648B94F
:1093E0001724A046002F39D1B8F1010F33D1012045
:1093F00068612DE099F855204AB93B4632465146FE
:109400004846FFF70BFF0028ECD10524E9E702F0FE
:10941000010B520801970096534602F0010259468B
:109420004846FFF720FF0028DCD105249FB1BBF19F
:10943000000F05D000F0DAF9824508BF00F09CF972
:1094400005F1240000F08EF9FFF702FDC5F848A0F1
:109450002046BDE8FE8FFFF7FBFCF9E7B8F1010FEE
:10946000EED100223146504600F0DCF8A8626E6270
:10947000EAE70122A3E700006CC80700F41400200B
:10948000540400201D8D07007C0F00208CC90700AC
:1094900024140020A8D2070068D407002CD40700A9
:1094A0000080070014150020DBE5B15140420F0099
:1094B00000000000002200F09BB8FEE7F8B50B4862
:1094C0000B4C0C4D0C4F041B01202870002600E0B3
:1094D000761CB6EBD40F05D257F83600804700282B
:1094E000F6D0F2BD022028700020F2BD000000007E
:1094F000000000006F150020000000000144491E1C
:1095000005E002780B7800F8013B01F8012981425F
:10951000F7D270470244521E03E011F8013B02F8F3
:1095200001398242F9D2704770B504460D4616469D
:10953000FFF7F0FF3246A919A019BDE87040E9E72E
:1095400038B504460D46FFF7D9FF29466019BDE836
:109550003440D3E700B910E001B911E000220A60FD
:1095600048600020704700B907E00068884202D0D8
:1095700048F2405070470020704748F21050704742
:1095800048F21350704700B9F7E7914202D048F211
:10959000115070470020704748F20350F2BDF8B5F3
:1095A00000F012F878B904B913E0A879874200D026
:1095B00012E00C4800B9EFE72146304600F025FAEA
:1095C00008B907493160F2BD05460E4614461F46EC
:1095D000C0E748F21050F2BD48F21150F2BD000051
:1095E0007052464D0B9A070062F30F2262F31F423E
:1095F00000B500BF130096469446103928BFA0E876
:109600000C50FAD85FEA417C28BF0CC048BF40F834
:10961000042BC90728BF20F8022B48BF00F8012BF4
:1096200000BDFEE730B50346002A0EBF4FF0FF3005
:109630001068C04300240BE01A5D50400822C507A3
:1096400054BF0025044D521E85EA5000F7D1641C1A
:109650008C42F1D3C04330BD2083B8ED10B5040077
:1096600000D11CE001B91DE061600968884710B9AC
:109670001C482060002010BD10B500B90FE0036841
:10968000184CA34202D048F2025010BD01B909E0C3
:109690000AB9002010BD43685C68A04710BD48F2BD
:1096A000015010BD48F2105010BD38B510B948F245
:1096B000015032BD03680B4CA34202D048F2025065
:1096C00032BD11B948F2135032BD43681468DD68E9
:1096D000AC4202D248F2145032BD9B6801B0BDE8E2
:1096E000304018476E52464870B5044615461E462F
:1096F000FFF7B4FF58B9324629462046FFF7BCFFB2
:1097000028B9059A04992046BDE87040CDE770BDA0
:109710002DE9FC4105460E46144698460F49304651
:10972000FFF721FFC0B97068089F4279099952007C
:109730003846FFF728FF78B914B948F210500BE00B
:10974000074810B948F2035006E000974346224606
:109750003146284600F062F9BDE8F6817052464D68
:109760001D9A070000210022002380E80E004749CF
:10977000002008637047000010B543F20404444918
:109780002068884213D100235FF0040243A12046E1
:1097900000F07BF958B93D48016A012904BF002255
:1097A000026262688169A2F580525118816110BD20
:1097B00043F20400364A0168914207D1406800F63E
:1097C000FF71401EC0F30B00081A70470FE080B510
:1097D000FFF7EEFF2D4A9169081800F6FF73401E4F
:1097E000C0F30B00181A02BDE2E7000000BF4FF4FF
:1097F000805070472DE9F0478046894614469A46C6
:109800000027224E002500211FB1022F16D007D3BA
:1098100017E0FFF7DCFF74B1316A01290BD10BE0CF
:10982000FFF7C6FF5FEA0A0101BF43F204010A68BD
:10983000174B9A4200D10125294603E04FF480508E
:1098400000E00020134AA2F54052101A404502D20F
:109850000120012204E000205FEA090218BF012272
:109860000A4205D0022F03DA7F1CFFB2022FC9DDA6
:1098700008B1042008E0022FA8BFFFF77DFF17B151
:109880000548FFF76FFF0020BDE8F0875404002073
:10989000DBE5B151008007006C04002000000000EF
:1098A000F0B5002300243B4F8C4214DA43F2040548
:1098B0002E68BE4202BF50F824602D89AE4209D006
:1098C000150005D050F824504FF6FE76B54201D071
:1098D000641CE9E701231846F0BDF8B5054605F11B
:1098E000540601243078002851D07078002818BF21
:1098F000012803D0022818BF032848D1B17E0329CC
:1099000002D1297A11B942E0142441E0E9683429EE
:1099100018BF11243CD143F204021E4F1368298A58
:10992000BB4215D159B16A695AB104280CBF012252
:109930000022C9B205F11400FFF7B2FF80B912246A
:1099400026E010B902290BDBF3E7012808D1F6E77E
:1099500000291CBF69690029F1D128780028EED0C0
:109960007178287888B1002918BF01290A4804D0E5
:10997000C0686968884206D20AE0806869688842DF
:1099800006D3814204D0102402E0012900D00F2424
:109990002046F2BDDBE5B151540400200300002055
:1099A00013F0030F09D0521E22BF13F8010B11F858
:1099B00001CBB0EB0C00F3D0704711F0030F14D1C2
:1099C000121F22BF53F8040B51F804CB6045F7D0A7
:1099D000121D0AD200BA9CFA8CFCB0EB0C0038BF06
:1099E0006FF0000088BF01207047521E22BF13F89D
:1099F000010B11F801CBB0EB0C00F6D0521C08BFE4
:109A00001046704740688168084780B542685279BF
:109A10000830FFF789FD002002BDFEE72DE9F04385
:109A200099B00C46209F00F020F8666805467079D2
:109A3000814588BF81464A46414611A8FFF76AFD25
:109A40007279394601A8FFF76FFD009501AB4A46D0
:109A500011A904F1080000F02BF800280CBF48F20F
:109A60004250002019B0BDE8F08390469946204648
:109A7000FFF7C8BF416900291CBFC068084770478D
:109A800000220949094800F07BB980B500931346CC
:109A90000A460146054800F078F902BD13460A4619
:109AA0000146024800F085B9D0D3070040040020E9
:109AB0002DE9F04FEDB01F46769E0490B6F90230C6
:109AC00096F9004013F11F0948BF03F13E0949F31D
:109AD000471909F1FF3824AB002543F828506CAB37
:109AE00003EB88034CA88A469346394696F9012031
:109AF00043F8805C43F8605C00F0A5F996F901201A
:109B000054A8B91800F09FF921464CA800F0A5F917
:109B10000746002840F02D8154A800F09EF90290DD
:109B2000002840F0288106F124034A464CA9184633
:109B3000039300F0A1F9012840F01F814A4654A97F
:109B4000039800F099F90128069040F016811CADA9
:109B50000CAF4B46039A54A9284600F0A2F9029B89
:109B600047F828305A4651463846334600F01CFA2A
:109B700039463846039BCDF800902A4600F059FA42
:109B80000DF5B878039BCDF800902A464CA914A88F
:109B900000F04FFA22464046049900F0EDFAA30087
:109BA00008EB030A0793049BA100591806F1440B24
:109BB000504600F0E1FA594634A800F0DDFAA3005F
:109BC0000BEB03013CA800F0D7FA331D414634AA41
:109BD00028460094059300F0DBFA534642463CA920
:109BE00034A8009600F0E6FA2346321D294628469E
:109BF00000F057F92A4651464046334600F03FFBF5
:109C0000029BCDE9083B049B49463846CDE90A381A
:109C100000F054FB4946804614A800F04FFB8045F5
:109C2000B8BF80461FFA88F808F1FF3B0FFA8BFB9C
:109C30005946384600F062FB5946071C14A818BF65
:109C4000012700F05BFB002814BF022300231F4301
:109C50000DF1200A22465AF8277024A8394600F050
:109C60008BFA0DF1B00BA300F918584600F084FAF6
:109C70002146284600F04CFBA8F10208069B2B6009
:109C80000FFA88F80DF1900AB8F1000F23DA234695
:109C9000059A2946284600F004F933462A465946D3
:109CA000504600F0ECFA4A465146039800F0E4F8BA
:109CB000012804D04B46039A504600F039FB013C82
:109CC00064B24CAA23064AD5029BB3FA83F040093A
:109CD0006DB0BDE8F08F33462A46D6F8A4705946D9
:109CE0005046B84741460CA800F008FB4146071C07
:109CF00014A818BF012700F001FB002814BF02239D
:109D000000231F4308AB53F827701FB32246394680
:109D100034A800F031FA079B3CA8F91800F02CFA9F
:109D200033462A463CA934A800F0A9FA059B0094C2
:109D300034AA514644A800F02BFA5B4652463CA98F
:109D400034A8009600F036FA334644AA294628463D
:109D500000F01EFB08F1FF380FFA88F894E752F87C
:109D600024105AF824304B40029919430291013CC7
:109D7000A8E72846ACE73846AAE70298A8E7FEE736
:109D8000016011460268136818472DE9FC41164628
:109D90009846089F04460D46424600F047F8009753
:109DA000204624682946E56843463246A847BDE870
:109DB000F681F8B504461F46636816461A680D46D4
:109DC000724300F033F820462468294625693B4653
:109DD0003246A847F2BD38B500281CBF01680029EB
:109DE00017D100250E4C00E06D1C0E480E49401A9C
:109DF0001422B0FBF2F295420FD21421694360188D
:109E000061580029F0D0C96988470028ECD00120AA
:109E100032BDC969BDE834400847002032BD0000AA
:109E2000400400205404002040040020C3689942EC
:109E300007D300695118491E88428041C043C00FB2
:109E40007047002070478B1802448B4200D1704746
:109E500013F8010D02F8010DF7E710B500231A46BB
:109E60005CB2A14203DCB2FA82F0400910BD50F8A6
:109E7000234001332243F3E710B5013A52B21306EF
:109E800001D5002010BD50F8224051F822309C42EC
:109E900005D802F1FF32F2D24FF0FF30F2E7012095
:109EA000F0E7F0B50F46A1B006461946384615460C
:109EB0001C46FFF7D2FF20B1304600F029FA21B04E
:109EC000F0BD22463946684600F056F9294608A8F2
:109ED00000F052F910A8214600F01AFA012318A840
:109EE000109300F015FA224608A96846FFF7C4FF50
:109EF00028B9224610A9304600F03EF9DFE7009B62
:109F0000DA0709D42146684600F052FA224629466B
:109F100010A800F05AFAE6E7089BDB0707D42146B1
:109F200008A800F045FA2246294618A8F1E70028BB
:109F300023461CDD08AA6946684600F0F9F9214667
:109F4000684600F035FA224618A910A8FFF794FFDA
:109F5000002805DA10A923462A46084600F058FAD8
:109F600010A9234618AA084600F0E2F9CEE708A98E
:109F70006A46084600F0DCF9214608A800F018FA05
:109F8000224610A918A8FFF777FF002805DA18A9BC
:109F900023462A46084600F03BFA18A9234610AA91
:109FA000084600F0C5F9BEE72DE9F0471F46B3F9B2
:109FB0000230894613F11F0148BF03F13E014D11E4
:109FC000D91D48BF03F10E01CC1094424FFA85F819
:109FD00028BF14464146064600F09AF922464946F3
:109FE000FFF731FFB7F90220E40094421FD9A41A09
:109FF00006EB85010022C4F120058E420ED32437E2
:10A00000424631463846FFF737FF01280FD0434616
:10A010003A463046BDE8F04700F08AB951F8040DE1
:10A0200020FA04F313430B6000FA05F2E5E7BDE8FC
:10A03000F0872DE9F04FB5B004AC9DF9F8501F46FC
:10A0400081462B46204600F011FA24AB29463846BB
:10A05000CDE9023400F032F9C0EB851004B2002CD7
:10A060002646B8BF04F11F06634246F3471603F0C5
:10A070001F0304F01F0814A858BFC3F1000831469D
:10A0800000F046F9B8F1000F30B22DDD14AB00221C
:10A0900003EB8000C8F1200C1346AB4219D32FB25A
:10A0A0007B00019314AB03EB870705F1FF3834AB5A
:10A0B000012603EB8808002C54DA34AB03EB860648
:10A0C0002A4656F8C81C484600F056F835B0BDE898
:10A0D000F08F57F8236006FA08F10A4340F8042B82
:10A0E000013326FA0CF2D8E714AB2A46394603EBC3
:10A0F000800000F041F8D2E70FFA82FE5AF8C83C1F
:10A1000053F82EB034AB03EB8202013052F8803C9E
:10A110000B44BBEB030334BF012200229B4518BF55
:10A1200011465CF8C82C42F82E30019B42B29A428C
:10A13000E2DB731A5E42294614A85E4100F038F94A
:10A1400034AB03EB8503294653F8802C58F8803C48
:10A15000384643EAC273013C48F8803C24B200F020
:10A1600027F9A8E734AB0020C6F1010C014603EB48
:10A17000860A03EB8C0CD8E710B500235CB2A24230
:10A1800000DC10BD51F8234040F823400133F5E7CF
:10A1900070B59DF910401E462346054600F0C8F8EC
:10A1A00038B12346324629462846BDE8704000F0C3
:10A1B0002FB970BD2DE9F0438BB01446129D15F9EF
:10A1C000046B00961F46804689462B460246214670
:10A1D00002A8FFF7DDFF02A9129A084600F0CFFAA5
:10A1E000129B02AA4146404600F0D2F8129B02AAF6
:10A1F0002146204600F0CCF82B464A4639463846E0
:10A200000096FFF7C5FF129A394602A800F0B7FA88
:10A2100002A92B46424608460096FFF7B9FF02A95D
:10A220002B46224608460096FFF7B2FF2B464246D1
:10A23000214620460096FFF7ABFF129B2246494677
:10A24000484600F0A5F82B4602AA41462046009653
:10A25000FFF79EFF129B22463946384600F098F8D9
:10A260002B464A46394638460096FFF791FF32465C
:10A2700002A92046FFF780FF0BB0BDE8F083F0B5E0
:10A28000154689B01C4607460E461A4629466846BA
:10A2900000F075FA23466A463946384600F078F8E9
:10A2A00023462A466946684600F072F823466A4605
:10A2B0003146304600F06CF809B0F0BD013910B5F8
:10A2C00049B2041D0A06CBB204D4013954F8212046
:10A2D000002AF7D001335BB273B103F18042013A37
:10A2E00050F82220002022B9013B00EB431318B2A2
:10A2F00010BD52080130F6E71846F9E74A1101236C
:10A3000050F8220001F01F0103FA01F108407047E4
:10A31000002310B51C465AB2914200DC10BD40F833
:10A3200023400133F7E700000000000000000000B8
:10A33000C3F10803DB0070B50133002403A500BF9F
:10A340005B1920C940CAAD1B20C0184720C940CAAC
:10A35000B54120C020C940CAB54120C020C940CA6B
:10A36000B54120C020C940CAB54120C020C940CA5B
:10A37000B54120C020C940CAB54120C020C940CA4B
:10A38000B54120C06441B4FA84F0400970BD00BFFB
:10A3900030B51C4691B0054693F90030684600F090
:10A3A00065F8D4F8AC3069462846984711B030BDFE
:10A3B00000EB81010023884200D3704751F8042D3F
:10A3C00043EA52030B60D307F5E770B5036813F057
:10A3D00001060546144605D013460A46014600F01C
:10A3E00017F8064621462846FFF7E2FF46B104F17A
:10A3F0008042013A55F8223043F0004345F82230BC
:10A4000070BD00000000000000000000000000001F
:10A41000C3F10803DB0070B50133002403A500BFBE
:10A420005B1920C940CAAD1920C0184720C940CACD
:10A43000754120C020C940CA754120C020C940CA0A
:10A44000754120C020C940CA754120C020C940CAFA
:10A45000754120C020C940CA754120C020C940CAEA
:10A46000754120C06441204670BD00BF2DE9F04F0A
:10A4700008B4F8CA04B451F8042BA3FB028940F8CD
:10A48000048B4FF0000AE4FB629A4FF0000BE5FBEF
:10A4900062AB4FF0000CE6FB62BC4FF0000EE7FB36
:10A4A00062CE51F8042B4FF00008E3FB628940F8BC
:10A4B000048BE4FB629AE5FB62ABE6FB62BCE7FB64
:10A4C00062CE51F8042B4FF00008E3FB628940F89C
:10A4D000048BE4FB629AE5FB62ABE6FB62BCE7FB44
:10A4E00062CE51F8042B4FF00008E3FB628940F87C
:10A4F000048BE4FB629AE5FB62ABE6FB62BCE7FB24
:10A5000062CE51F8042B4FF00008E3FB628940F85B
:10A51000048BE4FB629AE5FB62ABE6FB62BCE7FB03
:10A5200062CE40F8049B40F804AB40F804BB40F80E
:10A5300004CB40F804EB0CBC052B00F01E810C682A
:10A54000A0F11400A1F11401A2F1140252F804EBDD
:10A550004FF0000550F8046BE4FB6E5652F804EB24
:10A5600050F8047BE4FB6E6752F804EB50F8048B60
:10A57000E4FB6E7852F804EB50F8049BE4FB6E8920
:10A5800052F804EB50F804ABE4FB6E9AA0F114000F
:10A5900052F8044B51F804EB4FF0000CE4FB6EC58D
:10A5A00040F804CB51F804EBE4FB6E5640F8045B32
:10A5B00051F804EBE4FB6E6740F8046B51F804EBD0
:10A5C000E4FB6E7840F8047B51F804EBE4FB6E8901
:10A5D00040F8048B51F804EBE4FB6E9AA0E8000607
:10A5E000062B00F0CA800C68A0F11800A1F1180138
:10A5F000A2F1180252F804EB4FF0000550F8046B7A
:10A60000E4FB6E5652F804EB50F8047BE4FB6E67F3
:10A6100052F804EB50F8048BE4FB6E7852F804EB2C
:10A6200050F8049BE4FB6E8952F804EB50F804AB3D
:10A63000E4FB6E9A52F804EB50F804BBE4FB6EABFB
:10A64000A0F1180052F8044B51F804EB4FF0000C45
:10A65000E4FB6EC540F804CB51F804EBE4FB6E5606
:10A6600040F8045B51F804EBE4FB6E6740F8046BC0
:10A6700051F804EBE4FB6E7840F8047B51F804EBEE
:10A68000E4FB6E8940F8048B51F804EBE4FB6E9A0E
:10A6900040F8049B51F804EBE4FB6EABA0E8000C1F
:10A6A000072B6AD008B40C68A0F11C00A1F11C01B2
:10A6B000A2F11C0252F804EB4FF0000550F8046BB5
:10A6C000E4FB6E5652F804EB50F8047BE4FB6E6733
:10A6D00052F804EB50F8048BE4FB6E7852F804EB6C
:10A6E00050F8049BE4FB6E8952F804EB50F804AB7D
:10A6F000E4FB6E9A52F804EB50F804BBE4FB6EAB3B
:10A7000052F804EB50F804CBE4FB6EBCA0F11C0043
:10A7100052F8044B51F804EB4FF00003E4FB6E35A4
:10A7200040F8043B51F804EBE4FB6E5640F8045B40
:10A7300051F804EBE4FB6E6740F8046B51F804EB4E
:10A74000E4FB6E7840F8047B51F804EBE4FB6E897F
:10A7500040F8048B51F804EBE4FB6E9A40F8049B3C
:10A7600051F804EBE4FB6EAB40F804AB51F804EB9A
:10A77000E4FB6EBCA0E8001808BCBDE8F08F1346EF
:10A780000A46FFF705BEFEE781B00022425040585E
:10A790000090009901B0704740589AE100F20C50C7
:10A7A00001E000F5A16001608260704730B5039D53
:10A7B000049C41EA420141EA830141EA0521DFF8B4
:10A7C000602541EA044142F8201030BDE0B500F0B8
:10A7D0000FF8012105E0E0B50B46002100220191B0
:10A7E0000092FFF7E3FF07BDE0B500F001F8F8E7DE
:10A7F000002101910091002301227047F8B50D4618
:10A8000004462868DFF81C65012710F1010F05D008
:10A8100007FA00F030602868FFF7D8FF686810F189
:10A82000010F1CBF0021FFF7D6FF2068A96900F2C5
:10A83000245211606B7D297D0B4393646A682968FB
:10A84000FFF7ACFF287D012815D1A86810F1010F92
:10A850001CBF0021FFF7BFFFE86810F1010F04D013
:10A8600087403760E868FFF7B1FFAA68E9682068A9
:10A87000BDE8F84095E7F1BD38B504460D462068BF
:10A880004FF48871FFF780FF20684FF49071FFF755
:10A890007BFF20684FF49271FFF776FF20684FF43A
:10A8A000A271FFF771FF00F0B1F92068DFF87814AA
:10A8B000C0F80413000B690142B2002A07D5DFF883
:10A8C0006C2400F00F00104400F8041C02E0DFF8D4
:10A8D0006034995401222168DFF85834090B01F0E3
:10A8E0001F0049B28240490943F8212031BD016867
:10A8F000DFF83404DFF84034C1F80803090B012203
:10A9000001F01F0049B28240490943F821207047F5
:10A910002DE9F04104464FF0FF32206800F5A161B7
:10A920004D68CE680F68D1F808801146FFF736FFF2
:10A930004FF0FF3220681146FFF733FF15F1010F8A
:10A940001CBF2846FFF750FF16F1010F1CBF304611
:10A95000FFF74AFF18F1010F1CBF4046FFF744FF05
:10A9600017F1010F03D03846BDE8F0413CE7BDE8E0
:10A97000F081F8B504460D46217916462423DFF808
:10A98000BC2313FB01F3D71897F8200008B1082067
:10A99000F2BD0FF2B03050F82110206800F0D7F966
:10A9A00008B11120F2BD29462046FFF727FF7E603F
:10A9B00029697868396018B1297F2046FFF75CFF64
:10A9C00021680820C1F800050022BA61FA617A61A5
:10A9D000012087F820000020F2BD38B500F01AF9F8
:10A9E000686810B12046FFF782FF2068D0F8001297
:10A9F00021F02001C0F80012012242604FF4AC7136
:10AA0000FFF7C2FE21680120C86000F0FBF80028B3
:10AA1000FBD000202168C1F800052046FFF778FF31
:10AA2000206800F0ADF9002085F82000686031BD95
:10AA3000F8B5054617462A790C462420DFF8FC12A3
:10AA400042438E1804F06041B1F1005F28D12846DE
:10AA500000F039F830BB7761B4604FF4907128682A
:10AA6000FFF792FE28684FF4AC71FFF78DFE706916
:10AA70002968B36801F24452002713605060012234
:10AA80008A607068C8B928684FF49071FFF784FE37
:10AA9000044600F014F80443F5D028B10F270AE06B
:10AAA0001020F2BD1120F2BD29680120C86000F01D
:10AAB00006F80028FBD0002070613846F2BD2868F7
:10AAC0004FF4AC7168E602799C492420424388180F
:10AAD000406900B10120C0B270472DE9F84F05462A
:10AAE0000E4628794FF0240806F06044DFF84C92B7
:10AAF00018FB00F0B4F1005F09EB000314D15868B3
:10AB000000244FF4047A20B12F6807F54177C7F885
:10AB100004A093469A696AB1DA693AB110B128681B
:10AB2000C0F804A3112050E010204EE00124196168
:10AB3000584603E0C3F818B0D9600020D8614FF43C
:10AB400088712868FFF720FE28684FF4A271FFF78C
:10AB50001BFE296801F2345000270660C0F804B0DB
:10AB600014B90120086005E0D1F8002242F020026B
:10AB7000C1F8002209F104022B7918FB03F3D05825
:10AB800000BB2E4630684FF48871FFF705FE04467F
:10AB900030684FF4A271FFF7FFFD054630684FF4AF
:10ABA0009271FFF7F9FD2C430443EBD0327909F1A0
:10ABB000180118FB02F841F8087000B103271DB115
:10ABC0000F2701E0C1F804A33846BDE8F28F1FB596
:10ABD0000346012402918DF80040019268461968ED
:10ABE0005A6890471FBDF8B5024600238DF8003023
:10ABF00002919068019053616846116852689047CD
:10AC000005B000BD20684FF4AC71C5E520684FF475
:10AC1000AC71B9E504462421227948484A43851895
:10AC200070477FB50C464FF492710646FFF7B4FDAE
:10AC300006F23C55B8B14FF4927100F06BF8022067
:10AC40008DF80000D6F88014C6F8801403912968A6
:10AC500002910021E0680190A161E16168462168EC
:10AC60006268904720E04FF4887100F051F8D8B145
:10AC70004FF4887100F04EF82968A069814213D121
:10AC8000E268E06960B1D6F8000220F02000C6F862
:10AC90000002E0692369A061E3600020E06100E058
:10ACA000A0612046FFF793FF4FF4A27100F030F847
:10ACB00068B14FF4A27100F02DF8A06938B10021FD
:10ACC000A161E16120462968E268FFF780FF4FF447
:10ACD000907100F01DF858B14FF4907100F01AF81F
:10ACE0000121F160606918B129692046FFF77BFFF7
:10ACF0004FF4AC7100F00CF848B14FF4AC7100F0B7
:10AD000009F8606918B129692046FFF76CFF7FBD1B
:10AD1000304641E5304637E50849094881E70000FB
:10AD200000070050080500501003420018ED00E035
:10AD300000E400E000E100E080E100E0D014002049
:10AD40000020004019AD070011480168084738B5D8
:10AD50000D461049884211D1002000F025F80C4919
:10AD600008790024002811BF01240D60012008711A
:10AD7000002000F020F80CB1112032BD002032BDBF
:10AD80000449884203D102480022026002717047E0
:10AD9000541500200020004007490868401E086044
:10ADA00000D162B67047000000BF72B60248016869
:10ADB000491C01607047EFE75C150020DFF80014C4
:10ADC000CA68062010470B2803DB0B38C0B200F01E
:10ADD00021BA704770B50C464FF4405101224D68BE
:10ADE000DFF8E0339D42DFF8E0532E6A08BF02220D
:10ADF000012E08BF521C01266670007C48B9022053
:10AE00002071DFF8C803E968E060A160C0F5FC20AC
:10AE100022E0012804BF4E689E420BD10020207121
:10AE20000A78152AA8BF4869A0604FF48050E060F6
:10AE3000886811E0D2B2904208D201202071A9683E
:10AE4000A160FEF7D1FCE060A86905E0FF20207159
:10AE500000210020A160E060206170BDDFF8681370
:10AE6000CA6B4260096C8160704738B505460C4674
:10AE70002978DFF84C23012908D0032933D004298D
:10AE80001DD006292CD0082909D031BDD168032056
:10AE900088476869FDF7EEFFFFF795FF1EE0A98A76
:10AEA0002869FDF7FEFFFFF78EFF60702046FFF771
:10AEB000D5FFE968D9B12869BDE83440084702F1F7
:10AEC0000801101DFEF7C0F8FFF77DFF0128607034
:10AED0000DD1002000F080FA48B10A20607031BD29
:10AEE0004FF40071E1602046BDE83240B6E731BD65
:10AEF0002DE9F04206460C46FDF7F2FF10B9082096
:10AF000060702EE0B18AB04D2B6D686D6A6C5B1875
:10AF10001B1A9A4202D20321617022E0A848D0F89D
:10AF20000490286B8144306905F14802FEF77AFBF2
:10AF30000746F368B28A31694846FEF7A6FD20B19C
:10AF40003069F168BDE8F0420847286BB18A4118C2
:10AF50002963286DB18AAF6441182965A760286DFF
:10AF60006060BDE8F082000010B5044686B00020A5
:10AF7000FEF731FF28B1964A1821204600F05AFA10
:10AF80001AE0684697A11822FDF7B4FD8C488E4A56
:10AF90008168136D8B420CD14068FEF76AFA8DF818
:10AFA0000100FFF710FF00F009F88A4800F014FADA
:10AFB00002E0012000F002F806B010BD8DF801009B
:10AFC0006168A268684610472DE9F04106460D46C3
:10AFD00030787B4F7C4C01284FF0010808D00328C3
:10AFE00037D004283AD006284FD008282DD053E077
:10AFF000FDF776FF002837D0706918B301051FBF31
:10B00000626D8218B9688A421CD1B0F5805F88BF32
:10B0100004202AD8626DB9688218914224D36064F2
:10B020000022E06CA064606D20652063716978681F
:10B03000236D01F6FF71090B1818FEF72FFD58B3A9
:10B04000052012E00321697026E03046FFF750FF2B
:10B0500022E0A06CA860216D69601DE0206D626D2A
:10B06000616C821A914202D00820687014E00021BD
:10B0700061644FF00008A26CE26460653046FFF73F
:10B0800073FFF9680420884706E0A06CA8604FF4BD
:10B090008050216D6960E8604046BDE8F0810000A5
:10B0A000F8B586B00546684654A1454E1822FDF70E
:10B0B00021FD2F788DF80070012428780C2853D8B2
:10B0C000DFE800F0072A442A2A522A222A1E0A19F7
:10B0D00026008DF804403AE03F480168019141683C
:10B0E0000291C168890204910069800203903B4883
:10B0F000016805912BE069462846FFF76BFE26E0C4
:10B10000287C8DF8040022E0288AADF804001EE0B7
:10B11000F168072088471AE0062812BF012828692D
:10B1200030703178012907D002290AD169462846B2
:10B13000FFF74AFF044609E069462846FFF795FEF7
:10B1400004E00020052130708DF8011054B16968C9
:10B15000AA68684690479DF80100012802D0F1686E
:10B160000520884707B0F0BD02208DF80100EEE70A
:10B1700096E7816809B907207047194A182100F03D
:10B1800059B938B5040001D1072032BD0020FEF7BF
:10B1900077FC98B9FDF74FFEFDF7A2FE084D40B1D0
:10B1A00005F10801281DFDF74FFF012801D00320FC
:10B1B00032BDEC60002000F02DF8002032BD000010
:10B1C00034000020DBE5B15154040020008007006A
:10B1D00069AF0700BDAD07000001001010000010AE
:10B1E00071B1070004000000000000000000000032
:10B1F000000000000000000000000000000100004E
:10B20000000000000000000000000000000000003E
:10B2100000000000044908700B20704702490878BC
:10B2200000220A707047000070150020002258218B
:10B23000001DFEF7F7B910B50446206810F1010FA4
:10B2400007D02046FFF7F2FF2168884201D1012094
:10B2500010BD002010BD0022C32100F51870FEF7BC
:10B26000E1B938B5634D2B6804465422191D201DE1
:10B27000FDF730FC04F15C002968BDE8384040F27D
:10B28000C7225C31FDF726BC2DE9F0414FF4FE28C2
:10B290004046584EFFF7CFFF346807462046FFF779
:10B2A000CAFF58B16068012806D02046FFF7D3FFD7
:10B2B000D4F85C12884201D1012400E000244E4DF4
:10B2C0004FF460715FB30A4641462846FDF712FC11
:10B2D00014B12846FFF7C5FF686801281DD1402238
:10B2E00005F5AE7105F22330FDF7F4FB1C2205F5E0
:10B2F000CE7105F26330FDF7EDFB012185F8A11257
:10B30000002085F8600285F8E20205F11C0105F2D3
:10B31000A2200A68026002226A60BDE8F0812CB1B6
:10B320000A4631682846FDF7D5FBD5E72846FEF7E3
:10B33000C1F802206860F0E780B5FEF7A1FB28B9EC
:10B34000FFF7A2FF002000F047F800B1032002BD84
:10B35000F8B5164604460D461F464FF46072FEF7D8
:10B360001DFB28B930001CBF0020B0470020F2BDF3
:10B37000002201212046FEF791FB68B94FF460726C
:10B3800029463846FDF7A6FB33464FF4607239462E
:10B390002046FEF77AFB00B10320F2BD38B5044623
:10B3A000154D2846FFF742FF28602846FFF753FF58
:10B3B00005F560732246294601B0C5F85C024FF4DA
:10B3C000FE20BDE83040C3E702460A48031D00687E
:10B3D000BEE74FF4FE21F7E738B505460020FFF73A
:10B3E000DDFF040003D104492846FFF7EDFF2046A6
:10B3F00032BD0000B800002054040020394A938870
:10B40000984234BF401C0020C0B2704730B512F0E3
:10B4100003030DD1334B9A604C1CE40402EB14423D
:10B42000DA6000255D701D7058809980002030BD65
:10B43000072030BD2DE9F0472A4F884679884145DD
:10B440000446154631D30020FFF7AEFC97F800A064
:10B450007878FFF7D3FF4FF6FF7950454E4604D07A
:10B460007E787878FFF7CAFF78700020FFF7A3FC9A
:10B470004E4518D0B86840F8365000EBC605002C91
:10B4800018BF5FEA08000AD07888FB684643424646
:10B4900021469819FDF71EFBA5F8048001E0002065
:10B4A000A880002002E0042000E00920BDE8F08729
:10B4B00038B50C4C0FE02278A368E56803EBC200B6
:10B4C00081886088504353F8322028449047207880
:10B4D000FFF794FF2070207861788142EBD131BD75
:10B4E00000000000341500202DE9F04FC8B0002204
:10B4F0000023CC180DF1200E66782578360446EA34
:10B500000566A578E47846EA052626434EF82260CB
:10B51000521C1B1D102AECD3402A26D208A901EB8D
:10B520008203A3F1400408AB616803EB8204A4F139
:10B530004005AB6B4FEAF34484EA734484EA9324F6
:10B5400008AB03EB8205A5F14006736A1C194FEAAC
:10B55000B14383EAF11383EAD1031C1955F8403C47
:10B560001C194EF82240521CD6E78446DCF85010D5
:10B5700007910C46DCF8541006910D46DCF8581083
:10B5800005910E46DCF85C1004918B46DCF86010E7
:10B5900003918846DCF8641002910846DCF86820C4
:10B5A00001921146DCF86C3000931A4600234FEAF2
:10B5B000F82989EAB81787EA78673A4400EA080A5E
:10B5C00021EA080787EA0A0707EB020295A757F85E
:10B5D00023703A445EF8237007EB02094FEA743A8D
:10B5E0008AEAB40282EAB45A86EA0502224006EAEE
:10B5F00005077A4092440A460146404609EB0B088B
:10B60000B3462E465B1C2546402B0AEB0904CED3DD
:10B61000079BE418CCF85040069C2D19CCF85450E8
:10B62000059BF618CCF85860049CA344CCF85CB099
:10B63000039B4344CCF86030029C0019CCF86400B2
:10B6400001980918CCF8681000995218CCF86C20B1
:10B6500048B0BDE8F08F08B90E20704700210164A2
:10B660000023C0E91213094A0949016542650949E5
:10B67000094A8165C2650949094A01664266094964
:10B68000094A8166C26600207047000085AE67BB2C
:10B6900067E6096A72F36E3C3AF54FA57F520E5188
:10B6A0008C68059BABD9831F19CDE05BF8B504000E
:10B6B0000D46164601D016B10DB90E20F2BD002779
:10B6C00016E0216CE85D6054206C401C402820642A
:10B6D0000DD121462046FFF707FFD4E9120110F5EE
:10B6E000007241F10003C4E91223002020647F1C92
:10B6F000B742E6D30020F2BDF8B50500174601D0E9
:10B700000C0001D10E20F2BD05F13806B068421CD4
:10B71000382809D280232B54382A16D2C2F1380196
:10B72000A818FDF759FA10E080232B54402A04D2C0
:10B73000C2F14001A818FDF74FFA29462846FFF745
:10B74000D3FE38212846FDF7B5FED6E90401B268DC
:10B7500010EBC20051EB5271C6E90401F071D6E959
:10B7600004010004000EB071D6E90401000C7071F0
:10B77000D6E90401000E3071D6E90401F170D6E972
:10B780000401080AB070D6E90401080C7070D6E90B
:10B790000401080E307029462846FFF7A5FEFFB1C8
:10B7A0000020736B2118C200D3400B70401C356B16
:10B7B000D5400D71F36AD3400B72B56AD5400D7355
:10B7C000736AD3400B74356AD5400D75F369D34065
:10B7D0000B76B569D54004280D77E2D30020F2BD81
:10B7E0000020C100B369C1F118012218CB401370C9
:10B7F000401CF569CD401571336ACB401372756AF0
:10B80000CD401573B36ACB401374F56ACD401575FE
:10B81000336BCB401376756BCD4004281577E0D39E
:10B82000DCE70000982F8A4291443771CFFBC0B506
:10B83000A5DBB5E95BC25639F111F159A4823F92FB
:10B84000D55E1CAB98AA07D8015B8312BE85312454
:10B85000C37D0C55745DBE72FEB1DE80A706DC9B15
:10B8600074F19BC1C1699BE48647BEEFC69DC10FC1
:10B87000CCA10C246F2CE92DAA84744ADCA9B05CFD
:10B88000DA88F97652513E986DC631A8C82703B0C0
:10B89000C77F59BFF30BE0C64791A7D55163CA06CE
:10B8A00067292914850AB72738211B2EFC6D2C4DDA
:10B8B000130D385354730A65BB0A6A762EC9C281C8
:10B8C000852C7292A1E8BFA24B661AA8708B4BC25E
:10B8D000A3516CC719E892D1240699D685350EF488
:10B8E00070A06A1016C1A419086C371E4C7748273F
:10B8F000B5BCB034B30C1C394AAAD84E4FCA9C5BB5
:10B90000F36F2E68EE828F746F63A5781478C88405
:10B910000802C78CFAFFBE90EB6C50A4F7A3F9BEE7
:10B92000F27871C630B598480178062904BF0179CC
:10B9300011F00F0F11D1816801F0F002302A1FBF02
:10B9400001F0F003402B01F0F001502905D18F499F
:10B950008F4B0A68C2F3042119600178062904BFDD
:10B96000017911F00F0F02BF017A01F0F0013029C7
:10B9700002D1884A884911600378884A8849062B91
:10B9800004BF037913F00F0F0FD1836803F0F004A5
:10B99000302C1FBF03F0F005402D03F0F003502BB7
:10B9A00003D10B68C3F3423353600378062B04BF03
:10B9B000037913F00F0F02BF037A03F0F003302B6B
:10B9C00004D1784B1C6824F080741C600378062B2B
:10B9D00004BF037913F00F0F10D1836803F0F00454
:10B9E000302C1FBF03F0F005402D03F0F003502B67
:10B9F00004D16D4B00241C605C6014600478062C3C
:10BA000004BF037913F00F0F06D1037A03F0F0039C
:10BA1000302B04BF032393660278062A04BF027901
:10BA200012F00F0F02BF027A02F0F002302A08D1A2
:10BA30005E4A0523136001249467002595603F2327
:10BA400053600278062A04BF027912F00F0F02BF7A
:10BA5000027A02F0F002502A23D1554B554A1C6855
:10BA600014605D6855609C689460DD68D5601C69F1
:10BA700014615D6955619C691462DD6955621C6AD7
:10BA800094625D6AD5629C6A1463DD6A55631C6BBF
:10BA900014645D6B55649C6B9464DD6BD5641B6CA6
:10BAA00013650278062A04BF027912F00F0F10D135
:10BAB000826802F0F003302B1FBF02F0F004402C2C
:10BAC00002F0F002502A04D149693B4A01F04F01CB
:10BAD00011600178062904BF017911F00F0F12D10E
:10BAE000806800F0F00130291FBF00F0F002402A0A
:10BAF00000F0F000502806D130480168CA0744BF62
:10BB00006FF0010101602E480268062A04BF4068F8
:10BB1000062804D12B48016841F4806101602A495C
:10BB2000C86F40F47000C867BFF34F8FBFF36F8FCB
:10BB3000264A106800285CBF506800281CD5244B9A
:10BB400001241C60234C00F049F81525156000F015
:10BB500045F8556000F042F800221A6000F03EF807
:10BB6000BFF34F8F0A681C4802F4E06202430A6088
:10BB7000BFF34F8F00BFFDE7014A0249116030BD9E
:10BB80003C0400200090D003E00F00F024030010DC
:10BB90004035014074C007400DF0ADBA3805004093
:10BBA00044020010FCED00E00C0100401056004083
:10BBB0000404001020C50040E40E004000040040D2
:10BBC000300100103C1700400CED00E000120010A6
:10BBD00004E5014000E401400400FA052068002863
:10BBE000FCD070470870020A030C000EC8704A703F
:10BBF0008B7004207047F8B504460E462569602016
:10BC000028703178697003217078A87070780128E5
:10BC100053D1307860B1032831D0062833D00728BB
:10BC200042D0092846D00A2805D00B2819D04DE06B
:10BC30003179E97049E000F04FF8C71CF9B2B068FB
:10BC40002944FFF7CFFF3F1800F049F83F18F8B23A
:10BC500029183069FFF7C6FF3F18F8B22918706934
:10BC60001EE03079E870291DB068FFF7BBFF071DA3
:10BC700000F035F83F18F8B22918306910E000F0EC
:10BC80002BF8C71C09E0F06800F027F8C71CF8B2D1
:10BC900029187068FFF7A6FF3F18F8B22918B06896
:10BCA000FFF7A0FF391811E0B088E8700521000AFD
:10BCB00028710BE03079E87007E00B2806D1FFF718
:10BCC000ADFAE8700020FFF7A5FA04216268284663
:10BCD000BDE8F840C9B210477068E91C82E7F8B2C5
:10BCE0002918F0687EE70A460178082909D15188A9
:10BCF0004B1E5380118839B19BB22BB9518003215F
:10BD000001700146104676E770470000F8B586B02E
:10BD100004460D461746684628A11822FCF7EAFE9D
:10BD20002E788DF8006001949DF80000012819D04C
:10BD300002280DD0062812D0072830D0082826D097
:10BD4000092830D00B2831D169788DF810102DE0FA
:10BD50006878A97840EA01202080608026E0687831
:10BD6000049023E02088608068780490A978EA78BD
:10BD70002B7941EA02216A7941EA034141EA0261F1
:10BD80000128059112D1606900F033F80EE0691CBA
:10BD90007A1E0491ADF81420A068039009E0E068D1
:10BDA000ADF8100002E068788DF81000681CA168FA
:10BDB00088476846FFF7DDF907B0F0BD00000000D6
:10BDC00000000000E7BC07000000000000000000C9
:10BDD00000000000F8B500F01CF8B6EBD50F07D254
:10BDE00057F8361020468847002808BF761CF4D044
:10BDF000F2BDF8B500F00DF8B6EBD50F08D207EBA1
:10BE0000C60120464A689047002808BF761CF3D038
:10BE1000F2BD04460348044D044F451B0020002694
:10BE20007047000090D4070088D4070088D407002A
:10BE30006B49012008707047BFF34F8F69496A480A
:10BE40000A6802F4E06202430A60BFF34F8F00BF4A
:10BE5000FDE7002808BFFFF7EFBF61490020087029
:10BE60006248FFF7B6BA0120F3E710B50446801E1A
:10BE700010D0401E012803D9C01E012806D90BE0AE
:10BE80005B494FF4701000F074F905E00120FFF7F2
:10BE9000E0FF01E0FFF7F8F95148416819B1204689
:10BEA000BDE81040084710BD002B06BF0378012BEA
:10BEB000FDF75EBA012070472DE9F041484E4D4A2A
:10BEC0004D49706011600020FFF736FA00286BD1F1
:10BED00000F018FA494C18B1022868D06AD363E020
:10BEE000474801680127CA034FF4701803D54FF47F
:10BEF000803101600BE0606800F0F800A82807D1ED
:10BF00006068C10704D5606800F0560060600027D3
:10BF10003C4D286A012823D143F204013A4A0868BB
:10BF2000904208D16A6B3B464FF4805105F518707A
:10BF3000FFF7BAFFA0B1FDF73BFC0146AA693B46FB
:10BF400005F2A120FFF7B0FF00281FBF2F480168AE
:10BF5000C1F30040002803D0206810F0B10F1AD0C0
:10BF600000F043FA06F1080220211820FFF74EFAEC
:10BF700008B100F07EFA206800F0F800B02806D181
:10BF80002068C00703D5206800F04E002060002024
:10BF9000C04698B108E00020C04628B930701C485F
:10BFA000FFF717FA00F0ACFA0320BDE8F0814FF478
:10BFB000A028D5E70120FFF74CFFF5E70C494046E4
:10BFC00000F0D7F8134800F0BFFA0028ECD100F0D9
:10BFD00029FAFFF76DFA20BF40BF20BFF7E7000046
:10BFE000540B00200CED00E00400FA0539BE0700F8
:10BFF00067BE0700400700500C0003001C0500400E
:10C000000004004054040020DBE5B151100500504D
:10C0100031BE07006BBE07000000000000000000FA
:10C0200081B00022425040580090009901B0704702
:10C0300038B55C4C207820BB5B490868C00302D44B
:10C040005A4A012111604FF48071594D00F035F8C2
:10C050004FF4A07100F031F84FF4A27100F02DF808
:10C060005449554BA0200870102254491A600020F2
:10C0700008600122AA600120514A28600221116053
:10C08000207031BD38B50446DFF8245105EB840239
:10C090004FF4F860C2F8401555A141F001018847FE
:10C0A000A00000F5A07001B200F007F84FF4803056
:10C0B000434900FA04F40C6031BD2846B0E710B5DE
:10C0C0006FF07F420B4691423E4C88BF1346226878
:10C0D000D218C91A22F07F4203D096293CBF96316C
:10C0E000963A41601146007BBDE81040CAE770B542
:10C0F00004460D461646FFF79BFF2660294620465C
:10C10000BDE87040DBE7F8B52F48294C00682F4D9B
:10C1100038B12A6A521C2A624FF482712046FFF716
:10C120007FFF0026B00000F5A07000B22058E0B1FB
:10C13000B00000F5A07001B2204605EB0617FFF72E
:10C140006FFF3A7B22484FF480319140016079685B
:10C1500019B13846FFF7B3FF07E0B96811B13846A7
:10C16000FFF7ADFF386800B18047761C012ED9D9A2
:10C17000F1BD38B50A461749154D0B68197B4FF4C8
:10C1800080348C402C6020B101461846BDE8384010
:10C19000ADE731BD104B1B6898600A460146184652
:10C1A000A5E700006C1500201804004008000040BE
:10C1B0000040024024E400E004E100E008450240C1
:10C1C00004430240044502400441024008000020AC
:10C1D000084302402C000020300000200000000036
:10C1E000000000000000000000000000000000004F
:10C1F0000338FDD8704700002DE9F0478046894696
:10C20000C14514461F4608BF002031D004F6FF7612
:10C2100000F0EBF8A9EB0805360BB7EB153F88BF2C
:10C220002F0B002024B3B74227BFB2462546BA469B
:10C230003D03002251464046FDF730FCC0B9681E60
:10C24000EA1C00F00300121A002349464046FDF79D
:10C250001CFC68B95248016B641BA844A9446D18C2
:10C2600005630020FFF7B8F80028A6EB0A06D9D02E
:10C27000BDE8F087F8B5FDF7B9FA494A946C536BFD
:10C28000116B484F5A1A02F6FF75521EC2F30B0289
:10C2900004F50056AA1A56F8045F0818BD4201D0EA
:10C2A0000320F2BD994201D10020F2BD08230919F3
:10C2B000FFF7A2FF18B9BDE8F240FFF78DB8F2BD55
:10C2C00038B53748C16A456A846CAC2903D1406BE4
:10C2D00004192D1A03E014B9FDF779FA04462A4629
:10C2E00021463148FDF75AFB38B100F09BF829464A
:10C2F0002046BDE8344000F03DB932BD2B49012055
:10C3000008707047F8B5264DE86A0024012806D069
:10C31000A52833D0AA2835D0AC2836D03CE06E6AA8
:10C32000AF6CFDF745FA296B0818721ACF198742CE
:10C3300008BF002208233946FFF75EFF60B9FDF70A
:10C3400037FA00223146FDF76DF9A96A884203D118
:10C3500001222A62E861AE6105F12400FDF702FACC
:10C360001249002008701248FFF736F8B0B90120D2
:10C37000ACB1296A012912D10220F2BDFFF77AFF80
:10C380000124E9E7FFF79CFFE6E7FFF773FF0028CA
:10C39000F6D1FFF795FFF3E70020F2BD0320F2BDD1
:10C3A00054040020DBE5B151008007006D1500202A
:10C3B000FDC207001F49086860B100201E4B1F49DD
:10C3C0000968C140CA0744BF1D4943F82010401CFA
:10C3D0000728F4DB7047EDE71A4881B000210160BF
:10C3E00000680090009901B0704738B5164C20786D
:10C3F000B8B91049086890B114490D68A5F54860AE
:10C400009628B4BF9625A5F54865FFF7D3FF1049D8
:10C410002846FFF7BFFE0F494FF480300860012225
:10C42000227031BD03490868002818BFFFF7C2BF5A
:10C43000704700000004014000060140080501406B
:10C440003546526E000101406E1500200405014082
:10C45000D7C3070000E100E0BFF34F8F2449254810
:10C460000A6802F4E06202430A60BFF34F8F00BF24
:10C47000FDE7F1E780B528B1012811D0052818BFE4
:10C48000072814D1012000F0CFF8002000F0B6F802
:10C49000012000F0B3F8BDE80240022000F0B2B87D
:10C4A00000F0B0F8BDE80240022000F0A7B801BDDE
:10C4B00080B500F0E3F800224FF48051002000F036
:10C4C000F9F808B1FFF7D5FF0B480022C0F5FC21B1
:10C4D00000F0F0F808B1FFF7CCFF0848FFF7ECFCDC
:10C4E00008B1FFF7C6FF0020FFF7C3FF002002BD21
:10C4F0000CED00E00400FA050080070075C4070099
:10C5000080B50749074A4FF0FF300860106000F01F
:10C5100041F8BDE802404FF4805000F0F5B800BF8C
:10C5200080E100E080E200E010B50446801F0128B1
:10C530009CBF0020FFF75DFC0C49096819B120463B
:10C54000BDE81040084710BD10B50849084C086008
:10C550000020FFF7E9FF2046FFF73CFC20B920460A
:10C56000BDE81040FEF70DBE10BD000060150020B4
:10C5700029C5070038B584B004460D466846102129
:10C58000FCF798FFAD0801940295684618DF05B0E6
:10C5900030BD0000F8B5684608A11022FCF7AAFAE1
:10C5A0004FF480510191684618DF072803D14FF0FE
:10C5B00000500160002005B000BD00000600000032
:10C5C00000000000000000000000000030B5039DE6
:10C5D000049C41EA420141EA830141EA0521104AF3
:10C5E00041EA044142F8201030BD012202FA00F075
:10C5F0000C4A09B950607047106070471DA2105C6A
:10C600000021F2E71BA2105C0121EEE710B5002427
:10C610002046FFF7F7FF641C042CF9D310BD00007F
:10C620000007005008050050FEB50446E00710D58D
:10C630005FF000050FA60027019700970023705DAB
:10C6400001220121FFF7C2FF6D1C042DF4D3FFF777
:10C65000DDFFA0070DD5002407A5002001900021D3
:10C6600000910323285D0022FFF7B0FF641C042C17
:10C67000F3D3F7BD111213140D0E0F1080B540F651
:10C68000F870016811F1010F04BF094900F085F845
:10C6900040F6F871486810F1010F07D1BDE8044079
:10C6A0004FF4FC2140F6FC7000F077B801BD0000AB
:10C6B0000080070030B50A0502D12C4B984201D307
:10C6C000072030BD000B491E00EB1131284A01251F
:10C6D00003E0536100E01361401C814211D344091F
:10C6E000A0EB4413032C05FA03F3F5D8DFE804F0BC
:10C6F00005070403F0E7ECE7EDE71360ECE75360B0
:10C70000EAE7002030BD000010B5044619480022B9
:10C71000C0F50021FFF7CEFF08B1FFF7AAFEFDF735
:10C7200047F80146144880694118401E01F6FF7120
:10C73000C0F30B00091A00220020FFF7BBFF08B16D
:10C74000FFF797FE54F8040B2168002282F3148847
:10C7500082F3108882F3118882F3138880F30888AB
:10C760004FF0FF308646084710BD000001F007007B
:10C770000006004000800700540400201D490222EA
:10C780000A60BFF36F8FBFF34F8F48601A4A10687B
:10C790000028FCD000220A600DE0164A0123136035
:10C7A000BFF36F8FBFF34F8F0160134908680028F4
:10C7B000FCD000211160BFF36F8FBFF34F8F704724
:10C7C00070B50C4C0123236000F018F800250A4EC8
:10C7D00007E051F8253040F825303368002BFCD0B5
:10C7E0006D1C9542F5D30020206000F007F870BD65
:10C7F0000000000004E5014000E40140BFF36F8F3A
:10C80000BFF34F8F7047FEE70000000001000100FA
:10C810000000000001000000000000000200050010
:10C8200001000000220000000000000000000000E5
:10C8300000000000000000000000000001000100F6
:10C8400000000000010000000000000002000500E0
:10C850000100000042000000000000000000000095
:10C8600000000000000000000000000001001100B6
:10C870000400FCFF040000000000000002001100A2
:10C880000400FCFF04000000000000000300210081
:10C890000400FCFF04001000000000000400110070
:10C8A0000100FFFF01000000000000000500110072
:10C8B0000200FEFF0400000000000000060011005E
:10C8C0000400FCFF0400000000000000070011004D
:10C8D0000400FCFF04000000000000000800170036
:10C8E0000200FEFF240000000CC807000900100031
:10C8F0000100FFFF0100000008C807000A00270030
:10C900000200FEFF440003003CC8070000000000D6
:10C910000000000000000000000000000100110005
:10C920000100FFFF010000000000000002001700EE
:10C930000200FEFF640100006CC807000000000058
:10C9400000000000000000000000000001000700DF
:10C9500000000000680100001CC90700020001007F
:10C9600000000000010000000000000003000500BE
:10C970000100000042000000000000000000000074
:10C98000000000000000000000000000010017008F
:10C990000400FCFF680100001CC90700020017002A
:10C9A0000400FCFFAC0100004CC9070000000000BF
:10C9B000000000000000000000000000F0B50822A8
:10C9C00089B00C460646FDF7D7FBCB6A03930B6B89
:10C9D00004934B6B05938B6B0693CB6B07930027EC
:10C9E00008236A4669466846CDE901770097FDF756
:10C9F0000FFD082305466A4631463046FDF708FD1F
:10CA0000236B0393636B0493A36B0593E36B054460
:10CA1000CDE906376A46082369466846FDF7F8FC03
:10CA2000082305446A4631463046FDF7F1FC236A87
:10CA30000093636A0193A36A0293A36B0693E36B6B
:10CA40000793054408236A4631463046CDE904770A
:10CA50000397FDF7DDFC636A0093A36AA26B019361
:10CA6000E36A02930492636BE26B0393CDE90523BF
:10CA7000236A0793054408236A4631463046FDF78A
:10CA8000C7FCE36A0093236B0193636B0293236AF1
:10CA90000693A36A0793054408236A463146304645
:10CAA000CDE904770397FDF743FC236B0093636B99
:10CAB0000193A36B0293E36B0393636A0693E36AA8
:10CAC00007932D1A08236A4631463046CDE904778C
:10CAD000FDF72EFC636B0093A36B0193E36B029352
:10CAE000236A0393636A0493A36ACDE90537236B32
:10CAF00007932D1A08236A4631463046FDF718FC85
:10CB0000A36B0093E36BCDE90137636A0393A36AD8
:10CB10000493E36ACDE90537636B07932D1A082365
:10CB20006A4631463046FDF703FC2D1A0D4C0FD4F2
:10CB300035B9082231462046FDF79EF901280FD06D
:10CB40000823224631463046FDF7F2FB2D1AEFE767
:10CB50000823224631463046FDF75AFC2D18F7D4FB
:10CB600009B0F0BD8CD10700001DFDF7B6BF011F55
:10CB70004F4800F0EFB81CB50A464E4C01466B46D4
:10CB800004F1400000F0FBF89DF8002004F14001A2
:10CB900004F13800FDF74CFF16BD70B50E46017864
:10CBA000012902D002291CD070BD017A414D0D240B
:10CBB00029B142681178281D00F011F9044600F0EF
:10CBC00061F89CB9EA68A9683046FFF79FF83848D1
:10CBD00000F0A1F850B1C01C0021A860E9602971E3
:10CBE00070BDC068BDE87040FFF743BC70BD000079
:10CBF00070B5304D297888B009B1002040E0E86276
:10CC00002B4E304600F070F8040038D1304600F06A
:10CC100082F8C01CA860002183202861E960297186
:10CC2000202225482549A861E9618320286205F171
:10CC3000590123486962A8624FEA0D0022A1FBF75F
:10CC400059FF062108220091019207210522029135
:10CC50000392012105F114028DF814100492694623
:10CC6000184A05F1340000F00CF9040007D100F077
:10CC700009F804460120E96A287001B18847204676
:10CC800008B070BD012205F1300105F134006BE7F9
:10CC900010B5084C2178012908D1094A904205D0E5
:10CCA00004F13800FDF799FE00212170002010BD2D
:10CCB00044D407004400002077CB07006FCB070067
:10CCC00088D407009BCB0700FFFFFFFFFFFFFFFF9C
:10CCD000FFFFFFFFFFFFFFFF00000000000000005C
:10CCE0000000D6010600000010B508B90E2010BDE6
:10CCF0000368426881681A60891A03E013685C1C43
:10CD0000146019700B46591EDBB20268002BF5D176
:10CD10000020107110BD38B504460020FEF744F81D
:10CD2000216862680868002582420ED2421E0A60AD
:10CD30001578208AE36845431D44A36820689A1A41
:10CD400003799A4238BF1A460A710020FEF733F879
:10CD5000284632BD38B504460D460020FEF724F8BB
:10CD6000206801684A1C0260E068228A2D1AB5FB1F
:10CD7000F2F20A700020BDE83240FEF71CB8F0B5B0
:10CD8000002818BF002900D00BB90E20F0BD0024E8
:10CD90001C600AE01D686E1C1E600F5D475503E0B5
:10CDA00000F016F8DD264655641C944209D20D5D4C
:10CDB000C02D02D0DB2DF3D0ECE700F009F8DC2623
:10CDC000F1E719684A1C1A60C02343540020F0BDE3
:10CDD0001D68DB2646556D1C6F1C1F60704710B523
:10CDE00008B90E2010BD8268C3689A4201D10420A0
:10CDF00010BD04781CB1022C27D00FD32AE0C02923
:10CE000002D0DB2902D004E0002010BD0121017016
:10CE100020E0531C8360406881541BE0DC2902D071
:10CE2000DD2906D00DE0511C8160C02341688B5480
:10CE300004E0531C8360DB21436899540022027094
:10CE400008E0022101700B2010BDC02902D1002191
:10CE500001708160112010BD1FB50A4601788DF860
:10CE60000010436801938168134B8DF8081003EBA1
:10CE70008204C0680390616853F822206846904796
:10CE80001FBDF8B5044688B026780B48154640F813
:10CE9000265000EB86000F69476068462022FBF7AA
:10CEA00029FE002D14BF054A002204966946201D64
:10CEB000FDF75FFD09B0F0BD4C15002059CE07000D
:10CEC0002DE9F04793F9006092B004468946104678
:10CED000314615469846FCF7C0FF002840F0918087
:10CEE0004246494602A8FDF74AFC434602AA2146AB
:10CEF0000AA8FDF74DFA02A908464246FDF73FFC95
:10CF000043462A4649464846FDF742FA08F10407D7
:10CF1000424629462846FDF732FC3B462A46214632
:10CF20002046009600F075F83B462A4629462846DA
:10CF3000009600F06EF83B462A46214628460096A9
:10CF4000FDF726F943462A4621462046FDF720FAFA
:10CF50003B46224621462846009600F05AF83B46BA
:10CF600000962A462146204600F053F82368DB0746
:10CF70004AD533463A4621462046FDF749FA31461E
:10CF800082462046FDF714FA06F18043013B54F82F
:10CF9000230040EACA7044F823004246214628464E
:10CFA000FDF7EDFB3B460AAA294628460096FDF709
:10CFB000EFF83B460AAA294628460096FDF7E8F80E
:10CFC0000AA908463B462A460096FDF7E1F8434683
:10CFD0000AAA21462046FDF7DBF902AA3B46104685
:10CFE00021460096FDF7D4F8324629462046FDF743
:10CFF000C3F849462846FDF7BFF802A94846FDF7A1
:10D00000BBF812B0BDE8F08731462046FDF7D0F9F5
:10D01000C3E770B59DF910401E4623460546FDF74F
:10D02000F7F930B9224629463046FCF725FF01289A
:10D0300007D02346324629462846BDE87040FDF712
:10D0400077B970BD2DE9F843074686B0B8688846C1
:10D050001446994678B10F9D0E9E68461821FCF73C
:10D0600029FA8DF80080CDF8089003940496059570
:10D070006846B968884707B0BDE8F08331A14160D0
:10D080000020704780B52E4800F07CF8002002BDDB
:10D0900080B510461A46FBF71DFD002002BD2DE9A4
:10D0A000FE430446DFF898900D4690461F464846DA
:10D0B00000F066F808B1112011E00A9EBA08414656
:10D0C0002846FFF77DFB484600F05CF80196009784
:10D0D0002B46424601212046FFF7B4FF0020BDE861
:10D0E000FE832DE9FE430446DFF854908846164639
:10D0F0001F46484600F044F8002530B1112012E0E8
:10D1000008EB0530FFF73AFB6D1CB542F8D14846F5
:10D1100000F038F80197009643460022022120468D
:10D12000FFF790FF0020BDE8FE830846704700200F
:10D1300070470348006800B10120C0B2704700008A
:10D14000681500200010000004000000010000002D
:10D1500010B5024652E8000F40EA010442E80043DD
:10D1600093F0000FF6D110BD10B5024652E8004F03
:10D1700004EA010042E8000393F0000FF6D110BD6D
:10D180000121E5E70021EFE708200001FFFFFFFF95
:10D19000FFFFFFFFFFFFFFFF000000000000000097
:10D1A0000000000001000000FFFFFFFF512563FCAD
:10D1B000C2CAB9F3849E17A7ADFAE6BCFFFFFFFF12
:10D1C000FFFFFFFF00000000FFFFFFFF96C298D89F
:10D1D0004539A1F4A033EB2D817D0377F240A463A0
:10D1E000E5E6BCF847422CE1F2D1176BF551BF37A9
:10D1F0006840B6CBCE5E316B5733CE2B169E0F7C7C
:10D200004AEBE78E9B7F1AFEE242E34F4B60D22748
:10D210003E3CCE3BF6B053CCB0061D65BC8698763E
:10D2200055BDEBB3E7933AAAD835C65AC1CE07002D
:10D2300039D20700BDC907002DE9F04115468AB073
:10D24000044688461C22002103A800F022F82E1D67
:10D2500095F9007003232A46414620460293FDF7C4
:10D260008EFA334602AA214620460097FCF790FF2B
:10D270002B46424621462046FDF78AF80097334662
:10D2800005F1840221462046FFF7C3FE0AB0BDE83F
:10D29000F08110B5044610460A4601462046FBF7C9
:10D2A00009FD204610BDFEE7BC221318C3B5D825E2
:10D2B0005B9C8D18CBA7DBF4A76063AE8FC281683F
:10D2C00044C8950C0C2F53464B15DB8014B1C31F7B
:10D2D000E252489EAA89011497322C409A505D6E02
:10D2E00091D1A8BF566D8BB430B5016884684218DF
:10D2F000416802EB5103C9070BD54C4409E012F910
:10D30000011B12F8015B002904F8015B05D5491CDB
:10D31000F9D19A42F3D10C3030BD491EF1D5F8E76E
:10D320000830FEF798B90830FEF7C0B910B51446BA
:10D330002268202A02D248F2145010BD0022083080
:10D34000FEF7DAF910B920202060002010BDFEE7BA
:10D3500010B5074979441831064C7C44163404E072
:10D360000A68081D114488470146A142F8D110BD42
:10D370002C000000580000004EF68851CEF200014B
:10D38000086840F470000860BFF34F8FBFF36F8FE1
:10D390004FF00070E1EE100A70470000DFB7FFFFAA
:10D3A0002011000054040020000000003DFFFFFF9A
:10D3B0001A0100005E000000080000202DFFFFFFA2
:10D3C0003A0100001C00000040040020FEE70000BD
:10D3D0007DD0070085D0070091D007009FD00700BF
:10D3E000E3D007002BD107002FD1070033D107006E
:10D3F0000120C046002801D0FFF7AAFFAFF300804C
:10D400000020AFF30080FFF753F800F000F800F0C1
:10D4100001B8FEE70746384600F002F8FBE7FEE7F2
:10D420002021090326311820ABBEF9E721D30700DC
:10D4300027D307002DD3070020000000780000004C
:10D44000000000004415002064150020671500202E
:10D4500098120020840000000148804701480047DE
:10D4600025B9070075D407004800280000204000B7
:10D4700081D40700AFF30080FFF77EFFFFF7B8FF0E
:10D480000048704788D10700F1CB070091CC070016
:10D49000FEE7FEE7FEE7FEE7FEE7FEE7FEE7FEE764
:10D4A000FEE7FEE7FEE7FEE7FEE7FEE7FEE7FEE754
:10D4B000FEE7FEE7FEE7FEE7FEE7FEE7FEE7FEE744
:10D4C000FEE7FEE7FEE7FEE7FEE7E4000001F90005
:10D4D00008080000201800002001B80002200040C9
:10D4E000C70001E007810081008100810081008187
:10D4F000008100F7000290D00300F80005759A073C
:08D50000000010FC000108000E
:020000041000EA
:081014000080070000E0070066
:040000050007D475A7
:00000001FF
