:020000040002F8
:10600000E0410020BDD10200F3780200DB800200F5
:10601000238F0200779702007BA702000000000098
:106020000000000000000000000000009FA7020028
:106030005BB20200000000008BBC020027C002001F
:10604000B7C402002FC00200558002000FC3020037
:1060500095CC0200DBCD020031760200E7CD0200D4
:10606000DFD30200E1D30200E3D30200E5D3020054
:10607000E7D30200E9D30200EBD30200EDD3020024
:10608000EFD3020071A50200F1D30200F3D30200A6
:10609000F5D30200F7D30200D9B70200F9D302000A
:1060A000FBD30200FDD30200FFD3020001D40200A3
:1060B00003D4020005D4020000000000000000002C
:1060C00007D4020009D402000BD402000DD4020050
:1060D0000FD4020011D4020013D40200000000000B
:1060E00000000000000000000000000000000000B0
:1060F00000000000000000000000000000000000A0
:10610000000000000000000000000000000000008F
:10611000000000000000000000000000000000007F
:10612000000000000000000000000000000000006F
:10613000000000000000000000000000000000005F
:10614000000000000000000000000000000000004F
:10615000000000000000000000000000000000003F
:10616000000000000000000000000000000000002F
:10617000000000000000000000000000000000001F
:10618000000000000000000000000000000000000F
:1061900000000000000000000000000000000000FF
:1061A00000000000000000000000000000000000EF
:1061B00000000000000000000000000000000000DF
:1061C00000000000000000000000000000000000CF
:1061D00000000000000000000000000000000000BF
:1061E00000000000000000000000000000000000AF
:1061F000000000000000000000000000000000009F
:1062000038B504000D00290020002268126890476C
:1062100031BD10B50400200021684968884710BDD1
:1062200010B50400200021688968884710BDC26845
:1062300011717047C068007970470121C2685171BF
:106240007047C0684079704770B505000E00DFF8F0
:10625000EC07FF21816000210160002141600021E5
:10626000C0F818140021C0F81414002180F820147C
:10627000DFF8CC0700F0F6FB0400002C01D0200072
:106280000AE0DFF8C00700F000FDDFF8BC07DFF828
:10629000BC17411AC908002070BDDFF8AC07DFF851
:1062A000AC17401AC008704770B504000D002800F4
:1062B000C0B2002814D0FFF7F0FF010000228A428C
:1062C0000CD2DFF88C0700EB820318882668B042F6
:1062D00002D12260002004E0521CF0E7052000E01B
:1062E000002070BD11B581B00C002100C9B201A819
:1062F000FFF7DAFF002806D1DFF85807019900EB15
:10630000C100006800E0002016BD0200DFF844076D
:1063100000EBC2030800C0B2012806D00DD3032849
:1063200007D004D3042806D007E0022006E00420AA
:1063300004E0187902E0587900E00020C0B270470C
:1063400010B4030000201A68C2F38002002A18D09B
:106350001A7812F00302012A02D0022A08D00EE0B5
:106360000A681C68C4F38314A41CA2180A6006E01F
:106370000A681C68A40DA41CA2180A60FFE7012289
:106380001000C0B210BC70472DE9F84384B000245F
:10639000DFF8A85615F5836000F0CDFC05F214492E
:1063A000484600F0C8FC68680090AE68009830402D
:1063B00005EB800010F10C0769463800FFF7C0FFBD
:1063C000002806D00098304005EB80000C30070014
:1063D000F2E75FF00008B8F1020F0DD200983040EC
:1063E00005EB8000C06801A941F828000098401C16
:1063F000009018F10108EEE7019810F00300012861
:106400000CD0022814D1BDF80A00040000980199AC
:10641000890DC91C10EB9100009009E0BDF80A003D
:10642000040000990198C0F3831041180091FFE720
:10643000484600F087FC0100002901D00098686000
:10644000A4B2200005B0BDE8F08380B50021DFF8DC
:10645000080600F02DFC010081F3100002BD2DE9BB
:10646000F84304000D0016001F00DDF82080A1464F
:106470005FEA1949FFF7E9FFDFF8C0157A1C18EA4F
:10648000020201EB820259EA0043D36018EA0702D4
:1064900001EB82010C310A6864F3C5020A600A68E4
:1064A00066F389120A600A6865F39F220A60012276
:1064B0000B6862F301030B600A6832F004020A60A1
:1064C000BDE8F1832DE9FE4F04000D001600A01C6D
:1064D0000190012700208DF80000684600F0C6FCFE
:1064E000DFF85885D8F800002860D8F80800401C6C
:1064F000D8F80090B0EB0909D8F8040010EB0909AE
:106500000198814517D208F21C4B0121584600F032
:10651000F7FBFFF739FF82465146584600F0F0FB83
:10652000D8F80810491CD8F80000091AD8F8040057
:1065300041188946E4E73800C0B2002823D0002182
:106540003000C0B2002807D0012060F3010151F0F3
:10655000040164F3891106E0022060F3010151F0A7
:10656000040164F39F51D8F80020D8F808000240D5
:1065700008EB820010F10C021160D8F8003001988D
:10658000C318C8F800309DF8000000F075FC380012
:10659000C0B2BDE8FE8F2DE9FE4F04000D001600CD
:1065A0001F00DFF89894D9F80880012201A938006B
:1065B000FFF788FF00281BD0DDF804A01AF1020ABB
:1065C0005FF0000BBB450BD218EA0A0009EB800014
:1065D00056F82B10C1601AF1010A1BF1010BF1E70B
:1065E000CDF80080019B3A0029002000FFF737FF1B
:1065F00099F82004002803D000F055F80028FBD1BA
:10660000BDE8F78F38B504000D00002300222900F3
:106610002000FFF7C0FF31BD7CB504000D0016005F
:10662000009601236A4629002000FFF7B4FF73BDDE
:10663000FEB504000D0016001F000096019702230E
:106640006A4629002000FFF7A6FFF7BD2DE9F84FA5
:1066500086B004000D0016001F00DDF84080DDF854
:106660004490DDF848A0DDF84CB000960197CDF8D5
:106670000880CDF80C90CDF810A0CDF814B006230A
:106680006A4629002000FFF786FF07B0BDE8F08FBB
:10669000DFF8A80341680068814201D1012000E0D1
:1066A0000020C0B270472DE9F04F8BB0FFF7F0FF2C
:1066B000002801D000205FE1DFF880730020C7F8D8
:1066C0001804BFF34F8F78680090B8680290009963
:1066D0000298014007EB81000C300990002500264C
:1066E0000020089069460998FFF72AFE002813D079
:1066F000D7F8180400280FD100983968884203D3CE
:1067000038687860002037E100990298014007EB73
:1067100081000C300990E5E75FF00008B8F1020F46
:106720000ED200990298014007EB8100C06803A9CE
:1067300041F828000098401C009018F10108EDE78E
:10674000039810F00300022840F07F80DDF80C90E1
:106750005FEA99590398800D502804DADDF80CA0FF
:106760005FEA9A5A01E05FF0500A03986AF39F507B
:1067700003901AF108000A900398C0F3C200089031
:106780000A99AF4800F074F90500002D00F0A280CE
:10679000280000F0D3F93300082203A9280000F0F4
:1067A00056FA08360299491C009A02980240891A42
:1067B0008C00544535D2002C07D000990298014036
:1067C00007EB81000C30079002E017F10C000790F6
:1067D000002C01D0A34600E0D346002C03D017F1D3
:1067E0000C00069001E000200690002C02D0BAEBCD
:1067F000040000E000208DF8040033005A46D2B2B5
:106800000799280000F023FA56FA8BF6069800281C
:1068100014D033009DF804200699280000F017FAE0
:106820000CE000990298014007EB810010F10C0B7D
:10683000330052465946280000F009FA009819F131
:10684000030910EB9900009044E0039810F0030056
:1068500001283FD10398C0F38310062803DA039878
:10686000C0F3831000E00620039960F389110391BF
:106870000398C0F38314A41C0398C0F3C2000890CB
:10688000A1006F4800F0F4F80500002D22D0280088
:1068900000F054F93300082203A9280000F0D7F9CA
:1068A0000836002080460398C0F38310804511D23B
:1068B0000099481C0090330004220298014007EB25
:1068C000810010F10C01280000F0C1F9361D18F10B
:1068D0000108E8E7002D33D0D7F81044D7F81804A2
:1068E000002803D0280000F031F93DE0002C13D03F
:1068F0005FF000092000FFF7A4FC012801D101206E
:1069000081464846C0B2002803D029002000FFF786
:1069100077FCE0680468E9E7280000F017F9002038
:106920008DF8040001A800F0A1FAD7F81804002897
:1069300001D1009878609DF8040000F09DFA13E002
:10694000D7F81044002C05D02000FFF769FCE06860
:106950000468F7E7414942483C4A801AC0080004ED
:1069600050F00200FFF74EFEFFF792FE002801D123
:10697000012000E00020C0B20BB0BDE8F08F70B580
:1069800000260A2E1ADA2D48D0F81004040001203F
:106990000500002C0AD02000FFF74CFCB04202D1C9
:1069A0000020050002E0E0680468F2E72800C0B2B9
:1069B000002801D0300003E0761CE2E75FF0FF30F2
:1069C00070BD70B504000D00FFF7D9FF060016F189
:1069D000010F01D130001BE030000100C9B22000DE
:1069E000FFF725FC1549D1F81004002805D1C1F89E
:1069F00010440020E168086009E0D1F81004C06884
:106A00000068E2681060D1F81004C06804603000CB
:106A100070BD10B50948D0F81044012180F8201449
:106A2000002C08D02000FFF708FC2000FFF7F1FB46
:106A3000E0680468F4E710BD00000000841900203D
:106A400028D1020034D2020038C80200C8C70200B0
:106A500000000000C8C70200A01D002074D0020082
:106A6000E0C7020010B50400200000F01AFA10BDC3
:106A70002DE9F84F06000F00B6F81080B8F10408B1
:106A800018EB0700C01CB0FBF8F9300000F027FA43
:106A90000500002D01D1002027E0002028710120F1
:106AA0006871A5F806800095CA465FFA8AFABAF1BD
:106AB000010A009806605FF0000BD34514D2300045
:106AC00000F00DFA0400002C09D06879401C6871B0
:106AD00000980460266000941BF1010BEDE728008C
:106AE00000F005F8002000E02800BDE8F28F2DE955
:106AF000F84F05002E0077792900B8465FFA88F82C
:106B0000B8F101080020404502D20968401CFAE7AC
:106B1000D1F80090AA465FF0000B3800C0B2834560
:106B20000AD2DAF8000004005146484600F003FAA1
:106B3000A2461BF1010BF0E7BDE8F18F38B5040068
:106B400025000121281D00F0DBF831BD7CB50400D3
:106B500025000121281D00F0E1F800906E463078F4
:106B6000002802D12000FFF7C2FF73BD2DE9FF4FBF
:106B700087B007980190DDF81C800198C6880198BD
:106B800040794643361F0198C08800900A98001D3E
:106B90000099B0FBF1F50A99091D0098B1FBF0F7D7
:106BA000009800FB1717099801680A9841188E424F
:106BB00002D20A9C341B01E0099804680998046019
:106BC000002D03D0D8F800806D1EF9E75FF00009B2
:106BD000DDF800A0BAEB070A544501D2A246FFE750
:106BE000002C31D008984844039008EB0700001DA2
:106BF00002909DF8500000280BD0CDF814A0029808
:106C00000490DDF80CB0059A0499584600F0ACF9F0
:106C10000AE0CDF814A003980490DDF808B0059AB6
:106C20000499584600F0A0F900200700D8F8008029
:106C3000B4EB0A041AEB09090098844201D2A24677
:106C4000CEE7DDF800A0CBE70BB0BDE8F08FFEB5D6
:106C500004000D0016001F000196002000903B006C
:106C600001AA29002000FFF781FFF7BDFEB504004F
:106C70000D0016001F000196012000903B0001AAA4
:106C800029002000FFF772FFF7BD002182689160A4
:106C900000218268116100218268516100218268AF
:106CA000D1600021826851600021826811607047C4
:106CB00010B4020052E8000F0B4642E8003494F092
:106CC000000FF7D110BC704710B4020052E8003F2B
:106CD00043EA010042E8000494F0000FF6D110BC32
:106CE0007047000010B4020052E8000F00EA0103F0
:106CF00042E8003494F0000FF6D110BC7047000059
:106D000010B4020052E8003F03EB010042E8000427
:106D100094F0000FF6D110BC7047000010B40200D0
:106D200052E8003FA3EB010042E8000494F0000F9A
:106D3000F6D110BC704710B5040001212000FFF708
:106D4000C3FF10BD10B5040000212000FFF7CAFFEB
:106D500010BDF0B40246106895681318506803EB34
:106D60005004C0071DD54D441BE013F8017B05F806
:106D7000017B491EF9D1A0B1B60813F8011B06F03A
:106D80000306032E08BF13F8016B01EB06214942ED
:106D9000801C294405D011F8016B05F8016B401ED9
:106DA000F9D1A3420ED013F8016B16F0030104BF12
:106DB00013F8011BC91C30090F28DAD113F8010B95
:106DC0000F30D6E7F0BC02F10C007047EFF31080F3
:106DD00072B6704762B6704738B50500FFF7F6FF28
:106DE00004001C498868002810D1012088601A48D6
:106DF0001A4A136803400B601060194802684A6021
:106E00005FF0FF3101600020287001E00120287050
:106E1000002C01D1FFF7DEFF002032BD70B5050068
:106E20000C4EB068002812D02800C0B200280ED145
:106E3000FFF7CCFF040030680A49086070680A490F
:106E400008600020B060002C01D1FFF7C3FF0020D4
:106E500070BD000034210020FC06FFBD80E100E091
:106E600084E100E000E100E004E100E010B504008E
:106E70002000FFF7B1FF10BD10B504002000C0B224
:106E8000FFF7CCFF10BDC268C9B2008A414302EBD4
:106E900001007047C268891A008AB1FBF0F0C0B2E5
:106EA000704710B40100002901D10E2015E0886858
:106EB0004A68821A48680B6818601000421EC0B207
:106EC000002806D008680068431C0C682360027024
:106ED000F3E700200B681871002010BC704738B52C
:106EE0000400002500208DF800006846FFF7BEFF73
:106EF000606821680968884217D220680068401ECF
:106F0000216808602068006801782000FFF7BBFF57
:106F10000500A16820680068081A21680979020044
:106F2000D2B2914201D2216808719DF80000FFF7AA
:106F3000A3FF280032BDF8B504000D002E0000208C
:106F40008DF800006846FFF791FF20680768781CFD
:106F50002168086031002000FFF79CFF38709DF821
:106F60000000FFF789FFF1BD62B38B0708D0521E06
:106F700011F8013B00F8013B00F024808B07F6D1AB
:106F8000830740F0208000BF103A07D330B4B1E847
:106F90003810103AA0E83810F9D230BC530724BF9B
:106FA000B1E80810A0E8081044BF51F8043B40F8CD
:106FB000043BD20724BF31F8022B20F8022B44BF38
:106FC0000B7803707047121F17D35B0009D151F87B
:106FD000043B20F8023B1B0C121F20F8023BF6D2A8
:106FE0000BE051F8043B00F8013B1B0A20F8023B80
:106FF0001B0C121F00F8013BF3D238BF121D521EAA
:1070000024BF11F8013B00F8013BF8D8704730B4B9
:10701000002513E050F8042BD30744BFA9F1010366
:107020009A18091F042942F8045BFAD213468C0708
:1070300044BF15809B1CC90748BF1D7050F8041B36
:107040000029E7D130BC7047012210F01F018A40AF
:10705000DFF8141803005BB25B0941F82320704786
:1070600010B4020052B2002A0AD54A01DFF8FC37F8
:10707000040064B214F00F04234403F8042C05E068
:107080004A01DFF8EC37040064B21A5510BC7047AF
:1070900038B504000D002900C9B2200040B2FFF746
:1070A000DFFF31BD10B50400200040B2FFF7CCFF78
:1070B00010BD10B50400200000B200F018F8006800
:1070C000012801D1012000E00020C0B210BD1CB594
:1070D0000400200000B200F00AF800210160200046
:1070E00000B200F004F800680090009813BD00B2F0
:1070F00000F1804010F5C0407047DFF87817086055
:107100007047DFF87017096808407047DFF86817A4
:1071100051F8202052F0010241F82020704770B44D
:10712000DFF8544754F82050DFF850371D4044F83A
:10713000205054F820300D0215F4F8551600F6B220
:10714000360416F4403635432B4344F8203070BCE7
:107150007047DFF8241751F82000C0F3042070476F
:10716000DFF8141751F82000000C10F003007047EE
:1071700001005FF0A04070472DE9F14181B00E00A1
:1071800017009846089C099D01A8FFF7F1FF310000
:10719000C9B23A00D2B251EA42014246D2B251EAF1
:1071A00082012200D2B251EA02212A00D2B251EA6F
:1071B0000241019A00EB8202C2F80017BDE8F38198
:1071C0003EB504000D0000200190002000902B002F
:1071D000DBB2002200212000FFF7CEFF37BD01B552
:1071E0006846FFF7C5FF009900EB8101D1F8001751
:1071F00031F00201009A00EB8202C2F8001701BDD3
:1072000011B581B00C0001A8FFF7B2FF019900EBA6
:107210008101D1F8001731F44031019A00EB82026C
:10722000C2F80017019900EB8101D1F80017220084
:10723000D2B251EA0241019A00EB8202C2F8001771
:1072400013BD11B581B001A8FFF792FF0400200023
:1072500000F012F80199C84010F0010016BD01B508
:107260006846FFF785FF009900EB8100D0F8000722
:10727000000C10F0030002BDD0F810057047F8B5FF
:1072800004000D0016006846DFF8F4150A68026075
:1072900027002819874208D2684650F82700FFF7D0
:1072A000EBFF3060361D7F1CF3E7F1BD10B40A0020
:1072B0000300DB0810F00700012414FA00F0D25C90
:1072C000104010BC704730B40A000300DB0810F017
:1072D0000700D45C012585402C43D45430BC704752
:1072E000DFF8A01501EB000292F93020002A06D445
:1072F000084490F93000082801DA012000E000205D
:10730000002801D0012000E00020C0B27047DFF863
:107310007415084490F93000082801DB012000E0D2
:107320000020C0B27047DFF85C15084490F93000C7
:10733000002801D4012000E00020C0B2704730B422
:10734000DFF8405505EB000484F8301045F82120A3
:107350001C00E4B2002C03D105EB010484F84800C2
:1073600030BC70475FF0FF31DFF81825024482F827
:107370003010704710B50400DFF80C152000FFF73F
:10738000A2FF10BDDFF8FC14084490F930007047EC
:10739000DFF8F01451F8200070472DE9F0470400A1
:1073A0000D0016005FF0FF373000C0B2002802D099
:1073B0005FF0000801E05FF008083000C0B200286C
:1073C00002D05FF0080901E05FF00C09C246CA452F
:1073D00013D2DFF8B00450F82A0010F1010F09D1E0
:1073E0003300DBB22A0051462000FFF7A8FF5046C9
:1073F000070002E01AF1010AE9E7380040B2BDE8EF
:10740000F087DFF880145FF0FF320300DBB241F851
:1074100023200200D2B2082A06DB5FF0FF3203000D
:10742000DBB2194481F8482070472DE9F041DFF8BC
:10743000544494F85800002801D0082031E0002678
:107440003000C0B2202805DA3000C0B2FFF78AFF52
:10745000761CF5E700252800C0B20C2805DA2800C4
:10746000C0B2FFF7CEFF6D1CF5E70426002714F12C
:1074700054083A003100404600F008FA0621062080
:10748000FFF706FE0620FFF70DFE4FF4BE70FFF774
:107490001EFE5FF00040FFF730FE012084F8580028
:1074A0000020BDE8F081DFF8DC0390F858000028E8
:1074B00001D0012000E00020C0B270472DE9F0416A
:1074C00004000D00160000272000FFF72CFF002805
:1074D00002D00820070046E0AA78D2B2520812F083
:1074E000010231002000FFF758FF8046404640B2BD
:1074F00010F1010F35D0A878C0B2800810F001005B
:1075000000280FD1A87810F00100002803D0200037
:10751000FFF765FE03E069782000FFF751FE2000C9
:10752000FFF728FFA878C0B2400810F0010000283B
:1075300006D02A782100404640B2FFF7F0FD12E065
:10754000DFF84003414649B2014491F8481095F9EB
:10755000002051EA82114FFA88F8404480F8481020
:1075600001E0042007003800BDE8F0812DE9F0417A
:1075700004000D002000FFF7CAFE002825D02000DF
:10758000FFF700FFDFF8FC1240B2084490F8488093
:107590004746FFB2BF093800C0B2032808D1200017
:1075A000FFF74FFE002801D0032608E0022606E080
:1075B0003800C0B2012801D1022600E003263100C4
:1075C000C9B22000FFF71CFE24E02000FFF788FE70
:1075D00000281FD02000FFF7D5FE0600B70017F5E2
:1075E00080773000FFF792FD380000B2FFF76FFDA3
:1075F0002800C0B200280DD02000FFF7C3FE40B223
:10760000FFF7C6FE80464046002803D00120B04068
:10761000FFF773FDBDE8F08110B504002000FFF70F
:1076200010FE002801D0012000E00020C0B210BDF3
:107630002DE9F84F86B00020019002A800210160DA
:107640004FF48070ADF8020001250026082E19D2F3
:10765000BDF90200FFF72DFD00280BD02800FFF731
:1076600050FD002806D0BDF90200FFF730FD01985B
:10767000284301906D00BDF80200001DADF8020026
:10768000761CE3E74FF4BE70FFF713FD00280CD023
:107690004FF4BE70FFF71BFD019850F000400190C1
:1076A00002AA01210020FFF7EAFD019800061ED082
:1076B0000120050000200600082E18D2019805427E
:1076C00012D03000FFF745FD04003000FFF748FD01
:1076D00007003000FFF75CFE80464046002803D0DC
:1076E0003900C9B22000C0476D00761CE4E701985C
:1076F000002840F1B480002704A800210160002484
:10770000002C06D15FF0FF3005A941F82400641C6D
:10771000F6E70020070000200600042E65D2594835
:1077200000EB060191F850108DF801109DF80180D2
:1077300038F0C008304490F9500010F1010F52D0D9
:1077400005A94046FFF7B2FD00284CD09DF8010086
:10775000C0B280098DF800004046FFF713FE40B22A
:10776000FFF716FE81464846002803D19DF8000029
:10777000032838D19DF80000032803D104A940460E
:10778000FFF7A1FD4046FFF76AFD824602A9404689
:10779000FFF78CFD03900398002803D05046C0B239
:1077A000022806D0039800281DD15046C0B20328F5
:1077B00019D19DF8000003280ED15046C0B202280E
:1077C00002D15FF0030B01E05FF0020B5946C9B232
:1077D0004046FFF715FD7F1C4846002803D09DF862
:1077E00000104046C847761C97E73800C0B2002812
:1077F00030D05FF0010803AA01210020FFF73FFD10
:1078000000200400002C0CD103A850F8240002A989
:1078100051F82410884202D00020804601E0641C08
:10782000F0E74046C0B2002802D00020070011E077
:1078300000200400002C0DD103A850F8240002A958
:1078400041F8240004A850F8240005A941F82400B8
:10785000641CEFE73800C0B200287FF45AAF07B0CD
:10786000BDE8F08F0000000000E100E018ED00E04E
:1078700000E400E00463004010650040FFE0FCFF0E
:10788000CCD30200E81E00203C1F002062F30F2230
:1078900062F31F42401810F0030308D0C91A1FD327
:1078A000DB0748BF00F8012D28BF20F8022D130088
:1078B00030B414461546103928BF20E93C00FAD8E8
:1078C000490728BF20E90C0048BF40F8042D890073
:1078D00028BF20F8022D48BF00F8012D30BC7047AA
:1078E000C91818BF00F8012DCB0728BF00F8012DDB
:1078F0007047FEE7012210F01F018A40DFF83017C1
:1079000003005BB25B0941F823207047012210F0AD
:107910001F018A40DFF81C1703005BB25B0941F8C6
:107920002320704710B4020052B2002A0AD54A013F
:10793000DFF80437040064B214F00F04234403F8A2
:10794000042C05E04A01DFF8F436040064B21A554D
:1079500010BC7047000B40B2704738B504000D00F2
:107960002900C9B2200040B2FFF7DCFF31BD10B5DD
:107970000400200040B2FFF7BDFF10BD10B50400A9
:10798000200040B2FFF7C2FF10BD81B000220B0003
:107990001BB2C2500A0012B282580092009A01B083
:1079A000704709B24058002801D0012000E00020B3
:1079B000C0B27047C0F804137047D0F804030842FF
:1079C00001D0012000E00020C0B27047C0F80813C9
:1079D00070470100D1F88004C1F880047047042189
:1079E000C0F8001570470021C0F800157047C0F8B6
:1079F0001425C0F80C15704710B504005FF0FF3275
:107A00005FF0FF312000FFF7F2FF10BDD0F80C054A
:107A10007047D0F814057047D0F808057047D0F8C3
:107A200010057047C0F80815C0F81025704710B54C
:107A300004005FF0FF325FF0FF312000FFF7F2FF3C
:107A400010BDD0F81805C0B270470A00D2B2C0F815
:107A50001C25704701220B00DBB2C250704710B4E6
:107A60000C00E4B21300DBB21C43C0F86C4510BC40
:107A70007047C0F82415704701005FF0A0407047C0
:107A80002DE9F14181B00E0017009846089C099D30
:107A900001A8FFF7F1FF3100C9B23A00D2B251EAB2
:107AA00042014246D2B251EA82012200D2B251EAE8
:107AB00002212A00D2B251EA0241019A00EB82026D
:107AC000C2F80017BDE8F3811CB504000020019046
:107AD000002000900023012201212000FFF7D0FFA9
:107AE00013BD3EB504000D00002001900020009061
:107AF0002B00DBB2002200212000FFF7C1FF37BDC1
:107B00001CB50400002001900020009000230122F9
:107B100000212000FFF7B4FF13BD11B581B001A80B
:107B2000FFF7AAFF0400012101988140200000F026
:107B300001F813BDC0F80815704738B504000D00F2
:107B4000286810F1010F05D02868FFF7E6FF2868C4
:107B5000FFF7BAFF686810F1010F03D000216868D1
:107B6000FFF7BFFFA9692068FFF783FF2A7D697DC2
:107B70002068FFF774FF6A6829682068FFF737FFFD
:107B8000287D012816D1A86810F1010F03D000212B
:107B9000A868FFF7A6FFE86810F1010F05D0E868B4
:107BA000FFF7BBFFE868FFF78FFFAA68E968206866
:107BB000FFF738FF31BD38B504000D004FF48E716A
:107BC0002068FFF7E2FE4FF4A2712068FFF7DDFEA8
:107BD000DFF86C142068FFF7EDFE2068FFF7BAFEAF
:107BE0002900C9B240B2FFF7B8FE2068FFF7B2FE25
:107BF00040B2FFF7BCFE31BD10B50400DFF84414FD
:107C00002068FFF7E3FE2068FFF7A4FE40B2FFF70D
:107C1000B5FE10BD2DE9F04104002068FFF7F6FE27
:107C200005002068FFF7F5FE06002068FFF7F4FE68
:107C300007002068FFF7F3FE80462068FFF7DCFEB0
:107C40002068FFF7F4FE15F1010F02D02800FFF7BE
:107C500057FF16F1010F02D03000FFF751FF18F166
:107C6000010F02D04046FFF74BFF17F1010F02D082
:107C70003800FFF745FFBDE8F0812DE9F041040031
:107C80000D001600DFF8C01322792C20424301EBCF
:107C900002075FF0000897F82A00002801D00820AA
:107CA00029E0DFF8A803217950F82110206800F0BE
:107CB000E3F9002801D011201DE029002000FFF782
:107CC0003CFF7E60286938607868002803D0297FEF
:107CD0002000FFF770FF2068FFF781FE0020B861E9
:107CE0000020F861002087F8290000207861012039
:107CF00087F82A004046BDE8F08138B50400DFF877
:107D0000481322792C20424301EB02052068FFF73B
:107D10006AFE6868002802D02000FFF76DFF20008F
:107D2000FFF778FF206800F0CCF9002085F82A00E2
:107D30000020686031BD70B504000D004FF48E71F5
:107D40002000FFF722FEA868296A465C286A401CCA
:107D500028623100C9B22000FFF777FE70BD70B510
:107D600004000D006E69286AB04211D24FF48E7182
:107D70002000FFF716FE002805D195F828000028FE
:107D8000F4D0002005E029002000FFF7D4FFEAE747
:107D9000012070BD2DE9F04104000D001600DFF850
:107DA000A81222792C20424301EB0207200000F0A8
:107DB00036F8002801D011202FE07E61BD60002040
:107DC0003862002087F828005FF000084FF48E71B9
:107DD0002068FFF7DAFD08212068FFF73BFE390035
:107DE0002068FFF7A8FF7868002815D139002068BF
:107DF000FFF7B5FF002802D10F2080460AE04FF4BC
:107E00008E712068FFF7CDFD0028F8D00C21206886
:107E1000FFF720FE002078614046BDE8F081DFF8E2
:107E2000281202792C20424301EB0200406900280D
:107E300001D0012000E00020C0B2704770B50400FE
:107E40000D00A869002808D14FF484712000FFF7C5
:107E50009CFD2000FFF7F5FD0DE04FF4847120003C
:107E6000FFF793FD6E6A2000FFF7EBFDE968885588
:107E7000686A401C686270BD7FB504000D00160082
:107E800001208DF80000029501962168684662681D
:107E900090477FBD38B584B004000D0000208DF8F8
:107EA00000000295A068019000206061216868468A
:107EB0006268904705B030BDF8B584B004000D008D
:107EC0004FF400712000FFF778FD00282CD04FF40C
:107ED00092712000FFF765FD002825D04FF49271C4
:107EE0002000FFF752FD4FF401712000FFF76EFDF7
:107EF00095F82900002803D104212000FFF7AAFDEE
:107F000002208DF800002000FFF763FD0390A869B0
:107F10000290E86801900020A8610020E8612968CB
:107F200068466A6890473BE004212000FFF745FD62
:107F3000002835D04FF484712000FFF732FD00286F
:107F40002ED029002000FFF779FFA869696A8842CE
:107F500026D1E86900280FD0EE686F6AE869A86149
:107F60002869E8600020E86100206862320039007A
:107F70002800FFF781FF13E095F82900002803D1BE
:107F800004212000FFF766FD4FF401712000FFF788
:107F90001DFD0020A861EA68696A2800FFF76CFFF0
:107FA0004FF48E712000FFF7FCFC002818D06E699A
:107FB000286AB04208D295F82800002804D1290088
:107FC0002000FFF7B8FE0BE04FF48E712000FFF7A2
:107FD000DCFC6869002803D069692800FFF75AFFB4
:107FE0004FF4A2712000FFF7DCFC002816D04FF4FC
:107FF000A2712000FFF7C9FC95F82900002803D0E2
:1080000000212000FFF726FDA869002806D00020E7
:10801000A861EA68696A2800FFF72EFF05B0F0BD85
:1080200080B509490A48FFF747FF01BD000000007D
:1080300000E100E080E100E018ED00E000E400E095
:108040008000020084020200DC1F0020D4D3020062
:108050000020004080B506480068804701BD01004F
:108060000448814201D1024800E00020704700002E
:108070009021002000200040F8B505000E002800E7
:10808000FFF7EDFF0400002C19D0002700208DF829
:1080900000006846FEF7EAFE2079002802D00120A1
:1080A000070002E02660012020719DF80000FEF725
:1080B000E3FE3800C0B2002801D0112000E000200B
:1080C000F2BD10B504002000FFF7C9FF002803D05F
:1080D000002101600021017110BDFEE7012210F0B6
:1080E0001F018A40DFF8FC1603005BB25B0941F810
:1080F00023207047012210F01F018A40DFF8E816A4
:1081000003005BB25B0941F82320704710B4020002
:1081100052B2002A0AD54A01DFF8D036040064B210
:1081200014F00F04234403F8042C05E04A01DFF89F
:10813000C036040064B21A5510BC704710F060409D
:10814000B0F1005F01D1012000E00020C0B2704713
:10815000000B40B2704738B504000D002900C9B2C9
:10816000200040B2FFF7D2FF31BD10B5040020005F
:1081700040B2FFF7B3FF10BD10B50400200040B2BD
:10818000FFF7B8FF10BD81B000220B001BB2C25038
:108190000A0012B282580092009A01B0704709B2E8
:1081A0004058002801D0012000E00020C0B27047F4
:1081B000D0F800228A43C0F800227047C0F80413A8
:1081C0007047C0F8081370470100D1F88004C1F867
:1081D000800470470821C0F8001570470021C0F8DE
:1081E00000157047C0F80C15C0F81425704710B57D
:1081F00004005FF0FF325FF0FF312000FFF7F2FF75
:1082000010BDD0F80C057047D0F814057047D0F8B1
:1082100008057047D0F810057047C0F80815C0F879
:108220001025704710B504005FF0FF325FF0FF319A
:108230002000FFF7F2FF10BD01220B00DBB2C2509D
:10824000704710B40C00E4B21300DBB21C43C0F85A
:108250006C4510BC7047C0F824157047C0F8441531
:10826000C0F848257047D0F84C057047D0F83C0559
:10827000704701005FF0A04070472DE9F14181B0E7
:108280000E0017009846089C099D01A8FFF7F1FF12
:108290003100C9B23A00D2B251EA42014246D2B2EA
:1082A00051EA82012200D2B251EA02212A00D2B25E
:1082B00051EA0241019A00EB8202C2F80017BDE8C0
:1082C000F3811CB5040000200190002000900023E1
:1082D000012201212000FFF7D0FF13BD3EB50400AD
:1082E0000D0000200190002000902B00DBB2002246
:1082F00000212000FFF7C1FF37BD1CB5040000209E
:108300000190002000900023012200212000FFF7AF
:10831000B4FF13BD11B581B001A8FFF7AAFF040097
:10832000012101988140200000F001F813BDC0F840
:108330000815704738B504000D00286810F1010FCA
:1083400005D02868FFF7E6FF2868FFF7BAFF6868DE
:1083500010F1010F03D000216868FFF7BFFFA96982
:108360002068FFF778FF2A7D697D2068FFF769FFA5
:108370006A6829682068FFF735FF287D012816D133
:10838000A86810F1010F03D00021A868FFF7A6FF2D
:10839000E86810F1010F05D0E868FFF7BBFFE86857
:1083A000FFF78FFFAA68E9682068FFF736FF31BD45
:1083B00038B504000D004FF488712068FFF7E3FE24
:1083C0004FF490712068FFF7DEFE4FF49271206841
:1083D000FFF7D9FE4FF4A2712068FFF7D4FE4FF4E7
:1083E000AC712068FFF7CFFEDFF808142068FFF7B4
:1083F000E5FE2068FFF7ACFE2900C9B240B2FFF7E6
:10840000AAFE2068FFF7A4FE40B2FFF7AEFE31BD22
:1084100010B50400DFF8DC132068FFF7D2FE2068F7
:10842000FFF796FE40B2FFF7A7FE10BD2DE9F04121
:1084300004002068FFF7E5FE05002068FFF7E4FE72
:1084400006002068FFF7E3FE07002068FFF7E2FE62
:1084500080462068FFF7CBFE2068FFF7E3FE15F1AA
:10846000010F02D02800FFF748FF16F1010F02D0DC
:108470003000FFF742FF18F1010F02D04046FFF72E
:108480003CFF17F1010F02D03800FFF736FFBDE8BF
:10849000F0812DE9F04104000D001600DFF85813BB
:1084A00022792420424301EB02075FF0000897F88D
:1084B0002000002801D0082026E0DFF840032179C1
:1084C00050F821102068FFF7D7FD002801D01120B7
:1084D0001AE029002000FFF72DFF7E602869386030
:1084E0007868002803D0297F2000FFF761FF20680B
:1084F000FFF770FE0020B8610020F861002078616D
:10850000012087F820004046BDE8F08138B504001E
:10851000DFF8E41222792420424301EB0205686867
:10852000002802D02000FFF773FF20212068FFF70A
:108530003FFE04212068FFF77FFE4FF4AC712068F6
:10854000FFF721FE0C212068FFF776FE4FF4AC7197
:108550002068FFF724FE0028F8D02068FFF73EFED1
:108560002000FFF763FF2068FFF7ABFD002085F8D0
:1085700020000020686031BD2DE9F04704000D00A7
:108580001600DFF8741222792420424301EB02071F
:108590002800FFF7D3FD002801D1102049E020007A
:1085A00000F049F8002801D0112042E07E61BD6052
:1085B0005FF000084FF490712068FFF7E4FD4FF47E
:1085C000AC712068FFF7DFFD7A69B9682068FFF7B2
:1085D00045FE08212068FFF72FFE7868002827D184
:1085E0004FF490712068FFF7DAFD82464FF4AC71CA
:1085F0002068FFF7D4FD81465046C0B2002803D161
:108600004846C0B20028EBD04846C0B2002802D08D
:108610000F2080460AE00C212068FFF70DFE4FF482
:10862000AC712068FFF7BBFD0028F8D0002078610E
:108630004046BDE8F087DFF8C011027924204243AC
:1086400001EB02004069002801D0012000E0002079
:10865000C0B270477FB504000D00160001208DF8F0
:1086600000000295019621686846626890477FBDC8
:1086700038B584B004000D0000208DF8000002958C
:10868000A068019000206061216868466268904798
:1086900005B030BDF8B584B004000D004FF4927100
:1086A0002000FFF77CFD00281AD04FF492712000C3
:1086B000FFF769FD02208DF800002000FFF784FD20
:1086C00003902000FFF7D2FD0290E868019000209F
:1086D000A8610020E861296868466A6890472DE033
:1086E0004FF488712000FFF75AFD002826D04FF480
:1086F00088712000FFF747FD2000FFF7B7FD060057
:10870000A86986421AD1E869002810D0EF682021B4
:108710002000FFF74DFDE869A8612869E8600020A6
:10872000E8613A0031002800FFF794FF06E00020DE
:10873000A861EA6831002800FFF78CFF4FF4A271AE
:108740002000FFF72CFD002813D04FF4A271200069
:10875000FFF719FDA86900280BD00020A8610020B0
:10876000E8612000FFF782FDEA6801002800FFF7BA
:1087700071FF4FF490712000FFF711FD002812D017
:108780004FF490712000FFF7FEFC0C212000FFF752
:1087900053FD6869002806D02000FFF764FD010042
:1087A0002800FFF765FF4FF4AC712000FFF7F7FCDE
:1087B00000280ED04FF4AC712000FFF7E4FC68698C
:1087C000002806D02000FFF74EFD01002800FFF72B
:1087D0004FFF05B0F0BD80B507490948FFF75AFFC4
:1087E00001BD000000E100E080E100E018ED00E0E4
:1087F00000E400E01003420008200020D8D302006B
:108800000020004002000A70100080B2000A487088
:10881000022070472DE9FC4704000D0016003000CF
:1088200080B229880931884201D20C2031E06846A3
:108830006DDF0700380000282BD1082029886054FC
:108840002888401C28801B20298860542888401CC8
:1088500028805FF006080DF10109288804EB000A62
:10886000424649465046FEF77FFB2888801D2880F7
:108870009DF80000C0B24008002803D100202988DC
:10888000605402E00120298860542888401C288018
:108890000020BDE8F687FCB404000D002078012814
:1088A00004D16078002801D1072064E0180080B26C
:1088B0001188891C88420BD3207801280AD118001E
:1088C00080B21188667816FA81F1891C884201D23B
:1088D0000C2050E0190089B21088091A8E1EADF8DC
:1088E0000060694610882844801C7DDF0100080074
:1088F000002840D12078022805D06078BDF80070AB
:1089000080B2B84207D33000BDF8007080B2B842E0
:1089100001D3092711E00827207801280BD1300066
:1089200094F801C080B21FFA8CFC604503D36078D4
:10893000ADF8000001E0ADF80060BDF80000FF28D0
:1089400001D30C2017E0BDF80000401CB2F800C0B5
:1089500005F80C001088401C108010882F541088D7
:10896000401C1080B2F800C0BDF8000010EB0C0CE9
:10897000A2F800C00020F6BC7047F8B504000D0056
:108980001600300080B22988091D884201D20C20CF
:108990001DE0684679DF07003800002817D1032062
:1089A000298860542888401C288019202988605410
:1089B0002888401C2880288804EB0001BDF80000AE
:1089C000FFF720FF298851FA80F028800020F2BDAF
:1089D00030B40400180080B21588ED1CA84201D202
:1089E0000C2011E00220158848551088401C10808A
:1089F0000120158848551088401C108010880C54A0
:108A00001088401C1080002030BC704730B4040037
:108A1000180080B21588ED1CA84201D20C2011E08C
:108A20000220158848551088401C10800A2015889F
:108A300048551088401C108010880C541088401C29
:108A40001080002030BC70472DE9FE4F05000E005D
:108A50001700DDF830C00D9C5FF0000EBCF8008000
:108A60005FF000092888814551DA686850F82910BC
:108A700001910022694601A864DF82465046002821
:108A80005DD19DF800003900C9B288423CD17046E2
:108A9000C0B2002802D05FF0000B01E05FF0020BD3
:108AA000200080B2BCF800109DF8002012FA81F17D
:108AB00051FA8BF1884201DA0C2040E07046C0B2D6
:108AC00000280ED1BCF80000401CACF80000BCF837
:108AD00000001E54BCF80000401CACF8000001204F
:108AE0008646BCF8000003EB0002694601A864DF7B
:108AF00001000800002822D1BCF800009DF80020E9
:108B000050FA82F0ACF8000019F10109AAE77046AA
:108B1000C0B2002812D0BCF80010B1EB0801491E09
:108B2000ADF80210BDF80200B0F5807F01DB0C202B
:108B300005E0BDF80200414689B258540020BDE866
:108B4000FE8F2DE9FC4705000E0017009846DDF862
:108B500028900B9C200080B20190CDF800904346F5
:108B600002223100C9B22800FFF76EFF824650464C
:108B7000002810D1200080B20190CDF8009043462B
:108B800010223900C9B22800FFF75EFF010008007B
:108B9000002800D10020BDE8F687010008880628DB
:108BA00009DB40F681400A88824206DB0A884FF6DC
:108BB000FF739A4201D007201BE04A88062A07DB90
:108BC0004A88824206DB48884FF6FF72904201D005
:108BD00007200EE04FF6FF700A88824208D04A88CC
:108BE000824205D048880A88904201D2072000E0DE
:108BF000002070472DE9F04104000D0016001F0011
:108C0000380080B23188891D884201D20C2027E0CB
:108C10002000FFF7C2FF80464046002820D10520F3
:108C2000318868543088401C308012203188685464
:108C30003088401C3080308805EB00012088FFF729
:108C4000E1FD318851FA80F03080308805EB000179
:108C50006088FFF7D7FD318851FA80F0308000201E
:108C6000BDE8F0812DE9F84F04000D0016001F004B
:108C7000B4F8048018F10208380080B2318818FA7C
:108C800081F1891C884201D20C2034E0B8F1FF0F39
:108C900001D30C202FE018F101003188685430888E
:108CA000401C3080FF20318868543088401C308060
:108CB000308805EB00012088FFF7A4FD318851FAC8
:108CC00080F03080A088002814D0A068002801D14E
:108CD000072010E0B4F80490D4F808A0308805EB21
:108CE000000B4A4651465846FEF73EF93188A088A7
:108CF000411831800020BDE8F28F2DE9FE4F0400BD
:108D00000D001600A06A002801D107204DE00027C1
:108D1000380094F82C10C0B2884245D2A16A3A00BB
:108D2000D2B20C20424301EB0208B8F8049019F1CA
:108D30000209B9F1FF0F01D30C2036E019F101004F
:108D4000318868543088401C30801620318868543F
:108D50003088401C3080308805EB0001B8F80000F6
:108D6000FFF750FD318851FA80F03080B8F80400E8
:108D7000002817D0D8F80800002801D1072014E0F7
:108D8000B8F804000090D8F808A0308805EB000B74
:108D9000009A51465846FEF7E7F83188B8F80400C3
:108DA000411831807F1CB3E70020BDE8FE8F2DE91C
:108DB000FC4104000D0016000027B6F800800020DA
:108DC000308094F82D0000280AD0424692B231003B
:108DD0002800FFF71FFD07003800002840F09F80A3
:108DE000A07800280AD0424692B231002800FFF74E
:108DF000C4FD07003800002840F09180E07800288A
:108E00000DD043469BB23200290094F9030040B2D2
:108E1000FFF7DEFD07003800002840F08080606822
:108E200000280CD043469BB232002900606890F9BC
:108E30000000FFF7EBFD0700380000286FD1208904
:108E400000280ED0404680B2019000962B000622EA
:108E5000022114F10800FFF774FE07003800002813
:108E60005DD1208A00280ED0404680B20190009645
:108E70002B000722032114F11000FFF762FE070008
:108E8000380000284BD1208B00280ED0404680B2FD
:108E9000019000962B001522142114F11800FFF701
:108EA00050FE07003800002839D1206A00280AD077
:108EB00043469BB232002900206AFFF79BFE070061
:108EC000380000282BD1606A00280AD043469BB2A4
:108ED00032002900606AFFF7C5FE0700380000284D
:108EE0001DD194F82C0000280AD043469BB23200D2
:108EF00029002000FFF701FF0700380000280ED1ED
:108F0000207800280AD043469BB232002900200076
:108F1000FFF7C1FC07003800002800D13800BDE889
:108F2000F681FEE72DE9F04705000E0000275FF00F
:108F300000092800C0B200F0FFFB8046B8F1040F22
:108F40004FD23000C0B200282AD0022841D048D2E7
:108F5000DFF8D895032000FB08F019F8000007009F
:108F6000032000FB08F04844407800280ED0DFF8CA
:108F7000C0A552464FF48041DFF8B805006800F004
:108F8000EBFD0400002C01D18AF80050032000FB07
:108F900008F048448078DFF8A01501F8080020E0C8
:108FA000DFF89005006800F0F8FDDFF88005DFF8D5
:108FB000881511F80810032202FB08F20244927887
:108FC000914205D1032101FB08F108448078070094
:108FD00007E0DFF85805032101FB08F10844407859
:108FE00007003800C0B2002808D0DFF85015086824
:108FF000002803D03800C0B209688847BDE8F08770
:1090000010B5040002212078FFF78CFF10BD10B5C9
:10901000DFF82C050078002809D00024042C08D2A1
:10902000022C02D0200000F04BFB641CF6E700F09D
:109030004FFB10BD2DE9F041060000240025DFF8AC
:1090400004753878002803D000203870FFF7DFFF60
:109050003000C0B2002837D0022841D040D30428C5
:1090600000F0AE8074D3062800F01881C0F0E180D3
:10907000082800F02781C0F01F810A2800F03E81F7
:10908000C0F02E810C2800F05581C0F045810E28DB
:1090900000F05581C0F05381102800F05081C0F0DD
:1090A0004E81122800F08281C0F04981142800F01E
:1090B0008A81C0F08081162800F09881C0F08B81F1
:1090C000172800F0938196E1FFF7A1FFDFF87804FD
:1090D000006800F062FD0400DFF8700406708AE1A9
:1090E000002000F0D6FA00280CD0002000F0E8FAAA
:1090F0003000C0B2022802D14FF4E1650DE04FF418
:109100007A650AE0002000F0D3FA3000C0B20228ED
:1091100001D1C82501E04FF4C875DFF830040670AE
:10912000002217004FF40040A0FB050110F57A70F3
:1091300051F100014FF4FA62002300F055FD0100E7
:109140003A00DFF80404006800F006FD040052E174
:10915000002000F09EFA00280CD0002000F0B0FAA9
:109160003000C0B2032802D14FF448750DE04FF42F
:109170007A650AE0002000F09BFA3000C0B20328B4
:1091800001D1C82501E04FF4C875DFF8C0030670AF
:10919000002217004FF40040A0FB050110F57A7083
:1091A00051F100014FF4FA62002300F01DFD0100AF
:1091B0003A00DFF89403006800F0CEFC04001AE1E6
:1091C000002000F066FA00280CD0002000F078FAA9
:1091D0003000C0B2042802D14FF47A650EE04FF49B
:1091E0007A650BE0002000F063FA3000C0B204287A
:1091F00002D14FF4C87501E04FF4C875DFF84C0395
:109200000670002217004FF40040A0FB050110F586
:109210007A7051F100014FF4FA62002300F0E4FC8F
:1092200001003A00DFF82003006800F095FC04001C
:10923000E1E0002000F02DFA00280BD0002000F023
:109240003FFA3000C0B2052801D1C8250DE04FF427
:109250007A650AE0002000F02BFA3000C0B2052841
:1092600001D1C82501E04FF4C875B8480670002246
:1092700017004FF40040A0FB050110F57A7051F182
:1092800000014FF4FA62002300F0AEFC01003A0046
:10929000AD48006800F060FC0400ACE0002000F085
:1092A0002BFAAA480670002240F26661A6480068C0
:1092B00000F052FC04009EE0002000F0F9F9A34801
:1092C000067098E001203870012000F015FA0022A5
:1092D00040F266619C48006800F03EFC04008AE0B1
:1092E00001203870012000F007FA00224FF40051ED
:1092F0009548006800F030FC04007CE001203870E4
:10930000012000F0F9F9002240F266618E48006801
:1093100000F022FC04006EE001203870012000F013
:10932000EBF900224FF400518748006800F014FC6C
:10933000040060E000F0D6F9844806705BE0844FDA
:10934000386800F02AFC04003000C0B2D0F11100EF
:109350000500002D23D0002C21D1022D18D300228E
:109360009046290089B2C82041434FF4004080FB59
:10937000010110F57A7051F100014FF4FA620023F7
:1093800000F032FC01004246386800F0E5FB0400C2
:10939000022000F08DF901206949087005E00220E3
:1093A00000F08EF900206649087024E0FFF72FFED8
:1093B000664806701FE0FFF72AFE002000F078F9EB
:1093C0006248067017E0FFF722FE012000F070F9F6
:1093D0005E4806700FE0FFF71AFE002000F068F903
:1093E000012000F065F95948067004E000F07AF9B0
:1093F00056480670FFE72000BDE8F08110B5040074
:1094000054480078C00703D550480078FFF712FE93
:1094100010BD10B50400022000F06EF910BD38B583
:10942000040000254B480078C00704D52000C0B2D6
:10943000FFF700FE0500280032BDF8B505000E005C
:109440000024444805603D480660A80722D500274F
:10945000042F09D2002C07D101220121380000F08D
:1094600030F804007F1CF3E7002C06D140F23332C1
:109470000421394800F029FE0400002C02D100F03C
:109480006FFE0400002C05D1344A0021294800F069
:109490004FFB0400E80712D5012000F061F9002C11
:1094A00005D12F4A0021284800F042FB0400002C7F
:1094B00005D12C4A0121264800F03AFB0400200087
:1094C000F2BD30B403000020042B29D21400E4B212
:1094D000012C07D10C00E4B2012C02D113F10E02D1
:1094E00000E000220C00E4B2002C0FD0022C06D0C9
:1094F00013D20E4C032505FB03F5625512E00B4C0D
:10950000032505FB03F52C4462700BE0074C032593
:1095100005FB03F52C44A27004E00724200001E0C1
:109520000724200030BC70470000000040210020CC
:10953000D1210020B8D30200B0210020AC210020AE
:10954000D0210020CF210020B0D30200CE21002066
:10955000B4D30200A821002098CC020001900200A0
:10956000FD9302001394020001005FF0A0407047D9
:109570002DE9F14181B00E0017009846089C099D25
:1095800001A8FFF7F1FF3100C9B23A00D2B251EAA7
:1095900042014246D2B251EA82012200D2B251EADD
:1095A00002212A00D2B251EA0241019A00EB820262
:1095B000C2F80017BDE8F3811CB50400002001903B
:1095C000002000900023012201212000FFF7D0FF9E
:1095D00013BD3EB504000D00002001900020009056
:1095E0002B00DBB2002200212000FFF7C1FF37BDB6
:1095F00011B581B001A8FFF7B7FF04000121019860
:109600008140200000F03FF813BD11B581B001A8E2
:10961000FFF7AAFF0400012101988140200000F01B
:1096200035F813BD01B56846FFF79EFFD0F8042555
:109630000123009913FA01F19143C0F8081500992C
:109640008B401340C0F80C3501BD38B505000C0047
:10965000002C03D12800FFF7D8FF02E02800FFF715
:10966000C7FF31BD11B581B001A8FFF77DFF040030
:10967000200000F005F80199C84010F0010016BD67
:10968000D0F804057047C0F808157047C0F80C15ED
:10969000704710B504003048005DFFF7E3FF002875
:1096A00001D0012000E0002090F00100C0B210BD08
:1096B00010B5040000212848005DFFF7C6FF10BD6B
:1096C00010B5040001212448005DFFF7BEFF10BD66
:1096D00010B50024042C04D22000FFF7F1FF641C15
:1096E000F8E710BD10B50024042C04D22000FFF7C9
:1096F000DFFF641CF8E710BD10B504001648005DDC
:10970000FFF790FF10BD10B50024042C05D21248BD
:10971000005DFFF751FF641CF7E7FFF7D9FF10BDAD
:1097200010B50024042C06D203210C48005DFFF77D
:1097300050FF641CF6E710BD01005FF0FF3000220F
:10974000042A07D2054B9B5C8B4201D1100001E03B
:10975000521CF5E770470000A8D30200ACD302000A
:1097600010B50400E00701D5FFF7CDFFA00701D534
:10977000FFF7D6FF10BDFEE780B5DFF83C0400F030
:10978000EAFEDFF83814D1E900230021101859410E
:10979000DFF82C24D2E90023994206D801D3904265
:1097A00003D2B0F17F4071F1FF3104BDF0B402008B
:1097B0000B00D2E90245D3E90267AF4204D301D8D6
:1097C000A64201D3012000E00020C0B2F0BC7047E7
:1097D00038B504000025DFF8EC030078012832D109
:1097E000002C30D0207F00282DD0FFF7C5FFD4E912
:1097F0000223994220D301D890421DD3206900282A
:1098000001D100202077A06961698847206900287C
:1098100019D0207F002816D0D4E902232069002126
:1098200010185941C4E902012100DFF89C0300F03F
:10983000BDFE0120050006E02100DFF88C0300F0EA
:10984000B5FE012005002800C0B232BD2DE9F84365
:10985000050088460D24002088F80000FFF78CFFE3
:10986000D5E90223161A73EB0107012000218F426C
:109870001DDB01DC86421AD3B6F5350F07D300F0A5
:1098800096F98146DFF8440310EB090902E0D5E9B7
:10989000020181465FF496034A460021DFF818036F
:1098A00000F0B1FD0400002C06D101200DE00021E4
:1098B000DFF8040300F039FE0D2C05D12800FFF776
:1098C00087FF88F80000FFE70020BDE8F28380B53D
:1098D000DFF8F40200F07DFE002800D1002002BD78
:1098E00080B5DFF8E40240680068002800D100205D
:1098F00002BD10B5FFF7EBFF0400002C01D00020E3
:109900002077002CF6D110BDAC48D0E90023B2F18D
:109910007F4273F1FF33C0E90023704738B504007C
:10992000AB4D2868002805D02868FFF751FF0020BC
:109930002860FFE731BD10B50400FFF71DFFA04A06
:10994000C2E9000110BD2DE9FC410500FFF7C8FF89
:1099500004000026002C38D09D4F3868002802D122
:109960000120060013E0D4E902013A68D2E902239B
:1099700099420CD801D3904209D2012006003868E0
:10998000007F002803D039688F4800F00FFE3000B8
:10999000C0B2002818D0FFF79AFF804669464046BB
:1099A000FFF754FF00280CD03868002802D12800A7
:1099B00000F0B7FCC7F800809DF800000028C5D172
:1099C0000AE000203860C1E706E08148006800280E
:1099D00002D1280000F0ACFCBDE8F3817CB50500A5
:1099E0007C4E6946306800F0AAFE0400002C33D09B
:1099F0002078002803D002281ED00CD322E0606813
:109A0000007F002806D101206168087761686E48F0
:109A100000F0CCFD16E06E4861680268914202D108
:109A20000021016007E06168674800F0DFFD010088
:109A30000800C0B2002805E0FFF75BFF0120614984
:109A40000870FFE76946306800F088FE69463068B4
:109A500000F075FE0400C9E773BD10B504002000D6
:109A600000F05BFD002801D0FFF74EFF0021200031
:109A700000F065FD002802D02000FFF74FFF012114
:109A8000200000F05CFD002802D02000FFF753FF0B
:109A90002000FFF7A3FF2000FFF755FF10BD80B5A2
:109AA000454800F05EFD01BDF8B505000E00494FC8
:109AB0006946386800F026FE0400002C0CD02570A2
:109AC00066606946386800F02CFE002802D0FFF777
:109AD000E6FFFFE7002000E00420F2BD7CB53E4831
:109AE00000680090082358223C493A48006800F07A
:109AF000EDFD0500002D01D0280018E02E4E384A5B
:109B00006946300000F0CFFB0400002C01D020009B
:109B10000DE00121300000F0F6FC0123314A012163
:109B2000300000F00CFC012026490870200076BDB2
:109B300010B403001000002801D107200AE01C68BF
:109B400062610800C0B2012801D1012000E00020BC
:109B50002061002010BC70472DE970430400884646
:109B600015002600307F002801D0002013E0B561E9
:109B7000FFF702FE5FF0000910EB080051EB09014E
:109B8000C6E902013069002801D0C6F81080310012
:109B90000020FFF789FFBDE8708338B50400250079
:109BA0000020287729000120FFF77EFF32BD80B515
:109BB000014800F0D0FC02BDC81800206021002040
:109BC00068210020CD21002010D20200FFFFB40048
:109BD000A0210020A0D30200A4D30200441F002033
:109BE0005B9A0200FFFF7F00BBBBE1B1B2F5803F93
:109BF00080F07E80022A1ED98C46B1FBF2F102FB76
:109C000011C31B0443EA1043B3FBF2FC02FB1C33F9
:109C100080B240EA0343B3FBF2F002FB103240EAA9
:109C20000C4000237047022A05D98446B0FBF2F0AD
:109C300002FB10C270474AB105D100F00102490889
:109C40005FEA3000704700220023704700F094BDA7
:109C50000B000200002100207047904271EB030CC2
:109C6000F6D3B3F5803F2FD2F0B5B3FA83F7B1FA4C
:109C700081F4A7F10F0E3D1B5340CEF1200602FAEE
:109C80000EF2F3415340B5F10F0746D80F3C2C4478
:109C90004140C4F12006A040F1414140B1FBF3F640
:109CA00003FB1611A2FB0645001BA94102D2761E3A
:109CB0008018594180EA010221FA0EF362FA0EF28D
:109CC00000215A403046F0BD30B4B1FBF3FC03FB39
:109CD0001C11A2FB0C45001BA94103D2ACF1010CE5
:109CE0008018594130BC02460B466046002170473F
:109CF000B2F1807F65D3F0B5B2FA82F7B1FA81F4A0
:109D0000C7F10F063D1B22FA06F307F1110EF241CF
:109D100020355A40B5F10F07B8D94140C4F12006AB
:109D2000A040F1414140B1FBF3FC03FB1C11A2FB3D
:109D30000C45001BA94103D2BCF1010C801859410C
:109D40000F2F12D30F3FC90341EA5041B1FBF3F685
:109D500003FB1611A2FB0645D4EBC030A94102D289
:109D6000761E8018594146EACC3C07B34140C7F102
:109D70002006B840F1414140B1FBF3F603FB161158
:109D8000A2FB0645001BA94102D2761E801859414C
:109D900080EA010221FA0EF3C7F1200462FA0EF202
:109DA0000CFA07F05A402CFA04F13043F0BD80EA77
:109DB000010221FA0EF3002162FA0EF260465A40C7
:109DC000F0BD8C46B1FBF2F102FB11C31B0243EA6A
:109DD0001063B3FBF2FC02FB1C331B024CEA0020B5
:109DE00043EA1063B3FBF2FC02FB1C331B024CEA98
:109DF000002043EA1063B3FBF2FC02FB1C331B029E
:109E00004CEA002043EA1063B3FBF2FC02FB1C3275
:109E10004CEA0020002370470100DFF868030A00C5
:109E2000D2B25210825CC80703D51000C0B200093C
:109E300001E012F00F00C0B2704770B4C20701D544
:109E40000F2200E0F022C30701D50B0100E00B0058
:109E5000DFF830430500EDB26D10655D154006007A
:109E6000F6B27610A5550500EDB26D10655D1D4387
:109E70000600F6B27610A55570BC704710B401000C
:109E80000022DFF80403007882420BDADFF8FC02DC
:109E9000006800EBC2000B000478DBB2A34202D0E2
:109EA000521CEEE7002010BC704770B505000E0094
:109EB0002800C0B2FFF7E2FF0400002C08D0606861
:109EC000002805D03100C9B22800C0B262689047AE
:109ED00070BD2DE9FC4106000F003000C0B2FFF755
:109EE0009BFF002806D0022833D025D304284FD06A
:109EF00044D37AE03800C0B200281CD001213000E1
:109F0000C0B2FFF79AFF00208DF801000DF10100AB
:109F1000FCF7ACFFDFF87882D8E90045012000218A
:109F2000320000F02BFC20432943C8E900019DF8D2
:109F30000100FCF7A1FF58E03800C0B2002801D0B2
:109F4000022100E00021C9B23000C0B2FFF775FF66
:109F50004BE03800C0B200280AD003213000C0B264
:109F6000FFF76BFF01213000C0B2FFF79EFF04E056
:109F700001213000C0B2FFF760FF36E03800C0B208
:109F8000002804D104213000C0B2FFF756FF2CE0B6
:109F90003800C0B2002805D003213000C0B2FFF75E
:109FA0004CFF22E000213000C0B2FFF746FF002145
:109FB0003000C0B2FFF779FF00208DF8000068463E
:109FC000FCF754FFDFF8C881D8E9004501200021E3
:109FD000320000F0D3FB34EA000035EA0101C8E9A1
:109FE00000019DF80000FCF747FFBDE8F38180B554
:109FF000002268480168490867480068FFF7ACFD1F
:10A00000002801BD2DE9F041040000255E480078DC
:10A0100085421FDA5D48006800EBC5063078FDF721
:10A02000FBFA07007078012801D1012000E0002030
:10A03000C0B23900C9B291EA000F02D15FF0010845
:10A0400001E05FF000084146C9B23078FFF741FFF8
:10A050006D1CDBE74E48D0E9000100220023994245
:10A0600001D1904202D0FFF7C2FFFFE7BDE8F081C7
:10A070002DE9F041040088462000C0B2FFF7FEFE43
:10A0800005002878FDF7C8FA06006878012801D194
:10A09000012000E00020C0B23100C9B291EA000FF7
:10A0A00001D1012700E000273800C0B200280AD003
:10A0B0003748D0E90023002000218B4203D182429F
:10A0C00001D1FFF794FFBDE8F0812DE9FC470400C2
:10A0D0000F0015000A2D01D207203FE0FDF7E3F93C
:10A0E000002805D1FDF7A1F906003000002835D180
:10A0F0002648046024480770264805605FF0100871
:10A100005FF00009DFF87CA04A4641465046FDF763
:10A11000BDFB002000211E4AC2E900013800471E95
:10A12000C0B2002815D03800C0B204EBC0081B48EC
:10A130000068009098F802008DF80100184A6946FE
:10A1400098F80000FDF7BAF906003000002805D1A4
:10A15000E4E7144A00211048FFF7EAFCBDE8F6875F
:10A1600010B5002408480078844208D2012107482D
:10A17000006810F83400FDF7F9F9641CF2E70020DC
:10A1800010BD000014210020CC21002098210020C7
:10A19000582100209C21002098D302009CD302006B
:10A1A00071A0020005A00200012210F01F018A40E8
:10A1B000DFF8CC1303005BB25B0941F82320704742
:10A1C000012210F01F018A40DFF8B81303005BB2D0
:10A1D0005B0941F82320704710B4020052B2002AF4
:10A1E0000AD54A01DFF8A033040064B214F00F046A
:10A1F000234403F8042C05E04A01DFF890330400FF
:10A2000064B21A5510BC704738B504000D0029001F
:10A21000C9B2200040B2FFF7DFFF31BD10B5040026
:10A22000200040B2FFF7C0FF10BD70B50400002C45
:10A2300008D0DFF85C5355F00105402606FB04F614
:10A240003000A84770BD00EB8103C3F8402570477C
:10A2500000EB8100D0F840057047C0F80413704748
:10A26000C0F80813704709B24058704781B0002207
:10A270000B001BB2C2500A0012B282580092009A20
:10A2800001B07047D0F804057047C0F80815704752
:10A29000012250FA81F31A607047C0F844137047E6
:10A2A000C0F848137047F8B504000D001600B9480F
:10A2B000617940F82160B84F607907EBC000007900
:10A2C00000280CD00827B549B548B64A801AC008FE
:10A2D000000450F00200FCF795F9380020E02988CE
:10A2E0002068FFF7D2FFA97894F90400FFF78CFFEC
:10A2F00094F90400FFF792FF607907EBC000012199
:10A300000171607947F830400027A749A448A54A61
:10A31000801AC008000450F00300FCF773F93800FD
:10A32000F2BD10B5040000212068FFF7B1FF10BD99
:10A3300010B5040004212068FFF7AAFF10BD2DE925
:10A34000F84304000D0016001F005FF4803818FA6F
:10A3500005F85FEA850919F5A07926F07F464146A0
:10A360002068FFF77DFF41462068FFF799FF4946C7
:10A3700009B22068FFF77AFF320029002068FFF752
:10A3800062FF41462068FFF788FF3800C0B200280E
:10A3900003D041462068FFF760FFBDE8F18370B548
:10A3A00004000D00160029002068FFF776FF30003A
:10A3B000C0B2002803D029002068FFF74EFF70BD0F
:10A3C00038B504000D0029002068FFF769FF290057
:10A3D0002068FFF745FF31BD38B504000D002900A6
:10A3E00009B22068FFF73FFF002806D0290009B214
:10A3F0002068FFF73BFF012000E0002032BD401A3B
:10A4000020F07F4070472DE9FE4F05000E005FF4FD
:10A410008037B7405FEA860818F5A07822F07F42BF
:10A42000009239002800FFF7CBFF2868FFF72AFFCA
:10A43000834631002868FFF70BFF81465A463100FA
:10A440002868FFF700FF414609B22868FFF70EFFB2
:10A4500059464846FFF7D3FF012807D11020FFF7E0
:10A46000E4FE414609B22868FFF700FF2868FFF7BD
:10A4700009FF824651460098FFF7C1FF04003900EA
:10A480002868FFF70AFF012C0FD1009A521C3100F7
:10A490002868FFF7D8FE1020FFF7C7FE2868FFF7EF
:10A4A000F1FE824527D00D202BE0009A310028686C
:10A4B000FFF7C9FE2868FFF7E5FE8246514600987F
:10A4C000401EFFF79CFF04007FF07F410298091AAD
:10A4D000A14201D20D2014E0002C0CD1009A521C94
:10A4E00031002868FFF7AFFE2868FFF7CBFE8245F2
:10A4F00001D00D2005E0012239002800FFF74FFFB1
:10A500000020BDE8FE8F38B504000D002A00D2B24D
:10A5100002212000FFF743FF31BD10B504004FF4C6
:10A5200082712000FFF758FF10BD38B504000D0000
:10A530005FF48031A9402000FFF742FF31BD70B5C4
:10A5400004000D00AE0016F5A076310009B220001F
:10A55000FFF742FF70BD10B504002068FFF792FEC0
:10A5600010BD10B5040094F90400FFF729FE10BDDA
:10A5700080B50948006807490968884701BD00009F
:10A5800000E100E000E200E018ED00E000E400E09F
:10A59000E0D20200B42100207021002078CB02001C
:10A5A000D0C70200C8C7020024D0020070B5040062
:10A5B0000D0066683068002807D029003068A2685E
:10A5C0009047002801D03668F4E73068286035608D
:10A5D00070BD02005068006851680968002904D005
:10A5E00051680968096853681960704710B403001E
:10A5F00000205C682268002A09D022688A4204D1BF
:10A600000A6822600122100001E02468F2E7C0B26B
:10A6100010BC70473CB4020052E8015FABB2D48971
:10A6200023449489A34228BF1B1B1489A34202BF61
:10A63000BFF32F8F002007E0C3EA050342E801348F
:10A64000002CE9D14FF0010001958DF80000019830
:10A6500008609DF8000036BC7047000050E8012FEC
:10A66000C2EA024240E801210029F7D17047000008
:10A670003CB4020052E8025F1FFAA5F3D488A3425B
:10A6800002BFBFF32F8F00200DE0D48923449489AB
:10A69000A34228BF1B1BC5EA034342E80234002C37
:10A6A000E8D14FF0010001958DF800000198086095
:10A6B0009DF8000036BC704750E8022FC2EA2242E3
:10A6C00040E802210029F7D17047000070B404006F
:10A6D000002901D10E2013E0100080B21D00ADB2A0
:10A6E00090FBF5F605FB1600002801D0092007E0D5
:10A6F0002160002060600020A060A281E381002032
:10A7000070BC704738B504000D0029002000FFF729
:10A7100081FF002803D020682988084400E0002039
:10A7200032BD38B504000D0028886988884204D1FC
:10A730002000FFF793FF012000E0002032BD38B574
:10A7400004000D0029002000FFF792FF002803D02D
:10A7500020686988084400E0002032BD38B5040054
:10A760000D0028886988884204D12000FFF7A4FFE3
:10A77000012000E0002032BD7047FEE7D2B2203A4F
:10A7800022BF00FA02F1002070475242D041D2F1BC
:10A79000200291404140D040904041407047FEE748
:10A7A000BFF34F8FDFF8A4140A6812F4E062DFF8F9
:10A7B000A00402430A60BFF34F8F00BFFDE7DFF83C
:10A7C0009404DFF894140860704780B500F014F921
:10A7D000002807D0DFF884040068C0F30420DFF805
:10A7E0008014086000F02EF9002804D0DFF874040B
:10A7F000DFF87414086000F03CF9002807D0DFF897
:10A800006C040068C0F34230DFF86414086000F0A4
:10A8100053F9002805D0DFF85C04016831F080713D
:10A82000016000F05EF900280BD00020DFF848142A
:10A8300008600020DFF8441408600020DFF84014AE
:10A84000086000F071F9002803D00320DFF8341409
:10A85000086000F07EF900280FD00520DFF82814EA
:10A8600008600120DFF8241408600020DFF82014BD
:10A8700008603F20DFF81C14086000F07FF9002812
:10A8800065D0DFF814040068DFF810140860DFF802
:10A8900010040068DFF80C140860DFF80C0400688E
:10A8A000DFF808140860DFF808040068DFF8041413
:10A8B0000860DFF804040068DFF800140860DFF8BF
:10A8C00000040068DFF8FC130860DFF8FC03006890
:10A8D000DFF8F8130860DFF8F8030068DFF8F41316
:10A8E0000860DFF8F4030068DFF8F0130860DFF8B1
:10A8F000F0030068DFF8EC130860DFF8EC03006891
:10A90000DFF8E8130860DFF8E8030068DFF8E41315
:10A910000860DFF8E4030068DFF8E0130860DFF8A0
:10A92000E0030068DFF8DC130860DFF8DC03006890
:10A93000DFF8D8130860DFF8D8030068DFF8D41315
:10A940000860DFF8D4030068DFF8D013086000F077
:10A950002AF9002807D0DFF8C803006810F04F007C
:10A96000DFF8C013086000F041F9002807D0DFF8D5
:10A97000B8030168C90702D57FF00101016000F04A
:10A9800058F9002805D0DFF8A403016851F480616C
:10A990000160DFF89C03016851F470010160BFF3AE
:10A9A0004F8FBFF36F8FDFF88C130868002804D433
:10A9B000DFF88403006800281BD5DFF8802301201E
:10A9C0001060DFF87C3318680028FAD01520086082
:10A9D00018680028FCD01520DFF85C1308601868A0
:10A9E0000028FCD00020106018680028FCD0FFF779
:10A9F000D7FEFFF7E4FE01BDDFF84803007800F062
:10AA0000FF0006281CD1DFF84003007810F00F0F7C
:10AA100016D1DFF83803017811F0F001302901D1A7
:10AA200001200EE0017811F0F001402901D1012050
:10AA300007E0007810F0F000502801D1012000E07C
:10AA400000207047DFF8FC02007800F0FF000628C5
:10AA50000DD1DFF8F402007810F00F0F07D1BB48DA
:10AA6000007810F0F000302801D1012000E0002033
:10AA70007047B448007800F0FF0006281AD1B248A9
:10AA8000007810F00F0F15D1B048017811F0F001E7
:10AA9000302901D101200EE0017811F0F0014029A8
:10AAA00001D1012007E0007810F0F000502801D11A
:10AAB000012000E000207047A248007800F0FF006D
:10AAC00006280CD1A048007810F00F0F07D19F483E
:10AAD000007810F0F000302801D1012000E00020C3
:10AAE00070479848007800F0FF0006281AD1964871
:10AAF000007810F00F0F15D19448017811F0F00193
:10AB0000302901D101200EE0017811F0F001402937
:10AB100001D1012007E0007810F0F000502801D1A9
:10AB2000012000E0002070478648007800F0FF0018
:10AB300006280CD18448007810F00F0F07D1834805
:10AB4000007810F0F000302801D1012000E0002052
:10AB500070477C48007800F0FF0006280CD17A4846
:10AB6000007810F00F0F07D17848007810F0F0004F
:10AB7000302801D1012000E00020704771480078A2
:10AB800000F0FF0006280CD16F48007810F00F0F7E
:10AB900007D16E48007810F0F000502801D1012054
:10ABA00000E0002070476748007800F0FF000628AA
:10ABB0001AD16548007810F00F0F15D1634801785D
:10ABC00011F0F001302901D101200EE0017811F0DF
:10ABD000F001402901D1012007E0007810F0F000D9
:10ABE000502801D1012000E000207047554800782E
:10ABF00000F0FF0006281AD15348007810F00F0F1C
:10AC000015D15248017811F0F001302901D101200D
:10AC10000EE0017811F0F001402901D1012007E098
:10AC2000007810F0F000502801D1012000E0002051
:10AC3000704747480068062805D14648006806283E
:10AC400001D1012000E00020704700000CED00E081
:10AC50000400FA050090D0033419002024030010EA
:10AC6000403501400DF0ADBA74C0074044020010F9
:10AC70003C050040FCED00E00C01004010010040EC
:10AC800038050040A005004010560040885600409E
:10AC900018560040145600400404001020C500401F
:10ACA0000804001024C500400C04001028C5004012
:10ACB000100400102CC500401404001030C50040E2
:10ACC0001804001034C500401C04001040C50040AA
:10ACD0002004001044C500402404001048C5004072
:10ACE000280400104CC500402C04001050C5004042
:10ACF0003004001054C500403404001060C500400A
:10AD00003804001064C500403C04001068C50040D1
:10AD1000400400106CC500404404001070C50040A1
:10AD200058020010E40E0040000400403C170040B0
:10AD300088ED00E0001200100412001004E501404C
:10AD400000E40140E00F00F0E40F00F0E80F00F035
:10AD5000300100103401001038B504000D00280047
:10AD6000C0B20A2803D10D212000FFF7F5FFA0682B
:10AD7000411CA16021680D54A0686168884202D31B
:10AD8000200000F02DFA31BD2DE9F84307000D0039
:10AD9000140098465FF000095FEAC87018D528785B
:10ADA00006003000C0B2002808D06D1C19F101095E
:10ADB0003100C9B23800FFF7CFFFF0E7A14526D236
:10ADC000002C24D0641E20213800FFF7C5FFF5E7D2
:10ADD000002D03D0280000F025FA8146A14507D2B6
:10ADE000002C05D0641E20213800FFF7B5FFF5E7E1
:10ADF000287806003000C0B2002808D06D1C19F178
:10AE000001093100C9B23800FFF7A6FFF0E7BDE83D
:10AE1000F1832DE9FE4F0700884691461E000C9CE9
:10AE2000C3465FF0010ACB4504D3BBFBF9FB1AF123
:10AE3000010AF8E7B24500D2B2460D98C00718D40F
:10AE4000002C16D00D98800705D5002E03D1302098
:10AE50008DF8000002E020208DF80000002C08D0C2
:10AE6000A24506D2641E9DF800103800FFF774FF5B
:10AE7000F4E70125022E01D3761E05E0B8FBF5F0BC
:10AE800001900198484502D309FB05F5F2E7B8FBAC
:10AE9000F5F00190019805FB10880D480199415C7F
:10AEA0003800FFF759FFB5FBF9F5002DEFD10D98EC
:10AEB000C0070BD5002C09D0002C07D0A24505D225
:10AEC000641E20213800FFF747FFF5E7BDE8F78F44
:10AED0004CD102002DE9FE4F06000F0090461D00E8
:10AEE0000C9CDDF83490002F02D5D7F1000A00E069
:10AEF000BA465FF0010BC24504DB9AFBF8FA1BF17E
:10AF0000010BF8E7AB4500D2AB46002C05D0002F73
:10AF100002D45FEA497000D5641E5FEA897001D5EA
:10AF2000002D0ED05FEAC9700BD4002C09D0002C84
:10AF300007D0A34505D2641E20213000FFF70CFF87
:10AF4000F5E7002F05D57F422D213000FFF704FFE4
:10AF500006E05FEA497003D52B213000FFF7FCFEC5
:10AF600019F0030002280DD1002D0BD1002C09D0BF
:10AF7000002C07D0A34505D2641E30213000FFF716
:10AF8000EBFEF5E7CDF8049000942B004246390023
:10AF90003000FFF73EFFBDE8F78F2DE9FE4F0600BA
:10AFA0000D001700002D00F01981287883466D1CD4
:10AFB0005846C0B2002800F00B815846C0B2252880
:10AFC00040F0FD8000208046012004002878834660
:10AFD0005846C0B22B280CD02D2802D0302804D0DF
:10AFE0000BE058F001086D1C09E058F002086D1CD8
:10AFF00005E058F004086D1C01E000200400002C5E
:10B00000E4D1002081465846C0B22A280AD13868C7
:10B010003860386800683968091D396010EB090923
:10B020006D1C12E0287883465846C0B2302803DBF6
:10B030005846C0B23A2800DB07E06D1C0A2059468A
:10B04000C9B2303900FB0919DDE7002082462878B3
:10B050000100C9B22E2913D16D1C29780800010006
:10B06000C9B2302903DB0100C9B23A2900DB07E08D
:10B070006D1C0A210200D2B2303A01FB0A2AECE729
:10B0800095F800B05846C0B26C2803D05846C0B2FC
:10B09000682803D16D1C28788346F3E75846C0B270
:10B0A000252800F08580582845D063280CD06428D6
:10B0B0001BD0692819D070285FD073284ED075280E
:10B0C00026D0782837D078E038683860386800684B
:10B0D0003968091D3960040020008DF800009DF8D2
:10B0E00000103000FFF738FE67E0386838603868D5
:10B0F00000683968091D39600400CDF80480CDF876
:10B10000009053460A2221003000FFF7E3FE54E08E
:10B1100038683860386800683968091D396004008B
:10B12000CDF80480CDF8009053460A22210030006B
:10B13000FFF76FFE41E038683860386800683968AA
:10B14000091D39600400CDF80480CDF80090534605
:10B15000102221003000FFF75CFE2EE038683860D6
:10B16000386800683968091D3960009043464A46CE
:10B1700000993000FFF708FE1FE038683860386833
:10B1800000683968091D3960040030213000FFF77C
:10B19000E3FD78213000FFF7DFFD0020019008205B
:10B1A00000900823102221003000FFF732FE04E057
:10B1B00025213000FFF7D0FDFFE76D1C04E0594664
:10B1C000C9B23000FFF7C8FD287800287FF4EDAE43
:10B1D000307B002802D0300000F002F8BDE8F78F85
:10B1E00010B50400A068002806D0A2682168206974
:10B1F000636998470020A06010BD0CB438B5050005
:10B200000C00002C09D006480068009004A80090AB
:10B210006A4621002800FFF7C0FE31BC5DF80CFB38
:10B22000BCD3020000F10103810704D010F8011B18
:10B23000820781B1FAD10268A2F10131914311F084
:10B24000803104BF50F8042FF6E709BAB1FA81F152
:10B2500000EBD100401CC01A7047FEE72DE9F8470B
:10B260008FB004253C2400276E463A0021003000B0
:10B27000FCF70CFB02208DF800008DF803505FF006
:10B2800018085FF00009A34EB2464A4641465046B0
:10B29000FCF7FCFA0520307000207060002030754B
:10B2A000A020B0600020B081A020F074F07CC02805
:10B2B0000AD1994999489A4A801AC008000450F066
:10B2C0000300FBF79FF91AE0F07CA0280AD195490A
:10B2D0009248934A801AC008000450F00300FBF71C
:10B2E00091F90CE0F07C602809D18F498B488C4A99
:10B2F000801AC008000450F00300FBF783F9DFF860
:10B300002C8218F10402D8F800106846FDF74FFDB2
:10B3100007003C00002C02D0200000F021F9320090
:10B320004146834872DF06003400002C02D0200022
:10B3300000F016F910B0BDE8F08770B501217C4827
:10B34000007873DF05002C00002C02D0200000F0F4
:10B3500007F90220FEF763F806003400002C02D043
:10B36000200000F0FDF870BD7CB500F0C5F90500C7
:10B370002C00002C02D0200000F0F2F800200090F9
:10B380006946012000F038FA06003400002C02D093
:10B39000200000F0E5F8684600F0FCFA05002C00FB
:10B3A000002C02D0200000F0DBF873BD38B54FF45C
:10B3B00080410020FAF748FF05002C00002C02D045
:10B3C000200000F0CDF800F083FB31BD38B500213E
:10B3D0000120FEF732F805002C00002C02D02000DE
:10B3E00000F0BEF831BD38B5FEF778FB05002C0043
:10B3F000002C02D0200000F0B3F831BD38B500F0C9
:10B40000A0FB05002C00002C02D0200000F0A8F8C2
:10B4100031BD80B5FBF747F9002801D100F09EFB54
:10B4200001BD38B5434C220043493C483C4BC01A4F
:10B43000C008000450F00300FBF7EEF80A222100D8
:10B4400000207CDF05002C00002C02D0200000F042
:10B4500087F831BDF8B584B0FFF7A8FFFFF7C3FF49
:10B46000FFF7B4FFFFF7CAFFFFF77EFFFFF7D9FF33
:10B47000FFF7F4FE314C324800682060314D32480D
:10B4800000682860264E254F22683049B81BC00846
:10B49000000450F00300FBF7BFF82A682C49B81BE2
:10B4A000C008000450F00300FBF7B6F8207800F065
:10B4B000FF0003902068C0F3072002902068C0F3CB
:10B4C000074001902068C0F3036000902B7803F0E0
:10B4D000FF032868C0F307221E49B81BC0080004F8
:10B4E00050F00300FBF7B2F81B49B81BC00800047A
:10B4F00050F00300FBF786F81849BE1BF608360427
:10B5000056F003063000FBF77DF8FFF716FFFFF754
:10B5100080FFFCE7D0200020F4CD0200E0C702004D
:10B52000C8C7020010CE02002CCE0200D0180020A6
:10B53000801900201CD2020038D00200B82100205F
:10B54000A4000010BC210020A8000010D4CE0200EE
:10B55000ECCE020048CA020004CF02004CD0020028
:10B560001FB50400684600210022002380E80E0079
:10B5700002946A46002144F2010000F019FB1FBD4D
:10B58000012210F01F018A40DFF8181203005BB29D
:10B590005B0941F823207047010049B2002909D511
:10B5A000DFF8041240B210F00F00084410F8040C49
:10B5B000400904E0DFF8F41140B2085C400970472C
:10B5C000806870470100080040B2202805DADFF8E3
:10B5D000E001C84010F001000EE0080040B2402831
:10B5E00009DA012020398840002801D0012000E03C
:10B5F0000020C0B200E0012070470100082903D2FA
:10B60000EC200841C00701D4002000E00120704771
:10B6100010B50400200040B2FFF7D4FF002802D18B
:10B6200042F2010023E0200040B2FFF7B5FFFFF730
:10B63000E4FF002802D142F2020018E05D49886868
:10B6400000280FD0200040B2400951F820200123EB
:10B6500014F01F0083401A43200040B2400941F813
:10B66000202003E0200040B2FFF78AFF002010BD39
:10B670007FB504005049684600F0E7FA6846FFF7D6
:10B680009FFF002810D06846FFF79AFF05002E683C
:10B6900069682000C0B2B047002803D0684600F0B7
:10B6A000DEFAEBE7112000E0002004B070BD7FB5AA
:10B6B00004004249684600F0C8FA6846FFF780FF78
:10B6C00000280CD06846FFF77BFF05002E686968EC
:10B6D0002000C0B2B047684600F0C1FAEDE77FBD78
:10B6E00038B51620FFF794FF05002C00002C02D07F
:10B6F0002000FFF735FF31BD7CB5314D287800289B
:10B7000001D0082033E02F4E012030700020FFF7D9
:10B71000AFFF112801D1002029E00020FFF7C7FF6B
:10B7200029480068019000208DF800006846FBF76A
:10B730009DFB264901A810DF0400002C02D1012046
:10B74000287001E0002028709DF80000FBF794FBB2
:10B75000002C01D020000AE00020307000201C499D
:10B760000870FFF7BDFF0120FFF7A1FF002076BDA5
:10B770001348007870473EB51649684600F065FAF0
:10B780006846FFF71DFF00280AD06846FFF718FF3C
:10B79000040025686068A847684600F060FAEFE793
:10B7A00037BD000000E100E018ED00E000E400E03B
:10B7B000FC06FFBD3421002064D2020070D20200DA
:10B7C000D6210020D8210020C4D30200B1BB020042
:10B7D000D72100207CD2020080B5FFF7CCFF01BD4D
:10B7E000806870470100002901D10E2003E0A748BE
:10B7F00000680860002070472DE9FE4306000F0036
:10B800003800FFF7EFFF0500002D01D02800B7E05A
:10B810005FF00C085FF000096C464A464146200084
:10B82000FCF734F88DF8006001208DF80200062046
:10B83000ADF804003A686946202069DF0400002C56
:10B840000DD0200000F022FA020091499148924B5D
:10B85000C01AC008000450F00100FAF7DDFE5FF0E6
:10B860000C085FF000096D464A4641462800FCF787
:10B870000DF800208DF8010000208DF80200002056
:10B880008DF803003A686946402069DF0500002D05
:10B890000DD0280000F0FAF9020080497D487E4B67
:10B8A000C01AC008000450F00100FAF7B5FE5FF0BE
:10B8B0000C085FF000096C464A4641462000FBF741
:10B8C000E5FF00208DF800003A686946012069DF35
:10B8D0000400002C0DD0200000F0D8F902007049BF
:10B8E0006C486D4BC01AC008000450F00100FAF714
:10B8F00093FE5FF00C085FF000096D464A46414632
:10B900002800FBF7C3FFF82000903A686946A120A1
:10B9100069DF0500002D0DD0280000F0B7F9020006
:10B9200060495C485C4BC01AC008000450F001003C
:10B93000FAF772FE5FF00C085FF000096C464A46A9
:10B9400041462000FBF7A2FF9DF8000010F0FE002A
:10B950008DF800003A686946A02069DF0400002CD9
:10B960000DD0200000F092F902004F4949484A4B9F
:10B97000C01AC008000450F00100FAF74DFE002084
:10B98000BDE8FE83494800684FF48061484310F1E8
:10B99000005070472DE9F04105002E68280060DF57
:10B9A00004002868864226D23B4FDFF8E8804049F1
:10B9B000B8EB0700C008000450F00200FAF722FEBE
:10B9C0002B6832003B49B8EB0700C008000450F078
:10B9D0000200FAF72DFEFFF7D5FF02002868121AC1
:10B9E0003549B8EB0707FF083F0457F00207380056
:10B9F000FAF712FE01E02868B042002C03D10120C2
:10BA00002E4908700DE0200000F040F902002C499A
:10BA10002048214BC01AC008000450F00100FAF77A
:10BA2000FBFD2000BDE8F0812DE9F84191B0050053
:10BA300022480078002825D03420ADF8000069465F
:10BA400004A861DF0400002C02D0052C17D119E0F6
:10BA500004AE1C4901A800F0F8F801A8FFF7C0FEE9
:10BA60000028E9D001A8FFF7BBFE0700D7F8008047
:10BA700079683000C04701A800F0F1F8EDE7200038
:10BA8000FFF76EFD12B0BDE8F0810000C8D30200E0
:10BA9000CCC90200F8C70200C8C7020034C90200BE
:10BAA00080C9020038C802008CC802000C010010D6
:10BAB00078CA020014CA0200A8CA0200D9210020D4
:10BAC000D8CC020094D202000121C26851717047A3
:10BAD00070B55FF0FF3400F065F9054E04213000C9
