:020000040002F8
:10600000C86A0020C11D03009B7402006F78020063
:106010000F7902003F7902007B7A02000000000045
:10602000000000000000000000000000B77A02003D
:10603000DB7A020000000000BF7B0200077E020046
:1060400053050300537E0200CDF20200BF7F020021
:106050003F8A0200639A0200B5A402008B9C0200F2
:106060002F9D0200DBBD0200DBD402002FD702000F
:1060700057EB0200CBF202003BF302003BF60200BA
:106080008FF6020079EF02001FF902005F0C030097
:10609000070E0300DD170300ADC4020063190300FF
:1060A00073190300A31B03001F2003006D200300CE
:1060B0006F200300712003000000000000000000BA
:1060C000732003007520030077200300792003006C
:1060D0007B2003007D2003007F20030000000000E0
:1060E00000000000000000000000000000000000B0
:1060F00000000000000000000000000000000000A0
:10610000000000000000000000000000000000008F
:10611000000000000000000000000000000000007F
:10612000000000000000000000000000000000006F
:10613000000000000000000000000000000000005F
:10614000000000000000000000000000000000004F
:10615000000000000000000000000000000000003F
:10616000000000000000000000000000000000002F
:10617000000000000000000000000000000000001F
:10618000000000000000000000000000000000000F
:1061900000000000000000000000000000000000FF
:1061A00000000000000000000000000000000000EF
:1061B00000000000000000000000000000000000DF
:1061C00000000000000000000000000000000000CF
:1061D00000000000000000000000000000000000BF
:1061E00000000000000000000000000000000000AF
:1061F000000000000000000000000000000000009F
:106200002DE9F04F0FF2A41CA1B0DCE90089CDE923
:1062100000892A9DDFF8109C049100248DF84350DA
:106220000D944FF0FF38824616461F460FE0B346E6
:106230002C461BF8011B0498D0470028049000F05E
:10624000A2800D98401C641E0D90F2D17619307812
:10625000252808D1002100220791089209910A926D
:106260000B910C920DE06A464146304601F013F85E
:10627000050001D10D98A1E0D9D50125E6E741F04F
:10628000010116F8010F2028F9D023280CD02B2863
:1062900004D02D2805D0302809D076E041F0020145
:1062A000EFE741F00401ECE741F00801E9E741F0D4
:1062B0001001E6E70F9209E00F98484505DA00EB78
:1062C000800402EB4402303A0F92761C3278A2F13D
:1062D00030000A28F0D330782E2818BFCDF8388047
:1062E00022D116F8010F2A2807D138683860761CA9
:1062F00050F8042B38600E9216E02D280CBF761C47
:10630000002000220E920AE040B90E9A4A4505DAB2
:1063100002EB820403EB4403303B0E93761C33788C
:10632000A3F130020A2AEFD3ADF8401021A0317852
:1063300000F0BCFF08B116F8010B8DF842009DF883
:106340004200682804D1307868280AD1622105E02B
:106350006C2804BF30786C2803D171218DF842106D
:10636000761C12A806903A4616F8013B02A9504640
:1063700000F064F838B912AA02A9504600F0CAF930
:1063800000287FF564AF404618E02A2892D13A6889
:106390003A6052F8040B3A6000280F9003D540424F
:1063A0000F9041F00401761C95E70000000000000A
:1063B00000000000686A6C747A4C000021B0BDE8EF
:1063C000F08F622820D0682811D06A2803D06C286A
:1063D00027D0712825D10868C01D20F0070008606B
:1063E000D0E9002308300860194610467047002A9B
:1063F0000A680A60106803D0121D0A6000B217E034
:10640000121D0A6080B217E0002A0A680A6010684C
:1064100003D0121D0A6040B20AE0121D0A60C0B229
:106420000AE0002A0A680A60106803D0121D0A6098
:10643000C1177047121D0A60002170477CB50D46D8
:1064400011461C462E69B4F1250200F051811C3A18
:1064500000F08680121F022A40F282800E3A00F07D
:106460000B81521F5AD0093A7AD0921E16D0521E72
:1064700035D0521E022A73D9121F30D0521F00F09D
:106480009A80521E4AD0521E00F0E480D21E00F0C4
:106490000181921E42D0D21E40D02FE195F83A40A1
:1064A0006C2C09D06869421C6A610A680A6052F85B
:1064B000043B0A6033542BE10A680A6052F8043B3B
:1064C0000A600093002201924FF0FF332B636A466B
:1064D000294600F09AF9002840F11A8105E195F863
:1064E0003A000122FFF76DFFC5E900010023994240
:1064F00004DA6869411C69612D220DE0288F81074B
:1065000004D56869411C69612B2205E0C00722D5CA
:106510006869411C6961202232541CE095F83A00F8
:106520000022FFF74EFFC5E9000195F8380001078A
:1065300011D5D5E900230020834208BF82420AD04A
:1065400044F02000782806D1686930213154401C7D
:10655000421C6A613454214668693044E86087E02F
:106560000868C01D20F007000860D0E9002308304B
:106570000860C5E90023D5E90001C80F04D06869A7
:10658000411C69612D220DE0288F810704D56869BF
:10659000411C69612B2205E0C00704D56869411CD4
:1065A00069612022325468693044E86021462846F7
:1065B00000F03AFAACE005F13A02507820B14FF021
:1065C000FF340FF6343074E01078622808D0682861
:1065D00024D06A2812D06C282ED071280ED02BE03F
:1065E0000A680A6052F8040B0A6020B94FF0FF34C1
:1065F0000FF61C305DE0E96A017089E00A680A6004
:1066000052F8040B0A6020B94FF0FF340FF6003047
:106610004FE0EA6AD317C0E9002379E00A680A600C
:1066200052F8040B0A6020B94FF0FF340FF6E02057
:106630003FE0E96A01806BE00A680A6052F8040BE7
:106640000A6020B94FF0FF340FF6C42031E0E96A48
:1066500001605DE00A680A6052F8040B0A600021DC
:1066600020F0000221F0FF33C5E90023EE6078211D
:10667000284600F02DF94BE06C2285F83A200B6893
:106680000B6053F8042B0B6052BB4FF0FF340FF636
:10669000B4200EE095F83A206C2AF0D00868086023
:1066A00050F8044B0860EC603CB94FF0FF340FF633
:1066B000782000F023FE201A76BD2E6B002E04D524
:1066C000204600F03BFE044608E03246002120460A
:1066D00000F05EFE002814BF041B3446AC6117E0D6
:1066E000294600F092F8002812D54FF0FF3076BD11
:1066F0006869411C69612522325409E06969481CB6
:10670000686125227254210002D0431C6B6134540D
:10671000002076BD2DE9F0410E4605469046726B8D
:106720007069316AB46A121AB069521A716A121A1F
:10673000F069521A121A96F83800141B41070DD44A
:10674000002C0BDD2746B0682021A8470028B06048
:1067500057D0F06A401C7F1EF062F4D17369424644
:106760003146284600F0B0FC00284AD1376A002F95
:106770000ADDB0683021A8470028B06041D0F06A37
:10678000401C7F1EF062F4D1B369F268314628469E
:1067900000F09AFCA8BB776A002F09DDB0683021B1
:1067A000A847B06068B3F06A401C7F1EF062F5D164
:1067B000F068B169F36942183146284600F084FC5C
:1067C000F8B9B76A002F09DDB0683021A847B0607A
:1067D000B8B1F06A401C7F1EF062F5D196F838001F
:1067E00041070BD5002C09DDB0682021A847B06017
:1067F00038B1F06A401C641EF062F5D10020BDE89B
:10680000F0814FF0FF30BDE8F0812DE9F8470D46EB
:10681000A3B02F6B002F0646904648BF6FF000478D
:106820000FF63C1400F0E0FDD4E90023696B40183A
:10683000CDE90123812828BF4FF0FF3042D2002448
:10684000002F33DDD8F8001001AA684600F025FDBE
:106850008146B9F1000F38D4D8F8000010B9B9F169
:10686000010932D44F4521DB6869484481280AD3A5
:106870000021696303AA29463046FFF74BFF040055
:1068800014D40020686103ABD5F814A04A466946C9
:1068900003EB0A0000F0AEFDCA44C5F814A058F896
:1068A000040B002818BFA7EB0907C9D14CB903AAEC
:1068B00029463046FFF72EFF044614B900206861D0
:1068C0006863204624B0BDE8F0874FF0FF34F8E756
:1068D0002DE9FC4707468C463E69BCF16F0F08BFA7
:1068E000082405D04CF02000782814BF0A24102476
:1068F0003C25D7E90023BCF1640F18BFBCF1690F38
:106900009046994606D100218B4203DAD8F100085F
:1069100069EB49094FF0000AD14508BFD0451FD1A6
:10692000386BE8B9082C4BD197F83800010747D5E8
:1069300030203B2586F83B0042E000280ED597F832
:10694000380000F01400102808D17B6B7969386A90
:106950005B1A1B1A9A1A002AC8BF3A62BDE8F3876D
:106960008DF800C0404649462246E31700F096FDE8
:106970003032D0B26D1E3A28019504DB9DF800003C
:10698000A0F151018A187255404649462246E31744
:1069900000F084FD89468046D14508BFD04503D02C
:1069A000F86871198842DDD3082C09D197F83800AE
:1069B000010705D5705D302802D06D1E302070555E
:1069C000C5F13C02BA617119F960386B8242B4DAE0
:1069D000821A3A624FF6EF70398F01403987BDE86D
:1069E000F3872DE9D04306460F4614464FF00008C2
:1069F000DFF8389412E0E00707D542464B463046B0
:106A0000394600F063FE06460F4640464946424678
:106A10004B4600F05BFE641080468946002CEAD1AC
:106A200030463946BDE8D0832DE9F34F054641F0A5
:106A300020048DB0D5E90089612C02AE09D0286B05
:106A4000002848BF062003D408BF672C01D10120CD
:106A50002863D5E9002358004015401C0ED11903C6
:106A60000CD00320A8619DF8381061391A2902D290
:106A70000FF2F46111E00FF2F4610EE059004915D4
:106A8000491C0FD118030DD10320A8619DF83810BF
:106A900061391A2914D30FF2DC61E868032200F08F
:106AA000A9FCD3E1194621F00043B3F5801F10463D
:106AB0000DD20027BB4208BFBA42019703D111E0B3
:106AC0000FF2AC61E9E701AA00F0D2FE0AE0DFF8BC
:106AD000607307EB1352DFF85C3301921940DFF863
:106AE00058331943C5E90001612C0ED1E868302103
:106AF0000170821CEA609DF8381061290CBF782172
:106B0000582141706869801C6861D5E900AB2BF0A1
:106B1000004300202AF00002834204BF8242002387
:106B200000F05B81612C40F0AA80286B002847BFF1
:106B300021210091401C0090009F7F1C4046494647
:106B40000022002300F0CCFED94601998DF80820E0
:106B500038BF89F00049091F002FD04601910DF17F
:106B6000090040F34981B349DFF8D0B20C910646E1
:106B7000404649460022002300F0CAFE80F03B81D7
:106B80004800400D00F11C0211D0002A0FDD40F238
:106B9000FF70824205DB09F0004040EA0B01002053
:106BA00013E00C98014041EA025140460DE029F003
:106BB0000043002028F00002834208BF82420FBF3A
:106BC00040461C22404600F0BBFE8046894600F04D
:106BD00055FFFF1F002F044609DD00F06DFF024640
:106BE0000B464046494600F079FF80468946F01D35
:106BF000072104E004F00F0200F8012D2411002CFD
:106C000001DD491EF6D5491E5CBF002200F8012DAA
:106C1000F9D5ECE00020194602AA0A4400E05B1E08
:106C200012F80149491E8442F9D00F2804D10DF110
:106C30000900425C521C4254002904D50198001DF1
:106C400002AE5B1C0190591E12D49DF838007218D8
:106C5000A0F13A07147804F130085FFA88F43A2C6E
:106C6000A8BFB844491E02F80189F3D58DF8380051
:106C7000286B002840F1B080591E2963ACE04046E3
:106C800049460022002300F02BFE019938BF89F00D
:106C9000004947F297504143694A91FBF2F2019251
:106CA000D2F1070204DD40464946FFF79AFE0AE0AA
:106CB000524200206349FFF794FE02460B464046CD
:106CC000494600F07DFF8046662C286BDFF878B1DE
:106CD00006BF019F0A3706273F18142FC8BF142785
:106CE00030208DF8080089460DF1090000E030469B
:106CF000002F34DD06464046494601F085F801463E
:106D00000A4606F1080304200A26B2FBF6F606EB53
:106D1000860EA2EB4E02303203F8012C0A22B6FB9B
:106D2000F2F202EB820EA6EB4E063036401E03F85E
:106D3000026DE9D1083F002F03F10806D7DD0846B0
:106D400001F076F802460B464046494600F0C6FE82
:106D500000225B4600F0BAFC80468946CBE70DF185
:106D60000901401A0DF1090604E00199491E401E6F
:106D70000191761C31783029F7D0662C02D1019927
:106D8000491C03E0652C0CBF012100212B6BCB18A3
:106D90009842B8BF431E002B1ED4834204DAF05C35
:106DA0003528A8BF392000DA30201946721E02EBC0
:106DB000010800E05B1E18F80199491E8145F9D0D1
:106DC000392802D1705C401C7054002904D5019808
:106DD000401C16465B1C0190019800B200901BB24B
:106DE0009DF838103246284600F034F82EE0C61DD3
:106DF000002F3FF7BDAE30460DF10901401A009952
:106E000003468842C8BF0B46002B0DF109063FF52B
:106E10002FAF8342BFF6FEAE0DF10900C15C07291A
:106E20007FF7F8AE0F20F6E6CBCCCC0C0000244068
:106E300002FCFFFFFFFF0F800000E03F0000F07F3B
:106E4000A08601000000F03F84D797410FB0BDE855
:106E5000F08F00002DE9F84783B006468A461746B2
:106E6000984600F01CFAB8F1000F406A356B90F8B4
:106E7000009002DC4FF00108BFA74AF02000BDF9E6
:106E80003040662808BF641C15D0672840F0848015
:106E900014F1040FC0F28680AC4280F2838096F831
:106EA0003800641C010702D4A845B8BF454620B28B
:106EB0002D1A48BF00250FFA84FAF068B169BAF1BB
:106EC000000F25DC4A1C30234354002D03DC96F8C8
:106ED0003800010703D5F06800F80290521C15EB4A
:106EE0000A0FB8BF6C4220B2441941424445B8BFB2
:106EF000A046B26171620FFA88F5F561F068B36976
:106F00002A463946184400F075FA641BB462C4E09E
:106F100022B29045084417DA4246394600F06AFA30
:106F2000B0694044B061AAEB0801002D716203DC36
:106F300096F838100A0705D5F16801F80090F06955
:106F4000401CF061B562A8E0394600F053FAB06920
:106F5000002D5044A8EB040803DC96F838100A070B
:106F600003D5F16801F80090401CB0610FFA88F079
:106F70008542F368B069B8BFA8460FFA88F207EBFC
:106F80000A01184400F036FAB1690FFA88F001449A
:106F9000B161281A706280E0BAF1610F14D14FF02C
:106FA000700A16E0A84504DA96F838100A0758BFA8
:106FB00045466D1E48BF0025BAF1670F14BF4FF05C
:106FC000450A4FF0650A04E0BAF1410F08BF4FF0DF
:106FD000500AB169F368481CB061002D17F8012B05
:106FE0005A5403DC96F838100A071BD5F168431C85
:106FF000B36101F80090002D14DDA8F101080FFA2B
:1070000088F039468542F768B8BFA8460FFA88F27B
:10701000F81800F0EFF9B0690FFA88F108446D1A1A
:10702000B0617562F068B1690844002C80F800A076
:1070300003D42B224270811C03E02D214170644255
:10704000811C00206A460AE023460A2493FBF4F4DC
:1070500004EB8405A3EB450302F8013B401C24B27A
:10706000002CF1DC012806DC4AF02002652A04BF6E
:10707000302201F8012B48B9302001F8010B07E05C
:10708000401E1DF80030303301F8013B0028F7DCCA
:10709000F268B0691044091AF16196F8380000F0FE
:1070A000140010280DD17269B169706A8A18F169EB
:1070B0008218B06A8A188218706B8242BCBF821A2A
:1070C000326204B0BDE8F087F8B505460E461746B3
:1070D0001C46002074B117F8011BB068A847B060C7
:1070E00030B1F06A401CF0620020641EF3D1F2BDA2
:1070F0004FF0FF30F2BD00007072696E74665F730E
:107100003A20256E20646973616C6C6F776564004A
:107110007072696E74663A2062616420256E206127
:107120007267756D656E74007072696E74665F73F8
:107130003A2062616420257320617267756D656E07
:10714000740000007072696E74665F733A20626149
:107150006420256C7320617267756D656E74000024
:1071600000000000000000006E616E004E414E0005
:10717000696E6600494E46003000F0B40246106861
:1071800095681318506803EB5004C0071DD54D4493
:107190001BE013F8017B05F8017B491EF9D1A0B172
:1071A000B60813F8011B06F00306032E08BF13F8F8
:1071B000016B01EB06214942801C294405D011F8DE
:1071C000016B05F8016B401EF9D1A3420ED013F8F4
:1071D000016B16F0030104BF13F8011BC91C300931
:1071E0000F28DAD113F8010B0F30D6E7F0BC02F10B
:1071F0000C007047613807E005E0A0F161011A2931
:1072000001D20120704741381A288041C00F7047D1
:10721000A0F121010F290AD3A0F13A02062A06D9CA
:10722000A0F15B01062902D37B380428EDE7012099
:1072300070471C48704770B45368D418042B09DA9F
:1072400041B1057804F8015B10F8016B16B15B1CC5
:10725000491EF3E7536070BC704738B514461D46AD
:1072600061B1FFF7E8FF61686A6B204690476FF0F5
:107270000102811A02D0491E01D001E003E005E0BD
:107280000021616032BD6FF0010032BD4FF0FF3070
:1072900032BDDA6B1047034BDFE7024BF9E70248D8
:1072A00070470000E4380020AC3800200278C9B2F2
:1072B0008A421AB11CBF10F8012FF9E718BF00204D
:1072C000704730B4002513E050F8042BD30744BFB7
:1072D000A9F101039A18091F042942F8045BFAD2A4
:1072E00013468C0744BF15809B1CC90748BF1D70FF
:1072F00050F8041B0029E7D130BC704780B500B9B5
:1073000006A005490B681BB122220021984701E025
:1073100000F09BFD222002BDA84A0020636F6E731F
:10732000747261696E742068616E646C65723A2073
:10733000626164206D6573736167650000F101032C
:10734000810704D010F8011B820781B1FAD10268CD
:10735000A2F10131914311F0803104BF50F8042FA4
:10736000F6E709BAB1FA81F100EBD100401CC01A6E
:107370007047B1F5807F02D34FF0FF307047017046
:10738000012070470078401E8041C043C00F704705
:10739000C9B2830706D0521E22D310F8013B99428E
:1073A000F7D11FE0083A13D302F1040241EA0121A8
:1073B00041EA014150F8043B121F21BF4B40A3F1A9
:1073C000013C2CEA030C1CF0803FF3D0C9B2001F33
:1073D000083210F8013B521E28BF91EA030FF8D87B
:1073E00018BF0120401E704780B5FFF722FF006CD8
:1073F00002BD000062B38B0708D0521E11F8013B9A
:1074000000F8013B00F024808B07F6D1830740F0A1
:10741000208000BF103A07D330B4B1E83810103ADA
:10742000A0E83810F9D230BC530724BFB1E80810E7
:10743000A0E8081044BF51F8043B40F8043BD207D1
:1074400024BF31F8022B20F8022B44BF0B780370C5
:107450007047121F17D35B0009D151F8043B20F885
:10746000023B1B0C121F20F8023BF6D20BE051F836
:10747000043B00F8013B1B0A20F8023B1B0C121FC7
:1074800000F8013BF3D238BF121D521E24BF11F881
:10749000013B00F8013BF8D87047FEE7BBBBE1B108
:1074A000B2F5803F80F07E80022A1ED98C46B1FB67
:1074B000F2F102FB11C31B0443EA1043B3FBF2FCDD
:1074C00002FB1C3380B240EA0343B3FBF2F002FB41
:1074D000103240EA0C4000237047022A05D9844646
:1074E000B0FBF2F002FB10C270474AB105D100F0C8
:1074F000010249085FEA300070470022002370470C
:1075000000F0A6BC0B000200002100207047904252
:1075100071EB030CF6D3B3F5803F2FD2F0B5B3FA7D
:1075200083F7B1FA81F4A7F10F0E3D1B5340CEF162
:10753000200602FA0EF2F3415340B5F10F0746D888
:107540000F3C2C444140C4F12006A040F141414091
:10755000B1FBF3F603FB1611A2FB0645001BA94184
:1075600002D2761E8018594180EA010221FA0EF3F8
:1075700062FA0EF200215A403046F0BD30B4B1FB41
:10758000F3FC03FB1C11A2FB0C45001BA94103D219
:10759000ACF1010C8018594130BC02460B466046E4
:1075A00000217047B2F1807F65D3F0B5B2FA82F75F
:1075B000B1FA81F4C7F10F063D1B22FA06F307F179
:1075C000110EF24120355A40B5F10F07B8D94140AC
:1075D000C4F12006A040F1414140B1FBF3FC03FBA4
:1075E0001C11A2FB0C45001BA94103D2BCF1010CEC
:1075F000801859410F2F12D30F3FC90341EA504160
:10760000B1FBF3F603FB1611A2FB0645D4EBC03029
:10761000A94102D2761E8018594146EACC3C07B3F4
:107620004140C7F12006B840F1414140B1FBF3F6BB
:1076300003FB1611A2FB0645001BA94102D2761ED0
:107640008018594180EA010221FA0EF3C7F12004A3
:1076500062FA0EF20CFA07F05A402CFA04F13043A9
:10766000F0BD80EA010221FA0EF3002162FA0EF267
:1076700060465A40F0BD8C46B1FBF2F102FB11C3EB
:107680001B0243EA1063B3FBF2FC02FB1C331B0238
:107690004CEA002043EA1063B3FBF2FC02FB1C330C
:1076A0001B024CEA002043EA1063B3FBF2FC02FB2E
:1076B0001C331B024CEA002043EA1063B3FBF2FCCC
:1076C00002FB1C324CEA002000237047B0B581EA6F
:1076D000030C0CF0004C40F2FF7515EA11541DBF6D
:1076E00015EA1357AC42AF4239E0E41923EA455397
:1076F00043F48013C90241F0004141EA505EC702E1
:107700001100A7FB020200284FF00000EEFB012051
:107710004FF00001E3FB072118BF42F001024018BF
:1077200000214941E3FB0E01A4F580640F0302D25E
:1077300052004041494154F101046CDD470872F1A7
:10774000004250F1000051EB0451A1F580115CBFE3
:1077500041EA0C01B0BD4CEA05510020B0BD05EA7C
:107760001357AC4214BFAF4241E050EA410E1CBF78
:1077700052EA430E02E061460020B0BD24423C4480
:107780001BD15FEA070EF6D0090302BF01460020B5
:10779000AEF1140EB1FA81F7AEEB070401FA07FE61
:1077A0000C37C7F1200100FA07F7C8404EEA000E77
:1077B00023EA455343F48013A2E733F00043B3FABE
:1077C00083F704BFB2FA82FE77440B3FE41BB7F1A4
:1077D000200E2FBF02FA0EF3BB40C7F1200E22FA93
:1077E0000EFE38BF43EA0E03BA40641C82E750EA3B
:1077F000410E14BF52EA430E6FF000014FF4001720
:1078000017EB430F8ABF194617EB410FB5E74CEA58
:1078100005510020B0BDD4F10104B4F120070FDA06
:10782000C4F12007520828BF42F0010210FA07F500
:1078300001FA07F7E1BF2A43E0403843E1400FE097
:10784000352C98DCC7F1200452EA400220FA07F2F6
:1078500018BF42F0010231FA07F0A1400A430021AB
:1078600072F1004250F1000051EB0C01B0BDFEE797
:1078700010B5144600F002F8226010BDC1F30A539F
:1078800043B14A0012F5001F28D2A3F2FE32A1EB49
:107890000251704750EA410C20D001F0004C31EA0F
:1078A0000C01B1FA81F204BFB0FA80F3D2180B3A9E
:1078B000B2F120032CBF00FA03F1914041EA0C0120
:1078C0003EBFC2F1200C20FA0CF319439040524203
:1078D00040F2FD33D21A01EB03517047002270478A
:1078E0004FF4001C1CEB410F94BF1CEB430F09E04D
:1078F00041EA030C50EA4C0C52EA0C0C03D29942B8
:1079000008BF9042704714BF8B4282427047FEE727
:107910004FF4001C1CEB410F94BF1CEB430F09E01C
:1079200041EA030C50EA4C0C52EA0C0C03D28B4295
:1079300008BF8242704714BF994290427047FEE7E9
:10794000124254D440F2FF7C1CEA11530FD063451D
:1079500031D09B1863453CBF01EB0251704701F0E9
:10796000004141EA0C510020AFF30080704750EA1B
:10797000410320D001F0004C91EA0C011CD0B1FA77
:1079800081F30B3B9A420DD9D21A994051EA0C016E
:10799000C3F1200C20FA0CFC61449840531C40F2C7
:1079A000FF7CD7E7914041EA0C01C2F1200C20FA9C
:1079B0000CF3194390407047B0FA80F31533202B35
:1079C000E0D3202AEED3203A203B9A4209D9D21A9A
:1079D00000FA03F141EA0C010020531C40F2FF7C45
:1079E000B8E700FA02F141EA0C0100207047524268
:1079F00040F2FF7C1CEA11530DD06345DBD0B2EBA3
:107A0000030C3CBFA1EB025170470CF1010221EACB
:107A1000035141F4801150EA410CCCD001F0004CEC
:107A2000352A27DC30B481EA0C01B2F1200309DAEF
:107A3000C2F12003044601FA03F5D0402843D140A7
:107A40009C400CE0C3F12002450020FA03F418BF6B
:107A500044F0010421FA03F091400C43002174F139
:107A6000004550F1000051EB0C01244230BC7FF482
:107A70007BAF70476146002076E7FEE7C1F30A530B
:107A800040F2FE329B1A14DDD3F120034FEAE1727B
:107A900008DDC90241EA505141F00040D840801849
:107AA0005040704703F2E13010B1D24382F0004001
:107AB000704700207047FEE7C11768B14840401A80
:107AC000B0FA80F29040D21CC907C2F5846241EA44
:107AD000025202EBD02140057047FEE770B44FF030
:107AE000004591EA030F40F1B5816B40841A71EBB8
:107AF000030603D2001BB141121973414FF4001C5D
:107B00001CEB410F34BF7CEB430442E00C0DA4EBB3
:107B10001356352E4FDC45EAC323DB0A45EAC12163
:107B2000C912B6F120050DDD63FA05F6EB4086EAD1
:107B30000305124218BF45F00105C01851F10001BC
:107B40000CD213E062FA06F5F2405540F3415A4078
:107B5000B340F3405A408018594107D349085FEABF
:107B600030005FEA350528BF45F0010501F58011B9
:107B7000420875F1004250F1000041EB04514E0003
:107B800016F5001F70BC38BF70470020090D0905AD
:107B900070471CEB410F10D252EA43060BD0BCEBEE
:107BA000410F05D80C0DAB43661E342EB6DD02E046
:107BB000AB438018594170BC704770BC7047FEE7FA
:107BC000F0B540F2FF7581EA030C0CF0004C15EAA9
:107BD00011541DBF15EA1357AC42AF42E5E0BC415A
:107BE000C1F31301C3F31303801A994143F48013C3
:107BF00004D2641E4000494180185941C90241EA3B
:107C00005051B1FBF3F603FB1611A2FB0675D7EB3F
:107C1000C020A94102D2761E80185941C90241EA0A
:107C20005051B1FBF3FE03FB1E11A2FB0E75D7EB07
:107C3000C020A94103D2AEF1010E8018594189023A
:107C400041EA9051760546EA8E2EB1FBF3F603FB2E
:107C50001611A2FB0675D7EB8020A94102D2761E31
:107C600080185941C90241EA50514EEA060EB1FB53
:107C7000F3F603FB1611A2FB0675D7EBC020A94152
:107C800002D2761E80185941C90241EA5051B1FB17
:107C9000F3F703FB1711A2FB0735D3EBC020A94173
:107CA00067F100070CBF004247F0010766F3D527D4
:107CB0004FEA1E31B80814F5806412DDBD0775F176
:107CC000004250EB0E5051EB045111F5801F5CBF88
:107CD00041EA0C01F0BD4CF07F6141F0E041002031
:107CE000F0BDBD076D0840EA0E5041F48011D4F19B
:107CF0000104B4F120060ADAC4F120060200E040D3
:107D000001FA06F3E1401843B24015430EE0342C6B
:107D100013DCC6F1200445EA40056D0820FA06F29E
:107D2000154321FA06F0A1400D43002175F10042F0
:107D300050F1000051EB0C01F0BD00205FEA0C0196
:107D4000F0BDCFB992185B41B3FA83F704BFB2FA22
:107D500082F6BF190B3FB7F120062FBF02FA06F3D8
:107D6000BB40C7F1200622FA06F638BF3343BA40BB
:107D70001CB1E419641E33E77F4231F00041B1FACF
:107D800081F404BFB0FA80F6A4190B3CB4F12006CC
:107D90002FBF00FA06F1A140C4F1200620FA06F632
:107DA00038BF3143A0403C1B1AE7AC421ABF05EA7A
:107DB0001357AF4212E050EA41061CBF52EA430695
:107DC000BFE750EA4107304661461CBF41EA055112
:107DD000F0BD52EA430C08BFC143F0BD00204FF490
:107DE000001616EB410F98BF16EB430F08BF16EBBA
:107DF000410F24BFC14305E016EB430F0CBF6146A2
:107E00004CEA0551F0BDFEE7400D491840EA8120DB
:107E10000CD2490DA1F58061491C40F0004005DB02
:107E2000D1F11F0154BFC840C017704700207047F0
:107E3000014648B1B0FA80F18840C91CC1F584619F
:107E4000090501EBD02140057047012000F0B8B8CA
:107E50007047FEE7841A71EB030604D26E40001BE4
:107E6000B141121973414FF4001C1CEB410F34BF98
:107E70007CEB430683E00C0DA4EB1356362E00F387
:107E80007C80012E45EAC32341DC43EA525312BFF2
:107E9000D20292025B08240545EAC12141EA505111
:107EA000D2EBC020994125D407D1B0FA80F610FA60
:107EB00006F162D00020203608E0B1FA81F6B14028
:107EC000C6F1200220FA02F21143B0404FEAF474E6
:107ED000B4EB465434F001064FEA74040AD8D6F5E0
:107EE0000016760D04F00044F04061FA06F25040AE
:107EF000F1404840C00A40EA415021F0004128BF0B
:107F00005FEA500550F1000044EBD12135E0DB0A77
:107F100045EAC121C90AB6F120050EDD42EA024256
:107F2000120CC5F1200603FA06F6EB4042EA0605FC
:107F30006D42984161F100010DE062FA06F5F240F0
:107F4000554063FA06FC82EA0C02F3405A406D4247
:107F5000904161EB030111F4801F05D1641E62059D
:107F600002D06D004041494121F48011430875F170
:107F7000004350F1000041EB045170BC70471CEB12
:107F8000410F15D223F0004352EA43060BD04FEACB
:107F90004C0CBCEB410F04D80C0D661E342EB7DD23
:107FA000EBE7801A994150EA410608BF0021E4E757
:107FB00008BF1CEB430F28BF6FF00001DDE7FEE7B1
:107FC0002021090326311820ABBEF9E710B40100C7
:107FD0000022DFF8D0090068824212D2DFF8C80917
:107FE00000EB82039B788C78A34208D130F8220002
:107FF0000B88984203D1DFF8B409006802E0521CF4
:10800000E7E7002010BC704738B504000D002000E1
:10801000FFF7DCFF002801D0002010E0DFF8840922
:10802000016806290AD22168DFF87C29036842F832
:1080300023100168491C0160002000E0042032BDCB
:1080400038B504000025DFF85C09006885420ED2CF
:10805000802000FB05F0204410F53470802101FBE6
:1080600005F12144D1F84C1388476D1CEBE7002043
:10807000C4F8CC0231BD2DE9F8419FB004000D00D9
:108080007C260027E8463A003100404600F0A4FC78
:10809000ADF8025003208DF800000194DFF80C19B0
:1080A0000868002802D068460968884720B0BDE803
:1080B000F0812DE9F8419FB004000D00160094F8FE
:1080C000C6127620414304EB01084046FFF77EFFCD
:1080D0000700380000280AD06846DFF8D4187C2250
:1080E000FFF798F9ADF8026001956846B84720B0EF
:1080F000BDE8F081F8B504000D0016002F00002047
:1081000087F8C802320092B221003800FFF7D1FF91
:10811000310089B23800FFF7AEFFF1BD2DE9F04123
:1081200004000D00160094F8C6127620414304EBBB
:1081300001073800FFF74AFF80464046002845D037
:10814000D4F8CC02062841D2D4F8CC128020414386
:1081500004EB0100A0F8D262D4F8CC128020414395
:1081600004EB010010F5357039007622FFF742F973
:108170002800C0B2002809D0D4F8CC128020414396
:1081800004EB0100002180F8D01208E0D4F8CC12F2
:108190008020414304EB0100022180F8D012D4F882
:1081A000CC128020414304EB0100C0F84C83D4F88A
:1081B000CC02401CC4F8CC02D4F8CC02DFF8E4179F
:1081C0000968884202D12000FFF73AFFBDE8F0813C
:1081D0002DE9F04188B005000E0020240027E84674
:1081E0003A002100404600F0F7FB95F8C702401C1A
:1081F00085F8C70295F8C702DFF8A8170968884212
:1082000035D2002085F8C50295F8C602401C85F8D5
:10821000C60295F8C6127620414305EB0107DFF848
:10822000880795F8C61250F8210038600020387190
:1082300002208DF800000120ADF810003868CDF85C
:1082400012000395DFF86C070290320092B2694683
:10825000DFF86407006800F0BEFD0400002C0ED0BB
:10826000320092B229002000FFF744FF07E000200F
:1082700085F8C802310089B22800FFF7FCFE08B07B
:10828000BDE8F08110B402000B8992F8C642762056
:10829000444302EB04000089834201D2012000E044
:1082A000002010BC704770B40400002A16D176205C
:1082B0000D8994F8C662464326443689B54201D1F9
:1082C000002019E00D896D1C1D8094F8C65200FB3A
:1082D00005F020440089588001200DE00889401CE9
:1082E000D588A84201D1002006E00889401C1880EA
:1082F000D088401E5880012070BC70472DE9F84797
:1083000089B004000D0020275FF0000801AE42464E
:108310003900300000F060FB5FF004095FF0000AF4
:108320006E4652464946300000F056FB762194F8DE
:10833000C602484304EB000694F8C502002815D095
:1083400094F8C502421E94F8C60201FB00F104EB4A
:10835000010006001100C9B21220414306EB0100E2
:108360000A300089401CADF8000002E0F088ADF84A
:1083700000003089ADF8020003208DF80400009859
:1083800005900494DFF82C0603902A0092B201A90C
:10839000DFF82406006800F01EFD0AB0BDE8F08793
:1083A0002DE9F64F89B004000D0000265FF020098A
:1083B0005FF0000A01AF52464946380000F00CFB5E
:1083C00094F8C6127620414304EB01075FF0120BCC
:1083D00094F8C5020BFB00F0384410F10A0894F839
:1083E000C502401C3979884207D16B4600224146BC
:1083F0002000FFF758FF06002AE094F8C5A2504677
:108400003979C0B2884223D25046C0B23979491E68
:10841000884202D10020814606E05046C0B20BFBE4
:1084200000F038441C3081466B464A4641462000E5
:10843000FFF739FF002802D00120060008E0C846F7
:1084400094F8C502401C84F8C5021AF1010AD6E767
:108450003000C0B2002803D101202870002012E0B3
:108460000020287004208DF80400009805900494E2
:10847000DFF840050390BDF8282001A9DFF8380592
:10848000006800F0A8FC0BB0BDE8F08F2DE9F84FB4
:1084900005000E0095F8C6127620414305EB010752
:1084A0003088B5F8CA1288424BD1708800283FD175
:1084B00016F10608D8F80600C7F8060095F8C49229
:1084C000B8F800A05046C0B250FA89F0072806DA82
:1084D00095F8C4021AEB000085F8C4021BE00620E0
:1084E00085F8C402DFF8D444DFF8D4B4DFF8D4143C
:1084F000BBEB0400C008000450F0020000F05AFF7B
:10850000DFF8C414BBEB0404E408240454F00204B0
:10851000200000F04FFF31882800FFF7EFFE040035
:10852000002C0ED0328829002000FFF7E3FD08E080
:10853000328800212800FFF7F1FD31882800FFF77D
:1085400047FEBDE8F18F2DE9FE4F04000D00002627
:108550002888B4F8CA12884240F0B38094F8C61252
:108560007620414304EB01076888002840F08480AE
:10857000A81D029038798DF800000298B0F80080AC
:108580009DF8000050FA88F0072804DA387918EBD3
:10859000000038711DE006203871DFF82094DFF804
:1085A00020A43A88DFF82414BAEB0900C0080004BC
:1085B00050F0020000F008FFDFF81414BAEB0909CC
:1085C0005FEAD9095FEA094959F00209484600F013
:1085D000F1FE9DF800905FF0000A3879814528D2BD
:1085E0005FF0120B0BFB09F038440A3002990A22A3
:1085F00002FB0AF21144891C0A22FEF7FBFE00204E
:108600000BFB09F13944888200200BFB09F1394446
:10861000C88200200BFB09F13944088300200BFBC2
:1086200009FB07EB0B01488319F101091AF1010A53
:10863000D3E7122000FB09F03844B0F1080B59468B
:108640002000FFF71FFE002802D03879062802D14B
:108650000120060012E0387984F8C502298820003C
:10866000FFF74CFE01900198002807D02A882100CE
:108670000198FFF73FFD24E0012006003000C0B262
:1086800000281ED0002084F8C5022A8869462000F0
:10869000FFF786FE01900198002805D02A88210066
:1086A0000198FFF727FD0CE09DF80000002808D096
:1086B0002A8801212000FFF731FD29882000FFF7DB
:1086C00087FDBDE8F78F2DE9F84304000D002888E9
:1086D000B4F8CA12884240F0818094F8C61276201D
:1086E000414304EB0106AF1D94F8C512122041432B
:1086F00006EB010010F10A086888002840D100212B
:10870000388881423CD2062000FB01F23A4492882C
:108710004FF42453D21A0DD0521E12D0521E02D042
:10872000921F15D01AE000FB01F038444088A8F8E9
:108730000A0013E000FB01F038444088A8F80C0060
:108740000CE000FB01F038444088A8F80E0005E07A
:1087500000FB01F038444088A8F81000B8F80A007F
:1087600000280BD0B8F80C00002807D0B8F80E008D
:10877000002803D0B8F81000002801D1491CBFE739
:1087800000208DF8000094F8C502401C3179884221
:1087900003D101208DF8000013E094F8C502401CBD
:1087A00084F8C5022A8869462000FFF7F9FD814652
:1087B000B9F1000F05D02A8821004846FFF79AFC3E
:1087C0000CE09DF80000002808D02A880121200034
:1087D000FFF7A4FC29882000FFF7FAFCBDE8F1832D
:1087E00001000022002901D10E2016E008680028AF
:1087F00001D10E2011E04868002801D10E200CE0C4
:108800000020684B18600120724B18700868674B95
:1088100018604868684B18601000704710B5040075
:10882000002C01D10E200AE06A480078012801D00E
:10883000082004E05D4801682000FFF7E5FB10BD5B
:108840002DE9F84F88B004000D004FF4BA675FF0CF
:108850000008260042463900300000F0BDF85FF005
:1088600020095FF0000A6E4652464946300000F08B
:10887000B3F8DFF844B1290089B2DBF8000000F05A
:1088800027FB06003000002831D1A4F8CA5200208E
:10889000C4F8CC02002084F8C702002084F8C60285
:1088A000002084F8C50294F8C6127620414304EBF8
:1088B00001073D4894F8C61250F8210038600220A4
:1088C0008DF800000120ADF810003868CDF81200D6
:1088D0000394384802902A0092B26946DBF80000FF
:1088E00000F079FA002802D1012184F8C81209B0F9
:1088F000BDE8F08F38B504000D00002C01D10E202A
:1089000016E034480078012801D0082010E02548FE
:108910000068002801D108200AE094F8C802002865
:1089200001D0112004E0290089B22000FFF788FF60
:1089300032BD0A88B0F8CA329A4206D1002280F8C5
:10894000C8224FF6FF72A0F8CA22704770B5050022
:108950000C00002D24D0002C22D01E4800780128C5
:108960001ED126002888112815D0302804D032289E
:1089700007D033280AD013E0291D3000FFF786FD09
:108980000EE0291D3000FFF7DEFD09E0291D300053
:10899000FFF799FE04E0291D3000FFF7CAFFFFE74B
:1089A00070BD00007C4A002020490020744A00204D
:1089B000080E0300F5800200784A0020600C0300D6
:1089C000700C030000180300B8110300001203002C
:1089D000840E0300B74A002062F30F2262F31F42A5
:1089E000401810F0030308D0C91A1FD3DB0748BF93
:1089F00000F8012D28BF20F8022D130030B41446D2
:108A00001546103928BF20E93C00FAD8490728BF8D
:108A100020E90C0048BF40F8042D890028BF20F849
:108A2000022D48BF00F8012D30BC7047C91818BF8F
:108A300000F8012DCB0728BF00F8012D7047FEE795
:108A400070B504000D0015F11006F088112801DB47
:108A5000092010E0F188200000F0F6FE68606868E8
:108A6000002801D1042006E00023F288B16868687C
:108A700000F0D9FF002070BD70B504000D0015F1A5
:108A80001006B0680088112801DB092019E0B068E1
:108A90000188891C200000F0D7FE68606868002803
:108AA00001D104200DE000230222B168686800F0C3
:108AB000BAFF0223B0680288F168686800F0B3FF6B
:108AC000002070BDF8B506000F001400002C19D06E
:108AD00000943B009BB23278DFF8E013DFF8E0034C
:108AE000DFF8E053401BC008000450F0010000F024
:108AF00085FCB068002805D03A0092B2F1682000E9
:108B0000B3689847F1BD78B591B005000E00012219
:108B100001A9280001F044F80400002C7DD19DF843
:108B20000400002808D002281ED00ED304282AD022
:108B300023D305282DD04FE0BDF81620BDF8141022
:108B4000300080B2A1DF040050E00DA807900023A0
:108B5000BDF81A200799029800F074FF05A93000AB
:108B600080B2A3DF040041E00DF11602BDF814103D
:108B7000300080B29BDF040038E005A9300080B2ED
:108B80009DDF040032E005A9300080B29EDF0400C2
:108B90002CE009A80890002302226946029800F000
:108BA00051FF6846079002230798028808990298A7
:108BB00000F048FFBDF8002005A9300080B2AEDF0C
:108BC0000400002C07D11000BDF8001080B28842CC
:108BD00001D00C20040009E0BB49B948B94A801A09
:108BE000C008000450F0020000F0E4FB112C14D087
:108BF000B6489DF8041050F82100002802D00298D1
:108C000000F061FE002201A9280000F0C9FF220047
:108C1000310089B201A8FFF755FF12B070BDF0B561
:108C200089B0060000226946F06800F0B9FF05002F
:108C3000002D26D1B168BDF800201420424301EB7D
:108C40000207002201A9380000F0AAFF0400002C4E
:108C500010D19E489DF8041050F82100002802D041
:108C6000029800F030FE002201A9380000F098FFC1
:108C70000400ECE700226946F06800F091FF05006F
:108C8000D6E709B0F0BD70B505000E0000242878C5
:108C9000002808D0022814D00CD3042820D018D3E0
:108CA000052824D036E06A8A298A300080B2A1DF04
:108CB000040039E015F11001300080B2A3DF040098
:108CC00032E015F11202298A300080B29BDF0400E5
:108CD0002AE015F11001300080B29DDF040023E08E
:108CE00015F11001300080B29EDF04001CE0A8697D
:108CF000028815F11001300080B2AEDF0400002CB4
:108D000007D11000A969098880B2884201D00C20DF
:108D1000040009E06C496A486A4A801AC0080004E5
:108D200050F0020000F046FB112C01D1002006E0BB
:108D30002200310089B22800FFF7C4FE012070BD77
:108D400030B402000020030014889BB2A3420CD26E
:108D50000B0054680500ADB234F815409BB2A34235
:108D600001D180B202E0401CEDE780B230BC704718
:108D700010B4020000231800148880B2A04211D25F
:108D800050681C00A4B230F814004FF6FF74A042E3
:108D900006D150681C00A4B220F81410002002E094
:108DA0005B1CE8E7042010BC7047010000221000A3
:108DB0000B8880B298420CD2486813009BB230F8FE
:108DC00013004FF6FF73984201D0012002E0521CBD
:108DD000EDE7002070472DE9F84F04000D00160064
:108DE0005FF00008002C01D10E2064E0002D01D1BD
:108DF0000E2060E02000FFF712FF310089B2200052
:108E0000FFF79EFF07002878062804DA380021883B
:108E100080B2884201D107204DE05FF01409A068BC
:108E2000390089B209FB01F1084400F010FF002865
:108E30000BD0310089B22800FFF725FF01000800A0
:108E4000C0B2002801D0404635E0DFF880A0287885
:108E50005AF8200000280ED02069002801D10E20E9
:108E600029E0290020692A785AF822209047804674
:108E7000404600281FD12900A0683A0092B209FBA1
:108E800002F2104400F020FE8346BBF1000F07D031
:108E900028785AF82000002802D0686800F013FDF6
:108EA000310089B2A0683A0092B209FB02F9484445
:108EB000FFF729FE5846BDE8F28F0000D4100300EA
:108EC000880C0300600C0300AC1903006C1A03004B
:108ED000F8B504000D000026002C01D10E2020E082
:108EE0002000FFF79CFE290089B22000FFF728FF31
:108EF00007003800218880B2884211D12000FFF796
:108F000054FF002803D1206900F098FC06002900D6
:108F100089B22000FFF72CFF06003000002800D1A6
:108F20003000F2BDF8B504000E003500002C01D071
:108F3000002D00D13BE02088112801D1A78810E046
:108F40002088302804DB2088502801DAA78808E030
:108F50002088502804DB2088702801DAA78800E0E8
:108F600025E0390089B22800FFF7EAFEADF80000DD
:108F7000BDF800002988884219D0208811280BD11B
:108F80004FF6FF706968BDF8002021F812006946AD
:108F9000E86800F099FD0AE0390089B2AA68BDF8D6
:108FA00000301420434302EB0300FFF7ACFDF1BD9A
:108FB00038B504000D00290020002268126890478F
:108FC00031BD10B50400200021684968884710BDF4
:108FD00010B50400200021688968884710BDC26868
:108FE00011717047C068007970470121C2685171E2
:108FF0007047C0684079704770B505000E00DFF813
:109000001408FF21816000210160002141600021DE
:10901000C0F818140021C0F81414002180F820149E
:10902000DFF8F40700F00AFC0400002C01D0200057
:109030000AE0DFF8E80700F015FEDFF8E407DFF8E4
:10904000E417411AC908002070BDDFF8D407DFF823
:10905000D417401AC008704770B504000D002800EE
:10906000C0B2002814D0FFF7F0FF010000228A42AE
:109070000CD2DFF8B40700EB820318882668B042F0
:1090800002D12260002004E0521CF0E7052000E03D
:10909000002070BD11B581B00C002100C9B201A83B
:1090A000FFF7DAFF002806D1DFF88007019900EB0F
:1090B000C100006800E0002016BD0200DFF86C0768
:1090C00000EBC2030800C0B2012806D00DD303286C
:1090D00007D004D3042806D007E0022006E00420CD
:1090E00004E0187902E0587900E00020C0B270472F
:1090F00010B4030000201A68C2F38002002A18D0BE
:109100001A7812F00302012A02D0022A08D00EE0D7
:109110000A681C68C4F38314A41CA2180A6006E041
:109120000A681C68A40DA41CA2180A60FFE70122AB
:109130001000C0B210BC70472DE9F84384B0002481
:10914000DFF8D05615F5836000F0E3FD05F2144911
:10915000484600F0DEFD68680090AE680098304038
:1091600005EB800010F10C0769463800FFF7C0FFDF
:10917000002806D00098304005EB80000C30070036
:10918000F2E75FF00008B8F1020F0DD2009830400E
:1091900005EB8000C06801A941F828000098401C38
:1091A000009018F10108EEE7019810F00300012883
:1091B0000CD0022814D1BDF80A00040000980199CF
:1091C000890DC91C10EB9100009009E0BDF80A0060
:1091D000040000990198C0F3831041180091FFE743
:1091E000484600F09DFD0100002901D0009868600C
:1091F000A4B2200005B0BDE8F08380B50021DFF8FF
:10920000300600F043FD010081F3100002BD2DE99E
:10921000F84304000D0016001F00DDF82080A14671
:109220005FEA1949FFF7E9FFDFF8E8157A1C18EA49
:10923000020201EB820259EA0043D36018EA0702F6
:1092400001EB82010C310A6864F3C5020A600A6806
:1092500066F389120A600A6865F39F220A60012298
:109260000B6862F301030B600A6832F004020A60C3
:10927000BDE8F1832DE9FE4F04000D001600A01C8F
:109280000190012700208DF80000684600F0A0FD45
:10929000DFF88085D8F800002860D8F80800401C66
:1092A000D8F80090B0EB0909D8F8040010EB0909D0
:1092B0000198814517D208F21C4B0121584600F055
:1092C0000DFDFFF739FF82465146584600F006FD76
:1092D000D8F80810491CD8F80000091AD8F804007A
:1092E00041188946E4E73800C0B2002823D00021A5
:1092F0003000C0B2002807D0012060F3010151F016
:10930000040164F3891106E0022060F3010151F0C9
:10931000040164F39F51D8F80020D8F808000240F7
:1093200008EB820010F10C021160D8F800300198AF
:10933000C318C8F800309DF8000000F04FFD380059
:10934000C0B2BDE8FE8F2DE9FE4F04000D001600EF
:109350001F00DFF8C094D9F80880012201A9380065
:10936000FFF788FF00281BD0DDF804A01AF1020ADD
:109370005FF0000BBB450BD218EA0A0009EB800036
:1093800056F82B10C1601AF1010A1BF1010BF1E72D
:10939000CDF80080019B3A0029002000FFF737FF3D
:1093A00099F82004002803D000F069F80028FBD1C8
:1093B000BDE8F78F38B504000D0000230022290016
:1093C0002000FFF7C0FF31BD7CB504000D00160082
:1093D000009601236A4629002000FFF7B4FF73BD01
:1093E000FEB504000D0016001F0000960197022331
:1093F0006A4629002000FFF7A6FFF7BD2DE9FF41CF
:1094000004000D0016001F00DDF82880009601976B
:10941000CDF8088003236A4629002000FFF793FF58
:10942000BDE8FF812DE9F84F86B004000D0016005D
:109430001F00DDF84080DDF84490DDF848A0DDF83D
:109440004CB000960197CDF80880CDF80C90CDF87F
:1094500010A0CDF814B006236A4629002000FFF7BB
:1094600072FF07B0BDE8F08FDFF8A803416800681D
:10947000814201D1012000E00020C0B270472DE9F7
:10948000F04F8BB0FFF7F0FF002801D000205FE124
:10949000DFF880730020C7F81804BFF34F8F786897
:1094A0000090B868029000990298014007EB810093
:1094B0000C30099000250026002008906946099884
:1094C000FFF716FE002813D0D7F8180400280FD194
:1094D00000983968884203D338687860002037E103
:1094E00000990298014007EB81000C300990E5E7F4
:1094F0005FF00008B8F1020F0ED200990298014007
:1095000007EB8100C06803A941F828000098401CBF
:10951000009018F10108EDE7039810F0030002280D
:1095200040F07F80DDF80C905FEA99590398800D38
:10953000502804DADDF80CA05FEA9A5A01E05FF0E7
:10954000500A03986AF39F5003901AF108000A909A
:109550000398C0F3C20008900A99AF4800F074F96C
:109560000500002D00F0A280280000F0D3F93300A0
:10957000082203A9280000F056FA08360299491C6F
:10958000009A02980240891A8C00544535D2002C6A
:1095900007D000990298014007EB81000C3007903A
:1095A00002E017F10C000790002C01D0A34600E068
:1095B000D346002C03D017F10C00069001E00020E8
:1095C0000690002C02D0BAEB040000E000208DF8D9
:1095D000040033005A46D2B20799280000F023FA5B
:1095E00056FA8BF60698002814D033009DF8042014
:1095F0000699280000F017FA0CE000990298014043
:1096000007EB810010F10C0B33005246594628003D
:1096100000F009FA009819F1030910EB9900009085
:1096200044E0039810F0030001283FD10398C0F3F1
:109630008310062803DA0398C0F3831000E00620A5
:10964000039960F3891103910398C0F38314A41C58
:109650000398C0F3C2000890A1006F4800F0F4F82E
:109660000500002D22D0280000F054F93300082214
:1096700003A9280000F0D7F9083600208046039897
:10968000C0F38310804511D20099481C009033002C
:1096900004220298014007EB810010F10C01280020
:1096A00000F0C1F9361D18F10108E8E7002D33D0AC
:1096B000D7F81044D7F81804002803D0280000F089
:1096C00031F93DE0002C13D05FF000092000FFF7D6
:1096D00090FC012801D1012081464846C0B20028F3
:1096E00003D029002000FFF763FCE0680468E9E785
:1096F000280000F017F900208DF8040001A800F000
:1097000067FBD7F81804002801D1009878609DF80D
:10971000040000F063FB13E0D7F81044002C05D0E0
:109720002000FFF755FCE0680468F7E7414942482C
:109730003C4A801AC008000450F00200FFF73AFECD
:10974000FFF792FE002801D1012000E00020C0B206
:109750000BB0BDE8F08F70B500260A2E1ADA2D483E
:10976000D0F81004040001200500002C0AD02000CD
:10977000FFF738FCB04202D10020050002E0E068AB
:109780000468F2E72800C0B2002801D0300003E0EE
:10979000761CE2E75FF0FF3070BD70B504000D008D
:1097A000FFF7D9FF060016F1010F01D130001BE0D1
:1097B00030000100C9B22000FFF711FC1549D1F8B3
:1097C0001004002805D1C1F810440020E1680860A9
:1097D00009E0D1F81004C0680068E2681060D1F8B0
:1097E0001004C0680460300070BD10B50948D0F89E
:1097F0001044012180F82014002C08D02000FFF72D
:10980000F4FB2000FFF7DDFBE0680468F4E710BD1F
:1098100000000000283A0020C81C03005C1E030062
:10982000F80C0300600C030000000000600C030053
:10983000443E0020001C0300A00C030010B50400EF
:10984000200000F0E0FA10BD2DE9F84F06000F00EF
:10985000B6F81080B8F1040818EB0700C01CB0FB84
:10986000F8F9300000F0EDFA0500002D01D10020DC
:1098700027E00020287101206871A5F80680009576
:10988000CA465FFA8AFABAF1010A009806605FF0E8
:10989000000BD34514D2300000F0D3FA0400002CA2
:1098A00009D06879401C68710098046026600094B3
:1098B0001BF1010BEDE7280000F005F8002000E0A7
:1098C0002800BDE8F28F2DE9F84F05002E007779CA
:1098D0002900B8465FFA88F8B8F101080020404531
:1098E00002D20968401CFAE7D1F80090AA465FF05E
:1098F000000B3800C0B283450AD2DAF80000040039
:109900005146484600F0C9FAA2461BF1010BF0E7A8
:10991000BDE8F18F38B5040025000121281D00F0B5
:10992000DDF931BD7CB5040025000121281D00F0C2
:10993000E3F900906E463078002802D12000FFF74E
:10994000C2FF73BD2DE9FF4F87B007980190DDF886
:109950001C800198C688019840794643361F0198BB
:10996000C08800900A98001D0099B0FBF1F50A9993
:10997000091D0098B1FBF0F7009800FB1717099834
:1099800001680A9841188E4202D20A9C341B01E0F9
:109990000998046809980460002D03D0D8F8008065
:1099A0006D1EF9E75FF00009DDF800A0BAEB070AC9
:1099B000544501D2A246FFE7002C31D00898484414
:1099C000039008EB0700001D02909DF8500000284E
:1099D0000BD0CDF814A002980490DDF80CB0059AD5
:1099E00004995846FDF706FD0AE0CDF814A0039847
:1099F0000490DDF808B0059A04995846FDF7FAFC82
:109A000000200700D8F80080B4EB0A041AEB09091B
:109A10000098844201D2A246CEE7DDF800A0CBE751
:109A20000BB0BDE8F08FFEB504000D0016001F005E
:109A30000196002000903B0001AA29002000FFF7BA
:109A400081FFF7BDFEB504000D0016001F00019652
:109A5000012000903B0001AA29002000FFF772FFBF
:109A6000F7BDFEE78068024909784018704700009A
:109A7000802003008068814201D2491C00E000215F
:109A80000800704770B504002068056820684668C3
:109A9000AE4201D3751B04E02000FFF7E3FF451B36
:109AA0007519280070BD70B504002068056820682D
:109AB000466831002000FFF7DDFFA84201D10120F8
:109AC00000E00020C0B270BD2DE9F84F04000D0089
:109AD000002600208DF80000684600F079F920008B
:109AE000FFF7E1FF07003800C0B2002802D0207C59
:109AF00000284CD12068D0F80480206841682000FC
:109B0000FFF7B8FF216848603800C0B2002806D0CF
:109B1000206801682000FFF7ADFF21680860E06859
:109B2000012806D0022809D004280CD008280FD01C
:109B300016E02878616801F808001EE0288861684E
:109B400021F8180019E02868616841F8280014E03D
:109B5000D5E90001626802EBC802C2E900010CE02D
:109B6000D4F80C90AA466068D4F80CB00BFB080B34
:109B70004A4651465846FDF73DFC2000FFF782FF5C
:109B800021688968814204D22168886001E004204C
:109B900006009DF8000000F021F93000BDE8F28FCA
:109BA0002DE9F84F04000D001600002700208DF865
:109BB0000000684600F00CF9200000F048F800288A
:109BC0003CD12068D0F800803000C0B2002806D117
:109BD000206801682000FFF74DFF21680860E068F9
:109BE000012806D0022809D004280CD008280FD05C
:109BF00016E0606810F80800287021E0606830F80E
:109C0000180028801CE0606850F82800286017E0E1
:109C1000606800EBC800D0E90001C5E900010FE071
:109C2000D4F80C906068D4F80CA00AFB080AAB4684
:109C30004A4651465846FDF7DDFB01E00520070086
:109C40009DF8000000F0CAF83800BDE8F28F016806
:109C5000096802685268914201D1012000E00020A9
:109C6000C0B2704700218268916000218268116152
:109C700000218268516100218268D16000218268E0
:109C800051600021826811607047FEE710B4020045
:109C900052E8000F0B4642E8003494F0000FF7D171
:109CA00010BC704710B4020052E8003F43EA0100C4
:109CB00042E8000494F0000FF6D110BC7047000099
:109CC00010B4020052E8000F00EA010342E8003439
:109CD00094F0000FF6D110BC7047000010B40200E1
:109CE00052E8003F03EB010042E8000494F0000F4B
:109CF000F6D110BC7047000010B4020052E8003FDB
:109D0000A3EB010042E8000494F0000FF6D110BC70
:109D1000704710B5040001212000FFF7C3FF10BDFC
:109D200010B5040000212000FFF7CAFF10BDFEE7B8
:109D3000EFF3108072B6704762B6704738B5050011
:109D4000FFF7F6FF04001C498868002810D10120A5
:109D500088601A481A4A136803400B60106019485B
:109D600002684A605FF0FF3101600020287001E066
:109D700001202870002C01D1FFF7DEFF002032BD4A
:109D800070B505000C4EB068002812D02800C0B293
:109D900000280ED1FFF7CCFF040030680A490860A4
:109DA00070680A4908600020B060002C01D1FFF7FC
:109DB000C3FF002070BD0000CC490020FC06FFBDA1
:109DC00080E100E084E100E000E100E004E100E087
:109DD00010B504002000FFF7B1FF10BD10B504005E
:109DE0002000C0B2FFF7CCFF10BDC268C9B2008A24
:109DF000414302EB01007047C268891A008AB1FB37
:109E0000F0F0C0B2704710B40100002901D10E205B
:109E100015E088684A68821A48680B681860100064
:109E2000421EC0B2002806D008680068431C0C68B7
:109E300023600270F3E700200B681871002010BC4B
:109E4000704738B50400002500208DF800006846F2
:109E5000FFF7BEFF606821680968884217D2206852
:109E60000068401E216808602068006801782000B2
:109E7000FFF7BBFF0500A16820680068081A216889
:109E800009790200D2B2914201D2216808719DF88D
:109E90000000FFF7A3FF280032BDF8B504000D0055
:109EA0002E0000208DF800006846FFF791FF206823
:109EB0000768781C2168086031002000FFF79CFFCC
:109EC00038709DF80000FFF789FFF1BD012210F006
:109ED0001F018A40DFF8141803005BB25B0941F8E8
:109EE0002320704710B4020052B2002A0AD54A015A
:109EF000DFF8FC37040064B214F00F04234403F8C5
:109F0000042C05E04A01DFF8EC37040064B21A556E
:109F100010BC704738B504000D002900C9B22000FC
:109F200040B2FFF7DFFF31BD10B50400200040B2A2
:109F3000FFF7CCFF10BD10B50400200000B200F008
:109F400018F80068012801D1012000E00020C0B20B
:109F500010BD1CB50400200000B200F00AF800217A
:109F60000160200000B200F004F800680090009842
:109F700013BD00B200F1804010F5C0407047DFF81B
:109F8000781708607047DFF8701709680840704755
:109F9000DFF8681751F8202052F0010241F8202024
:109FA000704770B4DFF8544754F82050DFF850374A
:109FB0001D4044F8205054F820300D0215F4F85597
:109FC0001600F6B2360416F4403635432B4344F8F7
:109FD000203070BC7047DFF8241751F82000C0F320
:109FE00004207047DFF8141751F82000000C10F01F
:109FF0000300704701005FF0A04070472DE9F14178
:10A0000081B00E0017009846089C099D01A8FFF733
:10A01000F1FF3100C9B23A00D2B251EA42014246E0
:10A02000D2B251EA82012200D2B251EA02212A00C0
:10A03000D2B251EA0241019A00EB8202C2F8001743
:10A04000BDE8F3813EB504000D0000200190002022
:10A0500000902B00DBB2002200212000FFF7CEFF92
:10A0600037BD01B56846FFF7C5FF009900EB8101D8
:10A07000D1F8001731F00201009A00EB8202C2F819
:10A08000001701BD11B581B00C0001A8FFF7B2FFA8
:10A09000019900EB8101D1F8001731F44031019AA8
:10A0A00000EB8202C2F80017019900EB8101D1F8A0
:10A0B00000172200D2B251EA0241019A00EB82025B
:10A0C000C2F8001713BD11B581B001A8FFF792FFC8
:10A0D0000400200000F012F80199C84010F00100BF
:10A0E00016BD01B56846FFF785FF009900EB8100BA
:10A0F000D0F80007000C10F0030002BDD0F81005E6
:10A100007047F8B504000D0016006846DFF8F41536
:10A110000A68026027002819874208D2684650F86A
:10A120002700FFF7EBFF3060361D7F1CF3E7F1BD22
:10A1300010B40A000300DB0810F00700012414FA31
:10A1400000F0D25C104010BC704730B40A0003002D
:10A15000DB0810F00700D45C012585402C43D45463
:10A1600030BC7047DFF8A01501EB000292F93020F7
:10A17000002A06D4084490F93000082801DA0120AA
:10A1800000E00020002801D0012000E00020C0B243
:10A190007047DFF87415084490F93000082801DB97
:10A1A000012000E00020C0B27047DFF85C150844D1
:10A1B00090F93000002801D4012000E00020C0B256
:10A1C000704730B4DFF8405505EB000484F83010D8
:10A1D00045F821201C00E4B2002C03D105EB01045A
:10A1E00084F8480030BC70475FF0FF31DFF8182575
:10A1F000024482F83010704710B50400DFF80C15E7
:10A200002000FFF7A2FF10BDDFF8FC14084490F90E
:10A2100030007047DFF8F01451F8200070472DE946
:10A22000F04704000D0016005FF0FF373000C0B2A9
:10A23000002802D05FF0000801E05FF0080830005D
:10A24000C0B2002802D05FF0080901E05FF00C09FD
:10A25000C246CA4513D2DFF8B00450F82A0010F104
:10A26000010F09D13300DBB22A0051462000FFF76D
:10A27000A8FF5046070002E01AF1010AE9E738009A
:10A2800040B2BDE8F087DFF880145FF0FF320300D2
:10A29000DBB241F823200200D2B2082A06DB5FF0CD
:10A2A000FF320300DBB2194481F8482070472DE9E2
:10A2B000F041DFF8544494F85800002801D00820F9
:10A2C00031E000263000C0B2202805DA3000C0B2EC
:10A2D000FFF78AFF761CF5E700252800C0B20C289E
:10A2E00005DA2800C0B2FFF7CEFF6D1CF5E70426A3
:10A2F000002714F154083A0031004046FEF76CFB89
:10A3000006210620FFF706FE0620FFF70DFE4FF49C
:10A31000BE70FFF71EFE5FF00040FFF730FE012029
:10A3200084F858000020BDE8F081DFF8DC0390F8E5
:10A330005800002801D0012000E00020C0B2704782
:10A340002DE9F04104000D00160000272000FFF762
:10A350002CFF002802D00820070046E0AA78D2B2DD
:10A36000520812F0010231002000FFF758FF80462A
:10A37000404640B210F1010F35D0A878C0B2800835
:10A3800010F0010000280FD1A87810F0010000287B
:10A3900003D02000FFF765FE03E069782000FFF797
:10A3A00051FE2000FFF728FFA878C0B2400810F047
:10A3B0000100002806D02A782100404640B2FFF76D
:10A3C000F0FD12E0DFF84003414649B2014491F844
:10A3D000481095F9002051EA82114FFA88F840445C
:10A3E00080F8481001E0042007003800BDE8F08143
:10A3F0002DE9F04104000D002000FFF7CAFE0028FF
:10A4000025D02000FFF700FFDFF8FC1240B208441F
:10A4100090F848804746FFB2BF093800C0B2032811
:10A4200008D12000FFF74FFE002801D0032608E0E6
:10A43000022606E03800C0B2012801D1022600E061
:10A4400003263100C9B22000FFF71CFE24E02000E3
:10A45000FFF788FE00281FD02000FFF7D5FE06007A
:10A46000B70017F580773000FFF792FD380000B293
:10A47000FFF76FFD2800C0B200280DD02000FFF7C5
:10A48000C3FE40B2FFF7C6FE80464046002803D018
:10A490000120B040FFF773FDBDE8F08110B5040066
:10A4A0002000FFF710FE002801D0012000E000206E
:10A4B000C0B210BD2DE9F84F86B00020019002A86F
:10A4C000002101604FF48070ADF8020001250026E4
:10A4D000082E19D2BDF90200FFF72DFD00280BD080
:10A4E0002800FFF750FD002806D0BDF90200FFF755
:10A4F00030FD0198284301906D00BDF80200001D59
:10A50000ADF80200761CE3E74FF4BE70FFF713FDD1
:10A5100000280CD04FF4BE70FFF71BFD019850F0DF
:10A520000040019002AA01210020FFF7EAFD0198F6
:10A5300000061ED00120050000200600082E18D2BB
:10A540000198054212D03000FFF745FD04003000AD
:10A55000FFF748FD07003000FFF75CFE80464046ED
:10A56000002803D03900C9B22000C0476D00761C16
:10A57000E4E70198002840F1B480002704A80021F6
:10A5800001600024002C06D15FF0FF3005A941F8DE
:10A590002400641CF6E70020070000200600042EBB
:10A5A00065D2594800EB060191F850108DF8011062
:10A5B0009DF8018038F0C008304490F9500010F147
:10A5C000010F52D005A94046FFF7B2FD00284CD03C
:10A5D0009DF80100C0B280098DF800004046FFF7E9
:10A5E00013FE40B2FFF716FE81464846002803D10D
:10A5F0009DF80000032838D19DF80000032803D1FE
:10A6000004A94046FFF7A1FD4046FFF76AFD8246D8
:10A6100002A94046FFF78CFD03900398002803D061
:10A620005046C0B2022806D0039800281DD15046DB
:10A63000C0B2032819D19DF8000003280ED150465E
:10A64000C0B2022802D15FF0030B01E05FF0020B01
:10A650005946C9B24046FFF715FD7F1C4846002801
:10A6600003D09DF800104046C847761C97E7380095
:10A67000C0B2002830D05FF0010803AA01210020F9
:10A68000FFF73FFD00200400002C0CD103A850F878
:10A69000240002A951F82410884202D000208046EC
:10A6A00001E0641CF0E74046C0B2002802D0002060
:10A6B000070011E000200400002C0DD103A850F881
:10A6C000240002A941F8240004A850F8240005A998
:10A6D00041F82400641CEFE73800C0B200287FF482
:10A6E0005AAF07B0BDE8F08F0000000000E100E0C5
:10A6F00018ED00E000E400E0046300401065004055
:10A70000FFE0FCFF5820030058460020AC46002024
:10A7100010B50400200000F0B3FB10BD70B5DFF8E9
:10A72000D00600F0C2FD05002C00002C02D0200055
:10A7300000F0A6FB012001F0EDF806003400002C2B
:10A7400002D0200000F09CFB70BDF8B584B005007D
:10A750002878042826D0062802D0072809D031E01E
:10A76000686806003400002C02D0200000F088FB4E
:10A7700028E06F68B8790390787902903879019071
:10A78000F8780090BB787A78DFF86816DFF868060A
:10A79000DFF86846001BC008000450F00300FEF715
:10A7A00041FE0FE0DFF85816DFF84C06DFF84C26C4
:10A7B000801AC008000450F00300FEF7FBFDFFF70D
:10A7C000ADFFFFE705B0F0BD2DE9FF4110250026E4
:10A7D0006C46320029002000FEF7FEF801208DF8BB
:10A7E000040001208DF80C00DFF80486DFF8142641
:10A7F0006946404600F014FD07003C00002C02D0E2
:10A80000200000F03DFBDFF800260321404600F069
:10A81000E0FB05002C00002C02D0200000F030FBF3
:10A8200000220421404600F0ECFB06003400002C1E
:10A8300002D0200000F024FBBDE8FF8110B5040029
:10A840002100DFF8C80501F033F910BD2DE9F04112
:10A8500006000F005FF00008380080B2804521D26A
:10A8600016F8080001F0FAFB0400002C15D0112C9A
:10A8700013D04246DFF89815DFF87C05DFF87C3509
:10A88000C01AC008000450F00100FEF79DFD25002D
:10A89000002D02D0280000F0F3FA112CE0D018F1BE
:10A8A0000108D9E7380080B2304410F8010C0D28B7
:10A8B00004D10A2001F0D2FB1128FAD0BDE8F081C2
:10A8C0002DE9F04105002878002803D0022834D073
:10A8D00044D354E0DFF83C75DFF83C8538884044C9
:10A8E00001F09DFB3888401C38803888404410F8BF
:10A8F000010C0A280BD03888404410F8010C0D28B0
:10A9000005D03888DFF814150988884214D33A88AE
:10A910004146DFF8F80401F0ECF90600082E07D0F4
:10A92000132E05D03400002C02D0200000F0A8FA2D
:10A93000132EECD00020388021E0DFF8E414DFF89B
:10A94000B804DFF8B824801AC008000450F00100F1
:10A95000FEF730FD686800F093FA10E0DFF8C414E9
:10A96000DFF89404DFF89424801AC008000450F043
:10A970000100FEF71FFD686800F082FAFFE7BDE8FE
:10A98000F0812DE9F04705000E003078002803D053
:10A99000022839D033D346E0DFF86094DFF858A4BA
:10A9A000DFF88414BAEB0900C008000450F003007B
:10A9B000FEF700FD16F10E027188280001F0F6F98D
:10A9C00080464446002C02D0200000F059FA2800AE
:10A9D00001F07AF907003C00002C02D0200000F0C2
:10A9E0004FFADFF84814BAEB09095FEAD9095FEAC0
:10A9F000094959F003094846FEF7DCFC13E0B18928
:10AA0000B068FFF723FF0EE0DFF82414DFF8E80357
:10AA1000DFF8E823801AC008000450F00300FEF7B6
:10AA2000C9FCFFF77BFEBDE8F08770B5050000208C
:10AA300000F070FF06003400002C02D0200000F06F
:10AA40001FFA2800C0B2002809D101F0A2FB0600BD
:10AA50003400002C02D0200000F012FAFFE70120A1
:10AA600070BD2DE9FC4705000E002F1D2888102819
:10AA70000ED0112830D013284BD01B283AD01F28D5
:10AA800054D021285DD03B286AD0562873D07DE071
:10AA90000022A988DFF8740301F088F981464C464A
:10AAA000002C02D0200000F0EBF9072000F032FF6C
:10AAB00082465446002C02D0200000F0E1F9A9881B
:10AAC000DFF87003FDF716FF80464446002C02D0E5
:10AAD000200000F0D5F959E03B793A88DFF85813A7
:10AAE000C548C64C001BC008000450F00300FEF728
:10AAF00077FC4BE0387902280AD1DFF84013BE48D2
:10AB0000BE4A801AC008000450F00300FEF752FC51
:10AB10003CE0002300228521A8887FDF8046444650
:10AB2000002C02D0200000F0ABF92FE0391D38884E
:10AB300075DF80464446002C02D0200000F0A0F9CA
:10AB400024E0BF480088ADF800006946A8888FDF80
:10AB500080464446002C02D0200000F091F915E018
:10AB60001321A88876DF80464446002C02D02000BE
:10AB700000F086F90AE01321A88876DF8046444673
:10AB8000002C02D0200000F07BF9FFE7BDE8F3873E
:10AB90007CB501F01BFC05002C00002C02D020002D
:10ABA00000F06EF9002000906946012001F08EFC53
:10ABB00006003400002C02D0200000F061F9684645
:10ABC00001F077FD05002C00002C02D0200000F0E1
:10ABD00057F973BDF8B504000D00288840F67721B9
:10ABE000884218D1854E844F9649B81BC00800048E
:10ABF00050F00300FEF7DEFB8848A988C91E0180DB
:10AC0000038802889049BE1BF608360456F00306F6
:10AC10003000FEF7E5FBF1BD70B58C4E8C4930007D
:10AC200001F083FF05002C00002C02D0200000F072
:10AC300027F9F721300001F092FF06003400002CC4
:10AC400002D0200000F01CF970BD70B5050028008E
:10AC5000C0B2042805D00A2811D1002002F0ABF8B8
:10AC60000DE013216948408876DF0600082E05D0E4
:10AC70003400002C02D0200000F002F9FFE770BD84
:10AC800038B58AB004A873491822FCF7C3FB724890
:10AC900000904FF480700190704902910390072357
:10ACA0006F4A694604A801F05CF905002C00002CED
:10ACB00002D0200000F0E4F80BB030BD3EB569488A
:10ACC0000090694801906948029069464F4800F039
:10ACD00059FF05002C00002C02D0200000F0D0F815
:10ACE00037BD7CB56249012000F022FE05002C0032
:10ACF000002C02D0200000F0C3F86946002001F0CB
:10AD000091FA06003400002C02D0200000F0B8F8C0
:10AD100073BD38B502F032FA05002C00002C02D0C9
:10AD2000200000F0ADF831BD38B54FF4804100206F
:10AD3000FEF762F905002C00002C02D0200000F084
:10AD40009FF802F0A5FA31BD38B501F0ECFF05001F
:10AD50002C00002C02D0200000F092F831BDFEB58E
:10AD6000082500266C46320029002000FDF734FE3D
:10AD7000404800903D4801906846FDF731FD0700CE
:10AD80003C00002C02D0200000F07AF8F7BD80B51E
:10AD9000FEF775FB002801D101F0D2FF01BD80B59F
:10ADA000FFF7C2FFFFF7B5FFFFF76AFFFFF799FF55
:10ADB000FFF7D5FFFFF7C8FFFFF7EAFEFFF72CFF0D
:10ADC000FFF77CFFFFF700FD2B4802F073FA2B49D9
:10ADD00009480A4A801AC008000450F00300FEF730
:10ADE000E9FAFFF79BFCFFF7D2FFFCE70000000049
:10ADF0000C470020F0130300A00C0300600C0300BC
:10AE0000101D03004BA70200442003003849002016
:10AE100064150300B04A00204C420020263A00206E
:10AE200054130300E0140300D81B03002014030094
:10AE3000201D03008432002050140300401803003A
:10AE4000F2730200901903008C1503008C48002057
:10AE5000D5AB0200541A03004C4000204C410020A6
:10AE6000C1A8020083A9020011A7020054380020E3
:10AE70004BAC02003DA80200781603009C160300AC
:10AE80001FB50400684600210022002380E80E0060
:10AE900002946A46002144F2010002F031FA1FBD1B
:10AEA0002DE9F84F86B005000E00B01C009015F19A
:10AEB000140715F10A0895F81290287A00281ED078
:10AEC00000F0ACF95FF0140A5FF0000B01AC5A46D9
:10AED00051462000FDF780FD4B46DBB2424639006B
:10AEE00000988CDF040006208DF804000294002CEA
:10AEF00005D0686A002802D001A8696A884707B0AF
:10AF0000BDE8F08F2DE9F84F04000D002E0095F8F4
:10AF100006B02F795FF0000AB4F81C805FF00009DA
:10AF200048463900C0B2C9B2884218D24846C0B2B9
:10AF300006EB8002414689B2A06902F056FA002869
:10AF400006D01AF1010A5846C0B2002804D106E022
:10AF50005846C0B2002802D119F10109E0E758466D
:10AF6000C0B2002805D050463900C0B2C9B28842EC
:10AF700007D05846C0B2002805D15046C0B20028BC
:10AF800001D0012000E00020BDE8F28F70B4020083
:10AF90001300151D2878002801D0042017E0002494
:10AFA0002000C0B200280AD12000C0B233F820002F
:10AFB0000E88B04201D1002009E0641CF0E7287837
:10AFC000461C2E700E68C0B243F82060002070BC92
:10AFD0007047F8B505000E001400002D01D10E20B9
:10AFE0000EE0002C01D10E200AE03000C0B2032890
:10AFF00005D1270039002800FFF7C8FF00E007202F
:10B00000F2BD70B504000D001600002C01D10E2019
:10B010000FE015F01F0F01D107200AE0200000F01B
:10B0200009F802002100680701D5012048718E71DE
:10B03000002070BD0100002901D10E2003E04A1D4F
:10B0400000201070002070472DE9F84785B00400FB
:10B050000D005FF000085FF0000914260027EA46A3
:10B060003A0031005046FDF7B7FC14F1140004908B
:10B07000200000F060F800280FD002208DF80000BA
:10B0800001956846616A884714F1480100208ADF0B
:10B0900029002000FFF704FF4AE0A6795FF0000ACC
:10B0A00067793800C0B2002811D018F101082100DA
:10B0B0002800FFF727FF002809D019F101099DF8A2
:10B0C000080050F004008DF8080001208246019528
:10B0D0003000C0B200280DD048464146C0B2C9B2C7
:10B0E000884207D100208DF8000029002000FFF7DA
:10B0F000D7FE13E03000C0B200280BD15046C0B2DA
:10B10000002807D000208DF8000029002000FFF75C
:10B11000C7FE03E003208DF800000195606A002857
:10B1200002D06846616A884714F1480100208ADF2E
:10B1300006B0BDE8F0870100087DC0F3C100C0B2D1
:10B14000012805D0087DC0F3C100C0B2032801D199
:10B15000012000E000207047017D51F004010175DD
:10B16000A021C1825021018300214183017D11F082
:10B17000E70101750121417570474FF4C8710182E3
:10B1800006214181182181810021C18170472DE96B
:10B19000F04385B004000D002E1D14275FF0000859
:10B1A000E946424639004846FDF716FC307801284A
:10B1B0000ED1606A00280BD004208DF8000014F135
:10B1C0001400049030788DF804006846616A88475E
:10B1D00005B0BDE8F0832DE9F04385B004000D0013
:10B1E0002E1D14275FF00008E94642463900484604
:10B1F000FDF7F2FB606A00280DD005208DF80000F5
:10B2000014F11400049001A831000922FCF7F2F8AF
:10B210006846616A884705B0BDE8F0838BDF7047F8
:10B220002DE9F84304000D001600002C01D10E207A
:10B2300039E0666208275FF00008A14642463900FF
:10B240004846FDF7C9FB002D1ED028792072287BC7
:10B25000A0742868002806D014F1140029680E2272
:10B26000FCF7C8F802E02000FFF776FFA868002886
:10B2700006D014F10A00A9680822FCF7BBF80BE01D
:10B280002000FFF77AFF07E02000FFF765FF2000AE
:10B29000FFF773FF0020207214F12800A0641F2024
:10B2A000A4F84C000020BDE8F283F0B585B004009E
:10B2B000002C01D10E202FE0142500266F4632000D
:10B2C00029003800FDF788FBFFF7A8FF2000FFF7F3
:10B2D00032FF002808D0606A002805D001208DF8D0
:10B2E00000006846616A884714F1480114F11400AF
:10B2F0008ADF0500082D0ED0002D0CD02A0007494A
:10B300000748084BC01AC008000450F00100FEF7BF
:10B310005BF8280000E0002005B0F0BDC016030077
:10B32000900C0300600C03002DE9F84185B0040087
:10B330000D0014260027E8463A0031004046FDF78C
:10B340004BFB07208DF80000281D01902888ADF8E0
:10B35000080014F114000490606A002802D06846C6
:10B36000616A884706B0BDE8F0812DE9F04104002C
:10B370000D002E0014F1080714F10408208810288D
:10B3800015D01B2809D01D2802D020280AD013E090
:10B3900039003000FFF758FE0EE041463000FFF75D
:10B3A000F6FE09E041463000FFF715FF04E0414694
:10B3B0003000FFF7B9FFFFE7BDE8F08101005FF063
:10B3C000A040704711B581B00C0001A8FFF7F6FF4F
:10B3D000019900EB8101D1F8001731F44031019A55
:10B3E00000EB8202C2F80017019900EB8101D1F84D
:10B3F00000172200D2B251EA0241019A00EB820208
:10B40000C2F8001713BD10B50400042C03D22000AD
:10B4100002F051F900E0002010BD2DE9F0470500D1
:10B420000E0000275FF000092800C0B202F05EF9AC
:10B430008046B8F1040F4FD23000C0B200282AD0A5
:10B44000022841D048D2DFF8D895032000FB08F04D
:10B4500019F800000700032000FB08F0484440787A
:10B4600000280ED0DFF8BCA552464FF48041DFF82B
:10B47000B805006801F0C0FE0400002C01D18AF874
:10B480000050032000FB08F048448078DFF89C154A
:10B4900001F8080020E0DFF89005006801F0CDFE1B
:10B4A000DFF87C05DFF8841511F80810032202FB91
:10B4B00008F202449278914205D1032101FB08F180
:10B4C00008448078070007E0DFF85405032101FBFA
:10B4D00008F10844407807003800C0B2002808D0BE
:10B4E000DFF84C150868002803D03800C0B209689E
:10B4F0008847BDE8F08710B5040002212078FFF7E7
:10B500008CFF10BD10B5DFF82C050078002809D09D
:10B510000024042C08D2022C02D0200002F09BF858
:10B52000641CF6E702F09FF810BD2DE9F04106001B
:10B5300000240025DFF800753878002803D00020AB
:10B540003870FFF7DFFF3000C0B2002837D0022884
:10B5500041D040D3042800F0AE8074D3062800F018
:10B560001881C0F0E180082800F02781C0F01F8119
:10B570000A2800F03E81C0F02E810C2800F0558191
:10B58000C0F045810E2800F05581C0F0538110288D
:10B5900000F05081C0F04E81122800F08281C0F08E
:10B5A0004981142800F08A81C0F08081162800F0BB
:10B5B0009881C0F08B81172800F0938196E1FFF706
:10B5C000A1FFDFF87804006801F037FE0400DFF81F
:10B5D000700406708AE1002002F026F800280CD0E2
:10B5E000002002F038F83000C0B2022802D14FF437
:10B5F000E1650DE04FF47A650AE0002002F023F8DF
:10B600003000C0B2022801D1C82501E04FF4C8754E
:10B61000DFF82C040670002217004FF40040A0FB56
:10B62000050110F57A7051F100014FF4FA62002320
:10B63000FBF734FF01003A00DFF80004006801F076
:10B64000DBFD040052E1002001F0EEFF00280CD0E9
:10B65000002002F000F83000C0B2032802D14FF4FD
:10B6600048750DE04FF47A650AE0002001F0EBFF29
:10B670003000C0B2032801D1C82501E04FF4C875DD
:10B68000DFF8BC030670002217004FF40040A0FB57
:10B69000050110F57A7051F100014FF4FA620023B0
:10B6A000FBF7FCFE01003A00DFF89003006801F0B0
:10B6B000A3FD04001AE1002001F0B6FF00280CD021
:10B6C000002001F0C8FF3000C0B2042802D14FF4BE
:10B6D0007A650EE04FF47A650BE0002001F0B3FFCD
:10B6E0003000C0B2042802D14FF4C87501E04FF415
:10B6F000C875DFF84C030670002217004FF40040B5
:10B70000A0FB050110F57A7051F100014FF4FA62C7
:10B710000023FBF7C3FE01003A00DFF820030068B6
:10B7200001F06AFD0400E1E0002001F07DFF002847
:10B730000BD0002001F08FFF3000C0B2052801D1EE
:10B74000C8250DE04FF47A650AE0002001F07BFF88
:10B750003000C0B2052801D1C82501E04FF4C875FA
:10B76000B7480670002217004FF40040A0FB050107
:10B7700010F57A7051F100014FF4FA620023FBF7E3
:10B780008DFE01003A00AD48006801F035FD04006F
:10B79000ACE0002001F07BFFA9480670002240F2D7
:10B7A0006661A648006801F027FD04009EE00020C5
:10B7B00001F049FFA248067098E00120387001208E
:10B7C00001F065FF002240F266619C48006801F0CC
:10B7D00013FD04008AE001203870012001F057FFBA
:10B7E00000224FF400519548006801F005FD040067
:10B7F0007CE001203870012001F049FF002240F276
:10B8000066618E48006801F0F7FC04006EE00120DC
:10B810003870012001F03BFF00224FF400518748AF
:10B82000006801F0E9FC040060E001F026FF8448B4
:10B8300006705BE0834F386801F0FFFC04003000C5
:10B84000C0B2D0F111000500002D23D0002C21D171
:10B85000022D18D300229046290089B2C820414306
:10B860004FF4004080FB010110F57A7051F10001A6
:10B870004FF4FA620023FBF711FE010042463868DC
:10B8800001F0BAFC0400022001F0DDFE012069494C
:10B89000087005E0022001F0DEFE00206549087016
:10B8A00024E0FFF72FFE664806701FE0FFF72AFE30
:10B8B000002001F0C8FE6248067017E0FFF722FE84
:10B8C000012001F0C0FE5E4806700FE0FFF71AFE8F
:10B8D000002001F0B8FE012001F0B5FE58480670C6
:10B8E00004E001F0CAFE56480670FFE72000BDE8FC
:10B8F000F08110B5040054480078C00703D55048C3
:10B900000078FFF712FE10BD10B50400022001F010
:10B91000BEFE10BD38B5040000254B480078C007B6
:10B9200004D52000C0B2FFF700FE0500280032BD9C
:10B93000F8B505000E000024434805603C48066049
:10B94000A80722D50027042F09D2002C07D10122F5
:10B950000121380000F030F804007F1CF3E7002CD0
:10B9600006D140F233320421384802F03AF804009C
:10B97000002C02D102F080F80400002C05D1344ADA
:10B980000021294801F024FC0400E80712D5012019
:10B9900001F0C2FE002C05D12E4A0021274801F0FB
:10B9A00017FC0400002C05D12B4A0121254801F089
:10B9B0000FFC04002000F2BD30B403000020042B73
:10B9C00029D21400E4B2012C07D10C00E4B2012CFE
:10B9D00002D113F10E0200E000220C00E4B2002CB0
:10B9E0000FD0022C06D013D20D4C032505FB03F516
:10B9F000625512E00A4C032505FB03F52C446270E6
:10BA00000BE0074C032505FB03F52C44A27004E072
:10BA10000724200001E00724200030BC704700000C
:10BA2000D8490020BB4A002040200300884A00205B
:10BA3000844A0020BA4A0020B94A00203820030076
:10BA4000B84A00203C200300804A00202018030050
:10BA5000F7B40200F3B8020009B9020070B504009F
:10BA60000D00042C0FD22800C0B2002801D00326FC
:10BA700000E00026200001F048FE3100C9B2FFF7C7
:10BA8000A1FC002000E0062070BD10B504000121DB
:10BA90002000FFF7E3FF10BDF8B504000D0016000D
:10BAA0002F003869002802D0200039698847F1BD8D
:10BAB0002DE9F84185B004000D0014275FF000085F
:10BAC0006E46424639003000FCF786FF15F10E063F
:10BAD0002878002836D1A888012833D1A879217880
