:020000040002F8
:1060000040D400206102030017800200D780020004
:1060100053A202004FBB0200A3BD0200000000001B
:106020000000000000000000000000009BDB0200F8
:10603000BFDB0200000000002FDC02002FDF0200A7
:10604000C7EE020083DF0200C1DB020013E20200A0
:1060500067E7020079FC02005D880200FFFD020094
:106060000BFE020007050300090503000B050300F2
:106070000D0503000F0503001105030013050300C0
:106080001505030069D80200170503001905030070
:106090001B0503001D05030049AB02001F0503009B
:1060A0002105030023050300250503002705030040
:1060B000290503002B05030000000000000000007C
:1060C0002D0503002F0503003105030033050300F0
:1060D0003505030037050300390503000000000003
:1060E00000000000000000000000000000000000B0
:1060F00000000000000000000000000000000000A0
:10610000000000000000000000000000000000008F
:10611000000000000000000000000000000000007F
:10612000000000000000000000000000000000006F
:10613000000000000000000000000000000000005F
:10614000000000000000000000000000000000004F
:10615000000000000000000000000000000000003F
:10616000000000000000000000000000000000002F
:10617000000000000000000000000000000000001F
:10618000000000000000000000000000000000000F
:1061900000000000000000000000000000000000FF
:1061A00000000000000000000000000000000000EF
:1061B00000000000000000000000000000000000DF
:1061C00000000000000000000000000000000000CF
:1061D00000000000000000000000000000000000BF
:1061E00000000000000000000000000000000000AF
:1061F000000000000000000000000000000000009F
:1062000010B401000022DFF8D0090068824212D2E7
:10621000DFF8C80900EB82039B788C78A34208D191
:1062200030F822000B88984203D1DFF8B4090068E7
:1062300002E0521CE7E7002010BC704738B50400AC
:106240000D002000FFF7DCFF002801D0002010E047
:10625000DFF88409016806290AD22168DFF87C2961
:10626000036842F823100168491C0160002000E027
:10627000042032BD38B504000025DFF85C09006851
:1062800085420ED2802000FB05F0204410F53470CA
:10629000802101FB05F12144D1F84C1388476D1C86
:1062A000EBE70020C4F8CC0231BD2DE9F8419FB0E6
:1062B00004000D007C260027E8463A0031004046E5
:1062C00000F0A4FCADF8025003208DF8000001940A
:1062D000DFF80C190868002802D06846096888476A
:1062E00020B0BDE8F0812DE9F8419FB004000D0019
:1062F000160094F8C6127620414304EB010840468C
:10630000FFF77EFF0700380000280AD06846DFF854
:10631000D4187C2200F0FAFCADF8026001956846C2
:10632000B84720B0BDE8F081F8B504000D001600B4
:106330002F00002087F8C802320092B221003800F6
:10634000FFF7D1FF310089B23800FFF7AEFFF1BD92
:106350002DE9F04104000D00160094F8C6127620D5
:10636000414304EB01073800FFF74AFF80464046EF
:10637000002845D0D4F8CC02062841D2D4F8CC125B
:106380008020414304EB0100A0F8D262D4F8CC1283
:106390008020414304EB010010F53570390076226E
:1063A00000F0A4FC2800C0B2002809D0D4F8CC1218
:1063B0008020414304EB0100002180F8D01208E066
:1063C000D4F8CC128020414304EB0100022180F874
:1063D000D012D4F8CC128020414304EB0100C0F865
:1063E0004C83D4F8CC02401CC4F8CC02D4F8CC02C4
:1063F000DFF8E4170968884202D12000FFF73AFF6E
:10640000BDE8F0812DE9F04188B005000E002024A0
:106410000027E8463A002100404600F0F7FB95F8D7
:10642000C702401C85F8C70295F8C702DFF8A81715
:106430000968884235D2002085F8C50295F8C60261
:10644000401C85F8C60295F8C6127620414305EB3C
:106450000107DFF8880795F8C61250F82100386068
:106460000020387102208DF800000120ADF81000E6
:106470003868CDF812000395DFF86C0702903200FF
:1064800092B26946DFF86407006800F06AFE040013
:10649000002C0ED0320092B229002000FFF744FFFA
:1064A00007E0002085F8C802310089B22800FFF714
:1064B000FCFE08B0BDE8F08110B402000B8992F830
:1064C000C6427620444302EB04000089834201D295
:1064D000012000E0002010BC704770B40400002AC6
:1064E00016D176200D8994F8C66246432644368933
:1064F000B54201D1002019E00D896D1C1D8094F872
:10650000C65200FB05F020440089588001200DE0B0
:106510000889401CD588A84201D1002006E00889DE
:10652000401C1880D088401E5880012070BC7047E5
:106530002DE9F84789B004000D0020275FF000081E
:1065400001AE42463900300000F060FB5FF0040904
:106550005FF0000A6E4652464946300000F056FB96
:10656000762194F8C602484304EB000694F8C5026D
:10657000002815D094F8C502421E94F8C60201FB0B
:1065800000F104EB010006001100C9B212204143E2
:1065900006EB01000A300089401CADF8000002E063
:1065A000F088ADF800003089ADF8020003208DF8C6
:1065B0000400009805900494DFF82C0603902A004C
:1065C00092B201A9DFF82406006800F0CAFD0AB003
:1065D000BDE8F0872DE9F64F89B004000D000026D4
:1065E0005FF020095FF0000A01AF524649463800CB
:1065F00000F00CFB94F8C6127620414304EB01072F
:106600005FF0120B94F8C5020BFB00F0384410F158
:106610000A0894F8C502401C3979884207D16B46B4
:10662000002241462000FFF758FF06002AE094F8B8
:10663000C5A250463979C0B2884223D25046C0B272
:106640003979491E884202D10020814606E0504631
:10665000C0B20BFB00F038441C3081466B464A4602
:1066600041462000FFF739FF002802D00120060034
:1066700008E0C84694F8C502401C84F8C5021AF127
:10668000010AD6E73000C0B2002803D101202870EB
:10669000002012E00020287004208DF804000098EB
:1066A00005900494DFF840050390BDF8282001A967
:1066B000DFF83805006800F054FD0BB0BDE8F08F3E
:1066C0002DE9F84F05000E0095F8C61276204143DB
:1066D00005EB01073088B5F8CA1288424BD17088A3
:1066E00000283FD116F10608D8F80600C7F80600C2
:1066F00095F8C492B8F800A05046C0B250FA89F09C
:10670000072806DA95F8C4021AEB000085F8C402DF
:106710001BE0062085F8C402DFF8D444DFF8D4B4C7
:10672000DFF8D414BBEB0400C008000450F00200F2
:1067300001F006F8DFF8C414BBEB0404E4082404F9
:1067400054F00204200000F0FBFF31882800FFF71E
:10675000EFFE0400002C0ED0328829002000FFF745
:10676000E3FD08E0328800212800FFF7F1FD3188C1
:106770002800FFF747FEBDE8F18F2DE9FE4F04002A
:106780000D0000262888B4F8CA12884240F0B38071
:1067900094F8C6127620414304EB0107688800286C
:1067A00040F08480A81D029038798DF8000002988E
:1067B000B0F800809DF8000050FA88F0072804DA4D
:1067C000387918EB000038711DE006203871DFF8C9
:1067D0002094DFF820A43A88DFF82414BAEB0900EB
:1067E000C008000450F0020000F0B4FFDFF81414F9
:1067F000BAEB09095FEAD9095FEA094959F00209C8
:10680000484600F09DFF9DF800905FF0000A38793F
:10681000814528D25FF0120B0BFB09F038440A3097
:1068200002990A2202FB0AF21144891C0A2200F092
:106830005DFA00200BFB09F13944888200200BFB34
:1068400009F13944C88200200BFB09F1394408835F
:1068500000200BFB09FB07EB0B01488319F1010931
:106860001AF1010AD3E7122000FB09F03844B0F115
:10687000080B59462000FFF71FFE002802D0387988
:10688000062802D10120060012E0387984F8C502FA
:1068900029882000FFF74CFE01900198002807D0BE
:1068A0002A8821000198FFF73FFD24E0012006001F
:1068B0003000C0B200281ED0002084F8C5022A880B
:1068C00069462000FFF786FE01900198002805D058
:1068D0002A8821000198FFF727FD0CE09DF80000B1
:1068E000002808D02A8801212000FFF731FD2988DF
:1068F0002000FFF787FDBDE8F78F2DE9F84304007E
:106900000D002888B4F8CA12884240F0818094F8BB
:10691000C6127620414304EB0106AF1D94F8C51260
:106920001220414306EB010010F10A086888002894
:1069300040D10021388881423CD2062000FB01F280
:106940003A4492884FF42453D21A0DD0521E12D0DA
:10695000521E02D0921F15D01AE000FB01F03844FD
:106960004088A8F80A0013E000FB01F03844408892
:10697000A8F80C000CE000FB01F038444088A8F8AF
:106980000E0005E000FB01F038444088A8F8100034
:10699000B8F80A0000280BD0B8F80C00002807D07F
:1069A000B8F80E00002803D0B8F81000002801D174
:1069B000491CBFE700208DF8000094F8C502401C78
:1069C0003179884203D101208DF8000013E094F85A
:1069D000C502401C84F8C5022A8869462000FFF7DA
:1069E000F9FD8146B9F1000F05D02A8821004846FB
:1069F000FFF79AFC0CE09DF80000002808D02A88D8
:106A000001212000FFF7A4FC29882000FFF7FAFCF1
:106A1000BDE8F18301000022002901D10E2016E01B
:106A20000868002801D10E2011E04868002801D133
:106A30000E200CE00020684B18600120724B18708B
:106A40000868674B18604868684B1860100070470A
:106A500010B50400002C01D10E200AE06A4800782D
:106A6000012801D0082004E05D4801682000FFF7FC
:106A7000E5FB10BD2DE9F84F88B004000D004FF480
:106A8000BA675FF00008260042463900300000F087
:106A9000BDF85FF020095FF0000A6E465246494695
:106AA000300000F0B3F8DFF844B1290089B2DBF818
:106AB000000000F0D3FB06003000002831D1A4F81C
:106AC000CA520020C4F8CC02002084F8C70200207B
:106AD00084F8C602002084F8C50294F8C612762015
:106AE000414304EB01073D4894F8C61250F82100D9
:106AF000386002208DF800000120ADF810003868E1
:106B0000CDF812000394384802902A0092B26946E8
:106B1000DBF8000000F025FB002802D1012184F8F9
:106B2000C81209B0BDE8F08F38B504000D00002C84
:106B300001D10E2016E034480078012801D0082049
:106B400010E025480068002801D108200AE094F8E8
:106B5000C802002801D0112004E0290089B22000D9
:106B6000FFF788FF32BD0A88B0F8CA329A4206D1D0
:106B7000002280F8C8224FF6FF72A0F8CA227047A0
:106B800070B505000C00002D24D0002C22D01E482A
:106B9000007801281ED126002888112815D0302819
:106BA00004D0322807D033280AD013E0291D300042
:106BB000FFF786FD0EE0291D3000FFF7DEFD09E03E
:106BC000291D3000FFF799FE04E0291D3000FFF772
:106BD000CAFFFFE770BD000000B40020B8B200207B
:106BE000F8B3002070F2020029630200FCB3002019
:106BF000D8F10200E8F102009CFC0200CCF5020092
:106C000014F60200ECF202002FB4002062F30F220F
:106C100062F31F42401810F0030308D0C91A1FD3B3
:106C2000DB0748BF00F8012D28BF20F8022D130014
:106C300030B414461546103928BF20E93C00FAD874
:106C4000490728BF20E90C0048BF40F8042D8900FF
:106C500028BF20F8022D48BF00F8012D30BC704736
:106C6000C91818BF00F8012DCB0728BF00F8012D67
:106C70007047F0B40246106895681318506803EB2B
:106C80005004C0071DD54D441BE013F8017B05F8E7
:106C9000017B491EF9D1A0B1B60813F8011B06F01B
:106CA0000306032E08BF13F8016B01EB06214942CE
:106CB000801C294405D011F8016B05F8016B401EBA
:106CC000F9D1A3420ED013F8016B16F0030104BFF3
:106CD00013F8011BC91C30090F28DAD113F8010B76
:106CE0000F30D6E7F0BC02F10C00704762B38B079F
:106CF00008D0521E11F8013B00F8013B00F024803F
:106D00008B07F6D1830740F0208000BF103A07D3ED
:106D100030B4B1E83810103AA0E83810F9D230BCDD
:106D2000530724BFB1E80810A0E8081044BF51F889
:106D3000043B40F8043BD20724BF31F8022B20F873
:106D4000022B44BF0B7803707047121F17D35B00F0
:106D500009D151F8043B20F8023B1B0C121F20F80C
:106D6000023BF6D20BE051F8043B00F8013B1B0A52
:106D700020F8023B1B0C121F00F8013BF3D238BF76
:106D8000121D521E24BF11F8013B00F8013BF8D838
:106D9000704730B4002513E050F8042BD30744BFEC
:106DA000A9F101039A18091F042942F8045BFAD2D9
:106DB00013468C0744BF15809B1CC90748BF1D7034
:106DC00050F8041B0029E7D130BC704770B50400AF
:106DD0000D0015F11006F088112801DB092010E0E4
:106DE000F188200000F0F6FE68606868002801D194
:106DF000042006E00023F288B168686800F0D9FF3B
:106E0000002070BD70B504000D0015F11006B068CB
:106E10000088112801DB092019E0B0680188891C6D
:106E2000200000F0D7FE68606868002801D10420C7
:106E30000DE000230222B168686800F0BAFF022367
:106E4000B0680288F168686800F0B3FF002070BD88
:106E5000F8B506000F001400002C19D000943B0078
:106E60009BB23278DFF8E013DFF8E003DFF8E0539D
:106E7000401BC008000450F0010000F085FCB06821
:106E8000002805D03A0092B2F1682000B368984714
:106E9000F1BD78B591B005000E00012201A92800CE
:106EA00001F044F80400002C7DD19DF80400002876
:106EB00008D002281ED00ED304282AD023D30528B8
:106EC0002DD04FE0BDF81620BDF81410300080B270
:106ED000A1DF040050E00DA807900023BDF81A20A0
:106EE0000799029800F074FF05A9300080B2A3DF73
:106EF000040041E00DF11602BDF81410300080B21C
:106F00009BDF040038E005A9300080B29DDF04005B
:106F100032E005A9300080B29EDF04002CE009A811
:106F20000890002302226946029800F051FF68464B
:106F300007900223079802880899029800F048FFFA
:106F4000BDF8002005A9300080B2AEDF0400002C9F
:106F500007D11000BDF8001080B2884201D00C208B
:106F6000040009E0BB49B948B94A801AC0080004C6
:106F700050F0020000F0E4FB112C14D0B6489DF84C
:106F8000041050F82100002802D0029800F061FEA1
:106F9000002201A9280000F0C9FF2200310089B2B7
:106FA00001A8FFF755FF12B070BDF0B589B006001B
:106FB00000226946F06800F0B9FF0500002D26D1D7
:106FC000B168BDF800201420424301EB0207002203
:106FD00001A9380000F0AAFF0400002C10D19E483F
:106FE0009DF8041050F82100002802D0029800F00B
:106FF00030FE002201A9380000F098FF0400ECE701
:1070000000226946F06800F091FF0500D6E709B05C
:10701000F0BD70B505000E0000242878002808D0C7
:10702000022814D00CD3042820D018D3052824D04B
:1070300036E06A8A298A300080B2A1DF040039E094
:1070400015F11001300080B2A3DF040032E015F129
:107050001202298A300080B29BDF04002AE015F179
:107060001001300080B29DDF040023E015F1100113
:10707000300080B29EDF04001CE0A869028815F190
:107080001001300080B2AEDF0400002C07D11000E8
:10709000A969098880B2884201D00C20040009E067
:1070A0006C496A486A4A801AC008000450F002001D
:1070B00000F046FB112C01D1002006E02200310037
:1070C00089B22800FFF7C4FE012070BD30B4020071
:1070D0000020030014889BB2A3420CD20B0054681A
:1070E0000500ADB234F815409BB2A34201D180B285
:1070F00002E0401CEDE780B230BC704710B40200E3
:1071000000231800148880B2A04211D250681C00DD
:10711000A4B230F814004FF6FF74A04206D15068B4
:107120001C00A4B220F81410002002E05B1CE8E769
:10713000042010BC70470100002210000B8880B2B0
:1071400098420CD2486813009BB230F813004FF6F7
:10715000FF73984201D0012002E0521CEDE70020AD
:1071600070472DE9F84F04000D0016005FF000088D
:10717000002C01D10E2064E0002D01D10E2060E032
:107180002000FFF712FF310089B22000FFF79EFFB9
:1071900007002878062804DA3800218880B288425F
:1071A00001D107204DE05FF01409A068390089B2D1
:1071B00009FB01F1084400F010FF00280BD031005A
:1071C00089B22800FFF725FF01000800C0B200289F
:1071D00001D0404635E0DFF880A028785AF820003A
:1071E00000280ED02069002801D10E2029E02900B6
:1071F00020692A785AF82220904780464046002885
:107200001FD12900A0683A0092B209FB02F2104493
:1072100000F020FE8346BBF1000F07D028785AF813
:107220002000002802D0686800F013FD310089B208
:10723000A0683A0092B209FB02F94844FFF729FE20
:107240005846BDE8F28F0000E8F4020000F20200A8
:10725000D8F102006CFE02002CFF0200F8B5040019
:107260000D000026002C01D10E2020E02000FFF7A9
:107270009CFE290089B22000FFF728FF0700380094
:10728000218880B2884211D12000FFF754FF0028E6
:1072900003D1206900F098FC0600290089B2200083
:1072A000FFF72CFF06003000002800D13000F2BDAF
:1072B000F8B504000E003500002C01D0002D00D1DF
:1072C0003BE02088112801D1A78810E020883028D1
:1072D00004DB2088502801DAA78808E0208850289D
:1072E00004DB2088702801DAA78800E025E0390057
:1072F00089B22800FFF7EAFEADF80000BDF80000F3
:107300002988884219D0208811280BD14FF6FF70A8
:107310006968BDF8002021F812006946E86800F0AD
:1073200099FD0AE0390089B2AA68BDF8003014203E
:10733000434302EB0300FFF7ACFDF1BD38B5040099
:107340000D002900200022681268904731BD10B559
:107350000400200021684968884710BD10B504006A
:10736000200021688968884710BDC2681171704784
:10737000C068007970470121C26851717047C068C8
:107380004079704770B505000E00DFF81408FF2142
:10739000816000210160002141600021C0F81814C3
:1073A0000021C0F81414002180F82014DFF8F4073D
:1073B00000F00AFC0400002C01D020000AE0DFF8F5
:1073C000E80700F015FEDFF8E407DFF8E417411ADC
:1073D000C908002070BDDFF8D407DFF8D417401AC1
:1073E000C008704770B504000D002800C0B2002826
:1073F00014D0FFF7F0FF010000228A420CD2DFF820
:10740000B40700EB820318882668B04202D12260DC
:10741000002004E0521CF0E7052000E0002070BDD1
:1074200011B581B00C002100C9B201A8FFF7DAFF45
:10743000002806D1DFF88007019900EBC100006841
:1074400000E0002016BD0200DFF86C0700EBC2036D
:107450000800C0B2012806D00DD3032807D004D3FA
:10746000042806D007E0022006E0042004E0187992
:1074700002E0587900E00020C0B2704710B4030069
:1074800000201A68C2F38002002A18D01A7812F07D
:107490000302012A02D0022A08D00EE00A681C6802
:1074A000C4F38314A41CA2180A6006E00A681C68CE
:1074B000A40DA41CA2180A60FFE701221000C0B2AC
:1074C00010BC70472DE9F84384B00024DFF8D05693
:1074D00015F5836000F0F1FD05F21449484600F00F
:1074E000ECFD68680090AE680098304005EB8000C5
:1074F00010F10C0769463800FFF7C0FF002806D0DE
:107500000098304005EB80000C300700F2E75FF098
:107510000008B8F1020F0DD20098304005EB800052
:10752000C06801A941F828000098401C009018F19B
:107530000108EEE7019810F0030001280CD00228A2
:1075400014D1BDF80A00040000980199890DC91CE6
:1075500010EB9100009009E0BDF80A0004000099CA
:107560000198C0F3831041180091FFE7484600F0EE
:10757000ABFD0100002901D000986860A4B2200092
:1075800005B0BDE8F08380B50021DFF8300600F0DB
:1075900043FD010081F3100002BD2DE9F843040012
:1075A0000D0016001F00DDF82080A1465FEA194992
:1075B000FFF7E9FFDFF8E8157A1C18EA020201EB91
:1075C000820259EA0043D36018EA070201EB820104
:1075D0000C310A6864F3C5020A600A6866F389120E
:1075E0000A600A6865F39F220A6001220B6862F351
:1075F00001030B600A6832F004020A60BDE8F183FF
:107600002DE9FE4F04000D001600A01C019001277B
:1076100000208DF80000684600F0AEFDDFF88085A0
:10762000D8F800002860D8F80800401CD8F800906E
:10763000B0EB0909D8F8040010EB0909019881455D
:1076400017D208F21C4B0121584600F01BFDFFF732
:1076500039FF82465146584600F014FDD8F808100C
:10766000491CD8F80000091AD8F8040041188946C6
:10767000E4E73800C0B2002823D000213000C0B2B7
:10768000002807D0012060F3010151F0040164F3E8
:10769000891106E0022060F3010151F0040164F356
:1076A0009F51D8F80020D8F80800024008EB82006B
:1076B00010F10C021160D8F800300198C318C8F816
:1076C00000309DF8000000F05DFD3800C0B2BDE85C
:1076D000FE8F2DE9FE4F04000D0016001F00DFF89D
:1076E000C094D9F80880012201A93800FFF788FF6B
:1076F00000281BD0DDF804A01AF1020A5FF0000B8D
:10770000BB450BD218EA0A0009EB800056F82B1093
:10771000C1601AF1010A1BF1010BF1E7CDF80080FD
:10772000019B3A0029002000FFF737FF99F8200459
:10773000002803D000F069F80028FBD1BDE8F78FDE
:1077400038B504000D000023002229002000FFF7B7
:10775000C0FF31BD7CB504000D001600009601236A
:107760006A4629002000FFF7B4FF73BDFEB5040090
:107770000D0016001F000096019702236A4629009B
:107780002000FFF7A6FFF7BD2DE9FF4104000D0023
:1077900016001F00DDF8288000960197CDF80880BC
:1077A00003236A4629002000FFF793FFBDE8FF810D
:1077B0002DE9F84F86B004000D0016001F00DDF81B
:1077C0004080DDF84490DDF848A0DDF84CB000962C
:1077D0000197CDF80880CDF80C90CDF810A0CDF829
:1077E00014B006236A4629002000FFF772FF07B095
:1077F000BDE8F08FDFF8A80341680068814201D13D
:10780000012000E00020C0B270472DE9F04F8BB09E
:10781000FFF7F0FF002801D000205FE1DFF8807360
:107820000020C7F81804BFF34F8F78680090B8683D
:10783000029000990298014007EB81000C300990FA
:10784000002500260020089069460998FFF716FEDB
:10785000002813D0D7F8180400280FD100983968F1
:10786000884203D338687860002037E10099029895
:10787000014007EB81000C300990E5E75FF000085C
:10788000B8F1020F0ED200990298014007EB810077
:10789000C06803A941F828000098401C009018F126
:1078A0000108EDE7039810F00300022840F07F8004
:1078B000DDF80C905FEA99590398800D502804DA9E
:1078C000DDF80CA05FEA9A5A01E05FF0500A0398D5
:1078D0006AF39F5003901AF108000A900398C0F3CE
:1078E000C20008900A99AF4800F074F90500002D15
:1078F00000F0A280280000F0D3F93300082203A989
:10790000280000F056FA08360299491C009A02989D
:107910000240891A8C00544535D2002C07D00099BA
:107920000298014007EB81000C30079002E017F14C
:107930000C000790002C01D0A34600E0D346002C99
:1079400003D017F10C00069001E000200690002CF7
:1079500002D0BAEB040000E000208DF804003300F0
:107960005A46D2B20799280000F023FA56FA8BF64D
:107970000698002814D033009DF8042006992800AA
:1079800000F017FA0CE000990298014007EB810023
:1079900010F10C0B330052465946280000F009FA4A
:1079A000009819F1030910EB9900009044E0039846
:1079B00010F0030001283FD10398C0F3831006287C
:1079C00003DA0398C0F3831000E00620039960F304
:1079D000891103910398C0F38314A41C0398C0F386
:1079E000C2000890A1006F4800F0F4F80500002DD7
:1079F00022D0280000F054F93300082203A92800FF
:107A000000F0D7F90836002080460398C0F38310B1
:107A1000804511D20099481C00903300042202983E
:107A2000014007EB810010F10C01280000F0C1F9C2
:107A3000361D18F10108E8E7002D33D0D7F81044BF
:107A4000D7F81804002803D0280000F031F93DE0F1
:107A5000002C13D05FF000092000FFF790FC0128F4
:107A600001D1012081464846C0B2002803D0290038
:107A70002000FFF763FCE0680468E9E7280000F0F5
:107A800017F900208DF8040001A800F075FBD7F865
:107A90001804002801D1009878609DF8040000F0D7
:107AA00071FB13E0D7F81044002C05D02000FFF73D
:107AB00055FCE0680468F7E7414942483C4A801AAF
:107AC000C008000450F00200FFF73AFEFFF792FEF4
:107AD000002801D1012000E00020C0B20BB0BDE8B9
:107AE000F08F70B500260A2E1ADA2D48D0F810044F
:107AF000040001200500002C0AD02000FFF738FC0C
:107B0000B04202D10020050002E0E0680468F2E71C
:107B10002800C0B2002801D0300003E0761CE2E764
:107B20005FF0FF3070BD70B504000D00FFF7D9FFA6
:107B3000060016F1010F01D130001BE030000100FA
:107B4000C9B22000FFF711FC1549D1F81004002834
:107B500005D1C1F810440020E168086009E0D1F8BF
:107B60001004C0680068E2681060D1F81004C068B2
:107B70000460300070BD10B50948D0F810440121F0
:107B800080F82014002C08D02000FFF7F4FB200020
:107B9000FFF7DDFBE0680468F4E710BD00000000BB
:107BA00038A2002068010300FC02030070F202000A
:107BB000D8F1020000000000D8F1020054A6002015
:107BC000A000030018F2020010B50400200000F02D
:107BD000EEFA10BD2DE9F84F06000F00B6F8108040
:107BE000B8F1040818EB0700C01CB0FBF8F930002E
:107BF00000F0FBFA0500002D01D1002027E0002055
:107C0000287101206871A5F806800095CA465FFAC0
:107C10008AFABAF1010A009806605FF0000BD345BA
:107C200014D2300000F0E1FA0400002C09D0687989
:107C3000401C687100980460266000941BF1010BE1
:107C4000EDE7280000F005F8002000E02800BDE87E
:107C5000F28F2DE9F84F05002E0077792900B846FC
:107C60005FFA88F8B8F101080020404502D209689F
:107C7000401CFAE7D1F80090AA465FF0000B3800EC
:107C8000C0B283450AD2DAF80000040051464846E3
:107C900000F0D7FAA2461BF1010BF0E7BDE8F18F27
:107CA00038B5040025000121281D00F0EBF931BD95
:107CB0007CB5040025000121281D00F0F1F9009099
:107CC0006E463078002802D12000FFF7C2FF73BD56
:107CD0002DE9FF4F87B007980190DDF81C800198CF
:107CE000C688019840794643361F0198C0880090A5
:107CF0000A98001D0099B0FBF1F50A99091D00983A
:107D0000B1FBF0F7009800FB1717099801680A9873
:107D100041188E4202D20A9C341B01E00998046883
:107D200009980460002D03D0D8F800806D1EF9E793
:107D30005FF00009DDF800A0BAEB070A544501D254
:107D4000A246FFE7002C31D008984844039008EB86
:107D50000700001D02909DF8500000280BD0CDF8C0
:107D600014A002980490DDF80CB0059A04995846C6
:107D7000FEF7BCFF0AE0CDF814A003980490DDF8EC
:107D800008B0059A04995846FEF7B0FF0020070096
:107D9000D8F80080B4EB0A041AEB09090098844271
:107DA00001D2A246CEE7DDF800A0CBE70BB0BDE8DC
:107DB000F08FFEB504000D0016001F000196002094
:107DC00000903B0001AA29002000FFF781FFF7BDCA
:107DD000FEB504000D0016001F0001960120009062
:107DE0003B0001AA29002000FFF772FFF7BD000049
:107DF0008068024909784018704700003A0503007E
:107E00008068814201D2491C00E0002108007047CF
:107E100070B504002068056820684668AE4201D34A
:107E2000751B04E02000FFF7E3FF451B75192800D0
:107E300070BD70B504002068056820684668310090
:107E40002000FFF7DDFFA84201D1012000E0002063
:107E5000C0B270BD2DE9F84F04000D0000260020CF
:107E60008DF80000684600F087F92000FFF7E1FF79
:107E700007003800C0B2002802D0207C00284CD176
:107E80002068D0F80480206841682000FFF7B8FF20
:107E9000216848603800C0B2002806D02068016818
:107EA0002000FFF7ADFF21680860E068012806D0D8
:107EB000022809D004280CD008280FD016E0287812
:107EC000616801F808001EE02888616821F8180040
:107ED00019E02868616841F8280014E0D5E900013C
:107EE000626802EBC802C2E900010CE0D4F80C9011
:107EF000AA466068D4F80CB00BFB080B4A46514602
:107F00005846FEF7F3FE2000FFF782FF21688968DC
:107F1000814204D22168886001E0042006009DF8B7
:107F2000000000F02FF93000BDE8F28F2DE9F84F86
:107F300004000D001600002700208DF800006846A0
:107F400000F01AF9200000F048F800283CD1206821
:107F5000D0F800803000C0B2002806D12068016847
:107F60002000FFF74DFF21680860E068012806D077
:107F7000022809D004280CD008280FD016E0606829
:107F800010F80800287021E0606830F81800288098
:107F90001CE0606850F82800286017E0606800EB7B
:107FA000C800D0E90001C5E900010FE0D4F80C9049
:107FB0006068D4F80CA00AFB080AAB464A46514652
:107FC0005846FEF793FE01E0052007009DF80000EB
:107FD00000F0D8F83800BDE8F28F0168096802683F
:107FE0005268914201D1012000E00020C0B27047E8
:107FF00000218268916000218268116100218268FD
:10800000516100218268D1600021826851600021A5
:10801000826811607047FEE710B4020052E8000F5A
:108020000B4642E8003494F0000FF7D110BC7047C3
:1080300010B4020052E8003F43EA010042E80004A5
:1080400094F0000FF6D110BC7047000010B402008D
:1080500052E8000F00EA010342E8003494F0000FF8
:10806000F6D110BC7047000010B4020052E8003F87
:1080700003EA010042E8000494F0000FF6D110BCBE
:108080007047000010B4020052E8003F03EB01000B
:1080900042E8000494F0000FF6D110BC70470000D5
:1080A00010B4020052E8003FA3EB010042E80004D4
:1080B00094F0000FF6D110BC704710B504000121F8
:1080C0002000FFF7B5FF10BD10B50400002120000F
:1080D000FFF7BCFF10BDFEE7EFF3108072B67047EC
:1080E00062B6704738B50500FFF7F6FF04001C497B
:1080F0008868002810D1012088601A481A4A13683D
:1081000003400B601060194802684A605FF0FF315D
:1081100001600020287001E001202870002C01D1AE
:10812000FFF7DEFF002032BD70B505000C4EB068D1
:10813000002812D02800C0B200280ED1FFF7CCFFD3
:10814000040030680A49086070680A490860002025
:10815000B060002C01D1FFF7C3FF002070BD00000C
:1081600038B30020FC06FFBD80E100E084E100E0C0
:1081700000E100E004E100E010B504002000FFF79A
:10818000B1FF10BD10B504002000C0B2FFF7CCFF56
:1081900010BDC268C9B2008A414302EB01007047BA
:1081A000C268891A008AB1FBF0F0C0B2704710B4FF
:1081B0000100002901D10E2015E088684A68821A62
:1081C00048680B6818601000421EC0B2002806D034
:1081D00008680068431C0C6823600270F3E7002005
:1081E0000B681871002010BC704738B504000025DA
:1081F00000208DF800006846FFF7BEFF6068216828
:108200000968884217D220680068401E216808600B
:108210002068006801782000FFF7BBFF0500A16817
:1082200020680068081A216809790200D2B29142D8
:1082300001D2216808719DF80000FFF7A3FF280014
:1082400032BDF8B504000D002E0000208DF80000AE
:108250006846FFF791FF20680768781C216808606E
:1082600031002000FFF79CFF38709DF80000FFF7F9
:1082700089FFF1BD012210F01F018A40DFF81418B8
:1082800003005BB25B0941F82320704710B4020081
:1082900052B2002A0AD54A01DFF8FC37040064B262
:1082A00014F00F04234403F8042C05E04A01DFF81E
:1082B000EC37040064B21A5510BC704738B504009E
:1082C0000D002900C9B2200040B2FFF7DFFF31BD29
:1082D00010B50400200040B2FFF7CCFF10BD10B570
:1082E0000400200000B200F018F80068012801D155
:1082F000012000E00020C0B210BD1CB50400200029
:1083000000B200F00AF800210160200000B200F085
:1083100004F800680090009813BD00B200F180409E
:1083200010F5C0407047DFF8781708607047DFF835
:108330007017096808407047DFF8681751F8202067
:1083400052F0010241F82020704770B4DFF8544722
:1083500054F82050DFF850371D4044F8205054F8AE
:1083600020300D0215F4F8551600F6B2360416F456
:10837000403635432B4344F8203070BC7047DFF85B
:10838000241751F82000C0F304207047DFF81417B9
:1083900051F82000000C10F00300704701005FF05E
:1083A000A04070472DE9F14181B00E0017009846BA
:1083B000089C099D01A8FFF7F1FF3100C9B23A00FE
:1083C000D2B251EA42014246D2B251EA82012200BF
:1083D000D2B251EA02212A00D2B251EA0241019AF4
:1083E00000EB8202C2F80017BDE8F3813EB504003D
:1083F0000D0000200190002000902B00DBB2002235
:1084000000212000FFF7CEFF37BD01B56846FFF71A
:10841000C5FF009900EB8101D1F8001731F002018E
:10842000009A00EB8202C2F8001701BD11B581B0BD
:108430000C0001A8FFF7B2FF019900EB8101D1F810
:10844000001731F44031019A00EB8202C2F80017A4
:10845000019900EB8101D1F800172200D2B251EA54
:108460000241019A00EB8202C2F8001713BD11B558
:1084700081B001A8FFF792FF0400200000F012F87D
:108480000199C84010F0010016BD01B56846FFF71C
:1084900085FF009900EB8100D0F80007000C10F078
:1084A000030002BDD0F810057047F8B504000D00B8
:1084B00016006846DFF8F4150A68026027002819DC
:1084C000874208D2684650F82700FFF7EBFF30607C
:1084D000361D7F1CF3E7F1BD10B40A000300DB0872
:1084E00010F00700012414FA00F0D25C104010BC18
:1084F000704730B40A000300DB0810F00700D45CBA
:10850000012585402C43D45430BC7047DFF8A015BA
:1085100001EB000292F93020002A06D4084490F9B9
:108520003000082801DA012000E00020002801D0F6
:10853000012000E00020C0B27047DFF87415084445
:1085400090F93000082801DB012000E00020C0B2D3
:108550007047DFF85C15084490F93000002801D41A
:10856000012000E00020C0B2704730B4DFF8405571
:1085700005EB000484F8301045F821201C00E4B21B
:10858000002C03D105EB010484F8480030BC70478F
:108590005FF0FF31DFF81825024482F83010704791
:1085A00010B50400DFF80C152000FFF7A2FF10BD86
:1085B000DFF8FC14084490F930007047DFF8F0143D
:1085C00051F8200070472DE9F04704000D00160017
:1085D0005FF0FF373000C0B2002802D05FF0000823
:1085E00001E05FF008083000C0B2002802D05FF060
:1085F000080901E05FF00C09C246CA4513D2DFF852
:10860000B00450F82A0010F1010F09D13300DBB299
:108610002A0051462000FFF7A8FF5046070002E05D
:108620001AF1010AE9E7380040B2BDE8F087DFF847
:1086300080145FF0FF320300DBB241F82320020018
:10864000D2B2082A06DB5FF0FF320300DBB2194426
:1086500081F8482070472DE9F041DFF8544494F840
:108660005800002801D0082031E000263000C0B2B8
:10867000202805DA3000C0B2FFF78AFF761CF5E744
:1086800000252800C0B20C2805DA2800C0B2FFF788
:10869000CEFF6D1CF5E70426002714F154083A00BC
:1086A00031004046FEF7B2FA06210620FFF706FE2B
:1086B0000620FFF70DFE4FF4BE70FFF71EFE5FF0C1
:1086C0000040FFF730FE012084F858000020BDE88C
:1086D000F081DFF8DC0390F85800002801D0012079
:1086E00000E00020C0B270472DE9F04104000D0009
:1086F000160000272000FFF72CFF002802D00820DA
:10870000070046E0AA78D2B2520812F00102310006
:108710002000FFF758FF8046404640B210F1010F9D
:1087200035D0A878C0B2800810F0010000280FD121
:10873000A87810F00100002803D02000FFF765FEA4
:1087400003E069782000FFF751FE2000FFF728FFC3
:10875000A878C0B2400810F00100002806D02A789E
:108760002100404640B2FFF7F0FD12E0DFF8400381
:10877000414649B2014491F8481095F9002051EA68
:1087800082114FFA88F8404480F8481001E0042034
:1087900007003800BDE8F0812DE9F04104000D002C
:1087A0002000FFF7CAFE002825D02000FFF700FFB9
:1087B000DFF8FC1240B2084490F848804746FFB208
:1087C000BF093800C0B2032808D12000FFF74FFED0
:1087D000002801D0032608E0022606E03800C0B2D7
:1087E000012801D1022600E003263100C9B2200091
:1087F000FFF71CFE24E02000FFF788FE00281FD0B2
:108800002000FFF7D5FE0600B70017F5807730008F
:10881000FFF792FD380000B2FFF76FFD2800C0B2ED
:1088200000280DD02000FFF7C3FE40B2FFF7C6FEC0
:1088300080464046002803D00120B040FFF773FD7A
:10884000BDE8F08110B504002000FFF710FE0028FD
:1088500001D0012000E00020C0B210BD2DE9F84F8A
:1088600086B00020019002A8002101604FF48070C2
:10887000ADF8020001250026082E19D2BDF902002C
:10888000FFF72DFD00280BD02800FFF750FD002832
:1088900006D0BDF90200FFF730FD01982843019092
:1088A0006D00BDF80200001DADF80200761CE3E784
:1088B0004FF4BE70FFF713FD00280CD04FF4BE70CC
:1088C000FFF71BFD019850F00040019002AA012122
:1088D0000020FFF7EAFD019800061ED001200500E8
:1088E00000200600082E18D20198054212D0300050
:1088F000FFF745FD04003000FFF748FD070030009A
:10890000FFF75CFE80464046002803D03900C9B21C
:108910002000C0476D00761CE4E70198002840F174
:10892000B480002704A8002101600024002C06D197
:108930005FF0FF3005A941F82400641CF6E7002031
:10894000070000200600042E65D2594800EB0601FE
:1089500091F850108DF801109DF8018038F0C00892
:10896000304490F9500010F1010F52D005A9404653
:10897000FFF7B2FD00284CD09DF80100C0B280097D
:108980008DF800004046FFF713FE40B2FFF716FED9
:1089900081464846002803D19DF80000032838D1BD
:1089A0009DF80000032803D104A94046FFF7A1FD6C
:1089B0004046FFF76AFD824602A94046FFF78CFD5C
:1089C00003900398002803D05046C0B2022806D076
:1089D000039800281DD15046C0B2032819D19DF834
:1089E000000003280ED15046C0B2022802D15FF029
:1089F000030B01E05FF0020B5946C9B24046FFF796
:108A000015FD7F1C4846002803D09DF80010404605
:108A1000C847761C97E73800C0B2002830D05FF016
:108A2000010803AA01210020FFF73FFD00200400F8
:108A3000002C0CD103A850F8240002A951F82410EE
:108A4000884202D00020804601E0641CF0E74046E6
:108A5000C0B2002802D00020070011E0002004006E
:108A6000002C0DD103A850F8240002A941F82400DD
:108A700004A850F8240005A941F82400641CEFE77D
:108A80003800C0B200287FF45AAF07B0BDE8F08FBD
:108A90000000000000E100E018ED00E000E400E06C
:108AA0000463004010650040FFE0FCFFF004030099
:108AB00024B0002078B0002010B50400200000F0A1
:108AC0001BFC10BD70B5DFF8940700F02AFE05000E
:108AD0002C00002C02D0200000F00EFC012001F040
:108AE00055F906003400002C02D0200000F004FCF0
:108AF00070BDF8B584B005002878042826D0062873
:108B000002D0072809D031E0686806003400002C44
:108B100002D0200000F0F0FB28E06F68B8790390E5
:108B20007879029038790190F8780090BB787A785B
:108B3000DFF82C17DFF82C07DFF82C47001BC008E4
:108B4000000450F00300FEF733FE0FE0DFF81C17BF
:108B5000DFF81007DFF81027801AC008000450F073
:108B60000300FEF7EDFDFFF7ADFFFFE705B0F0BD39
:108B70002DE9FF41102500266C4632002900200017
:108B8000FEF744F801208DF8040001208DF80C0058
:108B9000DFF8C886DFF8D8266946404600F07CFD3D
:108BA00007003C00002C02D0200000F0A5FBDFF8FD
:108BB000C4260321404600F048FC05002C00002C90
:108BC00002D0200000F098FB00220421404600F073
:108BD00054FC06003400002C02D0200000F08CFB76
:108BE000BDE8FF8110B504006288DFF88C16DFF85D
:108BF0007406DFF87436C01AC008000450F0030091
:108C0000FEF7A8FD2100DFF874266388182043438F
:108C100002EB030001F088F910BD2DE9F0410600D8
:108C20000F005FF00008380080B2804521D216F8AE
:108C3000080001F04FFC0400002C15D0112C13D0BB
:108C40004246DFF83C16DFF81C06DFF81C36C01A77
:108C5000C008000450F00100FEF77CFD2500002D47
:108C600002D0280000F048FB112CE0D018F10108D8
:108C7000D9E7380080B2304410F8010C0D2804D137
:108C80000A2001F027FC1128FAD0BDE8F0812DE977
:108C9000F84305002878002803D0022854D064D374
:108CA00074E0DFF8E075DFF8E0853888404401F0D3
:108CB000F2FB3888401C38803888404410F8010C9A
:108CC0000A280BD03888404410F8010C0D2805D034
:108CD0003888DFF8B8150988884234D35FF0000976
:108CE00001F02EFD4946C9B2814228D24A46D2B28D
:108CF000DFF89C15DFF86C05DFF86C35C01AC0088A
:108D0000000450F00300FEF725FD3A884146DFF8E5
:108D10006C354C46E4B21820444303EB040001F0E8
:108D200024FA0600082E07D0132E05D03400002C9C
:108D300002D0200000F0E0FA19F10109D0E7132E6B
:108D4000CCD00020388021E0DFF84815DFF814058A
:108D5000DFF81425801AC008000450F00100FEF767
:108D6000EFFC686800F0C8FA10E0DFF82C15DFF8B7
:108D7000F404DFF8F424801AC008000450F0010065
:108D8000FEF7DEFC686800F0B7FAFFE7BDE8F183A4
:108D90002DE9F04705000E003078002803D00228A6
:108DA00039D033D346E0DFF8C094DFF8B8A4DFF859
:108DB000EC14BAEB0900C008000450F00300FEF701
:108DC000BFFC16F10E027188280001F02BFA8046D4
:108DD0004446002C02D0200000F08EFA280001F05A
:108DE000AFF907003C00002C02D0200000F084FA0C
:108DF000DFF8AC14BAEB09095FEAD9095FEA09495F
:108E000059F003094846FEF79BFC13E0B189B068AE
:108E1000FFF703FF0EE0DFF88C14DFF84804DFF8FB
:108E20004824801AC008000450F00300FEF788FCB4
:108E3000FFF748FEBDE8F08770B50500002000F0A0
:108E4000A5FF06003400002C02D0200000F054FAE8
:108E50002800C0B2002809D101F0E9FC0600340066
:108E6000002C02D0200000F047FAFFE7012070BD7F
:108E70002DE9FC4705000E002F1D2888102812D070
:108E800011285FD013287CD01B286BD01F2800F03E
:108E90008580212800F08D803B2800F0998056289D
:108EA00000F0A180AAE03A88DFF8FC13DFF8B403F1
:108EB000DFF8B433C01AC008000450F00300FEF716
:108EC00049FC3888032801DA012400E00024E4B2D8
:108ED000002C02D1002000F00FFA00223988DFF8C0
:108EE0009C333C881820444303EB040001F09AF9BA
:108EF00082465446002C02D0200000F0FDF90720E5
:108F000000F044FF81464C46002C02D0200000F0C7
:108F1000F3F93988DFF894233B884FF4BA60434370
:108F200002EB0300FDF700FE80464446002C02D011
:108F3000200000F0E1F901F003FC032801D0FFF765
:108F4000C1FD5BE03B793A88DFF86413C548C64C45
:108F5000001BC008000450F00300FEF707FCFFF7F9
:108F6000B1FD4BE0387902280AD1DFF84813BD483B
:108F7000BD4A801AC008000450F00300FEF7E0FB71
:108F80003CE0002300228521A8887FDF80464446FC
:108F9000002C02D0200000F0AFF92FE0391D3888F6
:108FA00075DF80464446002C02D0200000F0A4F972
:108FB00024E0C1480088ADF800006946A8888FDF2A
:108FC00080464446002C02D0200000F095F915E0C0
:108FD0001321A88876DF80464446002C02D020006A
:108FE00000F08AF90AE01321A88876DF804644461B
:108FF000002C02D0200000F07FF9FFE7BDE8F387E6
:109000007CB501F031FD05002C00002C02D02000C1
:1090100000F072F9002000906946012001F0A4FDE3
:1090200006003400002C02D0200000F065F96846EC
:1090300001F08DFE05002C00002C02D0200000F075
:109040005BF973BDF8B504000D00288840F6772160
:10905000884218D1844E834F9849B81BC008000439
:1090600050F00300FEF76CFB8848A988C91E0180F8
:10907000038802889249BE1BF608360456F00306A0
:109080003000FEF773FBF1BD70B58E4E8E49300097
:1090900002F099F805002C00002C02D0200000F00E
:1090A0002BF9F721300002F0A8F806003400002C5C
:1090B00002D0200000F020F970BD10B5040020009F
:1090C000C0B20A2803D1002002F0C3F9FFE710BDA7
:1090D00038B58AB004A87D491822FDF717FE7C48F0
:1090E00000904FF4807001907A4902910390072319
:1090F000794A694604A801F070F905002C00002C9B
:1091000002D0200000F0F8F80BB030BD7FB57348F6
:10911000009073480190734802900026032E10D2ED
:1091200069465648182202FB06F2104400F066FF1A
:1091300005002C00002C02D0200000F0DDF8761C89
:10914000ECE77FBD7CB56849012000F02DFE0500ED
:109150002C00002C02D0200000F0CEF86946002040
:1091600001F0AEFB06003400002C02D0200000F01D
:10917000C3F873BD38B502F04FFB05002C00002C7E
:1091800002D0200000F0B8F831BD38B54FF480416E
:109190000020FEF7F7F805002C00002C02D020007C
:1091A00000F0AAF802F0C2FB31BD38B502F009F9AF
:1091B00005002C00002C02D0200000F09DF831BDED
:1091C000FEB5082500266C46320029002000FDF778
:1091D0001DFD46480090434801906846FDF71AFC83
:1091E00007003C00002C02D0200000F085F8F7BDFD
:1091F00080B5FEF70AFB002801D102F0EFF801BDAF
:1092000038B5FFF7C2FFFFF7B5FFFFF761FFFFF7C4
:1092100099FFFFF7D5FFFFF7C8FFFFF7F1FEFFF754
:1092200033FFFFF773FFFFF7A3FC0F4C0D4D3049E1
:10923000281BC008000450F00300FEF781FA2D49F6
:109240002C1BE408240454F003042000FEF778FAF1
:10925000FFF738FCFFF7CCFFFCE70000D8B0002098
:10926000A8F8020018F20200D8F10200B0010300D1
:10927000F38A0200DC040300D8F8020028B10020C1
:109280004CFA020028B400205CAA002034A200207E
:1092900038FB0200D8F70200C8F902008C00030076
:1092A00008F90200C00103000CF802001C90002025
:1092B00038F90200DCFC0200EE7D020034FE020000
:1092C00074FA0200DCB100204590020014FF020095
:1092D0005CA800205CA900208F8C0200918D020008
:1092E000B98A020094A10020BB900200E58B020025
:1092F00068F7020050FE02001FB504006846002116
:109300000022002380E80E0002946A46002144F205
:10931000010002F02FFB1FBD2DE9F84F86B00500BC
:109320000E00B01C009015F1140715F10A0895F80D
:109330001290287A00281ED000F0ACF95FF0140AD1
:109340005FF0000B01AC5A4651462000FDF75EFC71
:109350004B46DBB24246390000988CDF0400062001
:109360008DF804000294002C05D0686A002802D011
:1093700001A8696A884707B0BDE8F08F2DE9F84F6A
:1093800004000D002E0095F806B02F795FF0000A5A
:10939000B4F81C805FF0000948463900C0B2C9B279
:1093A000884218D24846C0B206EB8002414689B2D4
:1093B000A06902F054FB002806D01AF1010A5846B1
:1093C000C0B2002804D106E05846C0B2002802D13D
:1093D00019F10109E0E75846C0B2002805D050460F
:1093E0003900C0B2C9B2884207D05846C0B200287E
:1093F00005D15046C0B2002801D0012000E0002075
:10940000BDE8F28F70B402001300151D2878002803
:1094100001D0042017E000242000C0B200280AD1A7
:109420002000C0B233F820000E88B04201D10020E5
:1094300009E0641CF0E72878461C2E700E68C0B264
:1094400043F82060002070BC7047F8B505000E009E
:109450001400002D01D10E200EE0002C01D10E20B1
:109460000AE03000C0B2032805D1270039002800E7
:10947000FFF7C8FF00E00720F2BD70B504000D0043
:109480001600002C01D10E200FE015F01F0F01D1A6
:1094900007200AE0200000F009F802002100680718
:1094A00001D5012048718E71002070BD0100002996
:1094B00001D10E2003E04A1D0020107000207047EB
:1094C0002DE9F84785B004000D005FF000085FF05B
:1094D000000914260027EA463A0031005046FDF7FD
:1094E00095FB14F114000490200000F060F80028AF
:1094F0000FD002208DF8000001956846616A884708
:1095000014F1480100208ADF29002000FFF704FF42
:109510004AE0A6795FF0000A67793800C0B20028F7
:1095200011D018F1010821002800FFF727FF0028BB
:1095300009D019F101099DF8080050F004008DF8D8
:1095400008000120824601953000C0B200280DD0ED
:1095500048464146C0B2C9B2884207D100208DF8C2
:10956000000029002000FFF7D7FE13E03000C0B252
:1095700000280BD15046C0B2002807D000208DF83B
:10958000000029002000FFF7C7FE03E003208DF84C
:1095900000000195606A002802D06846616A884729
:1095A00014F1480100208ADF06B0BDE8F087010011
:1095B000087DC0F3C100C0B2012805D0087DC0F30A
:1095C000C100C0B2032801D1012000E00020704793
:1095D000017D51F004010175A021C1825021018358
:1095E00000214183017D11F0E701017501214175E1
:1095F00070474FF4C8710182062141811821818191
:109600000021C18170472DE9F04385B004000D00B1
:109610002E1D14275FF00008E946424639004846EF
:10962000FDF7F4FA307801280ED1606A00280BD0DB
:1096300004208DF8000014F11400049030788DF8A7
:1096400004006846616A884705B0BDE8F0832DE9EB
:10965000F04385B004000D002E1D14275FF00008B4
:10966000E946424639004846FDF7D0FA606A0028CC
:109670000DD005208DF8000014F11400049001A80D
:1096800031000922FDF732FB6846616A884705B060
:10969000BDE8F0838BDF70472DE9F84304000D002F
:1096A0001600002C01D10E2039E0666208275FF019
:1096B0000008A146424639004846FDF7A7FA002DAA
:1096C0001ED028792072287BA0742868002806D034
:1096D00014F1140029680E22FDF708FB02E02000B7
:1096E000FFF776FFA868002806D014F10A00A968E1
:1096F0000822FDF7FBFA0BE02000FFF77AFF07E0F6
:109700002000FFF765FF2000FFF773FF00202072A5
:1097100014F12800A0641F20A4F84C000020BDE82C
:10972000F283F0B585B00400002C01D10E202FE0AB
:10973000142500266F46320029003800FDF766FA2E
:10974000FFF7A8FF2000FFF732FF002808D0606A6B
:10975000002805D001208DF800006846616A88471E
:1097600014F1480114F114008ADF0500082D0ED011
:10977000002D0CD02A0007490748084BC01AC00822
:10978000000450F00100FDF7E5FF280000E0002094
:1097900005B0F0BD5CFB020008F20200D8F1020047
:1097A0002DE9F84185B004000D0014260027E84695
:1097B0003A0031004046FDF729FA07208DF80000F5
:1097C000281D01902888ADF8080014F114000490B9
:1097D000606A002802D06846616A884706B0BDE822
:1097E000F0812DE9F04104000D002E0014F108076E
:1097F00014F104082088102815D01B2809D01D2832
:1098000002D020280AD013E039003000FFF758FEBC
:109810000EE041463000FFF7F6FE09E04146300019
:10982000FFF715FF04E041463000FFF7B9FFFFE7FF
:10983000BDE8F08101005FF0A040704711B581B034
:109840000C0001A8FFF7F6FF019900EB8101D1F8A8
:10985000001731F44031019A00EB8202C2F8001780
:10986000019900EB8101D1F800172200D2B251EA30
:109870000241019A00EB8202C2F8001713BD10B535
:109880000400042C03D2200002F04FFA00E0002074
:1098900010BD2DE9F04705000E0000275FF000091C
:1098A0002800C0B202F05CFA8046B8F1040F4FD233
:1098B0003000C0B200282AD0022841D048D2DFF8B8
:1098C000D895032000FB08F019F8000007000320DA
:1098D00000FB08F04844407800280ED0DFF8BCA513
:1098E00052464FF48041DFF8B805006801F0D2FF1E
:1098F0000400002C01D18AF80050032000FB08F07E
:1099000048448078DFF89C1501F8080020E0DFF873
:109910009005006801F0DFFFDFF87C05DFF88415B3
:1099200011F80810032202FB08F2024492789142D7
:1099300005D1032101FB08F108448078070007E006
:10994000DFF85405032101FB08F1084440780700C3
:109950003800C0B2002808D0DFF84C15086800288D
:1099600003D03800C0B209688847BDE8F08710B559
:10997000040002212078FFF78CFF10BD10B5DFF83E
:109980002C050078002809D00024042C08D2022CD1
:1099900002D0200002F099F9641CF6E702F09DF96C
:1099A00010BD2DE9F041060000240025DFF8007508
:1099B0003878002803D000203870FFF7DFFF300030
:1099C000C0B2002837D0022841D040D3042800F08C
:1099D000AE8074D3062800F01881C0F0E18008281A
:1099E00000F02781C0F01F810A2800F03E81C0F0FE
:1099F0002E810C2800F05581C0F045810E2800F022
:109A00005581C0F05381102800F05081C0F04E8184
:109A1000122800F08281C0F04981142800F08A8168
:109A2000C0F08081162800F09881C0F08B81172843
:109A300000F0938196E1FFF7A1FFDFF8780400685A
:109A400001F049FF0400DFF8700406708AE100208D
:109A500002F024F900280CD0002002F036F9300082
:109A6000C0B2022802D14FF4E1650DE04FF47A65EF
:109A70000AE0002002F021F93000C0B2022801D132
:109A8000C82501E04FF4C875DFF82C0406700022E9
:109A900017004FF40040A0FB050110F57A7051F15A
:109AA00000014FF4FA62002302F07CF901003A0051
:109AB000DFF80004006801F0EDFE040052E1002030
:109AC00002F0ECF800280CD0002002F0FEF8300084
:109AD000C0B2032802D14FF448750DE04FF47A6507
:109AE0000AE0002002F0E9F83000C0B2032801D1FA
:109AF000C82501E04FF4C875DFF8BC0306700022EA
:109B000017004FF40040A0FB050110F57A7051F1E9
:109B100000014FF4FA62002302F044F901003A0018
:109B2000DFF89003006801F0B5FE04001AE10020A0
:109B300002F0B4F800280CD0002002F0C6F8300083
:109B4000C0B2042802D14FF47A650EE04FF47A6572
:109B50000BE0002002F0B1F83000C0B2042802D1BE
:109B60004FF4C87501E04FF4C875DFF84C03067078
:109B7000002217004FF40040A0FB050110F57A7099
:109B800051F100014FF4FA62002302F00BF90100D9
:109B90003A00DFF82003006801F07CFE0400E1E0F9
:109BA000002002F07BF800280BD0002002F08DF896
:109BB0003000C0B2052801D1C8250DE04FF47A6508
:109BC0000AE0002002F079F83000C0B2052801D187
:109BD000C82501E04FF4C875B74806700022170089
:109BE0004FF40040A0FB050110F57A7051F100011F
:109BF0004FF4FA62002302F0D5F801003A00AD48B4
:109C0000006801F047FE0400ACE0002002F079F8A3
:109C1000A9480670002240F26661A648006801F07B
:109C200039FE04009EE0002002F047F8A2480670CA
:109C300098E001203870012002F063F8002240F221
:109C400066619C48006801F025FE04008AE001205E
:109C50003870012002F055F800224FF40051954869
:109C6000006801F017FE04007CE00120387001203C
:109C700002F047F8002240F266618E48006801F069
:109C800009FE04006EE001203870012002F039F86E
:109C900000224FF400518748006801F0FBFD0400EA
:109CA00060E002F024F8844806705BE0834F386877
:109CB00001F011FE04003000C0B2D0F11100050027
:109CC000002D23D0002C21D1022D18D30022904644
:109CD000290089B2C82041434FF4004080FB0101B4
:109CE00010F57A7051F100014FF4FA62002302F08E
:109CF00059F801004246386801F0CCFD040002200A
:109D000001F0DBFF01206949087005E0022001F045
:109D1000DCFF00206549087024E0FFF72FFE66484D
:109D200006701FE0FFF72AFE002001F0C6FF624820
:109D3000067017E0FFF722FE012001F0BEFF5E482B
:109D400006700FE0FFF71AFE002001F0B6FF0120B9
:109D500001F0B3FF5848067004E001F0C8FF564810
:109D60000670FFE72000BDE8F08110B504005448FC
:109D70000078C00703D550480078FFF712FE10BDE9
:109D800010B50400022001F0BCFF10BD38B504007E
:109D900000254B480078C00704D52000C0B2FFF76B
:109DA00000FE0500280032BDF8B505000E000024B5
:109DB000434805603C480660A80722D50027042FC9
:109DC00009D2002C07D101220121380000F030F81F
:109DD00004007F1CF3E7002C06D140F2333204214B
:109DE000384802F050FA0400002C02D102F096FA32
:109DF0000400002C05D1344A0021294801F036FD29
:109E00000400E80712D5012001F0C0FF002C05D1A5
:109E10002E4A0021274801F029FD0400002C05D11D
:109E20002B4A0121254801F021FD04002000F2BD4C
:109E300030B403000020042B29D21400E4B2012C1A
:109E400007D10C00E4B2012C02D113F10E0200E0A4
:109E500000220C00E4B2002C0FD0022C06D013D24A
:109E60000D4C032505FB03F5625512E00A4C032552
:109E700005FB03F52C4462700BE0074C032505FB42
:109E800003F52C44A27004E00724200001E007241D
:109E9000200030BC7047000044B3002033B40020E1
:109EA000D80403000CB4002008B4002032B4002011
:109EB00031B40020D004030030B40020D4040300E7
:109EC00004B40020BCFC02006F9902006B9D0200EC
:109ED000819D020070B504000D00042C0FD22800F3
:109EE000C0B2002801D0032600E00026200001F0C7
:109EF00046FF3100C9B2FFF7A1FC002000E00620B8
:109F000070BD10B5040001212000FFF7E3FF10BD74
:109F1000F8B504000D0016002F003869002802D0A3
:109F2000200039698847F1BD2DE9F84185B004006A
:109F30000D0014275FF000086E46424639003000DD
:109F4000FCF764FE15F10E062878002836D1A888A3
:109F5000012833D1A879217888422FD10020297A8D
:109F600088421ED2122101FB00F2B25A022A02D00C
:109F7000032A07D013E001FB00F131440989ADF851
:109F800012100CE001FB00F232441289ADF80E20F1
:109F900001FB00F131444989ADF81010FFE7401C86
:109FA000DDE7E068002809D06888ADF802000020ED
:109FB0008DF8000069462000E268904706B0BDE8D1
:109FC000F08130B585B004000D00A088002813D0C2
:109FD0006889A18888420FD1E06800280CD0012050
:109FE0008DF8000015F110000290E889ADF80C0022
:109FF00069462000E268904705B030BD78B585B06D
:10A0000004000D0001A881491022FCF77FFE002CFE
:10A0100001D10E2025E0002D01D10E2021E0A868FD
:10A02000002801D10E201CE0210001A862DF0600FB
:10A030003000002815D120788DF802000120ADF8FD
:10A0400000004FF6FF7060802868E060686820615B
:10A050000020A08000202081A86860616846FCF78D
:10A06000F7FC06B070BD78B585B004000E00350071
:10A07000002D01D0002C00D123E04FF6FF7168883D
:10A08000884203D06888A288904200D019E02088D6
:10A09000112806D0392814D121002800FFF791FF9C
:10A0A0000FE0A0886A8890420AD1E868002807D0AB
:10A0B00002208DF80000698069462800EA68904710
:10A0C000FFE706B070BD2DE9F04389B004000D0034
:10A0D0002800C0B2002801D0012600E00026202779
:10A0E0005FF000080DF10409424639004846FCF7CC
:10A0F0008DFD30008DF80000300080B2000A8DF830
:10A10000010001208DF80400414803900494E08888
:10A11000ADF816000220ADF81A000020ADF81800C6
:10A120006846079001208DF8140001208DF8150075
:10A13000628801A96069FDF714F809B0BDE8F083F1
:10A1400010B50400002C01D10E200DE060884FF600
:10A15000FF71884202D0E088002801D1082003E086
:10A1600001212000FFF7AFFF10BD2DE9F84388B0B3
:10A1700004000D001600002C01D10E2043E0202722
:10A180005FF00008E946424639004846FCF73EFDCC
:10A19000300080B2F5280BDB1E491F481F4A801A89
:10A1A000C008000450F00200FDF7CAFA07202AE0B8
:10A1B00060884FF6FF7188420BD119491648174A3B
:10A1C000801AC008000450F00200FDF7B9FA082018
:10A1D00019E001208DF800000D48029003942089B9
:10A1E000ADF81200ADF816600020ADF81400069529
:10A1F00002208DF8100001208DF811006288694658
:10A200006069FCF7AEFF09B0BDE8F083A001030070
:10A21000119F020064000300F0F10200D8F1020077
:10A2200018FE020070B505000E001400002D01D1CB
:10A230000E200DE06E80002C05D06088E88020881C
:10A24000A880A0882881310089B26869FDF706F8E6
:10A2500070BDFEE7F8B504000D0016000027AF49F9
:10A260002078085C002807D03200D2B22900201DD7
:10A2700002F016FA07000BE02078085C002807D1EE
:10A280003200D2B2290014F10C0002F098FD070050
:10A290003800F2BD38B504000025A0492078085CDC
:10A2A000002804D0201D02F05AFA050008E02078AA
:10A2B000085C002804D114F10C0002F0C5FD050073
:10A2C0002800C0B232BDF8B504000D00160000270A
:10A2D00092492078085C002807D03200D2B22900C9
:10A2E000201D02F04BFA07000BE02078085C0028E4
:10A2F00007D13200D2B2290014F10C0002F0E2FDC5
:10A3000007003800F2BD01008868C968081A704764
:10A31000FEB505000E002878002848D0022837D066
:10A320005AD2287A002805D101227D497D48FFF7BD
:10A33000CAFF51E07C4F68680178380002F08AFF5C
:10A340000400002C08D001208DF80000019468461C
:10A350007649096888470BE03800FFF7D4FF0028EA
:10A3600006D000208DF800006846704909688847CB
:10A370003800FFF7C8FFB988814205D30122684938
:10A380006848FFF7A0FF02E001206949087023E058
:10A3900002208DF80000E8680190012260496148C0
:10A3A000FFF791FF684661490968884714E0614FEB
:10A3B0003900614802F060FF002805D10122390010
:10A3C0005848FFF747FF06E003208DF80000684675
:10A3D000564909688847FFE7F7BD2DE9F04788B07F
:10A3E00005000C0016001F0050480660002C01D12B
:10A3F00007204DE0626892B221684B4802F00DFFE1
:10A4000081464846002843D1E26892B2A1684A4892
:10A4100002F003FF80464046002839D1684647498C
:10A420002022FCF773FC68690690287C002801D183
:10A43000002000E001208DF814008DF81C70687C6D
:10A44000002801D00E2000E000208DF81500E868FB
:10A450000290A86803902868019068680090DFF86F
:10A46000C4A0374A6946504602F044FF8146484638
:10A4700000280DD100202E490870286810F1010F26
:10A4800005D0012226495046FFF71DFF00E00020BD
:10A4900008B0BDE8F0872DE9F0410500244C27788D
:10A4A0002900214802F0E8FE06003800C0B200286A
:10A4B0000DD000202070012219491A48FFF703FF30
:10A4C00080464446002C02D02000FEF715FF3000E5
:10A4D000BDE8F0812DE9F0410500174E2900C9B211
:10A4E000300002F0B7FE0400002C13D10D4F3800ED
:10A4F000FFF7D0FE00280DD1DFF83880414630004C
:10A5000002F0BAFE002805D1012241463800FFF7CB
:10A51000A1FE04002000BDE8F081000034B400205A
:10A520002DB400200890002008B30020F4B30020D0
:10A530002EB400202CB4002018B300207CFC0200B4
:10A5400011A3020033B58BB00400002000900C98DA
:10A55000002812D00025142D0FD229000CA802F0DB
:10A5600032FF002807D06846009900EB4100858043
:10A570000098401C00906D1CEDE7200069462C22DD
:10A58000FCF7C4FB0DB030BD31B500240025142DFF
:10A5900008D22900684602F016FF002800D0641C8B
:10A5A0006D1CF4E7200032BD38B50400200080B2F5
:10A5B000142801DB00200DE0DFF89C51210089B256
:10A5C00015F1080002F0E2FE210089B2281D02F018
:10A5D000DDFE012032BD38B5040000251E2D0AD253
:10A5E000210089B2DFF8700100EB8500001D02F048
:10A5F000DBFE6D1CF2E731BD10B50400210089B20D
:10A60000DFF8580102F0D0FE10BD10B58CB0DFF8B5
:10A6100048018168C943009141686846FDF724FDFF
:10A62000009901A8FFF78EFF00240198844207D209
:10A6300001A800EB44008088FFF7CDFF641CF4E71D
:10A640000CB010BD70B504000D0016003000C0B293
:10A65000002805D0290089B2200002F097FE04E00E
:10A66000290089B2200002F09FFE70BD2DE9F04163
:10A6700004000D00A6882088102806D0112819D0C3
:10A6800019284CD01A281AD058E0FFF7BEFF300026
:10A6900080B2FFF789FF002803D10420FEF72CFECB
:10A6A00007E0E07B012804D0310089B22C4802F099
:10A6B0006DFE43E0300080B2FFF79EFF3EE0277A58
:10A6C000FFB23F093800C0B2042801DB012200E0DC
:10A6D0000022DFF88480D2B2310089B218F118006C
:10A6E000FFF7B0FF3800C0B2032801DB012200E011
:10A6F0000022D2B2310089B218F11400FFF7A2FF94
:10A700003800C0B2022801DB012200E00022D2B2F0
:10A71000310089B218F11000FFF794FF0EE0207AA3
:10A7200000280BD1607AC0F3C00717F001073A0088
:10A73000D2B2310089B20B48FFF784FFBDE8F08147
:10A7400080B50548C168009181686846FDF78CFCBA
:10A750000098FFF719FF02BD30AF002038AF00208E
:10A760003CAF002048AF002038B501220021002076
:10A77000FFF75EFB0500002D03D0072D01D0280058
:10A7800018E0072202210120FFF752FB0400002CF1
:10A7900003D0072C01D020000CE00422022100206D
:10A7A000FFF746FB0100002903D0072901D008006C
:10A7B00000E0002032BD38B5012202210020FFF761
:10A7C00037FB0500002D03D0072D01D0280018E02D
:10A7D000072202210120FFF72BFB0400002C03D0ED
:10A7E000072C01D020000CE00A2200210020FFF7F6
:10A7F0001FFB0100002903D0072901D0080000E059
:10A80000002032BD10B504000120FFF738F8002801
:10A8100002D00220207009E00020FFF730F8002865
:10A8200002D00B20207001E00020207010BD10B578
:10A830000020FFF766FB0400002C03D0062C01D09B
:10A8400020000AE00120FFF75CFB0100002903D093
:10A85000062901D0080000E0002010BDF8B5050071
:10A860000E002888102802D0112814D027E01E4F8F
:10A87000386800280BD1FFF777FF0400002C06D0C2
:10A880001A490868002802D02000096888473868FB
:10A89000401C386013E014480168491E01600068DC
:10A8A00000280BD1FFF787FF0400002C06D00F49CA
:10A8B0000868002802D0200009688847FFE7F1BD3A
:10A8C00070B505000C00002608480560002C02D079
:10A8D0002000FFF797FF04480068002802D1FFF727
:10A8E0006AFF0600300070BD14B4002010B40020D0
:10A8F000012210F01F018A40DFF8181203005BB23A
:10A900005B0941F823207047010049B2002909D5AD
:10A91000DFF8041240B210F00F00084410F8040CE5
:10A92000400904E0DFF8F41140B2085C40097047C8
:10A93000806870470100080040B2202805DADFF87F
:10A94000E001C84010F001000EE0080040B24028CD
:10A9500009DA012020398840002801D0012000E0D8
:10A960000020C0B200E0012070470100082903D296
:10A97000EC200841C00701D4002000E0012070470E
:10A9800010B50400200040B2FFF7D4FF002802D128
:10A9900042F2010023E0200040B2FFF7B5FFFFF7CD
:10A9A000E4FF002802D142F2020018E05D49886805
:10A9B00000280FD0200040B2400951F82020012388
:10A9C00014F01F0083401A43200040B2400941F8B0
:10A9D000202003E0200040B2FFF78AFF002010BDD6
:10A9E0007FB504005049684602F00EFD6846FFF747
:10A9F0009FFF002810D06846FFF79AFF05002E68D9
:10AA000069682000C0B2B047002803D0684602F051
:10AA100005FDEBE7112000E0002004B070BD7FB51C
:10AA200004004249684602F0EFFC6846FFF780FFE9
:10AA300000280CD06846FFF77BFF05002E68696888
:10AA40002000C0B2B047684602F0E8FCEDE77FBDE9
:10AA500038B51620FFF794FF05002C00002C02D01B
:10AA60002000FEF749FC31BD7CB5314D2878002827
:10AA700001D0082033E02F4E012030700020FFF776
:10AA8000AFFF112801D1002029E00020FFF7C7FF08
:10AA900029480068019000208DF800006846FDF705
:10AAA0006BFB264901A810DF0400002C02D1012015
:10AAB000287001E0002028709DF80000FDF762FB7F
:10AAC000002C01D020000AE00020307000201C493A
:10AAD0000870FFF7BDFF0120FFF7A1FF002076BD42
:10AAE0001348007870473EB51649684602F08CFC62
:10AAF0006846FFF71DFF00280AD06846FFF718FFD9
:10AB0000040025686068A847684602F087FCEFE704
:10AB100037BD000000E100E018ED00E000E400E0D7
:10AB2000FC06FFBD38B300202C03030038030300EC
:10AB300038B400203AB40020E804030075B90200DC
:10AB400039B400204403030080B5FFF7CCFF01BDFA
:10AB5000806870470100002901D10E2003E0BB4846
:10AB600000680860002070472DE9FE4306000F00D2
:10AB70003800FFF7EFFF0500002D01D02800DCE0D2
:10AB80005FF00C085FF000096C464A464146200021
:10AB9000FCF73CF88DF8006003208DF802001820C7
:10ABA000ADF804003A686946202069DF0400002CF3
:10ABB0000DD0200002F048FC0200A549A548A64B94
:10ABC000C01AC008000450F00100FCF7C3FD5FF09C
:10ABD0000C085FF000096D464A4641462800FCF724
:10ABE00015F800208DF8010003208DF802000120E7
:10ABF0008DF803003A686946402069DF0500002DA2
:10AC00000DD0280002F020FC020094499148924B9C
:10AC1000C01AC008000450F00100FCF79BFD5FF073
:10AC20000C085FF000096C464A4641462000FBF7DD
:10AC3000EDFF8DF80060F720ADF802003A68694634
:10AC4000232069DF0400002C0DD0200002F0FCFB63
:10AC5000020083497F48804BC01AC008000450F0AE
:10AC60000100FCF777FD5FF00C085FF000096D460E
:10AC70004A4641462800FBF7C9FF01208DF8000035
:10AC80003A686946012069DF0500002D0DD02800D3
:10AC900002F0DAFB020073496E486F4BC01AC0081D
:10ACA000000450F00100FCF755FD5FF00C085FF068
:10ACB00000096C464A4641462000FBF7A7FF4FF4C7
:10ACC000B06000903A686946A12069DF0400002C5A
:10ACD0000DD0200002F0B8FB020063495D485E4BD6
:10ACE000C01AC008000450F00100FCF733FD5FF00B
:10ACF0000C085FF000096D464A4641462800FBF704
:10AD000085FF9DF8000010F0FE008DF800003A6805
:10AD10006946A02069DF0500002D0DD0280002F053
:10AD200093FB020051494B484B4BC01AC00800042A
:10AD300050F00100FCF70EFD0020BDE8FE834C48FA
:10AD400000684FF48061484310F1005070472DE9CE
:10AD5000F04105002E68280060DF04002868864264
:10AD600026D23D4FDFF8EC804249B8EB0700C0081F
:10AD7000000450F00200FCF7E3FC2B6832003E496F
:10AD8000B8EB0700C008000450F00200FCF7EEFC2E
:10AD9000FFF7D5FF02002868121A3849B8EB0707F9
:10ADA000FF083F0457F002073800FCF7D3FC01E02E
:10ADB0002868B042002C03D10120314908700DE011
:10ADC000200002F041FB02002E492248224BC01A0B
:10ADD000C008000450F00100FCF7BCFC2000BDE8F6
:10ADE000F0812DE9F841ADF5017D0500244800789A
:10ADF000002826D04FF4FA70ADF80000694604A888
:10AE000061DF0400002C02D0052C17D119E004AE3C
:10AE10001D4901A802F0F8FA01A8FFF799FE0028E1
:10AE2000E8D001A8FFF794FE0700D7F80080796802
:10AE30003000C04701A802F0F1FAEDE72000FEF76C
:10AE40005BFA0DF5027DBDE8F0810000EC04030023
:10AE50005CF6020030F20200D8F1020034F5020084
:10AE6000A4F6020080F50200A0F30200F4F3020051
:10AE70000C01001098F9020074F80200F4F90200C5
:10AE80003BB40020FCFC02005C030300F7210180BE
:10AE9000172141800021017100214171FB21817145
:10AEA0001B21C17170472DE9FF4105000E00DFF83D
:10AEB0004004D0E90023CDE90223ADF80860ADF8E5
:10AEC0000A60DFF83004D0E90023CDE900236A46A8
:10AED00002A9280080B290DF0400002C3AD02000A4
:10AEE00002F0B2FA0300DFF81074DFF810842A00D1
:10AEF00092B2DFF80C14B8EB0700C008000450F061
:10AF00000100FCF733FCBDF80000002803D1BDF8B8
:10AF1000020000280DD0BDF80230BDF80020DFF897
:10AF2000E413B8EB0700C008000450F00100FCF780
:10AF30001DFCBDF8040000280CD0BDF80420DFF88B
:10AF4000C813B8EB0707FF083F0457F001073800A4
:10AF5000FCF700FC200004B0BDE8F0812DE9F041D1
:10AF600005000E00B788380080B205EBC00010F174
:10AF70000608287988F80600F07B012802D002280C
:10AF800004D007E02888A8F8000003E06888A8F843
:10AF90000000FFE7B8F80200B8F80010884222D29B
:10AFA000B8F80010380080B2A5DF0400002C03D1EF
:10AFB000012088F8050016E0112C03D1012088F843
:10AFC000040010E0200002F03FFA0200DFF83C131A
:10AFD000DFF82803DFF82033C01AC008000450F05F
:10AFE0000100FCF7B7FB98F8070098F806108842B4
:10AFF00006D298F8061089B2380080B2FFF753FFE6
:10B00000BDE8F08138B504000D00A88804EBC0004D
:10B01000801DFFF73BFF31BD2DE9FC4104000D0011
:10B02000AE886F89300080B204EBC00010F10608D2
:10B030003800B8F8001080B2884201D2380001E030
:10B04000B8F80000A8F80200B8F80200172801DAE2
:10B05000172001E0B8F80200A8F80200206A0028D2
:10B0600013D098F8050000280FD0DFF8A422D2E909
:10B070000001CDE90001ADF80260B8F80200ADF8BA
:10B08000040069462000226A9047002088F80500E5
:10B09000002088F80400BDE8F3812DE9FE43050097
:10B0A0000E00B788B6F80690380080B205EBC000F5
:10B0B00010F10608484680B2172802DA5FF0170937
:10B0C000FFE74846B8F8001080B2884201D24846EF
:10B0D00001E0B8F80000A8F80200002088F8040099
:10B0E000B8F80010380080B2B5DF0400002C0DD095
:10B0F000200002F0A9F90200864980487E4BC01A60
:10B10000C008000450F00100FCF724FB98F805008B
:10B11000002811D1286A00280ED07F4AD2E9000108
:10B12000CDE90001ADF80270B8F80200ADF80400F6
:10B13000694628002A6A9047BDE8F78378B58DB044
:10B1400004000D0002A8291D2C22FBF7DFFDBDF82D
:10B150000860BDF80C00310089B204EBC1014873EE
:10B16000206A002811D06D48D0E90023CDE90023E2
:10B17000ADF80260300080B204EBC000407B8DF877
:10B18000040069462000226A90470EB070BD2DE988
:10B19000F84304000D002E1D308804EBC000871D0D
:10B1A000B6F80480B8794146C9B2884202D297F80D
:10B1B000069000E0C1464946C9B289B23088FFF71F
:10B1C00072FEBDE8F18370B504000D00002C01D1C2
:10B1D0000E2011E02562F7202080F7206080FB2000
:10B1E00020710026032E06D204EBC600801DFFF757
:10B1F0004DFE761CF6E7002070BD0200002A01D14A
:10B200000E200BE0080080B2172803DB080080B294
:10B21000F82801DB072001E05180002070472DE96C
:10B22000F04105000E003700B5F80480404680B2BA
:10B2300003285ADA288810280AD011280DD023288C
:10B240001FD0242818D03A280CD055280FD01DE044
:10B2500029003800FFF782FE18E029003800FFF7C8
:10B26000D1FE13E029003800FFF7D6FE0EE02900DA
:10B270003800FFF712FF09E029003800FFF75EFFF2
:10B2800004E029003800FFF782FFFFE7404680B264
:10B2900007EBC000807A002827D0404680B207EB39
:10B2A000C000C188404680B2A5DF0400002C0CD14C
:10B2B0000020414689B207EBC10188720120414656
:10B2C00089B207EBC101C8720FE0112C0DD020002C
:10B2D00002F0BAF802000D490848074BC01AC0082E
:10B2E000000450F00100FCF735FABDE8F0810000E1
:10B2F000C0030300B8030300D8F10200F8F1020014
:10B300009CF40200ECF6020048F3020040F8020050
:10B31000C803030068F90200D0030300D803030048
:10B32000012210F01F018A40594903005BB25B09FA
:10B3300041F823207047BFF34F8F56490A6812F433
:10B34000E062554802430A60BFF34F8F00BFFDE73C
:10B350008068704700210160BFF35F8F704710B5B0
:10B36000040001212000FCF757FEBFF35F8F002887
:10B3700001D1012000E00020C0B210BDBFF35F8FFB
:10B38000002101607047012044490860BFF34F8FDE
:10B3900020BFFDE71CB500208DF800006846FCF7D3
:10B3A000EBFEF1EE104A34F09F00E1EE100ABFF31D
:10B3B0005F8F2620FFF7B4FF9DF80000FCF7E2FE48
:10B3C00013BD80B50020364908703648FFF7C2FF2C
:10B3D0003549364802F018F8002002BD80B5FFF765
:10B3E000D9FFFFF77DFB002801D041DF02E020BF3D
:10B3F00040BF20BF01BD38B52C4C2000FFF7A8FF8F
:10B4000000280ED02000FFF7A3FF05002848007891
:10B4100029688847002803D0200001F0FFFFEBE7F0
:10B4200016E0FCF7A8FBFCF7F0F90028FBD1204858
:10B430000178032902D00078022802D1FFF77BFFB0
:10B4400006E0FFF74DFB002800D033DFFFF79BFF3E
:10B4500031BD38B50400134D2800FFF780FF0028E8
:10B4600014D02000C0B204280BD00D490878002861
:10B4700003D02800FFF782FF08E00D480470012088
:10B480000870FFF7B8FF2800FFF778FF31BD000014
:10B4900080E200E00CED00E00400FA050005004049
:10B4A00037B4002024B400202003030080B3002020
:10B4B00036B4002080B5DFF83C0402F0C8F9DFF8AC
:10B4C0003814D1E90023002110185941DFF82C2449
:10B4D000D2E90023994206D801D3904203D2B0F1B9
:10B4E0007F4071F1FF3104BDF0B402000B00D2E9DE
:10B4F0000245D3E90267AF4204D301D8A64201D383
:10B50000012000E00020C0B2F0BC704738B5040054
:10B510000025DFF8EC030078012832D1002C30D070
:10B52000207F00282DD0FFF7C5FFD4E902239942E0
:10B5300020D301D890421DD32069002801D10020DA
:10B540002077A069616988472069002819D0207F89
:10B55000002816D0D4E9022320690021101859418F
:10B56000C4E902012100DFF89C0302F09BF90120ED
:10B57000050006E02100DFF88C0302F093F90120BA
:10B5800005002800C0B232BD2DE9F8430500884609
:10B590000D24002088F80000FFF78CFFD5E9022376
:10B5A000161A73EB0107012000218F421DDB01DC1D
:10B5B00086421AD3B6F5350F07D300F096F98146C7
:10B5C000DFF8440310EB090902E0D5E902018146E6
:10B5D0005FF496034A460021DFF8180302F08FF863
:10B5E0000400002C06D101200DE00021DFF8040347
:10B5F00002F017F90D2C05D12800FFF787FF88F816
:10B600000000FFE70020BDE8F28380B5DFF8F40218
:10B6100002F05BF9002800D1002002BD80B5DFF800
:10B62000E40240680068002800D1002002BD10B587
:10B63000FFF7EBFF0400002C01D000202077002C46
:10B64000F6D110BDAC48D0E90023B2F17F4273F1CE
:10B65000FF33C0E90023704738B50400AB4D2868BC
:10B66000002805D02868FFF751FF00202860FFE779
:10B6700031BD10B50400FFF71DFFA04AC2E900016B
:10B6800010BD2DE9FC410500FFF7C8FF04000026AE
:10B69000002C38D09D4F3868002802D101200600C8
:10B6A00013E0D4E902013A68D2E9022399420CD8A6
:10B6B00001D3904209D2012006003868007F00289B
:10B6C00003D039688F4802F0EDF83000C0B200288E
:10B6D00018D0FFF79AFF804669464046FFF754FFAF
:10B6E00000280CD03868002802D1280001F095FF0E
:10B6F000C7F800809DF800000028C5D10AE00020AE
:10B700003860C1E706E081480068002802D12800BF
:10B7100001F08AFFBDE8F3817CB505007C4E6946E7
:10B72000306802F088F90400002C33D0207800281B
:10B7300003D002281ED00CD322E06068007F0028CE
:10B7400006D101206168087761686E4802F0AAF8A6
:10B7500016E06E4861680268914202D100210160E2
:10B7600007E06168674802F0BDF801000800C0B258
:10B77000002805E0FFF75BFF012061490870FFE743
:10B780006946306802F066F96946306802F053F99C
:10B790000400C9E773BD10B50400200002F039F8B9
:10B7A000002801D0FFF74EFF0021200002F043F8EF
:10B7B000002802D02000FFF74FFF0121200002F0F7
:10B7C0003AF8002802D02000FFF753FF2000FFF7CF
:10B7D000A3FF2000FFF755FF10BD80B5454802F0DC
:10B7E0003CF801BDF8B505000E00494F69463868C0
:10B7F00002F004F90400002C0CD025706660694644
:10B80000386802F00AF9002802D0FFF7E6FFFFE7E8
:10B81000002000E00420F2BD7CB53E4800680090A6
:10B82000082358223C493A48006802F0CBF805004A
:10B83000002D01D0280018E02E4E384A694630000D
:10B8400001F0ADFE0400002C01D020000DE001212C
:10B85000300001F0D4FF0123314A0121300001F012
:10B86000EAFE012026490870200076BD10B40300CE
:10B870001000002801D107200AE01C68626108005E
:10B88000C0B2012801D1012000E000202061002089
:10B8900010BC70472DE9704304008846150026004F
:10B8A000307F002801D0002013E0B561FFF702FED1
:10B8B0005FF0000910EB080051EB0901C6E9020135
:10B8C0003069002801D0C6F8108031000020FFF751
:10B8D00089FFBDE8708338B5040025000020287773
:10B8E00029000120FFF77EFF32BD80B5014801F03D
:10B8F000AEFF02BD0090002098B30020A0B300204E
:10B900002BB40020B4020300FFFFB400ECB300200E
:10B91000C0040300C404030080B0002097B70200F5
:10B92000FFFF7F000121C2685171704770B55FF061
:10B93000FF3402F0B6F8054E04213000FCF7F3F8AE
:10B9400005003000FFF7EEFF70BD0000700203003D
:10B95000BFF34F8F05490A6812F4E06204480243BE
:10B960000A60BFF34F8F00BFFDE700BF0CED00E0A2
:10B970000400FA052DE9F04104000D00160072B62E
:10B98000FCF7F9F8FBF741FF0028FBD10F4FDFF878
:10B9900040801049B8EB0700C008000450F00100D7
:10B9A000FBF7CEFE0C480068C00700D500BE0B496F
:10B9B000B8EB0707FF083F0457F002073800FBF712
:10B9C000BFFEFFF7C5FFBDE8F08100BFD8F1020060
:10B9D00018F202009C020300F0ED00E09001030069
:10B9E000F0B40400002C01D0002A01D1002034E082
:10B9F00000252800168880B2B04207D3280080B204
:10BA0000204440781E00F6B2B0420BD028000E0051
:10BA100080B2B6B2B04205D2280080B2205C401C91
:10BA20004519E6E728000E0080B2B6B2B04201D355
:10BA3000002012E0AE1C280080B2205C471E0800E7
:10BA400080B2BC461FFA8CFC1CFA86FC604501DA09
:10BA5000002002E01680380080B2F0BC70472DE96B
:10BA6000F04786B004000E0017000020ADF8040077
:10BA700010208DF80000B04602AA6946380064DF45
:10BA80000500002C01D0002D01D000205CE09DF8C5
:10BA90000000022804D0042809D010280ED014E099
:10BAA00003208DF8020002208DF803000FE005202E
:10BAB0008DF8020004208DF8030008E007208DF8BF
:10BAC000020006208DF8030001E000203CE05FF05A
:10BAD00000094846C0B2022812DABDF80400002866
