:1000000050200020450C000097070000F707000073
:10001000330B0000050C00002B0C0000000000005A
:10002000000000000000000000000000370C00008D
:10003000650C000000000000670C0000690C000067
:100040006B0C00006D0C00006F0C0000710C0000C8
:10005000730C0000750C0000A7050000770C000071
:10006000790C00007B0C00007D0C00007F0C000070
:10007000810C0000830C0000850C0000870C000040
:10008000890C00008B0C00008D0C00008F0C000010
:10009000910C0000930C0000950C0000970C0000E0
:1000A000990C00009B0C00009D0C00009F0C0000B0
:1000B000A10C0000A30C00000000000000000000E4
:1000C000A50C0000A70C0000A90C0000AB0C000060
:1000D000AD0C0000AF0C0000B10C000000000000EF
:1000E0000000000000000000000000000000000010
:1000F0000000000000000000000000000000000000
:1001000000000000000000000000000000000000EF
:1001100000000000000000000000000000000000DF
:1001200000000000000000000000000000000000CF
:1001300000000000000000000000000000000000BF
:1001400000000000000000000000000000000000AF
:10015000000000000000000000000000000000009F
:10016000000000000000000000000000000000008F
:10017000000000000000000000000000000000007F
:10018000000000000000000000000000000000006F
:10019000000000000000000000000000000000005F
:1001A000000000000000000000000000000000004F
:1001B000000000000000000000000000000000003F
:1001C000000000000000000000000000000000002F
:1001D000000000000000000000000000000000001F
:1001E000000000000000000000000000000000000F
:1001F00000000000000000000000000000000000FF
:1002000000F1804000F5C0400068012818BF0020C0
:10021000704700F1804000F5C04081B000210160CE
:1002200000680090009901B0704730B5039D049CB0
:1002300041EA420141EA830141EA0521DFF8A824AD
:1002400041EA044142F8201030BD4FF0A04202EBD9
:100250008000D0F8003723F44033C0F80037D0F8DE
:10026000002742EA0142C0F80027704738B50FF274
:10027000A84425680095034606E05DF82340D4F8BD
:10028000104542F8044B5B1C0C18A342F5D331BD5A
:100290000246012002F00703D2089840895C08401A
:1002A000704710B5C20801248B5C00F0070004FA07
:1002B00000F01843885410BDDFF83014084490F95A
:1002C0002420082A8041C00F7047DFF8201408441A
:1002D00090F92420082A01DB012070470020704794
:1002E000DFF80814084490F92420D043C00F704769
:1002F000DFF8FC13D5E7F0B5034614004FF0FF30EC
:1003000007BF0824092500240825DFF8E06300E082
:10031000641CAC420ED256F8247017F1010FF7D1CD
:10032000F01880F8244046F8241012B9301980F8EB
:100330003C30204640B2F0BDDFF8B0134FF0FF3242
:1003400041F820200828A4BF081880F83C207047F6
:1003500038B5DFF8984394F8490008B1082032BD59
:10036000FF22202104F1240000F0D8F90025E8B292
:10037000FFF7E2FF6D1CE8B20928F8DB042104F165
:10038000450000F005FADFF86C13DFF86C33C0208D
:10039000087040221A604FF4BE70FFF73AFFDFF892
:1003A0005C134FF000400860012284F849200020CF
:1003B00032BDFEB505460E46DFF830034119002474
:1003C00091F9242012F1010F18BF082442D1B0780E
:1003D00068B96FF0010281F8242001207378DFF8FA
:1003E0002013A840012B0CBF0860486027E00122C1
:1003F00000212846FFF77FFF10F1010F1DD0727812
:100400003378DFF80073DFF8001357F820C001EAF3
:100410000C0147F820101B04290201F4F85103F4E1
:100420004033120557F820C00B4302F480121A43E0
:1004300042EA0C0247F82020CFE704240AE00194A6
:1004400000940023012201212846FFF7EEFE2846F2
:10045000FFF74EFF2046FEBDDFF89002051920464B
:100460002AE7DFF8A8120A68012303FA00F020EA5D
:1004700002034B60104088607047FEB505460F468A
:100480001646FFF72DFF002408B1082449E0BA788A
:10049000520802F0010231462846FFF72CFF0646BB
:1004A00016F1010F3CD0B878410717D4C0070AD520
:1004B0004FF0A04101EB8500D0F8001721F00201B8
:1004C000C0F8001707E000210194009100227B781A
:1004D0002846FFF7AAFE2846FFF70AFFB8783978C2
:1004E000820713D5874A8A4852F82630034042F8DB
:1004F00026302D02090452F8263005F4F85501F48F
:1005000040310D431D4342F826500AE077488219D6
:10051000304492F83C3043EA811380F83C3000E0EC
:1005200004242046FEBDF8B50E4604466F4DFFF785
:10053000CCFE2F19B8B197F92400284490F93C005B
:100540000006800F032805D172480068E040C1070B
:1005500002D503E0012801D1022100E00321204659
:10056000BDE8F44071E6FFF77AFFD8B197F924406F
:10057000644850F8241041F0010140F82410A00014
:1005800000F5807000B2FFF744FE002E1EBF97F901
:10059000241055F82100002804D00121574801FA01
:1005A00004F40460F1BD2DE9F84384B00025009502
:1005B0004FF480760127082430B2FFF721FE00288F
:1005C0001EBF4E480068384203D030B2FFF721FE0C
:1005D0003D437F00361D641EEED14FF4BE70FFF721
:1005E0000FFE50B14FF4BE70FFF713FE6A460121B3
:1005F0000020FFF73BFE45F000452806DFF8EC80C1
:1006000016D0012600273F4C2E420DD054F827006B
:1006100054F8271058F82720130005D0090C01F0D2
:100620000301C0F30420904776007F1C082FEBD312
:10063000002D35D502A900224FF0FF300A6001904D
:1006400015E02846FFF701FE0124380002D03146AC
:100650002846B84724B303AA01210020FFF706FE6D
:100660000398009988421BD00299009001910024C0
:1006700098F94400C6B210F1010F26F0C0050FD062
:1006800001A92846FFF704FE50B108EB0500B609A2
:1006900090F9241058F82170380004D1032E04D0AA
:1006A00005B0BDE8F083032E03D102A92846FFF769
:1006B000F8FD0D4850F82500000C00F003096946CC
:1006C0002846FFF7E5FD18B1B9F1020F03D0E7E7BF
:1006D000B9F1030FE4D1032EB7D1B9F1020F0CBF6A
:1006E00003210221ADE700000007005004000020B4
:1006F0004900002006E400E000E100E0046300405F
:100700000805005010650040FFE0ECFF04050050B4
:10071000FFE0FCFF100500500000005062F30F22C4
:1007200062F31F4200B500BF13009646944610398D
:1007300028BFA0E80C50FAD85FEA417C28BF0CC063
:1007400048BF40F8042BC90728BF20F8022B48BF38
:1007500000F8012B00BD30B4002513E050F8042B45
:10076000D30744BFA9F101039A18091F042942F8CD
:10077000045BFAD213468C0744BF15809B1CC90743
:1007800048BF1D7050F8041B0029E7D130BC7047EA
:10079000002200F001B8FEE7401810F0030308D073
:1007A000C91A1FD3DB0748BF00F8012D28BF20F866
:1007B000022D130030B414461546103928BF20E925
:1007C0003C00FAD8490728BF20E90C0048BF40F890
:1007D000042D890028BF20F8022D48BF00F8012D04
:1007E00030BC7047C91818BF00F8012DCB0728BFCF
:1007F00000F8012D7047FEE730B5984801780629CA
:1008000004BF017911F00F0F11D1816801F0F002DE
:10081000302A1FBF01F0F003402B01F0F0015029F6
:1008200005D18F498F4B0A68C2F304211960017802
:10083000062904BF017911F00F0F02BF017A01F000
:10084000F001302902D1884A884911600378884A2A
:100850008849062B04BF037913F00F0F0FD183686B
:1008600003F0F004302C1FBF03F0F005402D03F01F
:10087000F003502B03D10B68C3F34233536003786A
:10088000062B04BF037913F00F0F02BF037A03F0A6
:10089000F003302B04D1784B1C6824F080741C606A
:1008A0000378062B04BF037913F00F0F10D1836870
:1008B00003F0F004302C1FBF03F0F005402D03F0CF
:1008C000F003502B04D16D4B00241C605C6014605D
:1008D0000478062C04BF037913F00F0F06D1037AB6
:1008E00003F0F003302B04BF032393660278062A3B
:1008F00004BF027912F00F0F02BF027A02F0F00279
:10090000302A08D15E4A052313600124946700252C
:1009100095603F2353600278062A04BF027912F0E3
:100920000F0F02BF027A02F0F002502A23D1554B7A
:10093000554A1C6814605D6855609C689460DD6869
:10094000D5601C6914615D6955619C691462DD693B
:1009500055621C6A94625D6AD5629C6A1463DD6AA2
:1009600055631C6B14645D6B55649C6B9464DD6B08
:10097000D5641B6C13650278062A04BF027912F055
:100980000F0F10D1826802F0F003302B1FBF02F06E
:10099000F004402C02F0F002502A04D149693B4A8D
:1009A00001F04F0111600178062904BF017911F0AF
:1009B0000F0F12D1806800F0F00130291FBF00F046
:1009C000F002402A00F0F000502806D130480168BB
:1009D000CA0744BF6FF0010101602E480268062A71
:1009E00004BF4068062804D12B48016841F48061A7
:1009F00001602A49C86F40F47000C867BFF34F8F89
:100A0000BFF36F8F264A106800285CBF506800282B
:100A10001CD5244B01241C60234C00F049F81525FB
:100A2000156000F045F8556000F042F800221A60A9
:100A300000F03EF8BFF34F8F0A681C4802F4E062F2
:100A400002430A60BFF34F8F00BFFDE7014A02492E
:100A5000116030BD000000200090D003E00F00F0D6
:100A6000240300104035014074C007400DF0ADBABA
:100A70003805004044020010FCED00E00C0100408D
:100A8000105600400404001020C50040E40E004051
:100A900000040040300100103C1700400CED00E065
:100AA0000012001004E5014000E401400400FA05D2
:100AB00020680028FCD070471120FFF7D2BC00004E
:100AC000E0B5FFF745FC08B100F024F80FA001687D
:100AD0000191112001A9FFF76CFC08B100F01AF890
:100AE0000BA10A68009203238DF801306946064A7B
:100AF0000D20FFF7C2FC08B100F00CF801210D2019
:100B0000FFF711FDFEE70000B90A00000100000038
:100B1000030002001FB5694600220023002481E87B
:100B20001C0002906A46002144F2010000F002F825
:100B30001FBDFEE772B609480168CA0700D500BEAE
:100B4000BFF34F8F064907480A6802F4E062024388
:100B50000A60BFF34F8F00BFFDE700BFF0ED00E07C
:100B60000CED00E00400FA0530B450F8041B79B134
:100B70000268436802440830DC0744BFA9F101045D
:100B8000E31852F8045B43F8045B091FF9D1ECE762
:100B900030BC704710B5074979441831064C7C4485
:100BA000163404E00A68081D114488470146A14232
:100BB000F8D110BD2C0000004C0000004EF688510A
:100BC000CEF20001086840F470000860BFF34F8F58
:100BD000BFF36F8F4FF00070E1EE100A7047000016
:100BE00077FBFFFF4C000000040000200000000025
:100BF00079FFFFFF040000006800000000000020F3
:100C000000000000FEE700000120C046002801D0DF
:100C1000FFF7C0FFAFF300800020AFF30080FFF7C5
:100C20004FFF00F000F800F001B8FEE70746384635
:100C300000F002F8FBE7FEE7202109032631182027
:100C4000ABBEF9E70148804701480047F9070000BB
:100C5000550C0000AFF30080FFF7B0FFFFF7D4FFA3
:100C60000090D003FEE7FEE7FEE7FEE7FEE7FEE7C3
:100C7000FEE7FEE7FEE7FEE7FEE7FEE7FEE7FEE74C
:100C8000FEE7FEE7FEE7FEE7FEE7FEE7FEE7FEE73C
:100C9000FEE7FEE7FEE7FEE7FEE7FEE7FEE7FEE72C
:100CA000FEE7FEE7FEE7FEE7FEE7FEE7FEE7FEE71C
:020CB000FEE75D
:0400000500000C5596
:00000001FF
