:020000040002F8
:106000000051002055F602000B830200B783020006
:106010001B8B0200FFA102007BA602000000000013
:10602000000000000000000000000000A3C6020005
:1060300093E9020000000000F3E902003DF50200D0
:10604000C3F50200CFF5020021AD0200C7F6020041
:10605000C9F60200CBF60200CDF60200CFF6020030
:10606000D1F60200D3F60200D5F60200D7F6020000
:10607000D9F60200DBF60200DDF60200DFF60200D0
:10608000E1F602003FD40200E3F60200E5F602006A
:10609000E7F60200E9F602005FCD0200EBF602002F
:1060A000EDF60200EFF60200F1F60200F3F6020050
:1060B000F5F60200F7F60200000000000000000004
:1060C000F9F60200FBF60200FDF60200FFF6020000
:1060D00001F7020003F7020005F7020000000000CC
:1060E00000000000000000000000000000000000B0
:1060F00000000000000000000000000000000000A0
:10610000000000000000000000000000000000008F
:10611000000000000000000000000000000000007F
:10612000000000000000000000000000000000006F
:10613000000000000000000000000000000000005F
:10614000000000000000000000000000000000004F
:10615000000000000000000000000000000000003F
:10616000000000000000000000000000000000002F
:10617000000000000000000000000000000000001F
:10618000000000000000000000000000000000000F
:1061900000000000000000000000000000000000FF
:1061A00000000000000000000000000000000000EF
:1061B00000000000000000000000000000000000DF
:1061C00000000000000000000000000000000000CF
:1061D00000000000000000000000000000000000BF
:1061E00000000000000000000000000000000000AF
:1061F000000000000000000000000000000000009F
:10620000006901F0C5BF8068D0F8482161F38D12A4
:10621000C0F848217047002818BF01F0D9BF704767
:1062200010B504462068FFF7F6FFA168CA7F06E0B4
:1062300010B504462068FFF7EEFFA1688A7F497E0B
:106240008018B0FBF1F301FB1300401E8041C00F2A
:1062500010BD2DE9F8430646884614461D46002722
:106260001DE07068D0F800C0DCF80C906B46224648
:1062700008EB0701C8470098C719241A78B9B16814
:10628000087803280BD0D1F84801C0F3401000284B
:10629000F9D0D1F8480120F02000C1F84801002CC5
:1062A000DFD128001CBF00992960BDE8F1830A46B0
:1062B000006946A101F078BF38B5406804682569D7
:1062C000A84731BD2DE9F843044616461D4609BBD3
:1062D000DFF8000BDFF8004B041BB6EBD40F2CD219
:1062E0000027DFF8F88ADFF8F89A00E07F1CB7EBA8
:1062F000D40F22D209F1040050F8372058F82600B4
:10630000116801F0BDFF0028F0D109F1040050F838
:10631000371013E08CB1207840B1089F626839468D
:1063200030469047386840B12F6008E06168360118
:10633000885910B18819286001E000212960BDE862
:10634000F18338B58568006805F11404FFF763FF31
:10635000A071A179E87F00F018F82070A179E87F9A
:1063600000F00DF8A070A179A87F00F008F8E070A7
:10637000A179A87F00F009F86070204632BD0918A5
:10638000607991FBF0F0401C70470818617990FB30
:10639000F1F201FB1200401C70470000D0F8100021
:1063A00000A204E01B5B4A00D0F8100001A2C2A1C9
:1063B00001F0FABE1B370000D0F8100000A2F6E78B
:1063C0001B3800000069BDA101F0EEBE256300008E
:1063D0000A0004D0D0F8100001A101F0E5BE70471A
:1063E0001B5B2564440000000A0004D0D0F81000B4
:1063F00001A101F0D9BE70471B5B2564430000007A
:106400000A0004D0D0F8100001A101F0CDBE704701
:106410001B5B2564410000000A0004D0D0F8100086
:1064200001A101F0C1BE70471B5B25644200000062
:1064300070B50446FFF785FF0546A878E9788842DD
:106440000CBF012600262046FFF7EAFE18B92046B9
:10645000FFF7EEFE10B12046FFF7B4FF6EB9E97802
:10646000A878091A00F011F869782878814204D2D6
:10647000411A2046BDE87040AFE169782878091AD2
:106480002046BDE87040C9B2A2E7C9B22046B7E7CE
:1064900038B50446FFF755FF0546AA792978A8784C
:1064A000521C914208BF012812D0022802D3411E7B
:1064B000FFF7EBFFA9792878814203D2401E00F054
:1064C00008F802E0491C00F008F8A1680020C8772D
:1064D00031BD411AC9B220467AE7091AC9B220462D
:1064E00082E738B50446FFF72CFF0546287869781F
:1064F000884202BFA878E978884214D0E978A87861
:10650000884204D2091AC9B22046FFF785FF69788C
:106510002878814202D2FFF7DCFF01E0FFF7DDFFC0
:10652000A068817FC17731BDFEB5054600278DF893
:1065300000708021AA6802F1A00001F0E3FE286942
:1065400038A101F031FE2846FFF75AFE00264FF42D
:106550007A7401AB012269462846FFF7ADFE019827
:1065600038B900BF32A14FF6C01041F00101884791
:1065700012E09DF80010A8681B2907D090F8A01021
:106580001B29E6D19DF8001052290CD0A03081556E
:10659000761CF6B20A2E34D201980028D9D1641E96
:1065A000D7D10D20FEBDA03000218155AB6803F18D
:1065B000A00460785B2802D021700B20FEBD02226F
:1065C0000A26A05C521C3B28D2B21FD006FB07074C
:1065D000303F802AF5DB0C20FEBD06FB0101521C7A
:1065E0003039D2B2802A13DBF5E7A868B9B2FB29AB
:1065F00026BFFA2282758775A968002081F8A0005D
:10660000FEBDA96881F8A0700420FEBD802AE2DAF0
:10661000A05C0028E1D188B2FB2826BFFA201875BB
:106620001975E2E71B5B366E0000000000000000F9
:106630000338FDD870470000F8B50A0083681EA132
:1066400012D0DB7E934216D00BA6D6E90073CDE9BB
:10665000007302F12F038DF805308368DA766A46FD
:10666000006901F0A1FDC7BD0022DA76D0F8100064
:1066700003A201F099FDC7BD1B5B313B33006D00E8
:106680001B5B6D000A0000D17047F8B58268137F6C
:106690008B420FD00AA501F12F03D5E90067CDE9A0
:1066A00000678DF80330826811776A46006902A19D
:1066B00001F07AFDE3BD0000257300000A00000030
:1066C0001B5B34006D000000806800F11B02107835
:1066D0000870507848707047F8B506460F46B068A5
:1066E000D0F84841C17F827F551A04F00104EDB211
:1066F00014BB7F2A65DA35B1084400F120012A462F
:10670000213001F003FEB068C17F084480F820709A
:106710000CB900F057F80DB33046FFF712FE71A721
:106720008178C07881420CD100F027FF2C1BE1B2A8
:106730003046FFF74DFE18E07F2AE4DB002DE2D162
:10674000F1BD3046FFF730FE00F017FF3046FFF78F
:1067500033FE01213046FFF747FE06E00CB100F0A2
:1067600031F839463046FFF7A2FDB068C17F491CB9
:10677000C1773046FFF754FD0028304602D0BDE80F
:10678000F2401FE6FFF754FDD8B13046FFF7D9FDC0
:106790000446E178A078091A491EC9B23046FFF7CD
:1067A0003BFE3046FFF70EFEE178A078091AC9B229
:1067B0003046FFF725FE30462178BDE8F440491EFB
:1067C0000BE0F1BDB068817F491C81770021B06882
:1067D000827F104480F820107047C9B204E60000A0
:1067E00070B50546AB689C7F002C1CBFD87F002885
:1067F0003AD0241AE2B21E181F33521C06F12001AF
:10680000184401F083FDA868C17F4A1EC27735A6EF
:10681000A868817F4A1E8277E0B2F0B1082128463D
:10682000FFF745FD2846FFF78CFD8178C07881424F
:1068300009D100F01DF82846FFF7B0FDE1B2284667
:10684000BDE87040C4E52846FFF7AEFD2846FFF7D7
:10685000A5FD00F00DF8284648E0286903A231465E
:10686000BDE8704001F0A0BC70BD00000820080029
:10687000A868C17F084400F1200332460821284659
:1068800000F05DBF70B50446A068C17F857F6D1ABA
:10689000EAB2002A25D0084400F12101203001F09D
:1068A00035FDA068817F4A1E82772046FFF749FDAB
:1068B0000CA68178C078814209D100F04EF9206998
:1068C00009A2314601F070FC2046691ED9E5204638
:1068D000FFF76AFD2046FFF761FD00F03EF9204614
:1068E00004E070BD257300001B5B4B00BDE87040E9
:1068F00062E52DE9F84F804600248A4617469B46FC
:10690000C8F80040387848B101F04BFD70B1002064
:1069100007F8010BD8F800105945F3D30020D8F838
:1069200000304AF823002046BDE8F28FD8F8000076
:10693000411CC8F800104AF82070002404E000F060
:1069400068F800F061F87F1C3D78002DE2D064B952
:10695000222D18BF272D02D05C2DF0D005E000F0CD
:1069600058F800F051F82C46EEE7AC4204D100F0A4
:1069700050F800F049F8E0E7002C3FD05C2DE2D160
:106980007878A042DBD07D1E302818D14FF0000966
:106990000226B85DA0F13001082904D2761C042E2D
:1069A00041EAC909F5DD032E09DB00F032F8801B4E
:1069B000821CA91900F02AF807F8019BC4E778287F
:1069C000C1D14FF000090226B85DA0F130020A2AB9
:1069D00038BF30380AD3A0F16102062A38BF5738D1
:1069E00004D3A0F14102062A05D23738761C032EC3
:1069F00040EA0919E8DD032EA5DBD6E7284601F0B9
:106A0000D0FC002886D19EE70246791C384601F06A
:106A10007DBC3846FFF7FFBB8268022911700CD19C
:106A2000002182F8201000228168CA7781688A7765
:106A3000C8A20368032100F082BE70477FB50446F8
:106A4000684600220023002580E82C00A66806F591
:106A50009E72906831BB002829D02046FFF718FDB0
:106A6000A068D0F8440100F0EBF8A16801988D7F90
:106A7000C1F8440100283DD101F1A000FFF7CBFB94
:106A800030B1A06800F1A001203001F095FC02E0D7
:106A9000A16881F82000A0682030FFF7BCFB8DF8CA
:106AA000080038E0516888421CBF1068002853D0A5
:106AB0002046FFF7EDFCA168D1F8440190B900F041
:106AC00000F90546A06800F59E710A688A60E9B27F
:106AD00029B100F12001A03001F06EFC0AE080F83D
:106AE000A01007E000F0ACF8A1689DF808500098ED
:106AF000C1F844010023A068D0F8440100F0A1F8D7
:106B0000A0689DF8082000F12001D0F84401092375
:106B1000521C01F019FDA1689DF80800C877EDB27C
:106B2000A1689DF8080088779DF80800A8423CBF3E
:106B30002046FFF733FCA06800F1200385A200F097
:106B400012F82046FFF76CFB18B92046FFF770FBE0
:106B500010B12046FFF736FC7FBDA068C17F084416
:106B600000F1200332460821204600F0E8BD3EB582
:106B700004460D46A16801F59E72106840B9156083
:106B80005560002200920192887F8DF8080016E07F
:106B900000F056F801950023A068D0F83C010922C6
:106BA000694601F0CDFC00200190A068D0F83C11AE
:106BB0000091807F8DF80800A068C0F83C51002348
:106BC00009226946284601F0BBFCA068827F00F1DB
:106BD00020010923521C284601F0B2FC37BD3EB506
:106BE0000546A868D0F840414CB300230922694605
:106BF000204601F0A9FCA9680198C1F840010921CB
:106C0000684601F07FFB002309226946204601F017
:106C100097FC204601F029FCA86800F59E714868A1
:106C200008B9086037BD00F00BF800200090002381
:106C3000A868D0F840010922694601F081FC37BDFF
:106C400000230922694601F07FBC7FB50646B16882
:106C500000F037F8C5B2B06800F59E700021816081
:106C60005DB30068E0B1FFF7EBFF9DF808209542A7
:106C700016D1B06800F1A001D0F83C010923521CE4
:106C800001F062FCB46804F1A00104F1200001F0FD
:106C9000F7FA10B984F8A0007FBD002184F8A01095
:106CA0000824706905F10A0101F0AEFB01003046CD
:106CB00004D1FFF794FF641EF3D17FBDFFF757FFA8
:106CC0007FBD01F12000FFF7A6BAF8B505460F46D3
:106CD000A868C37F817F1646CC1A71188029E4B258
:106CE00037DA310035D000F1200119442030F31893
:106CF000621C184401F00AFBA86800F12003C07F61
:106D000032463946184401F001FBA968FFF7D9FF64
:106D1000A96888770FA2A86800F12001C07F0B182E
:106D20000821284600F00BFDA868C17F7618C677B9
:106D30002846FFF775FA18B92846FFF779FA10B117
:106D40002846FFF73FFB24B12846BDE8F240FFF795
:106D50006FBBF1BD257300002DE9FC410C00064618
:106D6000174603D1B1680020487730E00FF2183899
:106D70004046FFF750FAC7194046FFF74CFAB16892
:106D80004A7E101AFAB2B0FBF2F52046FFF743FA3A
:106D90003F1AB068417F4A1C4277EDB291FBF5F093
:106DA00005FB101545B900944FEA08030DA2072111
:106DB000304600F0C4FC04E02346B4A2072100F0F2
:106DC000E3FBF9B23046BDE8FC41FFF70DBBBDE87F
:106DD000F381000098F3020040F3020068250020D0
:106DE00040F302000A2573257300000080B501F00E
:106DF000B3FB401E8041C00F02BD00002DE9F84FDB
:106E00009CB007464FF0000BCDF828B00026BB68B9
:106E1000997FC1F17F01C9B20029D846D9460491B2
:106E200000F01B81DA7F03F1200103F1A00001F0E3
:106E3000B7FBB868C27F104480F8A060B86800F162
:106E40001F01C07F085C01F0ACFA00B1012009907D
:106E50000C23B868C0F8446100F1A0020BA903A894
:106E6000FFF747FD0B98FFF7D6F900255FFA80FA88
:106E700001950295039820B109994118491E88454A
:106E80004DD3099810B14FF0000A06E00BA850F856
:106E90002800FFF7C0F95FFA80FA002400F024F917
:106EA0000198641C002858D000F00AF90028F5D099
:106EB0000298761C70B90198611E0A9100F0FAFDE3
:106EC0005FFA80F90499A9EB0A00884201DAC0B29E
:106ED0000490CBE000F0EDFDC1B28945B8BF5FFA88
:106EE00080F904980028F4D018A900F0EFF802986F
:106EF000019A01681068514400EB0A0300225FFA0E
:106F000082FC13F80C00002808D011F80CC0604572
:106F100004D1521CD0B20028F1D1FF22A0E00024FD
:106F200000F0E2F8641C1AD00198002816D001681D
:106F30000BAA52F8280001F0A3F90028F0D101981B
:106F4000856855B1019840B108F101005FFA80F8F9
:106F500003990998411888458CD336B97DE00421FE
:106F60004CA2384600F0EBFB77E0012E4BD128789D
:106F700010B105A900F0AAF8029800F09BFD504559
:106F800001D000F0AAF8B868C17F084490F820004A
:106F900001F007FA0028B8681AD1D0F84811CA07DA
:106FA00011D5D0F8481149084900C0F848113846B1
:106FB0002021FFF791FBB868D0F8481141F001019A
:106FC000C0F8481149E020213846FFF785FB44E02E
:106FD000C17F807F814240D23846FFF7B2F9847882
:106FE000B868C17F491CC1773846FFF7AAF9807895
:106FF000844204D101213846FFF7F6F92DE03846E6
:10700000FFF7E0F929E04A4600213846FFF7A4FEE1
:107010000A9C00F069F8019800F052F8641C0028FE
:10702000F7D0019801684A463846FFF795FE761E6C
:10703000002EEED13B6816A20321384600F07FFBFC
:10704000B86800F1200311A20821384600F077FB50
:107050003846FFF7EDF900F040F81DB0BDE8F08FBD
:107060000499D0B28842BCBFD2B204920198029077
:10707000002CA4F1010B7FF411AF00BF05A2042185
:10708000384600F05CFB5CE7202000002573000020
:107090000A2573005461622066756E6374696F6EB1
:1070A0003A20636F6D6D616E647320636F756E74EB
:1070B0006572206F766572666C6F7765642E0A0064
:1070C00001680BAB524653F828008FE6009102ABE3
:1070D0005A4641462846FFF7F5B80298049A0168D7
:1070E000D2B251443846F0E505A8009001AB2246E3
:1070F00041462846FFF7E6B83EB504460020019019
:1071000001E00021417001AB012269462046FFF7F2
:10711000D3F8019860B19DF800108029F3D2A068DF
:107120004278032AEDD8DFE802F004777C02E8E732
:1071300037BD0D2918BF0A2908D000212046FFF7C6
:1071400062F80FE0A16801204870DCE7D0F8482120
:107150009204120E1EBFD0F848018004B1EB106FEC
:1071600000F0D7809DF800000028CCD008282DD052
:10717000092823D01B28E5D07F282FD00546A5F16C
:1071800020005F2808D3284601F04DFA20B9284690
:1071900001F053FA0028B6D000F0D1FD09079DF8A0
:1071A000001024D52046FFF797FAACE7204600F000
:1071B0000DF902212046FFF72FFC37BD00F05EFAE3
:1071C0000007A0D52046FFF719FE9CE700F056FA0D
:1071D000000798D52046FFF703FB94E7A068D0F896
:1071E000480100078FD52046FFF74CFB8BE7827FD5
:1071F0007F2AFBDAC27F531CC377A068104480F853
:1072000020100021A068C27F104480F82010A068E0
:10721000817F491C817776E75B2988D10222427001
:1072200071E700224270D0F848211207C5D53129F4
:1072300014D0322961D0332968D0342957D041295C
:1072400012D0422915D0432915D0442932D04629DD
:107250004FD0482904D04C2951D054E70321417024
:107260002046FFF715F94EE701212046FFF7E6FB20
:1072700049E70021F9E72046FFF763F8054628783B
:107280006978884202BFAA78E9788A42F0D06A79A0
:1072900090420BD101212046FFF7BEF86979FFF734
:1072A0001AF9A068C17F491CC1772CE70121FFF7BB
:1072B00016F9F6E72046FFF744F80546AA7928783C
:1072C000521C904204BFA97801290BD001280AD191
:1072D0000121FFF7DBF86979FFF701F9A068C17FA9
:1072E0004A1EC2770FE70121FFF7F5F8F6E7032101
:1072F00041702046FFF7F5F805E703214170D0F80B
:10730000481181F00101C0F84811FCE603214170E9
:1073100065E72046FEF777FFA168887F00287FF4A5
:1073200045AF0022C1F844212046FFF74BF840E763
:1073300070B504460025A16891F82000E8B970BD39
:10734000E8B2D0B9A16881F8200070BD6D1C761E2E
:10735000307801F026F80028F8D1A068817F421823
:1073600002F11F039E4207D000F12006E8B2091A7D
:107370000022725400F022F870BDA06800F12001D4
:10738000EAB26D1C885C01F00CF80028D8D16D1EA3
:10739000E8B260B1A3689A7F521C03F12001121A6F
:1073A000014403F1200000F0B1FF00F007F80025D0
:1073B000A068817F084400F11F06C9E7A068817FAB
:1073C0004D1B8577A068817FC17770472DE9F84F05
:1073D00094B00646FFF7ACFF3046FFF736FC304668
:1073E000FFF77FF83046FEF71BFF002510B9304647
:1073F000FEF7E8FFB06800F120020C2307A901A8FE
:10740000FFF777FA0346019818B93046FEF7DAFF1E
:107410008EE023B148A2022100F0B6F888E00027F0
:10742000DFF8348BDFF8340BDFF8341B401A4FEAF7
:10743000D0094F4522D208EBC7046068016807985D
:1074400000F01EFF10B17F1CB945EBD2029500225F
:10745000B068011D00200023002781E88D006168CD
:10746000C86808B100F084F86068D0F808904FF060
:1074700001080024ADA70DF11C0A1AE033A0079BF8
:1074800037A200900221304600F059F950E001681F
:107490005AF8280000F0F4FE58B90299C86810B1F3
:1074A00000F066F845460298D0F8089008F1010807
:1074B0000024019880452CD25AF828B039464FEA6A
:1074C0000B0000F0DDFE20B127A1584600F0D8FEE9
:1074D00090B9B068D0F8482142F002022946C0F8BD
:1074E0004821B0680369B3B107A8019C00EB810291
:1074F000611A3046984714E003A8009002AB224678
:1075000041464846FEF7DEFE641C1CBF0298002878
:10751000BDD12946E5E70FF2C4720221304600F0E2
:107520000EF9B068D0F8481121F00201C0F84811F6
:1075300015B0BDE8F08F00006E6F74207465726D39
:10754000696E617465643A2025630A003A20636FAE
:107550006D6D616E64206E6F7420666F756E640071
:10756000257325730A0000002D2D68656C700000DE
:10757000B068001D102201F013B8B068C17F084444
:1075800000F120033A4608213046D8E00968006837
:1075900000F076BE30B18868D0F8481141F0200183
:1075A000C0F848117047F8B504461546E0684268CF
:1075B000946023466068DFF8B42906683768B847E6
:1075C000002844D1606900F01DFF00283FD1A06869
:1075D00000F59E7100220A604A604FF4A67100F027
:1075E00091FEA068DFF87039D0F8481141F0200111
:1075F000C0F848110122D0F8481165F38201C0F8A3
:107600004811D0F8481141F00801C0F84811027043
:10761000502141761820A1680876DFF84009DFF88C
:107620004019411A0022C908DFF844091C1D05E071
:1076300054F832502E6840F82260521C8A42F7D328
:1076400021B1DFF83039042201F05BFA0020F2BDED
:1076500070B505461E46FFF7A6FF04000CD15EB1CB
:107660000499E86801F085FD002801D5042070BD6B
:10767000E968CA6801205071204670BDA068D0F842
:107680004801704738B50546A8680178012901D03E
:10769000082032BD6868026893680021984704009A
:1076A0000FD108212846FEF7C7FF01212846FEF723
:1076B000E9FF28691EA100F077FD02212846FFF7A7
:1076C000ABF9204632BD38B504461021A26802F558
:1076D000A47002F0F5F8A0680178022919D12046BB
:1076E000FFF70AFD0021204600F0E7F988B111A557
:1076F00023682A460321FFF737FA00F020FB090729
:1077000007D500F120032A46FFF72DFA2046FEF7A1
:107710008FFE2046FEF774FDA068BDE834406FF090
:10772000100100F5A47002F0E3B800002D6800001D
:107730000A0A0000257300000023FEF78ABD08B482
:107740007EB50D460FF61C2116460A6801920446C6
:1077500007AB0193A168D1F84801C0F3800000286D
:107760001CBFCA7E954214D069462046FEF7ACFF86
:1077700029462046FEF760FF00F010F89DF8001043
:107780002046FEF759FF9DF801102046FEF77AFFCC
:1077900001E000F003F877BC5DF808FB206901AA5E
:1077A000314602F087B92DE9F04B0C0001D1BDE85C
:1077B000F08B0546164613B1F1B2FEF715FE002711
:1077C00000E07F1CE05D00F0ECFD0028F9D12046D0
:1077D000FEF721FDC11BA868407E801B88424FF048
:1077E000000B04EB070817D2A9460025834618F8BA
:1077F000050000F0D6FD20B118F805000A28AB46B8
:1078000036D0D9F808104A7E7019904238BF6D1CE6
:10781000EDD32DE00BF1010B8B4512D218F80B00C4
:107820000A28F7D12846FEF7EBFC00F029F80BF107
:10783000010007442846FEF7C5FDF1B22846FEF7D1
:10784000D3FD2869E11900F0AFFC2846BDE8F04BF4
:10785000FEF7B8BD7F1CE05D00F0A3FD0028F9D164
:107860002846FEF7AFFDF1B22846FEF7BDFDAEE7B4
:107870004D462846FEF7C4FC00F002F85F44EAE7F4
:1078800000235A4641462846FEF7E3BC2DE9F84F4F
:1078900082460FF6D80986B00C4617464846FEF7D2
:1078A000BAFC05460FF6C000FEF7B5FC281A0FF625
:1078B000C80500951FFA80F8DAF808000FF2547234
:1078C000436800F0F3F8DAF808004068FEF7A3FC1C
:1078D00006462846FEF79FFC8619DAF808008168FC
:1078E0000023B2B200F0DEF80FF2307200215046F1
:1078F000FFF725FF002F18BF002C1CD0002518E033
:107900000C266E43201D8059FEF785FC8346A05946
:10791000FEF781FC83441FFA88F0584508D2201DE9
:107920008059FEF778FC8046A059FEF774FC80442D
:107930006D1CBD42E4D30FF630052846FEF76BFC04
:107940004044801C86B20FF2E068CDF8009000F051
:10795000ABF8F01CADF808000023BDF808900FF25A
:10796000D0614A4600F09EF8002C00F09380049409
:107970000397002412E05046FEF724FD0DE020B1ED
:10798000009000F091F8BDF80890B9680029F2D095
:1079900000231FFA89F200F085F8641C03988442E2
:1079A00078D204990C2060430F187B683868002B4C
:1079B000E5D050B30190009508210FF2886250463F
:1079C000FFF7BDFEB01CADF800007868FEF723FCA1
:1079D00081463868FEF71FFC83462846FEF71BFCED
:1079E000BDF80010A1EB0901A1EB0B018A1E101AD2
:1079F000C1B25046FEF7F8FC3A215046FEF757FC5C
:107A0000BDF8000000F10109BFE70093B9E70020CD
:107A100001900025002707E000F04CF8A9B2814250
:107A200002D200F046F8054602A8009001AB3A46A3
:107A300001212046FEF746FC01987F1C0028EBD16F
:107A4000012F2CD00FF2086200215046FFF777FE7D
:107A50004FF0000904E0FF1C0023BAB200F022F846
:107A600002A8009001AB4A4601212046FEF72AFCFD
:107A7000019809F1010990B101680091AF1CBBB2F6
:107A800000F013F8019841680029E4D15046FEF750
:107A900099FCE5E7DAF80800C468002CB7D107B014
:107AA000BDE8F08F50467EE63346424608215046F8
:107AB00045E601980068FEF7AEBBF8B505468EB006
:107AC000EB685F6838680E46002201A902F0AEF943
:107AD000002408B100208BE06EB1019800F0DFFCBB
:107AE000A868D0F83811491CC0F8381101F0070116
:107AF00001297CD101242846FEF723FC0646B078F4
:107B0000022804D3411EC9B22846FEF779FC30781A
:107B1000022804D3411EC9B22846FEF759FC284664
:107B2000FEF73CFC34B10FF2385202212846FFF731
:107B300006FE5CE001980023082202A900F004FD83
:107B40000498BDF80E1005900826BDF80C00ADF89D
:107B5000180000220298ADF81A1000F00300012866
:107B60008DF81D2017D10298029CC0F3C2008DF839
:107B70001C0008230298C0F383160198B20008A9DC
:107B800000F0E2FC2869009005AB324608A9A00A83
:107B900002F052FA1FE0029800F0030002281AD106
:107BA0000298029CC0F3C200A40D8DF81C000827A7
:107BB000082C98BF2746019833463A4608A900F09A
:107BC000C3FC2B6905AA394608A802F07DFABE1944
:107BD000E41B002CEBD1019800F061FCE8684368DD
:107BE0001868002201A902F021F90028A2D0012082
:107BF0000FB0F0BD73B54568AE68B0680078042872
:107C000017D0032814BF0024012404E084F00101EC
:107C10003046FFF752FF286801A902F0B1F80028AA
:107C2000F4D1019800F037FC1CB100213046FFF779
:107C300044FF73BD4068806801213EE710B540688D
:107C4000846860680268936801219847A1680028E9
:107C50000CBF03200420087010BD38B5144682689C
:107C6000D2F84851AD0704D51A462146FFF70EFE5B
:107C700006E039B153680FF218420221FFF75FFDA9
:107C8000012032BD002032BD38B50229044607D19B
:107C9000FFF7F4FC830703D52046BDE838402DE00C
:107CA000ACA520690FF2D442294600F07DFA206984
:107CB0000FF2CC422946BDE8384000F075BA00000A
:107CC000012906D0022905D18168D1F84811890718
:107CD00000D513E001A2022131E50000506C65617E
:107CE00073652073706563696679206120737562BE
:107CF000636F6D6D616E642E0A000000002200212A
:107D0000C4E510B5012914BF0121002100F07DF860
:107D100028B900F014F821F00401C0F8481110BD92
:107D200010B5012914BF0121002100F06EF828B917
:107D300000F005F841F00401C0F8481110BDA0683A
:107D4000D0F8481170473EB501290446154603D1C5
:107D500003B0BDE83040D1E7022914BF0121002162
:107D600000F08DF808B900F001F837BD68680FF22F
:107D700048310190009102212B680FF230322046E9
:107D8000DDE47CB50D46022D164694BF002101218D
:107D900000F03BF8D0B9022D09D170680FF218310C
:107DA0000190009102213368FFF7E7FF73BDA068DF
:107DB0000FF21C32D0F8480102B000072046BDE89F
:107DC00070404CBF67A368A30021B8E473BD10B531
:107DD000012914BF0121002100F017F828B9FFF78D
:107DE000AEFF21F00801C0F8481110BD10B50129FF
:107DF00014BF0121002100F008F828B9FFF79FFF08
:107E000041F00801C0F8481110BD044600230022CB
:107E100023E7F8B5012914BF0121002184B00546EC
:107E200000F02DF848BBA8680FF2B827D0F8404101
:107E30000026F4B1082E1CD20023092201A92046F5
:107E400000F082FBA8689DF80C2000F1A001092336
:107E5000521C204600F078FBA868029C00F1A001AB
:107E6000009133463A4600212846FFF768FC761C0D
:107E7000DFE7A968002081F8A00005B0F0BD00236D
:107E80000022EAE6E0B5012903D103B05DF804EB76
:107E900034E702290BD151680FF21C2300930191A2
:107EA000022113680FF20422FFF749FC07BD03B05B
:107EB00094BF002101215DF804EB00230022CCE6F1
:107EC0003EB5012914BF01210021FFF79EFFB8B97B
:107ED000E06841680D68284600688068C0B2642187
:107EE000AA68019002924843B0FBF2F0C0B2009041
:107EF0000021A268D2F838310FF2F412FFF73FFFE9
:107F000037BD10B5012914BF01210021FFF77DFF06
:107F100048B9A168C1F83801E06841680868BDE85F
:107F2000104001F0E9BF10BD10B5012914BF0121B7
:107F30000021FFF76AFF58B920690FF24C2205A112
:107F400000F032F9A168502048761820A168087620
:107F500010BD00002573000040F3020098F30200FA
:107F600040F302006F6E00006F66660095750200B8
:107F7000682500208D7502002DE9FC410129044689
:107F800015463BD1A06800F1180500F119082046FC
:107F9000FEF7CAFA18BBA068077D867DFA21FEF7B6
:107FA0009EFAFA212046FEF737FA2046FEF7BCFA81
:107FB000A8B9A068017D88F80010A068817D2970AB
:107FC000204698F80020D71BF9B2FEF701FA28786E
:107FD000861BF1B22046BDE8FC41FEF711BAA0684D
:107FE0000FF24412502141761821A06801762046F4
:107FF00002B0BDE8F0410421FFF7A1BB032989418C
:10800000C943C90FFFF73BFF08B9FFF7AFFEBDE853
:10801000F381000025732573000000004F70746920
:108020006F6E733A0A0000002020252D2A733A0053
:1080300053686F7720636F6D6D616E642068656C47
:10804000702E00002020257325732573000000008A
:10805000537562636F6D6D616E64733A0A00000060
:108060004C6F7374206C6F6773202D20696E637280
:1080700065617365206C6F67206261636B656E6418
:108080002071756575652073697A652E0A00000098
:1080900025733A2077726F6E6720706172616D652B
:1080A00074657220636F756E740A000025733A253B
:1080B0007325730A0000000020756E6B6E6F776E7B
:1080C00020706172616D657465723A200000000075
:1080D0004563686F207374617475733A2025730A61
:1080E000000000005B2533645D2025730A0000005A
:1080F0004C6F7374206C6F67733A2025750A4D615D
:1081000078206C6F67207175657565207574696C72
:10811000697A6174696F6E3A2025752525205B2583
:10812000752F25755D0A00004E6F20726573706FA4
:108130006E73652066726F6D207468652074657259
:108140006D696E616C2C20617373756D6564203888
:10815000307832342073637265656E2073697A6596
:108160000A000000000000002C2000002D682C20D8
:108170002D2D68656C700000202D20001B5B4800D1
:108180001B5B324A000000001B5B3F336C000000A9
:1081900010B50446A2682AB121682069636998472E
:1081A0000020A06010BD0000002900D170470CB471
:1081B00038B500BF05A31C68009404AD00956A465D
:1081C00001F078FC31BC5DF80CFB00000000000001
:1081D00000F10103810704D010F8011B820781B16F
:1081E000FAD10268A2F10131914311F0803104BF4C
:1081F00050F8042FF6E709BAB1FA81F100EBD1008B
:10820000401CC01A7047F0B40246106895681318F5
:10821000506803EB5004C0071DD54D441BE013F814
:10822000017B05F8017B491EF9D1A0B1B60813F80E
:10823000011B06F00306032E08BF13F8016B01EBC8
:1082400006214942801C294405D011F8016B05F82C
:10825000016B401EF9D1A3420ED013F8016B16F04A
:10826000030104BF13F8011BC91C30090F28DAD120
:1082700013F8010B0F30D6E7F0BC02F10C00704789
:1082800081EA00039B0717D1820707D010F8012B62
:1082900011F8013BBAB19A42F6D014E002680B68BB
:1082A0009A42A2F1013301BF934313F0803F50F88B
:1082B000042F51F8043FF3D010F8012B11F8013BC3
:1082C0000AB19A42F8D0D01A704730B4002513E0B2
:1082D00050F8042BD30744BFA9F101039A18091FD2
:1082E000042942F8045BFAD213468C0744BF158078
:1082F0009B1CC90748BF1D7050F8041B0029E7D11B
:1083000030BC7047002201F061BFFEE781423ABFF6
:108310005318984200F034B98018990707D0521EBC
:1083200024BF13F8011D00F8011DF6D8704781071E
:108330001BD1103A07D330B433E93210103A20E998
:108340003210F9D230BC1032121F24BF53F8041D72
:1083500040F8041DF8D838BF121D521E24BF13F870
:10836000011D00F8011DF8D87047121FF3D3C10793
:1083700009D153F8041D121F20F8041D4FEA3141A2
:108380004180F6D2E7E753F8041D121F00F8041DE0
:108390004FEA3121A0F801104FEA3141C170F2D209
:1083A000D9E710B5044601F05AFF01462046096A94
:1083B000BDE810400847FEE75FEA000C80EA0103D1
:1083C0009B0715D1830706D011F8013B00F8013B4C
:1083D000B3B18307F8D10A68B2F1013323EA02038B
:1083E00013F0803F02BF40F8042B51F8042FF3E74D
:1083F00011F8013B00F8013B13B111F8013BF9E71B
:108400006046704701F088BF2DE9F04105460F46F0
:108410002E8B01F098FF361F040021D0F7190020A1
:108420000121FF1C20716171A046B7FBF6F7E680C1
:10843000FFB27F1EC8F80050002607E06179491C92
:108440006171C8F8000005608046761CBE4209D202
:10845000284601F078FF0028F0D1204600F005F80A
:10846000002000E02046BDE8F081F8B501460D4649
:108470004C79601E002200E0521C2D688242FBD322
:10848000002605E00F68284601F07FFF3946761C7C
:10849000A642F7D3F1BD0121001D01F035BA1CB58C
:1084A00004460121201D01F03BFA00909DF80000D8
:1084B00018B92046BDE81640D7E713BD2DE9F047AF
:1084C0001446B0F806804279256846465643361F62
:1084D0005F1903F1040CBE42BCFBF8F234BFF31A7F
:1084E0002B4608FB12CC2360002A01E00068521ED4
:1084F000FCD1A8EB0C029A469342089F4FF000096A
:1085000088BF92460E4605461C46BCB105EB0C00E2
:10851000001D06EB0903390052460EBF19460146FD
:10852000184600F02DF82D68A4EB0A04D144444508
:108530004FF0000CA246E8D9C246E6E7BDE8F08756
:108540001CB50192002402E01CB5019201240094A4
:1085500001AAFFF7B3FF13BD04E010F8013B6BB1B4
:10856000491C521E52B10B7890F800C09C45F4D0C3
:1085700002D24FF0FF307047012070470020704753
:1085800062B38B0708D0521E11F8013B00F8013B83
:1085900000F024808B07F6D1830740F0208000BFD5
:1085A000103A07D330B4B1E83810103AA0E83810C8
:1085B000F9D230BC530724BFB1E80810A0E8081076
:1085C00044BF51F8043B40F8043BD20724BF31F8C4
:1085D000022B20F8022B44BF0B7803707047121F48
:1085E00017D35B0009D151F8043B20F8023B1B0C68
:1085F000121F20F8023BF6D20BE051F8043B00F8C2
:10860000013B1B0A20F8023B1B0C121F00F8013B28
:10861000F3D238BF121D521E24BF11F8013B00F8DF
:10862000013BF8D8704710B5044601F018FE01462A
:1086300020460969BDE81040084710B5044601F01E
:108640000EFE01462046C969BDE810400847F8B54E
:108650001446402CA0B005460E460AD23CB12878FC
:10866000317805F8011B641E06F8010BF7D121B023
:10867000F0BD8027802C98BF27463A462946684699
:10868000FFF77EFF3A4631462846FFF779FF3A4624
:1086900069463046FFF774FFE41B3D443E44E8D191
:1086A00021B0F0BD2DE9F0411C46402CA0B005469C
:1086B0000E4690460DD25CB1287898F8001005F867
:1086C000011B641E327808F8012B06F8010BF3D168
:1086D0001CE08027802C98BF27463A4629466846EA
:1086E000FFF74EFF3A4641462846FFF749FF3A4614
:1086F00031464046FFF744FF3A4669463046FFF7A9
:108700003FFFE41B3D443E44B844E2D120B0BDE805
:10871000F0812DE9F843054689461746A9EB05087F
:10872000A0B0B8443C0015E08026802C98BF2646B7
:10873000B91B324649446846FFF722FFA8EB060200
:108740002946A819FFF7E2FD324669462846FFF799
:1087500017FFA41BE8D121B0BDE8F0832DE9F0415B
:1087600004460D46069F1646984621462846B847B9
:10877000002804D5424629462046FFF768FF2946CF
:108780003046B847002804D5424631462846FFF710
:108790005EFF21462846B847002805D542462946AF
:1087A0002046BDE8F04152E7BDE8F0812DE9F84FE1
:1087B0004F0003FB01F4BF1C00EB040B03FB07F4A9
:1087C000DDF828800091061905460C4691469A4628
:1087D00017E0CAF1000034184F4504D02146304656
:1087E000C047002801D57F1E2646524631465846CE
:1087F0003C46FFF72CFF7F00BF1CB3460AFB07F087
:108800002E18B945E5D20099A14210D2641E640821
:108810000AFB04F02F1839465846C047002806DDE9
:10882000524659463846FFF712FFBB46EBE7BDE814
:10883000F18F2DE9F54FA3B088462E9E1C46BFE070
:10884000FF087F1C239800966743234600EB4702EE
:10885000C119FFF783FFC7F1000B00962346EA1901
:10886000294605EB0B00FFF779FF7800D34440421F
:1088700000962346524659465044FFF76FFF23980F
:10888000009623465A462946C019FFF767FF029D06
:1088900000E03D462398A84206D201996F18294668
:1088A0003846B0470028F4D0C14580F023812946DE
:1088B0004846B047002808BFA144F5D01AE1234636
:1088C0004A4629464046FFF7EDFE0EE023982E9ECD
:1088D000874240F098800099884558D0C145EED134
:1088E000224629464046FFF7B2FEA0442544A14453
:1088F0000098804580F0038141462846B047002813
:1089000007D400F3FC80224641464846FFF79FFE0D
:10891000A144A044ECE726464FF0800B802E98BF80
:10892000B3465A46394602A8FFF72AFE5A46514630
:108930003846FFF725FE5A4602A95046FFF720FEAB
:10894000B6EB0B065F44DA44E6D1019FDDF88CA05C
:10895000BA45BBD260423818019029462E9A9047FA
:108960000028F2D4B2DC60420544DDF804A0402CBB
:108970002F46D0D2002CE8D0204639789AF8002033
:1089800007F8012B401E0AF8011BF6D1DDE72498F9
:10899000400800EB50002490A5EB0A050098249AAB
:1089A0000096A0EB0900B5FBF4F5B0FBF4F8A84580
:1089B000234644D323982946FFF73BFFCDF88C90FC
:1089C0002498002841D0B8F1210F3ED323984FEAD4
:1089D000580104FB08F88044614345186042019047
:1089E00008EB000A23980295AAEB0000B0FBF4F70D
:1089F000292F05EB0409BFF423AF239800962346E3
:108A00005246294641E7604200993F18884510D1F7
:108A10000544AF42814405D1224649462846FFF726
:108A200016FE65E723462A4649463846FFF73AFED2
:108A30005EE7224639464046FFF709FE69E74146B0
:108A40004846FFF7F6FEA846BAE7B8F1210F2AD349
:108A50005FEA58050BD0239F6D1E009623464246C1
:108A600029463846FFF7A2FE002DF5D1239723981B
:108A700004FB08F14518C4F1000907464D4422469D
:108A800029463846FFF7E3FDA8F101080096234682
:108A9000424600213846FFF789FEB8F1010FEDD8B4
:108AA00025B0BDE8F08FB8F1010FF9D923984546FC
:108AB000C4F100090746804604E022464146384694
:108AC000FFF727FE6D1EEBD0A04439464046B04765
:108AD0000028F2D4C246C34600E0DA46CB445946E9
:108AE0004046B0470028F8D4C245EBD02246414664
:108AF0005046E5E7CDF800802F46C846F8E62E96AA
:108B000024E7002800D170471CB51C0004D0009356
:108B100013460A46FFF78DFE13BDFEE72DE9F84325
:108B2000DFF8FC09FF21002281600260426000F250
:108B30001440426002600273DFF8E809FFF762FC4C
:108B4000B8BB0FF22030DFF8E049DFF8E089DFF84A
:108B5000689A01F085FCDFF8640A041B002612E025
:108B6000AE4209D059F8351059F836001422FFF7F3
:108B7000F3FC0128A8BF7F1C6D1CB5EBD40FEFD30D
:108B800028F82670761CB6EBD40F02D200270025F9
:108B9000F3E70020DFF8681A0022002605E008EB62
:108BA00080035A8041F82060401CB0EBD40FF6D30C
:108BB0000020BDE8F28330B591B1DFF8002ADFF87C
:108BC00068190568DFF86439511A002200E0521C68
:108BD000B2EBD10F06D233F82240AC42F7D102609B
:108BE000002030BD052030BD01B56846FFF7E3FF2A
:108BF00028B9DFF8C409009950F8310002BD0020FF
:108C000002BD0000491EDFF8B029032902EBC000B5
:108C10000BD8DFE801F002040608022070470420A8
:108C2000704700797047407970470020704770B5F1
:108C3000DFF8CC5900EB4000072455F8216004FA16
:108C400000F302F007029E4302FA00F0304345F8B9
:108C500021000022002304FA03F50540DD40ADB2F7
:108C6000954228BF2A46DB1C0A2BF4D3DFF8BC0848
:108C700000EB81014A8070BD32B500250446002B0F
:108C8000114668460ED0FFF796FFA0B9DFF87009CD
:108C9000009950F8215004EB44040720A0400540FF
:108CA000E54008E0FFF787FF28B90099DFF80809D9
:108CB00000EBC1029579E8B232BD0246002013688C
:108CC000C3F380029AB103F00300012802D0022806
:108CD00007D00BE00A68C3F38310801C82180A6077
:108CE00004E008689B0D9B1C1B180B60012070475B
:108CF000F8B5DFF82C4884B004F5836000F01EFE60
:108D000004F21445284600F019FE6068A768009038
:108D10000026009904F10C00394000EB81006946FF
:108D2000FFF7CBFF0028F4D101AB009A04F10C014E
:108D300000F014FAF9D90199BDF80A0001F0030115
:108D400001290AD002290FD1019906460098890D00
:108D5000C91C00EB9100009006E0064601980099BE
:108D6000C0F3831041180091284600F0E9FD08B1D6
:108D700000986060304605B0F0BD80B50021DFF896
:108D8000840800F085FD80F3100002BD2DE9F84F46
:108D90000446884693461F460A9DDFF88497FFF7EE
:108DA000ECFF09F10C0A7E1C00042E4040EA14403E
:108DB000E4004AF8260004F0380444EA8B14C4F3B3
:108DC000090409F10C0044EA88242F4044F001040E
:108DD00040F82740BDE8F18F2DE9FC41884600218D
:108DE0008DF800101646DFF838770446684601F023
:108DF0004BFC3868C8F80000A51CBA683968786868
:108E0000521C511A411807F21C480FE0012140463C
:108E100000F07AFDFFF76CFF0146404600F074FD5C
:108E2000B8683968401C411A78684118A942EDD3E6
:108E30002EB1A40104F4707444F0050402E0A4050A
:108E400044F006043968B868014007EB8102D46039
:108E500039689DF800006D183D6001F032FC01207A
:108E6000BDE8F681C42E00207F0000007030002095
:108E70002DE9FE43DFF8A86604460D469046994664
:108E8000B768012201A94846FFF7A6FFA8B10198DB
:108E9000801C002108E007EA000206EB820258F875
:108EA0002130D360401C491C4945F4D300974A4601
:108EB000019B29462046FFF769FF96F8200418B168
:108EC00000F020F80028FBD1BDE8F7830023002242
:108ED000CEE780B50092012300F012F801BDE0B5A5
:108EE000009201936A460223FFF7C2FF07BD1FB538
:108EF000069C009201930294032300F001F81FBD29
:108F00006A46B5E72DE9F04FDFF8146670683168FE
:108F1000884285B026D006F5826A0020CAF808008B
:108F2000BFF34F8F70680090B768009906F10C008E
:108F3000394000EB810005E006F10C0007EA010270
:108F400000EB82006946FFF7B8FE002800F0E980D8
:108F5000DAF80800002840F0E48030680099814287
:108F6000EAD370600020D9E0029965F39F51029125
:108F70000299C1F3C20805F10801FFF745FA5FEA5B
:108F800000094DD0FFF787FA00F0E2F80099394068
:108F90007F1C7F1AB80006F10C02A84202EB810187
:108FA00017D228B9AB4606F10C010027002503E0D3
:108FB000834606F10C072D1A5FFA8BFB08235A46ED
:108FC0004846FFF7BDFA4FB10BF10803EAB2394644
:108FD00001E008232A464846FFF7B2FA0098E41C4D
:108FE00000EB9400009037E0029901F003010129A1
:108FF0006FD10299029AC1F383110529C8BF0621D6
:1090000022F4707242EA811202920299C1F3C208FC
:10901000C1F38311891C8900FFF7F6F95FEA0009A3
:1090200057D0FFF738FA00F093F8082400250EE037
:109030000098411C009106F10C0E38400EEB8001A7
:10904000234604224846FFF77BFA241D6D1C029834
:10905000C0F383108542EBD3DAF80040DAF8080059
:1090600010B34846FFF71BFA50E0E0684179012948
:1090700018D10179DFF88805BDF80C2050F82200DE
:1090800001EB410107238B401840C840B8F1050FA0
:1090900008BF4FF00308404504D3226813684946CF
:1090A00020469847E0680468002CDED14846FFF768
:1090B000F6F900208DF8040001A801F0E5FADAF8CD
:1090C000080008B9009870609DF8040001F0F9FAF2
:1090D0001CE0DAF8004005E021688A6820469047E5
:1090E000E0680468002CF7D1DFF81C0541880229EC
:1090F0000CDBDFF81805DFF830240FF2A851801AD6
:10910000C008000440F00200FFF7E0FE706831681C
:1091100088420CBF0120002080F0010005B0BDE8AE
:10912000F08F002002AB009A06F10C0100F016F857
:10913000F9D90299DFF8EC0301F0030102297FF469
:1091400053AF029DAD0D2C46502DA8BF50250BE707
:109150000023082202A94846FFF7F2B93A4051F825
:10916000221043F82010401C0099491C012800914E
:1091700070472DE9F0410D4604460026DFF8A013A4
:10918000D1F8100400E0006858B3C0680279B24218
:10919000F9D1761C0A2EF3DB4FF0FF361EE0C068D3
:1091A00003681360D1F81014C86804600027DFF862
:1091B00008840BE008EBC700E368C2791879AA427B
:1091C00088BF2A463946FFF732FD7F1CDFF8EC03E3
:1091D000DFF85413401AB7EBD00FEBD33046BDE89D
:1091E000F08116F1010FF9D0E0680671D1F8100492
:1091F000E2680028D3D1C1F810441060D6E710B55A
:10920000DFF80C0404680121017408E0E168012220
:109210004A712046226851688847E0680468002C3B
:10922000F4D110BD2DE9F84F934605465BF8049C38
:10923000DFF8E003DFF8E0638A469846861B0027E4
:1092400000E07F1CB7EB161F10D2DFF8D02302EB33
:1092500007144846A168FFF713F80028F1D12CB194
:109260005B46524621462846C04707E04B46284603
:1092700001B0BDE8F04F0FF240421BE1BDE8F18FB5
:109280002DE9F84F0D4686B0E968A74C0746CB4854
:10929000041B4879E40828B90FF234420221384609
:1092A000FEF74DFA0FF25C430FF2384208213846C0
:1092B000FEF745FA0FF2584208213846FEF73FFA0A
:1092C00005970495BAA60FF28848DFF854930394E3
:1092D0000FF2E02A002716E084422CBFB346D346A3
:1092E00001213846FFF780FC0346CDF808B042461E
:1092F00059F8240001907F1C59F825100598009119
:109300000821FEF71CFA039887420ED20499C86818
:109310000479012300F00CF80546002300F008F85A
:109320000328B4BF04460324D6E707B0BDE8F08F96
:10933000012239462046FFF79FBC13460A46C16802
:109340009EE7B84B6EE770B5164604460D460023FF
:109350000022FFF791FCB04201D2002070BD3246DE
:1093600029462046FFF763FC012070BD2DE9FE4F22
:10937000C968144600270A790292002C00F0878001
:109380001E46804630680FF214310722FFF7E4F8DA
:10939000002842D1012C06D1404603B0BDE8F04F71
:1093A0000FF2C4325BE1022C08BF01270025DFF871
:1093B000709259F8251070680A22FFF7CDF810B1A5
:1093C0006D1C052DF5D3052D03D173680FF2B03256
:1093D00034E08DF800500220784A5349521AD208DE
:1093E000019287B3029C9DF800700FF2CC350026E5
:1093F000019886424BD23A4631462046FFF7A3FFFA
:1094000048B900213046FFF7EFFB03462A46022108
:109410004046FEF794F9761CEAE730680FF27421B3
:109420000822FFF799F830B9012C8DF8000008BF29
:1094300001270120D0E733680FF26432404603B0C1
:10944000BDE8F04F36E0074618E009F10109D145C3
:109450001FD200214846FFF7C7FB20225946FFF7DD
:109460007BF80028F1D14D4614E056F827300FF272
:109470006C3202214046FEF762F97F1CA74206D2F9
:10948000002556F827B0DDF804A0A946DFE7BDE8BF
:10949000F78FEAD09DF8002002982946FFF753FF86
:1094A0000028EAD100212846FFF79EFB03460FF271
:1094B0000832DEE70221FEF742B913460A46C168C8
:1094C00054E7594BAEE610B50C460021E1606160EF
:1094D00001210FF2AC33A360FFF786FB206010BDC3
:1094E0000022CA6000230FF298328A604B60052880
:1094F0003ABF4E4A52F82000002008607047C96801
:109500000020487170474A4B8CE613460A46C168F2
:10951000F5E7C968012048717047464B82E60000B4
:109520009425002030F4020060F20200E0240020C4
:1095300013460A46C168ECE72DE9FC470546A868D2
:10954000D0F84801830704D5284602B0BDE8F047AB
:1095500079E0304A304E0FF2B8240FF2E02A0FF2D1
:10956000D4280FF28C29961B00270DE04079019238
:1095700000280CBF50464046009022468B680821C8
:109580002846FEF7DCF87F1CB7EB161F0DD22348E8
:1095900000EB0711C8680279FF2AE7D18B684A46B9
:1095A00008212846FEF7CBF8EDE7BDE8F387000079
:1095B000000000002A00000060F20200E8F2020051
:1095C00070B50022CA6000230FF2BC224B608A6093
:1095D0000B60002201E0521C5B1C0E4C0E4D641B04
:1095E000B3EB141F0AD20D4C04EB0314E668357973
:1095F000FF2DF1D09042EED1A068086070BD000050
:1096000024250020B029002004250020A8F2020013
:10961000A4290020A0F5020080F5020080F50200D8
:1096200020240020819202006D9302003424002047
:10963000FF940200139502008168D1F84811890750
:1096400000D500E009E000220021FEF71FB9816883
:10965000D1F84811890700D5F5E70FF2EC12022185
:10966000FEF76DB8E0B5012904D08168D1F8481142
:109670008B0703D503B05DF804EBE4E751680FF204
:10968000E81300930191022113680FF2D012FEF744
:1096900056F807BD64697361626C6500656E61624E
:1096A0006C6500004261636B656E647320666C7567
:1096B0007368656400000000496E76616C6964201F
:1096C0006261636B656E643A2025730D0A000000C9
:1096D0004C6F6773206172652068616C74656421EA
:1096E0000D0A0000252D343073207C2063757272C2
:1096F000656E74207C206275696C742D696E200D16
:109700000A0000006D6F64756C655F6E616D6500C9
:109710002D2D2D2D2D2D2D2D2D2D2D2D2D2D2D2D79
:109720002D2D2D2D2D2D2D2D2D2D2D2D2D2D2D2D69
:109730002D2D2D2D2D2D2D2D2D2D2D2D2D2D2D2D59
:109740002D2D2D2D2D2D2D2D2D2D0D0A0000000040
:10975000252D343073207C20252D3773207C202547
:109760007325730D0A00000042616420706172610C
:109770006D6574657220636F756E742E0D0A00003E
:10978000556E6B6E6F776E2073657665726974794E
:10979000206C6576656C3A2025730D0A0000000088
:1097A000556E6B6E6F776E206F7074696F6E3A20B6
:1097B00025730D0A000000004C6576656C20756EFF
:1097C000617661696C61626C6520666F72206D6F95
:1097D00064756C653A2025730D0A0000556E6B6E3A
:1097E0006F776E206D6F64756C653A25730D0A0096
:1097F00025730D0A092D205374617475733A206422
:10980000656163746976617465640D0A0D0A000010
:1098100025730D0A092D205374617475733A202540
:10982000730D0A092D2049443A2025640D0A0D0ABA
:1098300000000000656E61626C65640064697361BC
:10984000626C6564000000004E6F74207375707068
:109850006F727465642E0D0A0000000025733A25AE
:109860007325730D0A00000020756E6B6E6F776EA6
:1098700020706172616D657465723A2000000000AD
:1098800001000000C79402000000000074E502001F
:1098900010B5024652E8000F0C4642E8004393F030
:1098A000000FF7D110BD000010B5024652E8000FBE
:1098B00040EA010442E8004393F0000FF6D110BDE6
:1098C00010B5024652E8004F44EA010042E80003A6
:1098D00093F0000FF6D110BD10B5024652E8000F0C
:1098E00000EA010442E8004393F0000FF6D110BDF6
:1098F00010B5024652E8004F04EA010042E80003B6
:1099000093F0000FF6D110BD10B5024652E8004F9B
:1099100004EB010042E8000393F0000FF6D110BD04
:1099200010B5024652E8004FA4EB010042E80003E4
:1099300093F0000FF6D110BD0121B5E70121BFE77B
:109940000021C9E70021D3E738B50D4604460A2DAA
:1099500004BF0D21FFF7F8FFA068411CA160226839
:1099600015546068814204D32046BDE83240FEF7BA
:109970000FBC31BD2DE9F84F8B460124154602E09E
:10998000B1FBF5F1641CA942FAD29A460B9FD1466D
:10999000A24538BFA14680460A9CF8070BD454B1B3
:1099A000B8070BD42026A14505D2314600F05EF958
:1099B000641E002CF7D12E46012507E0BAF1000FF6
:1099C000F0D13026EFE7AAF1010A7543BAF1010F91
:1099D000F9D8BBFBF5F0B04228BF7543F9D200BF00
:1099E000A3A1BBFBF5F005FB10BB095C00F03EF941
:1099F000B5FBF6F5002DF2D1F80707D534B1A14536
:109A000004D200F032F9641E002CF8D1BDE8F18FC9
:109A10002DE9FC470E0048BF49420125904602E06F
:109A200091FBF8F16D1C4145FADA9A460A9C0B9FAE
:109A3000D146AA4538BFA94624B1002E01D47907E2
:109A400000D5641E0546B80702D5BAF1000F0BD049
:109A5000F80709D444B1A14506D220212846FFF7D2
:109A600073FF641E002CF6D1002E02D576422D2104
:109A700002E0780703D52B212846FFF765FF07F0A2
:109A80000300022808BFBAF1000F09D144B1A14573
:109A900006D230212846FFF757FF641E002CF6D16E
:109AA000019700945346424631462846FFF762FF2D
:109AB000BDE8F3872DE9FE430D008046174600F010
:109AC000C78015F8011B002900F0BA80252940F055
:109AD000B180002602E046F001066D1C29782B2992
:109AE00007D02D29F7D0302908BF46F00206F4D060
:109AF000B0E046F00406F0E72978A1F130020A2A26
:109B00000CD200FB04146D1C303C2A29F4D13968B6
:109B100039606D1C51F8042B396014192978002321
:109B20002E290BD16D1C04E000FB03116D1CA1F16B
:109B300030032978A1F130020A2AF5D3287801E010
:109B400015F8010F6C2818BF6828F9D025286CD0AB
:109B5000582822D063280CD0642818BF69280FD059
:109B600070284CD073281ED0752812D0782814D0B5
:109B70005EE03868386050F8041B3860C9B255E0C0
:109B8000386838600A2200F06AF84046FFF740FF64
:109B90004EE0386838600A2202E0386838601022E7
:109BA00000F05DF83DE03868386050F8049B38609C
:109BB0000020F10751D4B9F1000F1CBF4846FEF751
:109BC00007FB064610E000F051F8761C19F8011B5F
:109BD0000800F8D1A6422BD254B300F046F8641E18
:109BE000F8E700F042F8641EA64201D2002CF8D13A
:109BF00019F8011B08001BD000F038F8F8E73868A6
:109C00003860302150F8044B386000F02FF878218C
:109C100000F02CF808210091002001900823102268
:109C200021464046FFF7A6FE02E0252100F01EF87F
:109C30006D1C01E000F01AF8287800287FF441AF8D
:109C400098F80C0020B14046BDE8FE43FEF7A0BAEC
:109C5000BDE8F78300240A2057E70026B6E750F84E
:109C6000041B3860019600947047202140466BE643
:109C70003031323334353637383941424344454642
:109C80002DE9F84F8AB08268D2F84821930706D5AB
:109C90000BB0BDE8F04F00220021FDF7F7BD012910
:109CA00007D90BB0BDE8F04F0FF254220221FDF7A7
:109CB00046BD204A2049521A1C23B2FBF3F100276B
:109CC00064240FF2D8290FF2C82B09900891089943
:109CD0008F422CD21C2219487A4386183068D0F85B
:109CE00008A0D6F80C80B568304600F0F1F80146BF
:109CF000307C7369002814BF48465846079004FB1F
:109D00000AF20695B2FBF5F0CDF814A00490039585
:109D10000291CDF800806143B1FBF5F0019008217C
:109D200009980FF2F012FDF70AFD7F1CCFE70BB088
:109D3000BDE8F08F30F6020014F6020014F60200BF
:109D40008068814234BF491C0021084670470146A3
:109D50000A6810685268824201D3101A70478968F5
:109D6000491C081A1018704710B501680C6849683A
:109D7000FFF7E6FFA04201D1012010BD002010BD79
:109D80002DE9FC41054600260F468DF8006000F0E5
:109D900098F82846FFF7E8FF5FEA00081CBF287C18
:109DA000002841D12868446841682846FFF7C8FF69
:109DB0002968B8F1000F486005D009682846FFF708
:109DC000BFFF29680860EA68012A06D0022A08D085
:109DD000042A0BD0082A0ED015E06868397801559E
:109DE00018E06868398820F8141013E0686839684A
:109DF00040F824100EE06868D7E9002300EBC401A6
:109E0000C1E9002306E0686802FB040439462046E5
:109E1000FEF7B6FB2846FFF79AFF29688B68984241
:109E200038BF1846886000E0042641E02DE9FC4177
:109E3000044600260D4690468DF8006000F041F87B
:109E4000204600F050F890BB20680768B8F1000F7A
:109E500005D101682046FFF773FF21680860E268BA
:109E6000012A06D0022A08D0042A0BD0082A0ED0D4
:109E700015E06168C85D28701AE0616831F8170064
:109E8000288015E0616851F82700286010E06168BB
:109E900001EBC700D0E90023C5E9002308E06068B2
:109EA00002FB070739462846FEF76AFB00E0052655
:109EB00000F00AF83046BDE8F681002104468DF82E
:109EC0000010684600F0E0BB9DF8000000F0F9BB10
:109ED0001CB5FFF7F2FF2046FFF739FF0446FFF7F6
:109EE000F3FF204616BD006801684068814201D139
:109EF0000120704700207047006800218160704792
:109F000042616420617267756D656E7420636F7560
:109F10006E74000025730D0A092D20456C656D6572
:109F20006E742073697A653A0925640D0A092D203B
:109F300055736167653A0925752525202825752003
:109F40006F7574206F6620257520656C656D656E74
:109F50007473290D0A092D204D6178696D756D3A6C
:109F6000092575252520282575206F7574206F66B5
:109F700020257520656C656D656E7473290D0A0961
:109F80002D204D6F64653A090925730D0A0D0A00ED
:109F90004F766572666C6F77000000004E6F206F21
:109FA000766572666C6F77007CB504460D46E38873
:109FB0004BB100BF0FF2D8160FF2DC1278A1009659
:109FC0002846FEF7F1F8217A05291CD0607A6F4EF9
:109FD00048B1A088FEF716FE06EB800065A1426935
:109FE0002846FEF7E1F8A0880021FEF7FDFD0346B4
:109FF000207A56F8202028460DF1080DBDE8704063
:10A000006DA1FEF7D1B873BD38B50C46017A0529AC
:10A0100059A507D0407A30B15DA256A12046FEF77F
:10A02000C3F800E01AB129462046FEF7BDF82046E5
:10A03000BDE83240FEF7ACB82DE9F84384B01746CE
:10A040000C9D2E7B002281460C4698462A73294699
:10A050004046FFF7A9FF062F2CD8DFE807F00409D8
:10A060000F1A21161D0049462846FEF79DF821E0EB
:10A07000226849462846FEF797F81BE06368226885
:10A0800049462846FEF790F814E020690290E168FE
:10A090000191A068009007E0606903902169029136
:10A0A000E0680190A16800916368226849462846EB
:10A0B000FEF77AF8002229464046FFF7A5FF2E73E7
:10A0C00005B0BDE8F08300002DE9FC4B8946B9F1ED
:10A0D000080F054698464AD80092002298F80CB01E
:10A0E00038A688F80C2041460098FFF75DFF00274E
:10A0F00022A44F4505D2EA5D31464046FEF754F8AA
:10A1000003E021464046FEF74FF87F1C082FF0D3AE
:10A110001BA14046FEF748F800261AA71AA401958D
:10A120004E4516D20198855D7F2D0BDAA5F12000F2
:10A130005F2808D32846FEF776FA20B92846FEF7AE
:10A140007CFA00B92E252A4621464046FEF72CF817
:10A1500003E039464046FEF727F8761C082EDFD389
:10A16000012200984146FFF74FFF88F80CB0BDE888
:10A17000F38B0000257300000D0A00002020200052
:10A180007C0000002000000025630000482400201F
:10A190001B5B306D000000001B5B313B33316D00F9
:10A1A00025734C6F67732064726F7070656420282C
:10A1B00025642925730D0A003C25733E2025733A3A
:10A1C00020000000202530327800000000B500BFDC
:10A1D000130096469446103928BFA0E80C50FAD8D0
:10A1E0005FEA417C28BF0CC048BF40F8042BC90778
:10A1F00028BF20F8022B48BF00F8012B00BDFEE766
:10A20000613807E005E0A0F161011A2901D20120BF
:10A21000704741381A288041C00F7047A0F12101D2
:10A220000F290AD3A0F13A02062A06D9A0F15B0150
:10A23000062902D37B380428EDE701207047A0F1FE
:10A240000901052901D3202801D1012070470020F0
:10A250007047A0F141011A2938BF203070470148EA
:10A2600070470000842400202DE9F041044688B0A6
:10A27000A068D0F84801830707D5204608B0BDE89C
:10A28000F04100220021FDF701BB012908D9204639
:10A290000DF1200DBDE8F04148A20221FDF74FBAB3
:10A2A0001A491B48091A1C22B1FBF2F85FF000079B
:10A2B00047A5642625E01C211648794308447F1CE5
:10A2C000036893F804C0816842681B68CDF818C021
:10A2D0008A1AC91AC9B2039107920492714316FBF4
:10A2E0000CFCB1FBF2F1BCFBF2F3029100220593EE
:10A2F00001922A46018B0091082143692046FDF70F
:10A300001EFA4745D7D308B0BDE8F0814CF40200EF
:10A3100014F4020014F4020010B508B90E2010BDA8
:10A320000368426881681A60891A03E013685C1C3C
:10A33000146019700B46591EDBB20268002BF5D170
:10A340000020107110BD38B5044600258DF800506E
:10A35000684600F099F921686268086882420ED266
:10A36000421E0A601578208BE36845431D44A368AC
:10A3700020689A1A03799A4238BF1A460A719DF8E2
:10A38000000000F09EF9284632BD38B50C46002189
:10A3900005468DF80010684600F076F928680168D7
:10A3A0004A1C0260E8682A8B241AB4FBF2F20A7095
:10A3B0009DF8000000F085F931BD00004261642085
:10A3C000617267756D656E7420636F756E740000E1
:10A3D00025730D0A092D20456C656D656E7420731B
:10A3E000697A653A092564202B20256420627974F6
:10A3F0006573206F6620646562756720696E666F9D
:10A40000726D6174696F6E0D0A092D205573616755
:10A41000653A092575252520282575206F75742036
:10A420006F6620257520656C656D656E7473290DEA
:10A430000A092D204D6178696D756D3A09257525DC
:10A440002520282575206F7574206F6620257520BE
:10A45000656C656D656E7473290D0A0D0A00000048
:10A4600080680021816001614161C16041600160DB
:10A470007047F8B51F0004460D46164605D0A06883
:10A48000FFF75AFA08B11120F2BDA06863680169AC
:10A49000C26803F1010CA2EB010EE64505D10021D3
:10A4A0003160CFB1FFF74EFA16E003EA020703EA84
:10A4B000010E77452FBFACEB0701891A5918491CCB
:10A4C00032688A4238BF1146316022683A442A60B5
:10A4D000C3683168CB18C3600020F2BD10B5826834
:10A4E000446893681069641CE41A04198C4201D210
:10A4F000042010BDC9189160D1601046FFF720FA02
:10A5000008B9082010BD002010BD2DE9F041054616
:10A510008846A8681446FFF70FFA08B111202AE010
:10A52000A96868688A68401C821A086982182068CD
:10A53000904238BF024622606E6888683040761CC0
:10A540001746361ABE4208D22B6832464146184496
:10A55000FEF716F8BF1B0020B0442B683A46414670
:10A560001844FEF70DF8A868216882688A1882608E
:10A57000FFF7E8F90020BDE8F081F8B51F000446B8
:10A580000D46164606D0A168081DFFF7D5F908B19B
:10A590001120F2BDA1684A698B68981A05D1306014
:10A5A000E7B1081DFFF7CEF918E067683A403B4075
:10A5B0009A4205D23368984288BF1846306006E058
:10A5C0007F1C3068BF1A874288BF07463760236800
:10A5D0001A442A604C69306804194C610020F2BDAD
:10A5E0002DE9F04104468846A1681646081DFFF78C
:10A5F000A3F908B111202DE0A06882680169511A01
:10A6000032688A4238BF114631600F466568016979
:10A61000806829402840814232BF451A6D1C6D1A5E
:10A62000BD4208D2206801442A464046FDF7A8FFF3
:10A630007F1B0021A844206801443A464046FDF7AC
:10A640009FFFA16830680A6982180A61081DFFF738
:10A6500079F90020BDE8F08180B5806802698368DF
:10A660009B1A8B4201D2042002BD8918016141610D
:10A67000001DFFF767F9002002BDFEE7EFF3108031
:10A6800072B6704762B6704738B50446FFF7F6FFFA
:10A69000154A916871B9012393601449144B1D68E0
:10A6A0000D4015601960596851604FF0FF325A60D3
:10A6B000002100E00121217010B9BDE83140E1E73F
:10A6C00031BD10B5084CA16869B160B9FFF7D6FF7C
:10A6D000084922680A6063684B600021A16010B9D4
:10A6E000BDE81040CEE710BD9C300020FC06FFBD49
:10A6F00080E100E000E100E081B0002242504058DB
:10A700000090009901B0704740589EE1D0F80403D2
:10A71000084018BF0120C0B2704700F20C508260A0
:10A720000160704700F5A16001608260704730B53C
:10A73000039D049C41EA420141EA830141EA05216B
:10A74000DFF8B02541EA044142F8201030BDE0B501
:10A7500000F00FF8012105E0E0B50B4600210022D2
:10A7600001910092FFF7E3FF07BDE0B500F001F8AB
:10A77000F8E7002101910091002301227047F8B50C
:10A780000D4604462868DFF87065012710F1010FB7
:10A7900005D007FA00F030602868FFF7D8FF686836
:10A7A00010F1010F1CBF0021FFF7D6FF2068A96937
:10A7B00000F2245211606B7D297D0B4393646A681B
:10A7C0002968FFF7AAFF287D012815D1A86810F194
:10A7D000010F1CBF0021FFF7BFFFE86810F1010F58
:10A7E00004D087403760E868FFF7B1FFAA68E968DE
:10A7F0002068BDE8F84095E7F1BD38B504460D4640
:10A8000020684FF48E71FFF777FF20684FF4A27134
:10A81000FFF772FF2068DFF8E414C0F80413000BA0
:10A82000690142B2002A07D5DFF8D42400F00F00F6
:10A83000104400F8041C02E0DFF8C83499540122E7
:10A840002168DFF8C434090B01F01F0049B28240CF
:10A85000490943F8212031BD0168DFF8B004DFF871
:10A86000B034C1F80803090B012201F01F0049B2FE
:10A870008240490943F8212070472DE9F041044600
:10A880004FF0FF32206800F5A1614D68CE680F6877
:10A89000D1F808801146FFF740FF4FF0FF322068E3
:10A8A0001146FFF73FFF15F1010F1CBF2846FFF7C8
:10A8B0005CFF16F1010F1CBF3046FFF756FF18F181
:10A8C000010F1CBF4046FFF750FF17F1010F03D0E7
:10A8D0003846BDE8F04148E7BDE8F0812DE9F04198
:10A8E00004460D4690462179DFF828042C2212FBFD
:10A8F00001F2871807F12906707808B1082023E0D3
:10A900000FF2184050F82110206800F00CFA08B13E
:10A91000112019E029462046FFF731FFC7F80480CF
:10A9200029697868396018B1297F2046FFF765FFEB
:10A9300021680420C1F800050022BA61FA61327072
:10A940007A61012070700020BDE8F08138B50446BE
:10A950002C202279DFF8BC13236842438D18002194
:10A96000C3F80015686810B12046FFF775FF204650
:10A97000FFF783FF206800F0F2F9002085F82A0035
:10A98000686031BD38B50D4604464FF48E71FFF74F
:10A99000B3FEA868296A405C2A6A521C2A62C4F87D
:10A9A0001C0531BD2DE9F041054617462A790E46B2
:10A9B0002C20DFF8601342438C18284600F03EF844
:10A9C00008B1112024E06761A6602062002184F8AC
:10A9D00028104FF48E712868FFF78EFE2868012139
:10A9E000816000262146FFF7CDFF606878B92F68A7
:10A9F000D4F8148012E028684FF48E71FFF784FEBB
:10AA00000028F8D029680120C86000206061304625
:10AA1000BDE8F08121463846FFF7B4FF206A404583
:10AA2000E9D24FF48E713846FFF76EFE0028F1D15F
:10AA300094F828000028F4D00F26E6E70279DFF822
:10AA4000D4122C2042438818406900B10120C0B2C2
:10AA5000704710B500F090F820684FF48471FFF74C
:10AA60004BFE21680120086010BD38B50D46044634
:10AA7000A86900284FF48471204604D1FFF73CFEFA
:10AA8000D4F8180531BDFFF737FE686AD4F81815F9
:10AA9000EA681154686A401C686231BD2DE9F041D2
:10AAA00007462C203C799B4B44431E1900237068B9
:10AAB0004FF4017418B13D6805F541704460B06908
:10AAC00060B1F06930B1706810B13968C1F8044301
:10AAD00011204FE031610123F26103E0B261F160C6
:10AAE0007062F36196F82900034304BF3846FFF70C
:10AAF000B0FF70683A68002839D14FF4A27110464F
:10AB0000FFF7FAFD38684FF49271FFF7FDFD054637
:10AB100038684FF48471FFF7F7FD044638684FF446
:10AB2000A271FFF7F1FD804648EA04042C43E9D006
:10AB300058EA050007D138683146FFF796FF706A7A
:10AB4000B1698842DED30020B0610DB1032011E06D
:10AB5000B8F1000F18BF0F200CD196F82900396802
:10AB6000002807BF0120486001220A6001E0C2F806
:10AB700004430020BDE8F08104464FF49271206840
:10AB8000BAE51FB50346012402918DF800400192F9
:10AB9000684619685A6890471FBDF8B502460023F9
:10ABA0008DF80030029190680190536168461168F9
:10ABB0005268904705B000BD00684FF40171C0F8BD
:10ABC0000813012242607047F8B584B005460C4670
:10ABD0004FF40071FFF79AFD04F128064FF4017756
:10ABE00018B34FF4927100F07EF8F0B14FF4927107
:10ABF0002846FFF781FDC5F80873707808B9012170
:10AC0000696002208DF800000021D5F88004C5F8A5
:10AC100080040390A0690290E0680190A161E16165
:10AC2000684621686268904729E004212846FFF7BA
:10AC30006DFD20B34FF4847100F055F8F8B1214652
:10AC40002846FFF712FFA069616A884217D1E069C0
:10AC500040B1E268616AA06100232069E060E361BD
:10AC6000636209E0707808B901216960C5F808736A
:10AC70000020E268A061616A2046FFF782FF4FF47E
:10AC80008E7100F030F8A8B16069216A814206D265
:10AC9000307820B921462846FFF774FE0AE04FF4C9
:10ACA0008E712846FFF728FD606918B1616920465A
:10ACB000FFF773FF4FF4A27100F015F888B14FF45D
:10ACC000A2712846FFF718FD707808B101212960AC
:10ACD000A06930B10021A1612046E268616AFFF7F6
:10ACE00050FF05B0F0BD28460EE50A490A486BE75B
:10ACF000000000000007005008050050800002001E
:10AD000018ED00E000E400E000E100E08402020051
:10AD100080E100E0F02F002000200040EBAC0200BA
:10AD200013480168084738B50D461249884214D1C6
:10AD300000248DF800406846FFF7A6FC0C4908790E
:10AD4000002811BF01240D60012008719DF800004A
:10AD5000FFF7B7FC0CB1112032BD002032BD054910
:10AD6000884203D10248002202600271704700004D
:10AD7000EC3000200020004081B0002242504058BA
:10AD80000090009901B0704740589AE100F20C50D1
:10AD900001E000F5A16001608260704730B5039D5D
:10ADA000049C41EA420141EA830141EA0521DFF8BE
:10ADB000842541EA044142F8201030BDE0B500F09E
:10ADC0000FF8012105E0E0B50B46002100220191BA
:10ADD0000092FFF7E3FF07BDE0B500F001F8F8E7E8
:10ADE000002101910091002301227047F8B50D4622
:10ADF00004462868DFF84065012710F1010F05D0EF
:10AE000007FA00F030602868FFF7D8FF686810F193
:10AE1000010F1CBF0021FFF7D6FF2068A96900F2CF
:10AE2000245211606B7D297D0B4393646A68296805
:10AE3000FFF7ACFF287D012815D1A86810F1010F9C
:10AE40001CBF0021FFF7BFFFE86810F1010F04D01D
:10AE500087403760E868FFF7B1FFAA68E9682068B3
:10AE6000BDE8F84095E7F1BD38B504460D462068C9
:10AE70004FF48871FFF780FF20684FF49071FFF75F
:10AE80007BFF20684FF49271FFF776FF20684FF444
:10AE9000A271FFF771FF00F0B1F92068DFF89C1490
:10AEA000C0F80413000B690142B2002A07D5DFF88D
:10AEB000902400F00F00104400F8041C02E0DFF8BA
:10AEC0008434995401222168DFF87C34090B01F0A5
:10AED0001F0049B28240490943F8212031BD016871
:10AEE000DFF85804DFF86434C1F80803090B0122C5
:10AEF00001F01F0049B28240490943F82120704700
:10AF00002DE9F04104464FF0FF32206800F5A161C1
:10AF10004D68CE680F68D1F808801146FFF736FFFC
:10AF20004FF0FF3220681146FFF733FF15F1010F94
:10AF30001CBF2846FFF750FF16F1010F1CBF30461B
:10AF4000FFF74AFF18F1010F1CBF4046FFF744FF0F
:10AF500017F1010F03D03846BDE8F0413CE7BDE8EA
:10AF6000F081F8B504460D46217916462423DFF812
:10AF7000E02313FB01F3D71897F8200008B108204D
:10AF8000F2BD0FF2D43050F821102068FFF7CBFE4D
:10AF900008B11120F2BD29462046FFF727FF7E6049
:10AFA00029697868396018B1297F2046FFF75CFF6E
:10AFB00021680820C1F800050022BA61FA617A61AF
:10AFC000012087F820000020F2BD38B500F01AF902
:10AFD000686810B12046FFF782FF2068D0F80012A1
:10AFE00021F02001C0F80012012242604FF4AC7140
:10AFF000FFF7C2FE21680120C86000F0FBF80028BE
:10B00000FBD000202168C1F800052046FFF778FF3B
:10B010002068FFF7A4FE002085F82000686031BD9D
:10B02000F8B5054617462A790C462420DFF8201388
:10B0300042438E1804F06041B1F1005F28D12846E8
:10B0400000F039F830BB7761B4604FF49071286834
:10B05000FFF792FE28684FF4AC71FFF78DFE706920
:10B060002968B36801F2445200271360506001223E
:10B070008A607068C8B928684FF49071FFF784FE41
:10B08000044600F014F80443F5D028B10F270AE075
:10B090001020F2BD1120F2BD29680120C86000F027
:10B0A00006F80028FBD0002070613846F2BD286801
:10B0B0004FF4AC7168E60279A54924204243881810
:10B0C000406900B10120C0B270472DE9F84F054634
:10B0D0000E4628794FF0240806F06044DFF870929D
:10B0E00018FB00F0B4F1005F09EB000314D15868BD
:10B0F00000244FF4047A20B12F6807F54177C7F890
:10B1000004A093469A696AB1DA693AB110B1286825
:10B11000C0F804A3112050E010204EE00124196172
:10B12000584603E0C3F818B0D9600020D8614FF446
:10B1300088712868FFF720FE28684FF4A271FFF796
:10B140001BFE296801F2345000270660C0F804B0E5
:10B1500014B90120086005E0D1F8002242F0200275
:10B16000C1F8002209F104022B7918FB03F3D0582F
:10B1700000BB2E4630684FF48871FFF705FE044689
:10B1800030684FF4A271FFF7FFFD054630684FF4B9
:10B190009271FFF7F9FD2C430443EBD0327909F1AA
:10B1A000180118FB02F841F8087000B103271DB11F
:10B1B0000F2701E0C1F804A33846BDE8F28F1FB5A0
:10B1C0000346012402918DF80040019268461968F7
:10B1D0005A6890471FBDF8B5024600238DF800302D
:10B1E00002919068019053616846116852689047D7
:10B1F00005B000BD20684FF4AC71C5E520684FF480
:10B20000AC71B9E504462421227951484A43851896
:10B21000704703794E4924225343CA18D16931B18A
:10B220000168D1F8002222F02002C1F80022012199
:10B230000068416070477FB50C464FF49271064636
:10B24000FFF7A2FD06F23C55B8B14FF4927100F041
:10B250006BF802208DF80000D6F88014C6F8801430
:10B260000391296802910021E0680190A161E161E8
:10B27000684621686268904720E04FF4887100F0CA
:10B2800051F8D8B14FF4887100F04EF82968A069E0
:10B29000814213D1E268E06960B1D6F8000220F083
:10B2A0002000C6F80002E0692369A061E360002085
:10B2B000E06100E0A0612046FFF781FF4FF4A2713A
:10B2C00000F030F868B14FF4A27100F02DF8A069D9
:10B2D00038B10021A161E16120462968E268FFF7E9
:10B2E0006EFF4FF4907100F01DF858B14FF490715B
:10B2F00000F01AF80121F160606918B1296920464F
:10B30000FFF769FF4FF4AC7100F00CF848B14FF44F
:10B31000AC7100F009F8606918B129692046FFF79F
:10B320005AFF7FBD30462FE5304625E508490948DC
:10B3300081E700000007005008050050100342009C
:10B3400018ED00E000E400E000E100E080E100E052
:10B350001C300020002000402DB302006170705F9F
:10B3600074696D65722E636C695F756172745F7468
:10B37000696D65720000000071756575652E6D5F01
:10B38000636C695F756172745F6C6F675F62616344
:10B390006B656E645F717565756500006D5F636CEC
:10B3A000695F756172745F6C6F675F6261636B6523
:10B3B0006E645F7175657565000000006D5F636C9C
:10B3C000695F756172745F6C6F675F6261636B6503
:10B3D0006E64000062616C6C6F632E6D5F636C69FC
:10B3E0005F756172745F636D645F686973745F6DCC
:10B3F000656D6F626A0000006D5F636C695F756107
:10B4000072745F636D645F686973745F6D656D6F9F
:10B41000626A00006673746F7261676520657861A7
:10B420006D706C653A7E242000000000686578002D
:10B43000726561642062797465732066726F6D2035
:10B44000666C61736820696E2048455820666F728B
:10B450006D61740A75736167653A20726561642075
:10B460006865782061646472206C656E0A2D2061C5
:10B470006464723A207468652061646472657373F1
:10B4800020746F20726561642066726F6D2C206974
:10B490006E204845580A2D206C656E3A206E756DF9
:10B4A000626572206F6620627974657320746F2004
:10B4B00072656164000000007374720072656164FB
:10B4C0002062797465732066726F6D20666C61739B
:10B4D0006820696E20415343494920666F726D614F
:10B4E000740A75736167653A2072656164207374CC
:10B4F000722061646472206C656E0A2D2061646440
:10B50000723A207468652061646472657373207494
:10B510006F20726561642066726F6D2C20696E20E9
:10B520004845580A2D206C656E3A206E756D62652F
:10B5300072206F6620627974657320746F20726563
:10B54000616400007072696E740000007072696E50
:10B55000742074686520626F756E646172696573CA
:10B56000206F662074686520666C6173680A757365
:10B570006167653A20666C6173686172656120700D
:10B5800072696E7400000000736574007365742046
:10B5900074686520626F756E646172696573206F8F
:10B5A000662074686520666C6173680A75736167EC
:10B5B000653A20666C6173686172656120736574B9
:10B5C00020626567696E20656E640A2D206265677A
:10B5D000696E3A2061646472657373206F662074CB
:10B5E000686520626567696E6E696E67206F6620A8
:10B5F00074686520666C61736820617265612C20D7
:10B60000696E204845580A2D20656E643A206164B1
:10B610006472657373206F6620656E64206F6620A8
:10B6200074686520666C61736820617265612C20A6
:10B63000696E204845580000726561642062797423
:10B6400065732066726F6D20666C6173680A75732E
:10B650006167653A2072656164206865787C7374FF
:10B66000722061646472206C656E00007772697488
:10B670006520415343494920627974657320746F92
:10B6800020666C6173680A75736167653A2077722A
:10B69000697465206164647220646174610A2D209C
:10B6A000616464723A206164647265737320746FBC
:10B6B00020777269746520746F2C20696E2048456C
:10B6C000580A2D20646174613A20646174612074A9
:10B6D0006F206265207772697474656E3B207573A4
:10B6E000652071756F74657320666F722073747254
:10B6F000696E677300000000657261736500000089
:10B70000657261736520666C61736820706167653E
:10B71000730A75736167653A2065726173652061AC
:10B720006464722070616765730A2D2061646472BD
:10B730003A2061646472657373206F662074686573
:10B74000207061676520746F20626567696E20658F
:10B75000726173696E672066726F6D2C20696E204E
:10B760004845580A2D2070616765733A206E756DE3
:10B77000626572206F6620706167657320746F2048
:10B7800065726173650000007072696E74206F727B
:10B79000207365742074686520626F756E646172D1
:10B7A000696573206F662074686520666C617368D4
:10B7B0000A75736167653A20666C617368617265CA
:10B7C00061207072696E740A75736167653A2066EC
:10B7D0006C6173686172656120736574206265676E
:10B7E000696E20656E640000E0220020442F002076
:10B7F0003F00000040300020442E00207F00000069
:10B800005830002000000000002000400000000030
:10B8100000200040000000006CF50200C42F002052
:10B82000E8B70200F8B70200ECB7020004B8020063
:10B830000000000038B802002CB4020030B402004E
:10B8400000000000BDC70200B8B40200BCB4020092
:10B8500000000000F1C7020000000000000000002E
:10B8600000000000000000000000000070B80200AE
:10B8700044B502004CB502000000000077C9020088
:10B8800088B502008CB50200000000009DC90200CE
:10B8900000000000000000000000000000000000A8
:10B8A000F4C9020038B6020030B80200A3C7020093
:10B8B000FCC902006CB602000000000033C80200A0
:10B8C000F8B6020000B7020000000000E5C8020060
:10B8D00004CA020088B7020068B802003FC902002B
:10B8E0007CB50446DFF83433DFF834030FF27435E7
:10B8F000DFF83063181AC008000440F001000FF2AE
:10B90000503334B9718871B10E2400940FF2803233
:10B9100006E051B9718831B10E2200920FF27832EF
:10B920002946FDF7E4FA0E2076BD21602046114637
:10B930002268136802B0BDE8704018472DE9F84F3F
:10B9400000F042F90FF2643900F037F98B46904667
:10B950001D4646F001063CB9788888B10E23009355
:10B960004B460FF22C3209E0B8F1000F0AD178886B
:10B9700030B10E2100914B460FF2443200F03DF8F9
:10B980000E2033E0206828B9788808B100F030F83C
:10B9900008202BE04DB9788828B1092100914B4649
:10B9A0009DA200F02AF8092020E01BF0030F0ED121
:10B9B0002A46204600F03EF988B9788828B100F080
:10B9C000F8F80FF21C3200F018F810200EE078881A
:10B9D0000028FAD000F0EDF80FF2EC22F3E7204651
:10B9E00024682B46A56842465946A847BDE8F28F11
:10B9F000082100914B460FF2A82251463046FDF730
:10BA000076BA00002DE9F84F04468448844F0FF2BF
:10BA1000F8280FF25029834EC71BFF083F048B46BE
:10BA200015469A4647F0010734B9708870B10E2365
:10BA30000093434696A207E055B9708830B10E21B5
:10BA4000009143460FF2D42200F05DF80E2058E03A
:10BA5000206850B9708830B1082100914FEA08037E
:10BA60008FA200F050F808204BE0BAF1000F06D189
:10BA70007088A0B109210091434667A20DE060687B
:10BA80004068BAFBF0F100FB11A050B1708830B1F2
:10BA9000092100914FEA0803A2A200F034F809201E
:10BAA0002FE01BF0030F12D115F0030018D15246FE
:10BAB0005946204600F0BEF8D0B9708828B1102150
:10BAC00000914346B1A200F01EF8102019E07088E2
:10BAD0000028FAD0102100914FEA08039CA2F2E757
