:1000000000000120750300005D0300005F03000095
:1000100061030000630300006503000000000000AE
:100020000000000000000000000000006703000066
:1000300069030000000000006B0300006D03000076
:1000400019C000006F03000071C400006F030000BE
:100050006F0300006F030000F9C200006F0300008F
:100060006F0300006F0300006F0300006F030000C8
:100070006F03000085C500006F0300006F030000E0
:100080006F030000111300006F0300006F030000F6
:100090006F0300006F030000513501006F03000083
:1000A0006F0300006F0300006F0300006F03000088
:1000B0006F0300006F03000000000000000000005C
:1000C0006F0300006F0300006F0300006F03000068
:1000D0006F0300006F0300006F03000000000000CA
:1000E0000000000000000000000000000000000010
:1000F0000000000000000000000000000000000000
:1001000000000000000000000000000000000000EF
:1001100000000000000000000000000000000000DF
:1001200000000000000000000000000000000000CF
:1001300000000000000000000000000000000000BF
:1001400000000000000000000000000000000000AF
:10015000000000000000000000000000000000009F
:10016000000000000000000000000000000000008F
:10017000000000000000000000000000000000007F
:10018000000000000000000000000000000000006F
:10019000000000000000000000000000000000005F
:1001A000000000000000000000000000000000004F
:1001B000000000000000000000000000000000003F
:1001C000000000000000000000000000000000002F
:1001D000000000000000000000000000000000001F
:1001E000000000000000000000000000000000000F
:1001F00000000000000000000000000000000000FF
:10020000354936480A1A02D0072291438D463449AF
:1002100034480A1A06D00722914381F30988022242
:1002200082F3148830483149314A00F044F83148AB
:100230003149324A00F03FF831483249324A00F041
:100240003AF832483249334A00F035F832483349F7
:10025000334A00F030F833483349344A00F02BF881
:1002600033483449344A00F026F8344834490022EF
:1002700000F02CF833483449002200F027F83348C6
:100280003349091A082902DB002202604160314A21
:1002900090471F481F49884205D00268043003B4C4
:1002A000904703BCF7E700208646EC46002000217B
:1002B000294A9047FEE7884207D0521A05D00378B2
:1002C00001300B700131013AF9D17047884202D0F8
:1002D00002700130FAE770470000012000E00020C2
:1002E0000000012000000120D0C501007C15002085
:1002F000D0150020D0030000D0030000B06E010034
:10030000D0C501007C1500207C150020AC700100D8
:10031000AC700100AC700100AC700100AC70010069
:10032000AC700100AC700100AC700100D0C50100E0
:1003300024C60100D0150020D0150020D0150020C3
:10034000E2370020E4370020E4370020E4370020C3
:10035000E45700209D0300000DDA0000FEE7FEE7F1
:10036000FEE7FEE7FEE7FEE7FEE7FEE7FEE7FEE765
:1003700000F002B8FFF7FCBF0F484FF007018843B9
:1003800085460E4880470E48016841F470010160BF
:10039000BFF34F8FBFF36F8FFFF732BF09480A4992
:1003A0000A4A884207D0521A05D0037801300B70F0
:1003B0000131013AF9D1704700000120C5DF00008A
:1003C00088ED00E098700100681500207C15002081
:1003D000022003F01DB800002DE9F04780460D46CD
:1003E00003F036F80328044610D8012D10D0022D52
:1003F00030D05DB91A4800F066FD1A4B04EB440298
:1004000013449D78184B1B5DAB4219D0BDE8F087B3
:10041000144E00EB4003F218F55C5378470053B1DB
:10042000DFF84C900E484A464FF4804100F033FD0F
:1004300008B989F8008027443E440B4BB2781A551E
:10044000002DE3D0094B1B68002BDFD02846BDE808
:10045000F047184700EB4004024804446578EFE792
:10046000F815002038160020511600204C160020E8
:10047000D015002000780221FFF7AEBF08B5094B68
:100480001B7853B1002002F099FF012002F096FF83
:10049000BDE80840032002F091BFBDE8084002F02B
:1004A00099BF00BFD1150020F8B57A4C23780546D6
:1004B0001BB100232370FFF7E1FF172D00F28780A7
:1004C000DFE805F00C1717425364757F878C878C23
:1004D000949999999999C3C8D0D8E3E3FFF7CEFFCF
:1004E0006D4800F0F0FC6D4B002204461A70204667
:1004F000F8BD002002F048FFF0B1002002F05EFFDE
:10050000022D0CBF4FF4E1644FF47A64634B1D700D
:1005100000254FF400464FF47A7029464FF4FA62F2
:100520000023E4FB060113F0DFF92A460146BDE88B
:10053000F840594800F0AFBC02F034FF022D0CBF68
:10054000C8244FF4C874E1E7002002F01DFF40B159
:10055000002002F033FF4FF44874504B03221A700E
:10056000D6E702F01FFFC824F7E7002002F00CFFD7
:1005700038B1002002F022FF4FF47A64474B042286
:10058000EDE702F00FFF4FF4C874F7E7002002F028
:10059000FBFE48B1002002F011FF404B05221A700B
:1005A00040F6CD410022C2E702F0FCFEF5E7002054
:1005B00002F02EFF394B06221A70002240F26661CB
:1005C000B5E7002002F0EEFE344B07221A7000243B
:1005D0008DE70120207002F01BFFEEE70120207064
:1005E00002F016FF00224FF40051A0E702F001FFD5
:1005F0002A4B0C22EAE72A482A4E00F064FCD5F187
:10060000110504461CD0D8B9012D13D0C82045438C
:1006100021464FF400474FF47A704FF4FA620023FA
:10062000C5FB070113F060F9224601461C4800F0A3
:1006300032FC0446022002F0B5FE0123337056E777
:10064000022002F0BBFE0023F8E7FFF717FF134B71
:100650001222BBE7FFF712FF002002F0A3FE0F4BB0
:100660001322B3E7FFF70AFF012002F09BFE0B4BBA
:100670001422ABE7FFF702FF002002F093FE0120F7
:1006800002F090FE054B1522A0E702F0B2FE034BEC
:100690001D709CE7481600201816002050160020F8
:1006A000D8150020D1150020044B1B68DB0703D5AB
:1006B000034B1878FFF7F8BE704700BF44160020C0
:1006C0005016002010B5002914BF0324002402F0A6
:1006D000D1FE800000F1A040D0F8002722F4403283
:1006E000C0F80027D0F8003743EA0443C0F80037C9
:1006F000002010BD032801D802F09CBE00207047E6
:10070000044B1B6813F0010301D0FFF7CDBE184660
:10071000704700BF4416002038B51C4B18601C4BB6
:1007200010F00204054619601AD01A4B1A480E221E
:100730001A700F22DA7010229A7111225A72042153
:1007400040F2333200F03EFA044648B900F092FA23
:10075000044628B90146114A114800F091FB0446AD
:10076000EB0711D5012002F08BFE6CB921460D4A32
:100770000D4800F085FB044630B9BDE838400B4A0F
:100780000B48012100F07CBB204638BD44160020F8
:100790004C16002038160020AC70010075040000D3
:1007A000D0700100A9060000D4700100D103000040
:1007B000CC700100032811D8012A0AD101290FD1D8
:1007C00000F10E02D2B20D4B00EB40001A54002093
:1007D00070470129F7D0022904D049B1072070479A
:1007E0000022F8E7054B00EB400018444270EEE7AA
:1007F000024B00EB400018448270E8E738160020F6
:10080000032802D80121FFF75DBF0620704708B515
:10081000012202210020FFF7CDFF08B1072810D1E7
:10082000072202210120FFF7C5FF08B1072808D1E0
:1008300000210A220846FFF7BDFF10B1072808BFB4
:10084000002008BD0388102B10B502D0112B1ED03C
:1008500010BD1A4C2168B1B901220846FFF7AAFF62
:1008600008B1072824D1072202210120FFF7A2FFA7
:1008700008B107281CD1042202210020FFF79AFFAB
:1008800008B1072814D1236801332360E0E70B4A3D
:100890001368013B1360002BDAD1FFF7B8FF002883
:1008A000D6D0074B1B68002BD2D0BDE810401847AC
:1008B000034B1B68002BE6D09847E4E75C1600204A
:1008C0005816002008B50020FFF79AFF08B1062847
:1008D00006D10120FFF794FF10B1062808BF0020C1
:1008E00008BD00000D4B10B518600C4629B1012061
:1008F000FFF700FF40B102232370094B1B6853B977
:10090000BDE81040FFF783BFFFF7F4FE08B10B23EB
:10091000F2E72070F1E7002010BD00BF581600205C
:100920005C1600200CF0D6BD002108460CF086BDF8
:1009300010F1360F0AD060B148F2165348F2115246
:1009400010F1380F08BF13461846704748F2145389
:10095000FAE70346F8E708B5084611460BF038FAFF
:10096000002008BD30B5044685B000200BF0F0F93A
:10097000054678B9201D03900BF04EF80649039800
:1009800000952B462A460BF0BDF805B0BDE8304077
:10099000FFF7CEBF05B030BD5709000008B50430E1
:1009A0000BF03FF80BF0F4F9002008BD08B5043057
:1009B0000BF011F9BDE80840FFF7BABF08B51146C2
:1009C00004301A460BF03CF8BDE80840FFF7B0BF12
:1009D000C30710B507D4F023054A4008145C234030
:1009E0001943115410BD0901C9B20F23F4E700BF28
:1009F0009016002030B5094B1C78094B196800236C
:100A00009C4202DC0022104630BD11F83350854272
:100A100001EBC302F7D00133F2E700BF60160020FC
:100A2000A016002013B504460191FFF7E3FF38B18B
:100A300043682BB10199204602B0BDE81040184729
:100A400002B010BD034B044819680022490800F0A9
:100A500022BA00BF641600206816002010B5C0B28C
:100A6000FFF7C8FF044600780BF03CFC63785A1E81
:100A700053425341834208D1044BD3E9002313432B
:100A800003D1BDE81040FFF7DDBF10BD8816002080
:100A900038B5334A43080446D35CC2074CBF1B0930
:100AA00003F00F030D46042B59D8DFE803F00322AF
:100AB0002A363900002952D00121FFF789FF002092
:100AC00000F0ECFA0120A4F12003C4F12001254A32
:100AD00020FA01F100FA03F30B43A040D2E90041F0
:100AE00020430B43C2E90003BDE83840002000F07A
:100AF000D7BA002918BF02212046BDE83840FFF7C9
:100B000067BF41B10321FFF763FF20460121BDE824
:100B10003840FFF787BF0121EEE701BB0421EBE777
:100B200009B10321E8E7FFF753FF29462046FFF705
:100B300079FF284600F0B2FA0120A4F12003C4F1A5
:100B40002001084A20FA01F100FA03F30B43A04008
:100B5000D2E9004124EA000021EA0303C2E738BDDC
:100B600090160020881600202DE9F041124E134FF8
:100B700000243378A34208DC114BD3E9002313434C
:100B800018D0BDE8F041FFF75DBF3D6805EBC40834
:100B900015F834000BF0A6FB98F801305A1E5342AA
:100BA0005341181A4142414115F83400FFF770FFD4
:100BB0000134DEE7BDE8F08160160020A0160020B9
:100BC00088160020092AF7B505460C4616463ED978
:100BD0000BF0C0FAE8B11F4B1F481D601F4B204FA0
:100BE0001C70204B002110221E6012F0BFFF1E4B14
:100BF00000200021C3E90001013CE4B20326FF2CE0
:100C00000DD11A4A1A48002103B0BDE8F04000F0A7
:100C100037B90BF067FA0028DDD003B0F0BD9DF8BE
:100C2000063015F834008DF8046005EBC40223F09B
:100C300007038DF8063001A993788DF805303A4600
:100C40000BF092FA013CE4B20028D8D0E5E7072087
:100C5000E3E700BFA01600209016002060160020D9
:100C60005D0A00006416002088160020690B000051
:100C7000E470010070B5084D084E00242B789C42AA
:100C800001D3002070BD3368012113F834000BF04C
:100C9000E3FA0134F2E700BF60160020A01600203E
:100CA0001FB50021039001AA44F20100CDE9011112
:100CB00000F004F805B05DF804FB000038B572B62A
:100CC0000AF002F909F03EFF0028FBD1104B114C4D
:100CD000114D1249E41AE408240444F001000AF01A
:100CE0008FF8D5F8F030DB0700D500BE0C4944F092
:100CF00002000AF085F8BFF34F8FEA68094B02F44F
:100D0000E0621343EB60BFF34F8F00BFFDE700BF0E
:100D10003C6F01006C6F010000ED00E0E870010025
:100D2000F47001000400FA0510B5D0E90243D1E9DE
:100D30000202A04272EB03032CBF0120002010BD71
:100D400008B50A4800F0CFFA094AD2E90031C018C4
:100D5000084BD3E9002341F10001904271EB0303FA
:100D600003D210F1807041F1000108BD7C15002014
:100D7000A81600202017002037B505460C460A4863
:100D800001A901F068FA60B10570446001A9064844
:100D900001F08BFA18B1054800F0AAFA002003B060
:100DA00030BD0420FBE700BF0C1700207C1500209D
:100DB00038B5184B1B78044613B90025284638BDB2
:100DC0000028FAD0037F03F0FF05002BF5D0FFF7D2
:100DD000B7FFD4E90223904271EB030314D32369D4
:100DE00003B92377D4E90530984721690029E4D075
:100DF000237F03F0FF05002BDFD0D4E902325B181C
:100E000042F10002C4E902320348214602F03CFAF2
:100E1000D4E700BFB01600201071010013B5114BCC
:100E200011491868019008231048582201F0DEF992
:100E3000044698B90E4A0F4801A900F041F904464A
:100E400060B90C48012100F031FA01230A4A09482F
:100E5000194600F093F9094B01221A70204602B09E
:100E600010BD00BF0C710100B41600200C1700204B
:100E7000E90E00007C150020FFFF7F00B016002067
:100E80003AB103685A614A1E51425141196100202A
:100E900070470720704738B5037F04460D4683B975
:100EA0008261FFF74DFF2369281841F10001C4E971
:100EB000020103B1256121460020BDE83840FFF75B
:100EC0005BBF002038BD0023014603770120FFF7F8
:100ED00053BF401A20F07F4070470000014800F0E7
:100EE00002BA00BF7C1500202DE9F347064600F04A
:100EF000E5F940B1584AD2E9003113F1807341F16C
:100F00000001C2E900310021304600F0E6F938B1B5
:100F1000524C236823B12068FFF74AFF0023236067
:100F20000121304600F0D9F920B1FFF709FF4C4B01
:100F3000C3E900014B48494D4B4C4C4F01A901F00E
:100F4000C4F9002842D1DFF82081444CDFF8249115
:100F5000404602F0AFF92368002872D07BB12368C5
:100F6000D0E90252D3E902138D4272EB03032AD275
:100F700023681B7F1BB12168404602F085F940467B
:100F800002F092F9D0E9027A0546FFF7D9FE381A45
:100F90006AEB010A01287AF1000345DBB0F5350F51
:100FA00040D3FFF79BFF324A02444FF496030021DF
:100FB000484600F003F900283ED1236813B93046B3
:100FC00000F0D4F8256002B0BDE8F0870378012B6B
:100FD0001DD0022B09D14FF00008204602F064F921
:100FE000002836D080F81C80F7E73BB941680B7FBA
:100FF00023B901230B77204602F046F901A91948CD
:1010000001F08EF901A9174801F05FF999E74168ED
:101010002B68994202D100232B60EFE7204602F0B3
:101020004CF9EBE7AA68C0E70021484600F04BF90D
:101030002846FFF7BDFE01E00D28F9D0002323600C
:1010400086E7002BBFD1304602B0BDE8F04700F084
:1010500091B801233B70D1E7A81600202817002083
:10106000201700200C17002010710100B01600207E
:10107000FFFFB4007C15002072B6024A13680133EA
:10108000136070472C170020034A1368013B13605C
:1010900003B962B6704700BF2C170020FFF7ECBF02
:1010A000FFF7F2BF435882B03BB10023435043588F
:1010B0000193019B012002B070471846FBE7000036
:1010C000F8B5224B4579224E43F82520214A224B80
:1010D0009B1A06EBC502DB0812791B04EF0032B144
:1010E00043F002001D4909F08BFE0820F8BD02689C
:1010F0000C88C2F8084590F9044002798978002CE0
:10110000ADBF04F1604CDFF85CC002F00F0E0CF5CF
:10111000614C4FEA4111C9B2B4BF0CF80E108CF803
:10112000001364090121DFF840C002F01F0201FA38
:1011300002F24CF82420F21946F83500117143F000
:101140000300074909F05CFE0020CFE738170020B4
:10115000301700203C6F01007C6F01001C71010002
:101160003E71010014ED00E000E100E0036801229F
:101170001A607047036801225A60704773B501F125
:101180005005AD000068ADB24FF480348C400026AD
:10119000C0F80843C0F84843465101F5A8714559C5
:1011A000019522F07F42019D40F82120C0F8444380
:1011B0000BB1C0F8044302B070BD00002DE9F74F39
:1011C0000D4622F07F4402684FF4803705F1500647
:1011D0008F408046B60002EB8500C2F84873B6B275
:1011E000C2F80873D2F8041599464FF0000BD0F8F6
:1011F0004035C0F8401542F806B05B1A925900928B
:1012000023F07F43012B009A4FEA850A0CD1264B2D
:101210004FF4806043F001039847D8F8003043F85A
:1012200006B09B590193019BD8F80010D1F80465D2
:10123000C1F84473A31B23F07F43012B1CD11A4B2D
:1012400005F5A875013443F0010341F825404FF43A
:1012500080609847D8F80030D3F804359E4209D111
:10126000D8F800300020C3F84473C3F8047303B007
:10127000BDE8F08F0D20FAE78A44C9F1FF13CAF8E0
:101280004045D1F80405221A013A22F07F4203F5C5
:101290007F439342EED3002AE2D10134CAF840459D
:1012A000D1F804359842DAE7507101000368022250
:1012B000C3F8442309B1C3F80423704700684FF40E
:1012C0008271FFF7EFBE4FF4803303FA01F1036838
:1012D000C3F84813C3F808137047503189000068F9
:1012E00089B2FFF7DFBE0368D3F80405704700003A
:1012F00090F9043001215A0903F01F0301FA03F3A6
:101300004032024941F82230704700BF00E100E05E
:10131000024B034A1B681068184700BF38170020AB
:101320003017002070B5064D0646002455F8043BE2
:101330000BB1304698470134042CF7D170BD00BF83
:10134000481700204388033300EB830399420BD3F3
:1013500082884FF6FF739A4208D0038833B18068C1
:10136000431C584258417047022070470120704783
:10137000033080B240F2FE33984230B51FD8134B91
:101380001A783AB91C895D892C440444A4B2B4F596
:10139000806F0AD91A7DAAB99A8BDC8B2244024449
:1013A00092B2B2F5806F0DD801220A801446142241
:1013B00002FB04335A8910445881002030BD48F2A2
:1013C0000860FBE748F20660F8E700BF7C170020E2
:1013D0000B4A0C495388142000FB0311CB6833B926
:1013E0000420496810700122074801F055BB0749E5
:1013F0000523137002238B80012209680023F3E781
:10140000601700207C170020681500204418002079
:1014100007B5002305490093054A096805480823D4
:1014200001F0A0FA03B05DF804FB00BF44180020EF
:10143000647101006815002007B500230146009380
:10144000034A0448082301F08DFA03B05DF804FB59
:101450005C7101006815002013B500230C46009351
:101460000146084A0848042301F07CFA38B9074BC2
:10147000142101FB043101230B7402B010BD48F2AA
:101480000D60FAE758710100681500207C170020F4
:1014900037B50A480A4B42689C8819685388032567
:1014A000033305709BB2002000909B0001EB840188
:1014B000044801F057FA03B030BD00BF60170020A8
:1014C000441800206815002010B50146044800F0BB
:1014D000C2FE1C220446002112F048FB204610BD2B
:1014E0003018002068B10268084B9A4209D1406860
:1014F000074B984207D00133984214BF03200120C4
:101500007047032070470020704700BFDEC0ADDE8B
:10151000FE011EF12DE9F0410D460223154F2B80EF
:10152000164600F5805100F108044FF001088C4286
:101530000ED2236801330BD02046FFF703FF48B1DA
:101540000EB186F80080022809D14FF480632B8009
:10155000BDE8F081A3683A68934200D93B602B88CC
:101560006288033313442B806388033304EB8304C2
:10157000DDE700BF7417002038B5144B14220D4668
:1015800002FB00302B68446804F58051A3B15C88ED
:10159000033403EB84048C4215D22368013312D048
:1015A0002046FFF7CFFE012808D002280BD00028E4
:1015B000F1D12C60012038BD0834ECE76388033397
:1015C00004EB8304E7E70020F5E700BF7C17002069
:1015D000426873B504460D466AB3234BD9688A4204
:1015E00029D31B699A4226D812F0030323D11F493D
:1015F0000089098988421ED12068916888421AD1E1
:101600001B4841688A4203D901F580518A420DD3B3
:1016100081698A420CD901F580518A4208D201229F
:101620002A80B3FA83F0400902B070BD1A46F7E78A
:1016300048F20963F5E700262E800196288801A963
:10164000FFF79AFF30B92B8801339BB2012B2B8017
:10165000F3D9E9E7019B226899689142EED1636072
:10166000024B1B892381DFE76815002060170020EB
:101670007C1700202DE9F8431C461D4B1B780646BD
:101680000F46154673B382B37CB3DFF86C804FF01E
:101690001409A388012B02D948F2096020E009FB54
:1016A00003F318F803302BB9A0882146FFF764FF35
:1016B00020B92060A3880133A380EAE723681EB124
:1016C000998832889142EFD11FB119883A889142A6
:1016D000EAD19A68C5E90023064B1B892B810020BB
:1016E000BDE8F88348F20160FAE748F20460F7E7E2
:1016F00058170020601700207C17002008B5074B02
:101700005888191DFFF738FF18B1BDE80840FFF7EA
:10171000BFBEBDE80840FFF75BBE00BF60170020FA
:101720002DE9F047A24FDFF8AC8288B006463B684F
:1017300023B9A048414600F0C8FD38603D682978CB
:101740004B1E052B07D8DFE813F020007A007A0043
:101750000C010C01640148F20E641422002103A85C
:1017600012F004FA41F61D539C4208BF00243B6866
:1017700004941A78023A042A00F20082DFE812F098
:10178000E101ED010F0217021E022EB18A4B002269
:101790005A604FF40644E0E72B79032B1CD8DFE8AE
:1017A00003F014022A35854A1378022B1AD0137DD0
:1017B000022B4FF0010317D114214B43D118002005
:1017C000D0544868FFF738FE03E001232B71FFF780
:1017D0001FFE002800F0BF80774B00225A6048F2BD
:1017E0000D64BAE70023E7E7734A137000235360E0
:1017F00041F61D54B1E772497248002302222B7151
:101800008A800968012201F047F9E2E76C4C002662
:101810002E712068FFF710FE6B4BDFF8A0C15B88CC
:101820002568142253430CEB03020CF80360516843
:101830005560A588158102222160A280C9E7B5F80C
:1018400014A0AA7DDFF87491AEB1022AEB8806D904
:10185000142101FB0A91DA1C088902440A8114222E
:1018600002FB0A99C3F57F43B9F80A20FD331344FC
:10187000A9F80A308DE7142303FB0A9318895C68E2
:1018800004EB8004062A69D8DFE802F0274E3644CC
:101890001D5A040041F61D54AA7DEB88022A06D980
:1018A000142101FB0A91DA1C088902440A811422DE
:1018B00002FB0A99C3F57F43B9F80A20FD331344AC
:1018C000A9F80A3049E74148414900234360AB6920
:1018D0000360FFF77DFE00285BD00223AB75002379
:1018E00000930423EA182146364801F03BF800280B
:1018F00031D048F20D64CFE72B69002B14BF0323CE
:101900000123AB750023009305F10C02042304F1BD
:101910000801E9E70123AB750022EB8800922A69F0
:101920009B0004F10C01DFE703290CBF052306230C
:10193000AB7500230093042305F10802E118D3E7F7
:101940000623AB75224B1988204B5868FFF784FD9E
:1019500004460028A0D108B0BDE8F08748F20E6424
:101960009AE7002E7FF415AF2B79012B34D0022B90
:101970003FF43EAF002B7FF4EEAE02232B710DF14E
:101980000A01EB68039303A8CDE90466FFF720FE84
:1019900010B948F20964E0E60498BDF80A1083889B
:1019A000EB8003882B81FFF757FD044627E000BF3B
:1019B0007817002030180020581700207C170020CE
:1019C0004418002068150020601700203C170020F4
:1019D00050180020701700207A4B03AA3146A81D2A
:1019E000FFF748FE774B044668B999880498FFF7DB
:1019F00033FD044648F209639C423FF4F9AE002CE3
:101A00007FF4ABAEA7E708223146184612F0AEF8D5
:101A1000F0E7002E7FF4BDAE6B4B1A7BB2B11E73A4
:101A20001A78013A062A3FF696AE01A151F822F043
:101A3000D71A0000FD1A00001B1B0000211B00002C
:101A400057170000271B0000391B00001A78072ACF
:101A5000E6D801A151F822F0791A0000211A0000FD
:101A6000211A00009F1A0000B31A0000D31A0000C8
:101A7000D31A00009B1A00001A89544901321A81B6
:101A800000225A801A730A78B2FA82F252099A72C4
:101A90000A7DB2FA82F25209DA72012207E04C4959
:101AA00058688A884088033202448A8002221A7069
:101AB000B6E75C88454A4649142505FB04220868B8
:101AC000546850608888108102228A800C60062247
:101AD000EDE70722EBE79A7A32B9DA7A8AB900227F
:101AE0001A705A805A6083E6384900229A72CA688E
:101AF000002AF2D1097C0029EFD05A80FFF7FEFDC1
:101B000053E70022DA72314A116A0029E7D192F8CC
:101B10002420002AE3D00122EFE7FFF7B9FC44E7D5
:101B2000FFF756FC41E75A88284B142101FB02338A
:101B30005868FFF781FC38E700225A60FFF768FC1D
:101B400033E701228DF80C201A89ADF818209A8805
:101B5000DB68ADF81A20059310E002228DF80C2006
:101B60001A89ADF818209A88ADF81A20DA689B7D9A
:101B700005929A1F534253418DF81C3003A8FFF77A
:101B8000D1FB0026414613483E6000F0C9FB1248D5
:101B9000012100F07FFC00287FF4C9ADDBE60322C1
:101BA0008DF80C20DA88ADF818201A89D0E70422C5
:101BB0008DF80C20DB88ADF81830DFE705238DF8B1
:101BC0000C30DBE754180020601700207C17002041
:101BD0004418002030180020401800204068FFF70B
:101BE0009FBD000008B50548012100F03BFC18B975
:101BF000BDE80840FFF794BD08BD00BF40180020B5
:101C00002DE9F3419846374B1B7806460D46002BCD
:101C10005CD000295DD009884FF6FF7399425BD0F4
:101C20006B88002B58D06B689B0758D14AB92F8915
:101C30000DF102013846FFF79BFB30B102B0BDE861
:101C4000F08113885788ADF8023001A8FFF73CFCFB
:101C5000044660B9BDF80220234B142101FB023376
:101C600058890338C01B588148F20760E6E780F8BE
:101C7000008000238375BDF8023083826B680361A6
:101C800001211A4800F0FAFB2B882381B8F1030FD9
:101C90006B88A38004BF0423A3754FF0000508BF21
:101CA0003368E06008BFA3611148E780658101A93E
:101CB00000F0FBFA36B1E36833600E4B75601B89A8
:101CC000B5723381FFF78EFF0020B7E748F201605D
:101CD000B4E748F20460B1E748F20360AEE748F2C7
:101CE0000260ABE7581700207C1700207417002013
:101CF000301800206017002008B503460748026826
:101D0000042A08D00168064A42F82130012100F077
:101D1000B5FB002008BD48F20B60FBE74C18002023
:101D2000481700202DE9F04FDFF80C9289B01422FB
:101D3000002103A811F01AFF99F8003003F0FF0208
:101D400001923BB103A8FFF7EDFA0027384609B02E
:101D5000BDE8F08F09F1040000F0A8FB0028F4D1E1
:101D60004FF010234FF080525B6911695269DFF820
:101D7000CCA1581C08BF02FB01F3CAF81030674918
:101D8000A3F5405300225046CAF80C3000F0B8FDCD
:101D900007460028DAD11C2361496248DFF8A0B168
:101DA0008C2200F023FA0323B8463D4600933C46BC
:101DB000DAF80C6046443046FFF794FB012862D005
:101DC000032817D000283DD157494FF0140C0CFBC5
:101DD00004FC01EB0C0201F80C0056600CF110023F
:101DE0000CF1080C0A4430466144FFF793FB45F0C0
:101DF000020545E03268531C02D04C4B9A4234D164
:101E0000321D06F58051106801302ED10432914206
:101E1000F9D1DBF800203AB902220123CBF80060A7
:101E2000ABF8042001930BE0142262433E4B0220E6
:101E3000991898543E4A4E60548001340881A4B2E7
:101E400045F0010508F58058B8F5405FB0D1009B1A
:101E5000012B98BF0025EDB2022D03D0062D31D005
:101E6000002D39D148F20A6770E7009B2E495A1EAF
:101E700093B214226243881800934660032088546A
:101E80000134A4B2DEE7019B6BB1274B14226243FD
:101E9000991802209854DBF800204A60244A0881EF
:101EA00054800134A4B200222249CBF800603046AD
:101EB000FFF730FBBBF80420022A0CBF04220822E3
:101EC0001543BFE7012389F8003003A80023C9F8B0
:101ED0000430FFF727FA39E702A8FFF7F5FAC8B18F
:101EE0000123013D03700A2D09D8DFE805F006083B
:101EF0000608070807080F110F000023037102A945
:101F0000084800F0D2F9FFF76DFE1FE70323F5E75D
:101F10000223F3E748F2076718E700BF6073010088
:101F2000A4170020301800207C170020DEC0ADDE92
:101F3000601700204818002058170020681500205E
:101F40004418002073B50D460446C8B1C1B10DF167
:101F50000601FFF73DFBB0B1BDF806300B486668DF
:101F6000142202FB030001210C3000F087FA6368A1
:101F70002E600C336B600123A372002002B070BD91
:101F800048F20460FAE748F20960F7E77C1700209E
:101F900013B50446A8B10DF10601FFF719FB98B17E
:101FA000BDF806200B4B142101FB0233DA6872B135
:101FB000A27A62B1DA680020013ADA60A07202B057
:101FC00010BD48F20460FAE748F20960F7E748F20A
:101FD0000560F4E77C17002002230022FFF710BE03
:101FE00018B103230022FFF70BBE48F204607047CC
:101FF000114B1B7813B50446ABB14FF6FF739842F3
:1020000014D001A8FFF760FA98B1052303700123EB
:102010000371C48001A9094800F047F9FFF7E2FD08
:10202000002002B010BD48F20160FAE748F20360F8
:10203000F7E748F20760F4E758170020301800204F
:102040000F4B1B7807B5A3B101A8FFF73DFA98B174
:102050000623037001A90B4800F027F90A4B1A78F0
:102060000AB101221A73FFF7BDFD002003B05DF82D
:1020700004FB48F20160F9E748F20760F6E700BFA9
:1020800058170020301800206017002007B5ADF861
:102090000600ADF804100DF1060001A9FFF7EAFAF9
:1020A00003B05DF804FB07B51346ADF806000A4619
:1020B00000200DF10601FFF7DDFA03B05DF804FB27
:1020C00007B51346ADF806000A460DF106000021DB
:1020D000FFF7D0FA03B05DF804FB20B119B1036833
:1020E0000B600020704748F2046070472DE9F84FFC
:1020F0003C4B1B780446002B6DD000286ED0DFF8D7
:10210000E8901222002111F031FD032323804FF0CB
:10211000000A4F4614264FF00108D9F80410B9F808
:102120000AB0B9F808500846FFF7DCF9032808BFE1
:102130002388628804BF03F1FF33238006FB0A7300
:102140005D44DB681344638023899B446389A4F85E
:1021500008B0ADB22B446381C5F58065A389ADB2EB
:10216000AB4238BFA58101F1080501F58051A942B4
:1021700029D92B68013326D02846FFF7E3F8012838
:102180000AD0022815D00028F1D1A3880133A380FA
:102190000AE04FF0010AC0E7E3880133E380E389F6
:1021A0006A8803331344E3816B88033305EB8305AB
:1021B000DDE7E38884F810804D1BE189013301EBF2
:1021C000A501E380E18109F11409BAF1000FE0D023
:1021D0000020BDE8F88F48F20160FAE748F2046099
:1021E000F7E700BF581700207C17002010B561B139
:1021F000B2FBF3F403FB1424A4B244B9C0E9001405
:1022000084608281C381204610BD0E20FCE7092036
:10221000FAE782B050E8022FC188B2EB324F4FF09C
:10222000000317BF92B241EA014142EA014104E0D2
:102230004268B2EB324F08BF012340E80212002A85
:10224000E8D18DF807309DF80730002B0CBF112026
:10225000002002B0704737B550E8013F9DB2C489F5
:1022600025448489A54228BF2D1B0489A54202BFAD
:10227000BFF32F8F002207E0C5EA030540E80154B1
:10228000002CE9D14FF001028DF803200193019A4F
:102290000A609DF8031001F0FF0321B1006810FAF5
:1022A00082F003B030BD1846FBE70A884B889A429B
:1022B00009D150E8012FC2EA024240E80123002B75
:1022C000F7D1012070470020704737B550E8023F32
:1022D0001FFAA3F5C488A54202BFBFF32F8F0022C7
:1022E0000DE0C48925448489A54228BF2D1BC3EA7B
:1022F000054540E80254002CE8D14FF001028DF86A
:1023000003200193019A0A609DF8031001F0FF0376
:1023100021B1006800EB124003B030BD1846FBE766
:102320000A884B889A4209D150E8022FC2EA224219
:1023300040E80223002BF7D10120704700207047AE
:1023400001F01F024B090121914000EB830000F0D6
:1023500065B84B0910B501F01F040121A14000EB45
:10236000830000F04FF8E04000F0010010BD01F0E4
:102370001F0301229A404B0900EB8300D14300F078
:1023800065B84B0901F01F0150F82300C84000F068
:10239000010070472DE9F0474F1E7F0980460E4629
:1023A0000137002558F8254008EB8509E44394FAE5
:1023B000A4F4B4FA84F44FEA451A202C06D101356E
:1023C000AF42EFD834462046BDE8F0875444A642D9
:1023D000F5D921464046FFF7BCFF0028F3D0D9F8D5
:1023E0000040E44394FAA4F4B4FA84F4E5E710B5A9
:1023F000034653E8000F0A4643E8002494F0000F18
:10240000F7D110BD10B5034653E8000F40EA0102B2
:1024100043E8002494F0000FF6D110BD10B5034638
:1024200053E8002F42EA010043E8000494F0000F53
:10243000F6D110BD10B5034653E8000F00EA0102C3
:1024400043E8002494F0000FF6D110BD10B5034608
:1024500053E8002F02EA010043E8000494F0000F63
:10246000F6D110BD10B5034653E8000F00EB010292
:1024700043E8002494F0000FF6D110BD10B50346D8
:1024800053E8002F02EB010043E8000494F0000F32
:10249000F6D110BD10B5034653E8002FA2EB0100A2
:1024A00043E8000494F0000FF6D110BD0121FFF7BE
:1024B000A9BF0121FFF7B2BF0021FFF7BBBF10B5D5
:1024C00090B1D0E9012301689B1ADBB20A60013B9D
:1024D000DBB2FF2B026802D10020107110BD116821
:1024E0004C1C14600B70F2E70E20F7E738B5044679
:1024F0000020FEF7D3FD226863681168994213D962
:10250000481E106011F8013CE568218A01FB035563
:10251000A36811791B1ADBB2994200D21371002013
:10252000FEF7BEFD284638BD0025F8E738B505465C
:1025300000200C46FEF7B2FD2A681368591C116092
:10254000E968641A298AB4FBF1F41C70BDE83840CC
:102550000020FEF7A5BD826810B504462AB1436984
:102560000168006998470023A36010BD0EB403B54D
:10257000039921B104AB01AA019300F077F802B0EE
:102580005DF804EB03B070470A2938B504460D46E0
:1025900002D10D21FFF7F8FFA3682268591CA16042
:1025A000D554D4E901329A4204D32046BDE83840DC
:1025B000FFF7D1BF38BD00002DE9F84F9846DDE99F
:1025C0000A43154682460F460A464FF00109AA42C1
:1025D0000FD2C14538BFC14613F0010B01D16CB910
:1025E00000240126B8F1010F1BD908F1FF386E4312
:1025F000F8E709F10109B2FBF5F2E8E79B070ED510
:10260000B8F1000F0CBF30262026A145E9D2013CCD
:1026100031465046FFF7B8FF002CF6D1E0E7202600
:10262000F3E7B7FBF6F39D42E1D9DFF83C80B7FB57
:10263000F6F3504618F8031006FB1377FFF7A4FFD4
:102640003346AB42B6FBF5F6F1D2BBF1000F02D038
:102650000CB1A14501D3BDE8F88F20215046013CC3
:10266000FFF792FFF4E700BF757101002DE9F74F06
:10267000054617468846002900F03E8118F8011BE0
:1026800049B92B7B002B00F03781284603B0BDE809
:10269000F04FFFF760BF252940F0B780002698F87B
:1026A00000302D2B424608F1010823D0302B24D0D6
:1026B0002B2B25D000242A2B02F1010123D13B68CA
:1026C0001A1D1B683A601C440A4613782E2B26D12B
:1026D00001324FF0000A104610F8011BA1F1300C36
:1026E000BCF1090F1DD80A2303FB0A13A3F1300A1A
:1026F0000246F0E746F00106D1E746F00206CEE7D3
:1027000046F00406CBE711F8013CA3F1300009289C
:10271000DBD80A2202FB0434303C0A46CBE74FF0F8
:10272000000A12F8011B01F0FB0068289046F8D05F
:10273000782909D86F290CD8632962D022D8252995
:1027400063D0582900F0888098F80030002B95D18C
:1027500097E770390829F7D801A353F821F000BF93
:10276000D3280000492700004927000069280000FD
:10277000492700004728000049270000492700009A
:1027800059280000642901D06929DDD13A68D2F8BE
:102790000090111D89EAE9723960A2EBE9724FF0ED
:1027A000010B092A35DCD34538BFD3462CB1B9F12A
:1027B000000F01DB720700D5013CB30702D5BAF167
:1027C000000F03D0F00701D44CBB0024B9F1000F77
:1027D0002DDAC9F100092D212846FFF7D5FE06F0B4
:1027E0000302022A04D1BAF1000F01D11CBB00245C
:1027F000CDE9004653460A2249462846FFF7DCFE4B
:10280000A2E73B681A1D19783A602846FFF7BCFE1C
:102810009AE70A230BF1010BB2FBF3F2C1E7A345E0
:10282000D4D220212846013CFFF7AEFECCE7710749
:10283000D5D52B21D0E7A345DAD230212846013C5B
:10284000FFF7A2FED2E73968CDE900460A1D3A60DB
:1028500053460A220968D0E739680A1D3A60CDE973
:10286000004653461022F5E73B681A1D3A6016F001
:102870000106D3F8009024D1B9F1000F03D04846E7
:1028800011F0C9F90646B4421DD809F1FF3919F80B
:10289000011F00293FF458AF2846FFF775FEF6E701
:1028A00028460136FFF770FE19F806100029F7D107
:1028B000A642BFF449AF20212846013CFFF764FE41
:1028C000F6E70026F0E720212846013CFFF75CFEF2
:1028D000D9E73B681A1D3A60302128461C68FFF78B
:1028E00053FE78212846FFF74FFE00220823CDE94A
:1028F00000322146102280E703B0BDE8F08F00BF10
:1029000013B50B46114680B9104B1148114AC01A35
:102910000E23C0080093104B0004104940F0010042
:1029200008F085FA0E2002B010BD4BB9074B0848DD
:102930000B4AC01AC0080E2300930004064BECE7B4
:1029400003601B6802B0BDE8104018473C6F0100EF
:10295000AC6F010085710100417301008A710100B3
:10296000B97101002DE9F743DDF8288088B93E4BA5
:102970003E483F4AC01AC0080E243E4B0094000453
:102980003D4940F0010008F052FA204603B0BDE88E
:10299000F0834AB9344B3548384AC01AC0080E246F
:1029A000344B00940004EBE7D0F800E0BEF1000FD8
:1029B00009D12D4B2D48324AC01AC00808242D4B8E
:1029C00000940004DCE74BB9274B28482D4AC01A75
:1029D000C0080924274B00940004D1E74568D5F8C6
:1029E0000490B3FBF9F509FB15354DB11E4B1F489B
:1029F000254AC01AC00809241E4B00940004BFE7F2
:102A00008D0709D0184B1948204AC01AC008102455
:102A1000184B00940004B3E712F0030F09D0124BD7
:102A200012481B4AC01AC0081024124B009400041C
:102A3000A6E7C568A9420DD34D1EEC180569AC4246
:102A400008D8CDF82880DEF80C40A44603B0BDE8D5
:102A5000F0436047044B05480E4AC01AC0081024D2
:102A6000044B009400048BE73C6F0100AC6F010045
:102A7000857101002E7301008A7101000772010047
:102A8000B3710100C67101000D72010037720100BF
:102A90004F72010072720100F7B580B92A4B2B48C2
:102AA0002B4AC01AC0080E242A4B009400042A495D
:102AB00040F0010008F0BBF9204603B0F0BDD0F8AB
:102AC00000C0BCF1000F09D11F4B2048234AC01A97
:102AD000C00808241F4B00940004E8E74AB91A4BC9
:102AE0001A481F4AC01AC00809241A4B009400044F
:102AF000DDE74568D5F800E00EF1FF350D4209D05D
:102B0000114B1248174AC01AC0081024114B0094E8
:102B10000004CCE7C568A9420CD34D1E0EFB02543D
:102B20000569AC4206D8DCF81040A44603B0BDE805
:102B3000F0406047044B05480B4AC01AC0081024F7
:102B4000044B00940004B2E73C6F0100AC6F01003D
:102B5000857101001B7301008A710100B3710100CE
:102B6000C671010099720100BF72010070B503685F
:102B70009E6886B004460D466EB114220021684658
:102B800010F0F4FFA3680593237901952BB1012B75
:102B90000DD06846B04706B070BD01238DF80030F7
:102BA00023690293E368039363690493F1E70223C3
:102BB0008DF80030E3681B030293F5E70846704781
:102BC00000207047024B187A003818BF0120704768
:102BD000F8180020034B187A0122B0FA80F05A74DA
:102BE00040097047F818002008B510461A4610F042
:102BF00094FF002008BD000008B5142200210448FD
:102C000010F0B4FF0348FFF704FB002008BD00BF2D
:102C1000F8180020E818002010B5094C094B436053
:102C20002046FFF743FC40B910F078FC06492074B9
:102C30001C2306488C22FFF7D9FA002010BD00BFE4
:102C4000F8180020547301005C180020E8180020D8
:102C500038B5234C234D237A3BB923492348FFF74A
:102C600034FB286008B9606038BD022323722B68EA
:102C70001A7972B1012A24D028680321FFF776FF60
:102C800000232372636018491848BDE83840FFF7F5
:102C900047BBD3E90520121AB2F5805FD3E90313CD
:102CA00028BF4FF480529208012A014438BF012204
:102CB000184407F003F950B11128DDD10123237224
:102CC000D2E7D3E90303184407F0E2F8F3E7237CE3
:102CD000002BC9D1BDE83840022000F009B800BF80
:102CE000F8180020101900200C190020E818002006
:102CF00038B5234C237A002B41D0022B09D103286D
:102D000030D0204B00221B68E2601A793AB1012AC8
:102D100022D0637C7BBBBDE83840FFF799BFD3E985
:102D200005128D1AB5F5805F94BF521902F58052D5
:102D30009A619142EDD102284FF0000308BF194675
:102D40002372104B18BF0D211868FFF70FFF0E49B3
:102D50000E48FFF7E5FADCE71A6901321A615B6990
:102D60009A42E7E7E3680133082B01D8E360D0E734
:102D70000023E360DFE7BDE8384010F0BFBB38BD9B
:102D8000F8180020101900200C190020E818002065
:102D9000831E012B01D8FFF7ABBF704700F0FD0386
:102DA000012B08D1044B00225A74421E504250415C
:102DB0001874FFF74DBF7047F818002010B5064C87
:102DC000201DFFF773FB28B9637C1BB9BDE81040D9
:102DD000FFF73EBF10BD00BFF81800202DE9F341FA
:102DE00080460D460F4801A916461F46FFF733FAE5
:102DF0000446A8B11C22002110F0B8FE2D0B0123BF
:102E0000237101A90748C4F80080A760E5606661E6
:102E1000FFF74BFAFFF7D2FF002002B0BDE8F081C8
:102E20000420FAE7E81800202DE9F7438146884698
:102E3000104801A917461E46FFF70DFA0446B0B127
:102E40001C22002110F092FE00250A9BA36001A91C
:102E5000C4E9037807482571C4F800906661FFF75C
:102E600024FAFFF7ABFF284603B0BDE8F083042047
:102E7000FAE700BFE81800202DE9F84FB0F806A0E7
:102E80004579D2F800B09DF828900AFB05F5043D7D
:102E900088460BEB0301A94203F1040488BFA5EBAC
:102EA000030BB4FBFAF607460AFB1644C2F800B05F
:102EB0004EB9AAEB04055D4528BF5D46BBF1000F86
:102EC00004D1BDE8F88F3F68013EF1E7043408EB18
:102ED00006003C442A46B9F1000F0DD02146ABEB69
:102EE000050B10F01AFEDA452E443F6855464FF0A8
:102EF000000428BF5D46E1E701462046EFE7FFF703
:102F0000DEBAF8B546790146721E054600239342A3
:102F10002D6803D30024A64202D8F8BD0133F6E79A
:102F20000F682846FFF702FB01343946F3E72DE925
:102F3000F843068ACD1C0746FFF7D8FA043E35440D
:102F40000446B5FBF6F5F0B14FF48073EDB2838023
:102F5000C680013D076081464FF00008A84512D2A7
:102F60003846FFF7C3FA064648B163790133637107
:102F700008F10108C9F8000007608146EEE7204625
:102F8000FFF7BFFF34462046BDE8F8830121043037
:102F9000FFF774BA10B5012104460430FFF77AFA3E
:102FA000C0B220B92046BDE81040FFF7AABF10BD4F
:102FB0001FB503920022009203AAFFF75DFF05B040
:102FC0005DF804FB1FB503920122009203AAFFF7EC
:102FD00053FF05B05DF804FB064B10B500241C70D0
:102FE000054B1C60BFF35F8F0449054800F036F9BC
:102FF000204610BD1C190020201900208C730100F0
:103000001419002008B50020FEF748F8F1EE103A38
:1030100023F09F03E1EE103ABFF35F8F054B402290
:10302000C3F884210020FEF73BF820BF40BF20BF3B
:1030300008BD00BF00E100E00268136852689342D7
:1030400091BFD01A80680130801888BFC01A7047BD
:1030500003682DE9F0411F681E6815465A689642BC
:1030600086BF83680133961B8846C268416888BF63
:103070009E1BB542044607FB02110CD86A4340462A
:1030800010F04BFDA3683D449D4288BF0025236896
:103090001D60BDE8F08106FB02F73A46404610F09D
:1030A0003CFDE2686168AD1B6A4308EB070010F065
:1030B00034FDECE7036881681A685B688B4234BFB3
:1030C00001330023D31A58425841704770B5044663
:1030D00000200D46FDF7E2FF2046FFF7EBFF10B1A1
:1030E000237C002B3BD12368A1685E685A688A4222
:1030F00034BF013200225A6028B11A688A4234BFB4
:10310000013200221A60E2686368511E072920D844
:10311000DFE801F004101F141F1F1F182A789A55AA
:103120002046FFF789FF23689A68824200D29860A0
:10313000002415E02A8823F81620F1E72A6843F8CE
:103140002620EDE7D5E9000103EBC603C3E9000142
:10315000E6E7294602FB063010F0DFFCE0E7042436
:103160000020FDF79DFF204670BD37B50546019153
:10317000144682B10020FDF791FF2846FFF75CFF5F
:10318000A04201990AD322462846FFF761FF002496
:103190000020FDF785FF204603B030BD0524F7E78A
:1031A00010B504460020FDF779FF20680C220021AD
:1031B00010F0DCFCBDE810400020FDF771BF036893
:1031C00018685B68C31A58425841704770B5054685
:1031D00000200C461646FDF761FF2846FFF7EFFF7B
:1031E000002830D12B6819682EB91A68A868824265
:1031F00038BF561C1E60EA686B68501E07281CD832
:10320000DFE800F0040C1B101B1B1B145B5C23701D
:1032100000240020FDF744FF204670BD33F8113034
:103220002380F5E753F821302360F1E703EBC10376
:10323000D3E90023C4E90023EAE701FB0231204679
:1032400010F06BFCE4E70524E3E7836800225A6092
:10325000C3E904229A60DA601A6070470B684A6812
:103260004360934208BF0023016008BF436070477A
:10327000436843B10268916852680B4493424360CB
:1032800004BF00234360704770B5446806460D468E
:10329000206818B1B3682946984718B923682B608D
:1032A000256070BD2468F3E74368186808B10268B8
:1032B0001A6070474368186870474368186800B917
:1032C0007047884203D102681A60012070470346A4
:1032D0000068F4E710B50D49A1F59472914201D848
:1032E00000200FE08C1AE30F03EBE4035B1002EB0A
:1032F000C30452F83330834205D802D204F10802E5
:10330000ECE7606810BD2146E8E700BF987801004F
:1033100008B5FFF7DFFF024B002808BF184608BDBD
:103320005B7701000B7B23B14B68036000230371C3
:1033300070470B6803600123F9E703684A688968EE
:1033400010B5D41A8C428BBF5B1800230360026057
:1033500098BF037110BD03680A68896810B59C1A8C
:103360008C428BBF5B1A01230360026098BF03711C
:1033700010BD037910B504461BB1FFF7DEFF2068CE
:1033800010BDFFF7E8FFFAE7054A4FF0A043105CD5
:10339000D3F8043523FA00F0C04300F00100704771
:1033A0009C780100044B1A5C012393404FF0A0422B
:1033B000C2F80C35704700BF9C780100044B1A5CC2
:1033C000012393404FF0A042C2F80835704700BF78
:1033D0009C78010008B50020FFF7F0FF0120FFF7FF
:1033E000EDFF0220FFF7EAFFBDE808400320FFF7EA
:1033F000E5BF08B50020FFF7D5FF0120FFF7D2FF9A
:103400000220FFF7CFFFBDE808400320FFF7CABF47
:10341000074A4FF0A041105CD1F8043501228240E8
:1034200022EA03001340C1F80805C1F80C357047C3
:103430009C780100054A4FF0A043105CD3F810358A
:1034400023FA00F0C04300F00100704798780100B3
:103450000D2809D00E2809D00F2809D010280CBF3C
:1034600003204FF0FF307047002070470120704765
:1034700002207047014B185C704700BF987801002C
:10348000C20708B501460CD54FF0A0430322C3F88C
:103490004427C3F84827C3F84C27C3F85027FFF741
:1034A00099FF8B070AD54FF0A0430C22C3F83427AD
:1034B000C3F83827C3F83C27C3F8402708BD0000ED
:1034C00008B5202200210A4810F050FB08220021F4
:1034D000084810F04BFB30220021074810F046FB53
:1034E000BDE8084005484FF49072002110F03EBB43
:1034F000741A0020941A0020241900205419002066
:10350000F0B50A4C00222546A37843B9242454433D
:103510002E1901272853B77018460A60F0BD0132F2
:10352000082A04F12404EFD10420F7E754190020FD
:10353000084A30B50023242404FB03F18D5A854248
:1035400003D10A440020907030BD0133082BF3D121
:103550000520F9E75419002010B5094A0023148802
:10356000844205D19478012C02D10B60002010BD5B
:103570000133082B02F12402F1D10520F7E700BF47
:103580005419002030B560B1094A0023144652F89E
:10359000041B1D46013309B1814203D144F82500C3
:1035A000184630BD082BF2D14FF0FF30F9E700BFCD
:1035B000741A002030B1044B421E002153F822003F
:1035C00043F82210704700BF741A002010B550B1A4
:1035D000054A0823002152F8044B844208BF42F8F0
:1035E000041C013BF7D110BD741A002010B5054C26
:1035F000236833B118B100211846FFF7DBFF002321
:10360000236010BD9C1A0020F0B50A4C002225460C
:10361000A37843B90C2454432E1901272853B770BB
:1036200018460A60F0BD0132082A04F10C04EFD1FB
:103630000420F7E7A01A0020084A30B500230C2424
:1036400004FB03F18D5A854203D10A440020907097
:1036500030BD0133082BF3D10520F9E7A01A002073
:1036600010B5094A00231488844205D19478012CAE
:1036700002D10B60002010BD0133082B02F10C02B7
:10368000F1D10520F7E700BFA01A00201FB5074AB7
:1036900003AB0093D2E9002301F0FEF808B1FDF777
:1036A000FFFA039805B05DF804FB00BF001B002083
:1036B00037B504460D460DF10601204606F05CFFC5
:1036C0000028F8D123681870BDF80630013B2B6044
:1036D00003B030BD07B501AA01F06DF808B1FDF7E0
:1036E000DFFA019803B05DF804FB000007B501AAFA
:1036F00001F096F808B1FDF7D3FA019B1BB90198C8
:1037000003B05DF804FB054B9A78002AF7D01888BF
:10371000FFF792FF0028F2D0F2E700BF001B002065
:1037200007B501AA01F098F908B1FDF7B9FA0198B7
:1037300003B05DF804FB0000F0B585B003AF0C46A4
:103740000646394602A81546FFF7B2FF0B4BC3E900
:103750000045029B009701332A462146304601F07E
:1037600063F808B1FDF79CFA0399054A0298013104
:10377000039189B206F072FF05B0F0BD001B002076
:103780008D36000007B5FFF79BFE01A96846FFF7DD
:103790008FFF009801A9013000F0F6FF08B1FDF796
:1037A0007FFA0199044A00980131019189B206F02B
:1037B00055FF03B05DF804FBD536000030B585B089
:1037C0000C46054602A901A8FFF772FF2CB303A916
:1037D0002846FFF719FFF0B90399114BA2880C2076
:1037E00000FB01331A8122685A600E4B01221D80B2
:1037F0009A70019A02AB01322146284600F0E0FFA0
:1038000008B1FDF74DFA0299074A0198013102917A
:1038100089B206F023FF05B030BD024B9C70E8E78B
:10382000A01A0020001B0020ED36000037B504462A
:103830000D46684601A9FFF73BFF009A01AB013234
:103840002946204601F06AF808B1FDF729FA0199E6
:10385000044A00980131019189B206F0FFFE03B0DD
:1038600030BD00BF2137000007B501AA01F0F1FA11
:1038700008B1FDF715FA019803B05DF804FB0000EC
:103880001FB5074A03AB0093D2E9002301F01AFCED
:1038900008B1FDF705FA039805B05DF804FB00BF19
:1038A000081B002007B5064A01AB126801F01EFB99
:1038B00008B1FDF7F5F9019803B05DF804FB00BF0E
:1038C000081B002007B501AA01F070FC08B1FDF744
:1038D000E7F9019803B05DF804FB07B501AA01F010
:1038E00054FB08B1FDF7DCF9019803B05DF804FB67
:1038F00007B501AA01F076FD08B1FDF7D1F90198ED
:1039000003B05DF804FB07B501AA01F0A7FB08B1FD
:10391000FDF7C6F9019803B05DF804FB07B501AAED
:1039200001F076FC08B1FDF7BBF9019803B05DF832
:1039300004FB07B501AA01F0A5FD08B1FDF7B0F938
:10394000019803B05DF804FB13B50A4C0023019302
:10395000226801AB01F0E2FD08B1FDF7A1F9019B7E
:1039600013B9019802B010BDA088FFF7E1FD00284F
:10397000F7D0F7E7081B002007B5074A002301939B
:10398000126801AB01F0DCFC08B1FDF789F9019880
:1039900003B05DF804FB00BF081B002007B500233F
:1039A00001AA019301F07CFA08B1FDF779F90198B9
:1039B00003B05DF804FB07B5002301AA019301F0F1
:1039C00019FB08B1FDF76CF9019803B05DF804FB31
:1039D00007B5002301AA019301F04EFC08B1FDF7E1
:1039E0005FF9019803B05DF804FB07B5002301AA55
:1039F000019301F07FFC08B1FDF752F9019803B083
:103A00005DF804FB07B5074A00230193126801AB78
:103A100001F0D2FD08B1FDF743F9019803B05DF85C
:103A200004FB00BF101B002007B5074A00230193C9
:103A3000126801AB01F028FE08B1FDF731F90198D9
:103A400003B05DF804FB00BF101B002007B5002386
:103A500001AA019301F074FE08B1FDF721F9019864
:103A600003B05DF804FB000073B50E4D01AB2A688E
:103A70000026019601F0A6FE019B04463BB1686852
:103A80003146FFF7A3FDA8683146FFF79FFD2CB133
:103A90002046FDF705F92046FDF702F9019802B02E
:103AA00070BD00BF101B002038B505460C462146EE
:103AB000284606F061FD0028F9D12B68187023888C
:103AC000013B238038BD000037B5002304460D4676
:103AD000684601A90193FFF7E7FF009A01AB0132A5
:103AE0002946204601F087F908B1FDF7D9F8019978
:103AF000044A00980131019189B206F0AFFD03B08C
:103B000030BD00BF6938000037B5002304460D46BC
:103B1000684601A90193FFF7C7FF0B4B009AC3E961
:103B20000045013201AB2946204601F09BFA08B15D
:103B3000FDF7B6F80199054A00980131019189B263
:103B400006F08CFD03B030BD081B0020813800005A
:103B500013B50023044601A968460193FFF7A4FFAB
:103B600000990A4B01AA013120461C6001F09CF922
:103B700008B1FDF795F80199054A009801310191C6
:103B800089B206F06BFD02B010BD00BF081B00201B
:103B9000A538000070B586B005AE002304460D467A
:103BA00004A8314603920593FFF77EFF049B039A16
:103BB000009601332946204601F0BEFA08B1FDF710
:103BC0006FF80599044A04980131059189B206F00D
:103BD00045FD06B070BD00BFC538000013B5002319
:103BE000044601A968460193FFF75EFF009901AA08
:103BF0000131204601F0A6F908B1FDF751F801990D
:103C0000044A00980131019189B206F027FD02B003
:103C100010BD00BFDB38000013B50023044601A926
:103C200068460193FFF740FF009901AA0131204641
:103C300001F0B2FB08B1FDF733F80199044A00988E
:103C40000131019189B206F009FD02B010BD00BF3B
:103C5000F138000037B5002304460D46684601A937
:103C60000193FFF721FF009A01AB0132294620465C
:103C700001F0C4F908B1FDF713F80199044A00985E
:103C80000131019189B206F0E9FC03B030BD00BFFB
:103C90000739000037B5002304460D46684601A9E0
:103CA0000193FFF701FF009A01AB0132294620463C
:103CB00001F080FA08B1FCF7F3FF0199044A00987B
:103CC0000131019189B206F0C9FC03B030BD00BFDB
:103CD0001D39000070B586B00D4605AE00210446C2
:103CE000059104A83146CDE90232FFF7DDFE0499C3
:103CF000019601310091DDE902322946204601F0AA
:103D000075FB08B1FCF7CCFF0599044A0498013112
:103D1000059189B206F0A2FC06B070BD33390000EF
:103D20002DE9F04186B00DF1100805461C460E46FF
:103D30000023414603A8CDE904331746FFF7B4FE3C
:103D4000154B1C609D8074B105A92846FFF7D8FB70
:103D5000F8B9059B11484FF0240C202221460CFB9A
:103D600003000FF0DAFE039BCDF8048001330093CB
:103D70003A4623463146284601F088FB08B1FCF755
:103D80008FFF0499064A03980131049189B206F025
:103D900065FC06B0BDE8F081081B00205819002022
:103DA0004939000013B50023044601A96846019370
:103DB000FFF77AFE00990A4B01AA013120461C60E8
:103DC00001F09CFA08B1FCF76BFF0199054A0098D5
:103DD0000131019189B206F041FC02B010BD00BF73
:103DE000081B00207939000013B50023044601A9FF
:103DF00068460193FFF758FE009901AA0131204659
:103E000001F02BF808B1FCF74BFF0199044A009828
:103E10000131019189B206F021FC02B010BD00BF52
:103E20009D39000037B5002304460D46684601A9B8
:103E30000193FFF739FE009A01AB01322946204673
:103E400001F0A8F808B1FCF72BFF0199044A00988B
:103E50000131019189B206F001FC03B030BD00BF11
:103E6000B739000037B5002304460D46684601A95E
:103E70000193FFF719FE009A01AB01322946204653
:103E800001F0CAF908B1FCF70BFF0199044A009848
:103E90000131019189B206F0E1FB03B030BD00BFF2
:103EA000D139000070B586B005AE002304460D463A
:103EB00004A8314603920593FFF7F6FD049B039A8D
:103EC000009601332946204601F0DAF908B1FCF7E3
:103ED000E7FE0599044A04980131059189B206F07C
:103EE000BDFB06B070BD00BFEB39000013B5002369
:103EF000044601A968460193FFF7D6FD0A4B0099D5
:103F00001C6001AA0131204601F034FB08B1FCF726
:103F1000C7FE0199054A00980131019189B206F066
:103F20009DFB02B010BD00BF101B0020053A000031
:103F3000F0B585B003AF002305460E4602A839460A
:103F400014460393FFF7B0FD0B4B1C60029B0097D8
:103F5000013322463146284601F05CFB08B1FCF7EC
:103F60009FFE0399054A02980131039189B206F038
:103F700075FB05B0F0BD00BF101B0020293A000002
:103F800037B5002304460D46684601A90193FFF7A3
:103F90008BFD009A01AB01322946204601F0A0FBBF
:103FA00008B1FCF77DFE0199044A009801310191A6
:103FB00089B206F053FB03B030BD00BF4D3A00009C
:103FC00070B586B005AE002304460D4604A8314600
:103FD00003920593FFF768FD0F4B039A1C60BCB179
:103FE00029685960A9689960049B009601332946A5
:103FF000204601F0A9FB08B1FCF752FE0599074ADB
:1040000004980131059189B206F028FB06B070BD15
:10401000C3E90144E8E700BF101B0020693A000033
:1040200007B501AA03F0F8F808B1FCF739FE0198CA
:1040300003B05DF804FB07B501AA03F028F908B145
:10404000FCF72EFE019803B05DF804FB07B501AA4A
:1040500003F04EF908B1FCF723FE019803B05DF8B8
:1040600004FB38B505460C462146284606F084FA7E
:104070000028F9D12B6818702388013B238038BDB4
:1040800070B586B005AE002304460D4604A831463F
:1040900003920593FFF7E5FF049B039A0096013313
:1040A0002946204603F07CF808B1FCF7F9FD059994
:1040B000044A04980131059189B206F0CFFA06B09E
:1040C00070BD00BF2140000070B586B005AE002372
:1040D00004460D4604A8314603920593FFF7C1FF3D
:1040E000049B039A009601332946204603F098F872
:1040F00008B1FCF7D5FD0599044A049801310591F2
:1041000089B206F0ABFA06B070BD00BF37400000C0
:1041100037B5002304460D46684601A90193FFF711
:10412000A0FF009A01AB01322946204603F0B3F804
:1041300008B1FCF7B5FD0199044A009801310191DD
:1041400089B206F08BFA03B030BD00BF4D400000CD
:1041500007B501AA04F069FB08B1FCF7A1FD0198BD
:1041600003B05DF804FB000007B5054B01AA04F09D
:104170004DF908B1FCF794FD019803B05DF804FB1C
:104180001C1B002007B5064A01AB126804F026FA92
:1041900008B1FCF785FD019803B05DF804FB00BF92
:1041A0001C1B002007B5002301AA019304F079FA33
:1041B00008B1FCF775FD019803B05DF804FB000041
:1041C00007B5054A01AB04F05FF808B1FCF768FDDC
:1041D000019803B05DF804FB1C1B002007B5074ADB
:1041E00000230193126801AB04F0B4F808B1FCF7A6
:1041F00057FD019803B05DF804FB00BF1C1B0020B5
:1042000007B5002301AA019304F0AAF908B1FCF74D
:1042100047FD019803B05DF804FB000007B5064AAE
:1042200001AB126804F05EFB08B1FCF739FD0198A0
:1042300003B05DF804FB00BF1C1B002007B5064A55
:1042400001AB126804F0B4FB08B1FCF729FD01983A
:1042500003B05DF804FB00BF1C1B00201FB503ABBF
:104260000093054B1A1F04F065FA08B1FCF718FD1E
:10427000039805B05DF804FB201B00201FB503ABBD
:104280000093054B1A1F03F077FF08B1FCF708FDF8
:10429000039805B05DF804FB201B002007B5054A14
:1042A00001AB04F001F908B1FCF7FAFC019803B086
:1042B0005DF804FB1C1B002007B501AA04F0D1FB2C
:1042C00008B1FCF7EDFC019803B05DF804FB38B5CC
:1042D00005460C462146284606F04EF90028F9D13D
:1042E0002B6818702388013B238038BD70B586B0D9
:1042F0000D4605AE00210446059104A83146CDE9DE
:104300000232FFF7E4FF0499019601310091DDE9E3
:1043100002322946204604F04FFA08B1FCF7C0FCEF
:104320000599044A04980131059189B206F096F97D
:1043300006B070BD5141000037B500230C4605465C
:1043400001A968460193FFF7C2FFB4B1A3680C4A04
:104350001360009A01AB01322146284604F026F88A
:1043600008B1FCF79DFC0199064A009801310191C2
:1043700089B206F073F903B030BD2346E7E700BF0A
:104380001C1B002069410000F0B585B003AF00237D
:1043900005460E4602A8394614460393FFF797FFD9
:1043A0000B4B1C60029B0097013322463146284686
:1043B00004F0DAF808B1FCF773FC0399054A029897
:1043C0000131039189B206F049F905B0F0BD00BF93
:1043D0001C1B00208541000070B586B005AE00238F
:1043E00004460D4604A8314603920593FFF76FFF7C
:1043F000049B039A009601332946204604F01AF9DB
:1044000008B1FCF74DFC0599044A04980131059167
:1044100089B206F023F906B070BD00BFA5410000C7
:10442000F0B587B005AF1C46054600230E4604A82C
:10443000394603920593FFF74AFF0C4B039A1C6021
:10444000049B01970133009331462346284603F02D
:10445000D1FE08B1FCF724FC0599054A0498013106
:10446000059189B206F0FAF807B0F0BD1C1B0020D8
:10447000C1410000F0B585B003AF002305460E46EC
:1044800002A8394614460393FFF721FF0B4B1C602B
:10449000029B0097013322463146284603F020FF55
:1044A00008B1FCF7FDFB0399054A0298013103911D
:1044B00089B206F0D3F805B0F0BD00BF1C1B002088
:1044C000DD41000037B5002304460D46684601A9CA
:1044D0000193FFF7FCFE009A01AB0132294620460A
:1044E00004F00EF808B1FCF7DBFB0199044A0098D0
:1044F0000131019189B206F0B1F803B030BD00BFBF
:1045000001420000F0B585B003AF002305460E461A
:1045100002A8394614460393FFF7D9FE0B4B1C60E3
:10452000029B0097013322463146284604F081F968
:1045300008B1FCF7B5FB0399054A029801310391D4
:1045400089B206F08BF805B0F0BD00BF1C1B00203F
:104550001D420000F0B585B003AF002305460E46AE
:1045600002A8394614460393FFF7B1FE0B4B1C60BB
:10457000029B0097013322463146284604F0DEF9BB
:1045800008B1FCF78DFB0399054A029801310391AC
:1045900089B206F063F805B0F0BD00BF1C1B002017
:1045A0003D420000F0B587B005AF0C461546064603
:1045B0000022394604A803930592FFF788FE0D4AAE
:1045C000039BC2E90045049A0197013200922146FB
:1045D0002A46304604F06AF808B1FCF761FB0599F9
:1045E000054A04980131059189B206F037F807B001
:1045F000F0BD00BF1C1B00205D420000F0B585B07F
:1046000003AF0C4600230646394602A8154603931D
:10461000FFF75DFE0B4BC3E90045029B009701339A
:104620002A462146304603F071FD08B1FCF738FBFD
:104630000399054A02980131039189B206F00EF8F8
:1046400005B0F0BD1C1B00207D42000013B5002307
:10465000044601A968460193FFF739FE0A4B009909
:104660001C6001AA0131204603F0FCFE08B1FCF7F2
:1046700017FB0199054A00980131019189B205F0B3
:10468000EDFF02B010BD00BF1C1B00209D420000CA
:1046900037B5002304460D46684601A90193FFF78C
:1046A00016FE009A01AB01322946204604F0ACF90F
:1046B00008B1FCF7F5FA0199044A0098013101911B
:1046C00089B205F0CBFF03B030BD00BFB942000096
:1046D00007B5054A01AB05F025FB08B1FCF7E0FA88
:1046E000019803B05DF804FB281B002038B505468F
:1046F0000C462146284605F03FFF0028F9D12B68DB
:1047000018702388013B238038BD07B5002301A919
:1047100068460193FFF7EAFF009801A9013005F010
:104720002DFB08B1FCF7BCFA05F0E0FB01990098FD
:1047300001310191002289B205F090FF03B05DF8CC
:1047400004FB000013B50023044601A96846019349
:10475000FFF7CCFF00990A4B01AA013120461C60EB
:1047600005F0BAFA08B1FCF79BFA0199054A0098DE
:104770000131019189B205F071FF02B010BD00BF97
:10478000281B0020D146000013B50C46014680B11D
:104790007CB10023019360238DF80330226801ABC4
:1047A0000DF1030005F0CCF808B9019B236002B0BD
:1047B00010BD0E20FBE71346602205F065B800002F
:1047C00030B589B00D461C46ADF8160011461AB337
:1047D00013B300232268079366238DF81B300DF175
:1047E0001B0007ABCDE9031205F0AAF890B9DDE98B
:1047F000031207AB0DF1160005F084F850B9074B12
:104800000093DDE9031207AB284605F01CFA08B94E
:10481000079B236009B030BD0E20FBE7779B0000AB
:104820001346662205F030B8F0B587B00E460C9CF2
:104830000746154619465BB354B300232268059317
:1048400064238DF813300DF1130005ABCDE902128E
:1048500005F076F8D0B90F4B0093DDE9021205ABF5
:10486000384605F0F0F988B90090DDE9021205AB91
:10487000304605F0E8F948B90090DDE9021205ABD1
:10488000284605F0E0F908B9059B236007B0F0BDA4
:104890000E20FBE7039B00002DE9F04385B00D4699
:1048A000DDF8309090461F460646002834D0B9F116
:1048B000000F31D0002303930A46CDF80090642303
:1048C00003A904F0C7FF044630B9D9F800303BB162
:1048D000039BAB4200D00924204605B0BDE8F0831D
:1048E0000DF10B0303AA2946304605F036F888B9C6
:1048F000B8F1000FECD09DF80B3088F80030002F95
:10490000E6D0009303AA3B462946304605F0E2F87C
:104910000028DDD00446DFE70E24DDE72DE9F04175
:1049200088B00F4605909846114622B90E252846B4
:1049300008B0BDE8F081002BF8D00023D8F80020A3
:10494000079369238DF81B300DF11B0007ABCDE9F0
:10495000031204F0F5FF05460028E8D1DDE9031253
:1049600007AB05A804F0A1FF05460028DFD10090A1
:10497000DDE9031207AB384605F065F90546002866
:10498000D5D1DDE903121FB9079BC8F80030CEE787
:10499000059824281BD81F2810D8012830D02C4671
:1049A0002E462038032837D9002EBFD0002CBDD08A
:1049B00007AB2046B0470028E6D037E0A0F121033E
:1049C000BC1C032B12D8DFE803F013151719A0281D
:1049D0001FD006D8402816D0412817D000242646DC
:1049E000DFE7A128FAD1124E3C46DAE7114ED8E7AC
:1049F000114ED6E7114ED4E7114ED2E7114ED0E753
:104A0000114E3C46CDE7114E3C46CAE7104E3C469F
:104A1000C7E7104E3C46C4E707AB3846CDE9031262
:104A200004F08EFFDDE903120028BDD005467EE7C5
:104A3000E7930000056F0000F9800000B1930000CB
:104A40008B710000B3970000A59B0000336F00003E
:104A5000916E0000C59300001346692204F014BF54
:104A6000F8B516461D46002800F0CF80002B00F058
:104A7000CC80012940F2CB80002A00F0C6801B6860
:104A8000032B40F2C480043B2B6030F8027B7B1E7A
:104A90000239762B00F2B780DFE803F0B33CB5B5FE
:104AA000B5B5B5B5B5B5B5B5B5B5B555574F5F5D88
:104AB0004B654D676153595BAF6351B16B6971735E
:104AC0006D6FB5B5B5B5B5B5B5B5B57B8775798934
:104AD000777D85837F8B818DB5B5B5B5B5B5B5B51A
:104AE000B5B5B5B5B5B5B5B5B5B5B58F9997959318
:104AF0009B919DB5B5B5B5B5B5B5B5B5B5B5B5B5BC
:104B0000B5B5B5B5B5B5B5B5B5B5B59FA1A3A5A7AF
:104B1000A9ABAD003F4C2B463246A0472B6800287E
:104B200003F104032B601CBF002700233780738030
:104B3000F8BD394CEFE7394CEDE7394CEBE7394C30
:104B4000E9E7394CE7E7394CE5E7394CE3E7394C1D
:104B5000E1E7394CDFE7394CDDE7394CDBE7394C2D
:104B6000D9E7394CD7E7394CD5E7394CD3E7394C3D
:104B7000D1E7394CCFE7394CCDE7394CCBE7394C4D
:104B8000C9E7394CC7E7394CC5E7394CC3E7394C5D
:104B9000C1E7394CBFE7394CBDE7394CBBE7394C6D
:104BA000B9E7394CB7E7394CB5E7394CB3E7394C7D
:104BB000B1E7394CAFE7394CADE7394CABE7394C8D
:104BC000A9E7394CA7E7394CA5E7394CA3E7394C9D
:104BD000A1E7394C9FE7394C9DE7394C9BE7394CAD
:104BE00099E7394C97E7394C95E7394C93E7394CBD
:104BF00091E7394C8FE7394C8DE7394C8BE7394CCD
:104C000089E7394C87E7052088E70E2090E70920DF
:104C10008EE700BFED4C00006D5C00009558000071
:104C200095590000F5590000555A0000B55A00008A
:104C3000155B0000FD5E0000EB5C0000DD5D000028
:104C40003D5E0000ED5800009D5E0000755B0000B9
:104C5000CD5B0000855F000005600000256100005D
:104C60008161000065600000C5600000997300006C
:104C70002D740000557500007D760000117700004E
:104C8000E975000039780000B5780000C1740000B3
:104C9000A57700000573000049790000C579000080
:104CA000758C0000218C00008D8B00006B8A000049
:104CB000CD8B0000C18A00002D8D0000818D000089
:104CC000FB93000077940000F394000059950000D6
:104CD000AD950000299600008F96000037970000E0
:104CE00029580000555D0000A14D0000F0B585B0C9
:104CF0001C4600230D4616460293074600284BD05B
:104D0000002C49D023680F2B02D8092005B0F0BD34
:104D1000103B23601346022223F8042B02AA04F05E
:104D200002FE0028F2D106F1080302AA29463846FD
:104D300004F013FE0028E9D106F1100302AA294667
:104D4000384604F0F0FD0028E0D133464FF0FF3242
:104D500043F80C2F2946009002AA384604F091FF30
:104D60000028D3D1F36863B1B08803A9FEF778FCBB
:104D70000028CBD1094B039A0C2101FB02335B685D
:104D8000F360B088FEF758FC0028BFD1029BAB420D
:104D9000BBD110232360B9E70E20B7E7A01A00208B
:104DA000F7B51C4600230D4617460193064600B38F
:104DB000FCB12368042B02D8092003B0F0BD053BE9
:104DC00023601346012223F8042B01AA04F0ABFD53
:104DD0000028F2D107F1080301AA2946304604F061
:104DE000BCFD0028E9D1019BAB42E5D1052323603E
:104DF000E3E70E20E1E710B586B01C468DF80E10F3
:104E00008DF80F00114612B30BB3002322680593EF
:104E100073238DF813300DF1130005ABCDE90112AA
:104E200004F08EFD88B9DDE9011205AB0DF10F002C
:104E300004F086FD48B9DDE9011205AB0DF10E0065
:104E400004F07EFD08B9059B236006B010BD0E205E
:104E5000FBE71346732204F017BD30B585B0144646
:104E60008DF807000D46C9B1C2B100230393742326
:104E700012688DF80B300DF10B0003AB009204F0BB
:104E80005FFD48B9009A03AB29460DF1070004F015
:104E900057FD08B9039B236005B030BD0E20FBE72A
:104EA0001346742204F0F0BC70B5064686B0144672
:104EB0000D46C9B1C2B100230593792312688DF85C
:104EC00013300DF1130005AB039204F039FD48B91E
:104ED0000090039A05AB2946304604F0B4FE08B9A9
:104EE000059B236006B070BD0E20FBE7F0B587B0D0
:104EF0000D4603921E460746F8B1F3B10023059311
:104F00000A460096792305A904F0A4FC044628B9B2
:104F1000336833B1059BAB4200D00924204607B06B
:104F2000F0BD074B009305AA03AB2946384604F0B1
:104F3000A8FE0028EED00446F0E70E24EEE700BFFE
:104F40002799000030B585B01446ADF806000D462F
:104F5000C9B1C2B100230393782312688DF80B30D6
:104F60000DF10B0003AB009204F0EAFC48B9009A83
:104F700003AB29460DF1060004F0C4FC08B9039BFD
:104F8000236005B030BD0E20FBE71346782204F005
:104F90007BBC000030B589B00D461C46ADF816004C
:104FA00011461AB313B30023226807937E238DF8AA
:104FB0001B300DF11B0007ABCDE9031204F0C0FC60
:104FC00090B9DDE9031207AB0DF1160004F09AFC6D
:104FD00050B9074B0093DDE9031207AB284604F0F4
:104FE00032FE08B9079B236009B030BD0E20FBE7F5
:104FF000B563000013467E2204F046BC30B589B08C
:105000000D461C46ADF8160011461AB313B3002323
:105010002268079375238DF81B300DF11B0007AB39
:10502000CDE9031204F08CFC90B9DDE9031207AB63
:105030000DF1160004F066FC50B9074B0093DDE952
:10504000031207AB284604F0FEFD08B9079B236056
:1050500009B030BD0E20FBE79964000013467522AD
:1050600004F012BC70B50E4686B005461C461146CB
:105070001AB313B30023226805937D238DF81330F0
:105080000DF1130005ABCDE9021204F059FC90B903
:105090000B4B0093DDE9021205AB304604F0D3FD63
:1050A00048B90090DDE9021205AB284604F0CBFDBB
:1050B00008B9059B236006B070BD0E20FBE700BF5A
:1050C00005990000F0B587B0CDE902320C9F0D467E
:1050D000064668B367B3002305930A4600977D230D
:1050E00005A904F0B7FB044628B93B6833B1059B1A
:1050F000AB4200D00924204607B0F0BD4FF6FF7345
:10510000ADF812300B4B009305AA02AB294630468E
:1051100004F0B7FD50B90DF11203009305AA03ABDB
:105120002946304604F0AAFC0028E0D00446E2E715
:105130000E24E0E7279900002DE9FF470C9E8246E8
:105140000F4615461C4653B34EB30023D6F80080D5
:1051500003930DF10C097C238DF80B3042464B462E
:1051600021460DF10B0004F0EBFBA8B9F82D18D87F
:105170000D4B009342464B462146504604F063FDDA
:1051800050B9CDF80090434622462946384604F0EF
:1051900028FC08B9039B336004B0BDE8F0870E20FB
:1051A000FAE70720F8E700BF8D63000013467C2272
:1051B00004F06ABB10B586B01C468DF80D10ADF832
:1051C0000E00114612B30BB3002322680593762319
:1051D0008DF813300DF1130005ABCDE9011204F089
:1051E000AFFB88B9DDE9011205AB0DF10E0004F04B
:1051F00089FB48B9DDE9011205AB0DF10D0004F0A2
:105200009FFB08B9059B236006B010BD0E20FBE78D
:105210001346762204F038BB30B589B00D461C46E3
:10522000ADF8160011461AB313B300232268079392
:1052300081238DF81B300DF11B0007ABCDE9031264
:1052400004F07EFB90B9DDE9031207AB0DF1160007
:1052500004F058FB50B9074B0093DDE9031207AB8C
:10526000284604F0F0FC08B9079B236009B030BD64
:105270000E20FBE7476D00001346812204F004BBBB
:10528000F0B589B00E460E9CADF8160015461946CD
:105290005BB354B300232268079384238DF81B303B
:1052A0000DF11B0007ABCDE9031204F049FBD0B9A7
:1052B000DDE9031207AB0DF1160004F023FB90B9F2
:1052C0000B4F0097DDE9031207AB304604F0BBFC3F
:1052D00048B9DDE90312009707AB284604F0B3FC98
:1052E00008B9079B236009B0F0BD0E20FBE700BFA3
:1052F000656D00001346842204F0C6BA70B50646F8
:1053000086B014460D46C9B1C2B1002305937B2374
:1053100012688DF813300DF1130005AB039204F001
:105320000FFB48B90090039A05AB2946304604F0BC
:105330008AFC08B9059B236006B070BD0E20FBE710
:10534000F0B587B00D4603921E460746F8B1F3B19B
:10535000002305930A4600967B2305A904F07AFAF8
:10536000044628B9336833B1059BAB4200D0092409
:10537000204607B0F0BD074B009305AA03AB2946B2
:10538000384604F07EFC0028EED00446F0E70E24F8
:10539000EEE700BF0F66000070B5064686B0144603
:1053A0000D46D1B1CAB1002305937A2312688DF856
:1053B00013300DF1130005AB039204F0C1FA50B99C
:1053C000074B0093039A05AB2946304604F03BFC9B
:1053D00008B9059B236006B070BD0E20FBE700BF37
:1053E0009964000013467A2204F04EBA2DE9F04188
:1053F00086B0DDE90C45884617461E46ADF80E001E
:10540000002C37D0002D35D00023059386232A6841
:105410008DF81330214605AB0DF11300029204F014
:105420008FFA20BB029A05AB21460DF10E0004F065
:1054300069FAE0B9104B0093029A05AB2146404649
:1054400004F001FC98B90D4B0093029A05AB21467C
:10545000384604F0F8FB50B9094B0093029A05ABAB
:105460002146304604F0EFFB08B9059B2B6006B0DF
:10547000BDE8F0810E20FAE709670000A966000088
:105480004F6700001346862204F0FEB9F0B587B0DE
:10549000DDE90C4517461E46ADF80E008DF80D10DF
:1054A000002C35D0002D33D0002305937F232A68AC
:1054B0008DF81330214605AB0DF11300029204F074
:1054C0003FFA18BB029A05AB21460DF10E0004F01D
:1054D00019FAD8B9029A05AB21460DF10D0004F076
:1054E0002FFA98B90B4B0093029A05AB2146384628
:1054F00004F0A9FB50B9084B0093029A05AB214672
:10550000304604F0A0FB08B9059B2B6007B0F0BD46
:105510000E20FBE7B5630000996C0000F0B587B082
:105520000D4603921E460746F8B1F3B100230593DA
:105530000A4600967F2305A904F08CF9044628B991
:10554000336833B1059BAB4200D00924204607B035
:10555000F0BD074B009305AA03AB2946384604F07B
:1055600090FB0028EED00446F0E70E24EEE700BFE3
:10557000D96C000070B5064686B014460D46C9B118
:10558000C2B1002305936D2312688DF813300DF11D
:10559000130005AB039204F0D3F948B90090039AC5
:1055A00005AB2946304604F04EFB08B9059B236045
:1055B00006B070BD0E20FBE72DE9FF410D46904679
:1055C0001E46074620B90E24204604B0BDE8F081EF
:1055D000002BF8D0002303930A4600966D2303A9FD
:1055E00004F038F904460028EED1336823B1039B58
:1055F000AB42E9D00924E7E7B8F1000FE3D0434616
:1056000003AA2946384601F0E0F80028EFD0044606
:10561000DAE7000070B588B00E460C9CADF81600B5
:10562000154619465BB354B30023226807939023B1
:105630008DF81B300DF11B0007ABCDE9031204F010
:105640007FF9D0B9DDE9031207AB0DF1160004F0C4
:1056500059F990B90B4B0093DDE9031207AB3046C3
:1056600004F0F1FA48B90090DDE9031207AB2846CF
:1056700004F0E9FA08B9079B236008B070BD0E205A
:10568000FBE700BF916F0000F0B587B00D460392B5
:105690001E460746F8B1F3B1002305930A4600966B
:1056A000902305A904F0D6F8044628B9336833B12D
:1056B000059BAB4200D00924204607B0F0BD074B44
:1056C000009305AA03AB2946384604F0DAFA00280D
:1056D000EED00446F0E70E24EEE700BF2570000090
:1056E00030B589B00D461C46ADF8160011461AB308
:1056F00013B30023226807938F238DF81B300DF11D
:105700001B0007ABCDE9031204F01AF990B9DDE9EB
:10571000031207AB0DF1160004F0F4F850B9074B73
:105720000093DDE9031207AB284604F08CFA08B9B0
:10573000079B236009B030BD0E20FBE761700000BD
:1057400013468F2204F0A0B8F0B587B00E460C9C2B
:105750000746154619466BB364B3002322680593C8
:1057600072238DF813300DF1130005ABCDE9021251
:1057700004F0E6F8E0B9104B0093DDE9021205AB46
:10578000384604F060FA98B90C4B0093DDE9021238
:1057900005AB304604F057FA50B9094B0093DDE9E8
:1057A000021205AB284604F04EFA08B9059B2360A7
:1057B00007B0F0BD0E20FBE7419900000D6300002B
:1057C000B16D0000F0B587B00D4603921E46074646
:1057D000F8B1F3B1002305930A460096722305A998
:1057E00004F038F8044628B9336833B1059BAB425E
:1057F00000D00924204607B0F0BD074B009305AA4E
:1058000003AB2946384604F03CFA0028EED00446A3
:10581000F0E70E24EEE700BF5B99000010B4019C96
:10582000A4465DF8044B60472DE9FF411D46002367
:105830000E4690460393074640B33DB32B68272B93
:1058400004D80924204604B0BDE8F081283B2B6031
:1058500013461D2223F8042B03AA04F064F804461F
:105860000028EFD1FDF7C2FE094B009303AA08F10F
:10587000080331463846FFF7D1FF04460028E1D13E
:10588000039BB342DDD128232B60DBE70E24D9E74D
:105890007D690000F7B51C4600230D4617460193AD
:1058A000064600B3FCB12368042B02D8092003B0DC
:1058B000F0BD053B23601346172223F8042B01AAF1
:1058C00004F031F80028F2D107F1080301AA2946B3
:1058D000304604F042F80028E9D1019BAB42E5D103
:1058E00005232360E3E70E20E1E700002DE9FF41F7
:1058F0001D4600230F46164602938046002840D0DE
:10590000002D3ED02B68092B04D80924204604B072
:10591000BDE8F0810A3B2B601346192223F8042BC3
:1059200002AA04F000F804460028EFD1164B0093B9
:1059300002AA06F1080339464046FFF76FFF044606
:105940000028E3D1B08803A9FDF706FE28B1029B29
:10595000BB42DAD10A232B60D8E70C4B0C4A0093E8
:10596000039B242101FB0323404602AA3946FFF78B
:1059700055FF20B9B088FDF7DBFD0028E7D00446CD
:10598000C4E70E24C2E700BF956A0000D96C00008E
:1059900058190020F0B585B01C4600230D46174667
:1059A0000393064610B30CB323680B2B02D80920CF
:1059B00005B0F0BD0C3B23601346122223F8042BE4
:1059C00003AA03F0B0FF0028F2D1094B009303AA09
:1059D00007F1080329463046FFF720FF0028E7D1EA
:1059E000039BAB42E3D10C232360E1E70E20DFE70A
:1059F0004D6C0000F0B585B01C4600230D461746DF
:105A00000393064610B30CB323680B2B02D809206E
:105A100005B0F0BD0C3B236013461F2223F8042B76
:105A200003AA03F080FF0028F2D1094B009303AAD8
:105A300007F1080329463046FFF7F0FE0028E7D1BA
:105A4000039BAB42E3D10C232360E1E70E20DFE7A9
:105A5000696C0000F0B585B01C4600230D46174662
:105A60000393064610B30CB32368052B02D8092014
:105A700005B0F0BD063B236013461A2223F8042B21
:105A800003AA03F050FF0028F2D1094B009303AAA8
:105A900007F1080329463046FFF7C0FE0028E7D18A
:105AA000039BAB42E3D106232360E1E70E20DFE74F
:105AB000356B0000F0B585B01C4600230D46174637
:105AC0000393064610B30CB32368272B02D8092092
:105AD00005B0F0BD283B23601346102223F8042BA9
