:020000040002F8
:10600000D04E00204DB10200C38302006395020010
:106010002B9C0200B7A40200A1B002000000000007
:10602000000000000000000000000000C7B00200F7
:10603000D3B002000000000037B2020039B2020003
:1060400037AE02003BB20200CDB102003DB2020009
:106050003FB2020041B202005D78020043B202008A
:1060600045B2020047B2020049B202004BB2020040
:106070004DB202004FB2020051B2020053B2020010
:1060800055B202002F9A020057B2020059B2020024
:106090005BB202005DB202005B8E02005FB20200E2
:1060A00061B2020063B2020065B2020067B2020090
:1060B00069B202006BB202000000000000000000A4
:1060C0006DB202006FB2020071B2020073B2020040
:1060D00075B2020077B2020079B20200000000003F
:1060E00000000000000000000000000000000000B0
:1060F00000000000000000000000000000000000A0
:10610000000000000000000000000000000000008F
:10611000000000000000000000000000000000007F
:10612000000000000000000000000000000000006F
:10613000000000000000000000000000000000005F
:10614000000000000000000000000000000000004F
:10615000000000000000000000000000000000003F
:10616000000000000000000000000000000000002F
:10617000000000000000000000000000000000001F
:10618000000000000000000000000000000000000F
:1061900000000000000000000000000000000000FF
:1061A00000000000000000000000000000000000EF
:1061B00000000000000000000000000000000000DF
:1061C00000000000000000000000000000000000CF
:1061D00000000000000000000000000000000000BF
:1061E00000000000000000000000000000000000AF
:1061F000000000000000000000000000000000009F
:106200001721018000231B22418003714371827199
:10621000C2717047F8B50446DFF87403DFF87453B1
:10622000451BED080F462D04264684B033463A46FA
:106230000FF2703145F0040000F00CFD0FF29431C4
:106240000FF22C70D0E90023CDE90223ADF80870DD
:10625000D1E90023CDE90023ADF80A706A4602A90E
:10626000204690DF04001FD000F07CFE034645F07E
:10627000010532460FF26431284600F0EBFCBDF810
:106280000000BDF80230002808BF002B05D00246F0
:106290000FF29431284600F0DDFCBDF804201AB15D
:1062A0000FF2C43100F0D0F8204605B0F0BDF8B5CB
:1062B0008C88821D234602EBC3050679AE71C97B2B
:1062C000012904D0022904BF4188298001E0008807
:1062D00028802A886888904226D2DFF8B412DFF836
:1062E000B4628E1BF608360446F004070FF2D03174
:1062F000384600F0AFFC29882046A5DF10B9012000
:10630000687111E0112806D10120287122460FF290
:10631000F031384606E000F025FE02460FF2344127
:1063200046F0010000F090FCA979E879884203D298
:106330002046BDE8F4406DE7F1BD2DE9FE43CD8870
:10634000944FB1F804809249CF1B0446FF0804EB38
:10635000C8003F04861D47F004092B4642460FF251
:106360006441484600F076FC172D33880FF29041C7
:10637000B8BF17259D4228BF1D4675800022327187
:10638000CDF800804846728800F06CFC31884046A9
:10639000B5DF40B100F0E6FD02460FF2A44147F040
:1063A000010000F051FC707940B9206930B10FF262
:1063B000D05100F04CF8708800F0EEF8BDE8F7839B
:1063C0002DE9F8418BB004466846091D2C2200F0E7
:1063D0009BFEBDF800806E486E4DBDF8047004EB66
:1063E000C806451BED0877732D0445F00405727B44
:1063F0000FF27C414346284600F02CFCBDF80620F5
:106400000FF29C4100F020F83A460FF2A84100F04C
:106410001BF8BDF80A200FF2B04100F015F8BDF8E6
:1064200008200FF2B44100F00FF8206948B10FF2D4
:10643000585100F00CF8707B8DF80400204622695A
:1064400090470CB0BDE8F081284600F0FDBBD1E9D3
:106450000023CDE90023ADF802806946704780B57E
:1064600008B90E2002BD01611B2317210180418064
:106470000371801DFFF7C4FE002002BD2DE9FE431D
:1064800007460C46B888002873D14149414D3888E9
:106490004D1BED082D04102845F004090AD01128E1
:1064A0000DD0232842D024283BD03A280BD05528A1
:1064B00032D04EE039462046FFF7F9FE49E0A01DF4
:1064C000FFF79EFE45E07889A71D3988884228BFDE
:1064D00008467880ACA178881728B8BF1720788044
:1064E00000237A88484600F0B5FB206900281CBFCD
:1064F000787900280CD00FF280410020D1E90023E8
:10650000CDE90023ADF802006946788800F044F830
:106510000020787138711CE039462046FFF70DFFE6
:1065200017E039462046FFF74BFF12E03E890FF295
:10653000B831F3B20022484604F1060800F08AFBA5
:1065400098F80610B888F6B2B14288BF3146FFF716
:1065500061FEA07AC8B1E1880020A5DF50B9012111
:10656000A072E1720023E2880FF2BC31484600F0CD
:1065700071FB0AE0112808D000F0F4FC4FEA000299
:1065800074A145F0010000F05FFBBDE8F783000057
:10659000A8AE020098AE0200ADF8040020462269C1
:1065A000104700005570646174696E6720646174FF
:1065B00061206C656E67746820746F202575206F8C
:1065C0006E20636F6E6E656374696F6E2030782520
:1065D000782E0000000000000000000073645F627D
:1065E0006C655F6761705F646174615F6C656E6745
:1065F00074685F75706461746528292028726571FC
:106600007565737429206F6E20636F6E6E65637499
:10661000696F6E20307825782072657475726E65AA
:10662000642025732E000000546865207265717522
:1066300065737465642054582F5258207061636BE1
:106640006574206C656E67746820697320746F6F61
:10665000206C6F6E672062792025752F2575206F5D
:1066600063746574732E00005468652072657175DB
:10667000657374656420636F6D62696E6174696FC0
:106680006E206F6620545820616E6420525820702E
:1066900061636B6574206C656E67746873206973E1
:1066A00020746F6F206C6F6E6720627920257520D3
:1066B0006D6963726F7365636F6E64732E000000A3
:1066C00052657175657374696E6720746F2075709B
:1066D0006461746520415454204D545520746F20DA
:1066E0002575206279746573206F6E20636F6E6EFE
:1066F000656374696F6E20307825782E0000000085
:1067000073645F626C655F67617474635F6578630F
:1067100068616E67655F6D74755F726571756573CD
:10672000742829206F6E20636F6E6E656374696FC5
:106730006E20307825782072657475726E656420DD
:10674000627573792C2077696C6C2072657472792C
:106750002E00000073645F626C655F676174746330
:106760005F65786368616E67655F6D74755F72659C
:10677000717565737428292072657475726E65640D
:106780002025732E00000000415454204D54552004
:106790007570646174656420746F2025752062795A
:1067A000746573206F6E20636F6E6E656374696FBE
:1067B0006E20307825782028726573706F6E73654F
:1067C000292E000050656572206F6E20636F6E6E1B
:1067D000656374696F6E20307825782072657175F5
:1067E000657374656420616E20415454204D545586
:1067F000206F662025752062797465732E00000075
:106800005570646174696E6720415454204D54552D
:1068100020746F2025752062797465732028646563
:1068200073697265643A20257529206F6E20636F45
:106830006E6E656374696F6E20307825782E000067
:1068400073645F626C655F67617474735F657863BE
:1068500068616E67655F6D74755F7265706C7928CD
:10686000292072657475726E65642025732E000090
:1068700044617461206C656E677468207570646132
:1068800074656420746F202575206F6E20636F6EB1
:106890006E656374696F6E2030782530782E000045
:1068A0006D61785F72785F6F63746574733A2025E9
:1068B000750000006D61785F74785F6F6374657454
:1068C000733A2025750000006D61785F72785F74FF
:1068D000696D653A202575006D61785F74785F7425
:1068E000696D653A2025750050656572206F6E20D0
:1068F000636F6E6E656374696F6E203078257820E3
:10690000726571756573746564206120646174617A
:10691000206C656E677468206F662025752062792B
:106920007465732E0000000052657175657374699B
:106930006E6720746F2075706461746520415454D3
:10694000204D545520746F2025752062797465732D
:10695000206F6E20636F6E6E656374696F6E20309A
:1069600078257820287265747279292E000000003D
:106970000000000000000000770A00000000000096
:10698000770A0000000000007ADA00000000000032
:1069900080B5DFF88C05FF21002281600260426033
:1069A00000F21440426002600273DFF8780500F0E4
:1069B000EEFB20B90FF2A05000F093FC002002BDC6
:1069C00030B591B1DFF86025DFF860150568DFF8B4
:1069D0006035511A002200E0521CB2EBD10F06D2F2
:1069E00033F82240AC42F7D10260002030BD0520D0
:1069F00030BD01B56846FFF7E3FF28B9DFF834057D
:106A0000009950F8310002BD002002BD00000000D6
:106A1000491EDFF82025032902EBC0000BD8DFE870
:106A200001F0020406080220704704207047007934
:106A30007047407970470020704702460020136875
:106A4000C3F380029AB103F00300012802D00228A8
:106A500007D00BE00A68C3F38310801C82180A6019
:106A600004E008689B0D9B1C1B180B6001207047FD
:106A7000F8B5DFF8AC4484B004F5836000F082FC24
:106A800004F21445284600F07DFC6068A768009079
:106A90000026009904F10C00394000EB81006946A2
:106AA000FFF7CBFF0028F4D101AB009A04F10C01F1
:106AB0003A4000F0EFF9F8D90199BDF80A0001F069
:106AC000030101290AD002290FD101990646009835
:106AD000890DC91C00EB9100009006E00646019864
:106AE0000099C0F3831041180091284600F04CFC37
:106AF00008B100986060304605B0F0BD80B5002157
:106B0000DFF8340400F0F6FB80F3100002BD2DE93D
:106B1000F84F0446884693461F460A9DDFF80094C6
:106B2000FFF7ECFF09F10C0A7E1C00042E4040EA3E
:106B30001440E4004AF8260004F0380444EA8B14B8
:106B4000C4F3090409F10C0044EA88242F4044F0FE
:106B5000010440F82740BDE8F18F2DE9FC4188464B
:106B600000218DF800101646DFF8B473044668461D
:106B700000F012FC3868C8F80000A51CBA68396833
:106B80007868521C511A411807F21C480FE0012185
:106B9000404600F0DFFBFFF76BFF0146404600F088
:106BA000D9FBB8683968401C411A78684118A94275
:106BB000EDD32EB1A40104F4707444F0050402E096
:106BC000A40544F006043968B868014007EB810267
:106BD000D46039689DF800006D183D6000F0F9FB45
:106BE0000120BDE8F6812DE9FE43DFF83463044659
:106BF0000D4690469946B768012201A94846FFF71D
:106C0000ACFFA8B10198801C002108E007EA00024F
:106C100006EB820258F82130D360401C491C4945DC
:106C2000F4D300974A46019B29462046FFF76FFFA1
:106C300096F8200418B100F021F80028FBD1BDE837
:106C4000F78300230022CEE780B50092012300F0F5
:106C500012F801BDE0B5009201936A460223FFF7E6
:106C6000C2FF07BD1FB5069C009201930294032347
:106C700000F001F81FBD6A46B5E700002DE9F847AE
:106C8000A74E70683168884285B024D006F58267C7
:106C90000020B860BFF34F8F7068B468009006F1B1
:106CA0000C000099214000EB810005E006F10C008A
:106CB00004EA010200EB82006946FFF7BEFE0028ED
:106CC00000F0CB80B868002840F0C7803068009999
:106CD0008142EBD370600020BCE0029965F39F51C4
:106CE000029105F1080100F054FA5FEA000A4ED063
:106CF00000F096FA00F0C8F800982040641C241AAE
:106D0000A40006F10C01AC4201EB800119D234B9A8
:106D1000284606F10C014FF00008002503E020464C
:106D200006F10C082D1BC4B208232246504600F081
:106D3000CCFAB8F1000F09D004F10803EAB24146D9
:106D400001E008232A46504600F0BFFA009809F1F6
:106D5000030100EB9100009039E0029901F003017A
:106D600001295AD10299029AC1F383110529C8BF9A
:106D7000062122F4707242EA811202920299C1F352
:106D80008311891C890000F004FA5FEA000A44D0EC
:106D900000F046FA00F078F84FF008094FF00008CC
:106DA00010E00098411C009106F10C05204005EB15
:106DB00080014B460422504600F087FA09F104098D
:106DC00008F101080298C0F383108045E9D33C68BC
:106DD000B86870B1504600F027FA33E0E0684179B6
:106DE000012904D122681368514620469847E0687B
:106DF0000468002CF2D1504600F016FA00208DF8FD
:106E0000040001A800F0C8FAB86808B900987060DA
:106E10009DF8040000F0DDFA14E03C6805E021680C
:106E20008A6820469047E0680468002CF7D1434800
:106E3000DFF8F82043A1801AC008000440F00200E7
:106E4000FFF7FFFE7068316888420CBF0120002008
:106E500080F0010006B0BDE8F087002002AB009A88
:106E600006F10C01224000F015F8F8D902992D48DE
:106E700001F0030102297FF470AF029DAD0DA94618
:106E8000502DA8BF502528E70023082202A950460C
:106E900000F01BBA51F8221043F82010401C009952
:106EA000491C01280091704730B5024600201C4B58
:106EB000D3F8101400E0096889B1C9680C798442DC
:106EC000F9D1401C0A28F3DB4FF0FF3030BDC96810
:106ED0000D682560D3F81034D9680A6030BD10F110
:106EE000010FFBD0D1680871D3F81014D4680029C1
:106EF000EDD1C3F81024216030BD10B510480468EE
:106F00000121017408E0E16801224A7120462268EB
:106F100051688847E0680468002CF4D110BD000077
:106F20005C24002018B1020010AF020098AE0200ED
:106F30000000000098AE020078280020B8AE0200E1
:106F40006C2800204261636B656E647320666C750B
:106F50007368656400000000C82B00207F000000FB
:106F6000482E002080B500F004F808B90FF23C006C
:106F700002BD10B50FF2480101F5947200E01A4607
:106F800091420FD2531ADB1003EBD3735B1001EB6A
:106F9000C3031C68A042F2D3844238BF03F1080146
:106FA000EED301E0002010BD586810BD556E6B6E29
:106FB0006F776E206572726F7220636F6465000078
:106FC00000000000B8A4020001000000C4A40200F8
:106FD00002000000E4A402000300000008A5020073
:106FE000040000001CA502000500000030A50200FE
:106FF0000600000044A50200070000005CA5020096
:107000000800000074A50200090000008CA5020021
:107010000A000000A8A502000B000000C0A50200A5
:107020000C000000D8A502000D000000ECA5020035
:107030000E00000000A602000F00000010A60200D3
:107040001000000024A60200110000003CA602006F
:10705000120000004CA602001300000064A602000B
:107060008000000078A60200810000009CA60200BB
:1070700082000000B8A6020083000000D4A602002F
:1070800084000000F4A602008500000018A702009A
:107090008600000040A702009000000058A70200F0
:1070A0009100000078A702009200000098A702005B
:1070B00000820000B0A7020001820000D0A70200F9
:1070C00002820000ECA702000084000008A8020071
:1070D000018400002CA802000284000058A80200CD
:1070E0000384000080A8020062B38B0708D0521E00
:1070F00011F8013B00F8013B00F024808B07F6D12A
:10710000830740F0208000BF103A07D330B4B1E8C5
:107110003810103AA0E83810F9D230BC530724BF19
:10712000B1E80810A0E8081044BF51F8043B40F84B
:10713000043BD20724BF31F8022B20F8022B44BFB6
:107140000B7803707047121F17D35B0009D151F8F9
:10715000043B20F8023B1B0C121F20F8023BF6D226
:107160000BE051F8043B00F8013B1B0A20F8023BFE
:107170001B0C121F00F8013BF3D238BF121D521E28
:1071800024BF11F8013B00F8013BF8D8704700F02C
:107190003BB92DE9F04105460F462E8A00F04BF928
:1071A000361F040021D0F71900200121FF1C207197
:1071B0006171A046B7FBF6F7E680FFB27F1EC8F804
:1071C0000050002607E06179491C6171C8F8000091
:1071D00005608046761CBE4209D2284600F02BF995
:1071E0000028F0D1204600F005F8002000E02046FD
:1071F000BDE8F081F8B501460D464C79601E0022CD
:1072000000E0521C2D688242FBD3002605E00F6887
:10721000284600F032F93946761CA642F7D3F1BD74
:107220000121001D00F096B81CB504460121201D67
:1072300000F09CF800909DF8000018B92046BDE8C9
:107240001640D7E713BD2DE9F0471446B0F8068085
:107250004279256846465643361F5F1903F1040CF0
:10726000BE42BCFBF8F234BFF31A2B4608FB12CC2B
:107270002360002A01E00068521EFCD1A8EB0C023A
:107280009A469342089F4FF0000988BF92460E46E7
:1072900005461C46BCB105EB0C00001D06EB0903BE
:1072A000390052460EBF194601461846FFF71CFF2B
:1072B0002D68A4EB0A04D14444454FF0000CA246CB
:1072C000E8D9C246E6E7BDE8F0871CB50192002484
:1072D00002E01CB501920124009401AAFFF7B3FF5C
:1072E00013BD80680021816001614161C16041601E
:1072F0000160704710B5024652E8000F0C4642E8A4
:10730000004393F0000FF7D110BD000010B5024606
:1073100052E8004F44EA010042E8000393F0000FF6
:10732000F6D110BD10B5024652E8000F00EA010484
:1073300042E8004393F0000FF6D110BD10B50246AD
:1073400052E8004F04EA010042E8000393F0000F06
:10735000F6D110BD10B5024652E8004F04EB010013
:1073600042E8000393F0000FF6D110BD10B50246BD
:1073700052E8004FA4EB010042E8000393F0000F35
:10738000F6D110BD0121C1E70021CBE7EFF310805A
:1073900072B6704762B6704738B50446FFF7F6FF1D
:1073A000154A916871B9012393601449144B1D6803
:1073B0000D4015601960596851604FF0FF325A60F6
:1073C000002100E00121217010B9BDE83140E1E762
:1073D00031BD10B5084CA16869B160B9FFF7D6FF9F
:1073E000084922680A6063684B600021A16010B9F7
:1073F000BDE81040CEE710BD882E0020FC06FFBD82
:1074000080E100E000E100E010B508B90E2010BDF9
:107410000368426881681A60891A03E013685C1C7B
:10742000146019700B46591EDBB20268002BF5D1AF
:107430000020107110BD38B5044600258DF80050AD
:107440006846FFF7A9FF21686268086882420ED289
:10745000421E0A601578208AE36845431D44A368EC
:1074600020689A1A03799A4238BF1A460A719DF821
:107470000000FFF7AEFF284632BD38B50C460021AC
:1074800005468DF800106846FFF786FF28680168FA
:107490004A1C0260E8682A8A241AB4FBF2F20A70D5
:1074A0009DF80000FFF795FF31BDF0B4024610686B
:1074B00095681318506803EB5004C0071DD54D4460
:1074C0001BE013F8017B05F8017B491EF9D1A0B13F
:1074D000B60813F8011B06F00306032E08BF13F8C5
:1074E000016B01EB06214942801C294405D011F8AB
:1074F000016B05F8016B401EF9D1A3420ED013F8C1
:10750000016B16F0030104BF13F8011BC91C3009FD
:107510000F28DAD113F8010B0F30D6E7F0BC02F1D7
:107520000C00704700F1804000F5C0400068012861
:1075300018BF0020704700F1804000F5C04081B0C6
:107540000021016000680090009901B0704730B5DB
:10755000039D049C41EA420141EA830141EA05217D
:10756000DFF84C2441EA044142F8201030BD4FF0CE
:10757000A04202EB8000D0F8003723F44033C0F87B
:107580000037D0F8002742EA0142C0F800277047D0
:1075900038B50FF2444425680095034606E05DF8CF
:1075A0002340D4F8104542F8044B5B1C0C18A3424E
:1075B000F5D331BD0246012002F00703D2089840FE
:1075C000895C0840704710B5C20801248B5C00F04C
:1075D000070004FA00F01843885410BDDFF8D413F4
:1075E000084490F93020082A8041C00F7047DFF826
:1075F000C413084490F93020082A01DB01207047A9
:1076000000207047DFF8AC13084490F93020D043D5
:10761000C00F7047DFF8A013D5E7F0B5034614009C
:107620004FF0FF3007BF08240C2500240825DFF8A1
:10763000846300E0641CAC420ED256F8247017F14B
:10764000010FF7D1F01880F8304046F8241012B935
:10765000301980F84830204640B2F0BDDFF85413AE
:107660004FF0FF3241F820200828A4BF081880F806
:107670004820704738B5DFF83C4394F8580008B10B
:10768000082032BDFF22202104F1300000F0A6F9CD
:107690000025E8B2FFF7E2FF6D1CE8B20C28F8DB2A
:1076A00004F1540000210160C021DFF81023DFF84D
:1076B00010331170402018604FF4BE70FFF73BFF8D
:1076C000DFF800134FF000400860012284F85820D2
:1076D000002032BDDFF8DC0290F8580000B1012034
:1076E0007047FEB505460F461646FFF78BFF002490
:1076F00008B1082449E0BA78520802F00102314684
:107700002846FFF78AFF064616F1010F3CD0B878ED
:10771000410717D4C0070AD54FF0A04101EB8500FF
:10772000D0F8001721F00201C0F8001707E000218F
:107730000194009100227B782846FFF708FF284635
:10774000FFF768FFB8783978820713D59E4A9F48BB
:1077500052F82630034042F826302D02090452F830
:10776000263005F4F85501F440310D431D4342F82D
:1077700026500AE08F488219304492F8483043EA94
:10778000811380F8483000E004242046FEBDF8B59F
:107790000E460446874DFFF72AFF2F19B8B197F917
:1077A0003000284490F948000006800F032805D1D6
:1077B00087480068E040C10702D503E0012801D1F5
:1077C000022100E003212046BDE8F440CFE6204638
:1077D000FFF704FFD8B197F930407B4850F82410E8
:1077E00041F0010140F82410A00000F5807000B2C3
:1077F000FFF7A1FE002E1EBF97F9301055F82100AB
:10780000002804D001216F4801FA04F40460F1BD9E
:1078100010B50446FFF7EBFE20B12046BDE810404E
:107820000021A4E62046FFF7D9FE78B161486649F9
:10783000204490F9300051F820205208520041F8BD
:1078400020200121634A01FA00F0106010BD0146BA
:107850005F480068C84000F0010070472DE9FF470D
:10786000002500954FF4807601274FF0080830B2CC
:10787000FFF758FE00281EBF52480068384203D068
:1078800030B2FFF758FE3D437F00361DB8F10108C6
:10789000EDD14FF4BE70FFF745FE50B14FF4BE700E
:1078A000FFF749FE6A4601210020FFF771FE45F00F
:1078B000004528063F4F17D001260024DFF8088135
:1078C0002E420DD058F8240058F8241057F82420E0
:1078D000130005D0090C01F00301C0F30420904708
:1078E0007600641C082CEBD3002D5ED502A9002283
:1078F0004FF0FF300A60019002E0029A009001927E
:107900004FF000090024381990F95000C5B210F169
:10791000010F25F0C00839D001A94046FFF74AFE03
:10792000A0B307EB0800AD0990F9301057F82160BB
:10793000300002D1032D29D101E0032D03D102A98A
:107940004046FFF740FE1A4850F82800000C00F0AF
:10795000030A69464046FFF72DFE18B1BAF1020F3F
:1079600014D102E0BAF1030F10D1032D09D1BAF1FD
:10797000020F0CBF032102214046FFF7F8FD09F179
:107980000109300002D029464046B047641C042C4F
:10799000B9D35FFA89F040B103AA01210020FFF7B3
:1079A000F7FD039800998842A7D1BDE8FF87000042
:1079B00000070050C42C0020182D002006E400E031
:1079C00000E100E00463004010650040FFE0FCFFC0
:1079D00010050050086300400000005062F30F22C1
:1079E00062F31F4200B500BF13009646944610395B
:1079F00028BFA0E80C50FAD85FEA417C28BF0CC031
:107A000048BF40F8042BC90728BF20F8022B48BF05
:107A100000F8012B00BD0000000000000000000085
:107A200018B50FF2A441DFF884430A68A07CA5B022
:107A30003C2100928DF8020016A800F067FA02229D
:107A40008DF8582001218DF85A1006228DF85B2000
:107A50003C2107A800F05AFA0121ADF82C10CDF80E
:107A600030D004F12002E16916A800F0EAFB08B169
:107A700000F098FC616A04F1280207A800F0E1FB1D
:107A800008B100F08FFC182101A800F03FFA002295
:107A9000ADF8102002928DF81820012140228DF8B7
:107AA00019108DF80410039204F11C0101AA04F1CD
:107AB000180072DF08B100F075FC26B010BD00F0B0
:107AC00071BC10B5BA48BB4C041BE408240444F054
:107AD00003042AB1022000F08DFC0FF2103104E003
:107AE000022000F08BFC0FF218312046BDE8104058
:107AF000FFF7A7B8007838B9AC4A508B3B2176DF46
:107B0000002818BF00F04EBC704700F04BBC80B599
:107B1000A64A107E012173DF08B100F043FCBDE8E6
:107B20000240002000F066BC7CB50546A049A14893
:107B30009E4E2B88748B081AC008000440F0030284
:107B4000102B40F004000CD0112B21D0132B31D07E
:107B5000212B35D03B2B45D0522B3DD0562B43D03B
:107B600073BD00BFABA11046FFF76BF8012000F01A
:107B700041FC002000F042FCA988718306F140001E
:107B800000F09CFC08B100F00DFC00F012FE31E0AA
:107B9000A3A11046FFF755F8012000F02FFC4FF687
:107BA000FF70708300F015FE08B100F0FBFBFFF7DB
:107BB000AEFF73BD00230022852120467FDF19E040
:107BC0009BA1FFF73EF800BFC1A00188ADF80010EF
:107BD0006946A8888FDF0DE000230022002120469F
:107BE000B1DF07E097A100E09CA1FFF72AF8A88881
:107BF000132176DF08B100F0D5FB73BD10B50D2859
:107C00000C4615D16A486B4A9AA100F0DDF8674925
:107C1000488B224600F06FFE00281CBF43F2020191
:107C2000884209D008281CBF43F20141884203D092
:107C3000BDE8104000F0B6BB10BD000078B587B0BD
:107C40004FF480410020FEF7A3FE08B100F0AAFB2C
:107C500000F074FE012000F0F3FB00F0AFFF08B16C
:107C600000F0A0FB514C40F23332012104F14C00F2
:107C700000F066FD08B100F095FB00F0FDFF08B1D3
:107C800000F090FB01F094F808B100F08BFB0020AD
:107C900000906946012001F0F5F808B100F082FB80
:107CA000684601F065F908B100F07CFB11208DF801
:107CB0000000112248A168467CDF08B100F072FB89
:107CC00001A90020C1E90000A021ADF80610ADF81F
:107CD000080050224FF4C871ADF80420ADF80A1026
:107CE00001A87ADF08B100F05DFB002104F12C004F
:107CF000FEF7B5FB08B100F055FB00BF73A12E4B9A
:107D00000A680092019301A904F1400000F0C2FB4F
:107D100008B100F047FB294800906946204600F072
:107D200091FD08B100F03EFBFFF77AFE1C2168468A
:107D300000F0ECF8002100914FF4A0224FF4A031A4
:107D400001920291032200218DF80C20ADF80E1053
:107D50008DF8101068461A491A4A0591069201F0EA
:107D6000F3FA08B100F01EFB1148124A48A100F0D6
:107D70002BF8FFF7CCFE05250026304600F04CFB23
:107D80004FF4FA744EA14FF47A4041F00101884754
:107D9000641EF7D1761C022EEFDD6D1EECD1FEF7CE
:107DA0006DFF0028FBD100F074FFF8E77C23002072
:107DB000B8AE020098AE0200BF7A0200C37A020099
:107DC000F57A02000B7B0200801AC008000440F024
:107DD0000300FEF736BF000042656E5F4E6F7264AF
:107DE00069635F426C696E6B790000005265636580
:107DF00069766564204C4544204F4E210000000008
:107E00005265636569766564204C4544204F46465B
:107E100021000000436F6E6E6563746564000000AE
:107E2000446973636F6E6E6563746564000000007F
:107E3000504859207570646174652072657175656C
:107E400073742E004741545420436C69656E74204E
:107E500054696D656F75742E0000000047415454DD
:107E6000205365727665722054696D656F75742E46
:107E70000000000053656E6420627574746F6E209C
:107E80007374617465206368616E67652E0000001D
:107E90004170703A20426C696E6B79206578616D33
:107EA000706C652073746172746564207633202E63
:107EB00000000000000000000000000000000000C2
:107EC0000338FDD8704700002315000000000000B3
:107ED000000030B4002513E050F8042BD30744BF52
:107EE000A9F101039A18091F042942F8045BFAD288
:107EF00013468C0744BF15809B1CC90748BF1D70E3
:107F000050F8041B0029E7D130BC70470022FFF76E
:107F100069BD0870000A4870022070473EB50C46E3
:107F2000054620880930824201D20C203EBD6846B9
:107F30006DDFF0B92188082068541B232088401C7D
:107F40002080062280B20DF101012B5400F004F9CB
:107F50002844FFF7C9F82088801D208080B29DF852
:107F60000010490818BF012129542088401C208096
:107F700000203EBD7CB505460C462978012904BF8A
:107F80006878002801D1072076BD1088861CB3428E
:107F90002ED3012904D169784118891C8B4227D33B
:107FA0001B1A9B1E9BB2ADF800306946168826440A
:107FB000B01C7DDF70BB2878022804D06978BDF83A
:107FC0000060B14205D3BDF800108B42A8BF092163
:107FD0000ADA0821012805D16D78AB42A8BFADF8B7
:107FE000005001DAADF80030BDF80000FF2801D3E1
:107FF0000C2076BD1388401CE0541088401C108073
:1080000080B221541188491C1180BDF8000041182C
:108010001180002076BD2DE9FC470A9CDDF82C90EC
:1080200025889846002706468A46964600231BE088
:1080300020889DF800C084446244914536DB43B9F2
:10804000401C2080012380B208F800A02088401C3A
:10805000208001A82288424464DFE0B920889DF88E
:108060000010411821807F1C3088874215DA716822
:1080700051F8270001900022694601A864DF50B939
:108080009DF800007045EED1002B08BF0222CFE71B
:1080900008F805000020BDE8F687002BFAD02088FC
:1080A000401B401E81B2B1F5807FF1DB0C20F2E76E
:1080B0002DE9FC41089F099C019416460546984607
:1080C00000970222FFF7A7FF38B9019400974346B3
:1080D000102231462846FFF79EFFBDE8F681F8B52D
:1080E0001446064620880D46811D8B4201D20C2085
:1080F000F2BD318806290EDB40F68147B9424FF6C2
:10810000FF7301DB994206D17288062A03DBBA426B
:1081100003DB9A4207D00720F2BD994218BF9A426A
:1081200001D08A42F7D305212954122200F014F815
:108130002A5400F011F829183088FFF7EAFE218848
:108140000818208080B229187088FFF7E2FE218885
:10815000081820800020F2BD2088401C208080B2BA
:10816000704770B5054614460E46A8882188801CC5
:108170004218921C934201D3FF2801D30C2070BDFA
:10818000401C7054FF22FFF7E7FF3254FFF7E4FF73
:1081900031182888FFF7BDFE218808182080AA889A
:1081A0005AB1A96809B9072070BD80B23044FEF702
:1081B0009BFF2188A88841182180002070BD2DE9EF
:1081C000F04100F128080D46D8F80000164698B393
:1081D000002720E03188401C685416223088401C5B
:1081E000308080B22A543088401C308080B22918F8
:1081F0002088FFF78EFE318808183080A2884AB1A7
:10820000A168C9B180B22844FEF76EFF3088A1880A
:10821000081830807F1CF8B298F8041088420DD2FC
:10822000D8F80000FAB20C235A438418A088801CA6
:10823000FF28CFD30C2002E0072000E00020BDE89B
:10824000F0812DE9FE4317460546B7F8008000206F
:1082500005F12C090E46388099F8011031B14246DB
:1082600039463046FFF75AFE002808D1A978B1B147
:108270003888001D80452BD3684679DF00287CD1E3
:10828000398803207054192200F082F83118BDF8A3
:108290000000FFF73EFE3988081838800020E97892
:1082A00071B13888C21C904549B211D302233354AE
:1082B000012200F06DF831543888401C38800020CD
:1082C0006968C1B191F900003988CA1C904501D292
:1082D0000C2052E0022272540A233988491C39804A
:1082E00089B273543988491C398089B270543888EE
:1082F000401C38800020298949B100F040F806224E
:10830000022105F10800FFF7D3FE002835D1298AA4
:1083100041B100F034F80722032105F11000FFF706
:10832000C7FE50BB298B41B100F029F8152214215A
:1083300005F11800FFF7BCFEF8B92C6A2CB100F06B
:1083400023F82046FFF7CBFEB8B96C6A2CB100F0D9
:108350001BF82046FFF705FF78B999F8001029B1FE
:1083600000F012F82846FFF72AFF30B9297821B12A
:1083700000F00AF82846FFF7FDFDBDE8FE83CDF8C2
:10838000048000973346704743463A46314670476B
:108390003888401C388080B232543888401C38807D
:1083A00080B270471FB5694600220023002481E88F
:1083B0001C0002906A46002144F2010001F088F896
:1083C0001FBDFEE730B5039D049C41EA420141EA2E
:1083D000830141EA0521174A41EA044142F820108D
:1083E00030BD012202FA00F0134A09B9506070470B
:1083F0001060704725A2105C0021F2E723A2105CF8
:108400000121EEE710B500242046FFF7F7FF641CBA
:10841000042CF9D310BD00001CA1085C07490A68B0
:10842000012303FA00F020EA02034B601040886049
:108430007047000000070050080500500405005078
:10844000FEB50446E00710D55FF000050FA6002733
:10845000019700970023705D01220121FFF7B2FF11
:108460006D1C042DF4D3FFF7CDFFA0070DD500241C
:1084700007A500200190002100910323285D002220
:10848000FFF7A0FF641C042CF3D3F7BD11121314E3
:108490000D0E0F10002818BF002901D10E207047C3
:1084A0000278DE2A01D10820704709684160DE2287
:1084B00002704FF6FF7343800020704708B90E200A
:1084C00070470278DE2A01D00820704741800020E2
:1084D00070470246107A50B15088002166DF10B113
:1084E000112802D101201072704751680847704767
:1084F0007FB505460C0018BF002D4AD02078DE2835
:1085000047D1A8886188884204BF2046FFF7E1FF71
:108510002888012804D0112834D051280DD07FBDDF
:10852000297A012902BFA8886188884231D10120B7
:1085300020722046FFF7CDFF7FBDA8886188884262
:1085400004BFA879022824D1A87B04281CBF0628D0
:1085500005281ED168461021FFF7D8FC02214FF4F0
:10856000C0768DF80010ADF80460A87B052804BF24
:108570000021ADF80410A8886946B0DF48B16168F1
:1085800088477FBDA8886188884204BF4FF6FF7086
:1085900060807FBD10B59E4BC20703EB500052BFF9
:1085A000F0220F220901047922401143017110BD0C
:1085B00030B5974A136A002100E0491C1478A142A3
:1085C00006DA13F83150A842F7D103EBC10030BDF1
:1085D000002030BD38B504460D46FFF7E9FF0028FE
:1085E0001CBF4268002A04D029462046BDE8384016
:1085F000104731BD2DE9F8430E46DFF8149209EB20
:10860000500180460F795FEAC8704CBF3F0907F000
:108610000F0701200021424600F092FF042F04467C
:108620000D4643D8DFE807F0031318232600002E79
:108630003CD0012100F03CF800228DF80020684673
:10864000FEF7AAFED9E906012043294328E0002EBF
:108650000CBF002102210FE03EB1032100F028F8F9
:1086600001214046FFF7B6FF20E0012104E0EEB90A
:10867000042101E01EB1032100F01AF816E00021E8
:1086800000F016F800214046FFF7A4FF00208DF807
:1086900000006846FEF780FED9E90601A043A94321
:1086A000C9E906019DF80000FEF793FEBDE8F183DD
:1086B00040466FE75648416A00224908283000F0DA
:1086C000AFBA70B50024524D2878844212DA296A74
:1086D00001EBC4063078FFF7BAF87178012918BFAA
:1086E00000214140491E89413078C90FFFF782FFC0
:1086F000641CE9E7D5E906010022914208BF9042D7
:1087000002D0BDE87040D5E770BD10B5C0B2FFF72C
:108710004FFF04462078FFF79AF86178012918BFC7
:10872000002190EA010F01BF3948D0E90623002457
:10873000A34204D1A24202D1BDE81040BAE710BD65
:10874000F8B516460A2E04460D4601D20720F2BDA2
:10875000FEF7C0FF10B9FEF78DFF48BB00220023D3
:1087600000272B484662011D002681E8CC00C0E9A5
:10877000062304620570274E29A72846451EC0B26D
:1087800080B138680090E8B204EBC0018A788DF8B7
:108790000120324614F830006946FEF7A2FF002897
:1087A000EBD0F2BDDFF870201CA0002100F02CFA05
:1087B000F2BD38B50024164D06E02A6A12F83400DE
:1087C0000121FEF7E4FF641C28788442F5D30020E1
:1087D00032BD38B500240E4D05E0296A11F8340089
:1087E000FFF716F8641C28788442F6D300218DF830
:1087F00000106846FEF7D0FD0020C5E906009DF890
:108800000000FEF7E6FD05F1280000F020FA32BD79
:10881000402D00200B870200C3860200682D002037
:10882000030000000288502A02BFC2884B889A4287
:1088300004BF028A012A04D14B6913B1827C80886B
:108840001847704730B58DB004460D6837A1656193
:1088500009A81022FEF758FC04F1120109A862DFF2
:10886000002834D1A17C8DF8021041F22352ADF8DA
:108870000020694622460120A8DF002827D12021B8
:1088800001A8FFF743FB41F2245000F02BF840F021
:10889000120000F01EF88DF8172004F10A0220885B
:1088A00001A900F083FE90B9202101A8FFF72EFB5B
:1088B00041F2255000F016F840F00A0000F009F8E7
:1088C0008DF81620A21C208801A900F06FFE0DB0C3
:1088D00030BD8DF81100ADF80A20ADF808208DF8F4
:1088E00015207047ADF8040001229DF81100A17C0D
:1088F0008DF80610704774B585B00122ADF80020E0
:10890000002301AA00240025002682E87800012324
:108910008DF8063005AB4989ADF804100493CDF805
:108920000CD001A9AEDF06B070BD000023D1BCEAB7
:108930005F782315DEEF12120000000080B500F012
:1089400007FF04210348FEF7AFFA034901204871ED
:1089500001BD00005CB10200D023002038B5DFF873
:10896000F84204F11C0001F053F8D4E9022300217D
:10897000D4E9044510185941A94206D828BFA0429D
:1089800003D2B0F17F4061F1FF3134BDD1E9022360
:10899000D0E902018B4204D301D8824201D30120E5
:1089A000704700207047000070B50446AA4801785F
:1089B0000025012926D1002C1CBF207F002821D0B2
:1089C000FFF7CCFFD4E90223B1EB030FA6A614D323
:1089D00001D8904211D3206900B92577A069616957
:1089E00088472269002A1CBF207F00280AD0D4E9CA
:1089F000020180186941C4E902012146304601F0B4
:108A00004BF80125284670BD97A001F055B82DE917
:108A1000F0478046904D0FF2502A0124002708E0CD
:108A2000002105F11C0000F0E9FF3046FFF7BCFF14
:108A3000AF6150464068006800283FD0A96981B105
:108A4000D0E90201AA69D2E9026291423DD828BF69
:108A5000B0423AD2A869007F18B1A969504601F026
:108A60001BF8FFF7D1FF0646FFF778FF02460B46DB
:108A7000D6E90201821A61EB0303BB42D0DB01DCC1
:108A8000A242CDD3DFF8D4914A4504D905F11C00A8
:108A900000F0BEFF484402464FF49603002105F162
:108AA0001C0000F039FF10B10D28C1D1BDE7A86945
:108AB00010B9404600F0EEFEAE6106E0A86920B9AC
:108AC0004046BDE8F04700F0E9BEBDE8F087000091
:108AD0007CB5044600F08FFF5F4D38B1D5E9020147
:108AE000B0F17F4261F1FF33C5E902230021204646
:108AF00000F089FF00281CBFA869002804D0A869DD
:108B0000FFF752FF0020A8610121204600F07BFF03
:108B100018B1FFF723FFC5E9040100F030F800BFEA
:108B200051A60EE04168087F20B901220A7730463D
:108B300000F0B2FF694605F17C0001F043F800F057
:108B40001EF8C0B101780029ECD002290CD0F1D276
:108B50004168A869814207BF0021A961304600F041
:108B6000B2FFE7E700220277FFF74EFF0028F9D1B6
:108B700001202870DEE72046FFF749FF73BD6946F4
:108B800005F17C0000F0F2BF7CB504460D46324E84
:108B9000694606F17C0000F0B7FF68B104704560DB
:108BA000694606F17C0000F0D1FF18B106F11C0007
:108BB00000F032FF002076BD042076BD1CB500BF5A
:108BC0002CA0254C016800910823582204F12401AF
:108BD00004F17C0000F084FFA8B9214A694604F141
:108BE0001C0000F013FE70B9012104F11C0000F01C
:108BF000FFFE01231B4A012104F11C0000F053FE7B
:108C000001202070002016BD130001D107207047FD
:108C10000068012918BF00214261016100207047EE
:108C2000D0B504460E46207F08B10020D0BDA26119
:108C30000027FFF793FE80197941C4E902012069FA
:108C400000B126612146BDE8D04000209CE70146E6
:108C500000200877012097E7F0220020FFFFB400F2
:108C6000D18A0200FFFF7F0000000000C02E00201C
:108C70008D8902000100060080B515480021417071
:108C80000161BFF35F8F001D13A100F0BCFF002046
:108C900002BD80B500218DF800106846FEF77CFB10
:108CA000F1EE100A20F09F00E1EE100ABFF35F8F93
:108CB0000849402008609DF80000FEF78AFB00F09C
:108CC000ABF808B141DF01BD20BF40BF20BF01BDEF
:108CD000742E002084E200E044B002005CB0020088
:108CE000040000002028014604DA4D48C84000F086
:108CF00001007047402808DA0122A1F1200012FA91
:108D000000F018BF0120C0B270470120704700007A
:108D10001FB5044651A1684600F075FF02E06846A1
:108D200000F075FF029A3AB15168126820469047E8
:108D30000028F4D1112000E0002004B010BD000094
:108D40001FB5044648A1684600F05DFF06E0516883
:108D5000126820469047684600F059FF029A002AA0
:108D6000F5D11FBD80B51620FFF7BCFF28B942F230
:108D70000100BDE80240FFF715BB2A480078400912
:108D8000082803D2EC21C140C80702D442F20200F5
:108D9000EFE72549886820B10A6842F480020A603A
:108DA00001BD2249FFE74FF48000086001BD0000CB
:108DB0003EB51F4D287808B108203EBD0120A8709F
:108DC0000020FFF7A5FF11281FD00020FFF7B8FFF4
:108DD0002BA10A68019200238DF800306846FEF747
:108DE000DBFA144901A810DF0446401E8041C00F81
:108DF00000F00DF80CB120463EBD0020A870687050
:108E0000FFF7B0FF0120FFF79BFF00203EBD287059
:108E10009DF80000FEF7DDBA0548007870470000B5
:108E2000FC06FFBD16E400E0882E002000E100E013
:108E3000C42E0020D1940200E0B500BF0DA1684609
:108E400000F0E1FE05E0486809688847684600F0E0
:108E5000DEFE02990029F6D107BDEDE7B4AF0200AE
:108E6000C4AF020008000000C4AF0200D4AF02008B
:108E700008000000D4AF0200E4AF020008000000C8
:108E8000010000073EB50C0001D10E203EBD664931
:108E900021606A4600210023002582E82A00012182
:108EA00006238DF800008DF80210ADF804306946F5
:108EB00022685E4D202069DF5D494D1BED082D04C1
:108EC00045F0010528B1FEF74DF802465BA100F020
:108ED00044F800F045F80121ADF802208DF80110AA
:108EE00069462268402069DF28B1FEF73BF8024658
:108EF00064A100F032F800F033F80A218DF8001078
:108F000069462268012069DF28B1FEF72BF8024686
:108F10006FA100F022F800F023F84FF4B061009147
:108F200069462268A12069DF28B1FEF71BF80246D6
:108F30007AA100F012F800F013F88DF800106946DD
:108F40002268A02069DF30B1FEF70CF84FEA00027A
:108F500087A100F002F800203EBD2846FDF774BE50
:108F6000684600210022002380E80E0070470000C0
:108F70002DE9F04106462E4937682C4D60DF044646
:108F80004D1BED0830682D04874217D245F00208CA
:108F90008CA14046FDF755FED6F8003095A13A4623
:108FA0004046FDF757FE23489FA1026830689202B1
:108FB00002F10052121A4046FDF746FE1CB91E4946
:108FC0000120087009E02046FDF7CCFF4FEA0002BF
:108FD000A0A145F00100FDF737FE2046BDE8F08175
:108FE000154900B5087891B080B903E0052818BF8D
:108FF000FFF7D8F911B000BD5168126804A8904776
:1090000001A800F004FE039A002AF5D13420ADF83F
:109010000000694604A861DF0028E7D195A101A8F6
:1090200000F0F1FDEFE70000F022002098AE020012
:10903000D0AE02000C010010C82E002073645F62E5
:109040006C655F6366675F73657428292072657459
:1090500075726E6564202573207768656E20617473
:1090600074656D7074696E6720746F207365742009
:10907000424C455F434F4E4E5F4346475F4741502A
:109080002E00000073645F626C655F6366675F73E8
:10909000657428292072657475726E656420257365
:1090A000207768656E20617474656D7074696E6791
:1090B00020746F2073657420424C455F4741505FB8
:1090C0004346475F524F4C455F434F554E542E0029
:1090D00073645F626C655F6366675F73657428299C
:1090E0002072657475726E656420257320776865DB
:1090F0006E20617474656D7074696E6720746F2082
:1091000073657420424C455F434F4D4D4F4E5F4356
:1091100046475F56535F555549442E0073645F625E
:109120006C655F6366675F73657428292072657478
:1091300075726E6564202573207768656E20617492
:1091400074656D7074696E6720746F207365742028
:10915000424C455F47415454535F4346475F415437
:1091600054525F5441425F53495A452E000000005B
:1091700073645F626C655F6366675F7365742829FB
:109180002072657475726E6564202573207768653A
:109190006E20617474656D7074696E6720746F20E1
:1091A00073657420424C455F47415454535F4346B6
:1091B000475F534552564943455F4348414E4745F3
:1091C000442E0000496E73756666696369656E7446
:1091D0002052414D20616C6C6F6361746564206640
:1091E0006F722074686520536F6674446576696396
:1091F000652E00004368616E6765207468652052C3
:10920000414D207374617274206C6F636174696F77
:109210006E2066726F6D203078257820746F203054
:109220007825782E000000004D6178696D756D20FD
:1092300052414D2073697A6520666F7220617070AB
:109240006C69636174696F6E20697320307825786A
:109250002E00000073645F626C655F656E61626C16
:109260006528292072657475726E65642025732ED9
:1092700000000000F0AF020010B002000800000083
:1092800090490A89824202D101F10800704700200A
:109290007047F0B586881746BC19B24228BF3746DA
:1092A000F51BC2881F4607EB020C934228BF1746E6
:1092B000D61B4A8803889A4224BF4088904209D32B
:1092C0008888A84228BF844204D3C888B04228BFF7
:1092D000844501D20020F0BD0120F0BD7A498969A2
:1092E000002918BF0847704738B5044680B2FFF719
:1092F000C7FF020027D0744D107A297B88420DD217
:1093000002F10A01A0B275DF20B111281BD0FFF7CE
:10931000E5FF31BD107A401C107231BD0021117281
:10932000287C38B13B21A0B276DF00281CBF08287A
:10933000FFF7D4FF696931B100228DF80020ADF844
:1093400002406846884731BD70B5040001D10E2047
:1093500070BD5D4E304621461C22FDF7D5FE594DAD
:1093600035602068A8B17ADFB8B92168284608229C
:10937000FDF7BAFE4FF6FF7005F120012881E96084
:1093800005F10C00514A0021FFF73EFC28B10320F3
:1093900070BD28467BDF0028ECD070BD80B502464A
:1093A0000B464949587A58B9187A002858680CBFB2
:1093B00049688968FFF734FC68B1FFF78FFF01BD8A
:1093C00000201872496931B101238DF80030ADF8E1
:1093D00002206846884701BD2DE9F84306463A4F0A
:1093E0003088102840F2F3184FF6FF7506D0112888
:1093F00029D0122850D0502832D061E0F07BB6F846
:10940000049001285CD12846FFF73AFF040008BF0A
:1094100004203ED0A4F8009000202072082204F11D
:109420000A002849FDF760FE2B46424606F110016E
:1094300004F10A00FFF72DFF6072F88900283FD180
:109440002146484639E0B088FFF71AFF040037D0BC
:109450006068FFF7FCFB08B1FFF740FF25802FE0B5
:10946000F088F989884204BF308A022828D1B5885B
:109470002846FFF705FF040022D006F1120000F095
:1094800077F810B12146284617E06068FFF7DFFB48
:10949000B0B1BDE8F24321E7B7883846FFF7F0FEE8
:1094A00004000DD02B46424606F1080104F10A00E3
:1094B000FFF7EFFE607221463846BDE8F4436DE7E2
:1094C000BDE8F183882D0020202D0020E9920200C4
:1094D00010B572B6FDF711FDFDF7D0FB0028FBD1EA
:1094E0001048114C1149041BE408240444F0010005
:1094F000FDF7A7FB0E480168CA0700D500BE0D495D
:1095000044F00200FDF79DFBBFF34F8F0A490B4863
:109510000A6802F4E06202430A60BFF34F8F00BFA3
:10952000FDE700BFB8AE020098AE0200E0B0020056
:10953000F0ED00E0ECB002000CED00E00400FA05F4
:10954000D2B2203A22BF00FA02F100207047524204
:10955000D041D2F1200291404140D0409040414062
:109560007047FEE701460878497840EA01207047D5
:1095700080B5FFF7F7FFFFE700F0010002BD000034
:10958000401E002204280A700FD8DFE800F003050F
:1095900007090C00112007E0212202E0312003E03E
:1095A00012220A707047222008707047F8B50F46E3
:1095B00090B00546B878002806BF01218DF80E103E
:1095C0008DF80E003888ADF80C001646032101A86E
:1095D000FEF79CFC787C01A9FFF7D2FFB87C0DF167
:1095E0000501FFF7CDFF9DF80610FA7B00F0A6F805
:1095F0008DF8061001F0EF013A7C02B1012241EA38
:1096000002118DF8061001F0FE01387B00B1012037
:1096100001438DF8061001F0F901387D002814BFD0
:109620000220012041EA40018DF8061009A81C2102
:10963000FEF76CFC787B10F0300F15D0032102A8E8
:10964000FEF764FCF87C0DF10901FFF799FF9DF826
:109650000A1001F0F90141F002018DF80A10112001
:1096600002A98DF808000E91787B8DF8240004A8DB
:10967000B97B8DF825101421FEF748FC03A901AA37
:1096800004910592B888ADF81C00B86818B1FA8842
:10969000ADF818200890BC69002C3FD00321684623
:1096A000FEF734FC2088ADF82C006088ADF82E0061
:1096B00061680A91CDF834D06946207BFFF760FFDE
:1096C000B869407B0DF10101FFF75AFFB869807A54
:1096D00000B101209DF8021001F0F70141EAC0013C
:1096E0008DF80210B869C07A00B1012001F0EF01D5
:1096F00041EA00118DF80210B869007A00B101202A
:1097000001F0FE0100F014F8BA69907B002814BF44
:109710000220012041EA40018DF80210F86900B1F1
:109720000C90334604AA09A92846AADF11B0F0BD5F
:1097300001438DF8021001F0F901704701F0F701C3
:1097400002B1012241EAC20170470000000000009E
:1097500000F01CBB2DE9F8431500894621D04FF0DD
:1097600000080326144F2A4609EB0801002000F0E8
:10977000E4FA80442D1A68B9387890B1012400BF0A
:1097800013A14FF47A4041F001018847641EF6D1DD
:10979000761E04D00120002D3870E4D101E00021B4
:1097A0003970BDE8F18380B5044A00924023044A31
:1097B00000F0FAFA01BD0000C72E00205597020004
:1097C000C82D002070477047000000000000000016
:1097D0000338FDD8704700000000000000000000C2
:1097E00028B100BFAAA1800141F0010108477047DC
:1097F00000EB8100C0F84025704781B00022425044
:1098000040580090009901B07047000070B543794E
:10981000894C8A4E04EB8305231DAA604579884A4A
:1098200013F83530B21AD208120433B189A142F0CC
:109830000200FDF706FA082070BD05680B88C5F820
:109840000835897890F904304901002B06D57D4D03
:1098500003F00F032B4403F8041C01E07A4EF1548B
:10986000012590F90430794E03F01F018D405B090A
:1098700046F82350211D4379012501F833504179E1
:1098800044F8310042F003007BA1FDF7DAF9002033
:1098900070BD00000068012101607047006801216F
:1098A00040F8041F70472DE9F04106460F46306826
:1098B0004FF4803500F542719046BD400D60BA000E
:1098C0000D6402F5A0721C4611B2FFF796FF3068D6
:1098D00028F07F423946FFF78BFF306800F5417072
:1098E000056404B10560BDE8F081006800F54170D1
:1098F000016402B101607047006800F542700164C4
:109900000160704780B5006842581AB1FFF775FFD3
:10991000012002BD002002BD2DE9F84F88464FF41A
:10992000803101FA08FA0546994622F07F445146F3
:10993000FFF7E2FF2868D0F8047500EB88013A468B
:10994000D1F840B541464FEA8806FFF751FF06F5CA
:10995000A076286831B2FFF750FFABEB070727F07E
:109960007F47012F06D11020FFF73AFF286831B258
:10997000FFF743FF2868D0F80475C0F844A3E11B43
:10998000661C21F07F41012913D132464146FFF781
:109990002FFF1020FFF724FF2868D0F80405874226
:1099A00024D1012251462846FFF79FFF0020BDE841
:1099B000F28F22464146FFF71BFF2B68D3F8047550
:1099C000641EE41B6FF07F4124F07F44A1EB09008B
:1099D000A0420BD3002CE4D1324641461846FFF793
:1099E00007FF2868D0F804058742DAD00D20DEE7AB
:1099F0000A46022179E74FF4827183E74FF48032FF
:109A000002FA01F178E7890001F5A07109B279E75E
:109A10000068D0F80405704790F904100C4B01223F
:109A200001F01F008240490943F821207047024994
:109A30000868896808470000942E0020A0AE020044
:109A400098AE020018ED00E000E400E000E100E064
:109A500000E200E052544320696E7374616E6365E6
:109A600020616C726561647920696E697469616CEA
:109A7000697A65642E0000005254433A20696E6989
:109A80007469616C697A65642E0000000000000052
:109A90000338FDD87047000070B504460D4666686F
:109AA000306828B1A2682946904708B13668F7E7C0
:109AB00030682860356070BD4268116808001CBFBE
:109AC00009681160704702460020536800E01346A1
:109AD0001A6822B18A42FAD10868186001207047DA
:109AE00050B509B90E2050BD144694FBF3F603FBA4
:109AF00016440CB1092050BD016084600021416012
:109B00008281C381002050BD3CB550E8015FAAB2FC
:109B1000C3891A4483899A4228BFD21A03899A4278
:109B200002BFBFF32F8F002407E0C2EA050240E81E
:109B30000123002BE9D14FF0010400F03AF81AB1EB
:109B400000680988084436BD002036BD0A88498867
:109B50008A4209D150E8011FC1EA014140E80112DF
:109B6000002AF7D101207047002070473CB550E82B
:109B7000025F1FFAA5F2C3889A4202BFBFF32F8F7C
:109B800000240DE0C3891A4483899A4228BFD21A5F
:109B9000C5EA024240E80223002BE8D14FF001045D
:109BA00000F007F81AB100684988084436BD002063
:109BB00036BD01958DF80040019B0B609DF800209B
:109BC000704700000A8849888A4209D150E8021F7C
:109BD000C1EA214140E80212002AF7D10120704772
:109BE0000020704705E00A684B689A4209D10831A5
:109BF00041600268416853689942F4D10021816054
:109C0000704782607047016009684160EAE78168D7
:109C100051B103689A68511842688160536899424B
:109C200002D102F10801F0E77047FEE710B5DFF856
:109C3000604102202061606104F17801E1614FF42C
:109C400000720FF25010A06122620021A162E16255
:109C5000A064002204F51E7010216262E064216598
:109C6000A265626548A1E265E31D08680FF2301144
:109C7000186007222046FDF747FA2023A37110BD84
:109C80002DE9F84305468846EE6814464FF0000972
:109C90002F69A868801BBE4234BFBF1B3F187F1EC0
:109CA000874228BF0746A742686888BF27463A46CA
:109CB00041468019FDF718FAA968E41BBE198E42C7
:109CC00008BF0026002CB944B844EE60E0D14846F5
:109CD000BDE8F2832DE9F0410446E768A5686068B5
:109CE0001646ED1BAE428846384403D2FDF7FCF918
:109CF000F61909E02A46FDF7F7F9761B6068324647
:109D000008EB0501FDF7F0F9E660BDE8F0810146DA
:109D10000869CA68824204D38968491E8A1A801871
:109D20007047801A401E704715461821DFF86020E2
:109D30004843104400F11806704770B50C46FFF711
:109D4000F3FF72691AB1022A13D006D318E0304625
:109D5000FFF7DDFFA84206D212E03046FFF7D7FF3B
:109D6000A84298BF05462A4621463046FFF7B2FF73
:109D700007E02A4621463046FFF782FF054600E00D
:109D80000025284670BD0000525454004EE70000E4
:109D9000802800205465726D696E616C00000000BF
:109DA0005345474745520000F0B595B00D461A9C03
:109DB00016461F462846FDF733FA09A81821FEF774
:109DC000A5F809960A970E940023082201A92846AF
:109DD000FDF77FFA0398BDF80A1004900826BDF835
:109DE0000800ADF8140000220198ADF8161000F03C
:109DF000030001288DF8192017D10198019CC0F3A8
:109E0000C2008DF8180008230198C0F38316B20031
:109E10000FA92846FDF75DFA09A8009004AB324669
:109E20000FA9A00A00F06EF81FE0019800F00300EF
:109E300002281AD10198019CC0F3C200A40D8DF82C
:109E400018000827082C98BF274633463A4607A92A
:109E50002846FDF73EFA09AB04AA394607A800F0E8
:109E600099F8BE19E41B002CEBD12846FDF7DCF96C
:109E700015B0F0BD7CB504460D46E3884BB100BF7C
:109E80000FF2D8160FF2DC1278A10096284600F0E7
:109E90000FF9217A05291CD0607A6F4E48B1A0884D
:109EA000FCF7B6FD06EB800065A14269284600F08C
:109EB000FFF8A0880021FCF79CFD0346207A56F8A5
:109EC000202028460DF1080DBDE870406DA100F07E
:109ED000EFB873BD38B50C46017A052959A507D0EE
:109EE000407A30B15DA256A1204600F0E1F800E0D2
:109EF0001AB12946204600F0DBF82046BDE8324082
:109F000000F0CAB82DE9F84384B017460C9D2E7BAB
:109F1000002281460C4698462A7329464046FFF7A0
:109F2000A9FF062F2CD8DFE807F004090F1A211625
:109F30001D004946284600F0BBF821E0226849464A
:109F4000284600F0B5F81BE06368226849462846B9
:109F500000F0AEF814E020690290E1680191A06879
:109F6000009007E06069039021690291E068019028
:109F7000A1680091636822684946284600F098F875
:109F8000002229464046FFF7A5FF2E7305B0BDE825
:109F9000F08300002DE9FC4B8946B9F1080F054616
:109FA00098464AD80092002298F80CB038A688F853
:109FB0000C2041460098FFF75DFF002722A44F4583
:109FC00005D2EA5D3146404600F072F803E02146D2
:109FD000404600F06DF87F1C082FF0D31BA14046CF
:109FE00000F066F800261AA71AA401954E4516D26D
:109FF0000198855D7F2D0BDAA5F120005F2808D33D
:10A00000284600F069F820B9284600F06FF800B93A
:10A010002E252A462146404600F04AF803E03946FC
:10A02000404600F045F8761C082EDFD30122009848
:10A030004146FFF74FFF88F80CB0BDE8F38B0000F6
:10A04000257300000D0A0000202020007C00000085
:10A050002000000025630000D82300201B5B306D2A
:10A06000000000001B5B313B33316D0025734C6FEA
:10A0700067732064726F70706564202825642925D9
:10A08000730D0A003C25733E2025733A2000000022
:10A09000202530327800000010B50446A2682AB1AD
:10A0A00021682069636998470020A06010BD000006
:10A0B000002900D170470CB438B500BF05A31C6857
:10A0C000009404AD00956A4600F0D0F831BC5DF80C
:10A0D0000CFB00000000000010B5044600F0CBF9B6
:10A0E000014620460969BDE81040084710B50446FE
:10A0F00000F0C1F901462046C969BDE81040084793
:10A1000038B50D4604460A2D04BF0D21FFF7F8FFB0
:10A11000A068411CA160226815546068814204D384
:10A120002046BDE83240FFF7B7BF31BD2DE9F84FFB
:10A130008B460124154602E0B1FBF5F1641CA942EF
:10A14000FAD29A460B9FD146A24538BFA146804617
:10A150000A9CF8070BD454B1B8070BD42026A145AC
:10A1600005D2314600F05EF9641E002CF7D12E4670
:10A17000012507E0BAF1000FF0D13026EFE7AAF190
:10A18000010A7543BAF1010FF9D8BBFBF5F0B042F3
:10A1900028BF7543F9D200BFA3A1BBFBF5F005FBB7
:10A1A00010BB095C00F03EF9B5FBF6F5002DF2D1CD
:10A1B000F80707D534B1A14504D200F032F9641E86
:10A1C000002CF8D1BDE8F18F2DE9FC470E0048BF07
:10A1D00049420125904602E091FBF8F16D1C414592
:10A1E000FADA9A460A9C0B9FD146AA4538BFA9467F
:10A1F00024B1002E01D4790700D5641E0546B807A6
:10A2000002D5BAF1000F0BD0F80709D444B1A1452B
:10A2100006D220212846FFF773FF641E002CF6D1DA
:10A22000002E02D576422D2102E0780703D52B219E
:10A230002846FFF765FF07F00300022808BFBAF1C0
:10A24000000F09D144B1A14506D230212846FFF7BD
:10A2500057FF641E002CF6D10197009453464246E6
:10A2600031462846FFF762FFBDE8F3872DE9FE433C
:10A270000D008046174600F0C78015F8011B002925
:10A2800000F0BA80252940F0B180002602E046F0B7
:10A2900001066D1C29782B2907D02D29F7D03029EC
:10A2A00008BF46F00206F4D0B0E046F00406F0E73E
:10A2B0002978A1F130020A2A0CD200FB04146D1C8B
:10A2C000303C2A29F4D1396839606D1C51F8042BCF
:10A2D00039601419297800232E290BD16D1C04E054
:10A2E00000FB03116D1CA1F130032978A1F13002AC
:10A2F0000A2AF5D3287801E015F8010F6C2818BF59
:10A300006828F9D025286CD0582822D063280CD092
:10A31000642818BF69280FD070284CD073281ED02D
:10A32000752812D0782814D05EE03868386050F86C
:10A33000041B3860C9B255E0386838600A2200F062
:10A340006AF84046FFF740FF4EE0386838600A225E
:10A3500002E038683860102200F05DF83DE03868AF
:10A36000386050F8049B38600020F10751D4B9F1EF
:10A37000000F1CBF484600F083F8064610E000F0CE
:10A3800051F8761C19F8011B0800F8D1A6422BD20F
:10A3900054B300F046F8641EF8E700F042F8641E7B
:10A3A000A64201D2002CF8D119F8011B08001BD0DD
:10A3B00000F038F8F8E738683860302150F8044B7E
:10A3C000386000F02FF8782100F02CF80821009177
:10A3D000002001900823102221464046FFF7A6FEE8
:10A3E00002E0252100F01EF86D1C01E000F01AF8D3
:10A3F000287800287FF441AF98F80C0020B140463F
:10A40000BDE8FE43FFF748BEBDE8F78300240A20FD
:10A4100057E70026B6E750F8041B38600196009411
:10A420007047202140466BE63031323334353637C1
:10A430003839414243444546613807E005E0A0F120
:10A4400061011A2901D20120704741381A28804140
:10A45000C00F7047A0F121010F290AD3A0F13A02E1
:10A46000062A06D9A0F15B01062902D37B3804280D
:10A47000EDE70120704701487047000014240020D8
:10A4800000F10103810704D010F8011B820781B19C
:10A49000FAD10268A2F10131914311F0803104BF79
:10A4A00050F8042FF6E709BAB1FA81F100EBD100B8
:10A4B000401CC01A7047FEE74E52465F5355434357
:10A4C000455353004E52465F4552524F525F5356CA
:10A4D000435F48414E444C45525F4D495353494EAA
:10A4E000470000004E52465F4552524F525F534F55
:10A4F00046544445564943455F4E4F545F454E418F
:10A50000424C4544000000004E52465F4552524FB7
:10A51000525F494E5445524E414C00004E52465FE8
:10A520004552524F525F4E4F5F4D454D0000000067
:10A530004E52465F4552524F525F4E4F545F464F08
:10A54000554E44004E52465F4552524F525F4E4F59
:10A55000545F535550504F52544544004E52465F3D
:10A560004552524F525F494E56414C49445F50410B
:10A5700052414D004E52465F4552524F525F494E36
:10A5800056414C49445F5354415445004E52465F36
:10A590004552524F525F494E56414C49445F4C45DB
:10A5A0004E475448000000004E52465F4552524FFD
:10A5B000525F494E56414C49445F464C4147530017
:10A5C0004E52465F4552524F525F494E56414C499A
:10A5D000445F4441544100004E52465F4552524F41
:10A5E000525F444154415F53495A45004E52465FC1
:10A5F0004552524F525F54494D454F55540000004B
:10A600004E52465F4552524F525F4E554C4C0000E1
:10A610004E52465F4552524F525F464F5242494456
:10A6200044454E004E52465F4552524F525F494E8E
:10A6300056414C49445F4144445200004E52465FEB
:10A640004552524F525F4255535900004E52465F99
:10A650004552524F525F434F4E4E5F434F554E54FB
:10A66000000000004E52465F4552524F525F524525
:10A67000534F5552434553004E52465F4552524F39
:10A68000525F4D4F44554C455F4E4F545F494E49C4
:10A690005449414C495A4544000000004E52465F1F
:10A6A0004552524F525F4D555445585F494E49549B
:10A6B0005F4641494C4544004E52465F4552524F19
:10A6C000525F4D555445585F4C4F434B5F4641498F
:10A6D0004C4544004E52465F4552524F525F4D55D5
:10A6E0005445585F554E4C4F434B5F4641494C458E
:10A6F000440000004E52465F4552524F525F4D5546
:10A700005445585F434F4E445F494E49545F46415C
:10A71000494C4544000000004E52465F4552524F9E
:10A72000525F4D4F44554C455F414C524541445951
:10A730005F494E495449414C495A45440000000084
:10A740004E52465F4552524F525F53544F5241470B
:10A75000455F46554C4C00004E52465F4552524FA5
:10A76000525F4150495F4E4F545F494D504C454DEB
:10A77000454E5445440000004E52465F4552524FEC
:10A78000525F464541545552455F4E4F545F454ECA
:10A7900041424C45440000004E52465F4552524FE4
:10A7A000525F494F5F50454E44494E4700000000FC
:10A7B0004E52465F4552524F525F4452565F545775
:10A7C000495F4552525F4F56455252554E00000068
:10A7D0004E52465F4552524F525F4452565F545755
:10A7E000495F4552525F414E41434B004E52465FD6
:10A7F0004552524F525F4452565F5457495F45523B
:10A80000525F444E41434B004E52465F4552524FB9
:10A81000525F424C455F495053505F52585F504B16
:10A82000545F5452554E4341544544004E52465F86
:10A830004552524F525F424C455F495053505F431F
:10A8400048414E4E454C5F414C52454144595F454D
:10A8500058495354530000004E52465F4552524FE0
:10A86000525F424C455F495053505F4C494E4B5FDD
:10A87000444953434F4E4E45435445440000000065
:10A880004E52465F4552524F525F424C455F4950CF
:10A8900053505F504545525F52454A4543544544E5
:10A8A0000000000030B598480178062904BF0179FE
:10A8B00011F00F0F11D1816801F0F002302A1FBF93
:10A8C00001F0F003402B01F0F001502905D18F4930
:10A8D0008F4B0A68C2F3042119600178062904BF6E
:10A8E000017911F00F0F02BF017A01F0F001302958
:10A8F00002D1884A884911600378884A8849062B22
:10A9000004BF037913F00F0F0FD1836803F0F00435
:10A91000302C1FBF03F0F005402D03F0F003502B47
:10A9200003D10B68C3F3423353600378062B04BF93
:10A93000037913F00F0F02BF037A03F0F003302BFB
:10A9400004D1784B1C6824F080741C600378062BBB
:10A9500004BF037913F00F0F10D1836803F0F004E4
:10A96000302C1FBF03F0F005402D03F0F003502BF7
:10A9700004D16D4B00241C605C6014600478062CCC
:10A9800004BF037913F00F0F06D1037A03F0F0032D
:10A99000302B04BF032393660278062A04BF027992
:10A9A00012F00F0F02BF027A02F0F002302A08D133
:10A9B0005E4A0523136001249467002595603F23B8
:10A9C00053600278062A04BF027912F00F0F02BF0B
:10A9D000027A02F0F002502A23D1554B554A1C68E6
:10A9E00014605D6855609C689460DD68D5601C6982
:10A9F00014615D6955619C691462DD6955621C6A68
:10AA000094625D6AD5629C6A1463DD6A55631C6B4F
:10AA100014645D6B55649C6B9464DD6BD5641B6C36
:10AA200013650278062A04BF027912F00F0F10D1C5
:10AA3000826802F0F003302B1FBF02F0F004402CBC
:10AA400002F0F002502A04D149693B4A01F04F015B
:10AA500011600178062904BF017911F00F0F12D19E
:10AA6000806800F0F00130291FBF00F0F002402A9A
:10AA700000F0F000502806D130480168CA0744BFF2
:10AA80006FF0010101602E480268062A04BF406889
:10AA9000062804D12B48016841F4806101602A49ED
:10AAA000C86F40F47000C867BFF34F8FBFF36F8F5C
:10AAB000264A106800285CBF506800281CD5244B2B
:10AAC00001241C60234C00F049F81525156000F0A6
:10AAD00045F8556000F042F800221A6000F03EF898
:10AAE000BFF34F8F0A681C4802F4E06202430A6019
:10AAF000BFF34F8F00BFFDE7014A0249116030BD2F
:10AB0000102400200090D003E00F00F02403001078
:10AB10004035014074C007400DF0ADBA3805004023
:10AB200044020010FCED00E00C0100401056004013
:10AB30000404001020C50040E40E00400004004062
:10AB4000300100103C1700400CED00E00012001036
:10AB500004E5014000E401400400FA0520680028F3
:10AB6000FCD0704733B58BB00021044600910C989F
:10AB700080B1002529460CA800F0A9F838B1009949
:10AB8000684600EB410295800098401C00906D1CC7
:10AB9000142DEFD3204669462C22FCF7B5FA0DB0F0
:10ABA00030BD002A18BF00F07DB800F085B82DE94F
:10ABB000F84306468CB03088B488394D102806D04A
:10ABC00011283CD019285CD01A283ED064E0AA682D
:10ABD000D243009268466968FCF7B0FB009901A86F
:10ABE000FFF7C0FF4FF000080EE002A8002730F882
:10ABF0001890281D494600EB870000F05DF87F1C87
:10AC00001E2FF6D308F1010801988045EDD3142CCE
:10AC100003DB0420FDF7C6FB3EE0214605F10800FA
:10AC200000F040F82146281D00F03CF8F07B012898
:10AC300032D0214605F10C0000F034F82CE021461A
:10AC400005F1080000F038F826E0367A3609042EBF
:10AC5000ACBF01220022214605F11800FFF7A1FF39
:10AC6000022ECCBF01220022214605F11400FFF77D
:10AC700098FF022EACBF01220022214605F11000F0
:10AC800008E0307A40B9727AD20802F00102214617
:10AC900005F11800FFF785FF0DB0BDE8F083000057
:10ACA000482C00200B46012103F01F025B09914054
:10ACB00000EB8300FCF72ABB0B46012103F01F02C7
:10ACC00091405B09C94300EB8300FCF737BB4A099D
:10ACD00050F8220001F01F01C84000F00100704749
:10ACE00038B53B4C207808B1852510E0A0600021E4
:10ACF00061602061E1600FF2710000F081F80546AB
:10AD0000FEF78AF808B900F087F80120207028467D
:10AD100032BD1CB500F010F82D4CE068401EE0601C
:10AD2000E06818B900F07FF80020A070FFE79DF8F8
:10AD30000000FCF74EFB13BD00218DF800106846A3
:10AD4000FCF72ABB38B50400214814BF00F11005F8
:10AD500000F1080504E00868286020464968884733
:10AD600029680029F7D131BD0200194903D1012317
:10AD70004B70002002E0012801D18870E2E77047A3
:10AD800018B9134A01215170DCE770471CB520B196
:10AD9000012806D0032815D013BD0E4901200860F4
:10ADA00013BD00228DF800206846FCF7F5FA084C28
:10ADB000207808B9FFF794FFE068401CE0600121AB
:10ADC000A170B4E700F028F8FFF7A3FF13BD00005F
:10ADD000602E002080E100E04FF0804181B0002231
:10ADE0000A5008580090009901B070472248016845
:10ADF000C90704D4214BC0221A7001210160704799
:10AE00001F4B19790246002009B1852070470121A6
:10AE10001A6019715871704780B5FFF7E7FF19493B
:10AE20000120086001BD1949194A01200860106815
:10AE3000C003FCD4704770B5164E114C3068124DEB
:10AE400050B14FF48070FFF7C7FF0121296060798E
:10AE500010B9617122689047706850B14FF48270E8
:10AE6000FFF7BAFF0220286001202168BDE870408A
:10AE7000084770BD0000000000E100E000E400E0D1
:10AE8000B02E002018050040080300400C000040D0
:10AE900018040040000100409CB1020000000000C6
:10AEA000A8B10200000000002CB102000000040460
:10AEB000E4B10200000000002CB202000000040413
:10AEC00038B0020000000000ACAF02000000030335
:10AED000E4AF020000000303FCB002000000030323
:10AEE000C0B1020000000000ECB102000000000050
:10AEF000F4B102000000000030B2020000000000C7
:10AF0000FCB102000000000004B2020000000000DA
:10AF10006572726F720000007761726E696E670011
:10AF2000696E666F0000000064656275670000006E
:10AF30001B5B313B33306D001B5B313B33326D00AB
:10AF40001B5B313B33336D001B5B313B33346D0096
:10AF50001B5B313B33356D001B5B313B33366D0082
:10AF60001B5B313B33376D001FB500BF0CA40EE0F7
:10AF7000052818BFFDF716FA1FBD51680098126822
:10AF8000904701A8FEF743FE039A002AF5D16846D0
:10AF90004BDF0028ECD1214601A8FEF734FEF3E791
:10AFA00008B1020018B10200080000006E72665F6E
:10AFB0007364680000000000000000000000000052
:10AFC0000000000024B202002CB2020000000000C9
:10AFD000000000008CB102009CB1020000000000E3
:10AFE000000000006E72665F7364685F626C6500EB
:10AFF0000CB2020014B202006CB102007CB102007B
:10B000007CB102008CB1020014B202001CB202003A
:10B0100010B5074979441831064C7C44163404E0D5
:10B020000A68081D114488470146A142F8D110BDA5
:10B03000500000006C0000007077725F6D676D74E7
:10B040000000000000000000000000000000000000
:10B050000000000000000000000000004EF68851D3
:10B06000CEF20001086840F470000860BFF34F8F13
:10B07000BFF36F8F4FF00070E1EE100A70470000D1
:10B0800053CEFFFF700A00005C2400200000000087
:10B090001BC4FFFFE6010000EE000000F0220020CC
:10B0A000FEE700000120C046002801D0FFF7B0FFF6
:10B0B000AFF300800020AFF30080FCF7BFFD00F08D
:10B0C00000F800F001B8FEE70746384600F002F845
:10B0D000FBE7FEE72021090326311820ABBEF9E784
:10B0E000466174616C206572726F7200537973747B
:10B0F000656D207265736574000000006E72665F96
:10B100007364685F736F63001CB2020024B20200B4
:10B110000000000000000000A82E0020A02E00204B
:10B12000A82E0020082B0020180000006E72665F19
:10B13000626C655F67617474000000007274745F14
:10B140006C6F675F6261636B656E64000148804786
:10B1500001480047A5A80200D9B10200B4B102001D
:10B16000000000003CB10200D0230020D99302006F
:10B17000000000007D640200A82300202588020052
:10B180007C230020F1840200BC230020E18F020018
:10B190000000000069AF0200000000006170705FF5
:10B1A000627574746F6E00006170705F74696D65B4
:10B1B00072000000A7970200C7970200C59702001F
:10B1C000736F72746C697374000000000148016849
:10B1D00008470000B82E0020AFF30080FFF73EFFC5
:10B1E000FFF760FF636C6F636B000000434C4F43DD
:10B1F0004B0000004750494F544500005541525400
:10B20000000000005541525445000000AFAB020061
:10B2100000000000297B02000000000081AD020058
:10B22000000000008DAD02000000000061707000A1
:10B23000505253004300FEE7FEE7FEE7FEE7FEE75D
:10B24000FEE7FEE7FEE7FEE7FEE7FEE7FEE7FEE7D6
:10B25000FEE7FEE7FEE7FEE7FEE7FEE7FEE7FEE7C6
:10B26000FEE7FEE7FEE7FEE7FEE7FEE7FEE7FEE7B6
:10B27000FEE7FEE7FEE7FEE7FEE7F20B0001F00562
:10B280006F10014011000400011007FF00FFFF08CC
:10B290002E00201F8A522808F10F0130050D0003EF
:10B2A00000FD7B022A52FF30100310AF0200180489
:10B2B00012200412280410035CA00200300812645B
:10B2C000081238081240041248041250041258049C
:10B2D00012600490070090D00334B202000174435E
:10B2E0003FA45812390852550C523D08F103016130
:01B2F0003C21
:040000050002B1D96B
:00000001FF
