:020000040002F8
:1060000058A8002061E0030053AB0200B7B60200BD
:10601000D7B70200BFCC020063F502000000000009
:10602000000000000000000000000000B7080300AE
:106030006B16030000000000872C0300FF3C0300E8
:10604000458703002F5B0300C17D0300035C030051
:10605000EB72030057750300657B03007B7503003B
:10606000978503004F8B0300AF9003003B92030022
:10607000A3930300C3970300EB9C030097A30300C3
:1060800017AC0300F16F030097B703009FCE030026
:10609000F1CE03009FD20300C5180300E3D2030032
:1060A000F3D20300BFE00300CFE403005BE803008A
:1060B0005DE803005FE8030000000000000000004E
:1060C00061E8030063E8030065E8030067E8030094
:1060D00069E803006BE803006DE8030000000000BE
:1060E00000000000000000000000000000000000B0
:1060F00000000000000000000000000000000000A0
:10610000000000000000000000000000000000008F
:10611000000000000000000000000000000000007F
:10612000000000000000000000000000000000006F
:10613000000000000000000000000000000000005F
:10614000000000000000000000000000000000004F
:10615000000000000000000000000000000000003F
:10616000000000000000000000000000000000002F
:10617000000000000000000000000000000000001F
:10618000000000000000000000000000000000000F
:1061900000000000000000000000000000000000FF
:1061A00000000000000000000000000000000000EF
:1061B00000000000000000000000000000000000DF
:1061C00000000000000000000000000000000000CF
:1061D00000000000000000000000000000000000BF
:1061E00000000000000000000000000000000000AF
:1061F000000000000000000000000000000000009F
:106200000121C268517170478068D0F8540340087A
:1062100010F00100704770B50400002C08D0DFF8C2
:10622000C45C55F00105402606FB04F63000A84783
:1062300070BD10B50400206903F056F810BD8168E8
:10624000D1F8541351F002018268C2F85413704718
:106250008168D1F8541331F002018268C2F85413F6
:1062600070478168D1F8541351F008018268C2F870
:10627000541370478168D1F8541331F008018268D3
:10628000C2F8541370478068D0F85403C00810F067
:10629000010070478068D0F854038009C0B270478D
:1062A0000A00D2B28368D3F8543362F38D13826844
:1062B000C2F85433704782685170704710B50400BB
:1062C000002C01D1002002E0200003F02FF810BDC7
:1062D0000021826882F82C1000218268118500213B
:1062E0008268D184704710B504002068FFF7E6FF8C
:1062F000A168098D4018A168C98BB0FBF1F201FBC0
:106300001200002801D1012000E00020C0B210BD21
:1063100010B504002068FFF7D1FFA168C98C4018B0
:10632000A168C98BB0FBF1F201FB1200002801D17A
:10633000012000E00020C0B210BD10B50400200014
:10634000FFF7BCFF010000228A4209D2A05C3F286F
:1063500002D0A05C2A2801D1012002E0521CF3E700
:10636000002010BD2DE9FC4106000F0014001D00A7
:106370005FF00008002C28D06B46220007EB0801D4
:106380007068D6F804C0DCF800C0DCF80CC0E04748
:106390000100009810EB08080098241A00980028C3
:1063A000E8D1B06800780328E4D0B068D0F854038E
:1063B000C0F340100028F8D0B068D0F8540330F093
:1063C0002000B268C2F85403D4E7002D01D0009831
:1063D0002860BDE8F38138B504000D002A00D2B270
:1063E000ACA1206902F08DFF31BDF8B504000D00AD
:1063F00016001F003B00320029006068D4F804C07A
:10640000DCF800C0DCF810C0E047F1BD2DE9F34F27
:1064100081B0040015001E000C9F029800282DD1A9
:10642000DFF87C8CDFF87C9CB9EB0800B5EBD00F73
:1064300021D25FF0000ADFF8700C00905FF0000BD3
:10644000B9EB0800BBEBD00F15D2DFF8600C00EB06
:10645000CB008246DAF804000168009850F8250065
:1064600002F0BCFF002803D1DAF80400306025E018
:106470001BF1010BE4E7002030601FE0002C02D18B
:10648000002030601AE0207800280BD03900280066
:10649000626890473868002802D1002030600DE023
:1064A00037600BE0606829014058002804D060681C
:1064B00029010844306001E000203060BDE8F78F1A
:1064C00070B50400A568A06810F114062068FFF7F5
:1064D000F5FE3073288D317B0818718990FBF1F23D
:1064E00001FB1200401C3080288D317B0818718917
:1064F00090FBF1F0401CB080E88C317B081871896A
:1065000090FBF1F0401CF080E88C317B0818718919
:1065100090FBF1F201FB1200401C7080300070BD56
:1065200070B504000D00A06810F114062068FFF794
:10653000C5FE10FA85F07189B0FBF1F070BD70B541
:1065400004000D00A06810F114062068FFF7B6FEE5
:1065500010FA85F07189B0FBF1F201FB1200401CCA
:1065600070BDF8B504000D001600310089B220009E
:10657000FFF7D6FF0700290089B22000FFF7D0FF00
:106580003F1A3800F2BDF8B504000D0016003100C6
:1065900089B22000FFF7D3FF0700290089B220004D
:1065A000FFF7CDFF3F1A3800F2BD10B50400DFF849
:1065B000042BB8A1206902F0A4FE10BD10B50400A0
:1065C000DFF8F42AB3A1206902F09BFE10BD10B5DC
:1065D0000400DFF8E82AAFA1206902F092FE10BDA6
:1065E00010B50400ACA1206902F08BFE10BD38B5D7
:1065F00004000D00280080B2002806D02A0092B2C4
:10660000DFF85C1D206902F07CFE31BD38B5040066
:106610000D00280080B2002806D02A0092B2DFF8D0
:10662000441D206902F06DFE31BD38B504000D0037
:10663000012D06DB2800010089B22000FFF7E6FFEC
:1066400007E0002D05D56842010089B22000FFF760
:10665000CEFF31BD38B504000D00280080B20028FF
:1066600006D02A0092B2DFF8001D206902F049FE30
:1066700031BD38B504000D00280080B2002806D0D6
:106680002A0092B2DFF8E41C206902F03AFE31BD24
:10669000000000002563000038B504000D00012D46
:1066A00006DB2800010089B22000FFF7E2FF07E0C7
:1066B000002D05D56842010089B22000FFF7CAFF0E
:1066C00031BDF8B50400A068008DA168C98C88426E
:1066D0001AD22000FFF7F4FE0500AE88A068008DF6
:1066E000401CA16808852000FFF7EAFE0700300083
:1066F000B98880B2884204D101212000FFF786FFCB
:1067000002E02000FFF76CFFF1BD70B5040020002F
:10671000FFF7D6FE0500A888E988884201D1012646
:1067200000E000262000FFF7DEFD002804D1200055
:10673000FFF7EEFD002802D02000FFF751FF3000E8
:10674000C0B2002807D069882888091A89B22000B9
:10675000FFF74DFF19E0E988A888091A89B22000DF
:10676000FFF778FF68882988884207D229886888D7
:10677000091A89B22000FFF749FF06E069882888D6
:10678000091A89B22000FFF732FF70BD2DE9F84FDA
:106790000400A068C08C002803D0A068008D0028E9
:1067A00000D174E0A068058D0026280080B2002882
:1067B0000AD0A068290089B2084490F82B0020284C
:1067C00002D1761C6D1EF0E7280080B200280AD0A6
:1067D000A068290089B2084490F82B00202802D034
:1067E0006D1E761CF0E72A0092B2A068018D200091
:1067F000FFF7B7FE07002A0092B2A068018D2000C3
:10680000FFF7C1FE8046A068C08CB1461FFA89F927
:10681000B0EB0909A068310089B211FA85F108448A
:1068200010F12C0AA068290089B2084410F12C0B41
:106830004A465146584602F013FEA068C08C801BA1
:10684000A168C884A0680585A068A168C98C0844AF
:10685000002180F82C1041462000FFF7E6FE3900A9
:106860002000FFF719FF2000FFF7A8FEA068A1682D
:10687000098D084410F12C0306A20821200001F024
:1068800063FF2000FFF791FE2000FFF7A0FEBDE8A8
:10689000F18F0000257300000A00000038B50400E5
:1068A0002000FFF70DFE05002888297B491C88423F
:1068B00002D1A888012821D0A888022805D3A88859
:1068C000411E89B22000FFF7C5FE287B298880B2CF
:1068D000884208D22888411E287B091A89B22000E4
:1068E000FFF785FE07E0297B491C2888091A89B231
:1068F0002000FFF78BFE0020A168088531BD38B568
:1069000004002000FFF7DCFD050028886988884224
:1069100003D1A888E988884221D0A888E9888842DC
:1069200006D2E988A888091A89B22000FFF7A1FEDB
:1069300068882988884207D229886888091A89B214
:106940002000FFF754FE06E069882888091A89B2FA
:106950002000FFF75BFEA068C08CA168088531BDF0
:106960002DE9FC4704000025002600208DF80000DA
:106970005FF000084FF4C0795FF0000AA06810F5DE
:10698000D67752464946380002F0B6FDDFF87C1B48
:10699000206902F0B6FC2000FFF74BFC002738000E
:1069A00080B2B0F57A7F80F2A58001AB0122694602
:1069B0002000FFF71AFD0198002804D140F2E730CB
:1069C000FFF729FC90E09DF800001B2805D0A06887
:1069D00090F8AC011B2840F087809DF800005228F9
:1069E0006ED10020A168424692B2114481F8AC01F8
:1069F000A06890F8AD015B2805D00020A16881F85F
:106A0000AC010B2077E00221A0680A0092B210448A
:106A100090F8AC013B2814D00A2016FB00F0A268C5
:106A20000B009BB21A4492F8AC2150FA82F0B0F1FC
:106A30003006491C080080B2B0F5C07FE4DB0C20B2
:106A400059E0491C080080B2B0F5C07F01DB0C2082
:106A500051E0A0680A0092B2104490F8AC010028FE
:106A600014D00A2015FB00F0A2680B009BB21A4458
:106A700092F8AC2150FA82F0B0F13005491C0800C0
:106A800080B2B0F5C07FE4DB0C2034E0280080B297
:106A9000FB2803D3FA20A268908201E0A0688582D7
:106AA000300080B2FB2803D3FA20A268108301E0F3
:106AB000A06806830020A26882F8AC0100201AE0DA
:106AC0009DF80000A168424692B2114481F8AC01E1
:106AD00018F10108404680B20A2805D30020A168B9
:106AE00081F8AC01042006E0019800287FF45DAF36
:106AF0007F1C54E70D20BDE8F6872DE9F041040026
:106B00000D0016002000FFF72BFF002812D1A0680F
:106B1000878AA068B0F81880FA212000FFF776FD78
:106B2000FA212000FFF7A5FD2000FFF719FF00283C
:106B300017D101E0062015E0A068808A2880A068AF
:106B4000008B30802988C91B89B22000FFF74FFDD8
:106B50003188B1EB080189B22000FFF77BFD0020EE
:106B600000E00620BDE8F0813EB504000D002800DD
:106B7000C0B200281AD0A06890F822002900C9B23B
:106B800088421CD06846DFF8E41CD1E90023C0E944
:106B9000002315F12F008DF80500A06880F8225021
:106BA0006A46CFA1206902F0ACFB08E0A06880F83B
:106BB0002250DFF8BC2CCAA1206902F0A2FB37BD2D
:106BC0003EB504000D002800C0B2002819D0A0680E
:106BD00090F823002900C9B2884212D06846DFF835
:106BE000941CD1E90023C0E9002315F12F008DF892
:106BF0000300A06880F823506A46B9A1206902F01A
:106C000080FB37BD2DE9F04104000D000226A0688D
:106C100010F12207A84632003900404602F0A0FCDD
:106C2000BDE8F08138B504000D0029782000FFF799
:106C30009BFF69782000FFF7C3FF31BD38B5040022
:106C40002000FFF73DFC05002888297B491C88426D
:106C500002D1A888012819D0288801280DD1012146
:106C60002000FFF7F7FC69892000FFF7CFFCA06840
:106C7000008D401EA168088508E001212000FFF773
:106C8000B6FCA068008D401EA168088531BD38B5EE
:106C900004002000FFF714FC05002888698888425A
:106CA00003D1A888E98888421AD02888698988424F
:106CB0000DD101212000FFF7DCFC69892000FFF7DE
:106CC00096FCA068008D401CA168088508E00121A1
:106CD0002000FFF79BFCA068008D401CA168088580
:106CE00031BD10B48268D28C40F27F139A4215DA1B
:106CF0008268128D531C84682385836892B21A447B
:106D000082F82C10826883681B8D1A44002382F855
:106D10002C308268D28C521C8368DA8410BC704795
:106D20002DE9F04704000D00A068D0F8546316F078
:106D30000106A068C08CA1680F8DC71B3000C0B2CF
:106D400000281FD1A068C08C40F27F11884280F2D9
:106D5000C480380080B200281FD0B8461FFA88F8D7
:106D6000A068A168098D084410F12C09A068A168E9
:106D7000098D084410F12D0A42464946504602F05A
:106D80006FFB0AE0A068C08C40F27F11884204DBF0
:106D9000380080B2002800F0A080A068A168098DAA
:106DA000084480F82C503000C0B200280BD1A068F5
:106DB000C08C401CA168C884A068A168C98C084424
:106DC000002180F82C10380080B200283BD0200031
:106DD000FFF776FB8046B8F80400B8F80610884242
:106DE00002D15FF0010901E05FF000094846C0B23E
:106DF000002812D0A068A168098D084410F12C0366
:106E000037A20821200001F09FFC3100C9B2791A95
:106E100089B22000FFF7EBFB2AE02000FFF7CEFB52
:106E2000A068A168098D084410F12C032CA2082148
:106E3000200001F089FC2000FFF7C9FB01212000A0
:106E4000FFF7E4FB14E03000C0B200280BD0A068CC
:106E5000C08C401CA168C884A068A168C98C084483
:106E6000002180F82C102900C9B22000FFF7B3FAE6
:106E7000A068008D401CA16808852000FFF733FA48
:106E8000002803D02000FFF7ABFB26E02000FFF72F
:106E90003FFA002821D02000FFF712FB8046B8F807
:106EA0000610B8F80400091A491E89B22000FFF73D
:106EB000E0FB2000FFF794FBB8F80610B8F80400D8
:106EC000091A89B22000FFF7C5FBB8F80000411E7F
:106ED00089B22000FFF79AFBFFE7BDE8F0870000CA
:106EE0002573000030E603002DE9F0410400A0689E
:106EF000C08C002803D0A068008D002800D168E075
:106F0000A068C08CA1680D8D451B2E00B6B2761C02
:106F1000A068A168098D084410F12C07A068A16839
:106F2000098D084410F12B0832003900404602F068
:106F300097FAA068008D401EA1680885A068C08CE3
:106F4000401EA168C884280080B200283BD00821D8
:106F50002000FFF740FA2000FFF7B2FA0600B088E1
:106F6000F188884201D1012700E000273800C0B233
:106F7000002813D0A068A168098D084410F12C03E3
:106F80004BA20821200001F0DFFB2000FFF70DFBE2
:106F9000290089B22000FFF72AFB1AE02000FFF742
:106FA0000DFB2000FFF701FBA068A168098D0844D4
:106FB00010F12C033EA20821200001F0C5FB2000A7
:106FC000FFF705FB05E0DFF8502C39A1206902F03E
:106FD00098F9BDE8F0812DE9F0410400A068C08C6B
:106FE000A1680D8D451B280080B2002855D02E00C9
:106FF000B6B2A068A168098D084410F12D07A068F9
:10700000A168098D084410F12C083200390040466F
:1070100002F026FAA068C08C401EA168C884200037
:10702000FFF74EFA8046B8F80400B8F80610884218
:1070300001D1012600E000263000C0B2002818D09F
:107040001BA7A068A168098D084410F12C033A0021
:107050000821200001F078FBDFF8C02B39002069FF
:1070600002F04FF96D1E290089B22000FFF7BFFA28
:1070700013E02000FFF7A2FA2000FFF796FAA068BD
:10708000A168098D084410F12C0309A208212000F1
:1070900001F05AFB2000FFF79AFABDE8F0810000EA
:1070A000E4B4030044B5030054680020E4B40300D2
:1070B0002573000004E8030008E803000CE803005F
:1070C0002DE9FB4F82B016000025002002990860D0
:1070D000307804002000C0B2002800F02281200097
:1070E000C0B202F090FA002803D000203070761C65
:1070F00010E102980068411C029A1160039941F85E
:10710000206000200500307804002000C0B2002874
:1071100000F000812800C0B2002823D12000C0B2B6
:10712000222811D027280FD05C281BD13000FFF770
:10713000C5F8070016F10108B1463A004146484635
:1071400002F08EF9761CDEE73000FFF7B7F8070093
:1071500016F10108B1463A004146484602F080F96E
:107160002500D0E728002100C0B2C9B288420ED164
:107170003000FFF7A3F8070016F10108B1463A0006
:107180004146484602F06CF900200500BBE72800A4
:10719000C0B2002800F0B2802000C0B25C2840F0ED
:1071A000AD80777838002900C0B2C9B288420DD1CD
:1071B0003000FFF783F8804616F10109B2464246D7
:1071C0004946504602F04CF9761C9CE73800C0B2A4
:1071D000302838D15FF000085FF002094846C0B29D
:1071E000052813DA4846C0B2305C07003800C0B248
:1071F00030280BDB3800C0B2382807DA4046B7F138
:10720000300858EAC00819F10109E7E74846C0B25A
:10721000032818DB3000FFF751F8CA465FFA8AFAF4
:10722000BAF1020AB0EB0A0A4846C0B23044401E26
:107230000090B34652460099584602F011F986F87C
:107240000080761C5FE73800C0B2782856D15FF026
:1072500000085FF002094846C0B2042831DA484607
:10726000C0B2305C07003800C0B2302809DB3800FB
:10727000C0B23A2805DA4046B7F1300858EA00189B
:107280001CE03800C0B2612809DB3800C0B26728B2
:1072900005DA4046B7F1570858EA00180EE0380002
:1072A000C0B2412809DB3800C0B2472805DA4046A1
:1072B000B7F1370858EA001800E002E019F10109B7
:1072C000C9E74846C0B2032818DB3000FEF7F6FFD6
:1072D000CA465FFA8AFABAF1020AB0EB0A0A4846CD
:1072E000C0B23044401E0090B34652460099584602
:1072F00002F0B6F886F80080761C04E72800C0B2D9
:10730000002805D12000C0B202F07DF9002801D18B
:10731000761CF8E6029800689DF810108842FFF489
:10732000D7AE00200399029A126841F82200280083
:10733000C0B205B0BDE8F08F38B504000D00A068FC
:1073400005702800C0B2022808D12000FEF7C0FF57
:1073500023686DA20321200001F0F6F931BD000081
:10736000E0E50300E8E50300F0E50300F8E50300CD
:1073700000218268C2F850137047FEB504000D006A
:10738000684600210022002380E80E000026280025
:10739000C0B2002837D1A068D0F85003002800F010
:1073A000B1802000FFF77AFA00230A226946A0681C
:1073B000D0F8500302F035FA0198A168C1F85003E3
:1073C000A068C78CA068D0F8500300285CD1A068E2
:1073D00010F5D670FEF772FF002807D0A06810F5F0
:1073E000D671A0682C3002F02BFA03E00020A168CF
:1073F00081F82C00A0682C30FEF760FFADF8080083
:107400000120060040E0A068D0F85003A168D1F840
:107410004C13884204D0A068D0F84803002800D15B
:1074200070E02000FFF73AFAA068D0F85003002877
:107430001CD1A0682C30FEF741FF0700A068D0F8EF
:107440004803A168C1F85003380080B2002808D072
:10745000A06810F12C01A06810F5D67002F0F0F9C8
:1074600012E00020A16881F8AC010DE000230A229F
:107470006946A068D0F8500302F0D3F9BDF808704F
:107480000098A168C1F850033000C0B2002813D1A1
:1074900000230A226946A068D0F8500302F0C1F91F
:1074A0000A23BDF80820521CA06810F12C01A06826
:1074B000D0F8500302F0B5F9BDF80800A1680885BE
:1074C000BDF80800A168C884BDF80800390089B279
:1074D000884202D22000FFF768F8A06810F12C0360
:1074E00009A20821200001F02FF92000FEF7FBFE81
:1074F000002804D12000FEF70BFF002802D0200056
:10750000FFF76EF8F7BD00002573000038E60300B2
:107510003EB504000D00A068D0F8480300280ED145
:10752000A068C0F84853A068C0F84C5300200090F1
:1075300000200190A068C08CADF808001DE0002379
:107540000A226946A068D0F8480302F06AF901955A
:1075500000230A226946A068D0F8480302F052F9D5
:1075600000200190A068D0F848030090A068C08C6B
:10757000ADF80800A068C0F8485300230A22694605
:10758000280002F03FF90A23A068C28C521CA068B0
:1075900010F12C01280002F035F937BD2DE9FF412B
:1075A0000400A068D0F84C03002839D0A068D0F8B7
:1075B0004C5300230A226946280002F032F9019850
:1075C000A168C1F84C030A260027E8463A003100BA
:1075D000404601F091FF00230A226946280002F08C
:1075E00011F9280002F05EF8A068D0F84C030028DA
:1075F00004D10020A168C1F8480311E000230A2249
:107600006946A068D0F84C0302F00BF90020009006
:1076100000230A226946A068D0F84C0302F0F2F871
:10762000BDE8FF81FEB50500A8682C30FEF746FED8
:1076300006002800FFF79CFE300080B2002846D0EC
:10764000A868D0F8480300282BD000230A226946F6
:10765000A868D0F8480302F0E4F83000BDF808103C
:1076600080B288421DD10A23BDF80820521CA868A8
:1076700010F5D671A868D0F8480302F0D2F8A868CF
:1076800010F5D671A8682C3001F0A8FE002804D1AE
:107690000020A96881F8AC0119E00020A96881F8F0
:1076A000AC010027082F12D2310089B20B31686972
:1076B00001F0B9FF0400002C04D021002800FFF7DE
:1076C00027FF04E02800FFF769FF7F1CEAE7F7BD0A
:1076D00010B403000020020092B29A5C002A11D07C
:1076E000020092B29A5C0400A4B20C5DA24201D0E6
:1076F00080B208E0401C020092B2002AEBD1401E8A
:1077000080B200E080B210BC70472DE9F84F040051
:107710000D001600A068C08CA1680F8DC71BA06863
:10772000C08C10FA86F0B0F5C07F03DA300080B26A
:10773000002800D150E0B8461FFA88F818F1010877
:10774000A068A168098D084410F12C09A068A168FF
:10775000098D11FA86F1084410F12C0A4246494677
:10776000504601F07DFEB2461FFA8AFA0095A068E5
:10777000A168098D084410F12C0B52460099584617
:1077800001F06EFEA0682C30FEF798FDA168C88459
:10779000A068A168098D084410F12C0336A20821C5
:1077A000200000F0D1FFA068008D3018A168088586
:1077B0002000FEF798FD002804D12000FEF7A8FD68
:1077C000002802D02000FEF70BFF380080B200280E
:1077D00002D02000FEF799FFBDE8F18F2DE9FC47AC
:1077E00005000C001600002C03D10020A968888435
:1077F00039E0DFF848793868FEF760FD804618EB1D
:1078000006083868FEF75AFDA968C98B081A414670
:1078100089B2B0FBF1F92000FEF750FD8246B8EBCB
:107820000A0AA868808C411CAA68918480B24946E3
:1078300089B290FBF1F201FB1200002808D10094FC
:107840003B68DFF8A02C0721280000F07DFF05E051
:10785000230009A20721280000F076FF514689B2D3
:107860002800FEF7D3FEBDE8F387000040E60300E2
:1078700010E8030048E603002573000070B504001B
:107880000D00160032002900200001F0FFFF002843
:1078900001D1012000E00020C0B270BD2DE9F84FF9
:1078A0009CB00700002005900020069000255FF0A6
:1078B00000085FF0000940F27F11B868C08C091A17
:1078C000ADF80610BDF80600002800F0A281B868E7
:1078D000068DB86810F12C0AB86810F5D67B320016
:1078E0005146584601F03CFEB868B968098D084415
:1078F000002180F8AC11B868B968098D084490F887
:107900002B0001F080FE002803D001208DF8040038
:1079100002E000208DF804003800FFF729FD0C2359
:10792000B86810F5D6720FA904A8FFF7C9FB0FA815
:10793000414689B250F82100FEF7C0FC824600267D
:107940000020029000200390049800280AD04046AE
:1079500080B204999DF8042051FA82F1491E8842B0
:10796000C0F07F809DF80400002802D000208246ED
:1079700007E00FA8414689B250F82100FEF79EFCAF
:1079800082460020040007A8009002AB2200414676
:1079900089B23000FEF73AFD641C0298002800F01E
:1079A0009080524692B2029801680FA843469BB25B
:1079B00050F82300FFF762FF0028E4D06D1C039805
:1079C000002814D1601E069002980068FEF776FC2D
:1079D0008146494689B2504680B2091ABDF8060070
:1079E000814231DAB9EB0A00ADF806002CE00298CA
:1079F0000068FEF763FC83464846594680B289B268
:107A0000884200D2D946BDF8060000281CD00BA839
:107A1000009003AB059A414689B23000FEF7F6FCB0
:107A200003980068514689B20144029800685246A2
:107A300092B21044FFF74CFE0100BDF8062089B257
:107A4000914201D2ADF80600601E059002980390A5
:107A5000002C98D1DFF8BC2B0421380000F074FE14
:107A60002FE00020040007A8009002AB220041464E
:107A700089B23000FEF7CAFC641C002C06D1DFF886
:107A8000942B0421380000F05FFEC2E00298002829
:107A900000F0BF800DF13C0B404680B25BF8200047
:107AA000FEF74BFC00280CD102980168404680B2DA
:107AB0005BF8200001F092FC0028D4D10298806885
:107AC0000600002E02D00298002800D10BE018F129
:107AD0000108404680B204999DF8042051FA82F1D1
:107AE0008842FFF431AF002D00F09380012D4AD180
:107AF0003078002808D007A8009003AB059A4146CB
:107B000089B23000FEF782FC03980068FEF7D6FBCE
:107B1000514689B2884209D0BDF806200398006812
:107B2000514689B201443800FFF7EFFDB868B968E3
:107B3000098D084490F82C0001F065FD00281ED145
:107B4000B868D0F85403C00714D5B868D0F8540307
:107B500040084000B968C1F8540320213800FFF7FD
:107B6000DFF8B868D0F8540350F00100B968C1F8E4
:107B7000540307E020213800FFF7D2F802E0380074
:107B8000FEF79FFD45E04A4692B200213800FFF71C
:107B900025FEDDF818B0002D20D007A8009002AB1C
:107BA0005A46414689B23000FEF730FC1BF1010B0A
:107BB000524692B2029801680FA843469BB250F811
:107BC0002300FFF75BFE0028E5D06D1E4A4692B207
:107BD000029801683800FFF701FEDCE73B6810A25D
:107BE0000321380000F0B0FDB86810F12C030DA29D
:107BF0000821380000F0A8FD3800FEF786FDBDF82A
:107C0000062003980068514689B201443800FFF706
:107C10007CFD1DB0BDE8F08F14E8030018E80300F8
:107C20000A2573002573000070B504000D002800BC
:107C3000C0B20D2809D02800C0B20A2805D0002102
:107C40002000FEF72DFB002013E02000FEF722FBB2
:107C5000002806D02E002000FEF71CFBF6B286425C
:107C600006D12900C9B22000FEF71AFB012000E06E
:107C7000002070BDC0B2802801D30B2000E000209E
:107C800070473EB504000020019001AB0122694617
:107C90002000FEF7AAFB0198002800F041819DF822
:107CA0000000FFF7E7FF0028EFD1C046C046A068FC
:107CB0004078002808D0022800F0C980C0F0B980C0
:107CC000032800F0238126E19DF800102000FFF733
:107CD000ABFF002812D0A068C08C002806D120007D
:107CE000FFF746FB2000FEF77BFC02E0200000F0DF
:107CF000A6FA02212000FFF71FFB11E19DF800000A
:107D0000002819D0012818D003281AD0052828D017
:107D1000082865D009285AD00C2826D0152848D024
:107D2000172850D01B2802D07F2862D06AE001219A
:107D30002000FEF7C0FA7BE07AE02000FEF7AEFDFF
:107D400076E02000FEF7DBFD2000FEF7CCFA0028ED
:107D500002D12000FEF744FC02212000FFF7ECFADC
:107D600066E02000FEF7CBFD62E06EA5DFF8482A52
:107D70002900206901F0C5FADFF8402A29002069AE
:107D800001F0BFFA23682A000321200000F0DCFC88
:107D90002000FEF778FA00280AD0A06810F12C0322
:107DA0002A000821200000F0CFFC2000FEF7ADFCE7
:107DB0003EE02000FEF772FD2000FEF789FA200069
:107DC000FEF7F3FB34E02000FEF7E0FC30E020009B
:107DD000FEF759FA002802D02000FFF75FFD27E0E8
:107DE0002000FEF750FA002802D02000FFF77CF8B0
:107DF0001EE02000FEF747FA002802D02000FFF71F
:107E0000EAF815E09DF8000001F054FD00280FD0BD
:107E10002000FEF738FA002805D09DF80010200059
:107E2000FEF77EFF04E09DF800102000FEF759FFEA
:107E30002BE79DF800005B2804D102212000FEF70B
:107E40003AFA03E000212000FEF735FA1DE7002191
:107E50002000FEF730FA2000FEF715FA00285FD068
:107E60009DF8000031282ED0322834D033283FD05E
:107E7000342820D041280CD042280FD0432812D0DB
:107E8000442814D046281AD0482820D04C2826D080
:107E90003BE001212000FFF770FA36E000212000CE
:107EA000FFF76BFA31E02000FEF7F1FE2DE0200035
:107EB000FEF7C4FE29E003212000FEF7FCF92000B4
:107EC000FEF71DFD21E003212000FEF7F4F920005C
:107ED000FEF7E4FC19E003212000FEF7ECF9A068AE
:107EE000D0F8540390F00100A168C1F854030CE0ED
:107EF00003212000FEF7DFF92000FEF7C4F9002877
:107F000002D02000FFF767F8FFE7BEE6002120005F
:107F1000FEF7D1F9B9E600212000FEF7CCF9B4E66E
:107F200037BD0000257300002DE9F0410400002555
:107F3000A06890F82C0000285FD0A068290089B2C2
:107F4000084490F82C0001F05EFB6D1C002808D05E
:107F5000280080B20028F0D10020A16881F82C0010
:107F60004BE06D1E280080B200281CD0A068C08C99
:107F7000401C2E00B6B2861BA068290089B20844B6
:107F800010F12C07A06810F12C083200390040468F
:107F900001F066FAA068C08C401BA168C884A06884
:107FA000C08CA1680885A068A168C98C084410F13C
:107FB0002B070026387801F026FB002802D0761C1B
:107FC0007F1EF7E7A068A168C98C08442B30874260
:107FD00013D0A168A068C28C300080B2121A01EBE5
:107FE0000200002180F82C10A068C08C801BA168C2
:107FF000C884A068C08CA1680885BDE8F0812DE91F
:10800000F84F040000272000FEF758F90500002C67
:1080100042D00026300080B2290089B2491E884231
:108020003ADA300080B2205C01F0EDFA002831D05D
:1080300016F101084046290080B289B2884229D24F
:10804000404680B2205C01F0DEFA002803D07F1C9D
:1080500018F10108EEE7380080B200281AD0290094
:1080600089B2380080B2091AB1461FFA89F9B1EB1A
:108070000909404680B204EB000A300080B2204477
:1080800010F1010B4A465146584601F0E9F9ED1B43
:1080900000200700761CBDE7BDE8F18F2DE9F74F02
:1080A00005000E003000FEF709F90700A868408DB2
:1080B00010FA87F0401C40F28111884207D3DFF8A4
:1080C000D02C0421280000F03FFB002033E002996F
:1080D000A86810F5D67001F001FC0400002C01D155
:1080E000002028E02000FEF7E9F88046C1461FFA8C
:1080F00089F919F101090194380080B2204410F186
:10810000010A4A460199504601F0AAF9BA461FFAF7
:108110008AFA0096A34652460099584601F020FA82
:108120002020390089B26054A868418D781C41181C
:10813000A86841850120BDE8FE8F00008C67002003
:108140002DE9F84F05000E003100A86810F5D67033
:1081500001F0C4FB04003000FEF7B0F80700002C6B
:1081600024D0A86810F5D670A04205D214F8010CEE
:10817000202801D17F1C641E2000FEF79FF8B8461E
:108180001FFA88F8B0EB080818F10108A868408DBC
:10819000C01BA9684885C146380080B204EB000ABC
:1081A000A3464A465146584601F05AF9BDE8F18FB8
:1081B0002DE9F84F86B006000F009046994600243E
:1081C00000255FF0000B002001905FF0020A02A87A
:1081D000009001AB220041463800FEF717F9641CFD
:1081E0000198002815D0002201980168484601F046
:1081F00010FD00280BD14A46019801683000FFF7B6
:108200004DFF83465846C0B2002802D06D1C002C9A
:10821000DDD1002D0ED01098056049463000FFF7E3
:108220008FFF5846C0B2002802D00020824601E0ED
:10823000012082465046C0B207B0BDE8F08F2DE95C
:10824000F04F97B006005FF0000A002700253000CD
:10825000FFF76AFE3000FFF7E5F900244FF4C0781D
:108260005FF00009B06810F5D67B4A464146584693
:1082700001F042F9B068C08C0190B0682C300090D9
:10828000B06810F5D67B019A0099584601F068F95C
:10829000B06810F5D670FFF7B2FEB06810F5D67072
:1082A000FEF70CF8401CB16848853000FEF727FB4C
:1082B0003000FEF718F8002802D13000FEF790F9E0
:1082C0000C23B06810F12C020AA903A8FEF7F8FEEF
:1082D00080460398002803D13000FEF781F9FDE0C5
:1082E0004046C0B2002808D04346DBB2DFF8F42B8A
:1082F0000221300000F028FAF0E05FF0000BDFF818
:10830000E80BDFF8E81B0A1AD2085A451FD3081AEF
:10831000BBEBD00F0AD3DFF8D80B00900A9BDFF835
:10832000D42B0221300000F00FFAD7E0DFF8C80BA1
:1083300000EBCB000500686801680AA850F82A0025
:1083400001F04CF8002802D01BF1010BD7E7002008
:1083500002901020059000200090B06810F10409F0
:10836000009A0599484601F0C7F86868C068002877
:1083700005D0B068001D6968102201F001F9686835
:10838000D0F808901AF1010A00250398824571D2AD
:108390000DF1280B9EA15BF82A0001F01FF80028C0
:1083A00007D0DFF8081C5BF82A0001F017F8002856
:1083B00003D13000FDF743FF5CE05BF82A00FDF7D6
:1083C000BCFF002815D00020049004A800905BF8A2
:1083D0002A30524649463000FFF7EAFE8DF8040085
:1083E0009DF80400022845D0049804191AF1010AE6
:1083F000CBE706A8009002AB2A0051464846FEF79C
:1084000005F86D1C002D02D00298002800D131E043
:10841000029801685BF82A0000F0E0FF0028B4D160
:108420000298C06800281DD0002C14D03000FEF740
:1084300066FA3000FDF757FF002802D13000FEF742
:10844000CFF8DFF8C42B0221300000F07DF93000B6
:10845000FDF7FEFE42E05746B068001D029910226B
:1084600001F08EF81AF1010A0020050002988068D8
:1084700081468AE7002C1AD0B068408D0190B06820
:1084800010F5D6700090B06810F12C0B019A00998D
:10849000584601F065F8B068408DB168C8840C2377
:1084A000B06810F12C020AA903A8FEF709FEB06813
:1084B0000069002809D00AA800EB87020399C91BAC
:1084C0003000B3681B69984705E0DFF8642C02218F
:1084D000300000F039F93000FDF7BAFE17B0BDE802
:1084E000F08F000000E60300F8B504000D00260040
:1084F0002F003968306800F071FFF2BD10B40A0037
:108500000300DBB2002B07D09368D3F8543353F049
:1085100020039468C4F8543310BC70472DE9F04729
:1085200006000F009046F068406886603300DFF870
:10853000082C39007068746824682468A047050016
:10854000002D01D0280061E0706901F066F8040098
:10855000002C01D0200059E00020B168C1F8480388
:108560000020B168C1F84C034FF456795FF0000A5F
:10857000B56852464946280000F0BEFFB068D0F802
:10858000540350F02000B168C1F854034046C0B213
:10859000B168D1F8541360F38201B068C0F8541385
:1085A000B068D0F8540350F00800B168C1F8540323
:1085B0000120B16808705020B168C8831820B168E4
:1085C0008883DFF8DC5B0020DFF81C19DFF81CC9AA
:1085D000BCEB0102B0EBD20F09D2DFF81C1901EBA2
:1085E000C0014968096845F82010401CECE7BCEB65
:1085F0000100C008002808D0DFF8183C0422BCEBBA
:108600000101C908280001F069FD0020BDE8F087DC
:108610002D680000ACC803002DE9F04706000F00EC
:1086200090469946089D4246D2B239003000FFF785
:1086300075FF0400002C11D14846C0B200280DD0AF
:108640002900C9B2F06802F0D4F98246BAF1000FED
:1086500001D5042003E0F068FDF7D2FD2000BDE85D
:10866000F08738B50500A8680078012801D00820F7
:1086700019E0002168686A681268926890470400EF
:10868000002C0FD108212800FEF76EFA01212800E6
:10869000FEF796FA47A1286900F033FE0221280070
:1086A000FEF74AFE200032BDF8B50400002555F063
:1086B00010052900A06810F5557002F0F7F9A068C0
:1086C0000078002802D0022801D024D223E0200024
:1086D000FFF7D7FA0021200000F0A0FA07003800C9
:1086E000C0B2002816D036A623683200032120002D
:1086F00000F02AF82000FDF7C6FD00280AD0A06887
:1087000010F12C0332000821200000F01DF8200099
:10871000FDF7FBFFFFE72000FDF78BFD5FF0FF3665
:1087200036F010063100A06810F5557002F0DAF945
:10873000F1BD70B504000D001600002332002900C1
:108740002000FDF70FFE70BD08B47EB504000D00DB
:108750001600DFF8380B0068019007A80190A068A8
:10876000D0F85403C0F38000002819D02800A16875
:1087700091F82210C0B2884212D069462000FEF75C
:1087800041FA2900C9B22000FEF7EEF901AA310032
:10879000206902F000FB69462000FEF743FA04E07E
:1087A00001AA3100206902F0F6FA77BC5DF808FBF7
:1087B000000000000A0A00001CE8030050E6030065
:1087C000257300002DE9F84F05000C0016001F006E
:1087D000002C00F089803800C0B2002804D031009D
:1087E00089B22800FDF712FF5FF0000814F80800B6
:1087F00000F009FF002802D018F10108F6E75FF049
:10880000000B2000FDF75AFD8146B9EB0809A86866
:10881000C08B801B48452CD35FF0000ACA451FD28D
:1088200004EB080010F80A000A2816D12800FDF70A
:1088300000FD0023524604EB08012800FDF792FDDD
:108840001AF1010010EB08082800FDF7C9FE3100FD
:1088500089B22800FDF7DAFE02E01AF1010ADDE72D
:1088600004EB0801286900F04CFD2800FDF7B8FE74
:108870003AE0A868B0F81EA0BAEB060A04EB0800BC
:1088800010F80B0000F0BFFE002806D0DA4604EB1B
:10889000080010F80B000A2808D016EB0B00A96896
:1088A000C98B884202D21BF1010BE7E72800FDF7D4
:1088B000C0FC0023524604EB08012800FDF752FDDE
:1088C0001AEB080814F8080000F09DFE002802D0FA
:1088D00018F10108F6E72800FDF782FE310089B2A1
:1088E0002800FDF793FE8AE7BDE8F18F2DE9F64FEA
:1088F00087B083460C000025DFF898793800FDF733
:10890000DDFC0600DFF89009FDF7D8FC8046B6EBE9
:108910000808DFF88899CDF80090DBF80800436874
:10892000DFF87C2908215846FFF70EFFDBF8080026
:108930004068FDF7C3FC06004846FDF7BFFC8619FA
:108940000023320092B2DBF8080081685846FFF736
:1089500039FFDFF8502900215846FFF7F5FE089847
:1089600000282BD0002C29D000250898854225D23C
:108970005FF00C0909FB05F020444068FDF79EFC00
:10898000824609FB05F02058FDF798FC10EB0A0A17
:10899000404680B250450FD209FB05F020444068A4
:1089A000FDF78CFC824609FB05F954F80900FDF738
:1089B00085FC10EB0A0AD0466D1CD6E7DFF8E858B4
:1089C000DFF8D408FDF77AFC297850FA81F010EB33
:1089D0000800ADF808000097BDF80830DFF8CC2893
:1089E00008215846FFF7B0FEBDF80800297850FA74
:1089F00081F0401CADF80A000023BDF80A20DFF822
:108A0000B0185846FFF7DEFE002C00F09C800026D0
:108A10000898864280F097800C2707FB06F02044D8
:108A20004068002843D007FB06F0205800283ED0BD
:108A3000DFF8648807FB06F020580190CDF800802D
:108A400007FB06F020444368DFF8682808215846F1
:108A5000FFF77AFEBDF80800297850FA81F907FB84
:108A600006F020444068FDF729FC824607FB06F02B
:108A70002058FDF723FC00904046FDF71FFCB9EBA2
:108A80000A0A0099BAEB010A2978BAEB010ABAEB93
:108A9000000A514689B25846FDF7B8FD3A215846BA
:108AA000FDF799FC19F10109ADF80A9034E007FBD4
:108AB00006F020444068002815D007FB06F020444B
:108AC00040680090BDF80830DFF8E02708215846DC
:108AD000FFF73AFEBDF80800297850FA81F0401CF3
:108AE000ADF80A0018E007FB06F02058002813D064
:108AF00007FB06F020580090BDF80830DFF8AC27DF
:108B000008215846FFF720FEBDF80800297850FAE2
:108B100081F0401CADF80A0007FB06F02044806895
:108B200000280BD00023BDF80A2007FB06F704EB52
:108B3000070081685846FFF745FE02E05846FDF7FA
:108B40004FFD761C64E7DBF80800C068002862D09F
:108B5000DBF80800C6680020019000275FF00008DD
:108B60005FF0000A03A8009001AB524601213000DB
:108B7000FDF74CFC1AF1010A0198002803D1BAF163
:108B8000010F0FD10DE001980068FDF797FB4146FA
:108B900089B28142E6D201980068FDF78FFB8046DA
:108BA000E0E738E0DFF8102700215846FFF7CCFD5A
:108BB0005FF0000903A8009001AB4A460121300094
:108BC000FDF724FC19F101090198002823D0287829
:108BD00058FA80FA01980068009053469BB2DFF87B
:108BE000CC2608215846FFF7AFFD2878401C10EB33
:108BF0000A0A574601984068002808D000233A0026
:108C000092B2019841685846FFF7DCFDD2E758461A
:108C1000FDF7E6FCCEE709B0BDE8F08F2DE9F8439B
:108C200090B005000E000027002201A9E868406806
:108C3000006802F0E1FA002801D00020A4E0300032
:108C4000C0B2002815D0019800F05BFDA868D0F8EC
:108C50004403401CA968C1F84403A86890F8440381
:108C600010F00700012802D10120070001E00120D7
:108C70008AE02800FDF724FC0400A088022805D320
:108C8000A088411E89B22800FDF7E4FC2088022854
:108C900005D32088411E89B22800FDF7A8FC2800D2
:108CA000FDF783FC3800C0B2002807D0DFF80C269F
:108CB00002212800FFF748FD012065E00024230081
:108CC000082202A9019800F0ACFD5FF008080498A2
:108CD0000590BDF80C00ADF81800BDF80E00ADF819
:108CE0001A0000208DF81D00029810F003000128E2
:108CF00019D1029CA40A0298C0F3C2008DF81C008E
:108D00000298C0F3831943465FEA89020AA90198D1
:108D100000F087FD2869009005AB4A460AA92000AB
:108D200002F036FB23E0029810F0030002281ED167
:108D3000029CA40D0298C0F3C2008DF81C00082C00
:108D400001D2A14601E05FF0080943464A4608A95E
:108D5000019800F066FD19EB0808B4EB09042B69D3
:108D600005AA494608A802F07DFB002CE7D101982E
:108D700000F0C7FC002201A9E8684068006802F022
:108D80003BFA00289AD0012011B0BDE8F083000022
:108D9000E0B903002DE9F34105006E68B768B868D3
:108DA0000078042826D0B8680078032802D15FF044
:108DB000010801E05FF0000801A9306802F0B0F995
:108DC0000400002C0BD098F00101C9B23800FFF765
:108DD00025FF01A9306802F0A3F90400F1E701982A
:108DE00000F087FC4046C0B2002803D000213800C4
:108DF000FFF714FFBDE8F38170B504006568AE6845
:108E000001213000FFF70AFF70BD70B504006568EE
:108E1000AE680121706872681268926890470028F5
:108E200003D10320B168087002E00420B168087023
:108E300070BDF8B504000D0016001F002000FDF7FE
:108E4000E3F9002806D03A0031002000FFF74EFD7C
:108E500001200EE02800C0B2002809D0A0684368B5
:108E6000DFF85C2402212000FFF76EFC012000E007
:108E70000020F2BDF8B504000D001600022D0AD145
:108E80002000FDF7C1F9002805D0002200212000B4
:108E9000FFF72CFD0CE0A7A7DFF828243900206994
:108EA00000F02FFADFF820243900206900F029FAB9
:108EB000F1BD70B504000D001600012D06D0022D85
:108EC0000AD12000FDF7A0F9002805D000220021DA
:108ED0002000FFF70BFD04E0954A02212000FFF778
:108EE00033FC70BDB8DA0300E4B4030044B50300FA
:108EF000CCDA030008E60300E4B4030070B5040014
:108F00000D001600012D01D0012100E000210023F9
:108F10000022C9B22000FFF78CFF002807D1A0680B
:108F2000D0F8540330F00400A168C1F8540370BDB8
:108F300070B504000D001600012D01D0012100E0E4
:108F4000002100230022C9B22000FFF772FF002891
:108F500007D1A068D0F8540350F00400A168C1F80C
:108F6000540370BD7CB504000D001600012D05D121
:108F7000002200212000FFF7B9FC16E0022D01D0ED
:108F8000012100E0002100230022C9B22000FFF7E8
:108F900050FF002809D170680190CC4800903368D8
:108FA000CB4A02212000FFF7CFFB73BD10E6030080
:108FB0007CB504000D001600032D01D3012100E053
:108FC000002100230022C9B22000FFF732FF002851
:108FD00019D1022D0AD170680190BC480090336805
:108FE000BB4A02212000FFF7AFFB0CE02000FDF799
:108FF0004AF9002801D0A3A300E0A3A3B54A0021A9
:109000002000FFF7A1FB73BDF8C5030070B5040095
:109010000D001600012D01D0012100E000210023E8
:109020000022C9B22000FFF704FF002802D120006F
:10903000FDF720F970BD70B504000D001600012D7C
:1090400001D0012100E0002100230022C9B220004C
:10905000FFF7EFFE002802D12000FDF702F970BDF6
:109060002DE9FF4105000E001700012E01D001215E
:1090700000E0002100230022C9B22800FFF7D9FE3A
:1090800000282DD15FF00008A868D0F84C43002CD0
:1090900002D0B8F1080F04D30020A96881F8AC0110
:1090A0001EE000230A2201A9200000F0BAFB0A23D7
:1090B000BDF80C20521CA86810F5D671200000F0F5
:1090C000B0FB02980400A86810F5D67000904346E3
:1090D000814A00212800FFF737FB18F10108D6E785
:1090E000BDE8FF817CB504000D001600012D05D1FF
:1090F000002200212000FFF7F9FB17E0022D0AD122
:1091000070680190714800903368714A0221200014
:10911000FFF71AFB0AE0032D01D3012100E0002133
:1091200000230022C9B22000FFF783FE73BD0000B8
:1091300014D1030025730000FD8402002DE9FE43D5
:1091400004000D001600012D01D0012100E00021D6
:1091500000230022C9B22000FFF76BFE00281DD1BA
:10916000E0684068076838000068806880464146CB
:10917000C9B264204143B868B1FBF0F9B868029005
:109180004046C0B201904846C0B20090A068D0F8F6
:109190004433524A00212000FFF7D6FABDE8F78396
:1091A0005468002070B504000D001600012D01D098
:1091B000012100E0002100230022C9B22000FFF7B6
:1091C00038FE002808D10020A168C1F84403E068F7
:1091D0004068006802F084F870BD70B504000D00AE
:1091E0001600012D01D0012100E000210023002202
:1091F000C9B22000FFF71DFE00280AD1384A24A179
:10920000206900F07EF85020A168C8831820A1686A
:10921000888370BDE98402007CB504000D0016004F
:10922000012D16D1A06810F11C02A06810F11E01DA
:109230002000FDF762FC00280AD05020A168C883F6
:109240001820A1688883274A04212000FFF77CFAB0
:1092500016E0032D01D3012100E0002100230022AC
:10926000C9B22000FFF7E5FD002809D17068019020
:10927000164800903368164A02212000FFF764FA6E
:1092800073BD00006F6E00006F66660020E803008B
:109290002573000000E3030024E8030028E803002E
:1092A00018E60300D0E2030071E8030020E60300A3
:1092B000E0DA0300DCE2030000DF030028C603005D
:1092C000D0D403002CE8030058E6030030D8030094
:1092D000E8E20300F4DA0300F4E2030024C103002F
:1092E00060E6030008C0030010B50400A068002871
:1092F00006D0A26821682069636998470020A060B1
:1093000010BD0CB438B505000C00002C09D006487F
:109310000068009004A800906A462100280001F02F
:109320003AFD31BC5DF80CFB30E8030000F10103AD
:10933000810704D010F8011B820781B1FAD10268BD
:10934000A2F10131914311F0803104BF50F8042F94
:10935000F6E709BAB1FA81F100EBD100401CC01A5E
:109360007047F0B40246106895681318506803EB14
:109370005004C0071DD54D441BE013F8017B05F8D0
:10938000017B491EF9D1A0B1B60813F8011B06F004
:109390000306032E08BF13F8016B01EB06214942B7
:1093A000801C294405D011F8016B05F8016B401EA3
:1093B000F9D1A3420ED013F8016B16F0030104BFDC
:1093C00013F8011BC91C30090F28DAD113F8010B5F
:1093D0000F30D6E7F0BC02F10C00704781EA0003C1
:1093E0009B0717D1820707D010F8012B11F8013B1A
:1093F000BAB19A42F6D014E002680B689A42A2F120
:10940000013301BF934313F0803F50F8042F51F80C
:10941000043FF3D010F8012B11F8013B0AB19A4236
:10942000F8D0D01A704730B4002513E050F8042B60
:10943000D30744BFA9F101039A18091F042942F870
:10944000045BFAD213468C0744BF15809B1CC907E6
:1094500048BF1D7050F8041B0029E7D130BC70478D
:1094600081423ABF5318984200F07AB880189907A1
:1094700007D0521E24BF13F8011D00F8011DF6D8B5
:10948000704781071BD1103A07D330B433E932104B
:10949000103A20E93210F9D230BC1032121F24BF2A
:1094A00053F8041D40F8041DF8D838BF121D521E91
:1094B00024BF13F8011D00F8011DF8D87047121FD2
:1094C000F3D3C10709D153F8041D121F20F8041D5E
:1094D0004FEA31414180F6D2E7E753F8041D121FED
:1094E00000F8041D4FEA3121A0F801104FEA314184
:1094F000C170F2D2D9E7000062F30F2262F31F427B
:10950000401810F0030308D0C91A1FD3DB0748BF67
:1095100000F8012D28BF20F8022D130030B41446A6
:109520001546103928BF20E93C00FAD8490728BF62
:1095300020E90C0048BF40F8042D890028BF20F81E
:10954000022D48BF00F8012D30BC7047C91818BF64
:1095500000F8012DCB0728BF00F8012D70477600D9
:1095600062B38B0708D0521E11F8013B00F8013B93
:1095700000F024808B07F6D1830740F0208000BFE5
:10958000103A07D330B4B1E83810103AA0E83810D8
:10959000F9D230BC530724BFB1E80810A0E8081086
:1095A00044BF51F8043B40F8043BD20724BF31F8D4
:1095B000022B20F8022B44BF0B7803707047121F58
:1095C00017D35B0009D151F8043B20F8023B1B0C78
:1095D000121F20F8023BF6D20BE051F8043B00F8D2
:1095E000013B1B0A20F8023B1B0C121F00F8013B39
:1095F000F3D238BF121D521E24BF11F8013B00F8F0
:10960000013BF8D8704710B5044601F0CAFF014687
:109610002046096ABDE81040084710B50400200044
:1096200001F0D2FF10BD2DE9F84F06000F00B6F88B
:109630001080B8F1040818EB0700C01CB0FBF8F963
:10964000300001F0DFFF0500002D01D1002027E0F0
:109650000020287101206871A5F806800095CA468F
:109660005FFA8AFABAF1010A009806605FF0000B0F
:10967000D34514D2300001F0C5FF0400002C09D0FE
:109680006879401C687100980460266000941BF1A2
:10969000010BEDE7280000F005F8002000E02800AD
:1096A000BDE8F28F2DE9F84F05002E0077792900EB
:1096B000B8465FFA88F8B8F101080020404502D2A8
:1096C0000968401CFAE7D1F80090AA465FF0000B49
:1096D0003800C0B283450AD2DAF8000004005146CF
:1096E000484601F0BBFFA2461BF1010BF0E7BDE8C5
:1096F000F18F38B5040025000121281D01F000FA82
:1097000031BD7CB5040025000121281D01F006FAB9
:1097100000906E463078002802D12000FFF7C2FF8B
:1097200073BD2DE9FF4F87B007980190DDF81C80CD
:109730000198C688019840794643361F0198C08831
:1097400000900A98001D0099B0FBF1F50A99091DD7
:109750000098B1FBF0F7009800FB17170998016813
:109760000A9841188E4202D20A9C341B01E00998E3
:10977000046809980460002D03D0D8F800806D1E9D
:10978000F9E75FF00009DDF800A0BAEB070A5445DD
:1097900001D2A246FFE7002C31D00898484403903C
:1097A00008EB0700001D02909DF8500000280BD028
:1097B000CDF814A002980490DDF80CB0059A049935
:1097C0005846FFF7CDFE0AE0CDF814A003980490A8
:1097D000DDF808B0059A04995846FFF7C1FE00204D
:1097E0000700D8F80080B4EB0A041AEB09090098C6
:1097F000844201D2A246CEE7DDF800A0CBE70BB051
:10980000BDE8F08FFEB504000D0016001F000196A4
:10981000002000903B0001AA29002000FFF781FFF3
:10982000F7BDFEB504000D0016001F0001960120D3
:1098300000903B0001AA29002000FFF772FFF7BD4E
:109840005FEA000C80EA01039B0715D1830706D06D
:1098500011F8013B00F8013BB3B18307F8D10A6866
:10986000B2F1013323EA020313F0803F02BF40F854
:10987000042B51F8042FF3E711F8013B00F8013BEA
:1098800013B111F8013BF9E76046704704E010F8A6
:10989000013B6BB1491C521E52B10B7890F800C0CD
:1098A0009C45F4D002D24FF0FF3070470120704742
:1098B0000020704710B50446A4F120005F280BD3A8
:1098C000204601F0E4FE38B9204601F0EAFE401ED1
:1098D0008041C043C00F10BD012010BD70B50D7890
:1098E0008DB970BD11F8013F1678B34206D0401C07
:1098F000294601F0E1FE40B10146224612F8013F3F
:10990000002BEFD170BD0C46F2E770BD38B50400F6
:109910000D00280708D5200001F0D9FE002803D04B
:10992000200001F0DEFE00E0200032BD2DE9F84FFE
:1099300006000F009046002E01D1002071E0307823
:10994000212802D030785E2801D1012500E00025D1
:10995000002D00D0761C01245FF0000A41463078CB
:10996000FFF7D4FF761C81464846C0B25D2801D17E
:10997000002C51D0002004004846C0B22F2802D14C
:109980005FF0FF304DE04846C0B25C2808D15FEA86
:10999000C87005D441463078FFF7B8FF761C814681
:1099A0004846C0B2002801D100203AE030782D2886
:1099B0002BD141467078FFF7A9FF83465846C0B2C5
:1099C000002822D05846C0B25D281ED0B61C58468A
:1099D000C0B25C2808D15FEAC87005D4414630782F
:1099E000FFF794FF761C83465846C0B2002801D189
:1099F000002016E04846C0B28742AFDB5846C0B2EE
:109A0000B842ABDB01208246A8E74846C0B2B84264
:109A1000A4D101208246A1E7AA4501D10026FFE793
:109A20003000BDE8F28F2DE9F84F05000C0016005C
:109A3000002D01D0002C01D10120E8E05F1E002B99
:109A400001D10320E3E0A04631002878FFF75EFF54
:109A50006D1C82465046C0B200280AD02A2833D056
:109A60003F2814D05B2800F092805C2800F0B4807E
:109A7000C1E0F00604D520782F2801D10020C6E0EF
:109A80002078002801D1002000E00120BFE02078EC
:109A9000002801D10120BAE020782F2803D1B00797
:109AA00001D50120B3E020782E280BD1700709D50D
:109AB000444505D0B00705D514F8010C2F2801D175
:109AC0000120A4E0641CBFE731002878FFF71EFFE7
:109AD00082465046C0B22A2806D16D1C3100287833
:109AE000FFF714FF8246F4E720782E280BD1700789
:109AF00009D5444505D0B00705D514F8010C2F2829
:109B000001D1012083E05046C0B200280FD1B00738
:109B10000BD5F00605D42F21200001F0CDFD002843
:109B200001D1002000E0012071E000206FE05046EC
:109B3000C0B22F280BD1B00709D52F21200001F08A
:109B4000BBFD0400002C01D1012060E07CE7310066
:109B50002078FFF7DBFE83465846C0B2002814D0B9
:109B60003B0036F0040221002800FFF75CFF0100F3
:109B7000012804D15846C0B22F2804D101E00800C2
:109B800045E0B00701D4641CE1E701203FE0207804
:109B9000002801D101203AE020782F2803D1B00716
:109BA00001D5012033E031002078FFF7AFFE32000D
:109BB00001002800FFF7BAFE8146002801D10120EC
:109BC00025E019F1010F04D120785B2802D0012093
:109BD0001DE04D46641C37E7F0070CD431002878AF
:109BE000FFF794FE6D1C82465046C0B2002802D199
:109BF000002082466D1E31002078FFF787FE641C2E
:109C00005146C9B2814201D0012000E01CE7BDE805
:109C1000F28F70B504000D001600402332002900B9
:109C20002000FFF700FF70BDF8B51446402CA0B02F
:109C300005460E460AD23CB12878317805F8011B5A
:109C4000641E06F8010BF7D121B0F0BD8027802CEF
:109C500098BF27463A4629466846FFF781FC3A46B0
:109C600031462846FFF77CFC3A4669463046FFF706
:109C700077FCE41B3D443E44E8D121B0F0BD2DE922
:109C8000F0411C46402CA0B005460E4690460DD231
:109C90005CB1287898F8001005F8011B641E327832
:109CA00008F8012B06F8010BF3D11CE08027802C6B
:109CB00098BF27463A4629466846FFF751FC3A4680
:109CC00041462846FFF74CFC3A4631464046FFF7EE
:109CD00047FC3A4669463046FFF742FCE41B3D44E8
:109CE0003E44B844E2D120B0BDE8F0812DE9F8430C
:109CF000054689461746A9EB0508A0B0B8443C00C4
:109D000015E08026802C98BF2646B91B3246494470
:109D10006846FFF725FCA8EB06022946A819FFF7BD
:109D20009FFB324669462846FFF71AFCA41BE8D180
:109D300021B0BDE8F0832DE9F04104460D46069FB1
:109D40001646984621462846B847002804D542467C
:109D500029462046FFF768FF29463046B8470028C5
:109D600004D5424631462846FFF75EFF2146284685
:109D7000B847002805D5424629462046BDE8F041AF
:109D800052E7BDE8F0812DE9F84F4F0003FB01F4E5
:109D9000BF1C00EB040B03FB07F4DDF828800091E7
:109DA000061905460C4691469A4617E0CAF100008E
:109DB00034184F4504D021463046C047002801D50D
:109DC0007F1E26465246314658463C46FFF72CFF3A
:109DD0007F00BF1CB3460AFB07F02E18B945E5D239
:109DE0000099A14210D2641E64080AFB04F02F18E7
:109DF00039465846C047002806DD5246594638467F
:109E0000FFF712FFBB46EBE7BDE8F18F2DE9F54FF9
:109E1000A3B088462E9E1C46BFE0FF087F1C2398F7
:109E200000966743234600EB4702C119FFF783FF03
:109E3000C7F1000B00962346EA19294605EB0B00F3
:109E4000FFF779FF7800D3444042009623465246FC
:109E500059465044FFF76FFF2398009623465A4611
:109E60002946C019FFF767FF029D00E03D46239891
:109E7000A84206D201996F1829463846B0470028F3
:109E8000F4D0C14580F0238129464846B0470028D8
:109E900008BFA144F5D01AE123464A462946404668
:109EA000FFF7EDFE0EE023982E9E874240F098804B
:109EB0000099884558D0C145EED1224629464046F2
:109EC000FFF7B2FEA0442544A1440098804580F0ED
:109ED000038141462846B047002807D400F3FC80A0
:109EE000224641464846FFF79FFEA144A044ECE7C6
:109EF00026464FF0800B802E98BFB3465A4639460F
:109F000002A8FFF72DFB5A4651463846FFF728FBBB
:109F10005A4602A95046FFF723FBB6EB0B065F44F7
:109F2000DA44E6D1019FDDF88CA0BA45BBD260428D
:109F30003818019029462E9A90470028F2D4B2DCB6
:109F400060420544DDF804A0402C2F46D0D2002CFE
:109F5000E8D0204639789AF8002007F8012B401EF7
:109F60000AF8011BF6D1DDE72498400800EB500009
:109F70002490A5EB0A050098249A0096A0EB09000E
:109F8000B5FBF4F5B0FBF4F8A845234644D3239879
:109F90002946FFF73BFFCDF88C902498002841D04C
:109FA000B8F1210F3ED323984FEA580104FB08F87B
:109FB0008044614345186042019008EB000A2398F1
:109FC0000295AAEB0000B0FBF4F7292F05EB04097A
:109FD000BFF423AF2398009623465246294641E713
:109FE000604200993F18884510D10544AF42814432
:109FF00005D1224649462846FFF716FE65E7234667
:10A000002A4649463846FFF73AFE5EE72246394679
:10A010004046FFF709FE69E741464846FFF7F6FE6E
:10A02000A846BAE7B8F1210F2AD35FEA58050BD04A
:10A03000239F6D1E00962346424629463846FFF769
:10A04000A2FE002DF5D12397239804FB08F14518B3
:10A05000C4F1000907464D44224629463846FFF719
:10A06000E3FDA8F101080096234642460021384648
:10A07000FFF789FEB8F1010FEDD825B0BDE8F08FEC
:10A08000B8F1010FF9D923984546C4F100090746F4
:10A09000804604E0224641463846FFF727FE6D1E03
:10A0A000EBD0A04439464046B0470028F2D4C2461F
:10A0B000C34600E0DA46CB4459464046B047002844
:10A0C000F8D4C245EBD0224641465046E5E7CDF8EC
:10A0D00000802F46C846F8E62E9624E7002800D1D7
:10A0E00070471CB51C0004D0009313460A46FFF7C6
:10A0F0008DFE13BD38B504000D0029002000226834
:10A100001268904731BD10B50400200021684968ED
:10A11000884710BD10B50400200021688968884771
:10A1200010BDC26811717047C06800797047012185
:10A13000C26851717047C0684079704770B50500BA
:10A140000E00DFF82809FF21816000210160002155
:10A1500041600021C0F818140021C0F81414002137
:10A1600080F82014DFF80809FFF757FA0400002CE4
:10A1700001D020000AE0DFF8FC0801F0BCFADFF8AB
:10A18000F808DFF8F818411AC908002070BDDFF898
:10A19000E808DFF8E818401AC008704770B50400F6
:10A1A0000D002800C0B2002814D0FFF7F0FF010016
:10A1B00000228A420CD2DFF8C80800EB820318881C
:10A1C0002668B04202D12260002004E0521CF0E771
:10A1D000052000E0002070BD11B581B00C00210009
:10A1E000C9B201A8FFF7DAFF002806D1DFF894080A
:10A1F000019900EBC100006800E0002016BD0200DC
:10A20000DFF8800800EBC2030800C0B2012806D0C6
:10A210000DD3032807D004D3042806D007E002207A
:10A2200006E0042004E0187902E0587900E00020FC
:10A23000C0B2704710B4030000201A68C2F3800255
:10A24000002A18D01A7812F00302012A02D0022A3A
:10A2500008D00EE00A681C68C4F38314A41CA2187A
:10A260000A6006E00A681C68A40DA41CA2180A6013
:10A27000FFE701221000C0B210BC70472DE9F8437F
:10A2800084B00024DFF8E45715F5836000F053FC38
:10A2900005F21449484600F04EFC68680090AE682C
:10A2A0000098304005EB800010F10C07694638003B
:10A2B000FFF7C0FF002806D00098304005EB800073
:10A2C0000C300700F2E75FF00008B8F1020F0DD282
:10A2D0000098304005EB8000C06801A941F82800D3
:10A2E0000098401C009018F10108EEE7019810F06A
:10A2F000030001280CD0022814D1BDF80A00040084
:10A3000000980199890DC91C10EB9100009009E09B
:10A31000BDF80A00040000990198C0F383104118A9
:10A320000091FFE7484600F00DFC0100002901D034
:10A3300000986860A4B2200005B0BDE8F08380B545
:10A340000021DFF8440700F0A5FB010081F31000B5
:10A3500002BD2DE9F84304000D0016001F00DDF8D2
:10A360002080A1465FEA1949FFF7E9FFDFF8FC16F4
:10A370007A1C18EA020201EB820259EA0043D36018
:10A3800018EA070201EB82010C310A6864F3C50286
:10A390000A600A6866F389120A600A6865F39F22F8
:10A3A0000A6001220B6862F301030B600A6832F055
:10A3B00004020A60BDE8F1832DE9FE4F04000D00A0
:10A3C0001600A01C0190012700208DF800006846AF
:10A3D00001F0F4F9DFF89486D8F800002860D8F886
:10A3E0000800401CD8F80090B0EB0909D8F8040028
:10A3F00010EB09090198814517D208F21C4B012185
:10A40000584600F07DFBFFF739FF8246514658461B
:10A4100000F076FBD8F80810491CD8F80000091A9B
:10A42000D8F8040041188946E4E73800C0B2002893
:10A4300023D000213000C0B2002807D0012060F3F3
:10A44000010151F0040164F3891106E0022060F378
:10A45000010151F0040164F39F51D8F80020D8F8AD
:10A460000800024008EB820010F10C021160D8F8DD
:10A4700000300198C318C8F800309DF8000001F0C2
:10A48000A3F93800C0B2BDE8FE8F2DE9FE4F0400ED
:10A490000D0016001F00DFF8D495D9F808800122BE
:10A4A00001A93800FFF788FF00281BD0DDF804A0C1
:10A4B0001AF1020A5FF0000BBB450BD218EA0A0042
:10A4C00009EB800056F82B10C1601AF1010A1BF14C
:10A4D000010BF1E7CDF80080019B3A002900200034
:10A4E000FFF737FF99F82004002803D000F0F3F8B5
:10A4F0000028FBD1BDE8F78F38B504000D0000231C
:10A50000002229002000FFF7C0FF31BD7CB5040008
:10A510000D001600009601236A4629002000FFF76F
:10A52000B4FF73BDFEB504000D0016001F000096B9
:10A53000019702236A4629002000FFF7A6FFF7BD16
:10A540002DE9FF4104000D0016001F00DDF82880F2
:10A5500000960197CDF8088003236A462900200061
:10A56000FFF793FFBDE8FF812DE9F84F86B00400A7
:10A570000D0016001F00DDF84080DDF84490DDF886
:10A5800048A0DDF84CB000960197CDF80880CDF8D2
:10A590000C90CDF810A0CDF814B006236A4629001F
:10A5A0002000FFF772FF07B0BDE8F08F2DE9F04FF4
:10A5B00085B004000D001600DFF8B074B868019093
:10A5C00000226946300080B2C01C8008FFF7F4FE0C
:10A5D00000286AD0DDF800800098801C0090B968DF
:10A5E000491C009A01980240891A5FEA81093000EB
:10A5F00080B2814510D3B2461FFA8AFA02950099BB
:10A600000198014007EB810010F10C0B52460299B2
:10A610005846FEF7A5FF1DE0CDF810900395009970
:10A620000198014007EB810010F10C0A049A03998C
:10A630005046FEF795FFB2461FFA8AFABAEB090AAE
:10A6400005EB0900029017F10C0B5246029958468F
:10A65000FEF786FFA2465FEA1A4AFFF770FE18F17E
:10A66000010201990A4007EB82015AEA0042CA60DE
:10A67000019911EA080107EB81010C310A6864F3C2
:10A68000C5020A600A686FF38F120A60320092B244
:10A690000B6862F39F530B6002220B6862F30103A5
:10A6A0000B600A6832F004020A6097F82004002860
:10A6B00003D000F010F80028FBD105B0BDE8F08F02
:10A6C000DFF8A80341680068814201D1012000E061
:10A6D0000020C0B270472DE9F04F8BB0FFF7F0FFBC
:10A6E000002801D000205FE1DFF880730020C7F868
:10A6F0001804BFF34F8F78680090B86802900099F3
:10A700000298014007EB81000C30099000250026DB
:10A710000020089069460998FFF78CFD002813D0A7
:10A72000D7F8180400280FD100983968884203D35D
:10A7300038687860002037E100990298014007EB03
:10A7400081000C300990E5E75FF00008B8F1020FD6
:10A750000ED200990298014007EB8100C06803A95E
:10A7600041F828000098401C009018F10108EDE71E
:10A77000039810F00300022840F07F80DDF80C9071
:10A780005FEA99590398800D502804DADDF80CA08F
:10A790005FEA9A5A01E05FF0500A03986AF39F500B
:10A7A00003901AF108000A900398C0F3C2000890C1
:10A7B0000A99AF48FEF737FF0500002D00F0A28090
:10A7C0002800FEF796FF3300082203A92800FFF7B0
:10A7D00019F808360299491C009A02980240891A11
:10A7E0008C00544535D2002C07D0009902980140C6
:10A7F00007EB81000C30079002E017F10C00079086
:10A80000002C01D0A34600E0D346002C03D017F162
:10A810000C00069001E000200690002C02D0BAEB5C
:10A82000040000E000208DF8040033005A46D2B244
:10A8300007992800FEF7E6FF56FA8BF606980028DF
:10A8400014D033009DF8042006992800FEF7DAFFA3
:10A850000CE000990298014007EB810010F10C0B0D
:10A860003300524659462800FEF7CCFF009819F1F4
:10A87000030910EB9900009044E0039810F00300E6
:10A8800001283FD10398C0F38310062803DA039808
:10A89000C0F3831000E00620039960F3891103914F
:10A8A0000398C0F38314A41C0398C0F3C20008905B
:10A8B000A1006F48FEF7B7FE0500002D22D028004A
:10A8C000FEF717FF3300082203A92800FEF79AFFBE
:10A8D0000836002080460398C0F38310804511D2CB
:10A8E0000099481C0090330004220298014007EBB5
:10A8F000810010F10C012800FEF784FF361D18F1CD
:10A900000108E8E7002D33D0D7F81044D7F8180431
:10A91000002803D02800FEF7F4FE3DE0002C13D001
:10A920005FF000092000FFF706FC012801D101209B
:10A9300081464846C0B2002803D029002000FFF716
:10A94000D9FBE0680468E9E72800FEF7DAFE00209A
:10A950008DF8040001A800F031FFD7F81804002892
:10A9600001D1009878609DF8040000F02DFF13E0FD
:10A97000D7F81044002C05D02000FFF7CBFBE0688F
:10A980000468F7E7414942483C4A801AC00800047D
:10A9900050F00200FFF7B0FDFFF792FE002801D152
:10A9A000012000E00020C0B20BB0BDE8F08F70B510
:10A9B00000260A2E1ADA2D48D0F8100404000120CF
:10A9C0000500002C0AD02000FFF7AEFBB04202D1F8
:10A9D0000020050002E0E0680468F2E72800C0B249
:10A9E000002801D0300003E0761CE2E75FF0FF3082
:10A9F00070BD70B504000D00FFF7D9FF060016F119
:10AA0000010F01D130001BE030000100C9B220006D
:10AA1000FFF787FB1549D1F81004002805D1C1F8CC
:10AA200010440020E168086009E0D1F81004C06813
:10AA30000068E2681060D1F81004C068046030005B
:10AA400070BD10B50948D0F81044012180F82014D9
:10AA5000002C08D02000FFF76AFB2000FFF753FB13
:10AA6000E0680468F4E710BD00000000B86C002046
:10AA7000ACDC030024E303006CB20300CCB10300A0
:10AA800000000000CCB10300D47000201CDB0300E8
:10AA900014B2030010B4020052E8000F0B4642E863
:10AAA000003494F0000FF7D110BC704710B40200CE
:10AAB00052E8003F43EA010042E8000494F0000F2E
:10AAC000F6D110BC7047000010B4020052E8000F2D
:10AAD00000EA010342E8003494F0000FF6D110BC04
:10AAE0007047000010B4020052E8003F03EA010082
:10AAF00042E8000494F0000FF6D110BC704700004B
:10AB000010B4020052E8003F03EB010042E80004E9
:10AB100094F0000FF6D110BC7047000010B4020092
:10AB200052E8003FA3EB010042E8000494F0000F5C
:10AB3000F6D110BC704710B5040001212000FFF7CA
:10AB4000B5FF10BD10B5040000212000FFF7BCFFC9
:10AB500010BDFEE738B504000D002800C0B20A2879
:10AB600003D10D212000FFF7F5FFA068411CA16073
:10AB700021680D54A0686168884202D32000FEF766
:10AB8000B3FB31BD2DE9F84307000D0014009846D2
:10AB90005FF000095FEAC87018D528780600300019
:10ABA000C0B2002808D06D1C19F101093100C9B2EA
:10ABB0003800FFF7CFFFF0E7A14526D2002C24D0C4
:10ABC000641E20213800FFF7C5FFF5E7002D03D0F4
:10ABD0002800FEF7ABFB8146A14507D2002C05D02B
:10ABE000641E20213800FFF7B5FFF5E7287806003E
:10ABF0003000C0B2002808D06D1C19F101093100E5
:10AC0000C9B23800FFF7A6FFF0E7BDE8F1832DE9F0
:10AC1000FE4F0700884691461E000C9CC3465FF01D
:10AC2000010ACB4504D3BBFBF9FB1AF1010AF8E793
:10AC3000B24500D2B2460D98C00718D4002C16D0E9
:10AC40000D98800705D5002E03D130208DF8000027
:10AC500002E020208DF80000002C08D0A24506D28A
:10AC6000641E9DF800103800FFF774FFF4E701251B
:10AC7000022E01D3761E05E0B8FBF5F00190019895
:10AC8000484502D309FB05F5F2E7B8FBF5F0019062
:10AC9000019805FB10880D480199415C3800FFF7C9
:10ACA00059FFB5FBF9F5002DEFD10D98C0070BD575
:10ACB000002C09D0002C07D0A24505D2641E20210B
:10ACC0003800FFF747FFF5E7BDE8F78F50DF0300D7
:10ACD0002DE9FE4F06000F0090461D000C9CDDF88C
:10ACE0003490002F02D5D7F1000A00E0BA465FF099
:10ACF000010BC24504DB9AFBF8FA1BF1010BF8E7E4
:10AD0000AB4500D2AB46002C05D0002F02D45FEA41
:10AD1000497000D5641E5FEA897001D5002D0ED000
:10AD20005FEAC9700BD4002C09D0002C07D0A345D2
:10AD300005D2641E20213000FFF70CFFF5E7002F3D
:10AD400005D57F422D213000FFF704FF06E05FEAC2
:10AD5000497003D52B213000FFF7FCFE19F00300EA
:10AD600002280DD1002D0BD1002C09D0002C07D0CA
:10AD7000A34505D2641E30213000FFF7EBFEF5E756
:10AD8000CDF8049000942B00424639003000FFF7C4
:10AD90003EFFBDE8F78F2DE9FE4F06000D001700BE
:10ADA000002D00F01981287883466D1C5846C0B2EA
:10ADB000002800F00B815846C0B2252840F0FD80E5
:10ADC0000020804601200400287883465846C0B2FF
:10ADD0002B280CD02D2802D0302804D00BE058F0BE
:10ADE00001086D1C09E058F002086D1C05E058F0E0
:10ADF00004086D1C01E000200400002CE4D10020B8
:10AE000081465846C0B22A280AD138683860386866
:10AE100000683968091D396010EB09096D1C12E0E2
:10AE2000287883465846C0B2302803DB5846C0B263
:10AE30003A2800DB07E06D1C0A205946C9B23039B8
:10AE400000FB0919DDE70020824628780100C9B21D
:10AE50002E2913D16D1C297808000100C9B23029B0
:10AE600003DB0100C9B23A2900DB07E06D1C0A21AF
:10AE70000200D2B2303A01FB0A2AECE795F800B0A2
:10AE80005846C0B26C2803D05846C0B2682803D1D7
:10AE90006D1C28788346F3E75846C0B2252800F099
:10AEA0008580582845D063280CD064281BD0692899
:10AEB00019D070285FD073284ED0752826D07828F6
:10AEC00037D078E038683860386800683968091D1C
:10AED0003960040020008DF800009DF8001030005B
:10AEE000FFF738FE67E0386838603868006839680E
:10AEF000091D39600400CDF80480CDF80090534658
:10AF00000A2221003000FFF7E3FE54E03868386081
:10AF1000386800683968091D39600400CDF804807C
:10AF2000CDF8009053460A2221003000FFF76FFE53
:10AF300041E038683860386800683968091D396050
:10AF40000400CDF80480CDF8009053461022210073
:10AF50003000FFF75CFE2EE0386838603868006823
:10AF60003968091D3960009043464A46009930000F
:10AF7000FFF708FE1FE038683860386800683968F5
:10AF8000091D3960040030213000FFF7E3FD78210E
:10AF90003000FFF7DFFD002001900820009008231B
:10AFA000102221003000FFF732FE04E0252130009E
:10AFB000FFF7D0FDFFE76D1C04E05946C9B2300031
:10AFC000FFF7C8FD287800287FF4EDAE307B00281D
:10AFD00002D03000FEF788F9BDE8F78F8068D0F81E
:10AFE0005403400810F0010070472DE9F44F8AB077
:10AFF00083460C005846FFF7F1FF002805D00022D9
:10B0000000215846FDF772FC48E0022C05D3274A80
:10B0100002215846FDF798FB40E025492548091ACA
:10B020001820B1FBF0F50026AE4237D22248182195
:10B0300001FB06F100EB0107F8680990D7F80880DA
:10B040003800006880688146380000F02CF982469C
:10B0500078690890387C002801D1184800E0184829
:10B0600064210790CDF81880CDF8149001FB09F009
:10B07000B0FBF8F00490CDF80C80CDF808A001FBEF
:10B080000AF1B1FBF8F0019009980090089B0D4A75
:10B0900008215846FDF758FB761CC5E70BB0BDE804
:10B0A000F08F8068084909784018704730DB03004A
:10B0B00078C7030048C7030048C7030054E30300F0
:10B0C00060E30300E8B2030072E803008068814295
:10B0D00001D2491C00E000210800704770B504004F
:10B0E0002068056820684668AE4201D3751B04E0FD
:10B0F0002000FFF7D6FF451B7519280070BD70B5FD
:10B100000400206805682068466831002000FFF7C9
:10B11000DDFFA84201D1012000E00020C0B270BDD7
:10B120002DE9F84F04000D00002600208DF80000E6
:10B13000684600F043FB2000FFF7E1FF07003800FE
:10B14000C0B2002802D0207C00284CD12068D0F862
:10B150000480206841682000FFF7B8FF216848603C
:10B160003800C0B2002806D0206801682000FFF730
:10B17000ADFF21680860E068012806D0022809D0E8
:10B1800004280CD008280FD016E02878616801F850
:10B1900008001EE02888616821F8180019E0286876
:10B1A000616841F8280014E0D5E90001626802EB0B
:10B1B000C802C2E900010CE0D4F80C90AA4660680D
:10B1C000D4F80CB00BFB080B4A4651465846FEF724
:10B1D000C7F92000FFF782FF21688968814204D205
:10B1E0002168886001E0042006009DF8000000F05E
:10B1F000EBFA3000BDE8F28F2DE9F84F04000D00A6
:10B200001600002700208DF80000684600F0D6FAEE
:10B21000200000F05AF800283CD12068D0F80080C7
:10B220003000C0B2002806D1206801682000FFF776
:10B230004DFF21680860E068012806D0022809D087
:10B2400004280CD008280FD016E0606810F8080019
:10B25000287021E0606830F8180028801CE06068E1
:10B2600050F82800286017E0606800EBC800D0E9BB
:10B270000001C5E900010FE0D4F80C906068D4F833
:10B280000CA00AFB080AAB464A4651465846FEF750
:10B2900067F901E0052007009DF8000000F094FA2E
:10B2A0003800BDE8F28F38B5040000208DF80000AA
:10B2B000684600F083FA2000FFF710FF05009DF8B4
:10B2C000000000F081FA280032BD016809680268B8
:10B2D0005268914201D1012000E00020C0B27047C5
:10B2E0000021026891607047704738B504000D0076
:10B2F000E088002807D08C480090E3888B4A8C496E
:10B300002800FDF7FEFF207A05281FD0607A00286C
:10B310000BD0217AA088FEF772FF8649C0B251F89F
:10B3200020207BA12800FDF7ECFF21682800FFF713
:10B33000DBFF0021A088FEF74FFF03007E48217A43
:10B3400050F821207D492800FDF7DBFF31BD70B5A5
:10B3500004000D001600207A05280DD0607A002820
:10B3600005D0744802686AA12800FDF7CAFF69A1E8
:10B370002800FDF7C6FF07E03000C0B2002803D068
:10B3800064A12800FDF7BDFF2800FDF7ADFF70BDEB
:10B390002DE9F84384B004000D0016001F00DDF80D
:10B3A000308098F80C90002088F80C004146380056
:10B3B000FFF79BFF002E09D0022E12D00BD3042ED4
:10B3C0001FD015D3062E34D026D341E021004046AD
:10B3D000FDF797FF3CE02A6821004046FDF791FF0A
:10B3E00036E06B682A6821004046FDF78AFF2FE0AF
:10B3F000A86800906B682A6821004046FDF781FF2D
:10B4000026E0E8680190A86800906B682A6821002F
:10B410004046FDF776FF1BE028690290E86801903E
:10B42000A86800906B682A6821004046FDF769FF14
:10B430000EE06869039028690290E8680190A868A6
:10B4400000906B682A6821004046FDF75AFFFFE72D
:10B45000002241463800FFF77AFF88F80C9005B0CB
:10B46000BDE8F0832DE9F04704000D0016001F0031
:10B47000092D4AD297F80C8000203873390030002B
:10B48000FFF733FF5FF0000ABAF1080F0FD2AA45A9
:10B4900006D214F80A202A493800FDF732FF03E0EB
:10B4A0001DA13800FDF72DFF1AF1010AECE71BA1E1
:10B4B0003800FDF726FF5FF00009B9F1080F1DD233
:10B4C000A94514D214F809A05046C0B27F2808DA62
:10B4D0005046C0B2FEF7EEF9002802D05246D2B272
:10B4E00000E02E220EA13800FDF70BFF03E00DA1B6
:10B4F0003800FDF706FF19F10109DEE701223900E6
:10B500003000FFF724FF87F80C80BDE8F0870000CB
:10B51000257300000D0A0000202020007C000000A0
:10B520002563000020000000C8E60300D8E6030001
:10B5300048D80300AC6700209867002030E3030080
:10B5400010E70300613807E005E0A0F161011A2966
:10B5500001D20120704741381A288041C00F70473E
:10B56000A0F121010F290AD3A0F13A02062A06D937
:10B57000A0F15B01062902D37B380428EDE7012006
:10B580007047A0F10901052901D3202801D101202C
:10B59000704700207047A0F141011A2938BF2030C0
:10B5A0007047014870470000E4670020C268C9B2D4
:10B5B000008A414302EB01007047C268891A008A81
:10B5C000B1FBF0F0C0B2704710B40100002901D106
:10B5D0000E2015E088684A68821A48680B6818606F
:10B5E0001000421EC0B2002806D008680068431C44
:10B5F0000C6823600270F3E700200B6818710020CC
:10B6000010BC704738B50400002500208DF80000FC
:10B61000684600F0D3F8606821680968884217D24C
:10B6200020680068401E2168086020680068017872
:10B630002000FFF7BBFF0500A16820680068081A1A
:10B64000216809790200D2B2914201D221680871C1
:10B650009DF8000000F0B8F8280032BDF8B50400ED
:10B660000D002E0000208DF80000684600F0A6F8BE
:10B6700020680768781C2168086031002000FFF707
:10B680009CFF38709DF8000000F09EF8F1BD10B5E9
:10B690000446FFF786FF014620460969BDE81040D1
:10B6A000084710B50446FFF77CFF01462046C969EC
:10B6B000BDE810400847FEE70278C9B28A421AB1D5
:10B6C0001CBF10F8012FF9E718BF0020704710B514
:10B6D0000446FFF766FF01462046496ABDE8104070
:10B6E000084710B50446FFF75CFF01462046896A0B
:10B6F000BDE81040084700218268916000218268FF
:10B70000116100218268516100218268D1600021AD
:10B71000826851600021826811607047EFF31080E9
:10B7200072B6704762B6704738B50500FFF7F6FF8E
:10B7300004001C498868002810D1012088601A483C
:10B740001A4A136803400B601060194802684A6087
:10B750005FF0FF3101600020287001E001202870B7
:10B76000002C01D1FFF7DEFF002032BD70B50500CF
:10B770000C4EB068002812D02800C0B200280ED1AC
:10B78000FFF7CCFF040030680A49086070680A4976
:10B7900008600020B060002C01D1FFF7C3FF00203B
:10B7A00070BD00005C850020FC06FFBD80E100E06C
:10B7B00084E100E000E100E004E100E010B50400F5
:10B7C0002000FFF7B1FF10BD10B504002000C0B28B
:10B7D000FFF7CCFF10BDFEE700F5E0700268914274
:10B7E00003D343681A44914202D380680028F5D1FC
:10B7F0007047DFF86C17086890B94FF480504860C4
:10B800004FF480324FF0FF30C86008610420DFF849
:10B8100054378A604861C3F8BC01DFF84C07086000
:10B820000120704701F1080313F0070F0EBF00233A
:10B83000C3F1080303F007031944D21A8161C260FF
:10B8400042F001034B60091D4FF0280C41F802C083
:10B85000DFF80C271369C36170472DE9FC4B0746DD
:10B8600001F1080010F0070F0FBF8946C0F1080072
:10B8700000F0070001EB000902F1080111F0070FC9
:10B8800006D002F10800C0F1080000F007000244F1
:10B890001546A5EB090009EB0306A0EB030B43F0EB
:10B8A0000303C9F80430AE4228BF01F005FA287935
:10B8B000C10758BF01F000FABBF1100F38BF01F00B
:10B8C000FBF9B869854208D1F9688B44C7F80CB018
:10B8D000BE614BF00100706051E1786985420AD188
:10B8E000B9688B44C7F808B07E614BF00100706006
:10B8F00046F80BB043E1686800F00301012940F00D
:10B90000AC80C008C0000190C0081F2839D8AC68BE
:10B91000D5F80C800090454508BF01F0CDF9A5424F
:10B9200008BF01F0C9F968680099C008C000B0EB11
:10B93000C10F18BF01F0C0F9009907F1280000EB12
:10B94000C100844206D039698C42C0F08180E2682F
:10B95000AA427DD1A04506D10098396801238340D1
:10B960009943396076E0804506D0396988456FD3C0
:10B97000D8F80800A8426BD1C4F80C80C8F8084079
:10B9800068E0EC68D5F81880AC420CD0A86839693A
:10B99000884223D3C268AA4204BFA168A9421DD12C
:10B9A000C460A0601CE005F114010C6834B905F115
:10B9B00010010C68A4B101E011460C6804F11402F6
:10B9C0001068002802BF04F1100210680028F3D1AB
:10B9D0003869814202D300220A6001E001F06CF96B
:10B9E000B8F1000F36D0E96907F5987000EB8100D7
:10B9F0000268954208D10460A4B9E8697968012217
:10BA000082409143796025E03869804508D3D8F8B1
:10BA10001010A94214BFC8F81440C8F8104001E043
:10BA200001F04AF9B4B139698C4211D3C4F81880D5
:10BA3000286928B1884226BF2061846101F03CF961
:10BA4000686938B13969884202D36061846101E074
:10BA500001F032F901996D188B4469684908490071
:10BA600069604BF0010070604FEADB0446F80BB0F0
:10BA70001F2C23D807F1280000EBC4084546BBF172
:10BA8000100F38BF01F018F9386820FA04F1CA071E
:10BA900005D4012101FA04F404433C6007E0D8F81E
:10BAA0000800396988422CBF054601F005F9C8F83D
:10BAB0000860EE60B560C6F80C8060E05FEA1B20AD
:10BAC00008BF002123D0B0F5803F28BF1F211ED220
:10BAD000A0F58072120C02F008029040A0F580518F
