:020000040002F8
:10600000708D002021C502003B6F0200C7750200A1
:10601000D376020013780200438E020000000000D5
:106020000000000000000000000000006BA602005D
:10603000CFB8020000000000C1C302000FC402007C
:10604000C7BE020053C40200DDC5020063C40200E3
:10605000C3C402005BC60200819E02005DC602004E
:106060005FC6020061C6020063C6020065C6020088
:1060700067C6020069C602006BC602006DC6020058
:106080006FC60200CFA2020071C6020073C60200F2
:1060900075C6020077C602006F95020079C602003D
:1060A0007BC602007DC602007FC6020081C60200D8
:1060B00083C6020085C60200000000000000000048
:1060C00087C6020089C602008BC602008DC6020088
:1060D0008FC6020091C6020093C6020000000000B5
:1060E00000000000000000000000000000000000B0
:1060F00000000000000000000000000000000000A0
:10610000000000000000000000000000000000008F
:10611000000000000000000000000000000000007F
:10612000000000000000000000000000000000006F
:10613000000000000000000000000000000000005F
:10614000000000000000000000000000000000004F
:10615000000000000000000000000000000000003F
:10616000000000000000000000000000000000002F
:10617000000000000000000000000000000000001F
:10618000000000000000000000000000000000000F
:1061900000000000000000000000000000000000FF
:1061A00000000000000000000000000000000000EF
:1061B00000000000000000000000000000000000DF
:1061C00000000000000000000000000000000000CF
:1061D00000000000000000000000000000000000BF
:1061E00000000000000000000000000000000000AF
:1061F000000000000000000000000000000000009F
:10620000006900F0DDBD002818BF00F0F9BD70473F
:106210002DE9F8430646884614461D4600271DE032
:106220007068D0F800C0DCF80C906B46224608EB92
:106230000701C8470098C719241A78B9B1680878C7
:1062400003280BD0D1F85403C0F340100028F9D034
:10625000D1F8540320F02000C1F85403002CDFD102
:1062600028001CBF00992960BDE8F1830A46006937
:106270003DA100F0B1BD38B5406804682569A84764
:1062800031BD2DE9F843044616461D4609BBDFF82B
:10629000B002DFF8B042041BB6EBD40F2CD20027BB
:1062A000DFF8A482DFF8A49200E07F1CB7EBD40FE4
:1062B00022D209F1040050F8372058F8260011685E
:1062C00000F0F6FD0028F0D109F1040050F8371075
:1062D00013E08CB1207840B1089F6268394630469F
:1062E0009047386840B12F6008E0616836018859EE
:1062F00010B18819286001E000212960BDE8F18310
:1063000000691AA100F068BD0A0004D0D0F810009E
:1063100001A100F061BD70471B5B256444000000D3
:106320000A0004D0D0F8100001A100F055BD70475C
:106330001B5B2564430000000A0004D0D0F8100065
:1063400001A100F049BD70471B5B256441000000BE
:106350000A0004D0D0F8100001A100F03DBD704744
:106360001B5B256442000000256300000A0000005A
:10637000091A89B22046D3E7FEB5074600268DF8F4
:1063800000604FF4C071BA6802F5D67000F0D2FD1B
:10639000D7F8100039A100F01FFD3846FFF730FF95
:1063A00000254FF47A7401AB012269463846FFF7A5
:1063B00062FF019838B900BF35A14FF6C01041F017
:1063C0000101884713E09DF80010B8681B2907D029
:1063D00090F8AC111B29E6D19DF8001052290DD080
:1063E00000F5D67041556D1CADB20A2D33D201981F
:1063F0000028D8D1641ED6D10D20FEBD00F5D67080
:106400004655BC6804F5D67148785B2802D00E70FA
:106410000B20FEBD02230A27C85C5B1C3B289BB2F5
:106420001ED007FB0606303EB3F5C07FF4DB0C2020
:10643000FEBD07FB02025B1C303A9BB2B3F5C07F86
:1064400012DBF4E7B0B2FB2826BFFA2020832683B4
:1064500000200870FEBDB86880F8AC610420FEBD65
:10646000B3F5C07FE3DA0022C85C0028E1D190B226
:10647000FB2826BFFA20A082A282E3E71B5B366ED0
:10648000000000000000000000000000000000000C
:106490000338FDD870470000F8B50A00836827A1CB
:1064A00015D093F82230934219D000BF0CA6D6E93C
:1064B0000073CDE9007302F12F038DF80530836876
:1064C00083F822206A46006900F086FCC7BD0022DE
:1064D00083F82220D0F8100003A200F07DFCC7BD95
:1064E0001B5B313B33006D001B5B6D000A0000D16C
:1064F0007047F8B5826892F823308B4211D000BF04
:1065000008A501F12F03D5E90067CDE900678DF8F3
:106510000330826882F823106A46006907A100F000
:106520005BFCE3BD1B5B34006D000000806800F184
:106530002202107808705078487070472573000068
:106540007CC2020034C202008C60002034C202000F
:106550002046FFF758BEA068D0F8540370470000EB
:1065600008B47EB50D4600BF15A116460A68019213
:10657000044607AB0193A168D1F85403C0F380002F
:1065800000281CBF91F82220954214D0694620466D
:10659000FFF7CCFF29462046FFF77EFF00F012F8F8
:1065A0009DF800102046FFF777FF9DF80110204668
:1065B000FFF79CFF01E000F005F877BC5DF808FBF1
:1065C00000000000206901AA314600F06DBD2DE9F0
:1065D000F04B0C0001D1BDE8F08B0546164613B117
:1065E000B1B2FFF79DFE002700E07F1CE05D00F0E8
:1065F00041FE0028F9D1FFF7ABFFC11BA868C08B93
:10660000801B88424FF0000B04EB070817D2A94605
:106610000025834618F8050000F02CFE20B118F87C
:1066200005000A28AB4636D0D9F80810CA8B701975
:10663000904238BF6D1CEDD32DE00BF1010B8B4563
:1066400012D218F80B000A28F7D12846FFF7D8FD18
:1066500000F029F80BF1010007442846FFF750FE2F
:10666000B1B22846FFF75CFE2869E11900F0B4FBDF
:106670002846BDE8F04BFFF743BE7F1CE05D00F00D
:10668000F9FD0028F9D12846FFF73AFEB1B22846B5
:10669000FFF746FEAFE74D462846FFF7B1FD00F095
:1066A00002F85F44EAE700235A4641462846FFF7CE
:1066B000AFBD2DE9F84F82460FF2E06986B00C4677
:1066C00017464846FFF79FFD05460FF2CC60FFF7DF
:1066D0009AFD281A0FF2D06500951FFA80F8DAF8B3
:1066E00008000FF29452436800F0F0F8DAF808005E
:1066F0004068FFF788FD064600F0EBF88619DAF8E7
:10670000080081680023B2B200F0DCF80FF270528A
:1067100000215046FFF724FF002F18BF002C1CD08B
:10672000002518E00C266E43201D8059FFF76BFDF5
:106730008346A059FFF767FD83441FFA88F0584548
:1067400008D2201D8059FFF75EFD8046A059FFF753
:106750005AFD80446D1CBD42E4D30FF23C6500F04D
:10676000B8F84044801C86B20FF22058CDF8009053
:1067700000F0AAF8F01CADF808000023BDF808905E
:106780000FF210514A4600F09DF8002C00F0928064
:1067900004940397002412E05046FFF7B1FD0DE08A
:1067A00020B1009000F090F8BDF80890B968002979
:1067B000F2D000231FFA89F200F084F8641C0398D9
:1067C000844277D204990C2060430F187B683868A4
:1067D000002BE5D048B30190009508210FF2C84284
:1067E0005046FFF7BDFEB01CADF800007868FFF71B
:1067F0000AFD81463868FFF706FD834600F069F818
:10680000BDF80010A1EB0901A1EB0B018A1E101AC3
:1068100081B25046FFF784FD3A215046FFF726FD2E
:10682000BDF8000000F10109C0E70093BAE70020BD
:1068300001900025002707E000F04FF8A9B281423F
:1068400002D200F049F8054602A8009001AB3A4692
:1068500001212046FFF715FD01987F1C0028EBD190
:10686000012F2CD00FF24C4200215046FFF778FE4A
:106870004FF0000904E0FF1C0023BAB200F022F838
:1068800002A8009001AB4A4601212046FFF7F9FC1F
:10689000019809F1010990B101680091AF1CBBB2E8
:1068A00000F013F8019841680029E4D15046FFF741
:1068B00027FDE5E7DAF80800C468002CB7D107B077
:1068C000BDE8F08F504682E63346424608215046E6
:1068D00046E62846FFF797BC01980068FFF793BC8F
:1068E00038B514468268D2F85453AD0704D51A4619
:1068F0002146FFF7DEFE06E039B153680FF2C432DD
:106900000221FFF72DFE012032BD002032BD38B537
:106910000229044607D1FFF71EFE830703D5204650
:10692000BDE838402CE0AAA520690FF28042294634
:1069300000F052FA20690FF278422946BDE838404B
:1069400000F04ABA012906D0022905D18168D1F8A0
:106950005413890700D513E001A2022100E60000CC
:10696000506C656173652073706563696679206139
:1069700020737562636F6D6D616E642E0A00000096
:106980000022002195E610B5012914BF0121002144
:1069900000F07DF828B900F067F821F00401C0F894
:1069A000541310BD10B5012914BF0121002100F0BE
:1069B0006EF828B900F058F841F00401C0F85413FB
:1069C00010BD3EB501290446154603D103B0BDE80C
:1069D0003040D5E7022914BF0121002100F091F8D1
:1069E00008B900F001F837BD68680FF20031019076
:1069F000009102212B680FF2E8222046B0E57CB519
:106A00000D46022D164694BF0021012100F03FF8EB
:106A1000D0B9022D09D170680FF2D02101900091F8
:106A200002213368FFF7E7FF73BDA0680FF2D4229D
:106A3000D0F8540302B000072046BDE870404CBFB8
:106A400064A365A300218BE573BD10B5012914BFB4
:106A50000121002100F01BF828B900F005F821F011
:106A60000801C0F8541310BDA068D0F85413704743
:106A700010B5012914BF0121002100F008F828B940
:106A8000FFF7F2FF41F00801C0F8541310BD0446AF
:106A90000023002224E7F8B5012914BF01210021B9
:106AA00084B0054600F02DF848BBA8680FF26827AF
:106AB000D0F84C430026F4B1082E1CD200230A2241
:106AC00001A9204600F082FCA868BDF80C2000F562
:106AD000D6710A23521C204600F078FCA868029C5C
:106AE00000F5D671009133463A4600212846FFF75B
:106AF00037FD761CDFE7A968002081F8AC0105B0FE
:106B0000F0BD00230022EBE6E0B5012903D103B07C
:106B10005DF804EB34E702290BD151680FF2CC1376
:106B200000930191022113680FF2B412FFF718FDD0
:106B300007BD03B094BF002101215DF804EB0023E1
:106B40000022CDE63EB5012914BF01210021FFF747
:106B50009EFFB8B9E06841680D6828460068806803
:106B6000C0B26421AA68019002924843B0FBF2F0DF
:106B7000C0B200900021A268D2F844330FF2A412F0
:106B8000FFF73BFF37BD10B5012914BF01210021DC
:106B9000FFF77DFF48B9A168C1F84403E068416888
:106BA0000868BDE8104000F09CBC10BD10B501297C
:106BB00014BF01210021FFF76AFF38B920690FF2E5
:106BC000F81203A100F008F900F050F810BD000021
:106BD000257300006F6E00006F6666002DE9FC41B2
:106BE00001290446154636D1A06800F11C0500F1C4
:106BF0001E082046FFF7C0FB10BBA068878A068BE3
:106C0000FA21FFF7B7FBFA212046FFF7A1FB204648
:106C1000FFF7B2FBA0B9A068818AA8F80010008B2A
:106C200028802046B8F80020D71BB9B2FFF76CFBCC
:106C30002888861BB1B22046BDE8FC41FFF77CBB2B
:106C400000F014F8204602B0BDE8F0410FF20C123B
:106C50000421FFF785BC03298941C943C90FFFF708
:106C600050FF08B9FFF7C0FEBDE8F381A0685021CE
:106C70001822C183828370472573257300000000AA
:106C80004F7074696F6E733A0A0000002020252D42
:106C90002A733A0053686F7720636F6D6D616E647D
:106CA0002068656C702E00002020257325732573E5
:106CB00000000000537562636F6D6D616E64733A1E
:106CC0000A00000025733A2077726F6E67207061AA
:106CD00072616D6574657220636F756E740A000071
:106CE00025733A257325730A0000000020756E6B2A
:106CF0006E6F776E20706172616D657465723A2097
:106D0000000000004563686F207374617475733A06
:106D10002025730A000000005B2533645D20257385
:106D20000A0000004C6F7374206C6F67733A202563
:106D3000750A4D6178206C6F6720717565756520E7
:106D40007574696C697A6174696F6E3A202575256E
:106D500025205B25752F25755D0A00004E6F20727A
:106D60006573706F6E73652066726F6D20746865F1
:106D7000207465726D696E616C2C20617373756D22
:106D800065642038307832342073637265656E2014
:106D900073697A650A0000002C2000002D682C2001
:106DA0002D2D68656C700000202D20001B5B4800B5
:106DB0001B5B324A000000001B5B3F336C0000008D
:106DC00010B50446A2682AB1216820696369984712
:106DD0000020A06010BD0000002900D170470CB455
:106DE00038B500BF05A31C68009404AD00956A4641
:106DF00000F05AF931BC5DF80CFB00000000000007
:106E000000F10103810704D010F8011B820781B152
:106E1000FAD10268A2F10131914311F0803104BF2F
:106E200050F8042FF6E709BAB1FA81F100EBD1006E
:106E3000401CC01A7047F0B40246106895681318D9
:106E4000506803EB5004C0071DD54D441BE013F8F8
:106E5000017B05F8017B491EF9D1A0B1B60813F8F2
:106E6000011B06F00306032E08BF13F8016B01EBAC
:106E700006214942801C294405D011F8016B05F810
:106E8000016B401EF9D1A3420ED013F8016B16F02E
:106E9000030104BF13F8011BC91C30090F28DAD104
:106EA00013F8010B0F30D6E7F0BC02F10C0070476D
:106EB00081EA00039B0717D1820707D010F8012B46
:106EC00011F8013BBAB19A42F6D014E002680B689F
:106ED0009A42A2F1013301BF934313F0803F50F86F
:106EE000042F51F8043FF3D010F8012B11F8013BA7
:106EF0000AB19A42F8D0D01A704730B4002513E096
:106F000050F8042BD30744BFA9F101039A18091FB5
:106F1000042942F8045BFAD213468C0744BF15805B
:106F20009B1CC90748BF1D7050F8041B0029E7D1FE
:106F300030BC7047002200F02DBBFEE738B50D468F
:106F400004460A2D04BF0D21FFF7F8FFA068411C7D
:106F5000A160226815546068814204D32046BDE8D0
:106F60003240FFF72DBF31BD2DE9F84F8B4601248C
:106F7000154602E0B1FBF5F1641CA942FAD29A462B
:106F80000B9FD146A24538BFA14680460A9CF80710
:106F90000BD454B1B8070BD42026A14505D23146F5
:106FA00000F05EF9641E002CF7D12E46012507E0A3
:106FB000BAF1000FF0D13026EFE7AAF1010A7543CC
:106FC000BAF1010FF9D8BBFBF5F0B04228BF754309
:106FD000F9D200BFA3A1BBFBF5F005FB10BB095C18
:106FE00000F03EF9B5FBF6F5002DF2D1F80707D514
:106FF00034B1A14504D200F032F9641E002CF8D15E
:10700000BDE8F18F2DE9FC470E0048BF494201253C
:10701000904602E091FBF8F16D1C4145FADA9A4680
:107020000A9C0B9FD146AA4538BFA94624B1002E21
:1070300001D4790700D5641E0546B80702D5BAF118
:10704000000F0BD0F80709D444B1A14506D2202186
:107050002846FFF773FF641E002CF6D1002E02D5E0
:1070600076422D2102E0780703D52B212846FFF731
:1070700065FF07F00300022808BFBAF1000F09D12D
:1070800044B1A14506D230212846FFF757FF641EC0
:10709000002CF6D1019700945346424631462846CB
:1070A000FFF762FFBDE8F3872DE9FE430D00804640
:1070B000174600F0C78015F8011B002900F0BA80C0
:1070C000252940F0B180002602E046F001066D1C43
:1070D00029782B2907D02D29F7D0302908BF46F071
:1070E0000206F4D0B0E046F00406F0E72978A1F1FA
:1070F00030020A2A0CD200FB04146D1C303C2A29F1
:10710000F4D1396839606D1C51F8042B39601419B9
:10711000297800232E290BD16D1C04E000FB0311FC
:107120006D1CA1F130032978A1F130020A2AF5D3B0
:10713000287801E015F8010F6C2818BF6828F9D0ED
:1071400025286CD0582822D063280CD0642818BF7A
:1071500069280FD070284CD073281ED0752812D003
:10716000782814D05EE03868386050F8041B386026
:10717000C9B255E0386838600A2200F06AF8404623
:10718000FFF740FF4EE0386838600A2202E03868B6
:107190003860102200F05DF83DE03868386050F843
:1071A000049B38600020F10751D4B9F1000F1CBFD7
:1071B0004846FFF725FE064610E000F051F8761C21
:1071C00019F8011B0800F8D1A6422BD254B300F0E5
:1071D00046F8641EF8E700F042F8641EA64201D2A9
:1071E000002CF8D119F8011B08001BD000F038F86A
:1071F000F8E738683860302150F8044B386000F008
:107200002FF8782100F02CF808210091002001903F
:107210000823102221464046FFF7A6FE02E0252162
:1072200000F01EF86D1C01E000F01AF82878002824
:107230007FF441AF98F80C0020B14046BDE8FE4312
:10724000FFF7BEBDBDE8F78300240A2057E70026FC
:10725000B6E750F8041B386001960094704720216F
:1072600040466BE6303132333435363738394142B7
:107270004344454610B5044600F0D5F90146204682
:10728000096ABDE81040084700F0D2B92DE9F04185
:1072900005460F462E8A00F0E2F9361F040021D081
:1072A000F71900200121FF1C20716171A046B7FB76
:1072B000F6F7E680FFB27F1EC8F80050002607E010
:1072C0006179491C6171C8F8000005608046761C30
:1072D000BE4209D2284600F0C2F90028F0D120466B
:1072E00000F005F8002000E02046BDE8F081F8B588
:1072F00001460D464C79601E002200E0521C2D68AC
:107300008242FBD3002605E00F68284600F0C9F949
:107310003946761CA642F7D3F1BD0121001D00F0CD
:1073200009BA1CB504460121201D00F00FFA009097
:107330009DF8000018B92046BDE81640D7E713BDF8
:107340002DE9F0471446B0F8068042792568464694
:107350005643361F5F1903F1040CBE42BCFBF8F222
:1073600034BFF31A2B4608FB12CC2360002A01E03D
:107370000068521EFCD1A8EB0C029A469342089F6B
:107380004FF0000988BF92460E4605461C46BCB128
:1073900005EB0C00001D06EB0903390052460EBF39
:1073A00019460146184600F0E1F92D68A4EB0A04DD
:1073B000D14444454FF0000CA246E8D9C246E6E766
:1073C000BDE8F0871CB50192002402E01CB50192D3
:1073D0000124009401AAFFF7B3FF13BD2DE9F84F74
:1073E0008AB08268D2F85423930706D50BB0BDE863
:1073F000F04F00220021FFF75CB9012907D90BB03B
:10740000BDE8F04F0FF2E4020221FFF7A9B8204ACD
:107410002049521A1823B2FBF3F1002764240FF21B
:1074200068190FF2581B0990089108998F422CD2C5
:10743000182219487A4386183068D0F808A0D6F880
:107440000C80B568304600F041F80146307C736925
:10745000002814BF48465846079004FB0AF20695D8
:10746000B2FBF5F0CDF814A0049003950291CDF88D
:1074700000806143B1FBF5F00190082109980FF2FB
:107480008002FFF76DF87F1CCFE70BB0BDE8F08FEF
:1074900000000000000000000000000001460A6833
:1074A00010685268824201D3101A70478968491CDB
:1074B000081A10187047002104468DF8001068461D
:1074C00000F0AEB99DF8000000F0C7B91CB5FFF799
:1074D000F2FF2046FFF7E2FF0446FFF7F3FF2046E6
:1074E00016BD006800218160704700004261642081
:1074F000617267756D656E7420636F756E740000E0
:1075000025730D0A092D20456C656D656E74207319
:10751000697A653A0925640D0A092D20557361675A
:10752000653A092575252520282575206F75742055
:107530006F6620257520656C656D656E7473290D09
:107540000A092D204D6178696D756D3A09257525FB
:107550002520282575206F7574206F6620257520DD
:10756000656C656D656E7473290D0A092D204D6F6C
:1075700064653A090925730D0A0D0A004F76657294
:10758000666C6F77000000004E6F206F7665726644
:107590006C6F770000B500BF130096469446103913
:1075A00028BFA0E80C50FAD85FEA417C28BF0CC085
:1075B00048BF40F8042BC90728BF20F8022B48BF5A
:1075C00000F8012B00BDFEE7613807E005E0A0F1FF
:1075D00061011A2901D20120704741381A288041DF
:1075E000C00F7047A0F121010F290AD3A0F13A0280
:1075F000062A06D9A0F15B01062902D37B380428AC
:10760000EDE701207047A0F10901052901D32028E9
:1076100001D10120704700207047A0F141011A29D3
:1076200038BF203070470148704700004460002098
:1076300010B508B90E2010BD0368426881681A6051
:10764000891A03E013685C1C146019700B46591EFC
:10765000DBB20268002BF5D10020107110BD38B5E7
:10766000044600258DF80050684600F0D9F82168DE
:107670006268086882420ED2421E0A601578208A2B
:10768000E36845431D44A36820689A1A03799A4227
:1076900038BF1A460A719DF8000000F0DEF828464F
:1076A00032BD38B50C46002105468DF800106846FD
:1076B00000F0B6F8286801684A1C0260E8682A8A67
:1076C000241AB4FBF2F20A709DF8000000F0C5F82D
:1076D00031BDFEE710B5024652E8000F0C4642E805
:1076E000004393F0000FF7D110BD000010B5024623
:1076F00052E8004F44EA010042E8000393F0000F13
:10770000F6D110BD10B5024652E8000F00EA0104A0
:1077100042E8004393F0000FF6D110BD10B50246C9
:1077200052E8004F04EA010042E8000393F0000F22
:10773000F6D110BD10B5024652E8004F04EB01002F
:1077400042E8000393F0000FF6D110BD10B50246D9
:1077500052E8004FA4EB010042E8000393F0000F51
:10776000F6D110BD0121C1E70021CBE762B38B0741
:1077700008D0521E11F8013B00F8013B00F02480B4
:107780008B07F6D1830740F0208000BF103A07D363
:1077900030B4B1E83810103AA0E83810F9D230BC53
:1077A000530724BFB1E80810A0E8081044BF51F8FF
:1077B000043B40F8043BD20724BF31F8022B20F8E9
:1077C000022B44BF0B7803707047121F17D35B0066
:1077D00009D151F8043B20F8023B1B0C121F20F882
:1077E000023BF6D20BE051F8043B00F8013B1B0AC8
:1077F00020F8023B1B0C121F00F8013BF3D238BFEC
:10780000121D521E24BF11F8013B00F8013BF8D8AD
:107810007047FEE7EFF3108072B6704762B67047AC
:1078200038B50446FFF7F6FF154A916871B9012390
:1078300093601449144B1D680D4015601960596818
:1078400051604FF0FF325A60002100E001212170A9
:1078500010B9BDE83140E1E731BD10B5084CA16871
:1078600069B160B9FFF7D6FF084922680A6063680A
:107870004B600021A16010B9BDE81040CEE710BDFB
:10788000906B0020FC06FFBD80E100E000E100E01D
:1078900080B5DFF8A005FF21002281600260426010
:1078A00000F21440426002600273DFF88C05FFF7BB
:1078B000EBFC20B90FF2B45000F0DEFA002002BD5C
:1078C00030B591B1DFF87425DFF874150568DFF87D
:1078D0007435511A002200E0521CB2EBD10F06D2CF
:1078E00033F82240AC42F7D10260002030BD0520C1
:1078F00030BD01B56846FFF7E3FF28B9DFF848055A
:10790000009950F8310002BD002002BD00000000C7
:10791000491EDFF83425032902EBC0000BD8DFE84D
:1079200001F0020406080220704704207047007925
:107930007047407970470020704702460020136866
:10794000C3F380029AB103F00300012802D0022899
:1079500007D00BE00A68C3F38310801C82180A600A
:1079600004E008689B0D9B1C1B180B6001207047EE
:10797000F8B5DFF8C04484B004F58360FFF7F2FE89
:1079800004F214452846FFF7EDFE6068A7680090F2
:107990000026009904F10C00394000EB8100694693
:1079A000FFF7CBFF0028F4D101AB009A04F10C01E2
:1079B0003A4000F0F9F9F8D90199BDF80A0001F050
:1079C000030101290AD002290FD101990646009826
:1079D000890DC91C00EB9100009006E00646019855
:1079E0000099C0F38310411800912846FFF7BCFEB0
:1079F00008B100986060304605B0F0BD80B5002148
:107A0000DFF84804FFF766FE80F3100002BD2DE9A1
:107A1000F84F0446884693461F460A9DDFF81494A3
:107A2000FFF7ECFF09F10C0A7E1C00042E4040EA2F
:107A30001440E4004AF8260004F0380444EA8B14A9
:107A4000C4F3090409F10C0044EA88242F4044F0EF
:107A5000010440F82740BDE8F18F2DE9FC4188463C
:107A600000218DF800101646DFF8C87304466846FA
:107A7000FFF7D6FE3868C8F80000A51CBA68396858
:107A80007868521C511A411807F21C480FE0012176
:107A90004046FFF74FFEFFF76BFF01464046FFF7FA
:107AA00049FEB8683968401C411A78684118A942F3
:107AB000EDD32EB1A40104F4707444F0050402E087
:107AC000A40544F006043968B868014007EB810258
:107AD000D46039689DF800006D183D60FFF7BDFE69
:107AE0000120BDE8F6812DE9FE43DFF84863044636
:107AF0000D4690469946B768012201A94846FFF70E
:107B0000ACFFA8B10198801C002108E007EA000240
:107B100006EB820258F82130D360401C491C4945CD
:107B2000F4D300974A46019B29462046FFF76FFF92
:107B300096F8200418B100F02BF80028FBD1BDE81E
:107B4000F78300230022CEE780B50092012300F0E6
:107B500009F801BDE0B5009201936A460223FFF7E0
:107B6000C2FF07BD6A46BEE7F8B586B00C9C0D9D06
:107B70000E9E0F9F00F006F805970623FFF7F2FF11
:107B800007B0F0BD009201930294039504967047EC
:107B90002DE9F847A74E70683168884285B024D037
:107BA00006F582670020B860BFF34F8F7068B46835
:107BB000009006F10C000099214000EB810005E0E7
:107BC00006F10C0004EA010200EB82006946FFF7AF
:107BD000B4FE002800F0CB80B868002840F0C780D1
:107BE000306800998142EBD370600020BCE00299BC
:107BF00065F39F51029105F10801FFF747FB5FEA2A
:107C0000000A4ED0FFF789FB00F0C8F8009820402A
:107C1000641C241AA40006F10C01AC4201EB8001A3
:107C200019D234B9284606F10C014FF0000800259E
:107C300003E0204606F10C082D1BC4B2082322469F
:107C40005046FFF7BFFBB8F1000F09D004F108035D
:107C5000EAB2414601E008232A465046FFF7B2FB4C
:107C6000009809F1030100EB9100009039E00299BE
:107C700001F0030101295AD10299029AC1F383113B
:107C80000529C8BF062122F4707242EA81120292CD
:107C90000299C1F38311891C8900FFF7F7FA5FEAA3
:107CA000000A44D0FFF739FB00F078F84FF00809DC
:107CB0004FF0000810E00098411C009106F10C05FF
:107CC000204005EB80014B4604225046FFF77AFB2B
:107CD00009F1040908F101080298C0F383108045F6
:107CE000E9D33C68B86870B15046FFF71AFB33E03F
:107CF000E0684179012904D1226813685146204681
:107D00009847E0680468002CF2D15046FFF709FB61
:107D100000208DF8040001A8FFF782FDB86808B9BB
:107D2000009870609DF80400FFF797FD14E03C6830
:107D300005E021688A6820469047E0680468002CC6
:107D4000F7D14348DFF8F82043A1801AC0080004A7
:107D500040F00200FFF7F5FE7068316888420CBF02
:107D60000120002080F0010006B0BDE8F08700206F
:107D700002AB009A06F10C01224000F015F8F8D988
:107D800002992D4801F0030102297FF470AF029D92
:107D9000AD0DA946502DA8BF502528E70023082285
:107DA00002A95046FFF70EBB51F8221043F82010ED
:107DB000401C0099491C01280091704730B50246CB
:107DC00000201C4BD3F8101400E0096889B1C96881
:107DD0000C798442F9D1401C0A28F3DB4FF0FF30C4
:107DE00030BDC9680D682560D3F81034D9680A60C1
:107DF00030BD10F1010FFBD0D1680871D3F8101419
:107E0000D4680029EDD1C3F81024216030BD10B52D
:107E1000104804680121017408E0E16801224A71F8
:107E20002046226851688847E0680468002CF4D135
:107E300010BD0000B0600020DCC4020050C1020090
:107E4000B0C0020000000000B0C00200CC640020FE
:107E5000F8C00200C06400204261636B656E647309
:107E600020666C7573686564000000001C68002063
:107E70007F000000406B002080680021816001616C
:107E80004161C1604160016070470870000A48703C
:107E9000022070473EB50C460546208809308242D4
:107EA00001D20C203EBD68466DDFF0B92188082064
:107EB00068541B232088401C2080062280B20DF1CC
:107EC00001012B5400F004F92844FFF74FFC2088EF
:107ED000801D208080B29DF80010490818BF012144
:107EE00029542088401C208000203EBD7CB50546DA
:107EF0000C462978012904BF6878002801D10720A1
:107F000076BD1088861CB3422ED3012904D169782E
:107F10004118891C8B4227D31B1A9B1E9BB2ADF8BC
:107F20000030694616882644B01C7DDF70BB287877
:107F3000022804D06978BDF80060B14205D3BDF8CD
:107F400000108B42A8BF09210ADA0821012805D1B7
:107F50006D78AB42A8BFADF8005001DAADF8003043
:107F6000BDF80000FF2801D30C2076BD1388401C0B
:107F7000E0541088401C108080B221541188491CA4
:107F80001180BDF8000041181180002076BD2DE958
:107F9000FC470A9CDDF82C90258898460027064669
:107FA0008A46964600231BE020889DF800C0844442
:107FB0006244914536DB43B9401C2080012380B2E6
:107FC00008F800A02088401C208001A82288424494
:107FD00064DFE0B920889DF80010411821807F1CE3
:107FE0003088874215DA716851F827000190002225
:107FF000694601A864DF50B99DF800007045EED1D4
:10800000002B08BF0222CFE708F805000020BDE8DA
:10801000F687002BFAD02088401B401E81B2B1F5B4
:10802000807FF1DB0C20F2E72DE9FC41089F099CE1
:10803000019416460546984600970222FFF7A7FFCF
:1080400038B9019400974346102231462846FFF77D
:108050009EFFBDE8F681F8B51446064620880D4619
:10806000811D8B4201D20C20F2BD318806290EDB26
:1080700040F68147B9424FF6FF7301DB994206D1C2
:108080007288062A03DBBA4203DB9A4207D0072034
:10809000F2BD994218BF9A4201D08A42F7D3052116
:1080A0002954122200F014F82A5400F011F829186B
:1080B0003088FFF7EAFE21880818208080B229184E
:1080C0007088FFF7E2FE2188081820800020F2BDAA
:1080D0002088401C208080B2704770B50546144649
:1080E0000E46A8882188801C4218921C934201D316
:1080F000FF2801D30C2070BD401C7054FF22FFF7F5
:10810000E7FF3254FFF7E4FF31182888FFF7BDFE80
:10811000218808182080AA885AB1A96809B90720BF
:1081200070BD80B23044FFF721FB2188A888411838
:108130002180002070BD2DE9F04100F128080D4696
:10814000D8F80000164698B3002720E03188401C7C
:10815000685416223088401C308080B22A543088FF
:10816000401C308080B229182088FFF78EFE3188AD
:1081700008183080A2884AB1A168C9B180B22844E9
:10818000FFF7F4FA3088A188081830807F1CF8B215
:1081900098F8041088420DD2D8F80000FAB20C23E7
:1081A0005A438418A088801CFF28CFD30C2002E0FB
:1081B000072000E00020BDE8F0812DE9FE431746CE
:1081C0000546B7F80080002005F12C090E463880DE
:1081D00099F8011031B1424639463046FFF75AFE50
:1081E000002808D1A978B1B13888001D80452BD36B
:1081F000684679DF00287CD1398803207054192221
:1082000000F082F83118BDF80000FFF73EFE398813
:10821000081838800020E97871B13888C21C904570
:1082200049B211D302233354012200F06DF83154C6
:108230003888401C388000206968C1B191F900007D
:108240003988CA1C904501D20C2052E00222725497
:108250000A233988491C398089B273543988491CEA
:10826000398089B270543888401C388000202989B0
:1082700049B100F040F80622022105F10800FFF79D
:10828000D3FE002835D1298A41B100F034F8072205
:10829000032105F11000FFF7C7FE50BB298B41B148
:1082A00000F029F81522142105F11800FFF7BCFE93
:1082B000F8B92C6A2CB100F023F82046FFF7CBFE6A
:1082C000B8B96C6A2CB100F01BF82046FFF705FF27
:1082D00078B999F8001029B100F012F82846FFF794
:1082E0002AFF30B9297821B100F00AF82846FFF7B3
:1082F000FDFDBDE8FE83CDF804800097334670474E
:1083000043463A46314670473888401C388080B230
:1083100032543888401C388080B270477FB506469A
:108320000C0008BF0E2000F07B807348734D206066
:10833000694600200022002381E80D0004228DF808
:10834000022018218DF80060ADF8041069462268FB
:10835000202069DF6A494D1BED082D0445F0010519
:1083600028B100F019FA024668A100F05BF800F0AD
:108370005CF802218DF801108DF8021040200121D7
:108380008DF803106946226869DF30B100F004FA05
:108390004FEA00026FA100F045F800F046F8F7211F
:1083A0008DF80060ADF8021069462268232069DF6D
:1083B00028B100F0F1F9024679A100F033F800F09D
:1083C00034F801218DF8001069462268012069DF28
:1083D00028B100F0E1F9024683A100F023F800F093
:1083E00024F84FF4B061009169462268A12069DF4A
:1083F00028B100F0D1F902468EA100F013F800F088
:1084000014F88DF8001069462268A02069DF30B1A9
:1084100000F0C2F94FEA00029BA100F003F800202F
:1084200004B070BD2846FFF78FBB684600210022CC
:10843000002380E80E0070472DE9F04106463049E0
:1084400037682E4D60DF04464D1BED0830682D0463
:10845000874217D245F00208A0A14046FFF771FB02
:10846000D6F80030A9A13A464046FFF773FB2548ED
:10847000B3A102683068920202F10052121A40461B
:10848000FFF762FB1CB920490120087009E0204673
:1084900000F082F94FEA0002B4A145F00100FFF7B5
:1084A00053FB2046BDE8F081174900B50878ADF5CB
:1084B000017D88B903E0052818BF00F02FFA0DF5FB
:1084C000017D00BD5168126804A8904701A800F022
:1084D00049FA039A002AF5D14FF4FA70ADF800007A
:1084E000694604A861DF0028E5D100BFA7A101A863
:1084F00000F034FAEDE70000005F0020B0C0020099
:1085000010C102000C010010E26B002073645F6276
:108510006C655F6366675F73657428292072657494
:1085200075726E6564202573207768656E206174AE
:1085300074656D7074696E6720746F207365742044
:10854000424C455F434F4E4E5F4346475F47415065
:108550002E00000073645F626C655F6366675F7323
:10856000657428292072657475726E6564202573A0
:10857000207768656E20617474656D7074696E67CC
:1085800020746F2073657420424C455F4741505FF3
:108590004346475F524F4C455F434F554E542E0064
:1085A00073645F626C655F6366675F7365742829D7
:1085B0002072657475726E65642025732077686516
:1085C0006E20617474656D7074696E6720746F20BD
:1085D00073657420424C455F434F4E4E5F434647A0
:1085E0005F474154542E000073645F626C655F63A3
:1085F00066675F73657428292072657475726E658D
:1086000064202573207768656E20617474656D70D1
:1086100074696E6720746F2073657420424C455FE7
:10862000434F4D4D4F4E5F4346475F56535F555541
:1086300049442E0073645F626C655F6366675F73B5
:10864000657428292072657475726E6564202573BF
:10865000207768656E20617474656D7074696E67EB
:1086600020746F2073657420424C455F4741545419
:10867000535F4346475F415454525F5441425F53F6
:10868000495A452E0000000073645F626C655F63A9
:1086900066675F73657428292072657475726E65EC
:1086A00064202573207768656E20617474656D7031
:1086B00074696E6720746F2073657420424C455F47
:1086C00047415454535F4346475F534552564943CD
:1086D000455F4348414E4745442E0000496E73753F
:1086E0006666696369656E742052414D20616C6CE9
:1086F0006F636174656420666F72207468652053CF
:108700006F66744465766963652E00004368616E28
:108710006765207468652052414D207374617274DE
:10872000206C6F636174696F6E2066726F6D2030AC
:1087300078257820746F20307825782E000000008E
:108740004D6178696D756D2052414D2073697A6570
:1087500020666F72206170706C69636174696F6EFE
:1087600020697320307825782E00000073645F62E2
:108770006C655F656E61626C652829207265747531
:10878000726E65642025732E0000000004C3020091
:1087900024C302000800000080B500F004F808B906
:1087A0000FF23C0002BD10B50FF2480101F59472C2
:1087B00000E01A4691420FD2531ADB1003EBD37339
:1087C0005B1001EBC3031C68A042F2D3844238BFA4
:1087D00003F10801EED301E0002010BD586810BD80
:1087E000556E6B6E6F776E206572726F7220636F5D
:1087F00064650000000000000CAF020001000000F2
:1088000018AF02000200000038AF020003000000B1
:108810005CAF02000400000070AF02000500000021
:1088200084AF02000600000098AF020007000000BD
:10883000B0AF020008000000C8AF0200090000004D
:10884000E0AF02000A000000FCAF02000B000000D5
:1088500014B002000C0000002CB002000D0000005B
:1088600040B002000E00000054B002000F000000F3
:1088700064B002001000000078B002001100000097
:1088800090B0020012000000A0B00200130000002F
:10889000B8B0020080000000CCB0020081000000EF
:1088A000F0B00200820000000CB102008300000062
:1088B00028B102008400000048B1020085000000D9
:1088C0006CB102008600000094B10200900000002C
:1088D000ACB1020091000000CCB102009200000097
:1088E000ECB102000082000004B20200018200002C
:1088F00024B202000282000040B2020000840000A4
:108900005CB202000184000080B202000284000018
:10891000ACB2020003840000D4B202001FB5694665
:1089200000220023002481E81C0002906A460021F6
:1089300044F2010000F024F81FBD05E00A684B680E
:108940009A4209D1083141600268416853689942EE
:10895000F4D100218160704782607047016009682E
:108960004160EAE7816851B103689A68511842682A
:1089700081605368994202D102F10801F0E7704723
:1089800010B572B6FFF743FAFFF702F90028FBD1E2
:108990001048114C1149041BE408240444F0010060
:1089A000FFF7CFF80E480168CA0700D500BE0D4991
:1089B00044F00200FFF7C5F8BFF34F8F0A490B4898
:1089C0000A6802F4E06202430A60BFF34F8F00BFFF
:1089D000FDE700BFF8C00200B0C0020070C4020092
:1089E000F0ED00E07CC402000CED00E00400FA05AC
:1089F00018B50FF24441DFF850430A68A07CA5B0D7
:108A00003C2100928DF8020016A8FEF793FA02228C
:108A10008DF8582001218DF85A1006228DF85B2020
:108A20003C2107A8FEF786FA0121ADF82C10CDF8FD
:108A300030D004F12002E16916A8FFF7BEFB08B1AF
:108A4000FFF76CFF616A04F1280207A8FFF7B5FB86
:108A500008B1FFF763FF182101A8FEF76BFA0022A7
:108A6000ADF8102002928DF81820012140228DF8D7
:108A700019108DF80410039204F11C0101AA04F1ED
:108A8000180072DF08B1FFF749FF26B010BDFFF7ED
:108A900045BF000010B5AD48AD4C00F063F92AB1F8
:108AA000002000F0E7F900BFB5A104E0002000F0CD
:108AB000E5F900BFB7A12046BDE81040FFF741B877
:108AC000007838B9A04A508B3B2176DF002818BFC8
:108AD000FFF724BF7047FFF721BF80B59A4A107E89
:108AE000012173DF08B1FFF719FFBDE80240002044
:108AF00000F0C0B938B504469448954A924D238891
:108B0000821AD2081204688B102B42F003020CD098
:108B1000112B21D0132B31D0212B34D03B2B40D023
:108B2000522B39D0562B3CD031BD00BF9EA11046F0
:108B3000FFF707F8002000F0A1F9002000F09AF9F3
:108B4000A188698305F1580000F0E4F908B1FFF746
:108B5000E5FE00F04BFA27E096A11046FEF7F1FF84
:108B6000002000F08BF94FF6FF70688300F04EFA9A
:108B700008B1FFF7D3FEFFF7B0FF31BD002300229D
:108B800085217FDF10E000BFADA00188ADF80010A7
:108B90006946A0888FDF07E0002300220021B1DFB3
:108BA00002E0A088132176DF08B1FFF7B7FE31BDE0
:108BB00078B58DB04FF480410020FEF769FE08B112
:108BC000FFF7ACFE00F044FA012000F071F900F06C
:108BD0007FFB08B1FFF7A2FE00F0D8FB08B1FFF75A
:108BE0009DFE00F06FFC08B1FFF798FE002000909A
:108BF00069460120FFF792FB08B1FFF78FFE684638
:108C0000FFF71AFC08B1FFF789FE11208DF800006C
:108C10005FF00D0256A168467CDF08B1FFF77EFECB
:108C200001A90020C1E90000A021ADF80610ADF8AF
:108C3000080050224FF4C871ADF80420ADF80A10B6
:108C400001A87ADF08B1FFF769FE3F4C002104F16B
:108C50002C0000F0EEFC08B1FFF760FE77A13D4B61
:108C60000A680092019301A904F1580000F03EF94E
:108C700008B1FFF753FE384800906946204600F0DF
:108C8000A3FE08B1FFF74AFEFFF7B2FE1C2106A8BB
:108C9000FEF750F9002106914FF4A0224FF4A031C5
:108CA00007920891032200218DF82420ADF82610A8
:108CB0008DF8281006A82949294A0B910C9200F03A
:108CC00050FF08B1FFF72AFE04A86DDF08B10EB00F
:108CD00070BD1E48DFF878403AA100F043F8204606
:108CE000FEF72FFF9DF811009DF8121003900291DE
:108CF00005259DF813009DF814100190CDF8001083
:108D00009DF815309DF816203BA12046FEF72CFF5C
:108D1000FFF7E3FE0026304600F0B6F84FF4FA7491
:108D200043A14FF47A4041F001018847641EF7D116
:108D3000761C032EEFDB6D1EECD1FEF729FF002819
:108D4000FBD100F030FBF8E7CC5F0020F8C0020058
:108D5000B0C002008F8A0200958A0200C18A020018
:108D6000D78A0200041BE408240444F0030470477B
:108D7000736C7864335F73696D706C6531000000EB
:108D80005265636569766564204C4544204F4E21E9
:108D9000000000005265636569766564204C4544B7
:108DA000204F464621000000436F6E6E6563746578
:108DB00064000000446973636F6E6E65637465647C
:108DC00000000000534C58443320424C4520417071
:108DD000703A205374616E64616C6F6E65207072BE
:108DE0006F6772616D207465737421204C45442057
:108DF000626C696E6B792E004D79206465697663CB
:108E00006520616464726573732069732020253066
:108E100032783A253032783A253032783A25303275
:108E2000783A253032783A25303278000000000058
:108E30000338FDD870470000231500000000000033
:108E40000000FEE730B5039D049C41EA420141EA7F
:108E5000830141EA0521134A41EA044142F8201006
:108E600030BD012202FA00F00F4A09B95060704784
:108E7000106070471CA2105C0021F2E71AA2105C7F
:108E80000121EEE70020F9E717A1085C07490A680D
:108E9000012303FA00F020EA02034B6010408860CF
:108EA00070470000000700500805005004050050FE
:108EB0001CB50446E0070AD500210191009100236A
:108EC000012201210320FFF7BDFFFFF7DBFFA00711
:108ED00007D5002100220191009203230D20FFF706
:108EE000B1FF13BD0000000003000000002818BF00
:108EF000002901D10E2070470278DE2A01D1082016
:108F0000704709684160DE2202704FF6FF734380AC
:108F10000020704708B90E2070470278DE2A01D081
:108F2000082070474180002070470246107A50B1F7
:108F30005088002166DF10B1112802D10120107283
:108F400070475168084770477FB505460C0018BF49
:108F5000002D4AD02078DE2847D1A8886188884231
:108F600004BF2046FFF7E1FF2888012804D011281C
:108F700034D051280DD07FBD297A012902BFA8889D
:108F80006188884231D1012020722046FFF7CDFF51
:108F90007FBDA8886188884204BFA879022824D1AF
:108FA000A87B04281CBF062805281ED1684610216E
:108FB000FDF7C0FF02214FF4C0768DF80010ADF828
:108FC0000460A87B052804BF0021ADF80410A88820
:108FD0006946B0DF48B1616888477FBDA88861886D
:108FE000884204BF4FF6FF7060807FBD38B5002413
:108FF000164D06E02A6A12F83400012100F0E0FE66
:10900000641C28788442F5D3002032BD38B5002492
:109010000E4D05E0296A11F8340000F012FF641CBF
:1090200028788442F6D300218DF800106846FEF7B8
:10903000F7FB0020C5E906009DF80000FEF70DFCD7
:1090400005F1280000F08DF932BD0000786A00209B
:1090500080B500F0CDFF04210348FEF7AFFE0349C1
:109060000120487101BD000040C502008C5F002056
:1090700038B5DFF8F84204F11C0001F019F9D4E921
:1090800002230021D4E9044510185941A94206D809
:1090900028BFA04203D2B0F17F4061F1FF3134BD5F
:1090A000D1E90223D0E902018B4204D301D88242E4
:1090B00001D30120704700207047000070B50446BE
:1090C000AA4801780025012926D1002C1CBF207F49
:1090D000002821D0FFF7CCFFD4E90223B1EB030F26
:1090E000A6A614D301D8904211D3206900B92577E0
:1090F000A069616988472269002A1CBF207F002877
:109100000AD0D4E9020180186941C4E9020121466C
:10911000304601F011F90125284670BD97A001F0F5
:109120001BB92DE9F0478046904D0FF2502A0124DB
:10913000002708E0002105F11C0001F0AFF83046DF
:10914000FFF7BCFFAF6150464068006800283FD081
:10915000A96981B1D0E90201AA69D2E9026291420A
:109160003DD828BFB0423AD2A869007F18B1A9699A
:10917000504601F0E1F8FFF7D1FF0646FFF778FF10
:1091800002460B46D6E90201821A61EB0303BB4299
:10919000D0DB01DCA242CDD3DFF8D4914A4504D91B
:1091A00005F11C0001F084F8484402464FF4960390
:1091B000002105F11C0000F0FFFF10B10D28C1D106
:1091C000BDE7A86910B9404600F0B4FFAE6106E003
:1091D000A86920B94046BDE8F04700F0AFBFBDE840
:1091E000F08700007CB5044601F055F85F4D38B1BA
:1091F000D5E90201B0F17F4261F1FF33C5E90223F5
:109200000021204601F04FF800281CBFA869002863
:1092100004D0A869FFF752FF0020A8610121204671
:1092200001F041F818B1FFF723FFC5E9040100F090
:1092300030F800BF51A60EE04168087F20B9012236
:109240000A77304601F078F8694605F17C0001F0B4
:1092500009F900F01EF8C0B101780029ECD002290C
:109260000CD0F1D24168A869814207BF0021A961F1
:10927000304601F078F8E7E700220277FFF74EFF6B
:109280000028F9D101202870DEE72046FFF749FFCA
:1092900073BD694605F17C0001F0B8B87CB50446A1
:1092A0000D46324E694606F17C0001F07DF868B14A
:1092B00004704560694606F17C0001F097F818B12A
:1092C00006F11C0000F0F8FF002076BD042076BDFA
:1092D0001CB500BF2CA0254C016800910823582222
:1092E00004F1240104F17C0001F04AF8A8B9214AF4
:1092F000694604F11C0000F0D9FE70B9012104F1A7
:109300001C0000F0C5FF01231B4A012104F11C00D1
:1093100000F019FF01202070002016BD130001D1BC
:10932000072070470068012918BF002142610161D0
:1093300000207047D0B504460E46207F08B10020BB
:10934000D0BDA2610027FFF793FE80197941C4E9DF
:109350000201206900B126612146BDE8D04000200D
:109360009CE7014600200877012097E7005F002076
:10937000FFFFB400E5910200FFFF7F000000000046
:10938000D06B0020A19002000100060080B51548B6
:10939000002141700161BFF35F8F001D13A1FFF732
:1093A000DDFA002002BD80B500218DF8001068466E
:1093B000FEF736FAF1EE100A20F09F00E1EE100AF7
:1093C000BFF35F8F0849402008609DF80000FEF75A
:1093D00044FA00F0ABF808B141DF01BD20BF40BF47
:1093E00020BF01BD6C6B002084E200E058C3020086
:1093F00070C30200040000002028014604DA4D4832
:10940000C84000F001007047402808DA0122A1F1AD
:10941000200012FA00F018BF0120C0B270470120EE
:10942000704700001FB5044651A16846FFF796FA41
:1094300002E06846FFF796FA029A3AB1516812685C
:10944000204690470028F4D1112000E0002004B00D
:1094500010BD00001FB5044648A16846FFF77EFA1C
:1094600006E051681268204690476846FFF77AFA8E
:10947000029A002AF5D11FBD80B51620FFF7BCFF68
:1094800028B942F20100BDE80240FFF747BA2A4876
:1094900000784009082803D2EC21C140C80702D453
:1094A00042F20200EFE72549886820B10A6842F4D9
:1094B00080020A6001BD2249FFE74FF48000086086
:1094C00001BD00003EB51F4D287808B108203EBD03
:1094D0000120A8700020FFF7A5FF11281FD0002051
:1094E000FFF7B8FF2BA10A68019200238DF8003026
:1094F0006846FEF795F9144901A810DF0446401E9E
:109500008041C00F00F00DF80CB120463EBD002098
:10951000A8706870FFF7B0FF0120FFF79BFF0020E5
:109520003EBD28709DF80000FEF797B90548007809
:1095300070470000FC06FFBD16E400E0906B0020C1
:1095400000E100E0DC6B002081890200E0B500BF93
:109550000DA16846FFF702FA05E0486809688847E8
:109560006846FFF7FFF902990029F6D107BDEDE73C
:10957000C8C20200D8C2020008000000D8C202001F
:10958000E8C2020008000000E8C20200F8C20200BF
:109590000800000000100201F7210180172242801C
:1095A0000023FB221B21037143718271C17170473B
:1095B000F8B50FF2D43384B0D3E90067CDE9026780
:1095C000ADF80810ADF80A1005460FF26C216A4696
:1095D000D1E90067CDE9006702A990DF040025D03A
:1095E000FFF7DAF803468F48DFF83C6294A1861B48
:1095F000F608360446F001062A463046FEF7AAFA77
:10960000BDF80000BDF80230002808BF002B05D0CF
:1096100002460FF278213046FEF79CFABDF804208E
:1096200022B10FF2A8213046FEF78EFA204605B08F
:10963000F0BD38B5040001D10E2032BDA162F72083
:109640002080FB2260802271002504EBC500801D74
:10965000FFF7A2FF6D1C042DF7D3002032BD0000E0
:109660002DE9F04303468BB09C88A046B8F1040F67
:1096700080F2D5806B486C4D0FF2A829451B1888E5
:10968000ED082D04102845F001050F460CD01128D7
:1096900031D0232800F0A380242800F082803A28CB
:1096A0002FD0552854D0A6E007EBC4018E1D387981
:1096B000B071D97B012904D0022904D17888308087
:1096C00001E0398831803188708888420ED2204686
:1096D000A5DF10B90120707108E0112802D1012026
:1096E000307103E0FFF758F800F0A0F8B179F07995
:1096F000884205D27CE007EBC400801DFFF74CFFD9
:1097000079E05889224607EBC2039C1D21888842D4
:1097100028BF0846608060881728B8BF172060807F
:10972000B86A00281CBF607900280DD098A3D3E93F
:109730000001CDE90001ADF8022069466088ADF86E
:1097400004003846BA6A904700206071207152E0E8
:10975000D88807EBC402961D17283188B8BF172098
:10976000884228BF08467080002030712046B5DF4F
:1097700030B1FFF711F8024677A12846FEF7E4F969
:109780007079002837D1B86A002834D082A2D2E993
:109790000001CDE90001ADF802407088ADF8040089
:1097A00018E06846191D2C22FDF7F0FFBDF80010E7
:1097B000BDF8042007EBC1046273D7F82800D0B1CC
:1097C00077A0D0E90023CDE90023ADF80210607B3B
:1097D0008DF804006946BA6A384690470BE007EBFB
:1097E000C400801D1A898179D2B2914288BF114686
:1097F0002046FFF7DDFE07EBC802907A78B1B91D6D
:10980000404631F83810A5DF18B901219072D172A5
:1098100005E0112803D0FEF7BFFF00F007F80BB0FA
:10982000BDE8F083D8C00200B0C00200024649463D
:109830002846FEF789B90000000000000000000083
:1098400073645F626C655F6761705F646174615FC0
:109850006C656E6774685F75706461746528292033
:10986000287265717565737429206F6E20636F6E41
:109870006E656374696F6E20307825782072657428
:1098800075726E65642025732E0000005468652093
:109890007265717565737465642054582F52582031
:1098A0007061636B6574206C656E677468206973A2
:1098B00020746F6F206C6F6E672062792025752F82
:1098C0002575206F63746574732E000054686520DD
:1098D00072657175657374656420636F6D62696E1E
:1098E0006174696F6E206F6620545820616E642029
:1098F0005258207061636B6574206C656E67746884
:109900007320697320746F6F206C6F6E67206279AB
:10991000202575206D6963726F7365636F6E647364
:109920002E00000073645F626C655F67617474632E
:109930005F65786368616E67655F6D74755F72659A
:10994000717565737428292072657475726E65640B
:109950002025732E0000000073645F626C655F67F2
:10996000617474735F65786368616E67655F6D7459
:10997000755F7265706C7928292072657475726ED6
:1099800065642025732E0000000000000000000028
:10999000770A000000000000770A000000000000C5
:1099A0007ADA0000000000000288502A02BFC28854
:1099B0004B889A4204BF028A012A04D14B6913B131
:1099C000827C80881847704730B58DB004460D689A
:1099D0002AA1656109A81022FDF7D8FE04F1120141
:1099E00009A862DF002834D1A17C8DF8021041F271
:1099F0002352ADF80020694622460120A8DF002846
:109A000027D1202101A8FDF795FA41F2245000F05A
:109A10002BF840F0120000F01EF88DF8172004F12A
:109A20000A02208801A900F051FD90B9202101A867
:109A3000FDF780FA41F2255000F016F840F00A00D8
:109A400000F009F88DF81620A21C208801A900F06A
:109A50003DFD0DB030BD8DF81100ADF80A20ADF818
:109A600008208DF815207047ADF8040001229DF8FC
:109A70001100A17C8DF806107047000023D1BCEACC
:109A80005F782315DEEF121200000000994A138957
:109A90000021834204D114204143501808307047FC
:109AA000938B01218342F6D000207047F0B5868861
:109AB0001746BC19B24228BF3746F51BC2881F465D
:109AC00007EB020C934228BF1746D61B4A8803882F
:109AD0009A4224BF4088904209D38888A84228BF70
:109AE000844204D3C888B04228BF844501D20020F4
:109AF000F0BD0120F0BD80498969002918BF0847E1
:109B0000704738B5044680B2FFF7C0FF020027D087
:109B1000794D107A297B88420DD202F10A01A0B258
:109B200075DF20B111281BD0FFF7E5FF31BD107A9A
:109B3000401C107231BD00211172287C38B13B21CC
:109B4000A0B276DF00281CBF0828FFF7D4FF6969A0
:109B500031B100228DF80020ADF8024068468847F8
:109B600031BD70B5040001D10E2070BD624E30468B
:109B700021461C22FDF70AFE5E4D35602068F8B1D3
:109B80007ADFD0B9216828460822FDF7EFFD0026CC
:109B90005A4C1420704328444FF6FF7105F13002EF
:109BA000018102EB4613C360224600210C30FFF70F
:109BB000B5FB18B9761C012EEBD970BD032070BD22
:109BC00028467BDF0028E2D070BD80B502460B46F8
:109BD0004949587A58B9187A002858680CBF49681A
:109BE0008968FFF7A7FB68B1FFF785FF01BD00207B
:109BF0001872496931B101238DF80030ADF80220A7
:109C00006846884701BD2DE9F84306463A4F30883B
:109C1000102840F2F3184FF6FF7506D0112829D00E
:109C2000122850D0502832D061E0F07BB6F8049072
:109C300001285CD12846FFF729FF040008BF042053
:109C40003ED0A4F8009000202072082204F10A00FF
:109C50002849FDF78BFD2B46424606F1100104F121
:109C60000A00FFF723FF6072F88900283FD12146E0
:109C7000484639E0B088FFF709FF040037D0606834
:109C8000FFF76FFB08B1FFF736FF25802FE0F08864
:109C9000F989884204BF308A022828D1B58828462D
:109CA000FFF7F4FE040022D006F1120000F0F0FBF2
:109CB00010B12146284617E06068FFF752FBB0B1AB
:109CC000BDE8F24317E7B7883846FFF7DFFE040028
:109CD0000DD02B46424606F1080104F10A00FFF7B9
:109CE000E5FE607221463846BDE8F4436DE7BDE805
:109CF000F1830000906900205C6A0020039B020051
:109D000000F1804000F5C0400068012818BF002025
:109D1000704700F1804000F5C04081B00021016033
:109D200000680090009901B070474FF0A04202EB2C
:109D30008000D0F8003723F44033C0F80037D0F863
:109D4000002742EA0142C0F80027704738B50FF2F9
:109D50009C2425680095034606E05DF82340D4F86E
:109D6000104542F8044B5B1C0C18A342F5D331BDDF
:109D70000246012002F00703D2089840895C08409F
:109D8000704710B5C20801248B5C00F0070004FA8C
:109D900000F01843885410BDDFF83C12084490F9D5
:109DA0003020082A8041C00F7047DFF82C12084489
:109DB00090F93020082A01DB01207047002070470D
:109DC000F8B50E460446844DFFF7EFFF2F19B8B1E2
:109DD00097F93000284490F948000006800F0328C6
:109DE00005D180480068E040C10702D503E00128A2
:109DF00001D1022100E003212046BDE8F44094E7B0
:109E00002046FFF7C9FFD8B197F93040744850F8A1
:109E1000241041F0010140F82410A00000F58070EA
:109E200000B2FFF776FF002E1EBF97F9301055F8ED
:109E30002100002804D00121684801FA04F40460DC
:109E4000F1BD10B50446FFF7B0FF20B12046BDE8D4
:109E50001040002169E72046FFF79EFF78B15E4879
:109E60005F49204490F9300051F8202052085200F8
:109E700041F8202001215C4A01FA00F0106010BD79
:109E80002DE9FF47002500954FF4807601274FF01C
:109E9000080830B2FFF734FF00281EBF4F480068A3
:109EA000384203D030B2FFF734FF3D437F00361D08
:109EB000B8F10108EDD14FF4BE70FFF721FF50B1AA
:109EC0004FF4BE70FFF725FF6A4601210020FFF71F
:109ED0003DFF45F0004528063F4F17D001260024DE
:109EE000DFF8FC802E420DD058F8240058F82410DA
:109EF00057F82420130005D0090C01F00301C0F32A
:109F0000042090477600641C082CEBD3002D5ED50E
:109F100002A900224FF0FF300A60019002E0029A8D
:109F2000009001924FF000090024381990F9500078
:109F3000C5B210F1010F25F0C00839D001A9404683
:109F4000FFF716FFA0B307EB0800AD0990F930103A
:109F500057F82160300002D1032D29D101E0032DF3
:109F600003D102A94046FFF70CFF1A4850F8280019
:109F7000000C00F0030A69464046FFF7F9FE18B1ED
:109F8000BAF1020F14D102E0BAF1030F10D1032D80
:109F900009D1BAF1020F0CBF032102214046FFF79D
:109FA000C4FE09F10109300002D029464046B047FD
:109FB000641C042CB9D35FFA89F040B103AA0121D3
:109FC0000020FFF7C3FE039800998842A7D1BDE89F
:109FD000FF87000000070050006A00200463004073
:109FE000106500401005005008630040000000505C
:109FF00000F0ECBB2DE9F8431500894621D04FF065
:10A0000000080326144F2A4609EB0801002000F03F
:10A01000B4FB80442D1A68B9387890B1012400BF90
:10A0200013A14FF47A4041F001018847641EF6D134
:10A03000761E04D00120002D3870E4D101E000210B
:10A040003970BDE8F18380B5044A00924023044A88
:10A0500000F0CAFB01BD0000E16B0020F59F02008B
:10A06000C06A002070477047000000000000000038
:10A070000338FDD870470000000000000000000019
:10A0800028B100BFAAA1800141F001010847704733
:10A0900000EB8100C0F84025704781B0002242509B
:10A0A00040580090009901B07047000070B54379A6
:10A0B000894C8A4E04EB8305231DAA604579884AA2
:10A0C00013F83530B21AD208120433B189A142F024
:10A0D0000200FDF736FD082070BD05680B88C5F845
:10A0E0000835897890F904304901002B06D57D4D5B
:10A0F00003F00F032B4403F8041C01E07A4EF154E3
:10A10000012590F90430794E03F01F018D405B0961
:10A1100046F82350211D4379012501F83350417938
:10A1200044F8310042F003007BA1FDF70AFD002056
:10A1300070BD0000006801210160704700680121C6
:10A1400040F8041F70472DE9F04106460F4630687D
:10A150004FF4803500F542719046BD400D60BA0065
:10A160000D6402F5A0721C4611B2FFF796FF30682D
:10A1700028F07F423946FFF78BFF306800F54170C9
:10A18000056404B10560BDE8F081006800F5417028
:10A19000016402B101607047006800F5427001641B
:10A1A0000160704780B5006842581AB1FFF775FF2B
:10A1B000012002BD002002BD2DE9F84F88464FF472
:10A1C000803101FA08FA0546994622F07F4451464B
:10A1D000FFF7E2FF2868D0F8047500EB88013A46E3
:10A1E000D1F840B541464FEA8806FFF751FF06F522
:10A1F000A076286831B2FFF750FFABEB070727F0D6
:10A200007F47012F06D11020FFF73AFF286831B2AF
:10A21000FFF743FF2868D0F80475C0F844A3E11B9A
:10A22000661C21F07F41012913D132464146FFF7D8
:10A230002FFF1020FFF724FF2868D0F8040587427D
:10A2400024D1012251462846FFF79FFF0020BDE898
:10A25000F28F22464146FFF71BFF2B68D3F80475A7
:10A26000641EE41B6FF07F4124F07F44A1EB0900E2
:10A27000A0420BD3002CE4D1324641461846FFF7EA
:10A2800007FF2868D0F804058742DAD00D20DEE702
:10A290000A46022179E74FF4827183E74FF4803256
:10A2A00002FA01F178E7890001F5A07109B279E7B6
:10A2B0000068D0F80405704790F904100C4B012297
:10A2C00001F01F008240490943F8212070470249EC
:10A2D00008688968084700009C6B0020B8C002002D
:10A2E000B0C0020018ED00E000E400E000E100E092
:10A2F00000E200E052544320696E7374616E63653E
:10A3000020616C726561647920696E697469616C41
:10A31000697A65642E0000005254433A20696E69E0
:10A320007469616C697A65642E00000000000000A9
:10A330000338FDD87047000070B504460D466668C6
:10A34000306828B1A2682946904708B13668F7E717
:10A3500030682860356070BD4268116808001CBF15
:10A3600009681160704702460020536800E01346F8
:10A370001A6822B18A42FAD1086818600120704731
:10A3800050B509B90E2050BD144694FBF3F603FBFB
:10A3900016440CB1092050BD016084600021416069
:10A3A0008281C381002050BD3CB550E8015FAAB254
:10A3B000C3891A4483899A4228BFD21A03899A42D0
:10A3C00002BFBFF32F8F002407E0C2EA050240E876
:10A3D0000123002BE9D14FF0010400F03AF81AB143
:10A3E00000680988084436BD002036BD0A884988BF
:10A3F0008A4209D150E8011FC1EA014140E8011237
:10A40000002AF7D101207047002070473CB550E882
:10A41000025F1FFAA5F2C3889A4202BFBFF32F8FD3
:10A4200000240DE0C3891A4483899A4228BFD21AB6
:10A43000C5EA024240E80223002BE8D14FF00104B4
:10A4400000F007F81AB100684988084436BD0020BA
:10A4500036BD01958DF80040019B0B609DF80020F2
:10A46000704700000A8849888A4209D150E8021FD3
:10A47000C1EA214140E80212002AF7D101207047C9
:10A480000020704701460878497840EA012070476B
:10A4900080B5FFF7F7FFFFE700F0010002BD000005
:10A4A000401E002204280A700FD8DFE800F00305E0
:10A4B00007090C00112007E0212202E0312003E00F
:10A4C00012220A707047222008707047F8B50F46B4
:10A4D00090B00546B878002806BF01218DF80E100F
:10A4E0008DF80E003888ADF80C001646032101A83F
:10A4F000FCF720FD787C01A9FFF7D2FFB87C0DF1B5
:10A500000501FFF7CDFF9DF80610FA7B00F0A6F8D5
:10A510008DF8061001F0EF013A7C02B1012241EA08
:10A5200002118DF8061001F0FE01387B00B1012008
:10A5300001438DF8061001F0F901387D002814BFA1
:10A540000220012041EA40018DF8061009A81C21D3
:10A55000FCF7F0FC787B10F0300F15D0032102A837
:10A56000FCF7E8FCF87C0DF10901FFF799FF9DF875
:10A570000A1001F0F90141F002018DF80A101120D2
:10A5800002A98DF808000E91787B8DF8240004A8AC
:10A59000B97B8DF825101421FCF7CCFC03A901AA86
:10A5A00004910592B888ADF81C00B86818B1FA8813
:10A5B000ADF818200890BC69002C3FD003216846F4
:10A5C000FCF7B8FC2088ADF82C006088ADF82E00B0
:10A5D00061680A91CDF834D06946207BFFF760FFAF
:10A5E000B869407B0DF10101FFF75AFFB869807A25
:10A5F00000B101209DF8021001F0F70141EAC0010D
:10A600008DF80210B869C07A00B1012001F0EF01A5
:10A6100041EA00118DF80210B869007A00B10120FA
:10A6200001F0FE0100F014F8BA69907B002814BF15
:10A630000220012041EA40018DF80210F86900B1C2
:10A640000C90334604AA09A92846AADF11B0F0BD30
:10A6500001438DF8021001F0F901704701F0F70194
:10A6600002B1012241EAC2017047FEE710B5DFF8EE
:10A67000604102202061606104F17801E1614FF4E2
:10A6800000720FF25010A06122620021A162E1620B
:10A69000A064002204F51E7010216262E06421654E
:10A6A000A265626548A1E265E31D08680FF23011FA
:10A6B000186007222046FDF769F82023A37110BD1A
:10A6C0002DE9F84305468846EE6814464FF0000928
:10A6D0002F69A868801BBE4234BFBF1B3F187F1E76
:10A6E000874228BF0746A742686888BF27463A4680
:10A6F00041468019FDF73AF8A968E41BBE198E425D
:10A7000008BF0026002CB944B844EE60E0D14846AA
:10A71000BDE8F2832DE9F0410446E768A56860686A
:10A720001646ED1BAE428846384403D2FDF71EF8AC
:10A73000F61909E02A46FDF719F8761B60683246DB
:10A7400008EB0501FDF712F8E660BDE8F08101466F
:10A750000869CA68824204D38968491E8A1A801827
:10A760007047801A401E704715461821DFF8602098
:10A770004843104400F11806704770B50C46FFF7C7
:10A78000F3FF72691AB1022A13D006D318E03046DB
:10A79000FFF7DDFFA84206D212E03046FFF7D7FFF1
:10A7A000A84298BF05462A4621463046FFF7B2FF29
:10A7B00007E02A4621463046FFF782FF054600E0C3
:10A7C0000025284670BD0000525454004EE700009A
:10A7D000D46400205465726D696E616C00000000E5
:10A7E0005345474745520000F0B595B00D461A9CB9
:10A7F00016461F462846FCF790FD09A81821FCF7CD
:10A8000099FB09960A970E940023082201A928466D
:10A81000FCF7DCFD0398BDF80A1004900826BDF88B
:10A820000800ADF8140000220198ADF8161000F0F1
:10A83000030001288DF8192017D10198019CC0F35D
:10A84000C2008DF8180008230198C0F38316B200E7
:10A850000FA92846FCF7BAFD09A8009004AB3246C0
:10A860000FA9A00A00F06EF81FE0019800F00300A5
:10A8700002281AD10198019CC0F3C200A40D8DF8E2
:10A8800018000827082C98BF274633463A4607A9E0
:10A890002846FCF79BFD09AB04AA394607A800F03F
:10A8A00099F8BE19E41B002CEBD12846FCF739FDC2
:10A8B00015B0F0BD7CB504460D46E3884BB100BF32
:10A8C0000FF2D8160FF2DC1278A100962846FCF79A
:10A8D00083FA217A05291CD0607A6F4E48B1A0888E
:10A8E000FDF716F806EB800065A142692846FCF7E3
:10A8F00073FAA0880021FCF7FCFF0346207A56F883
:10A90000202028460DF1080DBDE870406DA1FCF730
:10A9100063BA73BD38B50C46017A052959A507D02D
:10A92000407A30B15DA256A12046FCF755FA00E00E
:10A930001AB129462046FCF74FFA2046BDE83240BE
:10A94000FCF73EBA2DE9F84384B017460C9D2E7BE8
:10A95000002281460C4698462A7329464046FFF756
:10A96000A9FF062F2CD8DFE807F004090F1A2116DB
:10A970001D0049462846FCF72FFA21E02268494687
:10A980002846FCF729FA1BE06368226849462846F6
:10A99000FCF722FA14E020690290E1680191A068B6
:10A9A000009007E06069039021690291E0680190DE
:10A9B000A16800916368226849462846FCF70CFAB2
:10A9C000002229464046FFF7A5FF2E7305B0BDE8DB
:10A9D000F08300002DE9FC4B8946B9F1080F0546CC
:10A9E00098464AD80092002298F80CB038A688F809
:10A9F0000C2041460098FFF75DFF002722A44F4539
:10AA000005D2EA5D31464046FCF7E6F903E021460F
:10AA10004046FCF7E1F97F1C082FF0D31BA140460C
:10AA2000FCF7DAF900261AA71AA401954E4516D2AA
:10AA30000198855D7F2D0BDAA5F120005F2808D3F2
:10AA4000284600F049F820B9284600F04FF800B930
:10AA50002E252A4621464046FCF7BEF903E039463A
:10AA60004046FCF7B9F9761C082EDFD30122009886
:10AA70004146FFF74FFF88F80CB0BDE8F38B0000AC
:10AA8000257300000D0A0000202020007C0000003B
:10AA90002000000025630000945F00201B5B306DE8
:10AAA000000000001B5B313B33316D0025734C6FA0
:10AAB00067732064726F707065642028256429258F
:10AAC000730D0A003C25733E2025733A20000000D8
:10AAD000202530327800000010B50446FCF7A3FDB5
:10AAE000014620460969BDE81040084710B50446F4
:10AAF000FCF799FD01462046C969BDE810400847AA
:10AB00006F66660044697361626C6520636F6C6F89
:10AB10007265642073796E7461782E006F6E000028
:10AB2000456E61626C6520636F6C6F726564207343
:10AB3000796E7461782E000044697361626C6520DF
:10AB4000434C49206563686F2E204172726F7773A2
:10AB500020616E6420627574746F6E733A20426176
:10AB6000636B73706163652C2044656C6574652C40
:10AB700020456E642C20486F6D652C20496E7365EE
:10AB8000727420617265206E6F742068616E646CEF
:10AB900065642E00456E61626C6520434C492065FA
:10ABA00063686F2E0000000072657365740000001A
:10ABB000526573657420434C4920737461746973E2
:10ABC0007469637320666F7220746865204C6F67C8
:10ABD000676572206D6F64756C652E0073686F77A2
:10ABE0000000000047657420434C49207374617471
:10ABF00069737469637320666F7220746865204C92
:10AC00006F67676572206D6F64756C652E0000005C
:10AC1000636F6C6F72730000546F67676C652063BD
:10AC20006F6C6F7265642073796E7461782E0000AA
:10AC30006563686F00000000546F67676C652043B0
:10AC40004C49206563686F2E0000000073746174C6
:10AC500073000000434C4920737461746973746914
:10AC600063732E0064656661756C7400417373755F
:10AC70006D6520383020636861727320736372657C
:10AC8000656E20776964746820616E642073656EF8
:10AC90006420746869732073657474696E672074C6
:10ACA0006F20746865207465726D696E616C2E002A
:10ACB000636C656172000000436C656172207363B0
:10ACC0007265656E2E000000636C690055736566E1
:10ACD000756C2C206E6F7420556E69782D6C696BC5
:10ACE0006520434C4920636F6D6D616E64732E0067
:10ACF000686973746F727900436F6D6D616E642063
:10AD0000686973746F72792E000000007265736950
:10AD10007A650000436F6E736F6C652067657473AE
:10AD2000207465726D696E616C2073637265656E07
:10AD30002073697A65206F7220617373756D657316
:10AD400020383020696E2063617365207468652047
:10AD5000726561646F7574206661696C732E204939
:10AD600074206D75737420626520657865637574F1
:10AD7000656420616674657220656163682074652E
:10AD8000726D696E616C20776964746820636861B4
:10AD90006E676520746F20656E7375726520636FD2
:10ADA0007272656374207465787420646973706C62
:10ADB00061792E0000000000BCAD020000AB020073
:10ADC00004AB020000000000876902001CAB020017
:10ADD00020AB020000000000A56902000000000096
:10ADE0000000000000000000000000000000000063
:10ADF000F4AD020000AB020038AB0200000000001E
:10AE00004B6A02001CAB020094AB02000000000081
:10AE1000716A020000000000000000000000000055
:10AE200000000000000000002CAE0200A8AB0200F1
:10AE3000B0AB020000000000876B0200DCAB020038
:10AE4000E4AB020000000000456B020000000000BF
:10AE500000000000000000000000000000000000F2
:10AE600064AE020010AC020018AC0200B4AD0200E7
:10AE7000C369020030AC020038AC0200ECAD020045
:10AE8000FF6902004CAC020054AC020024AE020088
:10AE9000096B02000000000000000000000000003C
:10AEA0000000000000000000ACAE020064AC020034
:10AEB0006CAC020000000000AD6B0200000000005E
:10AEC000000000000000000000000000B0AC020024
:10AED000B8AC0200000000000F690200C8AC02001C
:10AEE000CCAC02005CAE020045690200F0AC02008E
:10AEF000F8AC020000000000976A02000CAD0200EE
:10AF000014AD0200A4AE0200DD6B02004E52465F9B
:10AF100053554343455353004E52465F4552524F9B
:10AF2000525F5356435F48414E444C45525F4D4932
:10AF30005353494E470000004E52465F4552524F10
:10AF4000525F534F46544445564943455F4E4F5414
:10AF50005F454E41424C4544000000004E52465F62
:10AF60004552524F525F494E5445524E414C00009B
:10AF70004E52465F4552524F525F4E4F5F4D454DC8
:10AF8000000000004E52465F4552524F525F4E4FF6
:10AF9000545F464F554E44004E52465F4552524F05
:10AFA000525F4E4F545F535550504F5254454400DA
:10AFB0004E52465F4552524F525F494E56414C49A0
:10AFC000445F504152414D004E52465F4552524FF0
:10AFD000525F494E56414C49445F535441544500D9
:10AFE0004E52465F4552524F525F494E56414C4970
:10AFF000445F4C454E475448000000004E52465FA7
:10B000004552524F525F494E56414C49445F464C5F
:10B01000414753004E52465F4552524F525F494E90
:10B0200056414C49445F4441544100004E52465FF2
:10B030004552524F525F444154415F53495A450073
:10B040004E52465F4552524F525F54494D454F55FF
:10B05000540000004E52465F4552524F525F4E55CB
:10B060004C4C00004E52465F4552524F525F464F85
:10B070005242494444454E004E52465F4552524F5B
:10B08000525F494E56414C49445F4144445200008E
:10B090004E52465F4552524F525F4255535900003F
:10B0A0004E52465F4552524F525F434F4E4E5F43A2
:10B0B0004F554E54000000004E52465F4552524FCD
:10B0C000525F5245534F5552434553004E52465FCF
:10B0D0004552524F525F4D4F44554C455F4E4F5471
:10B0E0005F494E495449414C495A454400000000CB
:10B0F0004E52465F4552524F525F4D555445585F30
:10B10000494E49545F4641494C4544004E52465FC2
:10B110004552524F525F4D555445585F4C4F434B2B
:10B120005F4641494C4544004E52465F4552524F9E
:10B13000525F4D555445585F554E4C4F434B5F46FB
:10B1400041494C45440000004E52465F4552524F23
:10B15000525F4D555445585F434F4E445F494E49E9
:10B16000545F4641494C4544000000004E52465F42
:10B170004552524F525F4D4F44554C455F414C52E2
:10B18000454144595F494E495449414C495A454407
:10B19000000000004E52465F4552524F525F5354DA
:10B1A0004F524147455F46554C4C00004E52465F5A
:10B1B0004552524F525F4150495F4E4F545F494D87
:10B1C000504C454D454E5445440000004E52465F9C
:10B1D0004552524F525F464541545552455F4E4F7E
:10B1E000545F454E41424C45440000004E52465F7C
:10B1F0004552524F525F494F5F50454E44494E476A
:10B20000000000004E52465F4552524F525F44527A
:10B21000565F5457495F4552525F4F5645525255FB
:10B220004E0000004E52465F4552524F525F44520C
:10B23000565F5457495F4552525F414E41434B0060
:10B240004E52465F4552524F525F4452565F5457DA
:10B25000495F4552525F444E41434B004E52465F58
:10B260004552524F525F424C455F495053505F52D6
:10B27000585F504B545F5452554E4341544544001F
:10B280004E52465F4552524F525F424C455F4950C5
:10B2900053505F4348414E4E454C5F414C524541EF
:10B2A00044595F4558495354530000004E52465F7D
:10B2B0004552524F525F424C455F495053505F4C8C
:10B2C000494E4B5F444953434F4E4E4543544544CA
:10B2D000000000004E52465F4552524F525F424CB2
:10B2E000455F495053505F504545525F52454A456E
:10B2F000435445440000000030B5984801780629C1
:10B3000004BF017911F00F0F11D1816801F0F00233
:10B31000302A1FBF01F0F003402B01F0F00150294B
:10B3200005D18F498F4B0A68C2F304211960017857
:10B33000062904BF017911F00F0F02BF017A01F055
:10B34000F001302902D1884A884911600378884A7F
:10B350008849062B04BF037913F00F0F0FD18368C0
:10B3600003F0F004302C1FBF03F0F005402D03F074
:10B37000F003502B03D10B68C3F3423353600378BF
:10B38000062B04BF037913F00F0F02BF037A03F0FB
:10B39000F003302B04D1784B1C6824F080741C60BF
:10B3A0000378062B04BF037913F00F0F10D18368C5
:10B3B00003F0F004302C1FBF03F0F005402D03F024
:10B3C000F003502B04D16D4B00241C605C601460B2
:10B3D0000478062C04BF037913F00F0F06D1037A0B
:10B3E00003F0F003302B04BF032393660278062A90
:10B3F00004BF027912F00F0F02BF027A02F0F002CE
:10B40000302A08D15E4A0523136001249467002581
:10B4100095603F2353600278062A04BF027912F038
:10B420000F0F02BF027A02F0F002502A23D1554BCF
:10B43000554A1C6814605D6855609C689460DD68BE
:10B44000D5601C6914615D6955619C691462DD6990
:10B4500055621C6A94625D6AD5629C6A1463DD6AF7
:10B4600055631C6B14645D6B55649C6B9464DD6B5D
:10B47000D5641B6C13650278062A04BF027912F0AA
:10B480000F0F10D1826802F0F003302B1FBF02F0C3
:10B49000F004402C02F0F002502A04D149693B4AE2
:10B4A00001F04F0111600178062904BF017911F004
:10B4B0000F0F12D1806800F0F00130291FBF00F09B
:10B4C000F002402A00F0F000502806D13048016810
:10B4D000CA0744BF6FF0010101602E480268062AC6
:10B4E00004BF4068062804D12B48016841F48061FC
:10B4F00001602A49C86F40F47000C867BFF34F8FDE
:10B50000BFF36F8F264A106800285CBF5068002880
:10B510001CD5244B01241C60234C00F049F8152550
:10B52000156000F045F8556000F042F800221A60FE
:10B5300000F03EF8BFF34F8F0A681C4802F4E06247
:10B5400002430A60BFF34F8F00BFFDE7014A024983
:10B55000116030BD306000200090D003E00F00F09B
:10B56000240300104035014074C007400DF0ADBA0F
:10B570003805004044020010FCED00E00C010040E2
:10B58000105600400404001020C50040E40E0040A6
:10B5900000040040300100103C1700400CED00E0BA
:10B5A0000012001004E5014000E401400400FA0527
:10B5B00020680028FCD070478168D1F854138907AF
:10B5C00000D517E0BFF34F8F4A494B480A6802F491
:10B5D000E06202430A60BFF34F8F00BFFDE781685E
:10B5E000D1F8541389075CBF0320FDF797B901E038
:10B5F000BDE8704000220021FBF75BB8E0B5816830
:10B60000D1F85413890703D503B05DF804EBF1E7D3
:10B610003A4B3B4940A20093C91A0291019108217B
:10B62000FAF79EFF07BD000070B500F055F800D591
:10B63000DEE700F057F845F0010503D002290CD0F1
:10B6400002D318E042A118E000F061F80246284653
:10B65000BDE8704043A1FCF777BAA06800F058F845
:10B6600000F054F8024633464FEA0500BDE870404A
:10B6700042A1FCF76FBA00BF47A128E070B500F007
:10B680002BF800D5B4E700F02DF845F0020503D003
:10B6900002290CD002D318E04BA118E000F037F8D3
:10B6A00002462846BDE870404DA1FCF74DBAA0689F
:10B6B00000F02EF800F02AF8024633464FEA050063
:10B6C000BDE870404DA1FCF745BA00BF52A1284625
:10B6D000BDE87040FCF735BA14468268D2F85423AE
:10B6E00093077047074A084D551BED082D04491E66
:10B6F000704700000CED00E00400FA050060020055
:10B7000098C60200F8C00200B0C002000646606899
:10B710000A22002100F0D9B84170706C696361742D
:10B72000696F6E20616464726573733A25642028C2
:10B73000307825303858292C2073697A653A2025CD
:10B74000642028307825303858290D0A0000000080
:10B7500074657374206572726F72206D65737361A6
:10B760006765000074657374206572726F72206D76
:10B770006573736167653A202564000074657374AE
:10B78000206572726F72206D6573736167653A2010
:10B79000256420256400000074657374206572724E
:10B7A0006F72206D657373616765207769746820B7
:10B7B0006D6F7265207468616E20332061726775E9
:10B7C0006D656E7473000000746573742077617228
:10B7D0006E696E67206D65737361676500000000B8
:10B7E00074657374207761726E696E67206D65731E
:10B7F000736167653A202564000000007465737406
:10B80000207761726E696E67206D6573736167651D
:10B810003A20256420256400746573742077617272
:10B820006E696E67206D65737361676520776974F3
:10B8300068206D6F7265207468616E2033206172BC
:10B8400067756D656E7473002DE9F84380460C00D2
:10B8500091461D4608BF6C46474600E07F1C38787D
:10B86000FBF708FD0028F9D138782D2816BF2B28C2
:10B8700017F8016B2B262B464A462146384600F026
:10B8800027F821688F4204D1C4F800800020BDE869
:10B89000F2832B2E04D1B0F1004F06D2BDE8F28323
:10B8A0002D2EFBD1B0F1004F0CD9AFF300800DB1BC
:10B8B000012028602D2E14BF6FF000404FF0004093
:10B8C000BDE8F2834042BDE8F2830023BCE7FEE717
:10B8D0002DE9FC4F83B00E4617460BB100221A60CB
:10B8E0008046444600E0641C2078FBF7C3FC002837
:10B8F000F9D120782D2816BF2B2814F801BB4FF062
:10B900002B0B002F019603D4012F01D0252F04DB30
:10B91000002E47D0C6F8008044E0002F0ADD102F2B
:10B9200004BF2078302802BF607840F020007828DB
:10B930000ED10AE02078302818BF0A2708D1607895
:10B9400040F02000782802D11027A41C00E008272E
:10B95000029400E0641C20783028FBD04FF00009EE
:10B9600021A02646CA468DF8000007E09DF8005049
:10B97000451BCA46EDB207FB0959641C207800F04C
:10B980005BF800BF18A301463A46184600F05EF87F
:10B990000028EBD10299A142484605D1019808B18F
:10B9A000C0F8008000201CE019A2A61BD15D761A09
:10B9B000002E0FD405DC451B03D3B5FBF7F1514531
:10B9C00008D0AFF30080049808B1012101604FF066
:10B9D000FF3003E0BBF12D0F08BF4042019901B1D8
:10B9E0000C6005B0BDE8F08F303132333435363776
:10B9F00038396162636465666768696A6B6C6D6E2D
:10BA00006F707172737475767778797A00000000C0
:10BA100000002115110E0D0C0B0B0A0A090909096A
:10BA2000090808080808080807070707070707079D
:10BA3000070707070700000010B50446FBF7F3FDF2
:10BA400001462046896ABDE810400847C9B283070D
:10BA500006D0521E22D310F8013B9942F7D11FE0C5
:10BA6000083A13D302F1040241EA012141EA0141FB
:10BA700050F8043B121F21BF4B40A3F1013C2CEABC
:10BA8000030C1CF0803FF3D0C9B2001F083210F83D
:10BA9000013B521E28BF91EA030FF8D818BF0120BE
:10BAA000401E7047726573657400000053797374AB
:10BAB000656D2072657365742E0000006572726F8B
:10BAC0007200000054726967676572206572726F58
:10BAD000722E00006170705F73697A65000000006B
